:100000000C9420040C9448040C9448040C94891B10
:100010000C94651B0C9448040C9448040C944804FC
:100020000C9448040C9448040C94A81E0C944B1C8B
:100030000C9448040C9448040C9448040C94480410
:100040000C9448040C9448040C9448040C94480400
:100050000C9448040C9448040C9448040C94A52275
:100060000C9448040C9448040C9448040C944804E0
:100070000C9448040C9448040C9448040C944804D0
:100080000C9448040C9448040C9448040C944804C0
:100090000C94EF220C9448040C9448040C944804EB
:1000A0000C9448040C9448040C944804B8303E2D39
:1000B000FA2DF231E42E61310D2E692FF231F23139
:1000C000F231F231F231F231462D692FF2313B2D0E
:1000D000352DF2319B2C1E2D142FF2316C2F692FF0
:1000E000832F9D2FB72FD12FEB2F05301F303930A5
:1000F000F231F231F231F231F231F231F231F231E8
:10010000F2315330B031B83180318831F231903131
:100110007831F231A831C031F231F231A031F2310F
:10012000F231F231F231F231983146084B08500881
:100130005A08A408A408A40864086E08780882086D
:100140008F08A408970803119311D0123012B3132B
:100150006B15D2140816031736176917D917A41789
:10016000DA21DD21D021D421FE21FE21FE21E12151
:10017000E521E921EF21F321FE21F92105A84CCD4C
:10018000B2D44EB93836A9020C50B9918688083CD1
:10019000A6AAAA2ABE000000803F000000000000BE
:1001A00000002A2B280000000000000000000000D2
:1001B000000000000000000000002C9EB4A0A1A2DE
:1001C000A434A6A7A5AE362D3738271E1F2021221E
:1001D00023242526B333B62EB7B89F848586878817
:1001E000898A8B8C8D8E8F90919293949596979807
:1001F000999A9B9C9D2F3130A3AD350405060708C5
:10020000090A0B0C0D0E0F101112131415161718E6
:10021000191A1B1C1DAFB1B0B500080B0002020279
:100220000100090400000102020000052400100181
:100230000524010101042402060524060001070526
:10024000810310004009040100020A0000000705B4
:10025000020240000007058302400000090402007A
:10026000020300000009210101000122E104070549
:10027000840340000107050503400001050109044E
:10028000A10185040901A100093017000000002721
:10029000FFFF0000350047FFFF000075109501814A
:1002A00002093116000027FFFF0000350047FFFF5D
:1002B0000000751095018102093216000027FF0F1A
:1002C0000000350047FF0F0000750C950181020901
:1002D0003316000027FF0F0000350047FF0F000016
:1002E000750C95018102093416000027FF0F0000EC
:1002F000350047FF0F0000750C9501810209391583
:100300000125083500463B0165145500750495012B
:1003100081020509150025015500650019012918FC
:1003200075019518810285F10901150026FF0095D8
:100330003F7508918285F20901953F75088182C059
:10034000050F0992A1028502099F09A009A409A528
:1003500009A61500250135004501750195058102A5
:1003600095038103099415002501350045017501A8
:1003700095018102092215012528350145287507B7
:1003800095018102C00921A10285010922150125DB
:1003900028350145287508950191020925A1020912
:1003A000260927093009310932093309340940097E
:1003B0004109420943250B15013501450B75089587
:1003C000019100C009500954150027FFFF000035B6
:1003D0000047FFFF000066011055FD751095029162
:1003E0000255006600000952150026FF7F350046C1
:1003F000FF7F7510950191020953150125083501FC
:1004000045087508950191020955A10205010930B9
:10041000093115002501750195029102C0050F09EA
:100420005695019102950591030957A1020B010010
:100430000A000B02000A0066140055FE150026FF94
:100440007F3500479F8C0000751095019102550083
:10045000660000C0050F09A766011055FD150027AD
:10046000FFFF0000350047FFFF0000751095019168
:10047000026600005500C0050F095AA10285020955
:100480002215012528350145287508950191020995
:100490005B095D150026FF00350046FF7F75089556
:1004A000029102095C095E66011055FD26FF7F4638
:1004B000FF7F7510950291026600005500C0095F2C
:1004C000A102850309221501252835014528750853
:1004D0009501910209231500250135004501750498
:1004E000950191020958A1020B01000A000B0200BC
:1004F0000A00750295029102C0096016008026FF6D
:100500007F36008046FF7F751095019102096136A4
:10051000008046FF7F95019102150026FF7F350080
:1005200046FF7F0963751095019102096515002644
:10053000FF0046FF7F750895019102C0096EA10278
:1005400085040922150125283501452875089501DE
:1005500091020970150026FF7F350046FF7F751058
:1005600095019102096F16008026FF7F36008046B4
:10057000FF7F950191020971150026FF00350046A5
:1005800067016614005500750895019102097227EC
:10059000FFFF000047FFFF000066011055FD7510CA
:1005A000950191026600005500C00973A1028505FE
:1005B0000922150125283501452875089501910264
:1005C000097016018026FF7F36018046FF7F751077
:1005D00095019102C00974A1028506092215012521
:1005E0002835014528750895019102097509761588
:1005F00081257F36018046FF7F750895029102C0F4
:10060000050F0977A102850A092215012528350160
:1006100045287508950191020978A1020979097A9E
:10062000097B15012503750895019100C0097C150A
:100630000026FF00350046FF009102C00990A1028C
:10064000850B0922150125283501452875089501D6
:100650009102C00996A102850C0997099809990988
:100660009A099B099C15012506750895019100C002
:10067000097DA102850D097E150026FF0035004683
:100680001027750895019102C009ABA102850509E3
:1006900025A1020926092709300931093209330940
:1006A0003409400941094209431501250B3501452B
:1006B0000B75089501B100C00501093B150026FF27
:1006C00001350046FF01750A9501B1027506B101B9
:1006D000C0050F0989A102850609222528150135C3
:1006E00001452875089501B102098BA102098C0901
:1006F0008D098E250315013501450375089501B156
:1007000000C009AC150027FFFF0000350047FFFFC0
:10071000000075109501B100C0097FA1028507098D
:100720008075109501150027FFFF0000350047FF79
:10073000FF0000B102098326FF0046FF00750895FF
:1007400001B10209A909AA75019502150025013513
:10075000004501B10275069501B103C0C0180341FF
:100760000072006400750069006E006F0020004C8C
:10077000004C00430004030904220341007200649A
:1007800000750069006E006F0020004C0065006F6E
:10079000006E006100720064006F00120100020030
:1007A00000004041233680000101020001120100D7
:1007B00002020000404123368000010102000100D6
:1007C000C18081C1C000000000240027002A002D44
:1007D00000300000000000250028002B002E003112
:1007E00000040404040403040502020202040302D8
:1007F00002020206060606060604040202020404B9
:10080000040802011040804010204080408008020F
:100810000401804020100201108010204040200080
:1008200000000200080E0000030401000B0000009D
:1008300000000000000000000000000000000C327A
:1008400011241FBECFEFDAE0DEBFCDBF11E0A0E084
:10085000B1E0ECE5FCE602C005900D92A23AB107CA
:10086000D9F725E0A2EAB1E001C01D92A938B2078C
:10087000E1F714E0C0E2D4E004C02197FE010E9439
:100880001A36CF31D107C9F70E944D250C942C366A
:100890000C9400000895CF93DF93FC01EB0171816C
:1008A0008281898387819085998788872585368588
:1008B000438154816DE1769FC00111248B5B9D4F74
:1008C000DC011F965C934E931E9755963C932E9396
:1008D000549764E0769FD0011124AB5EBD4F1D920A
:1008E0001D921D921C921397838594859D878C87FA
:1008F00082858D8381E0DF91CF910895FC01228173
:10090000FB012683FC018381FB0187830895FC01A1
:1009100082819381FB01978B868B0895DC01FB011B
:1009200012968D919C911397978B868B14968D912F
:100930009C911597938F828F16968C911697848F22
:1009400017968D919C911897938782870895DC0163
:10095000FB0115968D919C911697978B868B13961C
:100960008D919C911497938F828F19968C911997E2
:10097000848317968D919C911897918F808F0895FD
:10098000DC01FB0112968C911297828313968C9155
:100990001397838314968D919C911597938B828BDB
:1009A00016968D919C911797918B808B08959DE160
:1009B000899FF0011124EB5BFD4F77876687558B8C
:1009C000448B94E0899FF0011124EB5EFD4F10826F
:1009D0001182128213820895089508951092650479
:1009E00024E0829FC0011124FC01EB5EFD4F1082C8
:1009F000118212821382089525E0FC01208384E392
:100A000091E008950895809365040895CF92DF9250
:100A1000EF92FF926091B1017091B201072E000C2C
:100A2000880B990B0E9444346B017C016091A303F5
:100A30007091A4038091A5039091A6030E94443471
:100A40009B01AC01C701B6010E949A33FF90EF9061
:100A5000DF90CF9008951F93CF93DF93EC0119811E
:100A60009881953009F45DC058F59230D1F1A8F421
:100A7000913009F03FC2E091A301F091A4012DE172
:100A8000129FB00111246B5B7D4F028CF38DE02D22
:100A9000CE01DF91CF911F910994933081F1943071
:100AA00009F028C2E091A301F091A401ADE11A9FE1
:100AB000B00111246B5B7D4F0488F589E02D2CC0BB
:100AC0009B3009F493C030F49630C9F19A3009F4A0
:100AD00044C010C29C3009F4C2C0913F09F411C156
:100AE00009C2E091A301F091A4013DE1139FB0017F
:100AF00011246B5B7D4F0088F189E02D0DC0E091E2
:100B0000A301F091A4018DE1189FB00111246B5B4A
:100B10007D4F0288F389E02DCE01DF91CF911F91A7
:100B20000994E091A301F091A401BDE11B9FB001E4
:100B300011246B5B7D4F0688F789E02DEDCFE091A6
:100B4000A301F091A4012DE1129FB00111246B5B70
:100B50007D4F008CF18DE02DDFCF1F3F09F41FE7A3
:100B60009A81913099F4812F0E94441BE12FF0E08B
:100B7000E751FE4F85818111BDC1E091A301F09144
:100B8000A4010680F781E02D812F47C0923029F51E
:100B9000C1E08C2F0E94221BCF5FCC30D1F7C12F38
:100BA000D0E0C751DE4F8D81811109C0E091A301D2
:100BB000F091A4010084F185E02D8FE70995812F44
:100BC0000E94441B8D81811195C1E091A301F09198
:100BD000A4010680F781E02D1FC0933009F08AC17F
:100BE000812FDF91CF911F910C94221B81E01F3F39
:100BF000C1F480930C018CE591E0E5E4F2E0DF01C3
:100C00009C011D9221503040E1F7E091A301F09149
:100C1000A4010284F385E02D8FE7DF91CF911F912E
:100C20000994809365041C3008F064C13DE1139F72
:100C3000F0011124EB5BFD4F108280910C0118171D
:100C400010F410930C01E091A301F091A40102842F
:100C5000F385E02D812F09951092F9014BC182E0B7
:100C60008093FA019091FB0194609093FB01909125
:100C7000FB0190619093FB011092FC011330C1F0D5
:100C800048F4113089F0123009F034C18091FB0131
:100C9000826034C0153079F1B8F0163009F02AC1FD
:100CA0008091FB018E7F2AC08091FB018D7F26C041
:100CB000E091A301F091A4010480F581E02D80E092
:100CC00009951092FC0116C1E091A301F091A401D5
:100CD0000480F581E02D81E0099581E080930C018D
:100CE0008CE591E0E5E4F2E0DF019C011D922150EA
:100CF0003040E1F7FFC08091FB0181608093FB01F0
:100D0000F9C08E89813009F0ADC0A981BA81AE31B8
:100D1000B1053CF0A93037E0B3072CF0A8E0B7E00C
:100D200002C0AEE1B0E02091AC013091AD01409144
:100D3000AE015091AF010E94EF3228E631E040E071
:100D400050E00E94C5322093A3033093A403409344
:100D5000A5035093A603CA01B90122E030E040E0A8
:100D600050E00E94C5322093130230931402409346
:100D70001502509316028D89813011F40E94D10E14
:100D80008F81893C08F088EC809309028885893C32
:100D900008F088EC809318028985893C08F088EC7B
:100DA000809311028A85893C08F088EC80930F02B9
:100DB0008B85893C08F088EC809317028C85893CF0
:100DC00008F088EC809312028D85893C08F088EC4D
:100DD000809310028E85893C08F088EC8093A103F3
:100DE0008F85893C08F088EC80930A022A893B8928
:100DF0008091A9039091AA0328173907A0F437FD21
:100E00000AC08091A5019091A60101972817390782
:100E100020F4C90102C080E090E09093A803809381
:100E2000A70383E68E8B288939898091A703909147
:100E3000A8038217930708F050C083E68E8B121622
:100E400013064CF48091A5019091A601281739074B
:100E500020F4C90102C081E090E09093AA0380933E
:100E6000A9033BC08F3FC9F58091B1019091B201B8
:100E70009A8389838091D4039091D503A091D6035E
:100E8000B091D7038B839C83AD83BE83809109028D
:100E90008F838091180288878091110289878091C1
:100EA0000F028A87809117028B87809112028C87AC
:100EB000809110028D878091A1038E8780910A0214
:100EC0008F878091A9039091AA03998B888B809139
:100ED000A7039091A8039B8B8A8B80EF90E0988F5B
:100EE0008F8B40E450E0BE0182EFDF91CF911F91E4
:100EF0000C94381FDF91CF911F9108952F923F924C
:100F00004F925F926F927F928F929F92AF92BF9219
:100F1000CF92DF92EF92FF92CF93DF93CDB7DEB700
:100F200064970FB6F894DEBF0FBECDBF6B017C0196
:100F30006091090270E080E090E00E9444342AE071
:100F400037ED43E25CE30E94F93469837A838B8353
:100F50009C8316012701F7FE07C0222433242101B8
:100F60002C183D084E085F08C201B1010E944434AC
:100F70004B015C016091A9037091AA0380E090E0AD
:100F80000E9442346D837E838F83988726E636E6FF
:100F900046E65FE30E94F93429813A814B815C8106
:100FA0000E94F93469877A878B879C879B01AC0103
:100FB000C501B4010E94F43487FDCBC02D813E8170
:100FC0004F81588569817A818B819C810E94F93497
:100FD0006D877E878F87988B20E030E040E85FE365
:100FE0000E9428339B01AC01C501B4010E949533D6
:100FF00087FFAFC069857A858B859C850E940C34FC
:101000004B015C01A2019101261B370B480B590BC8
:10101000AEE3B0E00E94E43269837A838B839C83E1
:101020006D857E858F8598890E940C349B01AC016B
:10103000281939094A095B0969817A818B819C8168
:101040000E94C53249015A018FEF881A980AA80AEE
:10105000B80A340161E08DE00E94122281149104EB
:1010600009F498C08FEF8816910409F48EC0ECE261
:10107000F8E0E4918E2F90E0FC013197EE30F1051D
:1010800008F062C0EB56FF4F0C941A3684B58068A6
:1010900084BD87BC83C084B5806284BD88BC7EC0AB
:1010A0008091800080688093800090928900809277
:1010B000880074C08091800080628093800090924C
:1010C0008B0080928A006AC0809190008068809333
:1010D0009000909299008092980060C0809190005A
:1010E00080628093900090929B0080929A0056C0FC
:1010F0008091900088608093900090929D008092F3
:101100009C004CC08091C00080688093C00080919A
:10111000C0008F7B8093C0008092CF003FC0809141
:10112000C00080628093C0008092D00037C0809160
:10113000C20088608093C2008091C2008B7F809340
:10114000C2008092D2002AC080E868167104ECF4D4
:1011500021C02D813E814F81588569817A818B81A3
:101160009C810E94F93420E030E040E85FE30E9477
:1011700028339B01AC01C501B4010E94F43461E045
:1011800087FD05C08DE00E94122261E004C08DE061
:101190000E94122260E08DE00E94B3216091B001B4
:1011A00070E060587109072E000C880B990B0E94A3
:1011B000443420E030E04FE753E40E949A334B017F
:1011C0005C0160930502709306028093070290937E
:1011D000080220E030E0A9010E94F4341816ACF4B3
:1011E000A501940160E070E080E89FE30E9428334D
:1011F00060930102709302028093030290930402B1
:1012000080E090E0A0E8BFE330C020E030E0A9013A
:10121000C501B4010E94953387FF1BC080E090E0B8
:10122000A0E8BFE38093010290930202A09303021F
:10123000B09304029C01AD01C501B4010E942933A1
:101240006093FD017093FE018093FF019093000273
:1012500014C080E090E0A0E8BFE380930102909387
:101260000202A0930302B09304028093FD019093C5
:10127000FE01A093FF01B09300029091AB01892F72
:10128000807491FDD4C0811188C01C141D041E04FB
:101290001F04A4F54090A9035090AA038090A703CF
:1012A0009090A803A12CB12C612C712CC301B20128
:1012B0000E9442342091FD013091FE014091FF01D6
:1012C000509100020E94F9340E940C346819790987
:1012D0008A099B09A70196010E94F635A301920194
:1012E0000E94C53269017A01C80CD91CEA1CFB1C9A
:1012F00080E090E00E942A24C60141C0C114D104BC
:10130000E104F10409F43FC04090A9035090AA03FE
:101310008091A7039091A8034C01A12CB12CF094CB
:10132000E094D094C094C11CD11CE11CF11C612C30
:10133000712CC301B2010E9442342091010230910C
:10134000020240910302509104020E94F9340E946B
:101350000C34681979098A099B09A70196010E9432
:10136000F635A30192010E94C532DA01C901880D48
:10137000991DAA1DBB1D0E942A2480E090E00E94B6
:101380001D242F9A1CC180E090E00E942A2480E056
:1013900090E00E941D242F9812C1E091A903F091C2
:1013A000AA031C141D041E041F04DCF44F019694B0
:1013B00087948091A7039091A803880E991EA12C71
:1013C000B12C2F01612C712CC301B201681979096C
:1013D0008A099B09A70196010E94F635A301920193
:1013E00019C0C114D104E104F104E9F04F0196944D
:1013F00087948091A7039091A803881A990AA12C39
:10140000B12CA5019401C701B6010E94F6359F01D8
:1014100040E050E00E94C532DA01C901880D991DF3
:10142000AA1DBB1DB0C0CF0196958795ACC0811198
:1014300027C0F7FC02C02F9A01C02F988091A70304
:101440009091A8036C01E12CF12C8090A90390905D
:10145000AA03A12CB12CC501B4016C197D098E0918
:101460009F09A20191010E94F635A50194010E94F5
:10147000C532DA01C9018C0D9D1DAE1DBF1D83C093
:101480001C141D041E041F046CF520E030E040E82D
:101490005FE36091A7017091A8018091A9019091EB
:1014A000AA010E9429332091040130910501409145
:1014B0000601509107010E94F9340E940C344B013F
:1014C0005C01609100017091010180910201909195
:1014D00003010E940C34681979098A099B09A70144
:1014E00096013FC0C114D104E104F10409F440C0E5
:1014F0002091A7013091A8014091A9015091AA0122
:1015000060E070E080E89FE30E94283320910401AE
:101510003091050140910601509107010E94F93474
:101520000E940C344B015C0122273327A9012C199E
:101530003D094E095F096091080170910901809190
:101540000A0190910B01298B3A8B4B8B5C8B0E948B
:101550000C34681979098A099B0929893A894B89C8
:101560005C890E94F6352091A9033091AA0350CFDF
:10157000609104017091050180910601909107012D
:101580000E941334CB010E942A2480E090E06496EC
:101590000FB6F894DEBF0FBECDBFDF91CF91FF90A5
:1015A000EF90DF90CF90BF90AF909F908F907F9003
:1015B0006F905F904F903F902F900C941D246496F5
:1015C0000FB6F894DEBF0FBECDBFDF91CF91FF9075
:1015D000EF90DF90CF90BF90AF909F908F907F90D3
:1015E0006F905F904F903F902F9008956091A5016C
:1015F0007091A60180E090E00E9442349B01AC0112
:1016000060E07EEF8FEF96E40E949A3308952F9268
:101610003F924F925F926F927F928F929F92AF9282
:10162000BF92CF92DF92EF92FF920F931F93CF93CF
:10163000DF93CDB7DEB729970FB6F894DEBF0FBEA4
:10164000CDBF998788874B012B831D830C8317019E
:10165000DF82CE82042F10E08C819D816C01E12C11
:10166000F12CE885F985F7FD2BC0C8019695982FD8
:10167000882797958795BF01681B790B072E000C6B
:10168000880B990B0E9444342B013C01C701B60121
:101690000E9442349B01AC01C301B2010E949A3303
:1016A0002B013C01C8019695982F8827979587951F
:1016B0009A838983EB8190E8E99FB00111242AC0C5
:1016C000B8017695762F662777956795E885F98531
:1016D0006E0F7F1F072E000C880B990B0E9444345D
:1016E0002B013C01C701B6010E9442349B01AC01B1
:1016F000C301B2010E949A332B013C0160E86003F0
:10170000C001619F900D11249A8389832B8162030C
:10171000B001112488859985681B790B072E000C70
:10172000880B990B0E9444346B017C01B10180E06D
:1017300090E00E9442349B01AC01C701B6010E94B7
:101740009A336B017C018A149B0408F43FC08E819C
:101750009F818A0D9B1D88169906C0F50C811D81FD
:101760000A0D1B1D8016910690F4B4016A197B09BD
:1017700080E090E00E9442349B01AC01C301B201C1
:101780000E94F9340E940C3489819A811CC082190C
:10179000930988159905E8F48A189B08EE81FF8162
:1017A0008E1A9F0AB401620D731D80E090E00E94C2
:1017B00042349B01AC01C701B6010E94F9340E947A
:1017C0000C3488859985860F971F05C080E090E0CE
:1017D00002C08885998529960FB6F894DEBF0FBEA2
:1017E000CDBFDF91CF911F910F91FF90EF90DF90D0
:1017F000CF90BF90AF909F908F907F906F905F90B1
:101800004F903F902F900895CF92DF92EF92FF92EA
:101810000F931F938B019C014091A9035091AA0340
:101820006A01E12CF12C66277727CB016C197D0921
:101830008E099F0906171707280739074CF0C901B9
:10184000B801C016D106E206F30614F4C701B601CA
:101850001F910F91FF90EF90DF90CF9008958F929E
:101860009F92AF92BF92CF92DF92EF92FF92CF936F
:10187000DF934B015C01EA010E9406056B017C01CC
:10188000DE01A50194010E94EF320E944434A701B9
:1018900096010E94F93420E030E040E051E40E94DB
:1018A000F93420E030E040E251E40E94F93420E0D5
:1018B00030E040E85BE30E94F9340E940C340E945F
:1018C000040C90958095709561957F4F8F4F9F4F39
:1018D000DF91CF91FF90EF90DF90CF90BF90AF90CE
:1018E0009F908F9008954F925F926F927F928F9208
:1018F0009F92AF92BF92CF92DF92EF92FF92CF93DF
:10190000DF9300D000D0CDB7DEB74B015C0157FFAD
:1019100002C04D5F5F4F6A01D594C794D594C794B8
:101920000E94060569837A838B839C839B01AC01AB
:10193000C501B4010E94F93420E030E040E251E4F6
:101940000E94F9342B013C0120E030E040E85FE3E5
:101950000E94F4340D2C000CEE08FF0818161CF43D
:10196000C701B60128C020E030E040E85FEBC301CA
:10197000B2010E94953387FF06C0C701B6010E94DD
:10198000040CCB011EC0C701B6010E9444349B0168
:10199000AC01C501B4010E94F93429813A814B811F
:1019A0005C810E94F93420E030E040E251E40E9482
:1019B000F9340E940C340E94040C88279927861B56
:1019C000970B0F900F900F900F90DF91CF91FF909A
:1019D000EF90DF90CF90BF90AF909F908F907F90CF
:1019E0006F905F904F9008958F929F92AF92BF92A9
:1019F000CF92DF92EF92FF924B015C01BA01550F3B
:101A0000880B990B0E9444346B017C0120E030E08C
:101A1000A901C501B4010E94F434A501940118166E
:101A20000CF05058C701B6010E94F9346B017C01DB
:101A30000E9406059B01AC01C701B6010E94F93462
:101A400020E030E040E851E40E94F93420E030E04A
:101A500040E251E40E94F93420E030E040E05DE3F0
:101A60000E94F9340E940C340E94040C6B017C012A
:101A700020E030E0A901C501B4010E94F434181639
:101A80002CF4882799278C199D090DC020E030E09F
:101A9000A901C501B4010E94953387FF02C0C601A8
:101AA00002C080E090E0FF90EF90DF90CF90BF9079
:101AB000AF909F908F900895CF92DF92EF92FF9218
:101AC000CF93DF936B017C01EA0120E030E0A901B4
:101AD0000E94F434181694F020E030E0A901C70108
:101AE000B6010E94953387FF3AC020E030E0A9019B
:101AF000C701B6010E9429336B017C01BE01DD0FD5
:101B0000880B990B0E9444349B01AC01C701B601BC
:101B10000E94F9346B017C010E9406059B01AC0117
:101B2000C701B6010E94F93420E030E040E851E4FA
:101B30000E94F93420E030E040E251E40E94F934A0
:101B400020E030E040E05BE30E94F9340E940C3476
:101B50000E94040C88279927861B970B02C080E0FF
:101B600090E0DF91CF91FF90EF90DF90CF900895BC
:101B7000009769F0FC0101900020E9F73197AF016F
:101B8000481B590BBC0182EB93E00C941A2080E0B7
:101B900090E008950F931F930E9499226093BA03D7
:101BA0007093BB038093BC039093BD03E091B20399
:101BB000F091B3030084F185E02D82EB93E0099569
:101BC00097FF1FC00E9499220091BA031091BB0396
:101BD0002091BC033091BD03DC01CB01801B910B34
:101BE000A20BB30B0091B6031091B7032091B80379
:101BF0003091B90380179107A207B307B8F28FEFAE
:101C00009FEF1F910F9108959091B10389B18C704E
:101C1000892B90E09C013595279535952795209344
:101C2000B1034091AD035091AE036091AF03709149
:101C3000B003FC01E75CFE4F8081082E000C990B7D
:101C4000AA0BBB0B840F951FA61FB71F8093AD0374
:101C50009093AE03A093AF03B093B0038091AC0315
:101C60000895E091B203F091B3030190F081E02D6B
:101C7000682F82EB93E00994CF93DF938DE00E946D
:101C8000310EEC018AE00E94310E8C0F9D1FDF9116
:101C9000CF9108958F929F92AF92BF92EF92FF9251
:101CA0000F931F93CF93DF93CDB7DEB7A1970FB6F6
:101CB000F894DEBF0FBECDBF162F042F19A24230FD
:101CC00008F40AE07E0121E2E20EF11C802E912C44
:101CD000A12CB12C612FA50194010E94F732029F23
:101CE0001019112481E0E81AF1081A3014F4105D7B
:101CF00001C0195CF7011083122F732FCA01232B27
:101D0000242B252B39F7C7010E94B80DA1960FB6D9
:101D1000F894DEBF0FBECDBFDF91CF911F910F9121
:101D2000FF90EF90BF90AF909F908F900895CF92CB
:101D3000DF92EF92FF92CF93DF9397FF19C06B0171
:101D40007C018DE20E94310EEC0166277727CB01E2
:101D50006C197D098E099F094AE00E944A0E8C0F7A
:101D60009D1FDF91CF91FF90EF90DF90CF9008956E
:101D70004AE0DF91CF91FF90EF90DF90CF900C94ED
:101D80004A0ECF93DF93BC01990F880B990B0E94E9
:101D9000970EEC010E943C0E8C0F9D1FDF91CF919E
:101DA00008954F925F926F927F928F929F92AF921F
:101DB000BF92CF92DF92EF92FF92CF93DF93F8948E
:101DC000C090AD03D090AE03E090AF03F090B003AD
:101DD00078946091A9037091AA038091A7039091D0
:101DE000A803681B790B769567957695679580E0D3
:101DF00090E00E947E0768EC70E080E090E00E9436
:101E0000732246015701C8EED3E06091A903709197
:101E1000AA038091A7039091A803681B790B76957C
:101E200067957695679580E090E00E947E0768EC64
:101E300070E080E090E00E947322F8944090AD033F
:101E40005090AE036090AF037090B0037894841408
:101E50009504A604B70421F0219753014201A9F685
:101E60008091A3039091A403A091A503B091A60330
:101E7000F8948093AD039093AE03A093AF03B09317
:101E8000B003789460E070E0CB010E947E07C41438
:101E9000D504E604F70411F482E001C081E08093E8
:101EA000D80381E090E0DF91CF91FF90EF90DF9039
:101EB000CF90BF90AF909F908F907F906F905F90EA
:101EC0004F900C94C10E2F923F924F925F926F925F
:101ED0007F928F929F92AF92BF92CF92DF92EF92BA
:101EE000FF920F931F93CF93DF93CDB7DEB7AF97DA
:101EF0000FB6F894DEBF0FBECDBF6B837C838D839E
:101F00009E838091D9039091DA03A091DB03B09175
:101F1000DC032B813C814D815E812093D90330937A
:101F2000DA034093DB035093DC032091E103222387
:101F300009F44AC010910A0434E0139FA00111244F
:101F4000BA0167527C4F7B012B813C814D815E81C0
:101F5000281B390B4A0B5B0BCA01B9010E944434A0
:101F6000D70119966D937D938D939C931C97012FA8
:101F7000BAE0FB2E60E070E0CB01B4E00B9FF00113
:101F80001124E752FC4F21853285438554850E94F8
:101F90002933002311F0015001C009E0FA94F11037
:101FA000ECCF20E030E040E251E40E949A331F5F22
:101FB0001A3018F410930A0402C010920A046D8BB0
:101FC0007E8B8F8B988F0FC081E08093E1031092FE
:101FD000DD031092DE031092DF031092E0031D8AEE
:101FE0001E8A1F8A188E20910B0430910C04409198
:101FF0000D0450910E048D899E89AF89B88D809310
:102000000B0490930C04A0930D04B0930E048091E4
:102010001304882309F443C010916404E4E01E9F74
:10202000B0011124CB018E519C4F7C016D897E89BA
:10203000CD010E942833D701D2966D937D938D9365
:102040009C93D597012FA4E1FA2E60E070E0CB01BC
:10205000B4E00B9FF0011124EE51FC4F22A933A9EB
:1020600044A955A90E942933002311F0015001C051
:1020700003E1FA94F110ECCF20E030E040EA51E4C3
:102080000E949A331F5F143118F41093640402C045
:10209000109264046D8F7E8F8F8F98A30FC081E0A4
:1020A0008093130410920F041092100410921104E4
:1020B000109212041D8E1E8E1F8E18A28091650430
:1020C000882309F441C08B819C81AD81BE81B7FF1B
:1020D00007C0B095A095909581959F4FAF4FBF4F8A
:1020E0000297A105B1050CF487C78091A20380FF78
:1020F00083C70E94F60A9B01AC0160E070E080E0BB
:1021000094E40E949A336B017C016091A10370E01A
:1021100080E090E00E9444349B01AC01C701B6010D
:102120000E94F93420E030E048EC52E40E949A33F7
:102130000E940C34AB016B817C818D819E810E9459
:102140002F0C2B013C015BC7E9E1F2E0FC8BEB8B30
:102150001A821982412C512C320129813A812F5F38
:102160003F4F3A8329836DE1629FA001639F500D29
:1021700011248A010B5B1D4FD8018C918370833031
:1021800009F02DC70E94F60A6B017C01F801208539
:102190003185A689B7890E9420362FEF3FE740E0BE
:1021A00050E00E94C532CA01B9010E944434A7011F
:1021B00096010E949A330E940C346B017C01D80175
:1021C0001A968D919C911B97059730F4E4E0F0E00E
:1021D0001B96FC93EE931A974DE129813A81429F19
:1021E000F001439FF00D1124EB5BFD4FE1818E2F39
:1021F00090E0FC013197ED30F10508F0DAC6ED55BD
:10220000FF4F0C941A360E94F60A6F8378878987ED
:102210009A878DE169817A81869FA001879F500D01
:102220001124DA01AB5BBD4F1D0118968D909C9077
:1022300019975496AD90BC9055971E96CD90DC9012
:102240001F975096ED90FC90519752960D911C91CE
:10225000539713962C91139712964C91129756966A
:102260008D919C915797EB89FC89608171810E94C7
:10227000070B9401DC010E9420362FEF3FE740E07E
:1022800050E00E94C532CA01B9010E9444342F8136
:10229000388549855A850E949A330E940C340E94E1
:1022A000040C9B01AC01A0911802B0E00E94E43242
:1022B00024E630E040E050E00E94C532421A530A62
:1022C000640A750AD10115968C91159782FF71C623
:1022D0001C966D917C911D9780E090E00E944234A5
:1022E0002BED3FE049EC50E40E94F93420E030E06F
:1022F00040E058E30E94F9340E9466359B01AC012E
:10230000C301B2012AA73DA74BA75CA70E94443492
:102310002AA53DA54BA55CA50E94F9340E940C346A
:102320002B013C0146C60E94F60A6F837887898795
:102330009A874DE129813A81429FF001439FF00D38
:102340001124EB5BFD4F608571857C876B87A488CA
:10235000B58886859785988B8F87A089B189BA8F34
:10236000A98F228933893DA32CA383809280AB89D6
:10237000BC892D903C90268537853FA72EA7678185
:102380000681002E000C110B062E000C770B601B33
:10239000710BCB01770FAA0BBB0B6627782F892F08
:1023A0009A2F0E9444346B017C014EA55FA5BA01AF
:1023B00080E090E00E94423420E030E04AE754E4BC
:1023C0000E949A339B01AC01C701B6010E949A3367
:1023D0006B017C01C1016EA57FA50E940636BC0180
:1023E00080E090E00E94423420E030E04AE754E48C
:1023F0000E949A339B01AC01C701B6010E94F934D7
:102400000E940C34102F0027C801860F971FCF841D
:10241000D888E98CFA8C0CA11DA1282D492DB10179
:102420000E94070B2B853C85DC010E9420362FEF94
:102430003FE740E050E00E94C532CA01B9010E9466
:1024400044342F81388549855A850E949A330E94E9
:102450000C340E94040C461A570A680A790AA9C566
:102460000E94F60A6F83788789879A878DE1698150
:102470007A81869FF001879FF00D1124EB5BFD4F61
:1024800020843184A28DB38DBC87AB87B48DBF8788
:10249000228533853A8F298FA488B588C684D7844E
:1024A000E088F1880289138923814281AB89BC8944
:1024B0008D909C9086899789B4010E94070B8C01AE
:1024C000E98DFA8DBF0180E090E00E94423420E067
:1024D00030E04AE754E40E949A339B01AC0160E08B
:1024E00070E080E89FE30E949A336B017C01C40195
:1024F000698D7A8D0E940636BC0180E090E00E94D2
:10250000423420E030E04AE754E40E949A339B01D1
:10251000AC01C701B6010E94F9346B017C01FF8553
:102520006F2F70E080E090E00E94423420E030E0C5
:1025300040E85BE30E94F9349B01AC01C701B6019E
:102540000E9429332BED3FE049EC50E40E94F9341E
:102550000E9466359B01AC016B857C856B01770F12
:10256000EE08FF08B801110F880B990B2AA73DA7A9
:102570004BA75CA70E9444342AA53DA54BA55CA5AA
:102580000E94F9340E940C34CB01770FAA0BBB0BCD
:10259000A7019601280F391F4A1F5B1FD101BDC03B
:1025A0000E94F60A6F83788789879A87ADE18981CF
:1025B0009A81A89FF001A99FF00D1124EB5BFD4FBC
:1025C000208531853C872B87228D338DA901330FE0
:1025D000660B770B4F87588B698B7A8B548D598F8D
:1025E00022843384A488B588C684D784E088F1889F
:1025F0000289138923814281AB89BC890D90BC91EA
:10260000A02DBDA3ACA386899789BD010E94070BAD
:10261000BC01990F880B990B0E9444346B017C011B
:10262000B10180E090E00E94423420E030E04AE7CF
:1026300054E40E949A339B01AC0160E070E080E8B2
:102640009FE30E949A334B015C018CA19DA1B101D3
:102650000E940636BC0180E090E00E94423420E0F7
:1026600030E04AE754E40E949A339B01AC01C50173
:10267000B4010E94F9344B015C01B98D6B2F70E0FD
:1026800080E090E00E94423420E030E040E85BE3EC
:102690000E94F9349B01AC01C501B4010E942933A9
:1026A0002BED3FE049EC50E40E94F9340E9466357E
:1026B0004B015C0120E030E0A9010E94F43487FF67
:1026C0000CC020E030E0A901C501B4010E9495339F
:1026D00087FF05C0EFEFEBA302C0F1E0FBA32BA146
:1026E000622F220F770B880B990B0E9444349B01B9
:1026F000AC01C701B6010E94F9340E940C34CB0131
:10270000770FAA0BBB0B2F85388949895A89280F67
:10271000391F4A1F5B1FAB85BC850E94E4322FEF37
:102720003FE740E050E00E94C532CA01B9010E9473
:1027300044342F81388549855A850E949A330E94F6
:102740000C349B01AC01A0911702B0E00E94E4326E
:1027500024E630E040E050E00E94C532420E531EB5
:10276000641E751E26C40E94F60A6B877C878D87BF
:102770009E876DE149815A81649FF001659FF00D4C
:102780001124EB5BFD4F80859185988B8F87228D7F
:10279000338DA901330F660B770B498F5A8F6B8FDF
:1027A0007C8F348D22843384A488B588C684D784F2
:1027B000E088F1880289138923814281AB89BC8931
:1027C0000D90BC91A02DB887AF8386899789BD01F4
:1027D0003DA70E94070B8C01B10180E090E00E94B0
:1027E00042344B015C013DA580E4830F682F70E00B
:1027F00080E090E00E94423420E030E040E85BE37B
:102800000E94F934A50194010E94F9340E94133406
:102810008F819885860F971FB1010E9406369DA370
:102820008CA3BC0180E090E00E94423420E030E0C4
:102830004AE754E40E949A336B017C0120E030E0C7
:10284000A9010E94F43487FD3CC020E030E04AE753
:1028500054E4C501B4010E949A336F837887898755
:102860009A8720E030E040E05FE30E94F9349B016A
:10287000AC01C701B6010E94953387FF22C0B801A1
:10288000012E000C880B990B0E94443420E030E0AC
:1028900040E850E40E94F9342F81388549855A85F3
:1028A0000E949A33A70196010E94F9340E940C34C9
:1028B000119501951109F801E60FF71FFAA3E9A395
:1028C00050C020E030E04AE754E4C501B4010E9462
:1028D0009A334B015C0120E030E040E05FE30E946E
:1028E000F9349B01AC01C701B6010E94F43487FDA5
:1028F00038C0A5019401C701B6010E94953387FF36
:1029000030C0B801012E000C880B990B0E94443492
:1029100020E030E040E850EC0E94F934A501940139
:102920000E949A336B017C01369427946CA17DA19F
:102930006219730980E090E00E94423420E030E0A8
:102940004AE754E40E949A339B01AC01C701B601E7
:102950000E94F9340E940C349801260F371F3AA3C5
:1029600029A349A15AA1CA01550FAA0BBB0B298D56
:102970003A8D4B8D5C8D280F391F4A1F5B1FAF8529
:10298000B8890E94E4322FEF3FE740E050E00E9418
:10299000C532CA01B9010E9444342B853C854D855E
:1029A0005E85CBCE0E94F60A6F83788789879A87E7
:1029B0008DE169817A81869FF001879FF00D112456
:1029C000EB5BFD4FA085B185BC87AB87228D338D36
:1029D000A901330F660B770B4F87588B698B7A8B66
:1029E000348D22843384A488B588C684D784E08853
:1029F000F1880289138923814281AB89BC898D903A
:102A00009C9086899789B4013DA70E94070B8C0191
:102A1000B10180E090E00E9442346B017C013DA551
:102A20003058632F70E080E090E00E94423420E054
:102A300030E040E85BE30E94F934A70196010E9470
:102A4000F9340E941334C401860F971FB1010E940C
:102A500006369A8F898F82159305D0F5B801012E1D
:102A6000000C880B990B0E9444349B01AC010E941E
:102A700029334B015C0120E030E04AE754E4C70110
:102A8000B6010E949A339B01AC01C501B4010E94BA
:102A90009A336B017C01E98DFA8DBF0180E090E0F3
:102AA0000E94423420E030E04AE754E40E949A3326
:102AB0009B01AC01C701B6010E94F9340E940C349D
:102AC0001195019511099801260F371F3FA32EA3D9
:102AD0004EA15FA198C00E94F60A6F83788789870C
:102AE0009A878DE169817A81869FF001879FF00D39
:102AF0001124EB5BFD4FA085B185BC87AB87228D90
:102B0000338DA901330F660B770B4F87588B698B79
:102B10007A8B348D22843384A488B588C684D78484
:102B2000E088F1880289138923814281AB89BC89BD
:102B30008D909C9086899789B4013DA70E94070BD0
:102B40008C01B10180E090E00E9442346B017C0175
:102B50003DA53058632F70E080E090E00E94423441
:102B600020E030E040E85BE30E94F934A7019601E1
:102B70000E94F9340E941334C401860F971FB101DB
:102B80000E9406369A8F898F82159305D0F56627A5
:102B90007727601B710B072E000C880B990B0E9486
:102BA00044349B01AC010E9429334B015C0120E0BD
:102BB00030E04AE754E4C701B6010E949A339B0112
:102BC000AC01C501B4010E949A336B017C01E98D0F
:102BD000FA8DBF0180E090E00E94423420E030E0B6
:102BE0004AE754E40E949A339B01AC01C701B60145
:102BF0000E94F9340E940C349801260F371F39A720
:102C000028A748A559A5CA01550FAA0BBB0B7BCD18
:102C10008DE169817A81869FF001879FF00D1124F3
:102C2000EB5BFD4FA28DB38D809013029090140248
:102C3000A0901502B0901602A50194010E94EF32F7
:102C4000DC01CB016FE0B595A795979587956A95BF
:102C5000D1F7092E000CAA0BBB0B2B813C814D81B7
:102C60005E81281B390B4A0B5B0B121613061406E8
:102C70001506F4F4A28DB38DA50194010E94EF32E4
:102C8000DC01CB015FE0B595A795979587955A959F
:102C9000D1F7092E000CAA0BBB0B4B815C816D8117
:102CA0007E81481B590B6A0B7B0BDB01CA011BC0E1
:102CB000A28DB38DA50194010E94EF32DC01CB01FE
:102CC0004FE0B595A795979587954A95D1F7092E29
:102CD000000CAA0BBB0B2B813C814D815E81821BBA
:102CE000930BA40BB50B6DE149815A81649FF001F0
:102CF000659FF00D1124EB5BFD4F448178E0479F09
:102D0000A0011124052E000C660B770B48175907FC
:102D10006A077B070CF04DC1A28DB38DA50194010C
:102D20000E94EF32DC01CB013FE0B595A795979566
:102D300087953A95D1F7092E000CAA0BBB0B2B8176
:102D40003C814D815E81281B390B4A0B5B0B57FD83
:102D500003C008EF1FEF02C008E010E06DE14981F9
:102D60005A81649FF001659FF00D1124EB5BFD4FCC
:102D70003480828D938D9C878B87A0911202B0E066
:102D8000A70196010E94E43220E436E040E050E0E2
:102D90000E94C5322F83388749875A87309E600149
:102DA000319ED00C11240D2C000CEE08FF082B8155
:102DB0003C814D815E81C20ED31EE41EF51EAB85A3
:102DC000BC85A50194010E94EF32DC01CB012FE00C
:102DD000B595A795979587952A95D1F7092E000C5B
:102DE000AA0BBB0BA7019601281B390B4A0B5B0BE7
:102DF000CA01B9014F8158850E942F0C460E571EFB
:102E0000681E791ED6C06DE149815A81649FF00128
:102E1000659FF00D1124EB5BFD4F028D138DA0918A
:102E20001102B0E0A70196010E94E43224E630E0EE
:102E300040E050E00E94C53269017A01B801110FEB
:102E4000880B990B0E9444342AE939EC4CEC54E489
:102E50000E949A339B01AC016D897E898F89988D80
:102E60000E942833A6010E945C0D65C0ADE18981F6
:102E70009A81A89FF001A99FF00D1124EB5BFD4FF3
:102E8000028D138DA0911002B0E0A70196010E945F
:102E9000E43224E630E040E050E00E94C5326901AF
:102EA0007A01B801110F880B990B0E94443420E07D
:102EB0003EEF4FEF56E40E949A339B01AC016D8DBB
:102EC0007E8D8F8D98A10E942833A6010E94F40C5C
:102ED00032C04DE129813A81429FF001439FF00DBC
:102EE0001124EB5BFD4F028D138DA0910F02B0E01A
:102EF000A70196010E94E43224E630E040E050E071
:102F00000E94C53269017A01B801110F880B990B33
:102F10000E9444342AE939EC4CEC54E40E949A3380
:102F20009B01AC016D897E898F89988D0E94283321
:102F3000A6010E94730C092E000CAA0BBB0B480EB5
:102F4000591E6A1E7B1E35C00E94F60A9B01AC0109
:102F50008DE169817A81869FF001879FF00D1124B0
:102F6000EB5BFD4F628D738D072E000C880B990B68
:102F70002AA73DA74BA75CA70E9444342AA53DA5DC
:102F80004BA55CA50E949A330E940C340E94040C4D
:102F90009B01AC01A0911702B0E00E94E43224E64C
:102FA00030E040E050E00E94C532421A530A640A01
:102FB000750A0E94992200910B0210910C02209137
:102FC0000D0230910E02DC01CB01801B910BA20B94
:102FD000B30BEB89FC8980839183A283B3832B8914
:102FE0003C892C5F3F4F3C8B2B8B49815A814B3066
:102FF000510509F0B2C803C0412C512C3201309068
:10300000A20331FE2EC00E94F60A9B01AC01E091A2
:10301000110287E491E0E89FB001E99F700D11244F
:10302000072E000C880B990B2AA73DA74BA75CA77E
:103030000E9444342AA53DA54BA55CA50E949A3365
:103040000E940C34AB016D897E898F89988D0E9416
:103050005C0D092E000CAA0BBB0B480E591E6A1EF4
:103060007B1E32FE2EC00E94F60A9B01AC01E0914D
:10307000100287E491E0E89FB001E99F700D1124F0
:10308000072E000C880B990B2AA73DA74BA75CA71E
:103090000E9444342AA53DA54BA55CA50E949A3305
:1030A0000E940C34AB016D8D7E8D8F8D98A10E9496
:1030B000F40C092E000CAA0BBB0B480E591E6A1EFD
:1030C0007B1E33FE2EC00E94F60A9B01AC01E091EC
:1030D0000F0287E491E0E89FB001E99F700D112491
:1030E000072E000C880B990B2AA73DA74BA75CA7BE
:1030F0000E9444342AA53DA54BA55CA50E949A33A5
:103100000E940C34AB016D897E898F89988D0E9455
:10311000730C092E000CAA0BBB0B480E591E6A1E1D
:103120007B1E8091130290911402A0911502B09120
:103130001602002711279801081B190B2A0B3B0BBD
:103140004B815C816D817E81401751076207730757
:1031500034F084179507A607B7070CF03FC02B8102
:103160003C814D815E8157FD07C069017A01C81A13
:10317000D90AEA0AFB0A08C0CB80DC80ED80FE8019
:10318000C80ED91EEA1EFB1E0E94F60A9B01AC0166
:1031900060E07EEF8FEF96E40E949A334B015C0172
:1031A00060910A0270E080E090E00E9444349B014C
:1031B000AC01C501B4010E94F93420E030E048ECD4
:1031C00052E40E949A330E940C34AB01C701B6014D
:1031D0000E942F0C460E571E681E791EA0910902F0
:1031E000B0E0A30192010E94E43224E630E040E026
:1031F00050E00E94C532CA01B9010E94040C6B0163
:103200007C0134FE04C00E94970E0E943C0EC70150
:10321000B601AF960FB6F894DEBF0FBECDBFDF91FB
:10322000CF911F910F91FF90EF90DF90CF90BF90C3
:10323000AF909F908F907F906F905F904F903F9056
:103240002F900895682F70E080E090E04AE00C94A1
:103250004A0E0C94B80DFF920F931F93CF93DF93F8
:1032600000D000D0CDB7DEB70E94CA0DFC0197FD9B
:1032700011C08D32910591F0C0970A9778F0E091D6
:10328000B203F091B3030680F781E02D82EB93E067
:103290000995EACF60E070E0CB014CC020E030E05F
:1032A000A901F12CE130F105F1F0ED32F105C9F0A1
:1032B000CF01C0970A97B8F4AAE0B0E00E94E432C8
:1032C0008F01FF0F220B330BDC01CB01800F911F0D
:1032D000A21FB31F9C01AD012053310941095109BF
:1032E00002C0FF24F394E091B203F091B30306808F
:1032F000F781E02D82EB93E029833A834B835C8353
:1033000009950E94CA0DFC01C09729813A814B8121
:103310005C810A9738F2E130F10521F2FF2041F09B
:1033200066277727CB01621B730B840B950B02C0BA
:10333000CA01B9010F900F900F900F90DF91CF91BC
:103340001F910F91FF900895FC01CB012091E8009F
:1033500022FFFCCF282F215028F03091F10030833C
:103360003196F9CF24E620937C042BEF2093E800DC
:1033700008950F931F93CF93DF93DB01A40FB51F25
:10338000FB016EEFEA17FB0791F187FF02C0249162
:1033900001C020810091800410918104C0917E04BD
:1033A000D0917F040C171D07B4F49091E80095703C
:1033B000E1F39091E80092FD1CC02093F100209170
:1033C0008004309181042F5F3F4F2F733327232BCD
:1033D00011F46093E80020918004309181042F5F04
:1033E0003F4F30938104209380043196CBCFCA01A4
:1033F00002C08FEF9FEFDF91CF911F910F91089542
:10340000CF93DF9300D000D01F92CDB7DEB7FC0181
:1034100081819081913A29F5813009F0BCC0828187
:10342000863051F445E050E063E874E080E40E94A7
:10343000B91910928304AFC0873009F0ACC08983FA
:103440008FEF9FEF9B838A838BE08C8383E08D8358
:1034500045E050E0BE016F5F7F4F80E40E94B919E4
:103460009AC0913209F097C0893009F094C08281E6
:10347000853009F090C064E070E0CE0101960E94B2
:10348000A41986E08093830480910C018B3021F194
:10349000A0910C0181E08A0F80930C019DE1E091E5
:1034A0000C019E9FF0011124EB5BFD4F808188236E
:1034B00051F080910C018B3030F480910C018F5FC2
:1034C00080930C01ECCF8DE1A89FF0011124EB5B00
:1034D000FD4F81E0808301C0A0E0A0938404A1118E
:1034E00004C082E08093850450C01092650481E09E
:1034F000809385048A819DE1A99FD0011124AB5B53
:10350000BD4F11968C9311978FEF9FEF1F969C9351
:103510008E931E9753961C921E92529751961C9210
:103520001E92509712968C93129713968C93139722
:1035300055961C921E9254971D961C921E921C9793
:1035400015961C9215978FEF9FE719969C938E9373
:10355000189757961C921E9256975B961C921E9235
:103560005A975C961C925C9788EE93E01B969C930E
:103570008E931A97E091A301F091A4010684F78538
:10358000E02DBD01CE01019609958FEF9FEF90933D
:1035900087048093860481E00F900F900F900F9026
:1035A0000F90DF91CF91089542E450E06AE172E01C
:1035B00080E80E94B91940E250E06CE572E080E8D2
:1035C0000E94B91983E090E00895EF92FF921F9353
:1035D000CF93DF93EC01162FE881F9810480F58108
:1035E000E02D09957C01E881F9810680F781E02DC5
:1035F000612FCE010995C7019927DF91CF911F91C6
:10360000FF90EF900895FC0191818081813A29F427
:103610009D7F81E0913091F414C0813279F49A3029
:1036200049F09B3019F0993049F40AC082818093A7
:103630000F0106C0828180930E0102C080E00895D0
:1036400081E008958C30F8F4282F30E09DE1899FC7
:10365000F0011124EB5BFD4F90819923A1F0908143
:103660009D7F9083F901E751FE4F958191110BC029
:10367000E091A301F091A4010084F185E02D09956A
:103680001092F901089508958C30F0F49DE1899F1E
:10369000F0011124EB5BFD4F80818823A9F080812C
:1036A000826080838091F90181110EC00E9499226D
:1036B00060930B0270930C0280930D0290930E02A4
:1036C00081E08093F901089508951F920F920FB63B
:1036D0000F9211242F933F934F935F936F937F9398
:1036E0008F939F93AF93BF93EF93FF930E94040E2A
:1036F000FF91EF91BF91AF919F918F917F916F91CA
:103700005F914F913F912F910F900FBE0F901F909F
:1037100018951F920F920FB60F9211242F933F937B
:103720004F935F936F937F938F939F93AF93BF93C9
:10373000EF93FF930E94040EFF91EF91BF91AF9121
:103740009F918F917F916F915F914F913F912F91B9
:103750000F900FBE0F901F901895CF92DF92EF92AF
:10376000FF920F931F93CF93DF931F92CDB7DEB7D6
:10377000F82EE42E8B01C82ED92E8C2D8F198E1584
:1037800088F4F80161918F01C60169830E94AF320C
:103790006981681719F0C6010E94B732FFEFCF1A8E
:1037A000DF0AEBCF0F90DF91CF911F910F91FF9028
:1037B000EF90DF90CF900895CF92DF92EF92FF923B
:1037C0000F931F93CF93DF931F92CDB7DEB78B017B
:1037D0006B017C01E61AF70A9C2D901B941758F494
:1037E000C7018C0D9D1D49830E94AF32F601819364
:1037F0006F014981F1CF0F90DF91CF911F910F9110
:10380000FF90EF90DF90CF9008958F929F92AF92AC
:10381000BF92CF92DF92EF92FF9240E050E020E023
:10382000682F70E0812C912C54018394FA01329618
:10383000DB0102C0B595A795EA95E2F77501640131
:10384000042E04C0CC0CDD1CEE1CFF1C0A94D2F725
:10385000A0FF02C02C2902C0C0942C214F5F5F4FF3
:103860004430510519F730E0220F331FF901E758B2
:10387000FE4F80FF05C0808191819695879502C09B
:1038800080819181FF90EF90DF90CF90BF90AF90BB
:103890009F908F9008951F920F920FB60F92112450
:1038A000EF92FF921F932F933F934F935F936F93EA
:1038B0007F938F939F93AF93BF93EF93FF93CF9398
:1038C000DF93CDB7DEB76197DEBFCDBF1092E900C1
:1038D0008091E80083FF59C1FE013A96CF0128E0AC
:1038E0002E0F2E1729F03091F10030833196F9CF49
:1038F00024E620937C0422EF2093E8002A8527FF0A
:1039000005C03091E80030FFFCCF03C03EEF30939C
:10391000E800322F307609F0C5C08B85811105C0D3
:103920001092F1001092F10029C1982F9D7F9130E3
:1039300009F424C1853049F48091E80080FFFCCF70
:103940008C8580688093E30019C1863009F07CC0C3
:103950001D85E888F9881092E90010928104109280
:103960008004123091F510927F0410927E040E9420
:10397000D41A99E0BE016F5F7F4FFB01292F11928E
:103980002A95E9F799831A8391E09E8390E89887B6
:103990009AEF99872091800430918104275F3F4FEF
:1039A0003C832B838D831092E90010928104109246
:1039B0008004F0927F04E0927E0449E050E080E0D1
:1039C0000E94B9190E94D41AD9C0F0927F04E092E3
:1039D0007E04123259F441EE54E06CE772E080E864
:1039E0000E94B919892B09F0C9C0CCC0113069F403
:1039F00088899989089711F410937D0480917D043A
:103A0000811111C06BE977E016C0133009F0BAC01C
:103A10008C85882359F0823061F0813009F0B2C082
:103A20006DE577E008C06DEA77E005C065E777E00F
:103A300002C069E777E06115710509F4A3C0FB01D5
:103A4000449150E080E849C0873009F49BC0883039
:103A500021F481E08093F10091C0893009F08EC09B
:103A6000237009F08FC080E090E031E026E341E070
:103A7000480F4093E9003093EB000196FC01E154BC
:103A8000F84FE491E093EC002093ED008530910530
:103A900071F78EE78093EA001092EA008C8580939C
:103AA000A2016CC0288939891092E9001092810422
:103AB0001092800430937F0420937E042E85211180
:103AC00054C08B859A85913A59F4813209F05AC0D5
:103AD00047E050E060E171E080E00E94B9194EC01B
:103AE000913209F04FC0803239F467E070E080E134
:103AF00091E00E94A41942C0823209F043C08C8533
:103B0000809317018091100190911101A0911201F1
:103B1000B0911301803B9440A105B10579F58091E6
:103B2000170180FD11C087E797E790930108809304
:103B300000089BE088E10FB6F894A8958093600098
:103B40000FBE909360001AC00FB6F894A8958091AC
:103B50006000886180936000109260000FBEA8959D
:103B6000109201081092000809C0223059F4E09127
:103B70006B04F0916C040995882321F08EEF8093FB
:103B8000E80003C081E28093EB0061960FB6F894E1
:103B9000DEBF0FBECDBFDF91CF91FF91EF91BF91FF
:103BA000AF919F918F917F916F915F914F913F91D5
:103BB0002F911F91FF90EF900F900FBE0F901F90CD
:103BC00018958F929F92AF92BF92CF92DF92EF9211
:103BD000FF920F931F93CF93DF9300D01F92CDB727
:103BE000DEB7382F8B018091A201882389F04A012A
:103BF0008AEFF82E832F8770E82E90E4C92E832F4A
:103C00008072B82E2AE3D22E832F8074A82E21C072
:103C10008FEF9FEF5FC08FB7F894E092E90090912B
:103C2000E80095FF1AC09091F2002C2D291B8FBF40
:103C3000211115C0FA94FF2059F361E070E080E093
:103C400090E039834A835B830E94732239814A81E1
:103C50005B8181149104F9F634C020E0E8CF822F13
:103C600090E0881699060CF4282D822F90E0881A8F
:103C7000990A6FB7F894E092E900BB2029F021502F
:103C8000A8F01092F100FBCFF80137FF07C02150D8
:103C900058F074917093F1003196F9CF215020F0D3
:103CA00071917093F100FACF080F191F8091E8000D
:103CB00085FF0DC08114910411F4A11008C06FBFDD
:103CC000C8CF5D9884E680938204CA0103C0D09275
:103CD000E800F5CF0F900F900F90DF91CF911F91DB
:103CE0000F91FF90EF90DF90CF90BF90AF909F909B
:103CF0008F9008959091A201992311F057FF03C06E
:103D00008FEF9FEF08952FB7F89487708093E900A5
:103D10008091F20090E0841795070CF4AC01842F99
:103D2000FB0194E6815030F090937C043091F100D7
:103D30003193F8CF4115510521F08091F20088238D
:103D400019F02FBFCA0108958BE68093E800F9CFE0
:103D50001F920F920FB60F9211242F933F934F9300
:103D60005F936F937F938F939F93AF93BF93EF93E3
:103D7000FF93CF93DF93CDB7DEB7C054D109DEBF39
:103D8000CDBF8091E1001092E10083FF0FC010923F
:103D9000E90091E09093EB001092EC0092E3909395
:103DA000ED001092A20198E09093F00082FF46C0CF
:103DB00083E08093E9008091F200882319F08AE380
:103DC0008093E8009FB7F89482E08093E9008091A7
:103DD000F2009FBF882321F082EB93E00E947821BC
:103DE0009FB7F89485E08093E9008091F2009FBF2F
:103DF0008823C1F080916D0490916E04892B91F01D
:103E000040E450E0BE016F5F7F4F85E00E947A1E64
:103E100097FD08C0E0916D04F0916E04BC01CE01E5
:103E20000196099580918204882341F08091820453
:103E3000815080938204811101C05D9AC05CDF4F84
:103E40000FB6F894DEBF0FBECDBFDF91CF91FF91CB
:103E5000EF91BF91AF919F918F917F916F915F9102
:103E60004F913F912F910F900FBE0F901F9018957B
:103E7000EF92FF920F931F93CF93DF931F92CDB7D3
:103E8000DEB789838B017A0141E050E0BE016F5FAC
:103E90007F4F84E00E94E11DA701B80184E40E94E5
:103EA000E11D0F90DF91CF911F910F91FF90EF9047
:103EB0000895DC01683810F0685825C0E62FF0E05E
:103EC00067FF12C0E058F10981E090E001C0880F5F
:103ED000EA95EAF7809514969C9114978923149695
:103EE0008C93149760E00FC0E656FE4F64916623F2
:103EF00011F167FF08C014968C9114978D7F14966A
:103F00008C9314976F77FD01369686E0662321F037
:103F10009081961301C01082815031968111F6CFA5
:103F2000BD016C5F7F4F48E050E082E00E94381F87
:103F300081E090E0089580E090E00895FC01168211
:103F4000178210861186128613861482BC016C5F5C
:103F50007F4F48E050E082E00C94381FDC01683865
:103F600010F068582DC0E62FF0E067FF11C0E05850
:103F7000F10981E090E001C0880FEA95EAF7149614
:103F80009C911497892B14968C93149760E018C019
:103F9000E656FE4F6491611109C081E090E01396EE
:103FA0009C938E93129780E090E0089567FF08C07D
:103FB00014968C911497826014968C9314976F7753
:103FC00016968C911697861751F117968C91179724
:103FD000861729F118968C911897861701F1199672
:103FE0008C9119978617D9F01A968C911A97861783
:103FF000B1F01B968C911B97861789F0FD013696C0
:1040000080E090E02191211105C0FD01E80FF91F2A
:10401000668305C0019686309105A1F7BECFBD012C
:104020006C5F7F4F48E050E082E00E94381F81E0E3
:1040300090E00895CF92DF92EF92FF920F931F933B
:10404000CF93DF936C01EB017B01E40EF51E00E0E2
:1040500010E0CE15DF0561F06991D601ED91FC917C
:104060000190F081E02DC6010995080F191FF1CFCD
:10407000C801DF91CF911F910F91FF90EF90DF90DA
:10408000CF90089583E08093E9008091F200882327
:1040900019F08AE38093E800089520911805309183
:1040A000190580911A0590911B0528173907A9F069
:1040B000E0911A05F0911B05E852FB4F8081209199
:1040C0001A0530911B052F5F3F4F2F733327309315
:1040D0001B0520931A0590E008958FEF9FEF089538
:1040E000209118053091190580911A0590911B05B2
:1040F0002817390749F0E0911A05F0911B05E8529D
:10410000FB4F808190E008958FEF9FEF089580919D
:1041100018059091190520911A0530911B05821BF5
:10412000930B8F739927089585ED8093BC00809140
:10413000BC0084FDFCCF1092640508954091AA0450
:10414000262F30E0240F311D21323105DCF420917F
:1041500064052430C9F4FC0180E090E0861758F42F
:104160003091AA042191DC01A857BB4FA30FB11DC8
:104170002C930196F3CF8091AA04680F6093AA0450
:1041800080E0089581E0089582E008950895E09127
:104190001D0580911C05E81730F4F0E0E25EFA4F4F
:1041A000808190E008958FEF9FEF089590911D0515
:1041B00080911C05981750F4E92FF0E0E25EFA4F69
:1041C000208130E09F5F90931D0502C02FEF3FEFED
:1041D000C901089580911C0590E020911D05821B66
:1041E00091090895CF92DF92EF92FF920F931F9360
:1041F000CF93DF937C01262F972F8A01809165054D
:10420000882391F0C62FD72F6E01C40ED51ECC1572
:10421000DD0571F06991D701ED91FC910190F0817C
:10422000E02DC7010995F3CF642F822F0E949E20B5
:10423000C801DF91CF911F910F91FF90EF90DF9018
:10424000CF900895CF93DF931F92CDB7DEB76983E8
:10425000209165052223D1F020918705203240F07E
:1042600021E030E0FC013383228380E090E015C040
:1042700080916605E82FF0E0E959FA4F9981908323
:104280008F5F809366058093870505C061E0CE014E
:1042900001960E949E2081E090E00F90DF91CF91E7
:1042A00008950E9427360F931F93CF93DF931F9299
:1042B000CDB7DEB78C01698380911701882359F04F
:1042C00041E050E0BE016F5F7F4F83E00E94E11D3F
:1042D000181619063CF081E090E0F8019383828380
:1042E00080E090E00F90DF91CF911F910F910895A2
:1042F0000F931F93CF93DF931F92CDB7DEB700913B
:104300001805109119050F5F1F4F0F73112780912A
:104310001A0590911B0508171907F9F041E050E0C4
:10432000BE016F5F7F4F82E00E947A1E019719F4F1
:10433000898190E002C08FEF9FEF8F3F2FEF9207B0
:1043400061F0E0911805F0911905E852FB4F808368
:104350001093190500931805D2CF0F90DF91CF91DC
:104360001F910F910895362F90E0FC01E15EF74F09
:104370004491FC01E050F84F2491FC01EF51F84FBB
:104380008491882309F44DC04423C1F150E0FA011F
:104390003197EE30F10590F5E055FF4F0C941A3649
:1043A000909180009F7703C0909180009F7D9093B3
:1043B000800024C094B59F7702C094B59F7D94BDC2
:1043C0001DC0909190009F7707C0909190009F7DB5
:1043D00003C090919000977F909390000FC09091B0
:1043E000C0009F7703C09091C0009F7D9093C00054
:1043F00005C09091C200977F9093C200E82FF0E033
:10440000EE0FFF1FED52F84FA591B4918FB7F894BE
:10441000EC91311103C020952E2301C02E2B2C933B
:104420008FBF0895CF93DF9390E0FC01E050F84FE9
:104430002491FC01EF51F84F8491882361F190E0C1
:10444000880F991FFC01EB53F84FC591D491FC01E3
:10445000ED52F84FA591B491611109C09FB7F8943E
:104460008881209582238883EC912E230BC06230B3
:1044700061F49FB7F8943881822F809583238883D5
:10448000EC912E2B2C939FBF06C08FB7F894E88138
:104490002E2B28838FBFDF91CF9108953FB7F894DB
:1044A0008091D4049091D504A091D604B091D70402
:1044B00026B5A89B05C02F3F19F00196A11DB11D7F
:1044C0003FBFBA2FA92F982F8827820F911DA11DBA
:1044D000B11DBC01CD0142E0660F771F881F991FF7
:1044E0004A95D1F70895CF92DF92EF92FF92CF9342
:1044F000DF936B017C010E944E22EB01C114D104B9
:10450000E104F10479F00E944E226C1B7D0B683EA1
:104510007340A0F381E0C81AD108E108F108C8513E
:10452000DC4FECCFDF91CF91FF90EF90DF90CF90F9
:1045300008952FB7F8946091D0047091D1048091C0
:10454000D2049091D3042FBF08951F920F920FB6FB
:104550000F9211242F933F938F939F93AF93BF9309
:104560008091D0049091D104A091D204B091D30451
:104570003091CF0423E0230F2D3720F40196A11DA5
:10458000B11D05C026E8230F0296A11DB11D209381
:10459000CF048093D0049093D104A093D204B0931D
:1045A000D3048091D4049091D504A091D604B09105
:1045B000D7040196A11DB11D8093D4049093D50416
:1045C000A093D604B093D704BF91AF919F918F91E0
:1045D0003F912F910F900FBE0F901F9018951F9233
:1045E0000F920FB60F9211242F933F934F935F9327
:1045F0006F937F938F939F93AF93BF93EF93FF93AB
:104600008091B900887F803609F49CC068F58832B3
:1046100009F45BC090F4803109F454C038F4882365
:1046200009F4F6C0883009F44DC0F6C0883109F4A9
:104630004CC0803209F45DC0EFC0803409F468C01A
:1046400048F4803309F455C0883309F0E5C08093FD
:104650006205D8C0803509F44FC0883509F45DC0C3
:10466000883409F0D9C0D6C0883909F4C7C0A8F485
:10467000883709F467C038F4883609F463C0803796
:1046800009F460C0C9C0883809F4B8C0803909F499
:104690005FC0803809F0C0C05BC0803B09F486C0B1
:1046A00038F4803A09F466C0883A09F47FC0B4C08F
:1046B000803C09F4A7C0883C09F4A4C0883B09F4F5
:1046C0008AC0AAC080913F0510C090916105809179
:1046D0006005981770F5E091610581E08E0F809379
:1046E0006105F0E0E05CFA4F80818093BB0085ECCF
:1046F00086C0809362058EC0E091610581E08E0FD7
:10470000809361058091BB00F0E0E05CFA4F80830C
:1047100090916105809160056EC0E091610581E036
:104720008E0F809361058091BB00F0E0E05CFA4F52
:1047300080838091630581116DC081E080933E0587
:1047400084EA61C083E0809364051092CE04CFCFE9
:104750008091CE04803208F051C0E091CE0481E017
:104760008E0F8093CE048091BB00F0E0E255FB4FAA
:104770008083BDCF85EC8093BC001092640580914E
:10478000CE04803230F4E091CE04F0E0E255FB4FED
:1047900010826091CE0470E0E091AC04F091AD0421
:1047A0008EEA94E009951092CE0436C084E080939E
:1047B00064051092AB041092AA04E091A804F09151
:1047C000A90409958091AA04811105C081E0809314
:1047D000AA0410928804E091AB0481E08E0F8093CC
:1047E000AB04F0E0E857FB4F80818093BB009091D1
:1047F000AB048091AA04981708F479CF85E88093D8
:10480000BC000AC085EC8093BC001092640504C013
:10481000109262050E949420FF91EF91BF91AF9199
:104820009F918F917F916F915F914F913F912F91C8
:104830000F900FBE0F901F9018952091A5013091F9
:10484000A6012817390708F4C90190938B008093BB
:104850008A0008952091A5013091A60128173907F3
:1048600008F4C90190938900809388000895382F37
:104870002091870590918805213208F049C08091E8
:1048800064058111FCCF42E04093640530936305D9
:104890003FEF309362051092610520936005A7E613
:1048A000B5E040E455E0FA013E2F341B321718F40E
:1048B0003D913193F9CF10923F0520913F05990F1B
:1048C000922B90933F0590913E05913061F41092A8
:1048D0003E0590913F059093BB009091BC0093FDE5
:1048E000F8CF95EC01C095EE9093BC0090916405D3
:1048F0009230E1F3909162059F3F79F080916205DB
:10490000803241F080916205803331F084E005C04F
:1049100081E003C082E001C083E01092660510923E
:104920008705109265050895FF920F931F93CF930B
:10493000DF936091690470916A04813059F038F016
:10494000823059F0833061F0636871600BC0636836
:10495000716408C06368716505C06368716602C0F0
:1049600063687167EB01D06880916604FF24F3945B
:10497000F092650580938805109266051092870570
:1049800061E080EC93E00E9422216D2F80EC93E0A7
:104990000E9422216C2F80EC93E00E94222181E072
:1049A0000E9437246091670470E080E090E00E94EC
:1049B0007322C0916604F0926505C0938805109239
:1049C00066051092870560E080EC93E00E9422214A
:1049D00081E00E943724809164058111FCCF81E041
:1049E00080936405809363059FEF90936205109216
:1049F00061058093600580933F0580913F05CC0F52
:104A0000C82BC0933F0580913E05813061F4109220
:104A10003E0580913F058093BB008091BC0083FDE3
:104A2000F8CF85EC01C085EE8093BC0080916405D1
:104A30008130E1F380916105823018F48091610545
:104A400001C082E0A0E4B5E02EE135E0F9019E2F3F
:104A5000921B981718F49D919193F9CF10921D0510
:104A600080931C0580EC93E00E94D620C82F80EC38
:104A700093E00E94D6201C2F00E09801282BC9014A
:104A80000090680402C0969587950A94E2F7DF913A
:104A9000CF911F910F91FF900895CF93DF93CDB7E2
:104AA000DEB76F970FB6F894DEBF0FBECDBF789418
:104AB00084B5826084BD84B5816084BD85B5826023
:104AC00085BD85B5816085BD80916E0081608093D4
:104AD0006E0010928100809181008260809381003D
:104AE000809181008160809381008091800081604D
:104AF00080938000809191008260809391008091EA
:104B000091008160809391008091900081608093FA
:104B100090008091C10084608093C1008091C100A9
:104B200082608093C1008091C10081608093C10048
:104B30008091C30081608093C3008091C000826037
:104B40008093C0008091C20081608093C2008091F8
:104B50007A00846080937A0080917A0082608093EA
:104B60007A0080917A00816080937A0080917A0047
:104B7000806880937A001092A20181E08093D70030
:104B800080EA8093D80082E189BD09B400FEFDCFA0
:104B900061E070E080E090E00E94732280E9809301
:104BA000D8008CE08093E2001092E0000E944E2238
:104BB0006093E1017093E2018093E3019093E4013B
:104BC0001092B6011092D4011092D3011092D90123
:104BD0001092DA011092DB011092DC011092D201E6
:104BE0001092D1011092DD011092DE011092DF01CE
:104BF0001092E00142E0BE01615F7F4F80E090E0F3
:104C00000E94DC1B8F859889803F910509F40AC1B9
:104C100080EF90E09E878D8742E0BE01635F7F4F0B
:104C200080E090E00E94AD1B19821A821B821C82D8
:104C300044E0BE016F5F7F4F82E090E00E94AD1BB9
:104C400088E394E09E878D8742E0BE01635F7F4FDB
:104C500086E090E00E94AD1B84E6898B41E0BE01B6
:104C60006F5E7F4F88E090E00E94AD1B41E0BE0187
:104C70006F5E7F4F8BE090E00E94AD1B41E0BE0174
:104C80006F5E7F4F8CE090E00E94AD1B41E0BE0163
:104C90006F5E7F4F80E190E00E94AD1B41E0BE015E
:104CA0006F5E7F4F8DE090E00E94AD1B82E3898BA9
:104CB00041E0BE016F5E7F4F89E090E00E94AD1B36
:104CC00041E0BE016F5E7F4F8AE090E00E94AD1B25
:104CD00041E0BE016F5E7F4F8EE090E00E94AD1B11
:104CE00086E4898B41E0BE016F5E7F4F8FE090E0EC
:104CF0000E94AD1B1E861D8642E0BE01635F7F4F92
:104D000081E190E00E94AD1B84EF91E09E878D874A
:104D100042E0BE01635F7F4F83E190E00E94AD1BE4
:104D20008FEF9FE09E878D8742E0BE01635F7F4FDC
:104D300085E190E00E94AD1B80E890E09E878D8722
:104D400042E0BE01635F7F4F87E190E00E94AD1BB0
:104D500081E0898B41E0BE016F5E7F4F88E190E08A
:104D60000E94AD1B80E699E0A0E0B0E089839A83C1
:104D7000AB83BC8344E0BE016F5F7F4F89E190E06D
:104D80000E94AD1B89E0898B41E0BE016F5E7F4FC1
:104D90008DE190E00E94AD1B1E861D8642E0BE01A3
:104DA000635F7F4F8AE290E00E94AD1B42E0BE014C
:104DB000635F7F4F8EE290E00E94AD1B42E0BE0138
:104DC000635F7F4F82E390E00E94AD1B42E0BE0133
:104DD000635F7F4F86E390E00E94AD1B8FEF97E00B
:104DE0009E878D8742E0BE01635F7F4F8CE290E03B
:104DF0000E94AD1B42E0BE01635F7F4F80E390E005
:104E00000E94AD1B42E0BE01635F7F4F84E390E0F0
:104E10000E94AD1B42E0BE01635F7F4F88E390E0DC
:104E20000E94AD1B42E061EB71E086E090E00E94E1
:104E3000DC1B44E06CEA71E089E190E00E94DC1B3D
:104E400041E069E072E088E090E00E94DC1B41E014
:104E500061E172E089E090E00E94DC1B41E06FE0DC
:104E600072E08AE090E00E94DC1B41E068E172E0C1
:104E70008BE090E00E94DC1B41E067E172E08CE097
:104E800090E00E94DC1B41E062E172E08DE090E086
:104E90000E94DC1B41E060E172E08EE090E00E9445
:104EA000DC1B41E061EA73E08FE090E00E94DC1BD4
:104EB00041E06AE072E080E190E00E94DC1B41E0AA
:104EC00060EB71E087E190E00E94DC1B41E062EA68
:104ED00073E088E190E00E94DC1B42E067EA73E047
:104EE00081E190E00E94DC1B42E069EA73E083E12B
:104EF00090E00E94DC1B42E067EB71E085E190E00E
:104F00000E94DC1B41E06BEA71E08DE190E00E94C1
:104F1000DC1B42E069EC71E08AE290E00E94DC1B5D
:104F200042E06DEC71E08CE290E00E94DC1B42E01C
:104F30006DEB71E08EE290E00E94DC1B42E06FEBD3
:104F400071E080E390E00E94DC1B42E065EC71E0E0
:104F500082E390E00E94DC1B42E067EC71E084E3B6
:104F600090E00E94DC1B42E061EC71E086E390E09F
:104F70000E94DC1B42E063EC71E088E390E00E9459
:104F8000DC1B6091AC017091AD018091AE019091FC
:104F9000AF010E94443420E030E044EB53E40E942F
:104FA0009A336B017C018091B1019091B201BC01F7
:104FB000990F880B990B0E9444349B01AC01C701E7
:104FC000B6010E94F9340E940C346093A3037093DD
:104FD000A4038093A5039093A6036B017C01F59431
:104FE000E794D794C794C0921302D0921402E0922F
:104FF0001502F092160262E080E00E94122262E046
:1050000081E00E9412221092AC03C092AD03D092B4
:10501000AE03E092AF03F092B0031092B1034A9B4B
:1050200005C08091B10381608093B1034B9B05C0A3
:105030008091B10382608093B103809169008F7C7D
:10504000806180936900EA9A809169008F7380641F
:1050500080936900EB9A60E082E10E94122260E096
:1050600083E10E94122260E084E10E94122260E04B
:1050700085E10E94122262E084E00E94122262E036
:1050800086E10E94122262E087E10E94122262E021
:105090008CE00E94122262E086E00E94122262E00E
:1050A00087E00E94122262E088E00E94122262E001
:1050B00085E00E94122288E191E09093A401809300
:1050C000A30180E09AE190936C0480936B048BE2DF
:1050D00095E090936E0480936D04279AF090AB0155
:1050E0008F2D0E94051C8C019093A6018093A50131
:1050F0009093AA038093A9036091A7037091A803DA
:1051000080E090E00E9442344B015C01B80180E0F5
:1051100090E00E9442349B01AC01C501B4010E94A1
:105120009A336093A7017093A8018093A90190938B
:10513000AA011F2D1170F0FC05C020E030E04AEFFD
:1051400054E404C020E030E04AE754E460910801F0
:105150007091090180910A0190910B010E94F9342C
:10516000609308017093090180930A0190930B01E9
:10517000111105C020E030E04AEF54E404C020E003
:1051800030E04AE754E46091040170910501809198
:105190000601909107010E94F93460930401709315
:1051A00005018093060190930701111105C020E0CD
:1051B00030E04AEF54E404C020E030E04AE754E431
:1051C00060910001709101018091020190910301B1
:1051D0000E94F934609300017093010180930201F1
:1051E00090930301109280001092810010926F0042
:1051F00016BA8091A5019091A601909387008093A3
:105200008600109289001092880010928B001092F4
:105210008A008091AB018274823421F480918100F4
:10522000826003C0809181008160809381008091C1
:10523000AB0180FF04C080918100806108C0809133
:1052400080008260809380008091810088618093DB
:10525000810080E090E00E942A2480918000806894
:1052600080938000259A80E090E00E941D24809128
:105270008000806280938000269A61E08DE00E9429
:10528000122213E061E08DE00E94B32164E170E03E
:1052900080E090E00E94732260E08DE00E94B321E4
:1052A00064E170E080E090E00E947322115051F7B9
:1052B00060E070E0CB010E947E0780911302909124
:1052C0001402A0911502B0911602F8948093AD03D8
:1052D0009093AE03A093AF03B093B0037894109271
:1052E000CC011092CB018FEF97E09093B5018093A2
:1052F000B4018091B0018093B30180E092E090937B
:105300006A048093690410921D0510921C05109286
:105310006605109287051092640581E0809363050D
:1053200010923E0561E082E00E94B32161E083E0DB
:105330000E94B3218091B9008E7F8093B900809143
:10534000B9008D7F8093B90088E48093B80085E42C
:105350008093BC000E944E226093D0037093D103CF
:105360008093D2039093D3030091E5011091E6015D
:105370002091E7013091E8014B015C01801A910A0C
:10538000A20AB30A8092CC039092CD03A092CE03DE
:10539000B092CF030091E1011091E2012091E3016D
:1053A0003091E4015B016C01A01AB10AC20AD30A70
:1053B00040EDA41647E0B406C104D10410F40C94E7
:1053C00002326093E1017093E2018093E3019093D4
:1053D000E401F8944091AD035091AE036091AF03A6
:1053E0007091B00378948091130290911402A0916F
:1053F0001502B09116024A015B01881A990AAA0A9D
:10540000BB0AC501B4018092DD019092DE01A09239
:10541000DF01B092E0013091A20335FB222720F991
:1054200036FD226037FF02C0246013C0213089F4AA
:105430002091D9013091DA014091DB015091DC01DA
:10544000AFEFB7E00E94E4322FEF3FEF40E050E0D3
:105450001CC0223029F4A091D301B091D4010DC019
:10546000233029F4A091D101B091D20106C024309B
:1054700099F4A091CF01B091D0012FEF37E00E94B5
:1054800020362FEF3FE040E050E00E94C532CA01D5
:10549000B9017450810991090E94630F6093D5018D
:1054A0007093D6018093D7019093D8016091DD016C
:1054B0007091DE018091DF019091E0010E944434FF
:1054C0006B017C016091A3037091A4038091A503FB
:1054D0009091A6030E9444349B01AC0160E07FEFF1
:1054E0008FE797E40E949A339B01AC01C701B60194
:1054F0000E94F9340E940C342B013C016115704864
:105500008105910534F044244A940FE7502E612C14
:10551000712C411410E851061FEF6106710634F436
:10552000412C10E8512E66246A94762C4092DD01BD
:105530005092DE016092DF017092E0016091D5012E
:105540007091D6018091D7019091D8010E947E0779
:1055500080E00E94942497FD0BC080E00E94942478
:105560008115984044F480E00E9494245C0107C0B7
:10557000A12CB12C04C0AA24AA94B7E0BB2EB092EF
:10558000D401A092D30182E00E94942497FD0BC025
:1055900082E00E9494248115984044F482E00E94A5
:1055A00094241C0107C0212C312C04C022242A94ED
:1055B000A7E03A2E3092D2012092D10183E00E94DE
:1055C000942497FD0BC083E00E9494248115984099
:1055D00044F483E00E9494248C0105C000E010E0B4
:1055E00002C00FEF17E01093D0010093CF0181E0CC
:1055F0000E94942497FD0EC081E00E94942481159E
:1056000098406CF481E00E9494246C01990FEE089C
:10561000FF080BC01A8A1B8A1C8A1D8A0AC0CC2468
:10562000CA94F7E0DF2EE12CF12CCA8ADB8AEC8ADF
:10563000FD8AE090CB01F090CC01FF8EEE8E809140
:10564000C9019091CA018E0D9F1D6C01E12CF12CB6
:10565000CE8ADF8AE88EF98E8091C5019091C601CD
:10566000EE8CFF8C8E0D9F1D6C01E12CF12CC10185
:10567000330CAA0BBB0B9C01AD012C193D094E0943
:105680005F09AFEFBFE00E94E4322091C701309183
:10569000C8018E8C9F8C2819390940E050E02C19E4
:1056A0003D094E095F090E94C5322A8F3B8F4C8FFE
:1056B0005D8FC090C101D090C201C80CD91CE12CF3
:1056C000F12CC801110FAA0BBB0B9C01AD012C19C9
:1056D0003D094E095F09AFEFBFE00E94E43220911F
:1056E000C3013091C40128193909890120E030E053
:1056F000A90198012C193D094E095F090E94C53284
:1057000069017A019501BB0C440B550B8E889F886B
:10571000A88CB98C281939094A095B09AFEFBFE099
:105720000E94E4322091CD013091CE01AE8CBF8C2D
:105730002A193B09890120E030E0A90198018E88EF
:105740009F88A88CB98C281939094A095B090E94DD
:10575000C53219012115304124F022242A94EFE0AA
:105760003E2E37FE02C0212C312C3092D4012092E3
:10577000D3010A8D1B8D011520E1120714F00FEFE4
:105780001FE017FF02C000E010E01093D201009369
:10579000D101C11430E1D30624F0CC24CA947FE0B7
:1057A000D72ED7FE02C0C12CD12CD092D001C092EE
:1057B000CF018091BD019091BE018E8C9F8C880D90
:1057C000991D4C01A12CB12C8E8A9F8AA88EB98E6E
:1057D0002A893B894C895D89281939094A095B095D
:1057E000AFEFBFEF0E94E4322091BF013091C001C2
:1057F000AE8CBF8C2A193B0940E050E08E889F8810
:10580000A88CB98C281939094A095B090E94C5324C
:105810002115310561E04607510524F02FEF3FEFD8
:1058200040E050E057FF03C020E030E0A9012093A2
:10583000D9013093DA014093DB015093DC0189B147
:1058400082958F7091E0892790E0A0E0B0E08170B0
:105850009927AA27BB27799B8260789B84604E9BFF
:1058600088604F9B8061669B80621C9B8064369B36
:10587000806844E0880F991FAA1FBB1F4A95D1F783
:105880008093B9019093BA01A093BB01B093BC017E
:1058900060E8561A49825A822B833C832D82202F3E
:1058A0002295207F23292E8354E0169507955A953B
:1058B000E1F70F83C886D98664E0B695A7959795DA
:1058C00087956A95D1F78A871B861C864CE050E045
:1058D000BE016F5F7F4F84E00E94381F8091CC0330
:1058E0009091CD03A091CE03B091CF038031974228
:1058F000A105B10508F486C582EB93E00E948720DC
:10590000181619060CF06EC582EB93E00E944D202C
:10591000E82F8FE98E0F8A3108F4E0528E2F90E045
:10592000FC01E154F109EA31F10508F05BC5EA5ADE
:10593000FF4F0C941A366091B1017091B201072E9D
:10594000000C880B990B0E94970E80E20E94310E8A
:10595000809109020E94221980E20E94310E8091FA
:1059600011020E94221980E20E94310E80910F02E2
:105970000E94221980E20E94310E809118020E943A
:10598000221980E20E94310E809117020E94221992
:1059900080E20E94310E809112020E94221980E260
:1059A0000E94310E809110020E94221980E20E9412
:1059B000310E8091A1030E94221980E20E94310ED3
:1059C00080910A020E94221980E20E94310E6091A9
:1059D000A7037091A80380E090E04AE00E944A0E7D
:1059E00080E20E94310E8091B0010E94221980E273
:1059F0000E94310E8091A2030E94221980E20E942F
:105A0000310E6091A9037091AA0380E090E04AE012
:105A10000E944A0E80E20E94310E6091AC017091AA
:105A2000AD018091AE019091AF010E94970E80E28E
:105A30000E94310E6091AB0170E096C383E991E062
:105A40000E94291960EF70E080E090E00E94970EBC
:105A500088E991E00E9429198AE991E00E942919B8
:105A60008CE991E00E942919BDC48091D803082EC9
:105A7000000C990BB5C40E94D10EB4C40E942B191E
:105A8000611101C061E06093B001A8C40E942B19AC
:105A9000643071058105910574F0DC01CB01813C16
:105AA00017E2910719E0A107B1054CF080EC97E2ED
:105AB000A9E0B0E004C084E090E0A0E0B0E0898319
:105AC0009A83AB83BC83F8948090AD039090AE032F
:105AD000A090AF03B090B00378944090D40350905E
