:100000000C9426040C944E040C944E040C941C097D
:100010000C94F8080C944E040C944E040C944E046A
:100020000C944E040C944E040C943B0C0C94DE097E
:100030000C944E040C944E040C944E040C944E04F8
:100040000C944E040C944E040C944E040C944E04E8
:100050000C944E040C944E040C944E040C94B12158
:100060000C944E040C944E040C944E040C944E04C8
:100070000C944E040C944E040C944E040C944E04B8
:100080000C944E040C944E040C944E040C944E04A8
:100090000C94FB210C944E040C944E040C944E04CE
:1000A0000C944E040C944E040C944E04AB31852EEB
:1000B0001F2FE532D72F54322A2F5C30E532E5323C
:1000C000E532E532E532E5328D2E5C30E532822EC6
:1000D0007C2EE532DE2D612E0730E5325F305C305C
:1000E00076309030AA30C430DE30F83012312C3106
:1000F000E532E532E532E532E532E532E532E53248
:10010000E5324631A332AB3273327B32E532833291
:100110006B32E5329B32B332E532E5329332E5326F
:10012000E532E532E532E5328B32A01130126D1343
:10013000CD12501408166F15A516A017D317061860
:10014000761841184B1C501C551C5F1CA91CA91C7F
:10015000A91C691C731C7D1C871C941CA91C9C1C5D
:10016000BB20BE20B120B520DF20DF20DF20C22051
:10017000C620CA20D020D420DF20DA2005A84CCD0C
:10018000B2D44EB93836A9020C50B9918688083CD1
:10019000A6AAAA2ABE000000803F000000000000BE
:1001A00000002A2B280000000000000000000000D2
:1001B000000000000000000000002C9EB4A0A1A2DE
:1001C000A434A6A7A5AE362D3738271E1F2021221E
:1001D00023242526B333B62EB7B89F848586878817
:1001E000898A8B8C8D8E8F90919293949596979807
:1001F000999A9B9C9D2F3130A3AD350405060708C5
:10020000090A0B0C0D0E0F101112131415161718E6
:10021000191A1B1C1DAFB1B0B500080B0002020279
:100220000100090400000102020000052400100181
:100230000524010101042402060524060001070526
:10024000810310004009040100020A0000000705B4
:10025000020240000007058302400000090402007A
:10026000020300000009210101000122E104070549
:10027000840340000107050503400001050109044E
:10028000A10185040901A100093017000000002721
:10029000FFFF0000350047FFFF000075109501814A
:1002A00002093116000027FFFF0000350047FFFF5D
:1002B0000000751095018102093216000027FF0F1A
:1002C0000000350047FF0F0000750C950181020901
:1002D0003316000027FF0F0000350047FF0F000016
:1002E000750C95018102093416000027FF0F0000EC
:1002F000350047FF0F0000750C9501810209391583
:100300000125083500463B0165145500750495012B
:1003100081020509150025015500650019012918FC
:1003200075019518810285F10901150026FF0095D8
:100330003F7508918285F20901953F75088182C059
:10034000050F0992A1028502099F09A009A409A528
:1003500009A61500250135004501750195058102A5
:1003600095038103099415002501350045017501A8
:1003700095018102092215012528350145287507B7
:1003800095018102C00921A10285010922150125DB
:1003900028350145287508950191020925A1020912
:1003A000260927093009310932093309340940097E
:1003B0004109420943250B15013501450B75089587
:1003C000019100C009500954150027FFFF000035B6
:1003D0000047FFFF000066011055FD751095029162
:1003E0000255006600000952150026FF7F350046C1
:1003F000FF7F7510950191020953150125083501FC
:1004000045087508950191020955A10205010930B9
:10041000093115002501750195029102C0050F09EA
:100420005695019102950591030957A1020B010010
:100430000A000B02000A0066140055FE150026FF94
:100440007F3500479F8C0000751095019102550083
:10045000660000C0050F09A766011055FD150027AD
:10046000FFFF0000350047FFFF0000751095019168
:10047000026600005500C0050F095AA10285020955
:100480002215012528350145287508950191020995
:100490005B095D150026FF00350046FF7F75089556
:1004A000029102095C095E66011055FD26FF7F4638
:1004B000FF7F7510950291026600005500C0095F2C
:1004C000A102850309221501252835014528750853
:1004D0009501910209231500250135004501750498
:1004E000950191020958A1020B01000A000B0200BC
:1004F0000A00750295029102C0096016008026FF6D
:100500007F36008046FF7F751095019102096136A4
:10051000008046FF7F95019102150026FF7F350080
:1005200046FF7F0963751095019102096515002644
:10053000FF0046FF7F750895019102C0096EA10278
:1005400085040922150125283501452875089501DE
:1005500091020970150026FF7F350046FF7F751058
:1005600095019102096F16008026FF7F36008046B4
:10057000FF7F950191020971150026FF00350046A5
:1005800067016614005500750895019102097227EC
:10059000FFFF000047FFFF000066011055FD7510CA
:1005A000950191026600005500C00973A1028505FE
:1005B0000922150125283501452875089501910264
:1005C000097016018026FF7F36018046FF7F751077
:1005D00095019102C00974A1028506092215012521
:1005E0002835014528750895019102097509761588
:1005F00081257F36018046FF7F750895029102C0F4
:10060000050F0977A102850A092215012528350160
:1006100045287508950191020978A1020979097A9E
:10062000097B15012503750895019100C0097C150A
:100630000026FF00350046FF009102C00990A1028C
:10064000850B0922150125283501452875089501D6
:100650009102C00996A102850C0997099809990988
:100660009A099B099C15012506750895019100C002
:10067000097DA102850D097E150026FF0035004683
:100680001027750895019102C009ABA102850509E3
:1006900025A1020926092709300931093209330940
:1006A0003409400941094209431501250B3501452B
:1006B0000B75089501B100C00501093B150026FF27
:1006C00001350046FF01750A9501B1027506B101B9
:1006D000C0050F0989A102850609222528150135C3
:1006E00001452875089501B102098BA102098C0901
:1006F0008D098E250315013501450375089501B156
:1007000000C009AC150027FFFF0000350047FFFFC0
:10071000000075109501B100C0097FA1028507098D
:100720008075109501150027FFFF0000350047FF79
:10073000FF0000B102098326FF0046FF00750895FF
:1007400001B10209A909AA75019502150025013513
:10075000004501B10275069501B103C0C0180341FF
:100760000072006400750069006E006F0020004C8C
:10077000004C00430004030904220341007200649A
:1007800000750069006E006F0020004C0065006F6E
:10079000006E006100720064006F00120100020030
:1007A00000004041233680000101020001120100D7
:1007B00002020000404123368000010102000100D6
:1007C000C18081C1C0070605040100080A0B0C0D99
:1007D0000900000000240027002A002D003000003E
:1007E000000000250028002B002E00310004040426
:1007F00004040304050202020204030202020206C8
:1008000006060606060404020202040404080201A5
:100810001040804010204080408008020401804049
:100820002010020110801020404020000000020033
:10083000080E0000030401000B000000000000008F
:1008400000000000000000000000FF3211241FBE65
:10085000CFEFDAE0DEBFCDBF11E0A0E0B1E0E4E829
:10086000FEE602C005900D92A43AB107D9F725E043
:10087000A4EAB1E001C01D92A33AB207E1F714E087
:10088000C6E2D4E004C02197FE010E942E37C53293
:10089000D107C9F70E947D260C9440370C940000C4
:1008A000CF92DF92EF92FF926091B3017091B40109
:1008B000072E000C880B990B0E9458356B017C01A8
:1008C00060916D0470916E0480916F04909170043A
:1008D0000E9458359B01AC01C701B6010E94AE349D
:1008E000FF90EF90DF90CF9008958C30F8F4282F90
:1008F00030E09DE1899FF0011124E15BFD4F908183
:100900009923A1F090819D7F9083F901E150FE4FE2
:10091000958191110BC0E091A501F091A601008491
:10092000F185E02D099510920F0208950895FC01BC
:10093000CB012091E80022FFFCCF282F215028F086
:100940003091F10030833196F9CF24E62093F30102
:100950002BEF2093E80008950F931F93CF93DF931D
:10096000DB01A40FB51FFB016EEFEA17FB0791F146
:1009700087FF02C0249101C020810091F7011091EE
:10098000F801C091F501D091F6010C171D07B4F4E0
:100990009091E8009570E1F39091E80092FD1CC001
:1009A0002093F1002091F7013091F8012F5F3F4F24
:1009B0002F733327232B11F46093E8002091F70164
:1009C0003091F8012F5F3F4F3093F8012093F701EA
:1009D0003196CBCFCA0102C08FEF9FEFDF91CF914D
:1009E0001F910F910895CF93DF9300D000D01F92F5
:1009F000CDB7DEB7FC0181819081913A29F5813034
:100A000009F0BCC08281863051F445E050E06AEFC5
:100A100071E080E40E94AC041092FA01AFC087300C
:100A200009F0ACC089838FEF9FEF9B838A838BE0B3
:100A30008C8383E08D8345E050E0BE016F5F7F4F84
:100A400080E40E94AC049AC0913209F097C08930CA
:100A500009F094C08281853009F090C064E070E0B4
:100A6000CE0101960E94970486E08093FA0180915E
:100A70000F018B3021F1A0910F0181E08A0F80934B
:100A80000F019DE1E0910F019E9FF0011124E15BB8
:100A9000FD4F8081882351F080910F018B3030F41D
:100AA00080910F018F5F80930F01ECCF8DE1A89FA4
:100AB000F0011124E15BFD4F81E0808301C0A0E0E3
:100AC000A093FB01A11104C082E08093FC0150C0FF
:100AD00010928B0581E08093FC018A819DE1A99FA2
:100AE000D0011124A15BBD4F11968C9311978FEF0C
:100AF0009FEF1F969C938E931E9753961C921E9267
:100B0000529751961C921E92509712968C93129760
:100B100013968C93139755961C921E9254971D967C
:100B20001C921E921C9715961C9215978FEF9FE7AB
:100B300019969C938E93189757961C921E925697CF
:100B40005B961C921E925A975C961C925C9788EE5C
:100B500093E01B969C938E931A97E091A501F091D8
:100B6000A6010684F785E02DBD01CE010196099509
:100B70008FEF9FEF9093FE018093FD0181E00F9036
:100B80000F900F900F900F90DF91CF91089542E456
:100B900050E06AE172E080E80E94AC0440E250E07C
:100BA0006CE572E080E80E94AC0483E090E0089578
:100BB000EF92FF921F93CF93DF93EC01162FE88102
:100BC000F9810480F581E02D09957C01E881F981A6
:100BD0000680F781E02D612FCE010995C701992785
:100BE000DF91CF911F91FF90EF900895FC019181CB
:100BF0008081813A29F49D7F81E0913091F414C085
:100C0000813279F49A3049F09B3019F0993049F4E7
:100C10000AC0828180930E0106C0828180930D01FB
:100C200002C080E0089581E008958C30F0F49DE1E9
:100C3000899FF0011124E15BFD4F80818823A9F099
:100C400080818260808380910F0281110EC00E949A
:100C5000A52160931502709316028093170290935A
:100C6000180281E080930F02089508956091A70112
:100C70007091A80180E090E00E9456359B01AC0184
:100C800060E07EEF8FEF96E40E94AE3408952F92DD
:100C90003F924F925F926F927F928F929F92AF920C
:100CA000BF92CF92DF92EF92FF920F931F93CF9359
:100CB000DF93CDB7DEB729970FB6F894DEBF0FBE2E
:100CC000CDBF998788874B012B831D830C83170128
:100CD000DF82CE82042F10E08C819D816C01E12C9B
:100CE000F12CE885F985F7FD2BC0C8019695982F62
:100CF000882797958795BF01681B790B072E000CF5
:100D0000880B990B0E9458352B013C01C701B60195
:100D10000E9456359B01AC01C301B2010E94AE3462
:100D20002B013C01C8019695982F882797958795A8
:100D30009A838983EB8190E8E99FB00111242AC04E
:100D4000B8017695762F662777956795E885F985BA
:100D50006E0F7F1F072E000C880B990B0E945835D1
:100D60002B013C01C701B6010E9456359B01AC0125
:100D7000C301B2010E94AE342B013C0160E8600364
:100D8000C001619F900D11249A8389832B81620396
:100D9000B001112488859985681B790B072E000CFA
:100DA000880B990B0E9458356B017C01B10180E0E2
:100DB00090E00E9456359B01AC01C701B6010E942C
:100DC000AE346B017C018A149B0408F43FC08E8111
:100DD0009F818A0D9B1D88169906C0F50C811D8187
:100DE0000A0D1B1D8016910690F4B4016A197B0947
:100DF00080E090E00E9456359B01AC01C301B20136
:100E00000E940D360E94203589819A811CC082196A
:100E1000930988159905E8F48A189B08EE81FF81EB
:100E20008E1A9F0AB401620D731D80E090E00E944B
:100E300056359B01AC01C701B6010E940D360E94D8
:100E4000203588859985860F971F05C080E090E042
:100E500002C08885998529960FB6F894DEBF0FBE2B
:100E6000CDBFDF91CF911F910F91FF90EF90DF9059
:100E7000CF90BF90AF909F908F907F906F905F903A
:100E80004F903F902F900895CF92DF92EF92FF9274
:100E90000F931F938B019C01409173045091740434
:100EA0006A01E12CF12C66277727CB016C197D09AB
:100EB0008E099F0906171707280739074CF0C90143
:100EC000B801C016D106E206F30614F4C701B60154
:100ED0001F910F91FF90EF90DF90CF9008958F9228
:100EE0009F92AF92BF92CF92DF92EF92FF92CF93F9
:100EF000DF934B015C01EA010E9450046B017C010D
:100F0000DE01A50194010E9403340E945835A70117
:100F100096010E940D3620E030E040E051E40E944E
:100F20000D3620E030E040E251E40E940D3620E032
:100F300030E040E85BE30E940D360E9420350E94BD
:100F4000440790958095709561957F4F8F4F9F4F87
:100F5000DF91CF91FF90EF90DF90CF90BF90AF9057
:100F60009F908F9008954F925F926F927F928F9291
:100F70009F92AF92BF92CF92DF92EF92FF92CF9368
:100F8000DF9300D000D0CDB7DEB74B015C0157FF37
:100F900002C04D5F5F4F6A01D594C794D594C79442
:100FA0000E94500469837A838B839C839B01AC01EC
:100FB000C501B4010E940D3620E030E040E251E46A
:100FC0000E940D362B013C0120E030E040E85FE359
:100FD0000E9408360D2C000CEE08FF0818161CF4B1
:100FE000C701B60128C020E030E040E85FEBC30154
:100FF000B2010E94A93487FF06C0C701B6010E9452
:101000004407CB011EC0C701B6010E9458359B01A1
:10101000AC01C501B4010E940D3629813A814B8192
:101020005C810E940D3620E030E040E251E40E94F5
:101030000D360E9420350E94440788279927861B79
:10104000970B0F900F900F900F90DF91CF91FF9023
:10105000EF90DF90CF90BF90AF909F908F907F9058
:101060006F905F904F9008958F929F92AF92BF9232
:10107000CF92DF92EF92FF924B015C01BA01550FC4
:10108000880B990B0E9458356B017C0120E030E001
:10109000A901C501B4010E940836A50194011816E2
:1010A0000CF05058C701B6010E940D366B017C014F
:1010B0000E9450049B01AC01C701B6010E940D368D
:1010C00020E030E040E851E40E940D3620E030E0BE
:1010D00040E251E40E940D3620E030E040E05DE364
:1010E0000E940D360E9420350E9444076B017C014E
:1010F00020E030E0A901C501B4010E9408361816AD
:101100002CF4882799278C199D090DC020E030E028
:10111000A901C501B4010E94A93487FF02C0C6011C
:1011200002C080E090E0FF90EF90DF90CF90BF9002
:10113000AF909F908F900895CF92DF92EF92FF92A1
:10114000CF93DF936B017C01EA0120E030E0A9013D
:101150000E940836181694F020E030E0A901C7017B
:10116000B6010E94A93487FF3AC020E030E0A9010F
:10117000C701B6010E943D346B017C01BE01DD0F49
:10118000880B990B0E9458359B01AC01C701B60131
:101190000E940D366B017C010E9450049B01AC0142
:1011A000C701B6010E940D3620E030E040E851E46E
:1011B0000E940D3620E030E040E251E40E940D36FE
:1011C00020E030E040E05BE30E940D360E942035D5
:1011D0000E94440788279927861B970B02C080E04E
:1011E00090E0DF91CF91FF90EF90DF90CF90089546
:1011F0001F920F920FB60F9211242F933F934F938C
:101200005F936F937F938F939F93AF93BF93EF936E
:10121000FF930E942923FF91EF91BF91AF919F917E
:101220008F917F916F915F914F913F912F910F908F
:101230000FBE0F901F9018951F920F920FB60F922E
:1012400011242F933F934F935F936F937F938F93CB
:101250009F93AF93BF93EF93FF930E942923FF9136
:10126000EF91BF91AF919F918F917F916F915F911E
:101270004F913F912F910F900FBE0F901F90189597
:10128000CF92DF92EF92FF920F931F93CF93DF9352
:101290001F92CDB7DEB7F82EE42E8B01C82ED92EC3
:1012A0008C2D8F198E1588F4F80161918F01C6017C
:1012B00069830E94C3336981681719F0C6010E94CF
:1012C000CB33FFEFCF1ADF0AEBCF0F90DF91CF9137
:1012D0001F910F91FF90EF90DF90CF900895CF92E4
:1012E000DF92EF92FF920F931F93CF93DF931F92A2
:1012F000CDB7DEB78B016B017C01E61AF70A9C2D96
:10130000901B941758F4C7018C0D9D1D49830E94B2
:10131000C333F60181936F014981F1CF0F90DF91C3
:10132000CF911F910F91FF90EF90DF90CF90089594
:101330008F929F92AF92BF92CF92DF92EF92FF92E5
:1013400040E050E020E0682F70E0812C912C5401A7
:101350008394FA013296DB0102C0B595A795EA9510
:10136000E2F775016401042E04C0CC0CDD1CEE1CF8
:10137000FF1C0A94D2F7A0FF02C02C2902C0C0941F
:101380002C214F5F5F4F4430510519F730E0220F99
:10139000331FF901EC5CFE4F80FF05C08081918115
:1013A0009695879502C080819181FF90EF90DF90A4
:1013B000CF90BF90AF909F908F9008951F920F9203
:1013C0000FB60F921124EF92FF921F932F933F932A
:1013D0004F935F936F937F938F939F93AF93BF933D
:1013E000EF93FF93CF93DF93CDB7DEB76197DEBF67
:1013F000CDBF1092E9008091E80083FF59C1FE0142
:101400003A96CF0128E02E0F2E1729F03091F100E7
:1014100030833196F9CF24E62093F30122EF209315
:10142000E8002A8527FF05C03091E80030FFFCCF97
:1014300003C03EEF3093E800322F307609F0C5C08C
:101440008B85811105C01092F1001092F10029C125
:10145000982F9D7F913009F424C1853049F4809103
:10146000E80080FFFCCF8C8580688093E30019C181
:10147000863009F07CC01D85E888F9881092E90063
:101480001092F8011092F701123091F51092F601C6
:101490001092F5010E94C70599E0BE016F5F7F4F72
:1014A000FB01292F11922A95E9F799831A8391E07C
:1014B0009E8390E898879AEF99872091F701309161
:1014C000F801275F3F4F3C832B838D831092E90007
:1014D0001092F8011092F701F092F601E092F501F6
:1014E00049E050E080E00E94AC040E94C705D9C0EA
:1014F000F092F601E092F501123259F441EE54E017
:101500006CE772E080E80E94AC04892B09F0C9C046
:10151000CCC0113069F488899989089711F4109327
:10152000F4018091F401811111C06BE977E016C0DC
:10153000133009F0BAC08C85882359F0823061F0ED
:10154000813009F0B2C06DE577E008C06DEA77E060
:1015500005C065E777E002C069E777E061157105CE
:1015600009F4A3C0FB01449150E080E849C08730F2
:1015700009F49BC0883021F481E08093F10091C090
:10158000893009F08EC0237009F08FC080E090E0B0
:1015900031E026E341E0480F4093E9003093EB004F
:1015A0000196FC01E154F84FE491E093EC002093A4
:1015B000ED008530910571F78EE78093EA00109277
:1015C000EA008C858093A4016CC028893989109227
:1015D000E9001092F8011092F7013093F601209380
:1015E000F5012E85211154C08B859A85913A59F4C5
:1015F000813209F05AC047E050E060E171E080E0DC
:101600000E94AC044EC0913209F04FC0803239F4D0
:1016100067E070E080E191E00E94970442C082326E
:1016200009F043C08C85809317018091100190913F
:101630001101A0911201B0911301803B9440A105CA
:10164000B10579F58091170180FD11C087E797E713
:1016500090930108809300089BE088E10FB6F8940E
:10166000A895809360000FBE909360001AC00FB6DB
:10167000F894A89580916000886180936000109232
:1016800060000FBEA895109201081092000809C0D2
:10169000223059F4E0918C05F0918D05099588234D
:1016A00021F08EEF8093E80003C081E28093EB008D
:1016B00061960FB6F894DEBF0FBECDBFDF91CF911C
:1016C000FF91EF91BF91AF919F918F917F916F911A
:1016D0005F914F913F912F911F91FF90EF900F904D
:1016E0000FBE0F901F9018958F929F92AF92BF924E
:1016F000CF92DF92EF92FF920F931F93CF93DF93DE
:1017000000D01F92CDB7DEB7382F8B018091A40196
:10171000882389F04A018AEFF82E832F8770E82EFC
:1017200090E4C92E832F8072B82E2AE3D22E832F05
:101730008074A82E21C08FEF9FEF5FC08FB7F89401
:10174000E092E9009091E80095FF1AC09091F200B4
:101750002C2D291B8FBF211115C0FA94FF2059F39E
:1017600061E070E080E090E039834A835B830E940F
:101770007F2139814A815B8181149104F9F634C05B
:1017800020E0E8CF822F90E0881699060CF4282DEF
:10179000822F90E0881A990A6FB7F894E092E900D6
:1017A000BB2029F02150A8F01092F100FBCFF801E6
:1017B00037FF07C0215058F074917093F1003196B3
:1017C000F9CF215020F071917093F100FACF080FFA
:1017D000191F8091E80085FF0DC08114910411F458
:1017E000A11008C06FBFC8CF5D9884E68093F9014F
:1017F000CA0103C0D092E800F5CF0F900F900F9070
:10180000DF91CF911F910F91FF90EF90DF90CF90DC
:10181000BF90AF909F908F9008959091A4019923CD
:1018200011F057FF03C08FEF9FEF08952FB7F89483
:1018300087708093E9008091F20090E0841795070B
:101840000CF4AC01842FFB0194E6815030F09093AE
:10185000F3013091F1003193F8CF4115510521F09A
:101860008091F200882319F02FBFCA0108958BE6FA
:101870008093E800F9CF1F920F920FB60F921124B8
:101880002F933F934F935F936F937F938F939F9388
:10189000AF93BF93EF93FF93CF93DF93CDB7DEB7B3
:1018A000C054D109DEBFCDBF8091E1001092E100AC
:1018B00083FF0FC01092E90091E09093EB0010922B
:1018C000EC0092E39093ED001092A40198E09093C5
:1018D000F00082FF46C083E08093E9008091F2002F
:1018E000882319F08AE38093E8009FB7F89482E098
:1018F0008093E9008091F2009FBF882321F083EC60
:1019000094E00E9459209FB7F89485E08093E90005
:101910008091F2009FBF8823C1F080918E05909145
:101920008F05892B91F040E450E0BE016F5F7F4F3F
:1019300085E00E940D0C97FD08C0E0918E05F091A6
:101940008F05BC01CE01019609958091F90188238C
:1019500041F08091F90181508093F901811101C01A
:101960005D9AC05CDF4F0FB6F894DEBF0FBECDBFEF
:10197000DF91CF91FF91EF91BF91AF919F918F91A7
:101980007F916F915F914F913F912F910F900FBE7B
:101990000F901F901895EF92FF920F931F93CF9384
:1019A000DF931F92CDB7DEB789838B017A0141E0C7
:1019B00050E0BE016F5F7F4F84E00E94740BA7016F
:1019C000B80184E40E94740B0F90DF91CF911F91B6
:1019D0000F91FF90EF9008951F93CF93DF93EC0149
:1019E00019819881953009F45DC058F59230D1F194
:1019F000A8F4913009F03FC2E091A501F091A60151
:101A00002DE1129FB0011124615B7D4F028CF38D9B
:101A1000E02DCE01DF91CF911F910994933081F198
:101A2000943009F028C2E091A501F091A601ADE142
:101A30001A9FB0011124615B7D4F0488F589E02D68
:101A40002CC09B3009F493C030F49630C9F19A3021
:101A500009F444C010C29C3009F4C2C0913F09F49B
:101A600011C109C2E091A501F091A6013DE1139FCA
:101A7000B0011124615B7D4F0088F189E02D0DC01C
:101A8000E091A501F091A6018DE1189FB00111240C
:101A9000615B7D4F0288F389E02DCE01DF91CF910C
:101AA0001F910994E091A501F091A601BDE11B9F52
:101AB000B0011124615B7D4F0688F789E02DEDCFE1
:101AC000E091A501F091A6012DE1129FB001112432
:101AD000615B7D4F008CF18DE02DDFCF1F3F09F45E
:101AE0001FE79A81913099F4812F0E941506E12F0A
:101AF000F0E0E150FE4F85818111BDC1E091A5016B
:101B0000F091A6010680F781E02D812F47C0923029
:101B100029F5C1E08C2F0E947504CF5FCC30D1F73E
:101B2000C12FD0E0C150DE4F8D81811109C0E091FD
:101B3000A501F091A6010084F185E02D8FE70995BC
:101B4000812F0E9415068D81811195C1E091A5011B
:101B5000F091A6010680F781E02D1FC0933009F0B7
:101B60008AC1812FDF91CF911F910C94750481E080
:101B70001F3FC1F480930F018CE591E0EFE4F2E0A8
:101B8000DF019C011D9221503040E1F7E091A50159
:101B9000F091A6010284F385E02D8FE7DF91CF91CC
:101BA0001F91099480938B051C3008F064C13DE1BE
:101BB000139FF0011124E15BFD4F108280910F0112
:101BC000181710F410930F01E091A501F091A601F0
:101BD0000284F385E02D812F099510920F024BC1ED
:101BE00082E0809310029091110294609093110210
:101BF0009091110290619093110210921202133091
:101C0000C1F048F4113089F0123009F034C18091EC
:101C10001102826034C0153079F1B8F0163009F045
:101C20002AC1809111028E7F2AC0809111028D7F7E
:101C300026C0E091A501F091A6010480F581E02D78
:101C400080E009951092120216C1E091A501F09171
:101C5000A6010480F581E02D81E0099581E0809363
:101C60000F018CE591E0EFE4F2E0DF019C011D92B1
:101C700021503040E1F7FFC08091110281608093D4
:101C80001102F9C08E89813009F0ADC0A981BA81F5
:101C9000AE31B1053CF0A93037E0B3072CF0A8E035
:101CA000B7E002C0AEE1B0E02091AE013091AF01EB
:101CB0004091B0015091B1010E94033428E631E017
:101CC00040E050E00E94D93320936D0430936E04BD
:101CD00040936F0450937004CA01B90122E030E0D0
:101CE00040E050E00E94D93320931D0230931E0241
:101CF00040931F02509320028D89813011F40E947D
:101D0000C3248F81893C08F088EC80931302888576
:101D1000893C08F088EC809322028985893C08F090
:101D200088EC80931B028A85893C08F088EC8093BC
:101D300019028B85893C08F088EC809321028C8500
:101D4000893C08F088EC80931C028D85893C08F062
:101D500088EC80931A028E85893C08F088EC809389
:101D6000AB038F85893C08F088EC809314022A89A4
:101D70003B89809173049091740428173907A0F46B
:101D800037FD0AC08091A7019091A80101972817FB
:101D9000390720F4C90102C080E090E090937204FA
:101DA0008093710483E68E8B288939898091710430
:101DB000909172048217930708F050C083E68E8BCF
:101DC000121613064CF48091A7019091A8012817D0
:101DD000390720F4C90102C081E090E090937404B7
:101DE000809373043BC08F3FC9F58091B3019091FC
:101DF000B4019A8389838091FA049091FB04A091A5
:101E0000FC04B091FD048B839C83AD83BE838091E1
:101E100013028F8380912202888780911B02898719
:101E2000809119028A87809121028B8780911C0200
:101E30008C8780911A028D878091AB038E87809169
:101E400014028F878091730490917404998B888B0E
:101E500080917104909172049B8B8A8B81EF90E04A
:101E6000988F8F8B40E450E0BE0182EFDF91CF91DD
:101E70001F910C94CB0CDF91CF911F910895DC0141
:101E8000683810F0685825C0E62FF0E067FF12C0F0
:101E9000E058F10981E090E001C0880FEA95EAF787
:101EA000809514969C911497892314968C9314977B
:101EB00060E00FC0E656FE4F6491662311F167FFA4
:101EC00008C014968C9114978D7F14968C93149758
:101ED0006F77FD01369686E0662321F09081961398
:101EE00001C01082815031968111F6CFBD016C5F27
:101EF0007F4F48E050E082E00E94CB0C81E090E010
:101F0000089580E090E00895FC0116821782108603
:101F10001186128613861482BC016C5F7F4F48E0E5
:101F200050E082E00C94CB0CDC01683810F068586B
:101F30002DC0E62FF0E067FF11C0E058F10981E005
:101F400090E001C0880FEA95EAF714969C911497E7
:101F5000892B14968C93149760E018C0E656FE4FB8
:101F60006491611109C081E090E013969C938E9377
:101F7000129780E090E0089567FF08C014968C9156
:101F80001497826014968C9314976F7716968C91A1
:101F90001697861751F117968C911797861729F186
:101FA00018968C911897861701F119968C911997AC
:101FB0008617D9F01A968C911A978617B1F01B964E
:101FC0008C911B97861789F0FD01369680E090E092
:101FD0002191211105C0FD01E80FF91F668305C09D
:101FE000019686309105A1F7BECFBD016C5F7F4F92
:101FF00048E050E082E00E94CB0C81E090E0089540
:102000002F923F924F925F926F927F928F929F9208
:10201000AF92BF92CF92DF92EF92FF920F931F93F6
:10202000CF93DF93CDB7DEB7AF970FB6F894DEBF8F
:102030000FBECDBF6B837C838D839E838091FF0415
:1020400090910005A0910105B09102052B813C8182
:102050004D815E812093FF0430930005409301057C
:102060005093020520910705222309F44AC01091DC
:10207000300534E0139FA0011124BA0161507B4F59
:102080007B012B813C814D815E81281B390B4A0BE2
:102090005B0BCA01B9010E945835D70119966D939F
:1020A0007D938D939C931C97012FBAE0FB2E60E0EB
:1020B00070E0CB01B4E00B9FF0011124E150FB4F25
:1020C00021853285438554850E943D34002311F0DB
:1020D000015001C009E0FA94F110ECCF20E030E0AB
:1020E00040E251E40E94AE341F5F1A3018F410939E
:1020F000300502C0109230056D8B7E8B8F8B988FD0
:102100000FC081E08093070510920305109204052B
:1021100010920505109206051D8A1E8A1F8A188EC8
:1021200020913105309132054091330550913405AD
:102130008D899E89AF89B88D809331059093320542
:10214000A0933305B093340580913905882309F4B1
:1021500043C010918A05E4E01E9FB0011124CB0119
:10216000885F9A4F7C016D897E89CD010E943C3445
:10217000D701D2966D937D938D939C93D597012F24
:10218000A4E1FA2E60E070E0CB01B4E00B9FF00117
:102190001124E85FFA4F22A933A944A955A90E9446
:1021A0003D34002311F0015001C003E1FA94F11015
:1021B000ECCF20E030E040EA51E40E94AE341F5FF3
:1021C000143118F410938A0502C010928A056D8F9D
:1021D0007E8F8F8F98A30FC081E080933905109276
:1021E00035051092360510923705109238051D8E70
:1021F0001E8E1F8E18A280918B05882309F441C082
:102200008B819C81AD81BE81B7FF07C0B095A09541
:10221000909581959F4FAF4FBF4F0297A105B10594
:102220000CF487C78091AC0380FF83C70E943606F9
:102230009B01AC0160E070E080E094E40E94AE3469
:102240006B017C016091AB0370E080E090E00E9444
:1022500058359B01AC01C701B6010E940D3620E044
:1022600030E048EC52E40E94AE340E942035AB01CD
:102270006B817C818D819E810E946F072B013C01C7
:102280005BC7E3E2F2E0FC8BEB8B1A821982412CF4
:10229000512C320129813A812F5F3F4F3A832983A4
:1022A0006DE1629FA001639F500D11248A01015BC3
:1022B0001D4FD8018C918370833009F02DC70E9487
:1022C00036066B017C01F80120853185A689B78926
:1022D0000E9434372FEF3FE740E050E00E94D933AF
:1022E000CA01B9010E945835A70196010E94AE3477
:1022F0000E9420356B017C01D8011A968D919C912A
:102300001B97059730F4E4E0F0E01B96FC93EE9306
:102310001A974DE129813A81429FF001439FF00DC8
:102320001124E15BFD4FE1818E2F90E0FC0131979C
:10233000ED30F10508F0DAC6EB56FF4F0C942E375E
:102340000E9436066F83788789879A878DE1698135
:102350007A81869FA001879F500D1124DA01A15B2D
:10236000BD4F1D0118968D909C9019975496AD9075
:10237000BC9055971E96CD90DC901F975096ED908F
:10238000FC90519752960D911C91539713962C9156
:10239000139712964C91129756968D919C91579740
:1023A000EB89FC89608171810E9447069401DC0100
:1023B0000E9434372FEF3FE740E050E00E94D933CE
:1023C000CA01B9010E9458352F81388549855A853F
:1023D0000E94AE340E9420350E9444079B01AC014C
:1023E000A0912202B0E00E94F83324E630E040E001
:1023F00050E00E94D933421A530A640A750AD10187
:1024000015968C91159782FF71C61C966D917C91E3
:102410001D9780E090E00E9456352BED3FE049EC9F
:1024200050E40E940D3620E030E040E058E30E9486
:102430000D360E947A369B01AC01C301B2012AA776
:102440003DA74BA75CA70E9458352AA53DA54BA5E3
:102450005CA50E940D360E9420352B013C0146C62A
:102460000E9436066F83788789879A874DE1298194
:102470003A81429FF001439FF00D1124E15BFD4F33
:10248000608571857C876B87A488B58886859785EC
:10249000988B8F87A089B189BA8FA98F22893389B8
:1024A0003DA32CA383809280AB89BC892D903C9066
:1024B000268537853FA72EA767810681002E000C51
:1024C000110B062E000C770B601B710BCB01770FE5
:1024D000AA0BBB0B6627782F892F9A2F0E9458359D
:1024E0006B017C014EA55FA5BA0180E090E00E94DF
:1024F000563520E030E04AE754E40E94AE349B01B8
:10250000AC01C701B6010E94AE346B017C01C10170
:102510006EA57FA50E941A37BC0180E090E00E9462
:10252000563520E030E04AE754E40E94AE349B0187
:10253000AC01C701B6010E940D360E942035102F54
:102540000027C801860F971FCF84D888E98CFA8CA2
:102550000CA11DA1282D492DB1010E9447062B85F4
:102560003C85DC010E9434372FEF3FE740E050E02C
:102570000E94D933CA01B9010E9458352F8138858C
:1025800049855A850E94AE340E9420350E94440736
:10259000461A570A680A790AA9C50E9436066F8347
:1025A000788789879A878DE169817A81869FF00192
:1025B000879FF00D1124E15BFD4F20843184A28DB3
:1025C000B38DBC87AB87B48DBF87228533853A8FA7
:1025D000298FA488B588C684D784E088F1880289C9
:1025E000138923814281AB89BC898D909C90868917
:1025F0009789B4010E9447068C01E98DFA8DBF01CD
:1026000080E090E00E94563520E030E04AE754E454
:102610000E94AE349B01AC0160E070E080E89FE373
:102620000E94AE346B017C01C401698D7A8D0E94D9
:102630001A37BC0180E090E00E94563520E030E07F
:102640004AE754E40E94AE349B01AC01C701B601D5
:102650000E940D366B017C01FF856F2F70E080E0DA
:1026600090E00E94563520E030E040E85BE30E94B5
:102670000D369B01AC01C701B6010E943D342BED24
:102680003FE049EC50E40E940D360E947A369B01EF
:10269000AC016B857C856B01770FEE08FF08B801F4
:1026A000110F880B990B2AA73DA74BA75CA70E9487
:1026B00058352AA53DA54BA55CA50E940D360E9464
:1026C0002035CB01770FAA0BBB0BA7019601280F72
:1026D000391F4A1F5B1FD101BDC00E9436066F83A0
:1026E000788789879A87ADE189819A81A89FF001CF
:1026F000A99FF00D1124E15BFD4F208531853C87BA
:102700002B87228D338DA901330F660B770B4F87F3
:10271000588B698B7A8B548D598F22843384A4888B
:10272000B588C684D784E088F1880289138923811B
:102730004281AB89BC890D90BC91A02DBDA3ACA3F7
:1027400086899789BD010E944706BC01990F880BB5
:10275000990B0E9458356B017C01B10180E090E03B
:102760000E94563520E030E04AE754E40E94AE343F
:102770009B01AC0160E070E080E89FE30E94AE3412
:102780004B015C018CA19DA1B1010E941A37BC01D3
:1027900080E090E00E94563520E030E04AE754E4C3
:1027A0000E94AE349B01AC01C501B4010E940D36FC
:1027B0004B015C01B98D6B2F70E080E090E00E94CE
:1027C000563520E030E040E85BE30E940D369B0187
:1027D000AC01C501B4010E943D342BED3FE049EC52
:1027E00050E40E940D360E947A364B015C0120E0D5
:1027F00030E0A9010E94083687FF0CC020E030E0DD
:10280000A901C501B4010E94A93487FF05C0EFEFFB
:10281000EBA302C0F1E0FBA32BA1622F220F770BE9
:10282000880B990B0E9458359B01AC01C701B6017A
:102830000E940D360E942035CB01770FAA0BBB0BEF
:102840002F85388949895A89280F391F4A1F5B1FEC
:10285000AB85BC850E94F8332FEF3FE740E050E0A6
:102860000E94D933CA01B9010E9458352F81388599
:1028700049855A850E94AE340E9420359B01AC01E7
:10288000A0912102B0E00E94F83324E630E040E05D
:1028900050E00E94D933420E531E641E751E26C49A
:1028A0000E9436066B877C878D879E876DE1498104
:1028B0005A81649FF001659FF00D1124E15BFD4F8B
:1028C00080859185988B8F87228D338DA901330F59
:1028D000660B770B498F5A8F6B8F7C8F348D2284D8
:1028E0003384A488B588C684D784E088F1880289B7
:1028F000138923814281AB89BC890D90BC91A02DA5
:10290000B887AF8386899789BD013DA70E94470696
:102910008C01B10180E090E00E9456354B015C01D2
:102920003DA580E4830F682F70E080E090E00E9476
:10293000563520E030E040E85BE30E940D36A5010B
:1029400094010E940D360E9427358F819885860F4D
:10295000971FB1010E941A379DA38CA3BC0180E090
:1029600090E00E94563520E030E04AE754E40E94AF
:10297000AE346B017C0120E030E0A9010E940836F2
:1029800087FD3CC020E030E04AE754E4C501B401D3
:102990000E94AE346F83788789879A8720E030E081
:1029A00040E05FE30E940D369B01AC01C701B60118
:1029B0000E94A93487FF22C0B801012E000C880BA9
:1029C000990B0E94583520E030E040E850E40E9426
:1029D0000D362F81388549855A850E94AE34A7016E
:1029E00096010E940D360E9420351195019511091E
:1029F000F801E60FF71FFAA3E9A350C020E030E08A
:102A00004AE754E4C501B4010E94AE344B015C01B5
:102A100020E030E040E05FE30E940D369B01AC0116
:102A2000C701B6010E94083687FD38C0A501940190
:102A3000C701B6010E94A93487FF30C0B801012E3A
:102A4000000C880B990B0E94583520E030E040E8DC
:102A500050EC0E940D36A50194010E94AE346B012A
:102A60007C01369427946CA17DA16219730980E0E2
:102A700090E00E94563520E030E04AE754E40E949E
:102A8000AE349B01AC01C701B6010E940D360E9415
:102A900020359801260F371F3AA329A349A15AA12F
:102AA000CA01550FAA0BBB0B298D3A8D4B8D5C8D3E
:102AB000280F391F4A1F5B1FAF85B8890E94F83362
:102AC0002FEF3FE740E050E00E94D933CA01B9013F
:102AD0000E9458352B853C854D855E85CBCE0E9466
:102AE00036066F83788789879A878DE169817A8135
:102AF000869FF001879FF00D1124E15BFD4FA085BB
:102B0000B185BC87AB87228D338DA901330F660B4E
:102B1000770B4F87588B698B7A8B348D2284338463
:102B2000A488B588C684D784E088F188028913898F
:102B300023814281AB89BC898D909C90868997893D
:102B4000B4013DA70E9447068C01B10180E090E0EE
:102B50000E9456356B017C013DA53058632F70E013
:102B600080E090E00E94563520E030E040E85BE3F2
:102B70000E940D36A70196010E940D360E9427354E
:102B8000C401860F971FB1010E941A379A8F898F4F
:102B900082159305D0F5B801012E000C880B990B16
:102BA0000E9458359B01AC010E943D344B015C01F1
:102BB00020E030E04AE754E4C701B6010E94AE3499
:102BC0009B01AC01C501B4010E94AE346B017C01D4
:102BD000E98DFA8DBF0180E090E00E94563520E03B
:102BE00030E04AE754E40E94AE349B01AC01C701D7
:102BF000B6010E940D360E942035119501951109EC
:102C00009801260F371F3FA32EA34EA15FA198C0A6
:102C10000E9436066F83788789879A878DE169815C
:102C20007A81869FF001879FF00D1124E15BFD4FB3
:102C3000A085B185BC87AB87228D338DA901330F69
:102C4000660B770B4F87588B698B7A8B348D228478
:102C50003384A488B588C684D784E088F188028943
:102C6000138923814281AB89BC898D909C90868990
:102C70009789B4013DA70E9447068C01B10180E00D
:102C800090E00E9456356B017C013DA53058632FC2
:102C900070E080E090E00E94563520E030E040E8AF
:102CA0005BE30E940D36A70196010E940D360E943B
:102CB0002735C401860F971FB1010E941A379A8FDA
:102CC000898F82159305D0F566277727601B710BD6
:102CD000072E000C880B990B0E9458359B01AC0104
:102CE0000E943D344B015C0120E030E04AE754E4AF
:102CF000C701B6010E94AE349B01AC01C501B4010D
:102D00000E94AE346B017C01E98DFA8DBF0180E039
:102D100090E00E94563520E030E04AE754E40E94FB
:102D2000AE349B01AC01C701B6010E940D360E9472
:102D300020359801260F371F39A728A748A559A580
:102D4000CA01550FAA0BBB0B7BCD8DE169817A813E
:102D5000869FF001879FF00D1124E15BFD4FA28D4E
:102D6000B38D80901D0290901E02A0901F02B09023
:102D70002002A50194010E940334DC01CB016FE025
:102D8000B595A795979587956A95D1F7092E000C6B
:102D9000AA0BBB0B2B813C814D815E81281B390B1B
:102DA0004A0B5B0B1216130614061506F4F4A28DDB
:102DB000B38DA50194010E940334DC01CB015FE0D7
:102DC000B595A795979587955A95D1F7092E000C3B
:102DD000AA0BBB0B4B815C816D817E81481B590B1B
:102DE0006A0B7B0BDB01CA011BC0A28DB38DA50151
:102DF00094010E940334DC01CB014FE0B595A79507
:102E0000979587954A95D1F7092E000CAA0BBB0B15
:102E10002B813C814D815E81821B930BA40BB50BF2
:102E20006DE149815A81649FF001659FF00D112485
:102E3000E15BFD4F448178E0479FA0011124052EFE
:102E4000000C660B770B481759076A077B070CF0D5
:102E50004DC1A28DB38DA50194010E940334DC0104
:102E6000CB013FE0B595A795979587953A95D1F712
:102E7000092E000CAA0BBB0B2B813C814D815E817E
:102E8000281B390B4A0B5B0B57FD03C008EF1FEFE4
:102E900002C008E010E06DE149815A81649FF001B1
:102EA000659FF00D1124E15BFD4F3480828D938D81
:102EB0009C878B87A0911C02B0E0A70196010E941D
:102EC000F83320E436E040E050E00E94D9332F830D
:102ED000388749875A87309E6001319ED00C112473
:102EE0000D2C000CEE08FF082B813C814D815E818A
:102EF000C20ED31EE41EF51EAB85BC85A501940150
:102F00000E940334DC01CB012FE0B595A79597957E
:102F100087952A95D1F7092E000CAA0BBB0BA701A8
:102F20009601281B390B4A0B5B0BCA01B9014F8173
:102F300058850E946F07460E571E681E791ED6C020
:102F40006DE149815A81649FF001659FF00D112464
:102F5000E15BFD4F028D138DA0911B02B0E0A70134
:102F600096010E94F83324E630E040E050E00E94F1
:102F7000D93369017A01B801110F880B990B0E94AE
:102F800058352AE939EC4CEC54E40E94AE349B01EC
:102F9000AC016D897E898F89988D0E943C34A60191
:102FA0000E949C0865C0ADE189819A81A89FF001CB
:102FB000A99FF00D1124E15BFD4F028D138DA091AF
:102FC0001A02B0E0A70196010E94F83324E630E02F
:102FD00040E050E00E94D93369017A01B801110F35
:102FE000880B990B0E94583520E03EEF4FEF56E4D6
:102FF0000E94AE349B01AC016D8D7E8D8F8D98A1AA
:103000000E943C34A6010E94340832C04DE129815F
:103010003A81429FF001439FF00D1124E15BFD4F87
:10302000028D138DA0911902B0E0A70196010E94B4
:10303000F83324E630E040E050E00E94D9336901E3
:103040007A01B801110F880B990B0E9458352AE9B3
:1030500039EC4CEC54E40E94AE349B01AC016D8918
:103060007E898F89988D0E943C34A6010E94B30707
:10307000092E000CAA0BBB0B480E591E6A1E7B1EA4
:1030800035C00E9436069B01AC018DE169817A81D1
:10309000869FF001879FF00D1124E15BFD4F628D4B
:1030A000738D072E000C880B990B2AA73DA74BA701
:1030B0005CA70E9458352AA53DA54BA55CA50E949A
:1030C000AE340E9420350E9444079B01AC01A091C0
:1030D0002102B0E00E94F83324E630E040E050E006
:1030E0000E94D933421A530A640A750A0E94A52124
:1030F00000911502109116022091170230911802CA
:10310000DC01CB01801B910BA20BB30BEB89FC897B
:1031100080839183A283B3832B893C892C5F3F4FAB
:103120003C8B2B8B49815A814B30510509F0B2C839
:1031300003C0412C512C32013090AC0331FE2EC023
:103140000E9436069B01AC01E0911B0287E491E0EE
:10315000E89FB001E99F700D1124072E000C880B29
:10316000990B2AA73DA74BA75CA70E9458352AA513
:103170003DA54BA55CA50E94AE340E942035AB0155
:103180006D897E898F89988D0E949C08092E000C7C
:10319000AA0BBB0B480E591E6A1E7B1E32FE2EC0A8
:1031A0000E9436069B01AC01E0911A0287E491E08F
:1031B000E89FB001E99F700D1124072E000C880BC9
:1031C000990B2AA73DA74BA75CA70E9458352AA5B3
:1031D0003DA54BA55CA50E94AE340E942035AB01F5
:1031E0006D8D7E8D8F8D98A10E943408092E000C64
:1031F000AA0BBB0B480E591E6A1E7B1E33FE2EC047
:103200000E9436069B01AC01E091190287E491E02F
:10321000E89FB001E99F700D1124072E000C880B68
:10322000990B2AA73DA74BA75CA70E9458352AA552
:103230003DA54BA55CA50E94AE340E942035AB0194
:103240006D897E898F89988D0E94B307092E000CA5
:10325000AA0BBB0B480E591E6A1E7B1E80911D02D5
:1032600090911E02A0911F02B09120020027112709
:103270009801081B190B2A0B3B0B4B815C816D815C
:103280007E81401751076207730734F08417950752
:10329000A607B7070CF03FC02B813C814D815E81B2
:1032A00057FD07C069017A01C81AD90AEA0AFB0A60
:1032B00008C0CB80DC80ED80FE80C80ED91EEA1EDF
:1032C000FB1E0E9436069B01AC0160E07EEF8FEF93
:1032D00096E40E94AE344B015C016091140270E0F0
:1032E00080E090E00E9458359B01AC01C501B4011B
:1032F0000E940D3620E030E048EC52E40E94AE34EB
:103300000E942035AB01C701B6010E946F07460E2F
:10331000571E681E791EA0911302B0E0A30192010E
:103320000E94F83324E630E040E050E00E94D933B8
:10333000CA01B9010E9444076B017C0134FE04C03C
:103340000E94CE230E946123C701B601AF960FB63B
:10335000F894DEBF0FBECDBFDF91CF911F910F91CB
:10336000FF90EF90DF90CF90BF90AF909F908F90A5
:103370007F906F905F904F903F902F900895CF93E4
:103380001092E1041092E0048091DD0491E09093AA
:103390007A048093790410927804109277048091D3
:1033A000E2049091E304DC01ED91FC910190F08145
:1033B000E02D67E0099561E08091E2049091E304DB
:1033C0000E940D1BC82F882341F08CE99FEF90933A
:1033D000E1048093E004C0E01EC061E08091DD0460
:1033E0000E9408241092760480937504813039F08D
:1033F0008BE99FEF9093E1048093E0040CC08091EF
:10340000E2049091E304DC01ED91FC910680F781E8
:10341000E02D0995C82F8C2FCF910895CF93C82FF9
:103420001092E1041092E0048091DD0491E0909309
:103430007A04809379041092780410927704809132
:10344000E2049091E304DC01ED91FC910190F081A4
:10345000E02D67E009958091E2049091E304DC019E
:10346000ED91FC910190F081E02D6C2F099561E0C8
:103470008091E2049091E3040E940D1B882331F0B7
:1034800088E39FEF9093E1048093E0048091E0044F
:10349000CF910895682F70E080E090E04AE00C94AE
:1034A00081230895CF93DF93FC01EB017181828129
:1034B000898387819085998788872585368543818B
:1034C00054816DE1769FC0011124815B9D4FDC0129
:1034D0001F965C934E931E9755963C932E9354974C
:1034E00064E0769FD0011124A15EBD4F1D921D9214
:1034F0001D921C921397838594859D878C87828566
:103500008D8381E0DF91CF910895FC012281FB0141
:103510002683FC018381FB0187830895FC0182815E
:103520009381FB01978B868B0895DC01FB0112963A
:103530008D919C911397978B868B14968D919C916E
:103540001597938F828F16968C911697848F179666
:103550008D919C911897938782870895DC01FB01D8
:1035600015968D919C911697978B868B13968D91BE
:103570009C911497938F828F19968C9119978483BD
:1035800017968D919C911897918F808F0895DC01EB
:10359000FB0112968C911297828313968C9113974C
:1035A000838314968D919C911597938B828B16969D
:1035B0008D919C911797918B808B08959DE1899FA8
:1035C000F0011124E15BFD4F77876687558B448BB3
:1035D00094E0899FF0011124E15EFD4F1082118279
:1035E0001282138208950895089510928B0524E0A5
:1035F000829FC0011124FC01E15EFD4F1082118207
:1036000012821382089525E0FC0120838EE491E06C
:103610000895089580938B050895209177049091E3
:103620007904213208F049C08091C1048111FCCF96
:1036300032E03093C1046093C0043FEF3093BF0485
:103640001092BE042093BD04A9EBB3E04BE954E013
:10365000FA013E2F341B321718F43D913193F9CF04
:103660001092BC042091BC04990F922B9093BC043F
:103670009091BB04913061F41092BB049091BC0412
:103680009093BB009091BC0093FDF8CF95EC01C0E6
:1036900095EE9093BC009091C1049230E1F390912B
:1036A000BF049F3F79F08091BF04803241F0809148
:1036B000BF04803331F084E005C081E003C082E0C4
:1036C00001C083E0109278041092770410927A047B
:1036D00008952091A7013091A8012817390708F40F
:1036E000C90190938B0080938A0008952091A701CF
:1036F0003091A8012817390708F4C901909389006F
:103700008093880008952F923F924F925F926F921C
:103710007F928F929F92AF92BF92CF92DF92EF9261
:10372000FF92CF93DF93CDB7DEB764970FB6F894CF
:10373000DEBF0FBECDBF6B017C016091130270E054
:1037400080E090E00E9458352AE037ED43E25CE3E8
:103750000E940D3669837A838B839C83160127012F
:10376000F7FE07C02224332421012C183D084E08FF
:103770005F08C201B1010E9458354B015C016091A4
:1037800073047091740480E090E00E9456356D835C
:103790007E838F83988726E636E646E65FE30E94BF
:1037A0000D3629813A814B815C810E940D366987F3
:1037B0007A878B879C879B01AC01C501B4010E946D
:1037C000083687FDCBC02D813E814F8158856981A8
:1037D0007A818B819C810E940D366D877E878F87D1
:1037E000988B20E030E040E85FE30E943C349B018E
:1037F000AC01C501B4010E94A93487FFAFC069853F
:103800007A858B859C850E9420354B015C01A20145
:103810009101261B370B480B590BAEE3B0E00E9419
:10382000F83369837A838B839C836D857E858F854E
:1038300098890E9420359B01AC01281939094A0951
:103840005B0969817A818B819C810E94D93349010E
:103850005A018FEF881A980AA80AB80A340161E061
:103860008DE00E94F3208114910409F498C08FEF39
:103870008816910409F48EC0E8E3F8E0E4918E2FF5
:1038800090E0FC013197EE30F10508F062C0EE5592
:10389000FF4F0C942E3784B5806884BD87BC83C0ED
:1038A00084B5806284BD88BC7EC0809180008068C1
:1038B00080938000909289008092880074C08091EB
:1038C000800080628093800090928B0080928A00BA
:1038D0006AC08091900080688093900090929900D7
:1038E0008092980060C080919000806280939000E8
:1038F00090929B0080929A0056C0809190008860C0
:103900008093900090929D0080929C004CC080918A
:10391000C00080688093C0008091C0008F7B80933E
:10392000C0008092CF003FC08091C0008062809331
:10393000C0008092D00037C08091C2008860809320
:10394000C2008091C2008B7F8093C2008092D2001F
:103950002AC080E868167104ECF421C02D813E81F4
:103960004F81588569817A818B819C810E940D36B7
:1039700020E030E040E85FE30E943C349B01AC0172
:10398000C501B4010E94083661E087FD05C08DE0E5
:103990000E94F32061E004C08DE00E94F32060E00B
:1039A0008DE00E9494206091B20170E0605871092E
:1039B000072E000C880B990B0E94583520E030E050
:1039C0004FE753E40E94AE344B015C016093B503B2
:1039D0007093B6038093B7039093B80320E030E070
:1039E000A9010E9408361816ACF4A501940160E004
:1039F00070E080E89FE30E943C346093B1037093D1
:103A0000B2038093B3039093B40380E090E0A0E806
:103A1000BFE330C020E030E0A901C501B4010E943D
:103A2000A93487FF1BC080E090E0A0E8BFE380934B
:103A3000B1039093B203A093B303B093B4039C017A
:103A4000AD01C501B4010E943D346093AD03709394
:103A5000AE038093AF039093B00314C080E090E076
:103A6000A0E8BFE38093B1039093B203A093B303A4
:103A7000B093B4038093AD039093AE03A093AF03D0
:103A8000B093B0039091AD01892F807491FDD4C0A3
:103A9000811188C01C141D041E041F04A4F540904D
:103AA0007304509074048090710490907204A12C5F
:103AB000B12C612C712CC301B2010E9456352091AA
:103AC000AD033091AE034091AF035091B0030E941B
:103AD0000D360E942035681979098A099B09A701CA
:103AE00096010E940A37A30192010E94D93369010D
:103AF0007A01C80CD91CEA1CFB1C80E090E00E94F3
:103B0000761BC60141C0C114D104E104F10409F4DB
:103B10003FC0409073045090740480917104909160
:103B200072044C01A12CB12CF094E094D094C09478
:103B3000C11CD11CE11CF11C612C712CC301B20110
:103B40000E9456352091B1033091B2034091B303E6
:103B50005091B4030E940D360E94203568197909EE
:103B60008A099B09A70196010E940A37A3019201C5
:103B70000E94D933DA01C901880D991DAA1DBB1D08
:103B80000E94761B80E090E00E94691B2F9A1CC166
:103B900080E090E00E94761B80E090E00E94691B2C
:103BA0002F9812C1E0917304F09174041C141D0449
:103BB0001E041F04DCF44F019694879480917104D5
:103BC00090917204880E991EA12CB12C2F01612CAA
:103BD000712CC301B201681979098A099B09A701EF
:103BE00096010E940A37A301920119C0C114D104A1
:103BF000E104F104E9F04F019694879480917104F7
:103C000090917204881A990AA12CB12CA5019401F3
:103C1000C701B6010E940A379F0140E050E00E94B0
:103C2000D933DA01C901880D991DAA1DBB1DB0C089
:103C3000CF0196958795ACC0811127C0F7FC02C0D3
:103C40002F9A01C02F9880917104909172046C0199
:103C5000E12CF12C8090730490907404A12CB12C71
:103C6000C501B4016C197D098E099F09A20191015A
:103C70000E940A37A50194010E94D933DA01C901D3
:103C80008C0D9D1DAE1DBF1D83C01C141D041E0484
:103C90001F046CF520E030E040E85FE36091A9018B
:103CA0007091AA018091AB019091AC010E943D34CA
:103CB00020910401309105014091060150910701C6
:103CC0000E940D360E9420354B015C01609100017D
:103CD0007091010180910201909103010E942035B1
:103CE000681979098A099B09A70196013FC0C11487
:103CF000D104E104F10409F440C02091A9013091FC
:103D0000AA014091AB015091AC0160E070E080E805
:103D10009FE30E943C3420910401309105014091C1
:103D20000601509107010E940D360E9420354B017B
:103D30005C0122273327A9012C193D094E095F098F
:103D4000609108017091090180910A0190910B0125
:103D5000298B3A8B4B8B5C8B0E9420356819790933
:103D60008A099B0929893A894B895C890E940A370B
:103D7000209173043091740450CF609104017091CC
:103D8000050180910601909107010E942735CB0122
:103D90000E94761B80E090E064960FB6F894DEBF38
:103DA0000FBECDBFDF91CF91FF90EF90DF90CF900E
:103DB000BF90AF909F908F907F906F905F904F904B
:103DC0003F902F900C94691B64960FB6F894DEBF59
:103DD0000FBECDBFDF91CF91FF90EF90DF90CF90DE
:103DE000BF90AF909F908F907F906F905F904F901B
:103DF0003F902F900895CF92DF92EF92FF920F9312
:103E00001F93CF93DF936C01EB017B01E40EF51E52
:103E100000E010E0CE15DF0561F06991D601ED916B
:103E2000FC910190F081E02DC6010995080F191F42
:103E3000F1CFC801DF91CF911F910F91FF90EF90CB
:103E4000DF90CF90089583E08093E9008091F200A5
:103E5000882319F08AE38093E8000895209169048B
:103E600030916A0480916B0490916C042817390793
:103E7000A9F0E0916B04F0916C04E75DFB4F808149
:103E800020916B0430916C042F5F3F4F2F733327C9
:103E900030936C0420936B0490E008958FEF9FEFB4
:103EA00008952091690430916A0480916B04909187
:103EB0006C042817390749F0E0916B04F0916C0409
:103EC000E75DFB4F808190E008958FEF9FEF0895AD
:103ED0008091690490916A0420916B0430916C0484
:103EE000821B930B8F739927089585ED8093BC00F7
:103EF0008091BC0084FDFCCF1092C10408954091D4
:103F0000FB03262F30E0240F311D21323105DCF474
:103F10002091C1042430C9F4FC0180E090E08617B0
:103F200058F43091FB032191DC01A752BC4FA30F41
:103F3000B11D2C930196F3CF8091FB03680F609322
:103F4000FB0380E0089581E0089582E008950895DC
:103F5000E091760480917504E81730F4F0E0E558BC
:103F6000FB4F808190E008958FEF9FEF089590912F
:103F7000760480917504981750F4E92FF0E0E55825
:103F8000FB4F208130E09F5F9093760402C02FEFBB
:103F90003FEFC90108958091750490E02091760467
:103FA000821B91090895CF92DF92EF92FF920F93B7
:103FB0001F93CF93DF937C01262F972F8A01809147
:103FC0007A04882391F0C62FD72F6E01C40ED51E18
:103FD000CC15DD0571F06991D701ED91FC9101904F
:103FE000F081E02DC7010995F3CF642F822F0E9445
:103FF0007F1FC801DF91CF911F910F91FF90EF902C
:10400000DF90CF900895CF93DF931F92CDB7DEB7A7
:10401000698320917A042223D1F020917704203201
:1040200040F021E030E0FC013383228380E090E027
:1040300015C080917804E82FF0E0E754FC4F998197
:1040400090838F5F809378048093770405C061E04C
:10405000CE0101960E947F1F81E090E00F90DF91DA
:10406000CF9108950E943B370F931F93CF93DF9317
:104070001F92CDB7DEB78C01698380911701882329
:1040800059F041E050E0BE016F5F7F4F83E00E9436
:10409000740B181619063CF081E090E0F801938348
:1040A000828380E090E00F90DF91CF911F910F917C
:1040B00008950F931F93CF93DF931F92CDB7DEB771
:1040C0000091690410916A040F5F1F4F0F7311274D
:1040D00080916B0490916C0408171907F9F041E086
:1040E00050E0BE016F5F7F4F82E00E940D0C019790
:1040F00019F4898190E002C08FEF9FEF8F3F2FEF7F
:10410000920761F0E0916904F0916A04E75DFB4F6A
:10411000808310936A0400936904D2CF0F90DF91DB
:10412000CF911F910F910895362F90E0FC01E55D2E
:10413000F74F4491FC01E45FF74F2491FC01E351F8
:10414000F84F8491882309F44DC04423C1F150E015
:10415000FA013197EE30F10590F5E055FF4F0C94E0
:104160002E37909180009F7703C0909180009F7DB3
:104170009093800024C094B59F7702C094B59F7D32
:1041800094BD1DC0909190009F7707C090919000C2
:104190009F7D03C090919000977F909390000FC0F7
:1041A0009091C0009F7703C09091C0009F7D909335
:1041B000C00005C09091C200977F9093C200E82F85
:1041C000F0E0EE0FFF1FE152F84FA591B4918FB7C9
:1041D000F894EC91311103C020952E2301C02E2BB1
:1041E0002C938FBF0895CF93DF9390E0FC01E45FA1
:1041F000F74F2491FC01E351F84F8491882361F13A
:1042000090E0880F991FFC01EF52F84FC591D491AF
:10421000FC01E152F84FA591B491611109C09FB71B
:10422000F8948881209582238883EC912E230BC0FB
:10423000623061F49FB7F8943881822F8095832390
:104240008883EC912E2B2C939FBF06C08FB7F894D8
:10425000E8812E2B28838FBFDF91CF910895823183
:1042600008F08251E82FF0E0EB53F84FE491809191
:104270007B00E3FB222720F930E095E0220F331F7B
:104280009A95E1F78F7D282B20937B00E770E064FF
:10429000E0937C0080917A00806480937A00809122
:1042A0007A0086FDFCCF809178002091790090E023
:1042B000922B08953FB7F89480912504909126049D
:1042C000A0912704B091280426B5A89B05C02F3FD4
:1042D00019F00196A11DB11D3FBFBA2FA92F982F2C
:1042E0008827820F911DA11DB11DBC01CD0142E0A7
:1042F000660F771F881F991F4A95D1F70895CF92AF
:10430000DF92EF92FF92CF93DF936B017C010E94CB
:104310005A21EB01C114D104E104F10479F00E94A7
:104320005A216C1B7D0B683E7340A0F381E0C81AD4
:10433000D108E108F108C851DC4FECCFDF91CF91F3
:10434000FF90EF90DF90CF9008952FB7F894609191
:1043500021047091220480912304909124042FBFA2
:1043600008951F920F920FB60F9211242F933F932F
:104370008F939F93AF93BF938091210490912204D8
:10438000A0912304B09124043091200423E0230F52
:104390002D3720F40196A11DB11D05C026E8230F7D
:1043A0000296A11DB11D20932004809321049093B7
:1043B0002204A0932304B0932404809125049091B7
:1043C0002604A0912704B09128040196A11DB11DD7
:1043D0008093250490932604A0932704B093280487
:1043E000BF91AF919F918F913F912F910F900FBEF1
:1043F0000F901F9018951F920F920FB60F921124D5
:104400002F933F934F935F936F937F938F939F93DC
:10441000AF93BF93EF93FF938091B900887F80366D
:1044200009F49CC068F5883209F45BC090F48031CF
:1044300009F454C038F4882309F4F6C0883009F42C
:104440004DC0F6C0883109F44CC0803209F45DC01B
:10445000EFC0803409F468C048F4803309F455C0D3
:10446000883309F0E5C08093BF04D8C0803509F4D3
:104470004FC0883509F45DC0883409F0D9C0D6C072
:10448000883909F4C7C0A8F4883709F467C038F43C
:10449000883609F463C0803709F460C0C9C0883821
:1044A00009F4B8C0803909F45FC0803809F0C0C091
:1044B0005BC0803B09F486C038F4803A09F466C0DA
:1044C000883A09F47FC0B4C0803C09F4A7C0883C96
:1044D00009F4A4C0883B09F48AC0AAC08091BC0436
:1044E00010C09091BE048091BD04981770F5E091C2
:1044F000BE0481E08E0F8093BE04F0E0E556FB4FD2
:1045000080818093BB0085EC86C08093BF048EC001
:10451000E091BE0481E08E0F8093BE048091BB00C9
:10452000F0E0E556FB4F80839091BE048091BD047E
:104530006EC0E091BE0481E08E0F8093BE04809136
:10454000BB00F0E0E556FB4F80838091C0048111F1
:104550006DC081E08093BB0484EA61C083E08093F6
:10456000C10410921F04CFCF80911F04803208F045
:1045700051C0E0911F0481E08E0F80931F04809151
:10458000BB00F0E0E150FC4F8083BDCF85EC809311
:10459000BC001092C10480911F04803230F4E0917D
:1045A0001F04F0E0E150FC4F108260911F0470E0A6
:1045B000E091FD03F091FE038FEF93E009951092D7
:1045C0001F0436C084E08093C1041092FC03109253
:1045D000FB03E091F903F091FA0309958091FB0345
:1045E000811105C081E08093FB031092D903E09113
:1045F000FC0381E08E0F8093FC03F0E0E752FC4F58
:1046000080818093BB009091FC038091FB039817FD
:1046100008F479CF85E88093BC000AC085EC8093CC
:10462000BC001092C10404C01092BF040E94751F08
:10463000FF91EF91BF91AF919F918F917F916F917A
:104640005F914F913F912F910F900FBE0F901F9050
:1046500018959091950589B18C70892B90E09C01FB
:10466000359527953595279520939505409191058A
:10467000509192056091930570919405FC01ED5A5B
:10468000FE4F8081082E000C990BAA0BBB0B840FE8
:10469000951FA61FB71F8093910590939205A09335
:1046A0009305B0939405809190050895E091C3041B
:1046B000F091C4040190F081E02D682F83EC94E028
:1046C0000994CF93DF938DE00E945623EC018AE09A
:1046D0000E9456238C0F9D1FDF91CF910895009764
:1046E00069F0FC0101900020E9F73197AF01481B08
:1046F000590BBC0183EC94E00C94FB1E80E090E02D
:1047000008958F929F92AF92BF92EF92FF920F9374
:104710001F93CF93DF93CDB7DEB7A1970FB6F89471
:10472000DEBF0FBECDBF162F042F19A2423008F4F2
:104730000AE07E0121E2E20EF11C802E912CA12CD8
:10474000B12C612FA50194010E940B34029F101916
:10475000112481E0E81AF1081A3014F4105D01C048
:10476000195CF7011083122F732FCA01232B242BFE
:10477000252B39F7C7010E946F23A1960FB6F89435
:10478000DEBF0FBECDBFDF91CF911F910F91FF9084
:10479000EF90BF90AF909F908F900895CF92DF924F
:1047A000EF92FF92CF93DF9397FF19C06B017C01CB
:1047B0008DE20E945623EC0166277727CB016C1906
:1047C0007D098E099F094AE00E9481238C0F9D1F5D
:1047D000DF91CF91FF90EF90DF90CF9008954AE066
:1047E000DF91CF91FF90EF90DF90CF900C948123D9
:1047F000CF93DF93BC01990F880B990B0E94CE23B6
:10480000EC010E9461238C0F9D1FDF91CF910895D1
:104810009091C1049111FCCF91E09093C1049093C9
:10482000C0042FEF2093BF041092BE04260F2093E4
:10483000BD049093BC049091BC04880F892B809395
:10484000BC048091BB04813061F41092BB04809160
:10485000BC048093BB008091BC0083FDF8CF85EC45
:1048600001C085EE8093BC008091C1048130E1F3EA
:104870008091BE04861710F46091BE04ABE9B4E0E9
:104880002BE734E0F9018E2F821B861718F48D91E7
:104890008193F9CF862F0895CF93DF931092E1048F
:1048A0001092E0049091DD0421E020937A0490932B
:1048B00079041092780410927704A091E204B091E8
:1048C000E304ED91FC9111970190F081E02D682FA8
:1048D000CD01099561E08091E2049091E3040E948A
:1048E0000D1B882319F08AE99FEF0DC062E08091CB
:1048F000DD040E94082410927604809375048230AF
:1049000049F089E99FEF9093E1048093E00480E00F
:1049100090E01BC08091E2049091E304DC01ED91F2
:10492000FC910680F781E02D0995D82FB0E0CB2FC0
:104930008091E2049091E304DC01ED91FC9106800A
:10494000F781E02D09958C0F9D1FDF91CF91089580
:10495000CF92DF92EF92FF926B017C018CE00E947C
:104960004C24EDEDF4E09F70948B838B6785708908
:1049700081899289C786D08AE18AF28AFF90EF9076
:10498000DF90CF9008954F925F926F927F928F92B7
:104990009F92AF92BF92CF92DF92EF92FF92CF930E
:1049A000DF93F894C0909105D0909205E090930524
:1049B000F0909405789460917304709174048091E0
:1049C000710490917204681B790B769567957695C2
:1049D000679580E090E00E94831B68EC70E080E0C7
:1049E00090E00E947F2146015701C8EED3E060911C
:1049F0007304709174048091710490917204681B27
:104A0000790B769567957695679580E090E00E94A2
:104A1000831B68EC70E080E090E00E947F21F894B6
:104A20004090910550909205609093057090940588
:104A3000789484149504A604B70421F021975301B7
:104A40004201A9F660916D0470916E0480916F042B
:104A5000909170040E94A82460E070E0CB010E9455
:104A6000831BC414D504E604F70411F482E001C0EA
:104A700081E08093FE0481E090E0DF91CF91FF9090
:104A8000EF90DF90CF90BF90AF909F908F907F90EE
:104A90006F905F904F900C94F8230F931F930E9498
:104AA000A5216093CB047093CC048093CD049093A4
:104AB000CE04E091C304F091C4040084F185E02D9C
:104AC00083EC94E0099597FF1FC00E94A5210091F7
:104AD000CB041091CC042091CD043091CE04DC01A4
:104AE000CB01801B910BA20BB30B0091C70410915B
:104AF000C8042091C9043091CA0480179107A20705
:104B0000B307B8F28FEF9FEF1F910F9108950C94A8
:104B10006F23FF920F931F93CF93DF9300D000D0AA
:104B2000CDB7DEB70E944D25FC0197FD11C08D3237
:104B3000910591F0C0970A9778F0E091C304F09145
:104B4000C4040680F781E02D83EC94E00995EACF58
:104B500060E070E0CB014CC020E030E0A901F12C16
:104B6000E130F105F1F0ED32F105C9F0CF01C09768
:104B70000A97B8F4AAE0B0E00E94F8338F01FF0F63
:104B8000220B330BDC01CB01800F911FA21FB31F3F
:104B90009C01AD01205331094109510902C0FF2494
:104BA000F394E091C304F091C4040680F781E02DF2
:104BB00083EC94E029833A834B835C8309950E94BC
:104BC0004D25FC01C09729813A814B815C810A9770
:104BD00038F2E130F10521F2FF2041F06627772716
:104BE000CB01621B730B840B950B02C0CA01B90188
:104BF0000F900F900F900F90DF91CF911F910F9119
:104C0000FF9008958F929F92AF92BF92CF92DF92C2
:104C1000EF92FF920F931F938EE00E944C242091FD
:104C2000E0043091E1044091EC045091ED04609176
:104C3000EE047091EF04232B21F0342F252FCB01AC
:104C40004FC09F702091F0043091F1044901032E70
:104C5000000CAA08BB086C01092E000CEE08FF0826
:104C60002130E8E03E075CF0F901F8508E179F070D
:104C700034F4505F6F4F7F4F8A019B010EC081302B
:104C8000E8E09E078CF0FC01F8502E173F0764F413
:104C90008A019B01105121093109081919092A09B2
:104CA0003B09B901A80104C0481959096A097B09DF
:104CB0004C0D5D1D6E1D7F1D4093EC045093ED0463
:104CC0006093EE047093EF049093F1048093F004EA
:104CD0003091EC042091ED048091EE049091EF046A
:104CE000632F722F1F910F91FF90EF90DF90CF9065
:104CF000BF90AF909F908F900895CF93DF93CDB7E3
:104D0000DEB76F970FB6F894DEBF0FBECDBF7894B5
:104D100084B5826084BD84B5816084BD85B58260C0
:104D200085BD85B5816085BD80916E008160809371
:104D30006E001092810080918100826080938100DA
:104D400080918100816080938100809180008160EA
:104D50008093800080919100826080939100809187
:104D60009100816080939100809190008160809398
:104D700090008091C10084608093C1008091C10047
:104D800082608093C1008091C10081608093C100E6
:104D90008091C30081608093C3008091C0008260D5
:104DA0008093C0008091C20081608093C200809196
:104DB0007A00846080937A0080917A008260809388
:104DC0007A0080917A00816080937A0080917A00E5
:104DD000806880937A001092A40181E08093D700CC
:104DE00080EA8093D80082E189BD09B400FEFDCF3E
:104DF00061E070E080E090E00E947F2180E9809394
:104E0000D8008CE08093E2001092E0000E945A21CA
:104E10006093EB017093EC018093ED019093EE01B0
:104E20001092B8011092DE011092DD011092E301A0
:104E30001092E4011092E5011092E6011092DC015B
:104E40001092DB011092E7011092E8011092E90143
:104E50001092EA0142E0BE01615F7F4F80E090E086
:104E60000E946F098F859889813F910509F40AC1D5
:104E700081EF90E09E878D8742E0BE01635F7F4FA8
:104E800080E090E00E94400919821A821B821C82F5
:104E900044E0BE016F5F7F4F82E090E00E944009D6
:104EA00088E394E09E878D8742E0BE01635F7F4F79
:104EB00086E090E00E94400984E6898B41E0BE01D3
:104EC0006F5E7F4F88E090E00E94400941E0BE01A4
:104ED0006F5E7F4F8BE090E00E94400941E0BE0191
:104EE0006F5E7F4F8CE090E00E94400941E0BE0180
:104EF0006F5E7F4F80E190E00E94400941E0BE017B
:104F00006F5E7F4F8DE090E00E94400982E3898BC5
:104F100041E0BE016F5E7F4F89E090E00E94400952
:104F200041E0BE016F5E7F4F8AE090E00E94400941
:104F300041E0BE016F5E7F4F8EE090E00E9440092D
:104F400086E4898B41E0BE016F5E7F4F8FE090E089
:104F50000E9440091E861D8642E0BE01635F7F4FAE
:104F600081E190E00E94400984EF91E09E878D8767
:104F700042E0BE01635F7F4F83E190E00E94400901
:104F80008FEF9FE09E878D8742E0BE01635F7F4F7A
:104F900085E190E00E94400980E890E09E878D873F
:104FA00042E0BE01635F7F4F87E190E00E944009CD
:104FB00081E0898B41E0BE016F5E7F4F88E190E028
:104FC0000E94400980E090E1A0E0B0E089839A83EC
:104FD000AB83BC8344E0BE016F5F7F4F89E190E00B
:104FE0000E94400989E0898B41E0BE016F5E7F4FDE
:104FF0008DE190E00E9440091E861D8642E0BE01C0
:10500000635F7F4F8AE290E00E94400942E0BE0168
:10501000635F7F4F8EE290E00E94400942E0BE0154
:10502000635F7F4F82E390E00E94400942E0BE014F
:10503000635F7F4F86E390E00E9440098FEF93E02B
:105040009E878D8742E0BE01635F7F4F8CE290E0D8
:105050000E94400942E0BE01635F7F4F80E390E021
:105060000E94400942E0BE01635F7F4F84E390E00D
:105070000E94400942E0BE01635F7F4F88E390E0F9
:105080000E94400942E063EB71E086E090E00E94FC
:105090006F0944E06EEA71E089E190E00E946F09D7
:1050A00041E063E172E088E090E00E946F0941E036
:1050B0006BE172E089E090E00E946F0941E069E1F4
:1050C00072E08AE090E00E946F0941E062E272E0E3
:1050D0008BE090E00E946F0941E061E272E08CE0B9
:1050E00090E00E946F0941E06CE172E08DE090E099
:1050F0000E946F0941E06AE172E08EE090E00E9458
:105100006F0941E06BEA73E08FE090E00E946F0965
:1051100041E064E172E080E190E00E946F0941E0CB
:1051200062EB71E087E190E00E946F0941E06CEA78
:1051300073E088E190E00E946F0942E061E774E06B
:1051400081E190E00E946F0942E063E774E083E14F
:1051500090E00E946F0942E06DEB71E085E190E024
:105160000E946F0941E06DEA71E08DE190E00E94DC
:105170006F0942E063ED71E08AE290E00E946F09FE
:1051800042E067ED71E08CE290E00E946F0942E03E
:1051900067EC71E08EE290E00E946F0942E069ECFA
:1051A00071E080E390E00E946F0942E06FEC71E0F3
:1051B00082E390E00E946F0942E061ED71E084E3D8
:1051C00090E00E946F0942E06BEC71E086E390E0B2
:1051D0000E946F0942E06DEC71E088E390E00E946C
:1051E0006F096091AE017091AF018091B001909113
:1051F000B1010E94583520E030E044EB53E40E94B6
:10520000AE346B017C018091B3019091B401BC017B
:10521000990F880B990B0E9458359B01AC01C7016F
:10522000B6010E940D360E94203560936D04709384
:105230006E0480936F0490937004DC01CB01B595EC
:10524000A7959795879580931D0290931E02A09332
:105250001F02B093200260E082E10E94F32060E030
:1052600083E10E94F32060E084E10E94F32060E08B
:1052700085E10E94F3206E9A60E086E00E94F320B0
:10528000249A1092BB011092BA011092BF011092A1
:10529000C0011092C1011092C2011092B901109286
:1052A000BC0188E191E09093A6018093A50183EF72
:1052B00094E090938D0580938C058CEE9CE0909308
:1052C0008F0580938E05279AF090AD018F2D0E9457
:1052D00098098C019093A8018093A701909374047E
:1052E00080937304609171047091720480E090E087
:1052F0000E9456354B015C01B80180E090E00E94AD
:1053000056359B01AC01C501B4010E94AE346093D7
:10531000A9017093AA018093AB019093AC011F2D5A
:105320001170F0FC05C020E030E04AEF54E404C006
:1053300020E030E04AE754E46091080170910901EF
:1053400080910A0190910B010E940D366093080133
:105350007093090180930A0190930B01111105C00C
:1053600020E030E04AEF54E404C020E030E04AE7B7
:1053700054E46091040170910501809106019091BF
:1053800007010E940D36609304017093050180931C
:10539000060190930701111105C020E030E04AEFAB
:1053A00054E404C020E030E04AE754E46091000196
:1053B0007091010180910201909103010E940D36CC
:1053C00060930001709301018093020190930301A7
:1053D000109280001092810010926F0016BA809196
:1053E000A7019091A8019093870080938600109266
:1053F00089001092880010928B0010928A00809190
:10540000AD018274823421F480918100826003C0F6
:10541000809181008160809381008091AD0180FF47
:1054200004C080918100806108C08091800082600A
:10543000809380008091810088618093810080E06A
:1054400090E00E94761B80918000806880938000AD
:10545000259A80E090E00E94691B80918000806224
:1054600080938000269A61E08DE00E94F32013E093
:1054700061E08DE00E94942064E170E080E090E0C3
:105480000E947F2160E08DE00E94942064E170E042
:1054900080E090E00E947F21115051F760E070E0C1
:1054A000CB010E94831B1092D6011092D5018FEF81
:1054B00097E09093B7018093B6018091B2018093F9
:1054C000B50110927604109275041092780410922F
:1054D00077041092C10411E01093C0041092BB0431
:1054E00061E082E00E94942061E083E00E949420C9
:1054F0008091B9008E7F8093B9008091B9008D7F33
:105500008093B90088E48093B80085E48093BC0060
:105510008FEF8093DE041092DF048091DD041093FE
:105520007A0480937904109278041092770461E0F1
:105530008091E2049091E3040E940D1B0E94BF1928
:10554000837E0E940E1A0E94BF198C7F0E940E1A41
:1055500060911D0270911E0280911F0290912002A5
:105560000E94A8240E945A216093F6047093F704C5
:105570008093F8049093F9040091EF011091F001E9
:105580002091F1013091F2014B015C01801A910AE6
:10559000A20AB30A8092F2049092F304A092F40457
:1055A000B092F5040091EB011091EC012091ED0116
:1055B0003091EE015B016C01A01AB10AC20AD30A54
:1055C00040EDA41647E0B406C104D10410F40C94D5
:1055D000F5326093EB017093EC018093ED019093B1
:1055E000EE0192E21092BC012091BA013091BB0110
:1055F0002232310574F01092BB011092BA01109260
:10560000BF011092C0011092C1011092C20110920C
:10561000B9012091BA013091BB01223031056CF4FF
:10562000232B09F42C9A2091BA013091BB0121302F
:10563000310509F051C02C984FC0A9014170552780
:1056400020FD46C029B1221F2227221F2093BC0122
:105650008091B9018032B8F54091BF015091C001ED
:105660006091C1017091C201222389F001E010E034
:1056700020E030E0082E04C0000F111F221F331F4E
:105680000A94D2F7402B512B622B732B14C001E0EC
:1056900010E020E030E0082E04C0000F111F221F90
:1056A000331F0A94D2F7009510952095309540232A
:1056B0005123622373234093BF015093C001609331
:1056C000C1017093C2018F5F8093B901769A04C0C3
:1056D0004130510509F476982091BA013091BB010F
:1056E0002F5F3F4F3093BB012093BA01915009F0D7
:1056F00079CF0E94022600911D0210911E02209176
:105700001F0230912002601B710B820B930B609380
:10571000E7017093E8018093E9019093EA013091E9
:10572000AC0335FB222720F936FD226037FF02C08B
:10573000246013C0213089F42091E3013091E40109
:105740004091E5015091E601AFEFB3E00E94F833DC
:105750002FEF3FEF40E050E01CC0223029F4A09131
:10576000DD01B091DE010DC0233029F4A091DB01F1
:10577000B091DC0106C0243099F4A091D901B09118
:10578000DA012FEF33E00E9434372FEF3FE040E0A3
:1057900050E00E94D933CA01B901725081099109C0
:1057A0000E9400106093DF017093E0018093E1019B
:1057B0009093E2016091E7017091E8018091E90125
:1057C0009091EA010E9458356B017C0160916D0453
:1057D00070916E0480916F04909170040E9458350E
:1057E0009B01AC0160E07FEF8FE797E40E94AE344D
:1057F0009B01AC01C701B6010E940D360E94203505
:105800002B013C01611570488105910534F0442459
:105810004A940FE7502E612C712C411460E8560613
:105820006FEF6606760634F4412C10E8512E66249C
:105830006A94762C4092E7015092E8016092E90167
:105840007092EA016091DF017091E0018091E101C5
:105850009091E2010E94831B82E10E942F214C0162
:1058600084E10E942F219C0185E12E8F3F8F0E94B1
:105870002F216C0183E10E942F211C01A090D501F2
:10588000B090D6018091D3019091D4018A0D9B1DD7
:105890007C0100E010E0EA8AFB8A0C8B1D8BE09013
:1058A000CF01F090D001EA0CFB1C00E010E02E8D3F
:1058B0003F8DC901330FAA0BBB0B9C01AD012E1903
:1058C0003F09400B510BAFEFBFE00E94F83320912E
:1058D000D1013091D2012A193B0940E050E02E1944
:1058E0003F09400B510B0E94D9332E8B3F8B488FC1
:1058F000598F8091CB019091CC018A0D9B1D7C0129
:1059000000E010E0C601DD0CAA0BBB0B9C01AD0151
:105910002E193F09400B510BAFEFBFE00E94F83347
:105920002091CD013091CE012A193B0940E050E091
:105930002E193F09400B510B0E94D9332A8F3B8F00
:105940004C8F5D8FC401990CAA0BBB0B9C01AD0160
:10595000CA88DB88EC88FD882C193D094E095F094F
:10596000AFEFBFE00E94F8332091D7013091D8010A
:105970002A193B0940E050E02C193D094E095F0906
:105980000E94D93369012115304124F0CC24CA94F6
:10599000BFE0DB2ED7FE02C0C12CD12CD092DE019D
:1059A000C092DD010E891F89011520E1120714F054
:1059B0000FEF1FE017FF02C000E010E01093DC01C2
:1059C0000093DB01EA8CFB8CE11430E1F30624F058
:1059D000EE24EA94AFE0FA2EF7FE02C0E12CF12C9F
:1059E000F092DA01E092D9018091C7019091C8014B
:1059F0008A0D9B1DAC0160E070E04A8B5B8B6C8B69
:105A00007D8B9101330C440B550B6A897B898C8902
:105A10009D89261B370B480B590BAFEFBFEF0E9438
:105A2000F8332091C9013091CA012A193B0940E09D
:105A300050E08A889B88AC88BD88281939094A09B2
:105A40005B090E94D9332115310561E046075105F4
:105A500024F02FEF3FEF40E050E057FF03C020E07D
:105A600030E0A9012093E3013093E4014093E50184
:105A70005093E6018090BF019090C001A090C101B9
:105A8000B090C201982D9F70913081F0923081F0DA
:105A9000943081F0983081F0933081F0963081F02D
:105AA000993081F09C3081F060E00FC061E00DC062
:105AB00063E00BC065E009C067E007C062E005C0B5
:105AC00064E003C068E001C066E0D501C401807FE6
:105AD0008A8B9B8BAC8BBD8B862B8093C301909361
