:100000000C940B040C9433040C9433040C94C70824
:100010000C94A3080C9433040C9433040C94330410
:100020000C9433040C9433040C94E60B0C9489095F
:100030000C9433040C9433040C9433040C94330464
:100040000C9433040C9433040C9433040C94330454
:100050000C9433040C9433040C9433040C94611208
:100060000C9433040C9433040C9433040C94330434
:100070000C9433040C9433040C9433040C94330424
:100080000C9433040C9433040C9433040C94330414
:100090000C94AB120C9433040C9433040C9433047E
:1000A0000C9433040C9433040C9433043820CA2089
:1000B000292269211423E0243B2488257C26AD26AF
:1000C000DE265A2717275F2E562C112D632FC82D99
:1000D000D02E222D632F632F632F632F632F632F67
:1000E000632F812C5E2C632F532C4D2C632FAF2B51
:1000F000322CF82D1F2F272FEF2EF72E632FFF2ED8
:10010000E72E632F172F2F2F632F632F0F2F632FB0
:10011000632F632F632F632F072F961199118C1173
:100120009011BA11BA11BA119D11A111A511AB11FB
:10013000AF11BA11B511B414B914BE14C814121504
:1001400012151215D214DC14E614F014FD14121555
:10015000051505A84CCDB2D44EB93836A9020C50BD
:10016000B9918688083CA6AAAA2ABE000000803F52
:1001700000000000000000002A2B28000000000002
:10018000000000000000000000000000000000006F
:100190002C9EB4A0A1A2A434A6A7A5AE362D3738B4
:1001A000271E1F20212223242526B333B62EB7B8BD
:1001B0009F8485868788898A8B8C8D8E8F9091927B
:1001C000939495969798999A9B9C9D2F3130A3ADC7
:1001D000350405060708090A0B0C0D0E0F10111245
:1001E000131415161718191A1B1C1DAFB1B0B50042
:1001F000080B0002020201000904000001020200D3
:100200000005240010010524010101042402060553
:1002100024060001070581031000400904010002C3
:100220000A000000070502024000000705830240A3
:10023000000009040200020300000009210101007E
:100240000122E1040705840340000107050503407E
:10025000000105010904A10185040901A10009307B
:10026000170180FFFF27FF7F0000350047FFFF00D9
:1002700000751095018102093116000027FFFF006B
:1002800000350047FFFF000075109501810209321B
:1002900016000027FF0F0000350047FF0F00007514
:1002A0000C95018102093316000027FF0F0000356D
:1002B0000047FF0F0000750C9501810209341600FC
:1002C0000027FF0F0000350047FF0F0000750C9559
:1002D0000181020939150125083500463B016514E5
:1002E0005500750495018102050915002501550089
:1002F00065001901291875019518810285F1090118
:10030000150026FF00953F7508918285F209019539
:100310003F75088182C0050F0992A1028502099FDD
:1003200009A009A409A509A6150025013500450164
:100330007501950581029503810309941500250136
:100340003500450175019501810209221501252815
:1003500035014528750795018102C00921A1028553
:1003600001092215012528350145287508950191B7
:10037000020925A102092609270930093109320994
:100380003309340940094109420943250B15013558
:1003900001450B750895019100C0095009541500DD
:1003A00027FFFF0000350047FFFF000066011055E2
:1003B000FD75109502910255006600000952150066
:1003C00026FF7F350046FF7F751095019102095386
:1003D0001501250835014508750895019102095553
:1003E000A1020501093009311500250175019502A9
:1003F0009102C0050F0956950191029505910309D7
:1004000057A1020B01000A000B02000A006614004B
:1004100055FE150026FF7F3500479F8C00007510A4
:10042000950191025500660000C0050F09A76601FD
:100430001055FD150027FFFF0000350047FFFF00A6
:10044000007510950191026600005500C0050F0966
:100450005AA1028502092215012528350145287572
:100460000895019102095B095D150026FF00350022
:1004700046FF7F750895029102095C095E660110CE
:1004800055FD26FF7F46FF7F75109502910266009D
:10049000005500C0095FA102850309221501252826
:1004A000350145287508950191020923150025019C
:1004B000350045017504950191020958A1020B010F
:1004C000000A000B02000A00750295029102C009A1
:1004D0006016008026FF7F36008046FF7F751095EE
:1004E000019102096136008046FF7F950191021556
:1004F0000026FF7F350046FF7F0963751095019147
:10050000020965150026FF0046FF7F7508950191D9
:1005100002C0096EA10285040922150125283501B2
:1005200045287508950191020970150026FF7F3551
:100530000046FF7F751095019102096F1600802615
:10054000FF7F36008046FF7F9501910209711500FB
:1005500026FF0035004667016614005500750895B2
:10056000019102097227FFFF000047FFFF000066AC
:10057000011055FD7510950191026600005500C0EF
:100580000973A10285050922150125283501452891
:10059000750895019102097016018026FF7F3601CA
:1005A0008046FF7F751095019102C00974A10285F4
:1005B0000609221501252835014528750895019160
:1005C00002097509761581257F36018046FF7F7502
:1005D0000895029102C0050F0977A102850A092238
:1005E00015012528350145287508950191020978DE
:1005F000A1020979097A097B15012503750895017E
:100600009100C0097C150026FF00350046FF0091CF
:1006100002C00990A102850B092215012528350188
:100620004528750895019102C00996A102850C091B
:100630009709980999099A099B099C15012506753E
:100640000895019100C0097DA102850D097E150064
:1006500026FF003500461027750895019102C00954
:10066000ABA10285050925A1020926092709300940
:100670003109320933093409400941094209431556
:1006800001250B3501450B75089501B100C0050129
:10069000093B150026FF01350046FF01750A95014B
:1006A000B1027506B101C0050F0989A102850609CD
:1006B00022252815013501452875089501B1020943
:1006C0008BA102098C098D098E2503150135014581
:1006D0000375089501B100C009AC150027FFFF00A4
:1006E00000350047FFFF000075109501B100C009FB
:1006F0007FA1028507098075109501150027FFFF6E
:100700000000350047FFFF0000B102098326FF000B
:1007100046FF0075089501B10209A909AA7501955E
:10072000021500250135004501B10275069501B19C
:1007300003C0C01803410072006400750069006EB8
:10074000006F0020004C004C004300040309042209
:1007500003410072006400750069006E006F0020A4
:10076000004C0065006F006E006100720064006F55
:100770000012010002000000404123368000010108
:1007800002000112010002020000404123368000F5
:10079000010102000100C18081C1C00000000024ED
:1007A0000027002A002D003000000000002500284E
:1007B000002B002E0031000404040404030405028D
:1007C00002020204030202020206060606060604EC
:1007D00004020202040404080201104080401020B8
:1007E00040804080080204018040201002011080F7
:1007F00010204040200000000200080E000003040A
:1008000001000B00000000000000000000000000DC
:1008100000000000802F11241FBECFEFDAE0DEBF02
:10082000CDBF11E0A0E0B1E0E0ECFBE602C0059036
:100830000D92AE39B107D9F725E0AEE9B1E001C0BC
:100840001D92A338B207E1F714E0CBE0D4E004C076
:100850002197FE010E948E33CA30D107C9F70E944A
:10086000701A0C94DE350C940000FC018281938197
:10087000FB01978B868B0895DC01FB0112968D910D
:100880009C911397978B868B14968D919C911597BD
:10089000938F828F16968C911697848F17968D91D1
:1008A0009C911897938782870895DC01FB01159628
:1008B0008D919C911697978B868B13968D919C9119
:1008C0001497938F828F19968C911997848317961A
:1008D0008D919C911897918F808F0895DC01FB0179
:1008E00012968C911297828313968C91139783831F
:1008F00014968D919C911597938B828B16968D9162
:100900009C911797918B808B08959DE1899FF001B1
:100910001124EF51FE4F77876687558B448B94E007
:10092000899FF0011124EF54FE4F10821182128230
:1009300013820895089508951092670524E0829F18
:10094000C0011124FC01EF54FE4F1082118212826B
:100950001382089525E0FC0120838AE491E0089544
:1009600008958093670508958C30F8F4282F30E0BF
:100970009DE1899FF0011124EF51FE4F9081992351
:10098000A1F090819D7F9083F901E957FC4F9581FB
:1009900091110BC0E0919F01F091A0010084F185BD
:1009A000E02D09951092970308950895FC01CB015D
:1009B0002091E80022FFFCCF282F215028F0309111
:1009C000F10030833196F9CF24E620937B032BEF9F
:1009D0002093E80008950F931F93CF93DF93DB01DB
:1009E000A40FB51FFB016EEFEA17FB0791F187FF1C
:1009F00002C0249101C0208100917F0310918003E7
:100A0000C0917D03D0917E030C171D07B4F4909123
:100A1000E8009570E1F39091E80092FD1CC02093EE
:100A2000F10020917F03309180032F5F3F4F2F73A0
:100A30003327232B11F46093E80020917F0330913A
:100A400080032F5F3F4F3093800320937F033196C5
:100A5000CBCFCA0102C08FEF9FEFDF91CF911F91E3
:100A60000F910895CF93DF9300D000D01F92CDB7A0
:100A7000DEB7FC0181819081913A29F5813009F03E
:100A8000BCC08281863051F445E050E062E873E0FA
:100A900080E40E94EB0410928203AFC0873009F01B
:100AA000ACC089838FEF9FEF9B838A838BE08C831D
:100AB00083E08D8345E050E0BE016F5F7F4F80E4AF
:100AC0000E94EB049AC0913209F097C0893009F076
:100AD00094C08281853009F090C064E070E0CE015E
:100AE00001960E94D60486E08093820380910B01D8
:100AF0008B3021F1A0910B0181E08A0F80930B01D3
:100B00009DE1E0910B019E9FF0011124EF51FE4FFA
:100B10008081882351F080910B018B3030F48091DB
:100B20000B018F5F80930B01ECCF8DE1A89FF0014B
:100B30001124EF51FE4F81E0808301C0A0E0A0931B
:100B40008303A11104C082E08093840350C01092FB
:100B5000670581E0809384038A819DE1A99FD0018C
:100B60001124AF51BE4F11968C9311978FEF9FEFC9
:100B70001F969C938E931E9753961C921E9252978B
:100B800051961C921E92509712968C931297139620
:100B90008C93139755961C921E9254971D961C92F7
:100BA0001E921C9715961C9215978FEF9FE719962A
:100BB0009C938E93189757961C921E9256975B960D
:100BC0001C921E925A975C961C925C9788EE93E05A
:100BD0001B969C938E931A97E0919F01F091A00130
:100BE0000684F785E02DBD01CE01019609958FEFB2
:100BF0009FEF909386038093850381E00F900F9081
:100C00000F900F900F90DF91CF91089542E450E044
:100C100060EF71E080E80E94EB0440E250E062E3A4
:100C200072E080E80E94EB0483E090E00895EF9288
:100C3000FF921F93CF93DF93EC01162FE881F98188
:100C40000480F581E02D09957C01E881F981068019
:100C5000F781E02D612FCE010995C7019927DF911A
:100C6000CF911F91FF90EF900895FC0191818081B9
:100C7000813A29F49D7F81E0913091F414C0813252
:100C800079F49A3049F09B3019F0993049F40AC050
:100C9000828180930A0106C082818093090102C08B
:100CA00080E0089581E008958C30F0F49DE1899F03
:100CB000F0011124EF51FE4F80818823A9F080813B
:100CC000826080838091970381110EC00E9455122B
:100CD0006093AB017093AC018093AD019093AE0132
:100CE00081E080939703089508956091A101709128
:100CF000A20180E090E00E94B6319B01AC0160E06F
:100D00007EEF8FEF96E40E940E3108952F923F926E
:100D10004F925F926F927F928F929F92AF92BF920B
:100D2000CF92DF92EF92FF920F931F93CF93DF93B7
:100D3000CDB7DEB729970FB6F894DEBF0FBECDBF93
:100D4000998788874B012B831D830C831701DF82D2
:100D5000CE82042F10E08C819D816C01E12CF12C5E
:100D6000E885F985F7FD2BC0C8019695982F88274F
:100D700097958795BF01681B790B072E000C880B90
:100D8000990B0E94B8312B013C01C701B6010E94AA
:100D9000B6319B01AC01C301B2010E940E312B019F
:100DA0003C01C8019695982F8827979587959A8337
:100DB0008983EB8190E8E99FB00111242AC0B80132
:100DC0007695762F662777956795E885F9856E0F76
:100DD0007F1F072E000C880B990B0E94B8312B0146
:100DE0003C01C701B6010E94B6319B01AC01C301B1
:100DF000B2010E940E312B013C0160E86003C0018A
:100E0000619F900D11249A8389832B816203B00125
:100E1000112488859985681B790B072E000C880B97
:100E2000990B0E94B8316B017C01B10180E090E028
:100E30000E94B6319B01AC01C701B6010E940E3180
:100E40006B017C018A149B0408F43FC08E819F8152
:100E50008A0D9B1D88169906C0F50C811D810A0D0F
:100E60001B1D8016910690F4B4016A197B0980E07D
:100E700090E00E94B6319B01AC01C301B2010E9417
:100E80006D320E94803189819A811CC08219930938
:100E900088159905E8F48A189B08EE81FF818E1A5F
:100EA0009F0AB401620D731D80E090E00E94B6318C
:100EB0009B01AC01C701B6010E946D320E948031D6
:100EC00088859985860F971F05C080E090E002C055
:100ED0008885998529960FB6F894DEBF0FBECDBFE1
:100EE000DF91CF911F910F91FF90EF90DF90CF9006
:100EF000BF90AF909F908F907F906F905F904F903A
:100F00003F902F900895CF92DF92EF92FF920F9330
:100F10001F938B019C014091AB045091AC04882736
:100F20009927841B950BBC01990F880B990B061709
:100F30001707280739076CF06A01550FEE08FF08FC
:100F4000C901B801C016D106E206F30614F4C701C0
:100F5000B6011F910F91FF90EF90DF90CF90089511
:100F60008F929F92AF92BF92CF92DF92EF92FF92B9
:100F70004B015C0157FF02C04D5F5F4F6A01D59482
:100F8000C794D594C79420E030E040E85FE3C50102
:100F9000B4010E9468320D2C000CEE08FF081816F0
:100FA0001CF4C701B6011CC020E030E040E85FEB54
:100FB000C501B4010E94093187FF06C0C701B6010F
:100FC0000E948307CB0112C0C701B6010E94B8314D
:100FD0009B01AC01C501B4010E946D320E948031B9
:100FE0000E94830788279927861B970BFF90EF9015
:100FF000DF90CF90BF90AF909F908F9008958F9289
:101000009F92AF92BF92CF92DF92EF92FF924B01ED
:101010005C01BA01550F880B990B0E94B8316B0126
:101020007C0120E030E0A901C501B4010E946832D2
:10103000A501940118160CF05058C701B6010E9482
:101040006D3220E030E040E851E40E946D3220E053
:1010500030E040E05DE30E946D320E9480310E94EA
:1010600083076B017C0120E030E0A901C501B401D8
:101070000E94683218162CF4882799278C199D092C
:101080000DC020E030E0A901C501B4010E94093182
:1010900087FF02C0C60102C080E090E0FF90EF90A1
:1010A000DF90CF90BF90AF909F908F900895CF9298
:1010B000DF92EF92FF92CF93DF936B017C01EA0105
:1010C00020E030E0A9010E946832181694F020E078
:1010D00030E0A901C701B6010E94093187FF2AC08B
:1010E00020E030E0A901C701B6010E949D306B01EC
:1010F0007C01BE01DD0F880B990B0E94B8319B016A
:10110000AC01C701B6010E946D3220E030E040E83A
:1011100051E40E946D3220E030E040E05BE30E9449
:101120006D320E9480310E94830788279927861B91
:10113000970B02C080E090E0DF91CF91FF90EF909D
:10114000DF90CF9008951F920F920FB60F92112447
:101150002F933F934F935F936F937F938F939F93BF
:10116000AF93BF93EF93FF930E94C917FF91EF9145
:10117000BF91AF919F918F917F916F915F914F91AF
:101180003F912F910F900FBE0F901F9018951F92B7
:101190000F920FB60F9211242F933F934F935F93AB
:1011A0006F937F938F939F93AF93BF93EF93FF932F
:1011B0000E94C917FF91EF91BF91AF919F918F91BD
:1011C0007F916F915F914F913F912F910F900FBE43
:1011D0000F901F901895CF92DF92EF92FF920F938E
:1011E0001F93CF93DF931F92CDB7DEB7F82EE42E77
:1011F0008B01C82ED92E8C2D8F198E1588F4F801ED
:1012000061918F01C60169830E942330698168174B
:1012100019F0C6010E942B30FFEFCF1ADF0AEBCF87
:101220000F90DF91CF911F910F91FF90EF90DF9082
:10123000CF900895CF92DF92EF92FF920F931F937A
:10124000CF93DF931F92CDB7DEB78B016B017C018B
:10125000E61AF70A9C2D901B941758F4C7018C0DC1
:101260009D1D49830E942330F60181936F014981BE
:10127000F1CF0F90DF91CF911F910F91FF90EF90E1
:10128000DF90CF9008958F929F92AF92BF92CF92AE
:10129000DF92EF92FF9240E050E020E0682F70E094
:1012A000812C912C54018394FA013296DB0102C007
:1012B000B595A795EA95E2F775016401042E04C07F
:1012C000CC0CDD1CEE1CFF1C0A94D2F7A0FF02C060
:1012D0002C2902C0C0942C214F5F5F4F4430510530
:1012E00019F730E0220F331FF901EA5CFE4F80FF4F
:1012F00005C0808191819695879502C080819181FA
:10130000FF90EF90DF90CF90BF90AF909F908F9025
:1013100008951F920F920FB60F921124EF92FF9231
:101320001F932F933F934F935F936F937F938F936D
:101330009F93AF93BF93EF93FF93CF93DF93CDB77B
:10134000DEB76197DEBFCDBF1092E9008091E80063
:1013500083FF59C1FE013A96CF0128E02E0F2E17C8
:1013600029F03091F10030833196F9CF24E62093B3
:101370007B0322EF2093E8002A8527FF05C03091E8
:10138000E80030FFFCCF03C03EEF3093E800322F7F
:10139000307609F0C5C08B85811105C01092F1002F
:1013A0001092F10029C1982F9D7F913009F424C13A
:1013B000853049F48091E80080FFFCCF8C858068FF
:1013C0008093E30019C1863009F07CC01D85E88850
:1013D000F9881092E9001092800310927F03123076
:1013E00091F510927E0310927D030E94060699E00B
:1013F000BE016F5F7F4FFB01292F11922A95E9F7FC
:1014000099831A8391E09E8390E898879AEF998751
:1014100020917F0330918003275F3F4F3C832B83D4
:101420008D831092E9001092800310927F03F09256
:101430007E03E0927D0349E050E080E00E94EB04EF
:101440000E940606D9C0F0927E03E0927D0312321C
:1014500059F441EE54E062E572E080E80E94EB044A
:10146000892B09F0C9C0CCC0113069F488899989E9
:10147000089711F410937C0380917C03811111C0B3
:1014800061E777E016C0133009F0BAC08C85882375
:1014900059F0823061F0813009F0B2C063E377E047
:1014A00008C063E877E005C06BE477E002C06FE452
:1014B00077E06115710509F4A3C0FB01449150E088
:1014C00080E849C0873009F49BC0883021F481E06E
:1014D0008093F10091C0893009F08EC0237009F02B
:1014E0008FC080E090E031E026E341E0480F409378
:1014F000E9003093EB000196FC01EB56F84FE491C4
:10150000E093EC002093ED008530910571F78EE7B4
:101510008093EA001092EA008C8580939E016CC053
:10152000288939891092E9001092800310927F0374
:1015300030937E0320937D032E85211154C08B852B
:101540009A85913A59F4813209F05AC047E050E047
:101550006CE071E080E00E94EB044EC0913209F033
:101560004FC0803239F467E070E08CE091E00E9477
:10157000D60442C0823209F043C08C8580931301A7
:1015800080910C0190910D01A0910E01B0910F017D
:10159000803B9440A105B10579F58091130180FD50
:1015A00011C087E797E790930108809300089BE0BC
:1015B00088E10FB6F894A895809360000FBE9093D1
:1015C00060001AC00FB6F894A895809160008861F9
:1015D00080936000109260000FBEA89510920108E1
:1015E0001092000809C0223059F4E0916D05F09185
:1015F0006E050995882321F08EEF8093E80003C0E3
:1016000081E28093EB0061960FB6F894DEBF0FBEC7
:10161000CDBFDF91CF91FF91EF91BF91AF919F919E
:101620008F917F916F915F914F913F912F911F917A
:10163000FF90EF900F900FBE0F901F9018958F9214
:101640009F92AF92BF92CF92DF92EF92FF920F9351
:101650001F93CF93DF9300D01F92CDB7DEB7382F03
:101660008B0180919E01882389F04A018AEFF82E30
:10167000832F8770E82E90E4C92E832F8072B82EB6
:101680002AE3D22E832F8074A82E21C08FEF9FEFE4
:101690005FC08FB7F894E092E9009091E80095FF61
:1016A0001AC09091F2002C2D291B8FBF211115C05B
:1016B000FA94FF2059F361E070E080E090E0398314
:1016C0004A835B830E942F1239814A815B81811496
:1016D0009104F9F634C020E0E8CF822F90E088161C
:1016E00099060CF4282D822F90E0881A990A6FB77A
:1016F000F894E092E900BB2029F02150A8F0109264
:10170000F100FBCFF80137FF07C0215058F074916A
:101710007093F1003196F9CF215020F071917093C0
:10172000F100FACF080F191F8091E80085FF0DC066
:101730008114910411F4A11008C06FBFC8CF5D9847
:1017400084E680938103CA0103C0D092E800F5CFFC
:101750000F900F900F90DF91CF911F910F91FF90FD
:10176000EF90DF90CF90BF90AF909F908F900895B3
:1017700090919E01992311F057FF03C08FEF9FEFC7
:1017800008952FB7F89487708093E9008091F20054
:1017900090E0841795070CF4AC01842FFB0194E6CC
:1017A000815030F090937B033091F1003193F8CF6A
:1017B0004115510521F08091F200882319F02FBFC7
:1017C000CA0108958BE68093E800F9CF1F920F922B
:1017D0000FB60F9211242F933F934F935F936F9304
:1017E0007F938F939F93AF93BF93EF93FF93CF9389
:1017F000DF93CDB7DEB7C054D109DEBFCDBF809136
:10180000E1001092E10083FF0FC01092E90091E027
:101810009093EB001092EC0092E39093ED00109205
:101820009E0198E09093F00082FF46C083E0809391
:10183000E9008091F200882319F08AE38093E800A0
:101840009FB7F89482E08093E9008091F2009FBFF7
:10185000882321F084EB94E00E9434119FB7F89420
:1018600085E08093E9008091F2009FBF8823C1F05A
:1018700080916F0590917005892B91F040E450E0C4
:10188000BE016F5F7F4F85E00E94B80B97FD08C0D7
:10189000E0916F05F0917005BC01CE0101960995AC
:1018A00080918103882341F080918103815080934E
:1018B0008103811101C05D9AC05CDF4F0FB6F894BF
:1018C000DEBF0FBECDBFDF91CF91FF91EF91BF91F2
:1018D000AF919F918F917F916F915F914F913F91C8
:1018E0002F910F900FBE0F901F901895EF92FF92BF
:1018F0000F931F93CF93DF931F92CDB7DEB78983EA
:101900008B017A0141E050E0BE016F5F7F4F84E0C0
:101910000E941F0BA701B80184E40E941F0B0F90C7
:10192000DF91CF911F910F91FF90EF9008951F933A
:10193000CF93DF93EC0119819881953009F45DC054
:1019400058F59230D1F1A8F4913009F02DC2E09110
:101950009F01F091A0012DE1129FB00111246F5160
:101960007E4F028CF38DE02DCE01DF91CF911F9140
:101970000994933081F1943009F016C2E0919F01EF
:10198000F091A001ADE11A9FB00111246F517E4F7B
:101990000488F589E02D2CC09B3009F493C030F405
:1019A0009630C9F19A3009F444C0FEC19C3009F464
:1019B000C2C0913F09F411C1F7C1E0919F01F091BC
:1019C000A0013DE1139FB00111246F517E4F0088AB
:1019D000F189E02D0DC0E0919F01F091A0018DE112
:1019E000189FB00111246F517E4F0288F389E02DBA
:1019F000CE01DF91CF911F910994E0919F01F09169
:101A0000A001BDE11B9FB00111246F517E4F0688DC
:101A1000F789E02DEDCFE0919F01F091A0012DE13C
:101A2000129FB00111246F517E4F008CF18DE02D7B
:101A3000DFCF1F3F09F41FE79A81913099F4812F7E
:101A40000E945406E12FF0E0E957FC4F8581811197
:101A5000ABC1E0919F01F091A0010680F781E02DDC
:101A6000812F47C0923029F5C1E08C2F0E94B40429
:101A7000CF5FCC30D1F7C12FD0E0C957DC4F8D817B
:101A8000811109C0E0919F01F091A0010084F185CE
:101A9000E02D8FE70995812F0E9454068D818111D9
:101AA00083C1E0919F01F091A0010680F781E02DB4
:101AB0001FC0933009F078C1812FDF91CF911F9122
:101AC0000C94B40481E01F3FC1F480930B018CE5BA
:101AD00091E0E1EEF1E0DF019C011D9221503040E8
:101AE000E1F7E0919F01F091A0010284F385E02DE0
:101AF0008FE7DF91CF911F910994809367051C3088
:101B000008F052C13DE1139FF0011124EF51FE4F47
:101B1000108280910B01181710F410930B01E091C3
:101B20009F01F091A0010284F385E02D812F09959A
:101B30001092970339C182E08093980390919903A2
:101B40009460909399039091990390619093990375
:101B500010929A031330C1F048F4113089F012301A
:101B600009F022C180919903826034C0153079F167
:101B7000B8F0163009F018C1809199038E7F2AC001
:101B8000809199038D7F26C0E0919F01F091A00183
:101B90000480F581E02D80E0099510929A0304C13C
:101BA000E0919F01F091A0010480F581E02D81E09A
:101BB000099581E080930B018CE591E0E1EEF1E085
:101BC000DF019C011D9221503040E1F7EDC0809172
:101BD0009903816080939903E7C08C89813009F073
:101BE000A1C029813A812E3131053CF0293087E0AE
:101BF00038072CF028E037E002C02EE130E04091B9
:101C0000A4015091A501249FC001259F900D349FF0
:101C1000900D112468E671E00E947A337093A80455
:101C20006093A7047695679570933F0360933E0396
:101C30008B89813011F40E94A8188D81893C08F0AD
:101C400088EC8093A9018E81893C08F088EC809310
:101C5000B4018F81893C08F088EC8093B1018885BC
:101C6000893C08F088EC8093AF018985893C08F0B5
:101C700088EC8093B3018A85893C08F088EC8093D6
:101C8000B2018B85893C08F088EC8093B0018C858B
:101C9000893C08F088EC80933D038D85893C08F0F1
:101CA00088EC8093AA01288939898091AB049091AE
:101CB000AC0428173907A4F437FD0AC08091A101AC
:101CC0009091A20101972817390720F4C90102C099
:101CD00080E090E09093AA048093A90483E68C8B23
:101CE0008E859F852091A9043091AA042817390771
:101CF0000CF04DC023E62C8B181619064CF42091DD
:101D0000A1013091A2012817390728F4832F05C0BB
:101D100021E080E002C0282F892F2093AB0480931C
:101D2000AC0435C08F3F99F58091A7019091A8012F
:101D30009A8389838091D6049091D7049C838B8366
:101D40008091A9018D838091B4018E838091B1012E
:101D50008F838091AF0188878091B30189878091BB
:101D6000B2018A878091B0018B8780913D038C8777
:101D70008091AA018D878091AB049091AC049F87DC
:101D80008E878091A9049091AA04998B888B86EB09
:101D900090E09E8B8D8B40E450E0BE0182EFDF919E
:101DA000CF911F910C94760CDF91CF911F910895E4
:101DB000DC01683810F0685825C0E62FF0E067FFB6
:101DC00012C0E058F10981E090E001C0880FEA9567
:101DD000EAF7809514969C911497892314968C9316
:101DE000149760E00FC0E059FE4F6491662311F133
:101DF00067FF08C014968C9114978D7F14968C936E
:101E000014976F77FD01369686E0662321F0908166
:101E1000961301C01082815031968111F6CFBD0119
:101E20006C5F7F4F48E050E082E00E94760C81E0DA
:101E300090E0089580E090E00895FC0116821782FA
:101E400010861186128613861482BC016C5F7F4F48
:101E500048E050E082E00C94760CDC01683810F029
:101E600068582DC0E62FF0E067FF11C0E058F10977
:101E700081E090E001C0880FEA95EAF714969C9102
:101E80001497892B14968C93149760E018C0E0592E
:101E9000FE4F6491611109C081E090E013969C931C
:101EA0008E93129780E090E0089567FF08C0149623
:101EB0008C911497826014968C9314976F77169672
:101EC0008C911697861751F117968C911797861754
:101ED00029F118968C911897861701F119968C9113
:101EE00019978617D9F01A968C911A978617B1F020
:101EF0001B968C911B97861789F0FD01369680E022
:101F000090E02191211105C0FD01E80FF91F6683C2
:101F100005C0019686309105A1F7BECFBD016C5F6B
:101F20007F4F48E050E082E00E94760C81E090E034
:101F30000895CF92DF92EF92FF920F931F93CF936A
:101F4000DF936C01EB017B01E40EF51E00E010E075
:101F5000CE15DF0561F06991D601ED91FC910190FC
:101F6000F081E02DC6010995080F191FF1CFC801B6
:101F7000DF91CF911F910F91FF90EF90DF90CF9065
:101F8000089583E08093E9008091F200882319F09E
:101F90008AE38093E8000895209137043091380453
:101FA0008091390490913A0428173907A9F0E091FB
:101FB0003904F0913A04E950FC4F808120913904B2
:101FC00030913A042F5F3F4F2F73332730933A04F9
:101FD0002093390490E008958FEF9FEF08952091AA
:101FE0003704309138048091390490913A042817CD
:101FF000390749F0E0913904F0913A04E950FC4F77
:10200000808190E008958FEF9FEF089580913704CD
:10201000909138042091390430913A04821B930B3B
:102020008F739927089585ED8093BC008091BC0043
:1020300084FDFCCF1092830408954091C903262F9C
:1020400030E0240F311D21323105DCF4209183046E
:102050002430C9F4FC0180E090E0861758F43091F8
:10206000C9032191DC01A955BC4FA30FB11D2C93CD
:102070000196F3CF8091C903680F6093C90380E094
:10208000089581E0089582E008950895E0913C0468
:1020900080913B04E81730F4F0E0E35CFB4F808173
:1020A00090E008958FEF9FEF089590913C04809108
:1020B0003B04981750F4E92FF0E0E35CFB4F2081DC
:1020C00030E09F5F90933C0402C02FEF3FEFC901C7
:1020D000089580913B0490E020913C04821B91097B
:1020E0000895CF92DF92EF92FF920F931F93CF93B9
:1020F000DF937C01262F972F8A0180918404882307
:1021000091F0C62FD72F6E01C40ED51ECC15DD055C
:1021100071F06991D701ED91FC910190F081E02D72
:10212000C7010995F3CF642F822F0E941D10C801AB
:10213000DF91CF911F910F91FF90EF90DF90CF90A3
:102140000895CF93DF931F92CDB7DEB769832091B7
:1021500084042223D1F02091A604203240F021E013
:1021600030E0FC013383228380E090E015C0809151
:102170008504E82FF0E0EA57FB4F998190838F5F49
:10218000809385048093A60405C061E0CE0101968A
:102190000E941D1081E090E00F90DF91CF91089593
:1021A0000895CF93DF93FC01EB01718182818983D4
:1021B00087819085998788872585368543815481D5
:1021C0006DE1769FC00111248F519E4FDC011F9657
:1021D0005C934E931E9755963C932E93549764E0D0
:1021E000769FD0011124AF54BE4F1D921D921D92B7
:1021F0001C921397838594859D878C8782858D8318
:1022000081E0DF91CF910895FC012281FB012683BB
:10221000FC018381FB01878308950E9492350F930F
:102220001F93CF93DF931F92CDB7DEB78C016983E5
:1022300080911301882359F041E050E0BE016F5FA7
:102240007F4F83E00E941F0B181619063CF081E0B7
:1022500090E0F8019383828380E090E00F90DF911B
:10226000CF911F910F9108950F931F93CF93DF93F9
:102270001F92CDB7DEB700913704109138040F5F7D
:102280001F4F0F7311278091390490913A0408175A
:102290001907F9F041E050E0BE016F5F7F4F82E027
:1022A0000E94B80B019719F4898190E002C08FEF6A
:1022B0009FEF8F3F2FEF920761F0E0913704F0918D
:1022C0003804E950FC4F808310933804009337049E
:1022D000D2CF0F90DF91CF911F910F910895362F9C
:1022E00090E0FC01EB50F84F4491FC01EA52F84FAA
:1022F0002491FC01E954F84F8491882309F44DC0DE
:102300004423C1F150E0FA013197EE30F10590F528
:10231000E357FF4F0C948E33909180009F7703C05A
:10232000909180009F7D9093800024C094B59F770A
:1023300002C094B59F7D94BD1DC0909190009F7781
:1023400007C0909190009F7D03C090919000977F6F
:10235000909390000FC09091C0009F7703C0909120
:10236000C0009F7D9093C00005C09091C200977FF0
:102370009093C200E82FF0E0EE0FFF1FE755F84FF3
:10238000A591B4918FB7F894EC91311103C02095C9
:102390002E2301C02E2B2C938FBF0895CF93DF9354
:1023A00090E0FC01EA52F84F2491FC01E954F84F07
:1023B0008491882361F190E0880F991FFC01E55614
:1023C000F84FC591D491FC01E755F84FA591B49110
:1023D000611109C09FB7F894888120958223888372
:1023E000EC912E230BC0623061F49FB7F8943881D2
:1023F000822F809583238883EC912E2B2C939FBF73
:1024000006C08FB7F894E8812E2B28838FBFDF9109
:10241000CF9108953FB7F8948091F3039091F4031E
:10242000A091F503B091F60326B5A89B05C02F3FF8
:1024300019F00196A11DB11D3FBFBA2FA92F982FEA
:102440008827820F911DA11DB11DBC01CD0142E065
:10245000660F771F881F991F4A95D1F70895CF926D
:10246000DF92EF92FF92CF93DF936B017C010E948A
:102470000A12EB01C114D104E104F10479F00E94C5
:102480000A126C1B7D0B683E7340A0F381E0C81AF2
:10249000D108E108F108C851DC4FECCFDF91CF91B2
:1024A000FF90EF90DF90CF9008952FB7F894609150
:1024B000EF037091F0038091F1039091F2032FBF2D
:1024C00008951F920F920FB60F9211242F933F93EE
:1024D0008F939F93AF93BF938091EF039091F003FD
:1024E000A091F103B091F2033091EE0323E0230FAA
:1024F0002D3720F40196A11DB11D05C026E8230F3C
:102500000296A11DB11D2093EE038093EF039093DB
:10251000F003A093F103B093F2038091F303909141
:10252000F403A091F503B091F6030196A11DB11D2E
:102530008093F3039093F403A093F503B093F60311
:10254000BF91AF919F918F913F912F910F900FBEAF
:102550000F901F9018951F920F920FB60F92112493
:102560002F933F934F935F936F937F938F939F939B
:10257000AF93BF93EF93FF938091B900887F80362C
:1025800009F49CC068F5883209F45BC090F480318E
:1025900009F454C038F4882309F4F6C0883009F4EB
:1025A0004DC0F6C0883109F44CC0803209F45DC0DA
:1025B000EFC0803409F468C048F4803309F455C092
:1025C000883309F0E5C080938104D8C0803509F4D0
:1025D0004FC0883509F45DC0883409F0D9C0D6C031
:1025E000883909F4C7C0A8F4883709F467C038F4FB
:1025F000883609F463C0803709F460C0C9C08838E0
:1026000009F4B8C0803909F45FC0803809F0C0C04F
:102610005BC0803B09F486C038F4803A09F466C098
:10262000883A09F47FC0B4C0803C09F4A7C0883C54
:1026300009F4A4C0883B09F48AC0AAC080915E0452
:1026400010C09091800480917F04981770F5E091FC
:10265000800481E08E0F80938004F0E0E15AFB4F0C
:1026600080818093BB0085EC86C0809381048EC0FE
:10267000E091800481E08E0F809380048091BB0004
:10268000F0E0E15AFB4F80839091800480917F04B9
:102690006EC0E091800481E08E0F80938004809171
:1026A000BB00F0E0E15AFB4F8083809182048111EE
:1026B0006DC081E080935D0484EA61C083E0809313
:1026C00083041092ED03CFCF8091ED03803208F0A8
:1026D00051C0E091ED0381E08E0F8093ED03809176
:1026E000BB00F0E0E353FC4F8083BDCF85EC8093CB
:1026F000BC00109283048091ED03803230F4E091AD
:10270000ED03F0E0E353FC4F10826091ED0370E0C5
:10271000E091CB03F091CC038DEC93E009951092FE
:10272000ED0336C084E0809383041092CA031092B4
:10273000C903E091C703F091C80309958091C903CB
:10274000811105C081E08093C9031092A703E09135
:10275000CA0381E08E0F8093CA03F0E0E955FC4F75
:1027600080818093BB009091CA038091C903981720
:1027700008F479CF85E88093BC000AC085EC80938B
:10278000BC001092830404C0109281040E941310B4
:10279000FF91EF91BF91AF919F918F917F916F9139
:1027A0005F914F913F912F910F900FBE0F901F900F
:1027B00018952091A1013091A2012817390708F43A
:1027C000C90190938B0080938A0008952091A10104
:1027D0003091A2012817390708F4C90190938900A4
:1027E0008093880008954F925F926F927F928F92AC
:1027F0009F92AF92BF92CF92DF92EF92FF920F9390
:102800001F93CF93DF93CDB7DEB72C970FB6F89415
:10281000DEBF0FBECDBF8C016091A90170E080E0EA
:1028200090E00E94B63120E030E048EC52E40E9493
:102830000E3169837A838B839C83C80117FF04C0A0
:1028400088279927801B910B2C01990F6608770820
:10285000C301B2010E94B8316B017C016091AB04ED
:102860007091AC04072E000C880B990B0E94B831B4
:102870004B015C0126E636E646E65FE30E946D32D8
:1028800029813A814B815C810E946D326D837E8308
:102890008F8398879B01AC01C701B6010E94683203
:1028A00087FDC5C029813A814B815C81C501B40196
:1028B0000E946D3269877A878B879C8720E030E0A1
:1028C00040E85FE30E949C309B01AC01C701B60168
:1028D0000E94093187FFABC06D817E818F81988511
:1028E0000E9480316B017C01A3019201261B370BF2
:1028F000480B590BAEE3B0E00E9458304B015C012D
:1029000069857A858B859C850E9480319B01AC010D
:102910002C193D094E095F09C501B4010E943930E7
:1029200069017A018FEFC81AD80AE80AF80A560135
:1029300061E08DE00E94CE11C114D10409F496C06B
:10294000EFEFCE16D10409F48CC0E2E0F8E0E49198
:102950008E2F90E0FC013197EE30F10508F062C057
:10296000E556FF4F0C948E3384B5806884BDC7BC98
:1029700081C084B5806284BDC8BC7CC08091800069
:10298000806880938000D0928900C092880072C0D5
:1029900080918000806280938000D0928B00C092F2
:1029A0008A0068C080919000806880939000D092E7
:1029B0009900C09298005EC08091900080628093E0
:1029C0009000D0929B00C0929A0054C080919000D9
:1029D000886080939000D0929D00C0929C004AC075
:1029E0008091C00080688093C0008091C0008F7B80
:1029F0008093C000C092CF003DC08091C000806233
:102A00008093C000C092D00035C08091C200886021
:102A10008093C2008091C2008B7F8093C200C092DD
:102A2000D20028C0F0E8AF16B104DCF41FC0298141
:102A30003A814B815C81C501B4010E946D3220E076
:102A400030E040E85FE30E949C309B01AC01C7018D
:102A5000B6010E94683261E087FD05C08DE00E94EA
:102A6000CE1161E004C08DE00E94CE1160E08DE0E7
:102A70000E946F116091A60170E060587109072EE5
:102A8000000C880B990B0E94B83120E030E04FE732
:102A900053E40E940E316B017C016093A303709399
:102AA000A4038093A5039093A60320E030E0A9013E
:102AB0000E9468321816ACF4A701960160E070E03D
:102AC00080E89FE30E949C3060939F037093A00373
:102AD0008093A1039093A20380E090E0A0E8BFE37D
:102AE00030C020E030E0A901C701B6010E940931E1
:102AF00087FF1BC080E090E0A0E8BFE380939F03C6
:102B00009093A003A093A103B093A2039C01AD01F5
:102B1000C701B6010E949D3060939B0370939C0394
:102B200080939D0390939E0314C080E090E0A0E802
:102B3000BFE380939F039093A003A093A103B0935E
:102B4000A20380939B0390939C03A0939D03B09357
:102B50009E039091A301892F827090FFAEC08111D6
:102B60007CC0101611060CF042C08090AB0490900F
:102B7000AC04C090A904D090AA040D2C000CEE085F
:102B8000FF082801110F66087708092C000CAA0815
:102B9000BB08C501B4010E94B83120919B0330915C
:102BA0009C0340919D0350919E030E946D320E94B0
:102BB0008731CB01A0E0B0E0BC01CD016C197D09EB
:102BC0008E099F09A30192010E946A33A501940115
:102BD0000E943930C20ED31EE41EF51E10928900E9
:102BE00010928800D0928B00C0928A0024C10115F7
:102BF000110571F18090AB049090AC04C090A904D1
:102C0000D090AA040D2C000CEE08FF084424552493
:102C1000401A510A052C000C66087708092C000C94
:102C2000AA08BB08C501B4010E94B83120919F03D6
:102C30003091A0034091A1035091A2030E946D32F4
:102C40000E948731CB01A0E0B0E0BC01CD011CC0E7
:102C500010928900109288002BC017FD02C02F9A95
:102C600001C02F98C090A904D090AA040D2C000C8C
:102C7000EE08FF088090AB049090AC04092C000C87
:102C8000AA08BB08C501B4016C197D098E099F090A
:102C9000A30192010E946A33A50194010E94393078
:102CA000C20ED31EE41EF51ED0928900C092880089
:102CB00010928B0010928A00BEC0811177C010164E
:102CC00011060CF03FC08090AB049090AC04C09013
:102CD000A904D090AA040D2C000CEE08FF082801CE
:102CE000110F66087708092C000CAA08BB08C5015B
:102CF000B4010E94B83120919B0330919C03409114
:102D00009D0350919E030E946D320E948731CB013A
:102D1000A0E0B0E0BC01CD016C197D098E099F09CE
:102D2000A30192010E946A33A50194010E943930E7
:102D3000C20ED31EE41EF51E80E090E00E94E61352
:102D4000C60161C00115110571F18090AB0490902E
:102D5000AC04C090A904D090AA040D2C000CEE087D
:102D6000FF0844245524401A510A052C000C66081B
:102D70007708092C000CAA08BB08C501B4010E9401
:102D8000B83120919F033091A0034091A10350914D
:102D9000A2030E946D320E948731CB01A0E0B0E017
:102DA000BC01CD011AC080E090E029C017FD02C02F
:102DB0002F9A01C02F98C090A904D090AA040D2C7E
:102DC000000CEE08FF088090AB049090AC04092C36
:102DD000000CAA08BB08C501B4016C197D098E0955
:102DE0009F09A30192010E946A33A50194010E94E8
:102DF0003930DA01C9018C0D9D1DAE1DBF1D0E9429
:102E0000E61380E090E02C960FB6F894DEBF0FBE7C
:102E1000CDBFDF91CF911F910F91FF90EF90DF9089
:102E2000CF90BF90AF909F908F907F906F905F906A
:102E30004F900C94D9132C960FB6F894DEBF0FBEAA
:102E4000CDBFDF91CF911F910F91FF90EF90DF9059
:102E5000CF90BF90AF909F908F907F906F905F903A
:102E60004F900895382F2091A6049091710521323A
:102E700008F049C0809183048111FCCF42E0409367
:102E80008304309382043FEF3093810410928004D6
:102E900020937F04A6E8B4E04FE554E0FA013E2F0A
:102EA000341B321718F43D913193F9CF10925E0420
:102EB00020915E04990F922B90935E0490915D0493
:102EC000913061F410925D0490915E049093BB0088
:102ED0009091BC0093FDF8CF95EC01C095EE9093D6
:102EE000BC00909183049230E1F3909181049F3F64
:102EF00079F080918104803241F0809181048033A7
:102F000031F084E005C081E003C082E001C083E0CD
:102F1000109285041092A6041092840408950F93D1
:102F20001F930E9455126093BC047093BD0480935C
:102F3000BE049093BF04E091B404F091B504008402
:102F4000F185E02D84EB94E0099597FF1FC00E9466
:102F500055120091BC041091BD042091BE04309123
:102F6000BF04DC01CB01801B910BA20BB30B0091C2
:102F7000B8041091B9042091BA043091BB048017B1
:102F80009107A207B307B8F28FEF9FEF1F910F9140
:102F900008959091B30489B18C70892B90E09C01C5
:102FA00035952795359527952093B3044091AF0427
:102FB0005091B0046091B1047091B204FC01E15BE6
:102FC000FE4F8081082E000C990BAA0BBB0B840FBF
:102FD000951FA61FB71F8093AF049093B004A093D2
:102FE000B104B093B2048091AE040895E091B404AA
:102FF000F091B5040190F081E02D682F84EB94E00E
:103000000994CF93DF938DE00E94F617EC018AE0DC
:103010000E94F6178C0F9D1FDF91CF9108950097A6
:1030200069F0FC0101900020E9F73197AF01481BDE
:10303000590BBC0184EB94E00C94990F80E090E074
:1030400008958F929F92AF92BF92EF92FF920F934B
:103050001F93CF93DF93CDB7DEB7A1970FB6F89448
:10306000DEBF0FBECDBF162F042F19A2423008F4C9
:103070000AE07E0121E2E20EF11C802E912CA12CAF
:10308000B12C612FA50194010E946B30029F101991
:10309000112481E0E81AF1081A3014F4105D01C01F
:1030A000195CF7011083122F732FCA01232B242BD5
:1030B000252B39F7C7010E940F18A1960FB6F89477
:1030C000DEBF0FBECDBFDF91CF911F910F91FF905B
:1030D000EF90BF90AF909F908F900895CF92DF9226
:1030E000EF92FF92CF93DF9397FF19C06B017C01A2
:1030F0008DE20E94F617EC0166277727CB016C1949
:103100007D098E099F094AE00E9421188C0F9D1F9E
:10311000DF91CF91FF90EF90DF90CF9008954AE03C
:10312000DF91CF91FF90EF90DF90CF900C9421181A
:10313000CF93DF93BC01990F880B990B0E946E18F7
:10314000EC010E9401188C0F9D1FDF91CF91089513
:103150004F925F926F927F928F929F92AF92BF92A7
:10316000CF92DF92EF92FF92CF93DF93F894C090CB
:10317000AF04D090B004E090B104F090B204789421
:103180008091AB049091AC042091A9043091AA04E1
:10319000821B930B97FD039695958795959587953B
:1031A0000E94F31368EC70E080E090E00E942F1220
:1031B00026013701C8EED3E08091AB049091AC04B6
:1031C0002091A9043091AA04821B930B97FD0396CA
:1031D00095958795959587950E94F31368EC70E017
:1031E00080E090E00E942F12F8948090AF049090BD
:1031F000B004A090B104B090B2047894481459047B
:103200006A047B0421F0219724013501A9F68091FD
:10321000A7049091A804A0E0B0E0F8948093AF04D4
:103220009093B004A093B104B093B204789480E07A
:1032300090E00E94F313C814D904EA04FB0411F4CB
:1032400082E001C081E08093DA0481E090E0DF91C8
:10325000CF91FF90EF90DF90CF90BF90AF909F9075
:103260008F907F906F905F904F900C949818682F7C
:1032700070E080E090E04AE00C942118FF920F93F8
:103280001F93CF93DF9300D000D0CDB7DEB70E945D
:103290008F17FC0197FD11C08D32910591F0C097F9
:1032A0000A9778F0E091B404F091B5040680F781B4
:1032B000E02D84EB94E00995EACF60E070E0CB016B
:1032C0004CC020E030E0A901F12CE130F105F1F033
:1032D000ED32F105C9F0CF01C0970A97B8F4AAE022
:1032E000B0E00E9458308F01FF0F220B330BDC013E
:1032F000CB01800F911FA21FB31F9C01AD01205372
:1033000031094109510902C0FF24F394E091B4044A
:10331000F091B5040680F781E02D84EB94E02983D9
:103320003A834B835C8309950E948F17FC01C097F9
:1033300029813A814B815C810A9738F2E130F105AD
:1033400021F2FF2041F066277727CB01621B730B28
:10335000840B950B02C0CA01B9010F900F900F901A
:103360000F90DF91CF911F910F91FF900895FF92E1
:103370000F931F93CF93DF9360916B0570916C0552
:10338000813059F038F0823059F0833061F0636851
:1033900071600BC06368716408C06368716505C0C3
:1033A0006368716602C063687167EB01D0688091E1
:1033B0006805FF24F394F0928404809371051092C1
:1033C00085041092A60461E082EC94E00E94A110B2
:1033D0006D2F82EC94E00E94A1106C2F82EC94E09F
:1033E0000E94A11081E00E9432176091690570E08F
:1033F00080E090E00E942F12C0916805F092840452
:10340000C0937105109285041092A60460E082ECCE
:1034100094E00E94A11081E00E9432178091830401
:103420008111FCCF81E080938304809382049FEF1D
:10343000909381041092800480937F0480935E04B3
:1034400080915E04CC0FC82BC0935E0480915D0414
:10345000813061F410925D0480915E048093BB0022
:103460008091BC0083FDF8CF85EC01C085EE809390
:10347000BC00809183048130E1F38091800482302C
:1034800018F48091800401C082E0AFE5B4E02DE340
:1034900034E0F9019E2F921B981718F49D91919397
:1034A000F9CF10923C0480933B0482EC94E00E949C
:1034B0005510C82F82EC94E00E9455101C2F00E09C
:1034C0009801282BC90100906A0502C0969587953E
:1034D0000A94E2F7DF91CF911F910F91FF90089529
:1034E000CF93DF93CDB7DEB7CC54D1090FB6F894A4
:1034F000DEBF0FBECDBF789484B5826084BD84B535
:10350000816084BD85B5826085BD85B5816085BDDE
:1035100080916E00816080936E0010928100809196
:10352000810082608093810080918100816080931E
:103530008100809180008160809380008091910063
:1035400082608093910080919100816080939100CE
:10355000809190008160809390008091C100846090
:103560008093C1008091C10082608093C1008091EE
:10357000C10081608093C1008091C300816080930D
:10358000C3008091C00082608093C0008091C2001F
:1035900081608093C20080917A00846080937A0079
:1035A00080917A00826080937A0080917A008160B5
:1035B00080937A0080917A00806880937A001092DC
:1035C0009E0181E08093D70080EA8093D80082E159
:1035D00089BD09B400FEFDCF61E070E080E090E0BD
:1035E0000E942F1280E98093D8008CE08093E20043
:1035F0001092E0000E940A126093730370937403A8
:1036000080937503909376031092430310926A039C
:103610001092690310926103109262031092630387
:1036200010926403109268031092670310926F0364
:1036300010927003109271031092720342E0BE0167
:10364000615F7F4F80E090E00E941A098F85988922
:10365000863B910509F4C0C086EB90E09E878D877C
:1036600042E0BE01635F7F4F80E090E00E94EB0884
:1036700019821A821B821C8244E0BE016F5F7F4F59
:1036800082E090E00E94EB0888E394E09E878D87BB
:1036900042E0BE01635F7F4F86E090E00E94EB084E
:1036A00084E6898B41E0BE016F5E7F4F88E090E049
:1036B0000E94EB0841E0BE016F5E7F4F8BE090E01F
:1036C0000E94EB0841E0BE016F5E7F4F8CE090E00E
:1036D0000E94EB0841E0BE016F5E7F4F80E190E009
:1036E0000E94EB0841E0BE016F5E7F4F8DE090E0ED
:1036F0000E94EB0882E3898B41E0BE016F5E7F4F41
:1037000089E090E00E94EB0841E0BE016F5E7F4FD0
:103710008AE090E00E94EB0841E0BE016F5E7F4FBF
:103720008EE090E00E94EB0886E4898B41E0BE01C8
:103730006F5E7F4F8FE090E00E94EB081E861D8633
:1037400042E0BE01635F7F4F81E190E00E94EB08A1
:1037500084EF91E09E878D8742E0BE01635F7F4FDB
:1037600083E190E00E94EB088FEF9FE09E878D87BA
:1037700042E0BE01635F7F4F85E190E00E94EB086D
:1037800080E890E09E878D8742E0BE01635F7F4FB7
:1037900087E190E00E94EB0881E0898B41E0BE0167
:1037A0006F5E7F4F88E190E00E94EB0880E699E031
:1037B0009E878D8742E0BE01635F7F4F89E190E085
:1037C0000E94EB0889E0898B41E0BE016F5E7F4F6C
:1037D0008DE190E00E94EB0842E067EA71E086E04C
:1037E00090E00E941A0942E064EA71E089E190E009
:1037F0000E941A0941E069EA71E088E090E00E94C5
:103800001A0941E061EB71E089E090E00E941A0939
:1038100041E06FEA71E08AE090E00E941A0941E01D
:1038200064EB71E08BE090E00E941A0941E063EBE9
:1038300071E08CE090E00E941A0941E062EB71E0D7
:103840008DE090E00E941A0941E060EB71E08EE0AB
:1038500090E00E941A0941E06DE373E08FE090E090
:103860000E941A0941E06AEA71E080E190E00E945A
:103870001A0941E066EA71E087E190E00E941A09C6
:1038800041E062E573E088E190E00E941A0942E0BD
:1038900069EA74E081E190E00E941A0942E06BEA73
:1038A00074E083E190E00E941A0942E068E473E06A
:1038B00085E190E00E941A096091A9047091AA0420
:1038C000072E000C880B990B0E94B8316B017C010C
:1038D0008091AB049091AC04BC01990F880B990BBB
:1038E0000E94B8319B01AC01C701B6010E940E31A4
:1038F00060934A0370934B0380934C0390934D0362
:1039000041E063EA71E08DE190E00E941A09609164
:10391000A4017091A50180E090E00E94B63120E002
:1039200030E044EB53E40E940E316B017C01809146
:10393000A7019091A801BC0180E090E00E94B631FF
:103940009B01AC01C701B6010E946D320E94873114
:103950007093A8046093A7047695679570933F03CE
:1039600060933E036B01E12CF12C62E080E00E9449
:10397000CE1162E081E00E94CE111092AE04C0929E
:10398000AF04D092B004E092B104F092B20410926D
:10399000B3044A9B05C08091B30481608093B30453
:1039A0004B9B05C08091B30482608093B3048091E7
:1039B00069008F7C806180936900EA9A8091690038
:1039C0008F73806480936900EB9A60E082E10E94CB
:1039D000CE1160E083E10E94CE1160E084E10E949C
:1039E000CE1160E085E10E94CE116E9A60E086E023
:1039F0000E94CE11249A1092460310924503109211
:103A00004E0310924F0310925003109251031092E4
:103A10004403109247038AE191E09093A0018093C0
:103A20009F0182E395E090936E0580936D0587E991
:103A30009CE09093700580936F05279A3F9A809140
:103A4000A3010E9443099093A2018093A101909346
:103A5000AC048093AB04259A269A8091A30180FF41
:103A600010C080EA8093800081E180938100809182
:103A7000A1019091A201909387008093860013E0AA
:103A80003BC0109280001092810010926F0016BA15
:103A90008091A1019091A20190938700809386006C
:103AA000109289001092880010928B0010928A0068
:103AB000809181008160809381008091800082608C
:103AC000809380008091810088618093810080E0F4
:103AD00090E00E94E61380918000806880938000CF
:103AE000259A80E090E00E94D91380918000806246
:103AF00080938000269AC3CF479A64E170E080E00B
:103B000090E00E942F12479864E170E080E090E01E
:103B10000E942F12115081F780E090E00E94F31371
:103B200080913E0390913F03A0E0B0E0F894809331
:103B3000AF049093B004A093B104B093B20478940E
:103B400088E090E090935803809357038FEF97E0BD
:103B500090934203809341038091A6018093400398
:103B600080E092E090936C0580936B0510923C048A
:103B700010923B04109285041092A60410928304C4
:103B800081E08093820410925D0461E082E00E94F3
:103B90006F1161E083E00E946F118091B9008E7F08
:103BA0008093B9008091B9008D7F8093B9008CE03B
:103BB0008093B80085E48093BC000E940A12609351
:103BC000D2047093D3048093D4049093D5040091CD
:103BD0007703109178032091790330917A034B0198
:103BE0005C01801A910AA20AB30A8092CE049092D4
:103BF000CF04A092D004B092D1040091730310912D
:103C0000740320917503309176035B016C01A01A57
:103C1000B10AC20AD30A40EDA41647E0B406C104B3
:103C2000D10410F40C94762F609373037093740393
:103C30008093750390937603E2E21092470380919C
:103C4000450390914603829774F0109246031092B8
:103C5000450310924E0310924F031092500310929E
:103C600051031092440380914503909146038230A2
:103C7000910564F4892B09F42C9A80914503909165
:103C80004603019709F045C02C9843C09C01217060
:103C9000332780FD3AC099B1991F9927991F9093B6
:103CA000470380914403803258F540914E03509170
:103CB0004F03609150037091510301E010E020E048
:103CC00030E0082E04C0000F111F221F331F0A947A
:103CD000D2F7992329F0402B512B622B732B08C06C
:103CE000009510952095309540235123622373232E
:103CF00040934E0350934F036093500370935103CE
:103D00008F5F80934403769A04C02130310509F413
:103D100076988091450390914603019690934603CF
:103D200080934503E15009F088CFF8944091AF04A7
:103D30005091B0046091B1047091B2047894809174
:103D40003E0390913F034A015B01881A990AA1083A
:103D5000B1088A8A9B8AAC8ABD8A80926F0390924E
:103D60007003A0927103B09272038091DB04909172
:103D7000DC04A091DD04B091DE04881A990AAA0A35
:103D8000BB0AC501B4010E94B8318A889B88AC88FF
:103D9000BD888092DB049092DC04A092DD04B09296
:103DA000DE042091E3042223D1F110910C0504E0FC
:103DB000109FF0011124E552FB4F618772878387C2
:103DC0009487012F7AE0F72E60E070E0CB0124E0C9
:103DD000029FF0011124E552FB4F21853285438576
:103DE00054850E949D30002311F0015001C009E06C
:103DF000FA94F110ECCF20E030E040E251E40E9470
:103E00000E3121E0210F2A3018F420930C0502C056
:103E100010920C056EA37AAB8EAB9FAB0FC081E006
:103E20008093E3041092DF041092E0041092E10406
:103E30001092E2041EA21AAA1EAA1FAA20910D0522
:103E400030910E0540910F05509110058EA19AA951
:103E5000AEA9BFA980930D0590930E05A0930F0501
:103E6000B093100580911505882309F443C0109183
:103E7000660564E0169FC0011124DC01AC51BB4F04
:103E80007D016EA17AA98EA99FA90E949C30F7019D
:103E900062AB73AB84AB95AB012F64E1F62E60E0AF
:103EA00070E0CB0124E0029FF0011124EC51FB4FA4
:103EB00022A933A944A955A90E949D30002311F0DD
:103EC000015001C003E1FA94F110ECCF20E030E0A2
:103ED00040EA51E40E940E3121E0210F243118F410
:103EE0002093660502C0109266056CAF7DAF8EAF61
:103EF0009FAF0FC081E080931505109211051092BD
:103F0000120510921305109214051CAE1DAE1EAEC4
:103F10001FAE80916705882309F450C08A899B8968
:103F2000AC89BD89B7FF07C0B095A09590958195E4
:103F30009F4FAF4FBF4F0297A105B1050CF4DCC7EF
:103F40008091520380FFD8C70E9475069B01AC0187
:103F500060E070E080E094E40E940E316B017C012F
:103F600060913D0370E080E090E00E94B8319B01D9
:103F7000AC01C701B6010E946D3220E030E048EC90
:103F800052E40E940E310E948031DB012A893B8974
:103F90004C895D890E94633020E230E040E050E0CF
:103FA0000E943930CA01B9010E9483074424552474
:103FB0003201461A570A680A790AA1C745EB51E04F
:103FC0005F8F4E8F212C312C412C512C32015FEF11
:103FD000251A350A6DE1629D8001639D100D112443
:103FE0000F511E4FD8018C918370833009F078C730
:103FF0000E9475066B017C01F80120853185A68938
:10400000B7890E9494332FEF3FE740E050E00E94D1
:104010003930CA01B9010E94B831A70196010E9446
:104020000E310E9480316B017C01D8011A968D916E
:104030009C911B97059730F4E4E0F0E01B96FC930D
:10404000EE931A975DE1852E829CF001839CF00D22
:104050001124EF51FE4FE1818E2F90E0FC0131974A
:10406000ED30F10508F026C7EA5AFF4F0C948E3365
:104070000E9475066E8B7F8B888F998F4DE1942EF1
:10408000929CC001939C900D11248C010F511E4FE6
:104090004801D80118960D90BC91A02DBB8FAA8F16
:1040A000F801A488B588C684D784E088F18802899D
:1040B00013892381428186899789AE8DBF8D6D9149
:1040C0007C910E9486062A8D3B8DDC010E949433F0
:1040D0002FEF3FE740E050E00E943930CA01B901BC
:1040E0000E94B8312E893F89488D598D0E940E312A
:1040F0000E9480310E9483079B01AC01A091B40112
:10410000B0E00E94583024E630E040E050E00E94E9
:104110003930421A530A640A750AF401858182FF14
:10412000C9C66485758580E090E00E94B6312BEDAC
:104130003FE049EC50E40E946D3220E030E040E086
:1041400058E30E946D320E94DA329B01AC01C30138
:10415000B2012A962FAF2A972D963FAF2D972B9617
:104160004FAF2B972C965FAF2C970E94B8312A96B1
:104170002FAD2A972D963FAD2D972B964FAD2B97B0
:104180002C965FAD2C970E946D320E9480312B01DE
:104190003C0190C60E9475066E8B7F8B888F998F2D
:1041A000ADE18A2E829CF001839CF00D1124EF5129
:1041B000FE4F808491849B8E8A8EA488B588BBA292
:1041C000AAA2C684D784DBA6CAA6E088F188FFA687
:1041D000EEA60289138919AF08AF838028968FAEA7
:1041E0002897928029969FAE2997AE8DBF8D8D908E
:1041F0009C90068517856781A6800A2C000CBB0859
:10420000062E000C770B6A197B09CB01770FAA0BDE
:10421000BB0B6627782F892F9A2F0E94B8316B012C
:104220007C01B80180E090E00E94B63120E030E0EF
:104230004AE754E40E940E319B01AC01C701B6016C
:104240000E940E316B017C01C401B8010E947A33D7
:10425000BC0180E090E00E94B63120E030E04AE707
:1042600054E40E940E319B01AC01C701B6010E94CB
:104270006D320E948031BA2CAA24C501860F971F87
:10428000AAA0BBA0CAA4DBA4EEA4FFA408AD19ADEC
:1042900028962FAD289729964FAD2997B4010E94F3
:1042A00086062A8D3B8DDC010E9494332FEF3FE779
:1042B00040E050E00E943930CA01B9010E94B83193
:1042C0002E893F89488D598D0E940E310E94803180
:1042D0000CC50E9475066A8F7B8F8C8F9D8FBDE108
:1042E000B29DF001B39DF00D1124EF51FE4F80847B
:1042F00091849BA28AA2828C938C9BA68AA6948C82
:104300009EA682849384A488B588C684D784E088D6
:10431000F1880289138923814281AE8DBF8D0D9072
:10432000BC91A02DBF8BAE8B86899789BD010E9461
:1043300086068C01B40180E090E00E94B63120E056
:1043400030E04AE754E40E940E319B01AC0160E08A
:1043500070E080E89FE30E940E316B017C018E8942
:104360009F89B4010E947A33BC0180E090E00E94F2
:10437000B63120E030E04AE754E40E940E319B0160
:10438000AC01C701B6010E946D326B017C018EA4A5
:10439000682D70E080E090E00E94B63120E030E0CF
:1043A00040E85BE30E946D329B01AC01C701B6019E
:1043B0000E949D302BED3FE049EC50E40E946D32AD
:1043C0000E94DA329B01AC018AA49BA46401990C7F
:1043D000EE08FF08B801110F880B990B2A962FAF32
:1043E0002A972D963FAF2D972B964FAF2B972C9654
:1043F0005FAF2C970E94B8312A962FAD2A972D9641
:104400003FAD2D972B964FAD2B972C965FAD2C97EC
:104410000E946D320E948031CB01770FAA0BBB0B3B
:10442000A7019601280F391F4A1F5B1FAAA1BBA134
:104430000E9458302FEF3FE740E050E00E943930B3
:10444000CA01B9010E94B8312A8D3B8D4C8D5D8D1A
:10445000D5C00E9475066AA37BA38CA39DA3FDE132
:104460009F2E929CF001939CF00D1124EF51FE4F72
:10447000808491849BA68AA6228D338D4901330FB7
:10448000AA08BB088EA69FA6A8AAB9AA948C98AE23
:10449000828493849F8A8E8AA488B588C684D784B0
:1044A000E088F1880289138923814281AE8DBF8D16
:1044B0000D90BC91A02DBB8FAA8F86899789BD01D5
:1044C0000E948606BC01990F880B990B0E94B83197
:1044D0006B017C01B40180E090E00E94B63120E0E5
:1044E00030E04AE754E40E940E319B01AC0160E0E9
:1044F00070E080E89FE30E940E314B015C018A8DE1
:104500009B8D6E897F890E947A33BC0180E090E0A8
:104510000E94B63120E030E04AE754E40E940E31B8
:104520009B01AC01C501B4010E946D324B015C01DD
:10453000B8AD6B2F70E080E090E00E94B63120E0D3
:1045400030E040E85BE30E946D329B01AC01C501A5
:10455000B4010E949D302BED3FE049EC50E40E94F5
:104560006D320E94DA324B015C0120E030E0A9019B
:104570000E94683287FF0EC020E030E0A901C5012B
:10458000B4010E94093187FF09C0EFEF2196EFAF18
:10459000219704C0F1E02196FFAF219721968FACBF
:1045A0002197682D880C770B880B990B0E94B831E6
:1045B0009B01AC01C701B6010E946D320E9480319F
:1045C000CB01770FAA0BBB0B2EA53FA548A959A974
:1045D000280F391F4A1F5B1FAAA5BBA50E94583090
:1045E0002FEF3FE740E050E00E943930CA01B901A7
:1045F0000E94B8312AA13BA14CA15DA10E940E31BD
:104600000E9480319B01AC01A091B301B0E00E94F7
:10461000583024E630E040E050E00E943930420E4D
:10462000531E641E751E46C40E9475066AA77BA7AA
:104630008CA79DA7EDE19E2E929CF001939CF00D1E
:104640001124EF51FE4F808491849FA68EA6228D67
:10465000338D4901330FAA08BB0888AE99AEAAAEC4
:10466000BBAE348D828493849F8A8E8AA488B58859
:10467000C684D784E088F188028913892381428126
:10468000AE8DBF8D0D90BC91A02DBB8FAA8F86895A
:104690009789BD012D963FAF2D970E9486068C010C
:1046A000B40180E090E00E94B6314B015C012D9690
:1046B0003FAD2D9760E4630F70E080E090E00E94D2
:1046C000B63120E030E040E85BE30E946D32A501A6
:1046D00094010E946D320E9487318A8D9B8D860FD6
:1046E000971F6E897F890E947A339B8F8A8FBC01C6
:1046F00080E090E00E94B63120E030E04AE754E4E8
:104700000E940E316B017C0120E030E0A9010E9483
:10471000683287FD39C020E030E04AE754E4C50143
:10472000B4010E940E316AA37BA38CA39DA320E059
:1047300030E040E05FE30E946D329B01AC01C701B5
:10474000B6010E94093187FF1FC0B801012E000C7D
:10475000880B990B0E94B83120E030E040E850E42B
:104760000E946D322AA13BA14CA15DA10E940E3195
:10477000A70196010E946D320E94803122273327C3
:10478000201B310B49014EC020E030E04AE754E4E1
:10479000C501B4010E940E314B015C0120E030E004
:1047A00040E05FE30E946D329B01AC01C701B6019E
:1047B0000E94683287FD3CC0A5019401C701B60183
:1047C0000E94093187FF34C0B801012E000C880B0C
:1047D000990B0E94B83120E030E040E850EC0E9494
:1047E0006D32A50194010E940E316B017C018E890E
:1047F0009F89969587956A8D7B8D681B790B80E0E4
:1048000090E00E94B63120E030E04AE754E40E9494
:104810000E319B01AC01C701B6010E946D320E94AE
:1048200080314801860E971E23969FAE8EAE239749
:1048300023968EAC9FAC2397C401990CAA0BBB0B9B
:1048400028AD39AD4AAD5BAD280F391F4A1F5B1F3C
:10485000AEA5BFA50E9458302FEF3FE740E050E0E3
:104860000E943930CA01B9010E94B8312AA53BA57E
:104870004CA55DA5C3CE0E9475066AA37BA38CA33D
:104880009DA36DE1962E929CF001939CF00D112456
:10489000EF51FE4F808491849BA68AA6228D338D92
:1048A0004901330FAA08BB088EA69FA6A8AAB9AAD9
:1048B000348D82849384A488B588C684D784E088A4
:1048C000F1880289138923814281AE8DBF8D0D90BD
:1048D000BC91A02DBF8BAE8B86899789BD012D968B
:1048E0003FAF2D970E9486069B8F8A8FB40180E090
:1048F00090E00E94B6316B017C012D963FAD2D9763
:1049000060E8630F70E080E090E00E94B63120E044
:1049100030E040E85BE30E946D32A70196010E94FF
:104920006D320E9487318E899F89860F971FB4014F
:104930000E947A338C0188159905E8F58A8C9B8C46
:10494000B401990C880B990B0E94B8319B01AC0102
:104950000E949D304B015C0120E030E04AE754E4C6
:10496000C701B6010E940E319B01AC01C501B40123
:104970000E940E316B017C01B80180E090E00E9442
:10498000B63120E030E04AE754E40E940E319B014A
:10499000AC01C701B6010E946D320E9480312A8DA0
:1049A0003B8D3195219531094901860E971E25963B
:1049B0009FAE8EAE259725968EAC9FAC2597A3C053
:1049C0000E9475066AA37BA38CA39DA35DE1952E2F
:1049D000929CF001939CF00D1124EF51FE4F8084C6
:1049E00091849BA68AA6228D338D4901330FAA0894
:1049F000BB088EA69FA6A8AAB9AA348D82849384E8
:104A0000A488B588C684D784E088F1880289138990
:104A100023814281AE8DBF8D0D90BC91A02DBF8BA7
:104A2000AE8B86899789BD012D963FAF2D970E9449
:104A300086069B8F8A8FB40180E090E00E94B63199
:104A40006B017C012D963FAD2D9760E8630F70E000
:104A500080E090E00E94B63120E030E040E85BE387
:104A60000E946D32A70196010E946D320E9487312B
:104A70008E899F89860F971FB4010E947A338C011B
:104A800088159905E0F56A8D7B8D719561957109A1
:104A9000072E000C880B990B0E94B8319B01AC01CA
:104AA0000E949D304B015C0120E030E04AE754E475
:104AB000C701B6010E940E319B01AC01C501B401D2
:104AC0000E940E316B017C01B80180E090E00E94F1
:104AD000B63120E030E04AE754E40E940E319B01F9
:104AE000AC01C701B6010E946D320E9480318A8CF0
:104AF0009B8C860E971E27969FAE8EAE2797279685
:104B00008EAC9FAC2797C401990CAA0BBB0B5CCD54
:104B10003DE1932E929CF001939CF00D1124EF51F6
:104B2000FE4FA28DB38D00913E0310913F0398017B
:104B30000E949433DC01CB014FE0B595A795979582
:104B400087954A95D1F7092E000CAA0BBB0B8A88D2
:104B50009B88AC88BD88881A990AAA0ABB0A1814CF
:104B600019041A041B04D4F4A28DB38D0E9494334B
:104B7000DC01CB012FE0B595A795979587952A95F0
:104B8000D1F7092E000CAA0BBB0B4A895B896C89F3
:104B90007D89481B590B6A0B7B0B1AC0A28DB38D04
:104BA00098010E949433AB01BC01FFE075956795B5
:104BB00057954795FA95D1F7052E000C660B770BA4
:104BC0008A889B88AC88BD88481959096A097B097D
:104BD000EDE19E2E929CF001939CF00D1124EF517B
:104BE000FE4F848128E0829FC0011124092E000C11
:104BF000AA0BBB0B84179507A607B7070CF05AC181
:104C0000A28DB38D98010E949433DC01CB015FE04B
:104C1000B595A795979587955A95D1F7092E000CCC
:104C2000AA0BBB0B8A889B88AC88BD88881A990A16
:104C3000AA0ABB0AB7FC05C048EFA42EBB24BA944D
:104C400003C038E0A32EB12C8DE1982E929CF00188
:104C5000939CF00D1124EF51FE4F9480228D338DE3
:104C60003F8B2E8BA091B201B0E0A70196010E946C
:104C7000583020E436E040E050E00E9439306901CD
:104C80007A019A9CC0019B9C900D1124092E000C66
:104C9000AA0BBB0B8A889B88AC88BD88880E991E9E
:104CA000AA1EBB1E9801AE89BF890E949433DC0105
:104CB000CB012FE0B595A795979587952A95D1F7C4
:104CC000092E000CAA0BBB0BA5019401281B390B64
:104CD0004A0B5B0BD6010E94633020E230E040E0DB
:104CE00050E00E943930CA01B9010E948307461A78
:104CF000570A680A790ADEC03DE1329DF001339D12
:104D0000F00D1124EF51FE4F028D138DA091B101D2
:104D1000B0E0A70196010E94583024E630E040E060
:104D200050E00E94393069017A01B801110F880BF7
:104D3000990B0E94B8312AE939EC4CEC54E40E94FA
:104D40000E319B01AC016EA17AA98EA99FA90E9488
:104D50009C30A6010E94570861C04DE1429DF001C0
:104D6000439DF00D1124EF51FE4F028D138DA09144
:104D7000B001B0E0A70196010E94583024E630E06F
:104D800040E050E00E94393069017A01B801110F0A
:104D9000880B990B0E94B83120E03EEF4FEF56E4AC
:104DA0000E940E319B01AC016CAD7DAD8EAD9FAD0F
:104DB0000E949C30A6010E94FF0730C05DE1529D19
:104DC000F001539DF00D1124EF51FE4F028D138D14
:104DD000A091AF01B0E0A70196010E94583024E6EF
:104DE00030E040E050E00E94393069017A01B801BA
:104DF000110F880B990B0E94B8312AE939EC4CEC61
:104E000054E40E940E319B01AC016EA17AA98EA9D7
:104E10009FA90E949C30A6010E94B007092E000C99
:104E2000AA0BBB0B480E591E6A1E7B1E43C00E9474
:104E300075069B01AC016DE1629DF001639DF00D73
:104E40001124EF51FE4F828D938DBC01990F880B79
:104E5000990B2A962FAF2A972D963FAF2D972B9619
:104E60004FAF2B972C965FAF2C970E94B8312A96A4
:104E70002FAD2A972D963FAD2D972B964FAD2B97A3
:104E80002C965FAD2C970E940E310E9480310E94BB
:104E900083079B01AC01A091B301B0E00E945830A0
:104EA00024E630E040E050E00E943930421A530AD4
:104EB000640A750A0E9455120091AB011091AC0171
:104EC0002091AD013091AE01DC01CB01801B910B33
:104ED000A20BB30BEE8DFF8D80839183A283B383EE
:104EE0000E8D1F8D0C5F1F4F1F8F0E8F1BE0211625
:104EF000310409F06CC803C0412C512C32011091CF
:104F0000520311FF3EC00E9475069B01AC01E09167
:104F1000B10167E471E0E69FC001E79F900D1124A5
:104F2000BC01990F880B990B2A962FAF2A972D96C3
:104F30003FAF2D972B964FAF2B972C965FAF2C97AB
:104F40000E94B8312A962FAD2A972D963FAD2D9706
:104F50002B964FAD2B972C965FAD2C970E940E3160
:104F60000E948031AB016EA17AA98EA99FA90E94EF
:104F70005708092E000CAA0BBB0B480E591E6A1EBF
:104F80007B1E12FF3EC00E9475069B01AC01E091A2
:104F9000B00167E471E0E69FC001E79F900D112426
:104FA000BC01990F880B990B2A962FAF2A972D9643
:104FB0003FAF2D972B964FAF2B972C965FAF2C972B
:104FC0000E94B8312A962FAD2A972D963FAD2D9786
:104FD0002B964FAD2B972C965FAD2C970E940E31E0
:104FE0000E948031AB016CAD7DAD8EAD9FAD0E9456
:104FF000FF07092E000CAA0BBB0B480E591E6A1E98
:105000007B1E13FF3EC00E9475069B01AC01E09120
:10501000AF0167E471E0E69FC001E79F900D1124A6
:10502000BC01990F880B990B2A962FAF2A972D96C2
:105030003FAF2D972B964FAF2B972C965FAF2C97AA
:105040000E94B8312A962FAD2A972D963FAD2D9705
:105050002B964FAD2B972C965FAD2C970E940E315F
:105060000E948031AB016EA17AA98EA99FA90E94EE
:10507000B007092E000CAA0BBB0B480E591E6A1E66
:105080007B1EC0903E03D0903F03E12CF12C88277B
:105090009927DC018C199D09AE09BF098A889B8874
:1050A000AC88BD8888169906AA06BB066CF0C814A1
:1050B000D904EA04FB040CF043C08C189D08AE0828
:1050C000BF087501640108C08A889B88AC88BD88C8
:1050D000C80CD91CEA1CFB1C0E9475069B01AC0184
:1050E00060E07EEF8FEF96E40E940E314B015C0191
:1050F0006091AA0170E080E090E00E94B8319B01CD
:10510000AC01C501B4010E946D3220E030E048ECF2
:1051100052E40E940E310E948031DB01A70196010A
:105120000E94633020E230E040E050E00E943930DD
:10513000CA01B9010E948307461A570A680A790A08
:10514000A091A901B0E0A30192010E94583024E689
:1051500030E040E050E00E943930CA01B9010E94BD
:1051600083076B017C0114FF04C00E946E180E942B
:105170000118C0926B03D0926C03E0926D03F09221
:105180006E0360916F037091700380917103909131
:1051900072030E94B8314B015C016091A7047091C9
:1051A000A80480E090E00E94B6319B01AC0160E071
:1051B0007FEF8FE797E40E940E319B01AC01C501A0
:1051C000B4010E946D320E9480316E8F7F8F88A360
:1051D00099A3611570488105910554F088248A943B
:1051E0000FE7902EA12CB12C8E8E9F8EA8A2B9A273
:1051F0008E8C9F8CA8A0B9A001E0801600E89006D4
:105200000FEFA006B0065CF48824839410E8912E7A
:10521000AA24AA94BA2C8E8E9F8EA8A2B9A28E8C94
:105220009F8CA8A0B9A080926F0390927003A09267
:105230007103B0927203C6010E94F31380E00E94D2
:10524000B71997FD0FC080E00E94B719880F991F0A
:105250008115904154F480E00E94B7195C01AA0CBA
:10526000BB1C07C0A12CB12C04C0AA24AA94FFE047
:10527000BF2EB0926A03A092690382E00E94B71920
:1052800097FD0FC082E00E94B719880F991F811502
:10529000904154F482E00E94B7193C01660C771CDF
:1052A00007C0612C712C04C066246A946FE0762ECE
:1052B000709268036092670383E00E94B71997FDBC
:1052C0000FC083E00E94B719880F991F8115904184
:1052D00054F483E00E94B7198C01000F111F05C020
:1052E00000E010E002C00FEF1FE010936603009390
:1052F000650381E00E94B71997FD12C081E00E940A
:10530000B719880F991F8115904174F481E00E94AC
:10531000B719880F991F6C01990FEE08FF080AC092
:10532000C12CD12C760106C0CC24CA948FE0D82E93
:10533000E12CF12C8091060190910701A816B90685
:1053400020F4B0920701A092060180915F03909132
:1053500060038A159B0520F4B0926003A0925F035E
:105360008091040190910501092E000CAA0BBB0B42
:10537000C816D906EA06FB0624F4D0920501C092AD
:10538000040180915D0390915E03092E000CAA0B2D
:10539000BB0B8C159D05AE05BF0524F4D0925E03B2
:1053A000C0925D0380910201909103016816790615
:1053B00020F4709203016092020180915B0390914E
:1053C0005C038615970520F470925C0360925B0382
:1053D00080910001909101010817190720F41093A2
:1053E0000101009300018091590390915A038017A5
:1053F000910720F410935A030093590380905703A8
:10540000909058039B8A8A8A8090060190900701A9
:105410002A893B89820E931EA40160E070E04EA3AE
:105420005FA368A779A72090020130900301220EA4
:10543000331E412C512CC301770CAA0BBB0B9C01D2
:10544000AD012219330944095509AFEFBFE00E94AD
:10545000583020915B0330915C038A889B8828191F
:10546000390940E050E022193309440955090E94E6
:1054700039302AAB3BAB4CAB5DAB40900001509058
:105480000101480C591C612C712CC801110FAA0B89
:10549000BB0B9C01AD012419350946095709AFEF33
:1054A000BFE00E9458302091590330915A032819C7
:1054B0003909890120E030E0A90198012419350952
:1054C000460957090E94393029013A01C501BB0C30
:1054D000AA0BBB0B9C01AD018EA09FA0A8A4B9A4F0
:1054E000281939094A095B09AFEFBFE00E9458301B
:1054F00020915F0330916003AA88BB882A193B0979
:10550000890120E030E0A90198018EA09FA0A8A405
:10551000B9A4281939094A095B090E9439301901CF
:105520002115304124F022242A94BFE03B2E37FE7F
:1055300002C0212C312C30926A03209269030AA9FF
:105540001BA9011520E1120714F00FEF1FE017FF50
:1055500002C000E010E01093680300936703411459
:1055600030E1530624F044244A94AFE05A2E57FE0B
:1055700002C0412C512C50926603409265038090EA
:10558000040190900501AA88BB888A0C9B1CA12C61
:10559000B12CA7019601281939094A095B09AFEF17
:1055A000BFEF0E94583020915D0330915E03CA889E
:1055B000DB882C193D096901E12CF12CA70196012A
:1055C000281939094A095B090E943930211531052A
:1055D00061E04607510524F02FEF3FEF40E050E037
:1055E00057FF03C020E030E0A9012093610330930E
:1055F00062034093630350936403C0904E03D090C2
:105600004F03E0905003F09051039C2D9F70913018
:1056100081F0923081F0943081F0983081F09330B5
:1056200081F0963081F0993081F09C3081F090E0EB
:105630000FC091E00DC093E00BC095E009C097E06A
:1056400007C092E005C094E003C098E001C096E076
:1056500070EFC72246015701892AD501C401809302
:10566000530390935403A0935503B09356039E8C19
:105670009982AF8CAA822B833C832D82202F229586
:10568000207F23292E8324E0169507952A95E1F79C
:105690000F834886282F2295207F25292987AC0152
:1056A000BD0134E076956795579547953A95D1F7C2
:1056B0004A87AC01BD01ECE0769567955795479513
:1056C000EA95D1F74B87F4E1B695A795979587951D
:1056D000FA95D1F78C874CE050E0BE016F5F7F4FA9
:1056E00084E00E94760C8091CE049091CF04A0912A
:1056F000D004B091D10480319742A105B10508F4DE
:10570000F5C384EB94E00E940610181619060CF0FD
:10571000DDC384EB94E00E94CC0F182F8FE9810F3A
:105720008A3108F4105261E070E080E090E00E945D
:10573000C8341C01009731F0DC011C926CE971E067
:105740000E94A035812F90E0FC01E154F109E7317E
:10575000F10508F0B8C3ED59FF4F0C948E336091FA
:10576000A7017091A80180E090E04AE00E94211812
:1057700080E20E94F6178091A9010E94371980E209
:105780000E94F6178091B1010E94371980E20E94B1
:10579000F6178091AF010E94371980E20E94F61738
:1057A0008091B4010E94371980E20E94F61780911F
:1057B000B3010E94371980E20E94F6178091B2016E
:1057C0000E94371980E20E94F6178091B0010E9472
:1057D000371980E20E94F61780913D030E94371925
:1057E00080E20E94F6178091AA010E94371980E298
:1057F0000E94F6176091A9047091AA04072E000C6C
:10580000880B990B0E946E1880E20E94F617809117
:10581000A6010E94371980E20E94F6178091520378
:105820000E94371980E20E94F6176091AB047091D4
:10583000AC04072E000C880B990B0E946E1880E2B6
:105840000E94F6176091A4017091A50180E090E09C
:105850004AE00E94211880E20E94F6176091A3019D
:1058600070E025C28FE891E00E940F1866EB70E0AF
:1058700080E090E00E946E1884E991E00E940F1889
:1058800086E991E00E940F1888E991E00E940F18C4
:105890008AE991E00E940F1816C38091DA04082E5D
:1058A000000C990B0EC30E94A8180DC30E943E194C
:1058B000611101C061E06093A60101C38FEF9FE019
:1058C00090930701809306011092600310925F038A
:1058D000909305018093040110925E0310925D0382
:1058E000909303018093020110925C0310925B037A
:1058F000909301018093000110925A031092590372
:10590000DEC20E943E196430710514F464E070E058
:105910007A836983F8944090AF045090B00460900B
:10592000B1047090B20478948090D6049090D7041B
:10593000A090D804B090D9046091A7017091A801FB
:1059400080E090E00E94B6316B017C0180913E03C3
:1059500090913F03481A590AB201680D791D072E2C
:10596000000C880B990B0E94B831A70196010E9488
:105970006D322B013C016091A7047091A80480E076
:1059800090E00E94B6319B01AC01C301B2010E94BC
:105990000E312B013C0169817A817093A5016093DE
:1059A000A401072E000C880B990B0E94B83120E04F
:1059B00030E044EB53E40E940E31A70196010E94AF
:1059C0006D320E9480317093A8046093A7048B010C
:1059D0001695079510933F0300933E0380E090E0F7
:1059E0000E94B6319B01AC01C301B2010E946D322D
:1059F000A70196010E940E310E948031600F711F35
:105A00008B0120E030E0081919092A093B09F894B4
:105A10000093AF041093B0042093B1043093B20408
:105A20000FC080913E0390913F03A0E0B0E0F89456
:105A30008093AF049093B004A093B104B093B204E8
:105A400078943DC20E943E196E3171053CF0693078
:105A5000B7E07B072CF068E077E002C06EE170E011
:105A60007A836983F8948091AF049091B004A091F7
:105A7000B104B091B2047894C090D604D090D70409
:105A8000E090D804F090D90420913E0330913F0378
:105A9000821B930BBC016C0D7D1D072E000C880B27
:105AA000990B0E94B8314B015C016091A701709184
:105AB000A80180E090E00E94B6319B01AC01C501D5
:105AC000B4010E946D324B015C016091A70470919A
:105AD000A80480E090E00E94B6319B01AC01C501B2
