:100000000C9411040C9439040C9439040C94CE060D
:100010000C94AA060C9439040C9439040C943904F9
:100020000C9439040C9439040C94ED090C94900749
:100030000C9439040C9439040C9439040C9439044C
:100040000C9439040C9439040C9439040C9439043C
:100050000C9439040C9439040C9439040C94E31571
:100060000C9439040C9439040C9439040C9439041C
:100070000C9439040C9439040C9439040C9439040C
:100080000C9439040C9439040C9439040C943904FC
:100090000C942D160C9439040C9439040C943904E6
:1000A0000C9439040C9439040C9439044A1FEA1F47
:1000B000462187202A22F323512398248F25C22505
:1000C000F52575263026F72CA12A6C2BFB2D5F2CED
:1000D000682D7E2BFB2DFB2DFB2DFB2DFB2DFB2DF2
:1000E000FB2DAC2AA92AFB2D9E2A982AFB2D042A37
:1000F000892A922CB72DBF2D872D8F2DFB2D972D63
:100100007F2DFB2DAF2DC72DFB2DFB2DA72DFB2DFF
:10011000FB2DFB2DFB2DFB2D9F2D2C0F310F360FB3
:10012000400F8A0F8A0F8A0F4A0F540F5E0F680F15
:10013000750F8A0F7D0FB018B318A618AA18D41817
:10014000D418D418B718BB18BF18C518C918D418B4
:10015000CF1805A84CCDB2D44EB93836A9020C50F0
:10016000B9918688083CA6AAAA2ABE000000803F52
:1001700000000000000000002A2B28000000000002
:10018000000000000000000000000000000000006F
:100190002C9EB4A0A1A2A434A6A7A5AE362D3738B4
:1001A000271E1F20212223242526B333B62EB7B8BD
:1001B0009F8485868788898A8B8C8D8E8F9091927B
:1001C000939495969798999A9B9C9D2F3130A3ADC7
:1001D000350405060708090A0B0C0D0E0F10111245
:1001E000131415161718191A1B1C1DAFB1B0B50042
:1001F000080B0002020201000904000001020200D3
:100200000005240010010524010101042402060553
:1002100024060001070581031000400904010002C3
:100220000A000000070502024000000705830240A3
:10023000000009040200020300000009210101007E
:100240000122E1040705840340000107050503407E
:10025000000105010904A10185040901A10009307B
:10026000170180FFFF27FF7F0000350047FFFF00D9
:1002700000751095018102093116000027FFFF006B
:1002800000350047FFFF000075109501810209321B
:1002900016000027FF0F0000350047FF0F00007514
:1002A0000C95018102093316000027FF0F0000356D
:1002B0000047FF0F0000750C9501810209341600FC
:1002C0000027FF0F0000350047FF0F0000750C9559
:1002D0000181020939150125083500463B016514E5
:1002E0005500750495018102050915002501550089
:1002F00065001901291875019518810285F1090118
:10030000150026FF00953F7508918285F209019539
:100310003F75088182C0050F0992A1028502099FDD
:1003200009A009A409A509A6150025013500450164
:100330007501950581029503810309941500250136
:100340003500450175019501810209221501252815
:1003500035014528750795018102C00921A1028553
:1003600001092215012528350145287508950191B7
:10037000020925A102092609270930093109320994
:100380003309340940094109420943250B15013558
:1003900001450B750895019100C0095009541500DD
:1003A00027FFFF0000350047FFFF000066011055E2
:1003B000FD75109502910255006600000952150066
:1003C00026FF7F350046FF7F751095019102095386
:1003D0001501250835014508750895019102095553
:1003E000A1020501093009311500250175019502A9
:1003F0009102C0050F0956950191029505910309D7
:1004000057A1020B01000A000B02000A006614004B
:1004100055FE150026FF7F3500479F8C00007510A4
:10042000950191025500660000C0050F09A76601FD
:100430001055FD150027FFFF0000350047FFFF00A6
:10044000007510950191026600005500C0050F0966
:100450005AA1028502092215012528350145287572
:100460000895019102095B095D150026FF00350022
:1004700046FF7F750895029102095C095E660110CE
:1004800055FD26FF7F46FF7F75109502910266009D
:10049000005500C0095FA102850309221501252826
:1004A000350145287508950191020923150025019C
:1004B000350045017504950191020958A1020B010F
:1004C000000A000B02000A00750295029102C009A1
:1004D0006016008026FF7F36008046FF7F751095EE
:1004E000019102096136008046FF7F950191021556
:1004F0000026FF7F350046FF7F0963751095019147
:10050000020965150026FF0046FF7F7508950191D9
:1005100002C0096EA10285040922150125283501B2
:1005200045287508950191020970150026FF7F3551
:100530000046FF7F751095019102096F1600802615
:10054000FF7F36008046FF7F9501910209711500FB
:1005500026FF0035004667016614005500750895B2
:10056000019102097227FFFF000047FFFF000066AC
:10057000011055FD7510950191026600005500C0EF
:100580000973A10285050922150125283501452891
:10059000750895019102097016018026FF7F3601CA
:1005A0008046FF7F751095019102C00974A10285F4
:1005B0000609221501252835014528750895019160
:1005C00002097509761581257F36018046FF7F7502
:1005D0000895029102C0050F0977A102850A092238
:1005E00015012528350145287508950191020978DE
:1005F000A1020979097A097B15012503750895017E
:100600009100C0097C150026FF00350046FF0091CF
:1006100002C00990A102850B092215012528350188
:100620004528750895019102C00996A102850C091B
:100630009709980999099A099B099C15012506753E
:100640000895019100C0097DA102850D097E150064
:1006500026FF003500461027750895019102C00954
:10066000ABA10285050925A1020926092709300940
:100670003109320933093409400941094209431556
:1006800001250B3501450B75089501B100C0050129
:10069000093B150026FF01350046FF01750A95014B
:1006A000B1027506B101C0050F0989A102850609CD
:1006B00022252815013501452875089501B1020943
:1006C0008BA102098C098D098E2503150135014581
:1006D0000375089501B100C009AC150027FFFF00A4
:1006E00000350047FFFF000075109501B100C009FB
:1006F0007FA1028507098075109501150027FFFF6E
:100700000000350047FFFF0000B102098326FF000B
:1007100046FF0075089501B10209A909AA7501955E
:10072000021500250135004501B10275069501B19C
:1007300003C0C01803410072006400750069006EB8
:10074000006F0020004C004C004300040309042209
:1007500003410072006400750069006E006F0020A4
:10076000004C0065006F006E006100720064006F55
:100770000012010002000000404123368000010108
:1007800002000112010002020000404123368000F5
:10079000010102000100C18081C1C00706050401FA
:1007A00000080A0B0C0D0900000000240027002A95
:1007B000002D00300000000000250028002B002E36
:1007C00000310004040404040304050202020204CC
:1007D00003020202020606060606060404020202DC
:1007E0000404040802011040804010204080408032
:1007F00008020401804020100201108010204040B7
:10080000200000000200080E0000030401000B009D
:1008100000000000000000000000000000000000D8
:10082000152E11241FBECFEFDAE0DEBFCDBF11E0E1
:10083000A0E0B1E0E4E5F4E602C005900D92A23933
:10084000B107D9F725E0A2E9B1E001C01D92A732B6
:10085000B207E1F714E0C1E1D4E004C02197FE0142
:100860000E941632C031D107C9F70E94F9190C94C1
:1008700028320C9400008C30F8F4282F30E09DE1F1
:10088000899FF0011124E952FE4F90819923A1F034
:1008900090819D7F9083F901E958FC4F95819111DA
:1008A0000BC0E0919301F09194010084F185E02D5B
:1008B00009951092870308950895FC01CB012091BA
:1008C000E80022FFFCCF282F215028F03091F100C2
:1008D00030833196F9CF24E620936B032BEF2093DE
:1008E000E80008950F931F93CF93DF93DB01A40FCC
:1008F000B51FFB016EEFEA17FB0791F187FF02C0FE
:10090000249101C0208100916F0310917003C09168
:100910006D03D0916E030C171D07B4F49091E8009D
:100920009570E1F39091E80092FD1CC02093F100D6
:1009300020916F03309170032F5F3F4F2F73332748
:10094000232B11F46093E80020916F033091700322
:100950002F5F3F4F3093700320936F033196CBCFBF
:10096000CA0102C08FEF9FEFDF91CF911F910F91CE
:100970000895CF93DF9300D000D01F92CDB7DEB79C
:10098000FC0181819081913A29F5813009F0BCC048
:100990008281863051F445E050E062E773E080E404
:1009A0000E94720410927203AFC0873009F0ACC08D
:1009B00089838FEF9FEF9B838A838BE08C8383E017
:1009C0008D8345E050E0BE016F5F7F4F80E40E9461
:1009D00072049AC0913209F097C0893009F094C02E
:1009E0008281853009F090C064E070E0CE0101960C
:1009F0000E945D0486E08093720380910B018B302E
:100A000021F1A0910B0181E08A0F80930B019DE100
:100A1000E0910B019E9FF0011124E952FE4F80816D
:100A2000882351F080910B018B3030F480910B01C1
:100A30008F5F80930B01ECCF8DE1A89FF001112413
:100A4000E952FE4F81E0808301C0A0E0A0937303D0
:100A5000A11104C082E08093740350C01092090574
:100A600081E0809374038A819DE1A99FD0011124C4
:100A7000A952BE4F11968C9311978FEF9FEF1F963F
:100A80009C938E931E9753961C921E92529751964A
:100A90001C921E92509712968C93129713968C93D9
:100AA000139755961C921E9254971D961C921E9257
:100AB0001C9715961C9215978FEF9FE719969C939C
:100AC0008E93189757961C921E9256975B961C927F
:100AD0001E925A975C961C925C9788EE93E01B9648
:100AE0009C938E931A97E0919301F0919401068460
:100AF000F785E02DBD01CE01019609958FEF9FEF9F
:100B0000909376038093750381E00F900F900F9080
:100B10000F900F90DF91CF91089542E450E060EF85
:100B200071E080E80E94720440E250E062E372E00B
:100B300080E80E94720483E090E00895EF92FF92B3
:100B40001F93CF93DF93EC01162FE881F981048086
:100B5000F581E02D09957C01E881F9810680F78116
:100B6000E02D612FCE010995C7019927DF91CF9123
:100B70001F91FF90EF900895FC0191818081813A4F
:100B800029F49D7F81E0913091F414C0813279F491
:100B90009A3049F09B3019F0993049F40AC08281AB
:100BA00080930A0106C082818093090102C080E01F
:100BB000089581E008958C30F0F49DE1899FF00163
:100BC0001124E952FE4F80818823A9F08081826040
:100BD00080838091870381110EC00E94D715609396
:100BE000A1017093A2018093A3019093A40181E0DD
:100BF0008093870308950895CF92DF92EF92FF923A
:100C000060919D0170919E01072E000C880B990B3D
:100C10000E9440306B017C01609153047091540438
:100C200080915504909156040E9440309B01AC0184
:100C3000C701B6010E94962FFF90EF90DF90CF90F2
:100C40000895CF92DF92EF92FF920F931F938B0143
:100C50009C014091590450915A0488279927841B7C
:100C6000950BBC01990F880B990B061717072807DE
:100C700039076CF06A01550FEE08FF08C901B80189
:100C8000C016D106E206F30614F4C701B6011F919F
:100C90000F91FF90EF90DF90CF900895CF92DF9269
:100CA000EF92FF92CF93DF936B017C01EA0120E08A
:100CB00030E0A9010E94F030181694F020E030E0F6
:100CC000A901C701B6010E94912F87FF3AC020E019
:100CD00030E0A901C701B6010E94252F6B017C01FC
:100CE000BE01DD0F880B990B0E9440309B01AC01C7
:100CF000C701B6010E94F5306B017C010E94FC0522
:100D00009B01AC01C701B6010E94F53020E030E044
:100D100040E851E40E94F53020E030E040E251E448
:100D20000E94F53020E030E040E05BE30E94F530C7
:100D30000E9408300E94210688279927861B970B5E
:100D400002C080E090E0DF91CF91FF90EF90DF90C4
:100D5000CF9008951F920F920FB60F9211242F93E8
:100D60003F934F935F936F937F938F939F93AF9333
:100D7000BF93EF93FF930E94AF17FF91EF91BF9145
:100D8000AF919F918F917F916F915F914F913F9123
:100D90002F910F900FBE0F901F9018951F920F92DA
:100DA0000FB60F9211242F933F934F935F936F933E
:100DB0007F938F939F93AF93BF93EF93FF930E9483
:100DC000AF17FF91EF91BF91AF919F918F917F915D
:100DD0006F915F914F913F912F910F900FBE0F90A8
:100DE0001F901895CF92DF92EF92FF920F931F936F
:100DF000CF93DF931F92CDB7DEB7F82EE42E8B0191
:100E0000C82ED92E8C2D8F198E1588F4F80161917A
:100E10008F01C60169830E94AB2E6981681719F0A2
:100E2000C6010E94B32EFFEFCF1ADF0AEBCF0F905F
:100E3000DF91CF911F910F91FF90EF90DF90CF90B6
:100E40000895CF92DF92EF92FF920F931F93CF936B
:100E5000DF931F92CDB7DEB78B016B017C01E61AE1
:100E6000F70A9C2D901B941758F4C7018C0D9D1DFB
:100E700049830E94AB2EF60181936F014981F1CF26
:100E80000F90DF91CF911F910F91FF90EF90DF9026
:100E9000CF9008958F929F92AF92BF92CF92DF92A0
:100EA000EF92FF9240E050E020E0682F70E0812C4C
:100EB000912C54018394FA013296DB0102C0B5955E
:100EC000A795EA95E2F775016401042E04C0CC0CE5
:100ED000DD1CEE1CFF1C0A94D2F7A0FF02C02C29D7
:100EE00002C0C0942C214F5F5F4F4430510519F769
:100EF00030E0220F331FF901E05DFE4F80FF05C097
:100F0000808191819695879502C080819181FF9023
:100F1000EF90DF90CF90BF90AF909F908F9008950B
:100F20001F920F920FB60F921124EF92FF921F9310
:100F30002F933F934F935F936F937F938F939F93E1
:100F4000AF93BF93EF93FF93CF93DF93CDB7DEB70C
:100F50006197DEBFCDBF1092E9008091E80083FF6A
:100F600059C1FE013A96CF0128E02E0F2E1729F025
:100F70003091F10030833196F9CF24E620936B0352
:100F800022EF2093E8002A8527FF05C03091E80072
:100F900030FFFCCF03C03EEF3093E800322F3076B5
:100FA00009F0C5C08B85811105C01092F100109227
:100FB000F10029C1982F9D7F913009F424C185301B
:100FC00049F48091E80080FFFCCF8C858068809395
:100FD000E30019C1863009F07CC01D85E888F988D6
:100FE0001092E9001092700310926F03123091F585
:100FF00010926E0310926D030E948D0599E0BE0160
:101000006F5F7F4FFB01292F11922A95E9F7998392
:101010001A8391E09E8390E898879AEF99872091B0
:101020006F0330917003275F3F4F3C832B838D8389
:101030001092E9001092700310926F03F0926E0309
:10104000E0926D0349E050E080E00E9472040E944B
:101050008D05D9C0F0926E03E0926D03123259F4FF
:1010600041EE54E062E572E080E80E947204892B50
:1010700009F0C9C0CCC0113069F4888999890897F2
:1010800011F410936C0380916C03811111C061E71E
:1010900077E016C0133009F0BAC08C85882359F068
:1010A000823061F0813009F0B2C063E377E008C0BC
:1010B00063E877E005C06BE477E002C06FE477E0B7
:1010C0006115710509F4A3C0FB01449150E080E86B
:1010D00049C0873009F49BC0883021F481E08093B7
:1010E000F10091C0893009F08EC0237009F08FC0E3
:1010F00080E090E031E026E341E0480F4093E900D2
:101100003093EB000196FC01EB56F84FE491E0932D
:10111000EC002093ED008530910571F78EE7809308
:10112000EA001092EA008C85809392016CC02889B5
:1011300039891092E9001092700310926F03309376
:101140006E0320936D032E85211154C08B859A85E3
:10115000913A59F4813209F05AC047E050E06CE00E
:1011600071E080E00E9472044EC0913209F04FC0DD
:10117000803239F467E070E08CE091E00E945D0419
:1011800042C0823209F043C08C8580931301809164
:101190000C0190910D01A0910E01B0910F01803BC7
:1011A0009440A105B10579F58091130180FD11C02E
:1011B00087E797E790930108809300089BE088E118
:1011C0000FB6F894A895809360000FBE90936000CE
:1011D0001AC00FB6F894A89580916000886180933A
:1011E0006000109260000FBEA89510920108109246
:1011F000000809C0223059F4E0910A05F0910B056E
:101200000995882321F08EEF8093E80003C081E2E6
:101210008093EB0061960FB6F894DEBF0FBECDBF92
:10122000DF91CF91FF91EF91BF91AF919F918F91FE
:101230007F916F915F914F913F912F911F91FF90FF
:10124000EF900F900FBE0F901F9018958F929F9266
:10125000AF92BF92CF92DF92EF92FF920F931F93C4
:10126000CF93DF9300D01F92CDB7DEB7382F8B011D
:1012700080919201882389F04A018AEFF82E832F0A
:101280008770E82E90E4C92E832F8072B82E2AE34F
:10129000D22E832F8074A82E21C08FEF9FEF5FC0C6
:1012A0008FB7F894E092E9009091E80095FF1AC09A
:1012B0009091F2002C2D291B8FBF211115C0FA949B
:1012C000FF2059F361E070E080E090E039834A83C9
:1012D0005B830E94B11539814A815B81811491043D
:1012E000F9F634C020E0E8CF822F90E08816990606
:1012F0000CF4282D822F90E0881A990A6FB7F89481
:10130000E092E900BB2029F02150A8F01092F100F2
:10131000FBCFF80137FF07C0215058F0749170934C
:10132000F1003196F9CF215020F071917093F100C6
:10133000FACF080F191F8091E80085FF0DC08114B6
:10134000910411F4A11008C06FBFC8CF5D9884E666
:1013500080937103CA0103C0D092E800F5CF0F90CB
:101360000F900F90DF91CF911F910F91FF90EF9011
:10137000DF90CF90BF90AF909F908F900895909105
:101380009201992311F057FF03C08FEF9FEF08954B
:101390002FB7F89487708093E9008091F20090E075
:1013A000841795070CF4AC01842FFB0194E681505F
:1013B00030F090936B033091F1003193F8CF4115E9
:1013C000510521F08091F200882319F02FBFCA0146
:1013D00008958BE68093E800F9CF1F920F920FB625
:1013E0000F9211242F933F934F935F936F937F93AB
:1013F0008F939F93AF93BF93EF93FF93CF93DF931D
:10140000CDB7DEB7C054D109DEBFCDBF8091E100BA
:101410001092E10083FF0FC01092E90091E09093D9
:10142000EB001092EC0092E39093ED001092920189
:1014300098E09093F00082FF46C083E08093E9003B
:101440008091F200882319F08AE38093E8009FB727
:10145000F89482E08093E9008091F2009FBF882396
:1014600021F082E694E00E94EA149FB7F89485E0A8
:101470008093E9008091F2009FBF8823C1F08091A2
:101480000C0590910D05892B91F040E450E0BE01D0
:101490006F5F7F4F85E00E94BF0997FD08C0E09114
:1014A0000C05F0910D05BC01CE01019609958091C6
:1014B0007103882341F080917103815080937103FF
:1014C000811101C05D9AC05CDF4F0FB6F894DEBF9A
:1014D0000FBECDBFDF91CF91FF91EF91BF91AF9143
:1014E0009F918F917F916F915F914F913F912F913C
:1014F0000F900FBE0F901F901895EF92FF920F93D1
:101500001F93CF93DF931F92CDB7DEB789838B01F3
:101510007A0141E050E0BE016F5F7F4F84E00E949E
:101520002609A701B80184E40E9426090F90DF91E3
:10153000CF911F910F91FF90EF9008951F93CF933C
:10154000DF93EC0119819881953009F45DC058F55D
:101550009230D1F1A8F4913009F03CC2E0919301AE
:10156000F09194012DE1129FB001112469527E4F38
:10157000028CF38DE02DCE01DF91CF911F91099464
:10158000933081F1943009F025C2E0919301F091FC
:101590009401ADE11A9FB001112469527E4F048875
:1015A000F589E02D2CC09B3009F493C030F49630BF
:1015B000C9F19A3009F444C00DC29C3009F4C2C08C
:1015C000913F09F411C106C2E0919301F091940199
:1015D0003DE1139FB001112469527E4F0088F189CB
:1015E000E02D0DC0E0919301F09194018DE1189FE1
:1015F000B001112469527E4F0288F389E02DCE019B
:10160000DF91CF911F910994E0919301F0919401A2
:10161000BDE11B9FB001112469527E4F0688F789F6
:10162000E02DEDCFE0919301F09194012DE1129F17
:10163000B001112469527E4F008CF18DE02DDFCF77
:101640001F3F09F41FE79A81913099F4812F0E947E
:10165000DB05E12FF0E0E958FC4F85818111BAC12B
:10166000E0919301F09194010680F781E02D812FA4
:1016700047C0923029F5C1E08C2F0E943B04CF5F18
:10168000CC30D1F7C12FD0E0C958DC4F8D8181110A
:1016900009C0E0919301F09194010084F185E02D5F
:1016A0008FE70995812F0E94DB058D81811192C101
:1016B000E0919301F09194010680F781E02D1FC025
:1016C000933009F087C1812FDF91CF911F910C9446
:1016D0003B0481E01F3FC1F480930B018CE591E056
:1016E000E7EDF1E0DF019C011D9221503040E1F770
:1016F000E0919301F09194010284F385E02D8FE74E
:10170000DF91CF911F910994809309051C3008F057
:1017100061C13DE1139FF0011124E952FE4F108297
:1017200080910B01181710F410930B01E0919301B5
:10173000F09194010284F385E02D812F0995109298
:10174000870348C182E08093880390918903946065
:1017500090938903909189039061909389031092EB
:101760008A031330C1F048F4113089F0123009F0C7
:1017700031C180918903826034C0153079F1B8F0AD
:10178000163009F027C1809189038E7F2AC080918D
:1017900089038D7F26C0E0919301F091940104802C
:1017A000F581E02D80E0099510928A0313C1E09144
:1017B0009301F09194010480F581E02D81E0099579
:1017C00081E080930B018CE591E0E7EDF1E0DF0132
:1017D0009C011D9221503040E1F7FCC080918903AB
:1017E000816080938903F6C08C89813009F0B0C094
:1017F000A981BA81AE31B1053CF0A93037E0B30719
:101800002CF0A8E0B7E002C0AEE1B0E02091980172
:101810003091990140919A0150919B010E94EB2EC9
:1018200028E631E040E050E00E94C12E20935304AE
:10183000309354044093550450935604CA01B9019F
:1018400022E030E040E050E00E94C12E20933403BB
:101850003093350340933603509337038B8981309F
:1018600011F40E94E8188D81893C08F088EC80937F
:101870009F018E81893C08F088EC8093AA018F81BA
:10188000893C08F088EC8093A7018885893C08F0A2
:1018900088EC8093A5018985893C08F088EC8093C9
:1018A000A9018A85893C08F088EC8093A8018B8582
:1018B000893C08F088EC8093A6018C85893C08F06F
:1018C00088EC809333038D85893C08F088EC809305
:1018D000A001288939898091590490915A042817C8
:1018E0003907A4F437FD0AC08091950190919601C3
:1018F00001972817390720F4C90102C080E090E061
:10190000909358048093570483E68C8B8E859F8533
:101910002091570430915804281739070CF04DC016
:1019200023E62C8B181619064CF420919501309162
:1019300096012817390728F4832F05C021E080E09D
:1019400002C0282F892F2093590480935A0435C050
:101950008F3F99F580919D0190919E019A83898393
:1019600080917804909179049C838B8380919F016E
:101970008D838091AA018E838091A7018F838091AE
:10198000A50188878091A90189878091A8018A870C
:101990008091A6018B87809133038C878091A00171
:1019A0008D878091590490915A049F878E878091EA
:1019B000570490915804998B888B8EEB90E09E8B06
:1019C0008D8B40E450E0BE0182EFDF91CF911F91FB
:1019D0000C947D0ADF91CF911F910895DC01683846
:1019E00010F0685825C0E62FF0E067FF12C0E058FD
:1019F000F10981E090E001C0880FEA95EAF780954F
:101A000014969C911497892314968C93149760E0F4
:101A10000FC0E059FE4F6491662311F167FF08C0C3
:101A200014968C9114978D7F14968C9314976F77DE
:101A3000FD01369686E0662321F09081961301C061
:101A40001082815031968111F6CFBD016C5F7F4FBE
:101A500048E050E082E00E947D0A81E090E0089535
:101A600080E090E00895FC011682178210861186AE
:101A7000128613861482BC016C5F7F4F48E050E0F1
:101A800082E00C947D0ADC01683810F068582DC0A3
:101A9000E62FF0E067FF11C0E058F10981E090E027
:101AA00001C0880FEA95EAF714969C911497892B48
:101AB00014968C93149760E018C0E059FE4F64911F
:101AC000611109C081E090E013969C938E93129768
:101AD00080E090E0089567FF08C014968C911497F9
:101AE000826014968C9314976F7716968C91169744
:101AF000861751F117968C911797861729F118962A
:101B00008C911897861701F119968C911997861761
:101B1000D9F01A968C911A978617B1F01B968C9172
:101B20001B97861789F0FD01369680E090E02191A1
:101B3000211105C0FD01E80FF91F668305C001965C
:101B400086309105A1F7BECFBD016C5F7F4F48E0A5
:101B500050E082E00E947D0A81E090E008950895BF
:101B6000CF93DF93FC01EB017181828189838781AF
:101B700090859987888725853685438154816DE1D5
:101B8000769FC001112489529E4FDC011F965C9301
:101B90004E931E9755963C932E93549764E0769FF0
:101BA000D0011124A955BE4F1D921D921D921C9269
:101BB0001397838594859D878C8782858D8381E0AB
:101BC000DF91CF910895FC012281FB012683FC0166
:101BD0008381FB0187830895FC0182819381FB014E
:101BE000978B868B0895DC01FB0112968D919C9159
:101BF0001397978B868B14968D919C911597938F45
:101C0000828F16968C911697848F17968D919C9142
:101C10001897938782870895DC01FB0115968D91B3
:101C20009C911697978B868B13968D919C91149708
:101C3000938F828F19968C911997848317968D9123
:101C40009C911897918F808F0895DC01FB0112966B
:101C50008C911297828313968C9113978383149699
:101C60008D919C911597938B828B16968D919C915B
:101C70001797918B808B08959DE1899FF001112426
:101C8000E952FE4F77876687558B448B94E0899F96
:101C9000F0011124E955FE4F108211821282138245
:101CA0000895089508951092090524E0829FC001C7
:101CB0001124FC01E955FE4F108211821282138219
:101CC000089525E0FC01208384E491E008950895BF
:101CD0008093090508954F925F926F927F928F9241
:101CE0009F92AF92BF92CF92DF92EF92FF920F93AB
:101CF0001F93CF93DF93CDB7DEB72C970FB6F89431
:101D0000DEBF0FBECDBF8C0160919F0170E080E00F
:101D100090E00E943E3020E030E048EC52E40E9427
:101D2000962F69837A838B839C83C80117FF04C035
:101D300088279927801B910B2C01990F660877083B
:101D4000C301B2010E9440306B017C0160915904D3
:101D500070915A04072E000C880B990B0E9440309A
:101D60004B015C0126E636E646E65FE30E94F5306D
:101D700029813A814B815C810E94F5306D837E839D
:101D80008F8398879B01AC01C701B6010E94F03098
:101D900087FDC5C029813A814B815C81C501B401B1
:101DA0000E94F53069877A878B879C8720E030E036
:101DB00040E85FE30E94242F9B01AC01C701B601FC
:101DC0000E94912F87FFABC06D817E818F819885A6
:101DD0000E9408306B017C01A3019201261B370B86
:101DE000480B590BAEE3B0E00E94E02E4B015C01C2
:101DF00069857A858B859C850E9408309B01AC01A2
:101E00002C193D094E095F09C501B4010E94C12E7C
:101E100069017A018FEFC81AD80AE80AF80A560150
:101E200061E08DE00E942515C114D10409F496C02B
:101E3000EFEFCE16D10409F48CC0EEE0F8E0E491A7
:101E40008E2F90E0FC013197EE30F10508F062C072
:101E5000E357FF4F0C94163284B5806884BDC7BC2D
:101E600080C084B5806284BDC8BC7BC08091800086
:101E7000806880938000D0928900C092880071C0F1
:101E800080918000806280938000D0928B00C0920D
:101E90008A0067C080919000806880939000D09203
:101EA0009900C09298005DC08091900080628093FC
:101EB0009000D0929B00C0929A0053C080919000F5
:101EC000886080939000D0929D00C0929C0049C091
:101ED0008091C00080688093C0008091C0008F7B9B
:101EE0008093C000C092CF003CC08091C00080624F
:101EF0008093C000C092D00034C08091C20088603E
:101F00008093C2008091C2008B7F8093C200C092F8
:101F1000D20027C0F0E8AF16B104DCF41FC029815D
:101F20003A814B815C81C501B4010E94F53020E00B
:101F300030E040E85FE30E94242F9B01AC01C70121
:101F4000B6010E94F03061E087FD05C08DE00E947F
:101F5000251581E004C08DE00E94251580E00E94D7
:101F60008E1860919C0170E060587109072E000C7A
:101F7000880B990B0E94403020E030E04FE753E49B
:101F80000E94962F6B017C016093930370939403DE
:101F9000809395039093960320E030E0A9010E947E
:101FA000F0301816ACF4A701960160E070E080E80C
:101FB0009FE30E94242F60938F037093900380937C
:101FC00091039093920380E090E0A0E8BFE330C0DB
:101FD00020E030E0A901C701B6010E94912F87FFE0
:101FE0001BC080E090E0A0E8BFE380938F03909354
:101FF0009003A0939103B09392039C01AD01C7019C
:10200000B6010E94252F60938B0370938C038093FD
:102010008D0390938E0314C080E090E0A0E8BFE3AE
:1020200080938F0390939003A0939103B0939203B6
:1020300080938B0390938C03A0938D03B0938E03B6
:1020400090919701892F827090FFAEC081117CC062
:10205000101611060CF042C08090590490905A045A
:10206000C0905704D09058040D2C000CEE08FF08C7
:102070002801110F66087708092C000CAA08BB0874
:10208000C501B4010E94403020918B0330918C0334
:1020900040918D0350918E030E94F5300E940F30C5
:1020A000CB01A0E0B0E0BC01CD016C197D098E0927
:1020B0009F09A30192010E94F231A50194010E949F
:1020C000C12EC20ED31EE41EF51E1092890010927E
:1020D0008800D0928B00C0928A0024C1011511059E
:1020E00071F18090590490905A04C0905704D09098
:1020F00058040D2C000CEE08FF0844245524401A07
:10210000510A052C000C66087708092C000CAA0857
:10211000BB08C501B4010E94403020918F0330916B
:10212000900340919103509192030E94F5300E94D8
:102130000F30CB01A0E0B0E0BC01CD011CC010927B
:102140008900109288002BC017FD02C02F9A01C091
:102150002F98C0905704D09058040D2C000CEE0816
:10216000FF088090590490905A04092C000CAA088A
:10217000BB08C501B4016C197D098E099F09A30133
:1021800092010E94F231A50194010E94C12EC20E5B
:10219000D31EE41EF51ED0928900C09288001092D2
:1021A0008B0010928A00BEC0811177C010161106F4
:1021B0000CF03FC08090590490905A04C09057048E
:1021C000D09058040D2C000CEE08FF082801110FC8
:1021D00066087708092C000CAA08BB08C501B401E1
:1021E0000E94403020918B0330918C0340918D03ED
:1021F00050918E030E94F5300E940F30CB01A0E079
:10220000B0E0BC01CD016C197D098E099F09A301C5
:1022100092010E94F231A50194010E94C12EC20ECA
:10222000D31EE41EF51E80E090E00E946817C601F0
:1022300061C00115110571F18090590490905A0404
:10224000C0905704D09058040D2C000CEE08FF08E5
:1022500044245524401A510A052C000C66087708BE
:10226000092C000CAA08BB08C501B4010E9440302B
:1022700020918F03309190034091910350919203EC
:102280000E94F5300E940F30CB01A0E0B0E0BC010D
:10229000CD011AC080E090E029C017FD02C02F9A3E
:1022A00001C02F98C0905704D09058040D2C000CFA
:1022B000EE08FF088090590490905A04092C000CF5
:1022C000AA08BB08C501B4016C197D098E099F09D4
:1022D000A30192010E94F231A50194010E94C12E36
:1022E000DA01C9018C0D9D1DAE1DBF1D0E9468172E
:1022F00080E090E02C960FB6F894DEBF0FBECDBF05
:10230000DF91CF911F910F91FF90EF90DF90CF90D1
:10231000BF90AF909F908F907F906F905F904F9005
:102320000C945B172C960FB6F894DEBF0FBECDBF92
:10233000DF91CF911F910F91FF90EF90DF90CF90A1
:10234000BF90AF909F908F907F906F905F904F90D5
:102350000895609195017091960180E090E00E944F
:102360003E309B01AC0160E07EEF8FEF96E40E946F
:10237000962F08952F923F924F925F926F927F9285
:102380008F929F92AF92BF92CF92DF92EF92FF9285
:102390000F931F93CF93DF93CDB7DEB729970FB677
:1023A000F894DEBF0FBECDBF998788874B012B8382
:1023B0001D830C831701DF82CE82042F10E08C81F5
:1023C0009D816C01E12CF12CE885F985F7FD2BC08E
:1023D000C8019695982F882797958795BF01681B08
:1023E000790B072E000C880B990B0E9440302B01B3
:1023F0003C01C701B6010E943E309B01AC01C30104
:10240000B2010E94962F2B013C01C8019695982F8E
:102410008827979587959A838983EB8190E8E99F30
:10242000B00111242AC0B8017695762F66277795DA
:102430006795E885F9856E0F7F1F072E000C880BC6
:10244000990B0E9440302B013C01C701B6010E944C
:102450003E309B01AC01C301B2010E94962F2B01BB
:102460003C0160E86003C001619F900D11249A83D4
:1024700089832B816203B001112488859985681BAB
:10248000790B072E000C880B990B0E9440306B01D2
:102490007C01B10180E090E00E943E309B01AC01E4
:1024A000C701B6010E94962F6B017C018A149B0420
:1024B00008F43FC08E819F818A0D9B1D8816990666
:1024C000C0F50C811D810A0D1B1D8016910690F42C
:1024D000B4016A197B0980E090E00E943E309B01C4
:1024E000AC01C301B2010E94F5300E94083089811D
:1024F0009A811CC08219930988159905E8F48A18F5
:102500009B08EE81FF818E1A9F0AB401620D731D34
:1025100080E090E00E943E309B01AC01C701B60113
:102520000E94F5300E94083088859985860F971F94
:1025300005C080E090E002C08885998529960FB695
:10254000F894DEBF0FBECDBFDF91CF911F910F91E9
:10255000FF90EF90DF90CF90BF90AF909F908F90C3
:102560007F906F905F904F903F902F9008958F9243
:102570009F92AF92BF92CF92DF92EF92FF92CF9352
:10258000DF934B015C01EA010E94FC056B017C01B9
:10259000DE01A50194010E94EB2E0E944030A701AC
:1025A00096010E94F53020E030E040E051E40E94C6
:1025B000F53020E030E040E251E40E94F53020E0C8
:1025C00030E040E85BE30E94F5300E9408300E9452
:1025D000210690958095709561957F4F8F4F9F4F05
:1025E000DF91CF91FF90EF90DF90CF90BF90AF90B1
:1025F0009F908F9008954F925F926F927F928F92EB
:102600009F92AF92BF92CF92DF92EF92FF92CF93C1
:10261000DF9300D000D0CDB7DEB74B015C0157FF90
:1026200002C04D5F5F4F6A01D594C794D594C7949B
:102630000E94FC0569837A838B839C839B01AC0198
:10264000C501B4010E94F53020E030E040E251E4E1
:102650000E94F5302B013C0120E030E040E85FE3D0
:102660000E94F0300D2C000CEE08FF0818161CF428
:10267000C701B60128C020E030E040E85FEBC301AD
:10268000B2010E94912F87FF06C0C701B6010E94C8
:102690002106CB011EC0C701B6010E9440309B013C
:1026A000AC01C501B4010E94F53029813A814B810A
:1026B0005C810E94F53020E030E040E251E40E946D
:1026C000F5300E9408300E94210688279927861B32
:1026D000970B0F900F900F900F90DF91CF91FF907D
:1026E000EF90DF90CF90BF90AF909F908F907F90B2
:1026F0006F905F904F9008958F929F92AF92BF928C
:10270000CF92DF92EF92FF924B015C01BA01550F1D
:10271000880B990B0E9440306B017C0120E030E077
:10272000A901C501B4010E94F030A5019401181659
:102730000CF05058C701B6010E94F5306B017C01C6
:102740000E94FC059B01AC01C701B6010E94F53057
:1027500020E030E040E851E40E94F53020E030E035
:1027600040E251E40E94F53020E030E040E05DE3DB
:102770000E94F5300E9408300E9421066B017C0106
:1027800020E030E0A901C501B4010E94F030181624
:102790002CF4882799278C199D090DC020E030E082
:1027A000A901C501B4010E94912F87FF02C0C60193
:1027B00002C080E090E0FF90EF90DF90CF90BF905C
:1027C000AF909F908F900895CF92DF92EF92FF92FB
:1027D0000F931F93CF93DF936C01EB017B01E40E0A
:1027E000F51E00E010E0CE15DF0561F06991D6011D
:1027F000ED91FC910190F081E02DC6010995080F43
:10280000191FF1CFC801DF91CF911F910F91FF9058
:10281000EF90DF90CF90089583E08093E90080915E
:10282000F200882319F08AE38093E800089520914C
:102830004F04309150048091510490915204281714
:102840003907A9F0E0915104F0915204E15FFB4F88
:10285000808120915104309152042F5F3F4F2F739C
:102860003327309352042093510490E008958FEF62
:102870009FEF089520914F043091500480915104AE
:10288000909152042817390749F0E0915104F091D2
:102890005204E15FFB4F808190E008958FEF9FEF3E
:1028A000089580914F0490915004209151043091EB
:1028B0005204821B930B8F739927089585ED8093A3
:1028C000BC008091BC0084FDFCCF1092E003089511
:1028D0004091BA03262F30E0240F311D21323105FB
:1028E000DCF42091E0032430C9F4FC0180E090E0A6
:1028F000861758F43091BA032191DC01A856BC4FD9
:10290000A30FB11D2C930196F3CF8091BA03680FEA
:102910006093BA0380E0089581E0089582E008950D
:1029200008958FEF9FEF08958FEF9FEF08958091A7
:10293000970390E09195819591090895CF93DF9346
:1029400000D0CDB7DEB7CB01642F49835A830E94F4
:1029500068144981842F5A81952F0F900F90DF9131
:10296000CF910895CF93DF931F92CDB7DEB76983E0
:1029700061E0CE0101960E94681481E090E00F9022
:10298000DF91CF9108950E9423320F931F93CF932D
:10299000DF931F92CDB7DEB78C016983809113015D
:1029A000882359F041E050E0BE016F5F7F4F83E024
:1029B0000E942609181619063CF081E090E0F80103
:1029C0009383828380E090E00F90DF91CF911F91FD
:1029D0000F9108950F931F93CF93DF931F92CDB75D
:1029E000DEB700914F04109150040F5F1F4F0F731B
:1029F0001127809151049091520408171907F9F09A
:102A000041E050E0BE016F5F7F4F82E00E94BF094E
:102A1000019719F4898190E002C08FEF9FEF8F3FFB
:102A20002FEF920761F0E0914F04F0915004E15FC5
:102A3000FB4F80831093500400934F04D2CF0F902C
:102A4000DF91CF911F910F910895CF93DF9390E085
:102A5000FC01EE51F84F2491FC01ED53F84F8491A5
:102A6000882361F190E0880F991FFC01E955F84F28
:102A7000C591D491FC01EB54F84FA591B49161112B
:102A800009C09FB7F8948881209582238883EC91B0
:102A90002E230BC0623061F49FB7F8943881822FE7
:102AA000809583238883EC912E2B2C939FBF06C0A7
:102AB0008FB7F894E8812E2B28838FBFDF91CF91B9
:102AC0000895823108F08251E82FF0E0E556F84F82
:102AD000E49180917B00E3FB222720F930E095E030
:102AE000220F331F9A95E1F78F7D282B20937B00CF
:102AF000E770E064E0937C0080917A0080648093CA
:102B00007A0080917A0086FDFCCF80917800209138
:102B1000790090E0922B08953FB7F89480910B04D0
:102B200090910C04A0910D04B0910E0426B5A89BC1
:102B300005C02F3F19F00196A11DB11D3FBFBA2F4F
:102B4000A92F982F8827820F911DA11DB11DBC01AF
:102B5000CD0142E0660F771F881F991F4A95D1F774
:102B60000895CF92DF92EF92FF92CF93DF936B01A4
:102B70007C010E948C15EB01C114D104E104F10425
:102B800079F00E948C156C1B7D0B683E7340A0F39E
:102B900081E0C81AD108E108F108C851DC4FECCF38
:102BA000DF91CF91FF90EF90DF90CF9008952FB7F6
:102BB000F894609107047091080480910904909141
:102BC0000A042FBF08951F920F920FB60F9211247F
:102BD0002F933F938F939F93AF93BF93809107045D
:102BE00090910804A0910904B0910A043091060460
:102BF00023E0230F2D3720F40196A11DB11D05C040
:102C000026E8230F0296A11DB11D20930604809390
:102C1000070490930804A0930904B0930A048091D8
:102C20000B0490910C04A0910D04B0910E04019638
:102C3000A11DB11D80930B0490930C04A0930D046F
:102C4000B0930E04BF91AF919F918F913F912F91BF
:102C50000F900FBE0F901F9018951F920F920FB6F6
:102C60000F9211242F933F934F935F936F937F9312
:102C70008F939F93AF93BF93EF93FF938091B9008E
:102C8000887F803609F49CC068F5883209F45BC0FF
:102C900090F4803109F454C038F4882309F4F6C064
:102CA000883009F44DC0F6C0883109F44CC0803238
:102CB00009F45DC0EFC0803409F468C048F4803383
:102CC00009F455C0883309F0E5C08093DF03D8C00C
:102CD000803509F44FC0883509F45DC0883409F0A7
:102CE000D9C0D6C0883909F4C7C0A8F4883709F418
:102CF00067C038F4883609F463C0803709F460C0CF
:102D0000C9C0883809F4B8C0803909F45FC0803878
:102D100009F0C0C05BC0803B09F486C038F4803A3B
:102D200009F466C0883A09F47FC0B4C0803C09F455
:102D3000A7C0883C09F4A4C0883B09F48AC0AAC093
:102D40008091050410C090910404809103049817A9
:102D500070F5E091040481E08E0F80930404F0E0AC
:102D6000ED51FC4F80818093BB0085EC86C0809341
:102D7000DF038EC0E091040481E08E0F8093040491
:102D80008091BB00F0E0ED51FC4F808390910404F2
:102D9000809103046EC0E091040481E08E0F809363
:102DA00004048091BB00F0E0ED51FC4F80838091E2
:102DB000E20381116DC081E08093E10384EA61C088
:102DC00083E08093E0031092DE03CFCF8091DE0397
:102DD000803208F051C0E091DE0381E08E0F8093D5
:102DE000DE038091BB00F0E0E254FC4F8083BDCF56
:102DF00085EC8093BC001092E0038091DE0380326A
:102E000030F4E091DE03F0E0E254FC4F1082609178
:102E1000DE0370E0E091BC03F091BD038EEB93E024
:102E200009951092DE0336C084E08093E00310928F
:102E3000BB031092BA03E091B803F091B90309956E
:102E40008091BA03811105C081E08093BA0310928A
:102E50009803E091BB0381E08E0F8093BB03F0E009
:102E6000E856FC4F80818093BB009091BB0380911A
:102E7000BA03981708F479CF85E88093BC000AC09C
:102E800085EC8093BC001092E00304C01092DF0335
:102E90000E945E14FF91EF91BF91AF919F918F912E
:102EA0007F916F915F914F913F912F910F900FBE46
:102EB0000F901F9018952091950130919601281739
:102EC000390708F4C90190938B0080938A00089514
:102ED00020919501309196012817390708F4C9010E
:102EE000909389008093880008950F931F930E9408
:102EF000D71560936A0470936B0480936C0490936D
:102F00006D04E0916204F09163040084F185E02D8A
:102F100082E694E0099597FF1FC00E94D7150091A3
:102F20006A0410916B0420916C0430916D04DC01F3
:102F3000CB01801B910BA20BB30B00916604109187
:102F40006704209168043091690480179107A207F3
:102F5000B307B8F28FEF9FEF1F910F9108959091F3
:102F6000610489B18C70892B90E09C01359527957F
:102F7000359527952093610440915D0450915E043E
:102F800060915F0470916004FC01E75BFE4F8081FB
:102F9000082E000C990BAA0BBB0B840F951FA61FC4
:102FA000B71F80935D0490935E04A0935F04B09379
:102FB000600480915C040895E0916204F0916304E0
:102FC0000190F081E02D682F82E694E00994CF9380
:102FD000DF938DE00E94DC17EC018AE00E94DC1791
:102FE0008C0F9D1FDF91CF910895009769F0FC0130
:102FF00001900020E9F73197AF01481B590BBC0144
:1030000082E694E00C94E41380E090E008958F92BF
:103010009F92AF92BF92EF92FF920F931F93CF9325
:10302000DF93CDB7DEB7A1970FB6F894DEBF0FBE22
:10303000CDBF162F042F19A2423008F40AE07E01FA
:1030400021E2E20EF11C802E912CA12CB12C612FDB
:10305000A50194010E94F32E029F1019112481E012
:10306000E81AF1081A3014F4105D01C0195CF70178
:103070001083122F732FCA01232B242B252B39F7F2
:10308000C7010E94F517A1960FB6F894DEBF0FBED8
:10309000CDBFDF91CF911F910F91FF90EF90BF9027
:1030A000AF909F908F900895CF92DF92EF92FF9212
:1030B000CF93DF9397FF19C06B017C018DE20E94D3
:1030C000DC17EC0166277727CB016C197D098E0987
:1030D0009F094AE00E9407188C0F9D1FDF91CF9136
:1030E000FF90EF90DF90CF9008954AE0DF91CF916D
:1030F000FF90EF90DF90CF900C940718CF93DF9361
:10310000BC01990F880B990B0E945418EC010E9486
:10311000E7178C0F9D1FDF91CF910895EEE0F8E047
:103120004491EFEEF7E09491E0EDF7E02491222353
:1031300009F44DC04423C1F150E0FA013197EE305B
:10314000F10590F5E556FF4F0C9416323091800052
:103150003F7703C0309180003F7D3093800024C0D2
:1031600034B53F7702C034B53F7D34BD1DC03091CA
:1031700090003F7707C0309190003F7D03C03091B1
:103180009000377F309390000FC03091C0003F77A0
:1031900003C03091C0003F7D3093C00005C0309126
:1031A000C200377F3093C200E22FF0E0EE0FFF1F26
:1031B000EB54F84FA591B4912FB7F894EC9181118D
:1031C00003C090959E2301C09E2B9C932FBF089512
:1031D0004F925F926F927F928F929F92AF92BF9227
:1031E000CF92DF92EF92FF92CF93DF93F894C0904B
:1031F0005D04D0905E04E0905F04F09060047894E9
:103200008091590490915A042091570430915804A8
:10321000821B930B97FD03969595879595958795BA
:103220000E946B0E68EC70E080E090E00E94B115A7
:1032300026013701C8EED3E08091590490915A04D9
:103240002091570430915804821B930B97FD0396ED
:1032500095958795959587950E946B0E68EC70E023
:1032600080E090E00E94B115F89480905D04909009
:103270005E04A0905F04B0906004789448145904F0
:103280006A047B0421F0219724013501A9F680917D
:10329000530490915404A0915504B0915604F894AD
:1032A00080935D0490935E04A0935F04B0936004E8
:1032B000789480E090E00E946B0EC814D904EA0470
:1032C000FB0411F482E001C081E080937C0481E082
:1032D00090E0DF91CF91FF90EF90DF90CF90BF9083
:1032E000AF909F908F907F906F905F904F900C94D5
:1032F0007E18682F70E080E090E04AE00C94071898
:10330000FF920F931F93CF93DF9300D000D0CDB7E0
:10331000DEB70E947517FC0197FD11C08D32910533
:1033200091F0C0970A9778F0E0916204F0916304FD
:103330000680F781E02D82E694E00995EACF60E00F
:1033400070E0CB014CC020E030E0A901F12CE1306D
:10335000F105F1F0ED32F105C9F0CF01C0970A9700
:10336000B8F4AAE0B0E00E94E02E8F01FF0F220B1C
:10337000330BDC01CB01800F911FA21FB31F9C01F7
:10338000AD01205331094109510902C0FF24F394D2
:10339000E0916204F09163040680F781E02D82E6FB
:1033A00094E029833A834B835C8309950E947517C7
:1033B000FC01C09729813A814B815C810A9738F2E0
:1033C000E130F10521F2FF2041F066277727CB019C
:1033D000621B730B840B950B02C0CA01B9010F90DD
:1033E0000F900F900F90DF91CF911F910F91FF9051
:1033F0000895CF93DF93CDB7DEB7C454D1090FB68C
:10340000F894DEBF0FBECDBF789484B5826084BDD2
:1034100084B5816084BD85B5826085BD85B58160D8
:1034200085BD80916E00816080936E001092810056
:103430008091810082608093810080918100816011
:1034400080938100809180008160809380008091D2
:1034500091008260809391008091910081608093BF
:103460009100809190008160809390008091C100D4
:1034700084608093C1008091C10082608093C1000C
:103480008091C10081608093C1008091C300816000
:103490008093C3008091C00082608093C0008091BF
:1034A000C20081608093C20080917A008460809322
:1034B0007A0080917A00826080937A0080917A000D
:1034C000816080937A0080917A00806880937A008E
:1034D0001092920181E08093D70080EA8093D80017
:1034E00082E189BD09B400FEFDCF61E070E080E0BB
:1034F00090E00E94B11580E98093D8008CE0809321
:10350000E2001092E0000E948C15609363037093B8
:103510006403809365039093660310923B031092BB
:103520005A031092590310925103109252031092B1
:1035300053031092540310925803109257031092A1
:103540005F0310926003109261031092620342E0E5
:10355000BE01615F7F4F80E090E00E9421078F8570
:1035600098898E3B910509F4C4C08EEB90E09E874C
:103570008D8742E0BE01635F7F4F80E090E00E9454
:10358000F20619821A821B821C8244E0BE016F5F20
:103590007F4F82E090E00E94F20688E394E09E87ED
:1035A0008D8742E0BE01635F7F4F86E090E00E941E
:1035B000F20684E6898B41E0BE016F5E7F4F88E0B2
:1035C00090E00E94F20641E0BE016F5E7F4F8BE00B
:1035D00090E00E94F20641E0BE016F5E7F4F8CE0FA
:1035E00090E00E94F20641E0BE016F5E7F4F80E1F5
:1035F00090E00E94F20641E0BE016F5E7F4F8DE0D9
:1036000090E00E94F20682E3898B41E0BE016F5E8A
:103610007F4F89E090E00E94F20641E0BE016F5EBC
:103620007F4F8AE090E00E94F20641E0BE016F5EAB
:103630007F4F8EE090E00E94F20686E4898B41E0A5
:10364000BE016F5E7F4F8FE090E00E94F2061E8603
:103650001D8642E0BE01635F7F4F81E190E00E94E2
:10366000F20684EF91E09E878D8742E0BE01635FA2
:103670007F4F83E190E00E94F2068FEF9FE09E87EC
:103680008D8742E0BE01635F7F4F85E190E00E943D
:10369000F20680E890E09E878D8742E0BE01635F7E
:1036A0007F4F87E190E00E94F20681E0898B41E044
:1036B000BE016F5E7F4F88E190E00E94F20680E6D7
:1036C00099E0A0E0B0E089839A83AB83BC8344E0B7
:1036D000BE016F5F7F4F89E190E00E94F20689E0B2
:1036E000898B41E0BE016F5E7F4F8DE190E00E94CB
:1036F000F20642E06DE971E086E090E00E94210769
:1037000044E068E971E089E190E00E94210741E02E
:103710006FE971E088E090E00E94210741E067EAEC
:1037200071E089E090E00E94210741E065EA71E0E4
:103730008AE090E00E94210741E06AEA71E08BE0B4
:1037400090E00E94210741E069EA71E08CE090E09E
:103750000E94210741E068EA71E08DE090E00E945C
:10376000210741E066EA71E08EE090E00E942107C7
:1037700041E063E373E08FE090E00E94210741E0C5
:1037800060EA71E080E190E00E94210741E06CE98D
:1037900071E087E190E00E94210741E062E473E07C
:1037A00088E190E00E94210742E067E574E081E152
:1037B00090E00E94210742E069E574E083E190E037
:1037C0000E94210742E06CE373E085E190E00E94F3
:1037D00021076091570470915804072E000C880B44
:1037E000990B0E9440306B017C01809159049091AB
:1037F0005A04BC01990F880B990B0E9440309B0121
:10380000AC01C701B6010E94962F60933E037093EE
:103810003F03809340039093410341E067E971E0E7
:103820008DE190E00E9421076091980170919901CB
:1038300080919A0190919B010E94403020E030E0FD
:1038400044EB53E40E94962F6B017C0180919D0113
:1038500090919E01BC01990F880B990B0E944030FA
:103860009B01AC01C701B6010E94F5300E940830EF
:1038700060935304709354048093550490935604BA
:1038800022E030E040E050E00E94C12E209334035B
:1038900030933503409336035093370362E080E062
:1038A00022962FAF229725963FAF259723964FAFAD
:1038B000239724965FAF24970E94251562E081E04C
:1038C0000E94251510925C0422962FAD2297259612
:1038D0003FAD259723964FAD239724965FAD249750
:1038E00020935D0430935E0440935F045093600422
:1038F000109261044A9B05C08091610481608093AD
:1039000061044B9B05C080916104826080936104D7
:10391000809169008F7C806180936900EA9A809130
:1039200069008F73806480936900EB9A60E082E1A4
:103930000E94251560E083E10E94251560E084E186
:103940000E94251560E085E10E94251562E084E073
:103950000E94251562E086E10E94251562E087E15C
:103960000E94251562E08CE00E94251562E086E049
:103970000E94251562E087E00E94251562E088E03C
:103980000E94251562E085E00E94251584E191E002
:10399000909394018093930189EB94E090930B05AD
:1039A00080930A058EE99AE090930D0580930C05AB
:1039B000279A3F9A809197010E944A079093960117
:1039C0008093950190935A0480935904259A269ADE
:1039D0008091970180FF10C080EA8093800081E190
:1039E000809381008091950190919601909387003A
:1039F0008093860013E03BC01092800010928100FB
:103A000010926F0016BA8091950190919601909353
:103A1000870080938600109289001092880010928F
:103A20008B0010928A0080918100816080938100D8
:103A30008091800082608093800080918100886105
:103A40008093810080E090E00E9468178091800060
:103A5000806880938000259A80E090E00E945B1748
:103A600080918000806280938000269AC3CF479A1D
:103A700064E170E080E090E00E94B115479864E155
:103A800070E080E090E00E94B115115081F780E075
:103A900090E00E946B0E8091340390913503A091C9
:103AA0003603B0913703F89480935D0490935E04DD
:103AB000A0935F04B0936004789488E090E09093C2
:103AC0004803809347038FEF97E090933A038093E6
:103AD000390380919C01809338030E948C15609378
:103AE0007404709375048093760490937704009126
:103AF0006703109168032091690330916A032B01D9
:103B00003C01401A510A620A730A409270045092B2
:103B100071046092720470927304009163031091B7
:103B2000640320916503309166036B017C01C01A28
:103B3000D10AE20AF30A40EDC41647E0D406E104D4
:103B4000F10410F40C940B2E6093630370936403E0
:103B50008093650390936603F89440915D045091BF
:103B60005E0460915F0470916004789480913403E6
:103B700090913503A0913603B09137032A013B01A0
:103B8000481A590A6A0A7B0A4E8A5F8A688E798EB9
:103B900040925F03509260036092610370926203EF
:103BA00080917D0490917E04A0917F04B091800467
:103BB00040927D0450927E0460927F047092800453
:103BC00020918504222309F446C01091AE0404E03C
:103BD000109F90011124A90143585B4F7A01481AA4
:103BE000590A6A0A7B0AC301B2010E944030D70118
:103BF00019966D937D938D939C931C97012FAAE04A
:103C0000FA2E60E070E0CB01B4E00B9FF0011124CC
:103C1000E358FB4F21853285438554850E94252F2B
:103C2000002311F0015001C009E0FA94F110ECCF2B
:103C300020E030E040E251E40E94962F1F5F1A30EE
:103C400018F41093AE0402C01092AE046CA77DA7C6
:103C50008EA79FA70FC081E08093850410928104F6
:103C60001092820410928304109284041CA61DA654
:103C70001EA61FA62091AF043091B0044091B1045C
:103C80005091B2048CA59DA5AEA5BFA58093AF04AD
:103C90009093B004A093B104B093B2048091B704A0
:103CA000882309F443C010910805E4E01E9FC00179
:103CB0001124BC016A577B4F7B016CA57DA5CD010A
:103CC0000E94242FD701D2966D937D938D939C9360
:103CD000D597012FF4E1FF2E60E070E0CB01B4E056
:103CE0000B9FF0011124EA57FB4F22A933A944A9E5
:103CF00055A90E94252F002311F0015001C003E1B6
:103D0000FA94F110ECCF20E030E040EA51E40E9458
:103D1000962F1F5F143118F41093080502C01092FB
:103D200008056CAB7DAB8EAB9FAB0FC081E0809381
:103D3000B7041092B3041092B4041092B504109218
:103D4000B6041CAA1DAA1EAA1FAA809109058823D1
:103D500009F441C08E899F89A88DB98DB7FF07C02E
:103D6000B095A095909581959F4FAF4FBF4F02970B
:103D7000A105B1050CF4DCC78091420380FFD8C7D0
:103D80000E94A9119B01AC0160E070E080E094E426
:103D90000E94962F6B017C016091330370E080E0FC
:103DA00090E00E9440309B01AC01C701B6010E9427
:103DB000F53020E030E048EC52E40E94962F0E945B
:103DC0000830AB016E897F89888D998D0E94B7126A
:103DD0002B013C01B0C7EBEAF1E0FBA7EAA71B8A85
:103DE0001A8A412C512C32010A891B890F5F1F4FFF
:103DF0001B8B0A8B4DE19801429F8001439F100D60
:103E0000112409521E4FD8018C918370833009F020
:103E100082C70E94A9116B017C01F80120853185C0
:103E2000A689B7890E941C322FEF3FE740E050E09F
:103E30000E94C12ECA01B9010E944030A70196011B
:103E40000E94962F0E9408306B017C01D8011A96BF
:103E50008D919C911B97059730F4E4E0F0E01B9660
:103E6000FC93EE931A972DE10A891B89209FF0019C
:103E7000219FF00D1124E952FE4FE1818E2F90E039
:103E8000FC013197ED30F10508F02FC7EA5AFF4FDA
:103E90000C9416320E94A9116A8F7B8F8C8F9D8F94
:103EA0006DE14A895B89649FC001659F900D112473
:103EB000DC01A952BE4F1D0118968D909C90199758
:103EC0005496AD90BC9055971E96CD90DC901F9760
:103ED0005096ED90FC90519752960D911C915397EE
:103EE00013962C91139712964C91129756968D918A
:103EF0009C915797EAA5FBA5608171810E94BA1138
:103F00009401DC010E941C322FEF3FE740E050E0BB
:103F10000E94C12ECA01B9010E9440302A8D3B8DFA
:103F20004C8D5D8D0E94962F0E9408300E942106C4
:103F30009B01AC01A091AA01B0E00E94E02E24E612
:103F400030E040E050E00E94C12E421A530A640A59
:103F5000750AD10115968C91159782FFC6C61C96DD
:103F60006D917C911D9780E090E00E943E302BED9A
:103F70003FE049EC50E40E94F53020E030E040E0C2
:103F800058E30E94F5300E9462319B01AC01C301ED
:103F9000B20122962FAF229725963FAF2597239601
:103FA0004FAF239724965FAF24970E94403022960C
:103FB0002FAD229725963FAD259723964FAD23979A
:103FC00024965FAD24970E94F5300E9408302B01A3
:103FD0003C018BC60E94A9116A8F7B8F8C8F9D8FAD
:103FE0005DE1E52ECA88DB88EC9CF001ED9CF00DCC
:103FF0001124E952FE4F008511851F8F0E8FC48852
:10400000D588DBA2CAA2E684F784FFA2EEA20089CB
:10401000118919AB08AB028913891EAF0DAF8380DC
:104020009280AAA5BBA52D903C9006851785678137
:10403000A6800A2C000CBB08062E000C770B6A1910
:104040007B09CB01770FAA0BBB0B6627782F892F33
:104050009A2F0E9440306B017C01B80180E090E013
:104060000E943E3020E030E04AE754E40E94962F60
:104070009B01AC01C701B6010E94962F6B017C0128
:10408000C101B8010E940232BC0180E090E00E94B0
:104090003E3020E030E04AE754E40E94962F9B0136
:1040A000AC01C701B6010E94F5300E940830BA2C5D
:1040B000AA24C501860F971FAAA0BBA0CEA0DFA08F
:1040C000E8A8F9A80DAD1EAD282D492DB1010E941B
:1040D000BA112E8D3F8DDC010E941C322FEF3FE77D
:1040E00040E050E00E94C12ECA01B9010E94403058
:1040F0002A8D3B8D4C8D5D8D0E94962F0E9408303D
:104100000E942106461A570A680A790AEEC50E94DB
:10411000A9116A8F7B8F8C8F9D8F4DE1E42ECA8809
:10412000DB88EC9CF001ED9CF00D1124E952FE4F70
:10413000008511851F8F0E8F228D338D3BA32AA3FF
:10414000348D3EA382849384A488B588C684D784A2
:10415000E088F1880289138923814281AAA5BBA541
:104160002D903C9086899789B1010E94BA118C01EB
:10417000B40180E090E00E943E3020E030E04AE769
:1041800054E40E94962F9B01AC0160E070E080E84F
:104190009FE30E94962F6B017C01C101B4010E9434
:1041A0000232BC0180E090E00E943E3020E030E02E
:1041B0004AE754E40E94962F9B01AC01C701B60167
:1041C0000E94F5306B017C01BEA16B2F70E080E096
:1041D00090E00E943E3020E030E040E85BE30E9447
:1041E000F5309B01AC01C701B6010E94252F2BEDD4
:1041F0003FE049EC50E40E94F5300E9462319B019F
:10420000AC01EAA1FBA16F01FF0FEE08FF08B801A6
:10421000110F880B990B22962FAF229725963FAF4F
:10422000259723964FAF239724965FAF24970E943C
:10423000403022962FAD229725963FAD25972396A5
:104240004FAD239724965FAD24970E94F5300E94CE
:104250000830CB01770FAA0BBB0BA7019601280FE3
:10426000391F4A1F5B1FAE8DBF8D0E94E02E2FEFBE
:104270003FE740E050E00E94C12ECA01B9010E9410
:1042800040302A8D3B8D4C8D5D8DCEC00E94A91192
:104290006E8F7F8F88A399A33DE1E32ECA88DB88C8
:1042A000EC9CF001ED9CF00D1124E952FE4F0085CD
:1042B00011851BA30AA3228D338DA901330F660B31
:1042C000770B4EA35FA368A779A7548D58AB2284C0
:1042D0003384A488B588C684D784E088F1880289AD
:1042E000138923814281AAA5BBA50D90BC91A02D65
:1042F000BB8FAA8F86899789BD010E94BA11BC0124
:10430000990F880B990B0E9440306B017C01B10121
:1043100080E090E00E943E3020E030E04AE754E444
:104320000E94962F9B01AC0160E070E080E89FE363
:104330000E94962F4B015C018A8D9B8DB1010E94DA
:104340000232BC0180E090E00E943E3020E030E08C
:104350004AE754E40E94962F9B01AC01C501B401C9
:104360000E94F5304B015C01B8A96B2F70E080E032
:1043700090E00E943E3020E030E040E85BE30E94A5
:10438000F5309B01AC01C501B4010E94252F2BED36
:104390003FE049EC50E40E94F5300E9462314B014D
:1043A0005C0120E030E0A9010E94F03087FF0CC0E2
:1043B00020E030E0A901C501B4010E94912F87FFE0
:1043C00005C0EFEFEAAF02C0F1E0FAAF0AAD602F2F
:1043D000000F770B880B990B0E9440309B01AC01BA
:1043E000C701B6010E94F5300E940830CB01770F5B
:1043F000AA0BBB0B2EA13FA148A559A5280F391F19
:104400004A1F5B1FAAA1BBA10E94E02E2FEF3FE72E
:1044100040E050E00E94C12ECA01B9010E94403024
:104420002E8D3F8D48A159A10E94962F0E940830E1
:104430009B01AC01A091A901B0E00E94E02E24E60E
:1044400030E040E050E00E94C12E420E531E641E38
:10445000751E4BC40E94A9116AA37BA38CA39DA3C4
:104460004DE12A893B89429FF001439FF00D1124C1
:10447000E952FE4F608571857FA36EA3228D338D37
:10448000C901330FAA0BBB0B88AB99ABAAABBBAB73
:10449000348DA285B385BB8FAA8FA488B588C684C6
:1044A000D784E088F1880289138923814281AAA5F3
:1044B000BBA50D90BC91A02DBF8FAE8F868997892B
:1044C000BD0125963FAF25970E94BA111C01EA8DC8
:1044D000FB8DBF0180E090E00E943E304B015C010B
:1044E00025963FAD259760E4630F70E080E090E093
:1044F0000E943E3020E030E040E85BE30E94F5306F
:10450000A50194010E94F5300E940F308E8D9F8D81
:10451000860F971F6A8D7B8D0E9402328C01BC0131
:1045200080E090E00E943E3020E030E04AE754E432
:104530000E94962F6B017C0120E030E0A9010E94CF
:10454000F03087FD3CC020E030E04AE754E4C5018C
:10455000B4010E94962F6E8F7F8F88A399A320E0CD
:1045600030E040E05FE30E94F5309B01AC01C70101
:10457000B6010E94912F87FF22C0B101032C000CCD
:10458000880B990B0E94403020E030E040E850E476
:104590000E94F5302E8D3F8D48A159A10E94962F83
:1045A000A70196010E94F5300E94083031942194B1
:1045B00031086101C60ED71ED9AEC8AE51C020E089
:1045C00030E04AE754E4C501B4010E94962F4B0144
:1045D0005C0120E030E040E05FE30E94F5309B01A9
:1045E000AC01C701B6010E94F03087FD39C0A501BA
:1045F0009401C701B6010E94912F87FF31C0B1011C
:10460000032C000C880B990B0E94403020E030E016
:1046100040E850EC0E94F530A50194010E94962FCD
:104620006B017C018A8D9B8D96958795B801681BDF
:10463000790B80E090E00E943E3020E030E04AE7D5
:1046400054E40E94962F9B01AC01C701B6010E9461
:10465000F5300E9408307101E60EF71EF9AEE8AEA3
:1046600008AD19ADC801110FAA0BBB0B28A939A9B8
:104670004AA95BA9280F391F4A1F5B1FAEA1BFA122
:104680000E94E02E2FEF3FE740E050E00E94C12E55
:10469000CA01B9010E9440302AA13BA14CA15DA1F1
:1046A000C3CE0E94A9116E8F7F8F88A399A34DE17D
:1046B0002A893B89429FF001439FF00D1124E95262
:1046C000FE4F608571857BA36AA3228D338DC9015E
:1046D000330FAA0BBB0B8EA39FA3A8A7B9A7348D3A
:1046E00022843384A488B588C684D784E088F1887E
:1046F0000289138923814281AAA5BBA58D909C9034
:1047000086899789B40125963FAF25970E94BA11F3
:104710009B8F8A8FB10180E090E00E943E306B0158
:104720007C0125963FAD259760E8630F70E080E03F
:1047300090E00E943E3020E030E040E85BE30E94E1
:10474000F530A70196010E94F5300E940F30C40198
:10475000860F971FB1010E9402328C0182159305CA
:10476000D8F5EA8DFB8DBF01FF0F880B990B0E94D6
:1047700040309B01AC010E94252F4B015C0120E0E1
:1047800030E04AE754E4C701B6010E94962F9B012E
:10479000AC01C501B4010E94962F6B017C01B801E8
:1047A00080E090E00E943E3020E030E04AE754E4B0
:1047B0000E94962F9B01AC01C701B6010E94F53003
:1047C0000E9408302A8D3B8D319521953109690170
:1047D000C60ED71EDCAECBAEEBACFCACC701FF0CFB
:1047E000AA0BBB0B07CE0E94A9116E8F7F8F88A3E7
:1047F00099A32DE10A891B89209FF001219FF00DCB
:104800001124E952FE4F408551855BA34AA3228DB6
:10481000338DB901330F880B990B6EA37FA388A743
:1048200099A7348D22843384A488B588C684D7841C
:10483000E088F1880289138923814281AAA5BBA55A
:104840008D909C9086899789B40125963FAF2597D6
:104850000E94BA119B8F8A8FB10180E090E00E9484
:104860003E306B017C0125963FAD259760E8630FD4
:1048700070E080E090E00E943E3020E030E040E8D0
:104880005BE30E94F530A70196010E94F5300E947B
:104890000F30C401860F971FB1010E9402328C01B4
:1048A00082159305E0F56A8D7B8D7195619571098F
:1048B000072E000C880B990B0E9440309B01AC0125
:1048C0000E94252F4B015C0120E030E04AE754E4D0
:1048D000C701B6010E94962F9B01AC01C501B4012E
:1048E0000E94962F6B017C01B80180E090E00E944D
:1048F0003E3020E030E04AE754E40E94962F9B01CE
:10490000AC01C701B6010E94F5300E940830EA8D63
:10491000FB8DE60FF71F2196FFAFEEAF2197219693
:10492000CEACDFAC2197C601DD0CAA0BBB0B62CD70
:104930002DE10A891B89209FF001219FF00D112490
:10494000E952FE4FA28DB38D8090340390903503D1
:10495000A0903603B0903703A50194010E94EB2E7E
:10496000DC01CB010FE0B595A795979587950A9542
:10497000D1F7092E000CAA0BBB0B4E895F89688DFD
:10498000798D481B590B6A0B7B0B141615061606FE
:104990001706C4F4A28DB38DA50194010E94EB2EDD
:1049A000DC01CB011FE0B595A795979587951A95E2
:1049B000D1F7092E000CAA0BBB0B4E895F89688DBD
:1049C000798D17C0A28DB38DA50194010E94EB2EA5
:1049D000AB01BC01FFE07595679557954795FA9532
:1049E000D1F7052E000C660B770B8E899F89A88D59
:1049F000B98D481B590B6A0B7B0B0DE1AA89BB894A
:104A00000A9FF0010B9FF00D1124E952FE4F8481A3
:104A100018E0819FC0011124092E000CAA0BBB0BCA
:104A200084179507A607B7070CF05FC1A28DB38D59
:104A3000A50194010E94EB2EDC01CB01EFE0B595BE
:104A4000A79597958795EA95D1F7092E000CAA0BA3
:104A5000BB0B2E893F89488D598D281B390B4A0B7A
:104A60005B0B57FD05C078EF272E33243A9403C023
:104A700068E0262E312C6DE14A895B89649FF00144
:104A8000659FF00D1124E952FE4F04810A8F028DBB
:104A9000138DA091A801B0E0A70196010E94E02E1D
:104AA00020E436E040E050E00E94C12E2E8F3F8F80
:104AB00048A359A3CA8CC29CB001C39C700D112499
:104AC0006B01770FEE08FF082E893F89488D598DBD
:104AD000C20ED31EE41EF51ED801A50194010E944A
:104AE000EB2EDC01CB015FE0B595A79597958795F7
:104AF0005A95D1F7092E000CAA0BBB0B9701860122
:104B0000081B190B2A0B3B0BC901B8014E8D5F8D99
:104B10000E94B712460E571E681E791EE6C04DE170
:104B20002A893B89429FF001439FF00D1124E952ED
:104B3000FE4F028D138DA091A701B0E0A701960151
:104B40000E94E02E24E630E040E050E00E94C12EBA
:104B500069017A01B801110F880B990B0E9440304E
:104B60002AE939EC4CEC54E40E94962F9B01AC01ED
:104B70006CA57DA58EA59FA50E94242FA6010E944D
:104B80004E0665C08DE16A897B89869FF001879F0B
:104B9000F00D1124E952FE4F028D138DA091A60154
:104BA000B0E0A70196010E94E02E24E630E040E04C
:104BB00050E00E94C12E69017A01B801110F880BE3
:104BC000990B0E94403020E03EEF4FEF56E40E94E8
:104BD000962F9B01AC016CA97DA98EA99FA90E946B
:104BE000242FA6010E947C1332C00DE1AA89BB8943
:104BF0000A9FF0010B9FF00D1124E952FE4F028D28
:104C0000138DA091A501B0E0A70196010E94E02EAE
:104C100024E630E040E050E00E94C12E69017A01B4
:104C2000B801110F880B990B0E9440302AE939EC2A
:104C30004CEC54E40E94962F9B01AC016CA57DA521
:104C40008EA59FA50E94242FA6010E94FB12092E6B
:104C5000000CAA0BBB0B480E591E6A1E7B1E45C0DA
:104C60000E94A9119B01AC018DE16A897B89869F15
:104C7000F001879FF00D1124E952FE4F828D938D34
:104C8000BC01990F880B990B22962FAF229725967E
:104C90003FAF259723964FAF239724965FAF249776
:104CA0000E94403022962FAD229725963FAD259742
:104CB00023964FAD239724965FAD24970E94962F9D
:104CC0000E9408300E9421069B01AC01A091A9011D
:104CD000B0E00E94E02E24E630E040E050E00E9488
:104CE000C12E421A530A640A750A0E94D715009110
:104CF000A1011091A2012091A3013091A401DC0136
:104D0000CB01801B910BA20BB30BEAA5FBA5808303
:104D10009183A283B3830AA51BA50C5F1F4F1BA71A
:104D20000AA72A893B892B30310509F05DC803C0E9
:104D3000412C512C32011091420311FF3EC00E94C0
:104D4000A9119B01AC01E091A70167E471E0E69F26
:104D5000C001E79F900D1124BC01990F880B990B9E
:104D600022962FAF229725963FAF259723964FAFD8
:104D7000239724965FAF24970E94403022962FAD50
:104D8000229725963FAD259723964FAD23972496DE
:104D90005FAD24970E94962F0E940830AB016CA54E
:104DA0007DA58EA59FA50E944E06092E000CAA0B7C
:104DB000BB0B480E591E6A1E7B1E12FF3EC00E948E
:104DC000A9119B01AC01E091A60167E471E0E69FA7
:104DD000C001E79F900D1124BC01990F880B990B1E
:104DE00022962FAF229725963FAF259723964FAF58
:104DF000239724965FAF24970E94403022962FADD0
:104E0000229725963FAD259723964FAD239724965D
:104E10005FAD24970E94962F0E940830AB016CA9C9
:104E20007DA98EA99FA90E947C13092E000CAA0BB4
:104E3000BB0B480E591E6A1E7B1E13FF3EC00E940C
:104E4000A9119B01AC01E091A50167E471E0E69F27
:104E5000C001E79F900D1124BC01990F880B990B9D
:104E600022962FAF229725963FAF259723964FAFD7
:104E7000239724965FAF24970E94403022962FAD4F
:104E8000229725963FAD259723964FAD23972496DD
:104E90005FAD24970E94962F0E940830AB016CA54D
:104EA0007DA58EA59FA50E94FB12092E000CAA0BC2
:104EB000BB0B480E591E6A1E7B1EC0903403D09057
:104EC0003503E0903603F090370388279927DC01FB
:104ED0008C199D09AE09BF094E895F89688D798D4E
:104EE000481759076A077B0734F0C416D506E6064B
:104EF000F7060CF03FC06E897F89888D998D97FDEC
:104F000007C06C197D098E099F096B017C0108C0DF
:104F10008E899F89A88DB98DC80ED91EEA1EFB1EE9
:104F20000E94A9119B01AC0160E07EEF8FEF96E437
:104F30000E94962F4B015C016091A00170E080E01F
:104F400090E00E9440309B01AC01C501B4010E9479
:104F5000F53020E030E048EC52E40E94962F0E94A9
:104F60000830AB01C701B6010E94B712460E571EAA
:104F7000681E791EA0919F01B0E0A30192010E94DA
:104F8000E02E24E630E040E050E00E94C12ECA014D
:104F9000B9010E9421066B017C0114FF04C00E942C
:104FA00054180E94E717C0925B03D0925C03E09212
:104FB0005D03F0925E0360915F03709160038091E6
:104FC0006103909162030E9440304B015C0160914B
:104FD00053047091540480915504909156040E949A
:104FE00040309B01AC0160E07FEF8FE797E40E94C7
:104FF000962F9B01AC01C501B4010E94F5300E94BF
:1050000008304B015C01811490E89906A104B104B9
:1050100034F088248A944FE7942EA12CB12CA1E07F
:105020008A16A0E89A06AFEFAA06BA063CF48824CE
:10503000839430E8932EAA24AA94BA2C80925F031A
:1050400090926003A0926103B0926203C6010E9435
:105050006B0E82E10E9461156C01CC0CDD1CCC0C46
:10506000DD1CD0925A03C092590384E10E9461155D
:105070007C01EE0CFF1CEE0CFF1CF0925803E0923A
:10508000570385E10E9461158C01000F111F000F6D
:10509000111F109356030093550383E10E9461157D
:1050A000880F991F880F991F2C01092E000C660884
:1050B00077084A8A5B8A6C8A7D8A40910601509102
:1050C0000701C416D50620F4D0920701C09206014C
:1050D00040914F03509150034C155D0520F4D09240
:1050E0005003C0924F034091040150910501052ED9
:1050F000000C660B770B4A885B886C887D884416A9
:1051000055066606770624F4909305018093040102
:1051100040914D0350914E03052E000C660B770B0A
:105120004A885B886C887D88441555056605770537
:1051300024F490934E0380934D038091020190914B
:105140000301E816F90620F4F0920301E09202014F
:1051500080914B0390914C038E159F0520F4F092A3
:105160004C03E0924B0380910001909101010817DC
:10517000190720F410930101009300018091490365
:1051800090914A038017910720F410934A030093EB
:10519000490320904703309048032101612C712C72
:1051A0008FEF9FE0A0E0B0E084199509A609B70948
:1051B0009C01AD0124193509460957092E8B3F8BF7
:1051C000488F598FC601DD0CAA0BBB0B9C01AD01AA
:1051D0002419350946095709AFEFBFE00E94E02EB8
:1051E0002E893F89488D598D0E94C12E6901C114B5
:1051F00030E1D30624F0CC24CA94AFE0DA2ED7FEF7
:1052000002C0C12CD12CD0925A03C0925903C701BD
:10521000FF0CAA0BBB0B9C01AD01241935094609F3
:105220005709AFEFBFE00E94E02E2E893F89488DDD
:10523000598D0E94C12E7901E11440E1F40624F059
:10524000EE24EA94FFE0FF2EF7FE02C0E12CF12CE1
:10525000F0925803E0925703C801110FAA0BBB0B41
:105260009C01AD012419350946095709AFEFBFE08C
:105270000E94E02E2E893F89488D598D0E94C12EB3
:105280008901011550E1150714F00FEF1FE017FF1A
:1052900002C000E010E010935603009355032A89E2
:1052A0003B894C895D892419350946095709AFEFB7
:1052B000BFEF0E94E02E2FEF3FE02219330940E0BC
:1052C00050E024193509460957090E94C12E2115BD
:1052D000310561E04607510524F02FEF3FEF40E034
:1052E00050E057FF03C020E030E0A90120935103B4
:1052F00030935203409353035093540389B18295E2
:105300008F7091E0892790E0A0E0B0E0817099274C
:10531000AA27BB27799B8260789B8460369B806834
:105320004E9902C0886001C0877F4F9902C080619A
:1053300001C08F7E669902C0806201C08F7D1C997A
:1053400002C0806401C08F7B64E0880F991FAA1F90
:10535000BB1F6A95D1F78093430390934403A093B6
:105360004503B093460389829A822B833C83CD8286
:105370002E2D2295207F2D292E8374E0F694E7941C
:105380007A95E1F7EF8208871987E4E0B695A7954B
:1053900097958795EA95D1F78A871B861C864CE0FE
:1053A00050E0BE016F5F7F4F84E00E947D0A8091D4
:1053B000700490917104A0917204B09173048031D3
:1053C0009742A105B10508F426C482E694E00E9444
:1053D0005114181619060CF00EC482E694E00E94CF
:1053E0001714E82F8FE98E0F8A3108F4E0528E2FC0
:1053F00090E0FC01E154F109E731F10508F0FBC34D
:10540000ED59FF4F0C94163260919D0170919E01F1
:10541000072E000C880B990B0E94541880E20E9402
:10542000DC1780919F010E94791980E20E94DC17AD
:105430008091A7010E94791980E20E94DC17809177
:10544000A5010E94791980E20E94DC178091AA01CF
:105450000E94791980E20E94DC178091A9010E94C4
:10546000791980E20E94DC178091A8010E947919C5
:1054700080E20E94DC178091A6010E94791980E2E7
:105480000E94DC17809133030E94791980E20E9408
:10549000DC178091A0010E94791980E20E94DC173C
:1054A0006091570470915804072E000C880B990BDB
:1054B0000E94541880E20E94DC1780919C010E9497
:1054C000791980E20E94DC17809142030E947919C9
:1054D00080E20E94DC176091590470915A04072EF3
:1054E000000C880B990B0E94541880E20E94DC1774
:1054F000609198017091990180919A0190919B011E
:105500000E94541880E20E94DC176091970170E0BD
:105510006AC289E891E00E94F5176EEB70E080E0C6
:1055200090E00E9454188EE891E00E94F51763C342
:1055300080917C04082E000C990B5BC30E94E81834
:105540005AC30E948019611101C061E060939C01FF
:105550004EC380E090E04DC30E9480196430710515
:105560008105910574F0DC01CB01813CE7E29E07E7
:10557000E9E0AE07B1054CF080EC97E2A9E0B0E0BD
:1055800004C084E090E0A0E0B0E089839A83AB831C
:10559000BC83F89480905D0490905E04A0905F04BA
:1055A000B0906004789440907804509079046090B2
:1055B0007A0470907B0460919D0170919E01072E8A
:1055C000000C880B990B0E9440306B017C0180918C
:1055D000340390913503A0913603B09137039501C0
:1055E0008401081B190B2A0B3B0BC901B801640D80
:1055F000751D861D971D0E944030A70196010E94CF
:10560000F5304B015C01609153047091540480911A
:105610005504909156040E9440309B01AC01C50195
:10562000B4010E94962F6E8B7F8B888F998F698132
:105630007A818B819C81609398017093990180930A
:105640009A0190939B010E94403020E030E044EBAF
:1056500053E40E94962FA70196010E94F5300E9404
:1056600008304B015C0160935304709354048093A1
:1056700055049093560422E030E040E050E00E9450
:10568000C12E2A8B3B8B4C8B5D8B20933403309344
:1056900035034093360350933703C501B4010E948C
:1056A00040309B01AC016E897F89888D998D0E9465
:1056B000F530A70196010E94962F0E9408308A8833
:1056C0009B88AC88BD88860E971EA81EB91E8418BC
:1056D0009508A608B708E8C0809134039091350377
:1056E000A0913603B0913703F89480935D049093B2
:1056F0005E04A0935F04B0936004DFC00E94801931
:105700006E317105810591056CF0DC01CB018930AA
:1057100017E09107A105B1054CF088E097E0A0E003
:10572000B0E004C08EE190E0A0E0B0E089839A830D
:10573000AB83BC83F89480915D0490915E04A0914A
:105740005F04B0916004789440907804509079049C
:1057500060907A0470907B044A8A5B8A6C8A7D8AA6
:1057600000913403109135032091360330913703B3
:10577000801B910BA20BB30B480E591E6A1E7B1E99
:10578000C301B2010E9440306B017C0160919D0118
:1057900070919E01072E000C880B990B0E944030DF
:1057A0009B01AC01C701B6010E94F5306B017C0181
:1057B0006091530470915404809155049091560463
:1057C0000E9440309B01AC01C701B6010E94962F98
:1057D0006E8B7F8B888F998FC980DA80EB80FC80FD
:1057E000D0929E01C0929D016091980170919901A3
:1057F00080919A0190919B010E94403020E030E01E
:1058000044EB53E40E94962F4B015C01C701B601A3
:105810000E9440309B01AC01C501B4010E94F530EB
:105820000E9408302B013C01609353047093540490
:10583000809355049093560422E030E040E050E01D
:105840000E94C12E49015A0120933403309335033D
:105850004093360350933703C301B2010E94403096
:105860009B01AC016E897F89888D998D0E94F530EE
:105870002B013C01B601DD0C880B990B0E944030D6
:105880009B01AC01C301B2010E94962F0E94083017
:10589000860E971EA81EB91ECA88DB88EC88FD8874
:1058A0008C189D08AE08BF08F89480925D04909211
:1058B0005E04A0925F04B0926004789498C10E9444
:1058C0008019262F603208F02FE16091420380E0BA
:1058D00090E030E0F901082E02C0F595E7950A94B2
:1058E000E2F7C12CD12C7601C394082E04C0CC0C55
:1058F000DD1CEE1CFF1C0A94D2F7E0FF02C06C29ED
:1059000002C0C0946C2101968530910519F760930F
:10591000420370E080E090E042E00E9407180E949D
:10592000E71769C10E9480198091970120E030E05B
:10593000E62FF0E0AF01022E02C0559547950A947C
:10594000E2F740FF0EC041E050E060E070E0022E60
:1059500004C0440F551F661F771F0A94D2F7842B8B
:105960000EC041E050E060E070E0022E04C0440F41
:10597000551F661F771F0A94D2F7409584232F5F27
:105980003F4F28303105B1F68093970141E067E938
:1059900071E08DE190E00E94F206809197010E94F3
:1059A0004A07BC0180E090E00E943E3020913E0317
:1059B00030913F0340914003509141030E94F530E4
:1059C0000E94083069837A838B839C8344E0BE0104
:1059D0006F5F7F4F81E190E00E94F2068091970116
:1059E0000E944A07BC0180E090E04AE096CF42E086
:1059F0006DE971E086E090E00E94F20644E068E91B
:105A000071E089E190E00E94F20641E06FE971E007
:105A100088E090E00E94F20641E067EA71E089E0E8
:105A200090E00E94F20641E065EA71E08AE090E0D1
:105A30000E94F20641E06AEA71E08BE090E00E9489
:105A4000F20641E069EA71E08CE090E00E94F20623
:105A500041E068EA71E08DE090E00E94F20641E0EA
:105A600066EA71E08EE090E00E94F20641E063E3B6
:105A700073E08FE090E00E94F20641E060EA71E09E
:105A800080E190E00E94F20641E06CE971E087E17C
:105A900090E00E94F20641E062E473E088E190E069
:105AA0000E94F20642E067E574E081E190E00E9426
:105AB000F20642E069E574E083E190E00E94F206BC
:105AC00042E06CE373E085E190E00E94F2068FC053
:105AD00082E694E00E941714E82F8FE98E0F8A3136
