:100000000C9426040C944E040C944E040C94340E60
:100010000C94100E0C944E040C944E040C944E044C
:100020000C944E040C944E040C94FD110C94A00FEF
:100030000C944E040C944E040C944E040C944E04F8
:100040000C944E040C944E040C944E040C944E04E8
:100050000C944E040C944E040C944E040C94CD1548
:100060000C944E040C944E040C944E040C944E04C8
:100070000C944E040C944E040C944E040C944E04B8
:100080000C944E040C944E040C944E040C944E04A8
:100090000C9417160C944E040C944E040C944E04BD
:1000A0000C944E040C944E040C944E04E21F432016
:1000B000E221E02097228A24CF2327257025A1253D
:1000C000D32541260C264E2E092B882B712F822CEE
:1000D000FE2EB52B192D712F712F712F712F712FAE
:1000E000712F112B192D712F8F2A892A712FE92930
:1000F000682AB42C712F1C2DA72B332D4D2D672D65
:10010000812D9B2DB52DCF2DE92D712F712F712FA5
:10011000712F712F712F712F712F712F032E382F87
:100120003D2F1A2F1F2F712F242F152F712F332F93
:10013000422F712F712F2E2F712F712F712F712F31
:10014000712F292F79087E0883088D08D708D708D2
:10015000D7089708A108AB08B508C208D708CA088D
:10016000D714DA14CD14D114FB14FB14FB14DE14D1
:10017000E214E614EC14F014FB14F61405A84CCDAC
:10018000B2D44EB93836A9020C50B9918688083CD1
:10019000A6AAAA2ABE000000803F000000000000BE
:1001A00000002A2B280000000000000000000000D2
:1001B000000000000000000000002C9EB4A0A1A2DE
:1001C000A434A6A7A5AE362D3738271E1F2021221E
:1001D00023242526B333B62EB7B89F848586878817
:1001E000898A8B8C8D8E8F90919293949596979807
:1001F000999A9B9C9D2F3130A3AD350405060708C5
:10020000090A0B0C0D0E0F101112131415161718E6
:10021000191A1B1C1DAFB1B0B500080B0002020279
:100220000100090400000102020000052400100181
:100230000524010101042402060524060001070526
:10024000810310004009040100020A0000000705B4
:10025000020240000007058302400000090402007A
:10026000020300000009210101000122E104070549
:10027000840340000107050503400001050109044E
:10028000A10185040901A100093017000000002721
:10029000FFFF0000350047FFFF000075109501814A
:1002A00002093116000027FFFF0000350047FFFF5D
:1002B0000000751095018102093216000027FF0F1A
:1002C0000000350047FF0F0000750C950181020901
:1002D0003316000027FF0F0000350047FF0F000016
:1002E000750C95018102093416000027FF0F0000EC
:1002F000350047FF0F0000750C9501810209391583
:100300000125083500463B0165145500750495012B
:1003100081020509150025015500650019012918FC
:1003200075019518810285F10901150026FF0095D8
:100330003F7508918285F20901953F75088182C059
:10034000050F0992A1028502099F09A009A409A528
:1003500009A61500250135004501750195058102A5
:1003600095038103099415002501350045017501A8
:1003700095018102092215012528350145287507B7
:1003800095018102C00921A10285010922150125DB
:1003900028350145287508950191020925A1020912
:1003A000260927093009310932093309340940097E
:1003B0004109420943250B15013501450B75089587
:1003C000019100C009500954150027FFFF000035B6
:1003D0000047FFFF000066011055FD751095029162
:1003E0000255006600000952150026FF7F350046C1
:1003F000FF7F7510950191020953150125083501FC
:1004000045087508950191020955A10205010930B9
:10041000093115002501750195029102C0050F09EA
:100420005695019102950591030957A1020B010010
:100430000A000B02000A0066140055FE150026FF94
:100440007F3500479F8C0000751095019102550083
:10045000660000C0050F09A766011055FD150027AD
:10046000FFFF0000350047FFFF0000751095019168
:10047000026600005500C0050F095AA10285020955
:100480002215012528350145287508950191020995
:100490005B095D150026FF00350046FF7F75089556
:1004A000029102095C095E66011055FD26FF7F4638
:1004B000FF7F7510950291026600005500C0095F2C
:1004C000A102850309221501252835014528750853
:1004D0009501910209231500250135004501750498
:1004E000950191020958A1020B01000A000B0200BC
:1004F0000A00750295029102C0096016008026FF6D
:100500007F36008046FF7F751095019102096136A4
:10051000008046FF7F95019102150026FF7F350080
:1005200046FF7F0963751095019102096515002644
:10053000FF0046FF7F750895019102C0096EA10278
:1005400085040922150125283501452875089501DE
:1005500091020970150026FF7F350046FF7F751058
:1005600095019102096F16008026FF7F36008046B4
:10057000FF7F950191020971150026FF00350046A5
:1005800067016614005500750895019102097227EC
:10059000FFFF000047FFFF000066011055FD7510CA
:1005A000950191026600005500C00973A1028505FE
:1005B0000922150125283501452875089501910264
:1005C000097016018026FF7F36018046FF7F751077
:1005D00095019102C00974A1028506092215012521
:1005E0002835014528750895019102097509761588
:1005F00081257F36018046FF7F750895029102C0F4
:10060000050F0977A102850A092215012528350160
:1006100045287508950191020978A1020979097A9E
:10062000097B15012503750895019100C0097C150A
:100630000026FF00350046FF009102C00990A1028C
:10064000850B0922150125283501452875089501D6
:100650009102C00996A102850C0997099809990988
:100660009A099B099C15012506750895019100C002
:10067000097DA102850D097E150026FF0035004683
:100680001027750895019102C009ABA102850509E3
:1006900025A1020926092709300931093209330940
:1006A0003409400941094209431501250B3501452B
:1006B0000B75089501B100C00501093B150026FF27
:1006C00001350046FF01750A9501B1027506B101B9
:1006D000C0050F0989A102850609222528150135C3
:1006E00001452875089501B102098BA102098C0901
:1006F0008D098E250315013501450375089501B156
:1007000000C009AC150027FFFF0000350047FFFFC0
:10071000000075109501B100C0097FA1028507098D
:100720008075109501150027FFFF0000350047FF79
:10073000FF0000B102098326FF0046FF00750895FF
:1007400001B10209A909AA75019502150025013513
:10075000004501B10275069501B103C0C0180341FF
:100760000072006400750069006E006F0020004C8C
:10077000004C00430004030904220341007200649A
:1007800000750069006E006F0020004D0069006375
:100790000072006F00200020002000120100020003
:1007A00000004041233780000101020001120100D6
:1007B00002020000404123378000010102000100D5
:1007C000C18081C1C0070605040100080A0B0C0D99
:1007D0000900000000240027002A002D003000003E
:1007E000000000250028002B002E00310004040426
:1007F00004040304050202020204030202020206C8
:1008000006060606060404020202040404080201A5
:100810001040804010204080408008020401804049
:100820002010020110801020404020000000020033
:10083000080E0000030401000B000000000000008F
:10084000000000000000000000008B2F11241FBEDC
:10085000CFEFDAE0DEBFCDBF11E0A0E0B1E0E0E431
:10086000F7E602C005900D92A83AB107D9F725E046
:10087000A8EAB1E001C01D92A535B207E1F714E086
:10088000C6E2D4E004C02197FE010E948C33C53239
:10089000D107C9F70E941C190C949E330C940000D8
:1008A0000895CF93DF93FC01EB01718182818983ED
:1008B000878190859A8789872585368543815481EC
:1008C0006EE1769FC001112486519E4FDC01509647
:1008D0005C934E931F9756963C932E93559764E0E6
:1008E000769FD0011124A654BE4F1D921D921D92D9
:1008F0001C921397838594859E878D8782858E832E
:1009000081E0DF91CF910895FC012281FB012783D3
:10091000FC018381FB0180870895FC018281938122
:10092000FB01908F878B0895DC01FB0112968D915E
:100930009C911397908F878B14968D919C9115970E
:10094000948F838F16968C911697858F17968D911D
:100950009C911897948783870895DC01FB01129678
:100960008C91129782838281811110C015968D918E
:100970009C911697908F878B13968D919C911497CD
:10098000948F838F17968C91858308958281089523
:10099000DC01FB0112968C911297838313968C9144
:1009A0001397848314968D919C911597948B838BC8
:1009B00016968D919C911797928B818B08959EE14D
:1009C000899FF0011124E651FE4F708B6787568B8B
:1009D000458B94E0899FF0011124E654FE4F10826C
:1009E0001182128213820895089508951092370596
:1009F00024E0829FC0011124FC01E654FE4F1082C6
:100A0000118212821382089525E0FC01208384E381
:100A100091E008950895809337050895CF92DF926D
:100A2000EF92FF926091B7017091B801072E000C10
:100A3000880B990B0E94B6316B017C0160915203C7
:100A40007091530380915403909155030E94B631E5
:100A50009B01AC01C701B6010E940C31FF90EF90E1
:100A6000DF90CF9008958C30F8F4282F30E09EE18D
:100A7000899FF0011124E651FE4F90819923A1F046
:100A800090819D7F9083F901EF55FC4F95819111E5
:100A90000BC0E091A901F091AA010084F185E02D3D
:100AA00009951092B103089508958C30F0F49EE1F9
:100AB000899FF0011124E651FE4F80818823A9F01F
:100AC0008081826080838091B10381110EC00E9479
:100AD000C1156093BA017093BB018093BC019093E0
:100AE000BD0181E08093B103089508951F93CF93D2
:100AF000DF93DC0111961C9111979C91953009F4BC
:100B000067C060F5923009F443C0A8F4913009F051
:100B10004DC1E091A901F091AA012EE1129FB0010F
:100B2000112466517E4F028CF38DE02DCD01DF91B3
:100B3000CF911F9109949330C9F1943009F036C1D7
:100B4000E091A901F091AA012EE1129FB0011124B8
:100B500066517E4F0488F589E02D35C09B3009F43D
:100B60009DC038F4963009F441C09A3009F44CC065
:100B70001DC19C3009F4CBC0913F09F017C140E47E
:100B800050E0BD0182EFDF91CF911F910C948D1247
:100B9000E091A901F091AA013EE1139FB001112457
:100BA00066517E4F0088F189E02D0DC0E091A901CA
:100BB000F091AA018EE1189FB001112466517E4F79
:100BC0000288F389E02DCD01DF91CF911F91099427
:100BD000E091A901F091AA013EE1139FB001112417
:100BE00066517E4F0688F789E02DEDCFE091A9018F
:100BF000F091AA018EE1189FB001112466517E4F39
:100C0000008CF18DE02DDFCF1F3F09F41FE7129616
:100C10009C91913099F4812F0E945505E12FF0E0CD
:100C2000EF55FC4F85818111C1C0E091A901F09180
:100C3000AA010680F781E02D812F47C0923029F567
:100C4000C1E08C2F0E943305CF5FCC30D1F7C12F8C
:100C5000D0E0CF55DC4F8D81811109C0E091A90111
:100C6000F091AA010084F185E02D8FE70995812F8D
:100C70000E9455058D81811199C0E091A901F091E3
:100C8000AA010680F781E02D1FC0933009F08EC0C5
:100C9000812FDF91CF911F910C94330581E01F3F8D
:100CA000C1F480930C0188E691E0EAEEF1E0DF0107
:100CB0009C011D9221503040E1F7E091A901F09193
:100CC000AA010284F385E02D8FE7DF91CF911F9178
:100CD0000994809337051C3008F068C03EE1139FEB
:100CE000F0011124E651FE4F108280910C0118177B
:100CF00010F410930C01E091A901F091AA01028473
:100D0000F385E02D812F09951092B1034FC082E049
:100D10008093B2039091B30394609093B303909146
:100D2000B30390619093B3031092B4031330B1F006
:100D300040F4113079F01230C9F58091B30382602C
:100D400033C0153071F1B0F0163081F58091B303E6
:100D50008E7F2AC08091B3038D7F26C0E091A901C8
:100D6000F091AA010480F581E02D80E009951092B0
:100D7000B4031CC0E091A901F091AA010480F5819F
:100D8000E02D81E0099581E080930C0188E691E0F7
:100D9000EAEEF1E0DF019C011D9221503040E1F7C5
:100DA00005C08091B30381608093B303DF91CF913D
:100DB0001F910895CF93DF9300D000D01F92CDB73D
:100DC000DEB7FC0181819081913A29F5813009F0EB
:100DD000BCC08281863051F445E050E06CE973E09C
:100DE00080E40E94480F10929C03AFC0873009F046
:100DF000ACC089838FEF9FEF9B838A838BE08C83CA
:100E000083E08D8345E050E0BE016F5F7F4F80E45B
:100E10000E94480F9AC0913209F097C0893009F0BA
:100E200094C08281853009F090C064E070E0CE010A
:100E300001960E94330F86E080939C0380910C0101
:100E40008B3021F1A0910C0181E08A0F80930C017D
:100E50009EE1E0910C019E9FF0011124E651FE4FAE
:100E60008081882351F080910C018B3030F4809187
:100E70000C018F5F80930C01ECCF8EE1A89FF001F5
:100E80001124E651FE4F81E0808301C0A0E0A093D1
:100E90009D03A11104C082E080939E0350C0109274
:100EA000370581E080939E038A819EE1A99FD0014E
:100EB0001124A651BE4F11968C9311978FEF9FEF7F
:100EC00050969C938E931F9754961C921E92539704
:100ED00052961C921E92519713968C9313971496C8
:100EE0008C93149756961C921E9255971E961C92A0
:100EF0001E921D9716961C9216978FEF9FE71A96D3
:100F00009C938E93199758961C921E9257975C96B5
:100F10001C921E925B975D961C925D9788EE93E003
:100F20001C969C938E931B97E091A901F091AA01C6
:100F30000684F785E02DBD01CE01019609958FEF5E
:100F40009FEF9093A00380939F0381E00F900F90F9
:100F50000F900F900F90DF91CF9108954F925F9275
:100F60006F927F928F929F92AF92BF92CF92DF92B9
:100F7000EF92FF920F931F93CF93DF93CDB7DEB71E
:100F800060970FB6F894DEBF0FBECDBF009709F48F
:100F90006EC38C016091B90170E080E090E00E9426
:100FA000B6312AE037ED43E25CE30E946B3269839D
:100FB0007A838B839C83F80180809180A280B380A8
:100FC000B7FE08C0B094A09490948094811C911CAA
:100FD000A11CB11CC501B4010E94B6316B017C019A
:100FE0006091B2017091B30180E090E00E94B43151
:100FF0002B013C0126E636E646E65FE30E946B32B3
:1010000029813A814B815C810E946B326D837E83A2
:101010008F8398879B01AC01C701B6010E9466329D
:1010200087FDCBC0A301920169817A818B819C816C
:101030000E946B3269877A878B879C8720E030E03B
:1010400040E85FE30E949A309B01AC01C701B60102
:101050000E94073187FFB1C06D817E818F819885A5
:101060000E947E316B017C01A5019401261B370B88
:10107000480B590BAEE3B0E00E9456304B015C01C7
:1010800069857A858B859C850E947E319B01AC01A8
:101090002C193D094E095F09C501B4010E94373082
:1010A00069017A01FFEFCF1ADF0AEF0AFF0A560142
:1010B00061E083E00E940F15C114D10411F460E0D7
:1010C00005C08FEFC816D10429F461E083E00E94C7
:1010D000B0148AC0EEE2F8E0E4918E2F90E0FC01BB
:1010E0003197EE30F10508F062C0EE55FF4F0C94D9
:1010F0008C3384B5806884BDC7BC76C084B58062FB
:1011000084BDC8BC71C080918000806880938000DD
:10111000D0928900C092880067C080918000806270
:1011200080938000D0928B00C0928A005DC0809135
:101130009000806880939000D0929900C0929800AF
:1011400053C080919000806280939000D0929B0069
:10115000C0929A0049C0809190008860809390006E
:10116000D0929D00C0929C003FC08091C0008068DA
:101170008093C0008091C0008F7B8093C000C0929C
:10118000CF0032C08091C00080628093C000C092C6
:10119000D0002AC08091C20088608093C2008091F4
:1011A000C2008B7F8093C200C092D2001DC0E0E8D5
:1011B000AE16B1040CF089CF82CFA30192016981F0
:1011C0007A818B819C810E946B3220E030E040E884
:1011D0005FE30E949A309B01AC01C701B6010E94F7
:1011E000663287FD6CCF71CF6091B40170E06058BA
:1011F0007109072E000C880B990B0E94B63120E074
:1012000030E04FE753E40E940C316B017C016093A6
:10121000BD037093BE038093BF039093C00320E08F
:1012200030E0A9010E94663287FD1DC0A70196012A
:1012300060E070E080E89FE30E949A306093B90319
:101240007093BA038093BB039093BC0380E090E05B
:10125000A0E8BFE38093B5039093B603A093B703D0
:10126000B093B80323C020E030E0A901C701B60164
:101270000E94073187FF1AC080E090E0A0E8BFE33A
:101280008093B9039093BA03A093BB03B093BC03BC
:101290009C01AD01C701B6010E949B306093B5036C
:1012A0007093B6038093B7039093B8039091B10104
:1012B000F801C080D180E280F380892F807491FD95
:1012C000EAC0811195C01C141D041E041F04E4F51E
:1012D0004090B2015090B3012091B5013091B60118
:1012E0004901A12CB12C612C712CC301B2010E94C7
:1012F000B4312091B5033091B6034091B7035091BA
:10130000B8030E946B320E947E31681979098A09FC
:101310009B09A70196010E946833A30192010E94D4
:101320003730DA01C901880D991DAA1DBB1DF801CE
:1013300080839183A283B38380E090E00E94521760
:10134000F8018081918146C0C114D104E104F10407
:1013500009F444C04090B2015090B3018091B501AE
:101360009091B6014C01A12CB12CF094E094D09452
:10137000C094C11CD11CE11CF11C612C712CC30157
:10138000B2010E94B4312091B9033091BA03409167
:10139000BB035091BC030E946B320E947E316819DE
:1013A00079098A099B09A70196010E946833A30164
:1013B00092010E943730DA01C901880D991DAA1DDA
:1013C000BB1DF80180839183A283B3830E945217CF
:1013D00080E090E00E9445172A9A49C180E090E0A1
:1013E0000E94521780E090E00E9445172A983FC162
:1013F000E091B201F091B3011C141D041E041F04FE
:10140000DCF44F01969487948091B5019091B601D8
:10141000880E991EA12CB12C2F01612C712CC301B7
:10142000B201681979098A099B09A70196010E94EE
:101430006833A301920119C0C114D104E104F1047D
:1014400011F14F01969487948091B5019091B60166
:10145000881A990AA12CB12CA5019401C701B601E3
:101460000E9468339F0140E050E00E943730DA016B
:10147000C901880D991DAA1DBB1DF80180839183A8
:10148000A283B38303C0CF01969587950E9452171C
:1014900080E090E0D4C0811133C0F7FC02C02A9AEA
:1014A00001C02A988091B5019091B6016C01E12CA0
:1014B000F12C8090B2019090B301A12CB12CF801D5
:1014C000208131814281538157FF07C0509540955B
:1014D000309521953F4F4F4F5F4FC501B4016C19B7
:1014E0007D098E099F090E946833A50194010E941D
:1014F0003730DA01C9018C0D9D1DAE1DBF1D81C0A5
:101500001C141D041E041F046CF520E030E040E8AC
:101510005FE36091AD017091AE018091AF01909158
:10152000B0010E949B30209104013091050140914F
:101530000601509107010E946B320E947E314B01DF
:101540005C01609100017091010180910201909114
:1015500003010E947E31681979098A099B09A70154
:1015600096013FC0C114D104E104F10409F44FC055
:101570002091AD013091AE014091AF015091B00189
:1015800060E070E080E89FE30E949A3020910401BF
:101590003091050140910601509107010E946B3284
:1015A0000E947E314B015C0122273327A9012C19AF
:1015B0003D094E095F096091080170910901809110
:1015C0000A0190910B012D873E874F87588B0E940F
:1015D0007E31681979098A099B092D853E854F85D9
:1015E00058890E9468332091B2013091B30140E0E4
:1015F00050E00E943730DA01C901880D991DAA1DFB
:10160000BB1DF80180839183A283B3830BC06091DB
:1016100004017091050180910601909107010E94DB
:101620008531CB010E945217609104017091050130
:1016300080910601909107010E948531CB0160964F
:101640000FB6F894DEBF0FBECDBFDF91CF911F91D3
:101650000F91FF90EF90DF90CF90BF90AF909F9051
:101660008F907F906F905F904F900C94451760968D
:101670000FB6F894DEBF0FBECDBFDF91CF911F91A3
:101680000F91FF90EF90DF90CF90BF90AF909F9021
:101690008F907F906F905F904F9008956091AB0115
:1016A0007091AC0180E090E00E94B4319B01AC01EC
:1016B00060E07EEF8FEF96E40E940C3108952F9248
:1016C0003F924F925F926F927F928F929F92AF92D2
:1016D000BF92CF92DF92EF92FF920F931F93CF931F
:1016E000DF93CDB7DEB729970FB6F894DEBF0FBEF4
:1016F000CDBF998788874B012B831D830C831701EE
:10170000DF82CE82042F10E08C819D816C01E12C60
:10171000F12CE885F985F7FD2BC0C8019695982F27
:10172000882797958795BF01681B790B072E000CBA
:10173000880B990B0E94B6312B013C01C701B60101
:101740000E94B4319B01AC01C301B2010E940C3173
:101750002B013C01C8019695982F8827979587956E
:101760009A838983EB8190E8E99FB00111242AC014
:10177000B8017695762F662777956795E885F98580
:101780006E0F7F1F072E000C880B990B0E94B6313D
:101790002B013C01C701B6010E94B4319B01AC0191
:1017A000C301B2010E940C312B013C0160E86003CF
:1017B000C001619F900D11249A8389832B8162035C
:1017C000B001112488859985681B790B072E000CC0
:1017D000880B990B0E94B6316B017C01B10180E04E
:1017E00090E00E94B4319B01AC01C701B6010E9498
:1017F0000C316B017C018A149B0408F43FC08E817C
:101800009F818A0D9B1D88169906C0F50C811D814C
:101810000A0D1B1D8016910690F4B4016A197B090C
:1018200080E090E00E94B4319B01AC01C301B201A1
:101830000E946B320E947E3189819A811CC082197C
:10184000930988159905E8F48A189B08EE81FF81B1
:101850008E1A9F0AB401620D731D80E090E00E9411
:10186000B4319B01AC01C701B6010E946B320E94EA
:101870007E3188859985860F971F05C080E090E0AE
:1018800002C08885998529960FB6F894DEBF0FBEF1
:10189000CDBFDF91CF911F910F91FF90EF90DF901F
:1018A000CF90BF90AF909F908F907F906F905F9000
:1018B0004F903F902F900895CF92DF92EF92FF923A
:1018C0000F931F938B019C014091B2015091B30182
:1018D0006A01E12CF12C66277727CB016C197D0971
:1018E0008E099F0906171707280739074CF0C90109
:1018F000B801C016D106E206F30614F4C701B6011A
:101900001F910F91FF90EF90DF90CF9008958F92ED
:101910009F92AF92BF92CF92DF92EF92FF92CF93BE
:10192000DF934B015C01EA010E940E056B017C0113
:10193000DE01A50194010E9461300E94B631A70129
:1019400096010E946B3220E030E040E051E40E94BA
:101950006B3220E030E040E251E40E946B3220E044
:1019600030E040E85BE30E946B320E947E310E94CF
:101970005C0C90958095709561957F4F8F4F9F4F30
:10198000DF91CF91FF90EF90DF90CF90BF90AF901D
:101990009F908F9008954F925F926F927F928F9257
:1019A0009F92AF92BF92CF92DF92EF92FF92CF932E
:1019B000DF9300D000D0CDB7DEB74B015C0157FFFD
:1019C00002C04D5F5F4F6A01D594C794D594C79408
:1019D0000E940E0569837A838B839C839B01AC01F3
:1019E000C501B4010E946B3220E030E040E251E4D6
:1019F0000E946B322B013C0120E030E040E85FE3C5
:101A00000E9466320D2C000CEE08FF0818161CF41C
:101A1000C701B60128C020E030E040E85FEBC30119
:101A2000B2010E94073187FF06C0C701B6010E94BC
:101A30005C0CCB011EC0C701B6010E94B6319B01F0
:101A4000AC01C501B4010E946B3229813A814B81FE
:101A50005C810E946B3220E030E040E251E40E9461
:101A60006B320E947E310E945C0C88279927861B6E
:101A7000970B0F900F900F900F90DF91CF91FF90E9
:101A8000EF90DF90CF90BF90AF909F908F907F901E
:101A90006F905F904F9008958F929F92AF92BF92F8
:101AA000CF92DF92EF92FF924B015C01BA01550F8A
:101AB000880B990B0E94B6316B017C0120E030E06D
:101AC000A901C501B4010E946632A501940118164E
:101AD0000CF05058C701B6010E946B326B017C01BB
:101AE0000E940E059B01AC01C701B6010E946B323A
:101AF00020E030E040E851E40E946B3220E030E02A
:101B000040E251E40E946B3220E030E040E05DE3CF
:101B10000E946B320E947E310E945C0C6B017C0142
:101B200020E030E0A901C501B4010E946632181618
:101B30002CF4882799278C199D090DC020E030E0EE
:101B4000A901C501B4010E94073187FF02C0C60187
:101B500002C080E090E0FF90EF90DF90CF90BF90C8
:101B6000AF909F908F900895CF92DF92EF92FF9267
:101B7000CF93DF936B017C01EA0120E030E0A90103
:101B80000E946632181694F020E030E0A901C701E7
:101B9000B6010E94073187FF3AC020E030E0A9017A
:101BA000C701B6010E949B306B017C01BE01DD0FB5
:101BB000880B990B0E94B6319B01AC01C701B6019D
:101BC0000E946B326B017C010E940E059B01AC01EF
:101BD000C701B6010E946B3220E030E040E851E4DA
:101BE0000E946B3220E030E040E251E40E946B3210
:101BF00020E030E040E05BE30E946B320E947E31E7
:101C00000E945C0C88279927861B970B02C080E0F6
:101C100090E0DF91CF91FF90EF90DF90CF9008950B
:101C20001F920F920FB60F9211242F933F934F9351
:101C30005F936F937F938F939F93AF93BF93EF9334
:101C4000FF930E94AB17FF91EF91BF91AF919F91CE
:101C50008F917F916F915F914F913F912F910F9055
:101C60000FBE0F901F9018951F920F920FB60F92F4
:101C700011242F933F934F935F936F937F938F9391
:101C80009F93AF93BF93EF93FF930E94AB17FF9186
:101C9000EF91BF91AF919F918F917F916F915F91E4
:101CA0004F913F912F910F900FBE0F901F9018955D
:101CB000CF92DF92EF92FF920F931F93CF93DF9318
:101CC0001F92CDB7DEB7F82EE42E8B01C82ED92E89
:101CD0008C2D8F198E1588F4F80161918F01C60142
:101CE00069830E9421306981681719F0C6010E943A
:101CF0002930FFEFCF1ADF0AEBCF0F90DF91CF91A2
:101D00001F910F91FF90EF90DF90CF900895EF9289
:101D1000FF921F93CF93DF93EC01162FE881F98197
:101D20000480F581E02D09957C01E881F981068028
:101D3000F781E02D612FCE010995C7019927DF9129
:101D4000CF911F91FF90EF900895FC0191818081C8
:101D5000813A29F49D7F81E0913091F414C0813261
:101D600079F49A3049F09B3019F0993049F40AC05F
:101D7000828180930F0106C0828180930E0102C090
:101D800080E0089581E00895CF92DF92EF92FF9274
:101D90000F931F93CF93DF931F92CDB7DEB78B01C5
:101DA0006B017C01E61AF70A9C2D901B941758F4DE
:101DB000C7018C0D9D1D49830E942130F60181933E
:101DC0006F014981F1CF0F90DF91CF911F910F915A
:101DD000FF90EF90DF90CF9008958F929F92AF92F7
:101DE000BF92CF92DF92EF92FF9240E050E020E06E
:101DF000682F70E0812C912C54018394FA01329663
:101E0000DB0102C0B595A795EA95E2F7750164017B
:101E1000042E04C0CC0CDD1CEE1CFF1C0A94D2F76F
:101E2000A0FF02C02C2902C0C0942C214F5F5F4F3D
:101E30004430510519F730E0220F331FF901E75CF8
:101E4000FE4F80FF05C0808191819695879502C0E5
:101E500080819181FF90EF90DF90CF90BF90AF9005
:101E60009F908F900895FC01CB012091E80022FF04
:101E7000FCCF282F215028F03091F100308331968B
:101E8000F9CF24E62093C1032BEF2093E8000895B7
:101E90000F931F93CF93DF93DB01A40FB51FFB01BB
:101EA0006EEFEA17FB0791F187FF02C0249101C092
:101EB00020810091C5031091C603C091C303D09146
:101EC000C4030C171D07B4F49091E8009570E1F37A
:101ED0009091E80092FD1CC02093F1002091C50371
:101EE0003091C6032F5F3F4F2F733327232B11F4FD
:101EF0006093E8002091C5033091C6032F5F3F4FE8
:101F00003093C6032093C5033196CBCFCA0102C0DC
:101F10008FEF9FEFDF91CF911F910F91089542E4D2
:101F200050E06AE172E080E80E94480F40E250E031
:101F30006CE572E080E80E94480F83E090E008952D
:101F40001F920F920FB60F921124EF92FF921F93E0
:101F50002F933F934F935F936F937F938F939F93B1
:101F6000AF93BF93EF93FF93CF93DF93CDB7DEB7DC
:101F70006197DEBFCDBF1092E9008091E80083FF3A
:101F800059C1FE013A96CF0128E02E0F2E1729F0F5
:101F90003091F10030833196F9CF24E62093C103CC
:101FA00022EF2093E8002A8527FF05C03091E80042
:101FB00030FFFCCF03C03EEF3093E800322F307685
:101FC00009F0C5C08B85811105C01092F1001092F7
:101FD000F10029C1982F9D7F913009F424C18530EB
:101FE00049F48091E80080FFFCCF8C858068809365
:101FF000E30019C1863009F07CC01D85E888F988A6
:102000001092E9001092C6031092C503123091F5A8
:102010001092C4031092C3030E948F0F99E0BE0177
:102020006F5F7F4FFB01292F11922A95E9F7998362
:102030001A8391E09E8390E898879AEF9987209180
:10204000C5033091C603275F3F4F3C832B838D83AD
:102050001092E9001092C6031092C503F092C403D7
:10206000E092C30349E050E080E00E94480F0E94E4
:102070008F0FD9C0F092C403E092C303123259F417
:1020800041EE54E06CE772E080E80E94480F892B33
:1020900009F0C9C0CCC0113069F4888999890897C2
:1020A00011F41093C2038091C203811111C06BE936
:1020B00077E016C0133009F0BAC08C85882359F038
:1020C000823061F0813009F0B2C06DE577E008C080
:1020D0006DEA77E005C065E777E002C069E777E081
:1020E0006115710509F4A3C0FB01449150E080E83B
:1020F00049C0873009F49BC0883021F481E0809387
:10210000F10091C0893009F08EC0237009F08FC0B2
:1021100080E090E031E026E341E0480F4093E900A1
:102120003093EB000196FC01E154F84FE491E09309
:10213000EC002093ED008530910571F78EE78093D8
:10214000EA001092EA008C858093A8016CC028896F
:1021500039891092E9001092C6031092C50330939A
:10216000C4032093C3032E85211154C08B859A8507
:10217000913A59F4813209F05AC047E050E060E1E9
:1021800071E080E00E94480F4EC0913209F04FC0CC
:10219000803239F467E070E080E191E00E94330F13
:1021A00042C0823209F043C08C8580931701809130
:1021B000100190911101A0911201B0911301803B87
:1021C0009440A105B10579F58091170180FD11C0FA
:1021D00087E797E790930108809300089BE088E1E8
:1021E0000FB6F894A895809360000FBE909360009E
:1021F0001AC00FB6F894A89580916000886180930A
:102200006000109260000FBEA89510920108109215
:10221000000809C0223059F4E0913805F0913905E1
:102220000995882321F08EEF8093E80003C081E2B6
:102230008093EB0061960FB6F894DEBF0FBECDBF62
:10224000DF91CF91FF91EF91BF91AF919F918F91CE
:102250007F916F915F914F913F912F911F91FF90CF
:10226000EF900F900FBE0F901F9018958F929F9236
:10227000AF92BF92CF92DF92EF92FF920F931F9394
:10228000CF93DF9300D01F92CDB7DEB7382F8B01ED
:102290008091A801882389F04A018AEFF82E832FC4
:1022A0008770E82E90E4C92E832F8072B82E2AE31F
:1022B000D22E832F8074A82E21C08FEF9FEF5FC096
:1022C0008FB7F894E092E9009091E80095FF1AC06A
:1022D0009091F2002C2D291B8FBF211115C0FA946B
:1022E000FF2059F361E070E080E090E039834A8399
:1022F0005B830E949B1539814A815B818114910423
:10230000F9F634C020E0E8CF822F90E088169906D5
:102310000CF4282D822F90E0881A990A6FB7F89450
:10232000E092E900BB2029F02150A8F01092F100C2
:10233000FBCFF80137FF07C0215058F0749170931C
:10234000F1003196F9CF215020F071917093F10096
:10235000FACF080F191F8091E80085FF0DC0811486
:10236000910411F4A11008C06FBFC8CF5D9A84E634
:102370008093C703CA0103C0D092E800F5CF0F9045
:102380000F900F90DF91CF911F910F91FF90EF90E1
:10239000DF90CF90BF90AF909F908F9008959091D5
:1023A000A801992311F057FF03C08FEF9FEF089505
:1023B0002FB7F89487708093E9008091F20090E045
:1023C000841795070CF4AC01842FFB0194E681502F
:1023D00030F09093C1033091F1003193F8CF411563
:1023E000510521F08091F200882319F02FBFCA0116
:1023F00008958BE68093E800F9CF1F920F920FB6F5
:102400000F9211242F933F934F935F936F937F937A
:102410008F939F93AF93BF93EF93FF93CF93DF93EC
:10242000CDB7DEB7C054D109DEBFCDBF8091E1008A
:102430001092E10083FF0FC01092E90091E09093A9
:10244000EB001092EC0092E39093ED001092A80143
:1024500098E09093F00082FF46C083E08093E9000B
:102460008091F200882319F08AE38093E8009FB7F7
:10247000F89482E08093E9008091F2009FBF882366
:1024800021F080E994E00E9475149FB7F89485E0EC
:102490008093E9008091F2009FBF8823C1F0809172
:1024A0003A0590913B05892B91F040E450E0BE0144
:1024B0006F5F7F4F85E00E94CF1197FD08C0E091CC
:1024C0003A05F0913B05BC01CE010196099580913A
:1024D000C703882341F08091C70381508093C703CD
:1024E000811101C05D98C05CDF4F0FB6F894DEBF6C
:1024F0000FBECDBFDF91CF91FF91EF91BF91AF9113
:102500009F918F917F916F915F914F913F912F910B
:102510000F900FBE0F901F901895EF92FF920F93A0
:102520001F93CF93DF931F92CDB7DEB789838B01C3
:102530007A0141E050E0BE016F5F7F4F84E00E946E
:102540003611A701B80184E40E9436110F90DF9183
:10255000CF911F910F91FF90EF900895DC016838A3
:1025600010F0685825C0E62FF0E067FF12C0E05871
:10257000F10981E090E001C0880FEA95EAF78095C3
:1025800014969C911497892314968C93149760E069
:102590000FC0E656FE4F6491662311F167FF08C035
:1025A00014968C9114978D7F14968C9314976F7753
:1025B000FD01369686E0662321F09081961301C0D6
:1025C0001082815031968111F6CFBD016C5F7F4F33
:1025D00048E050E082E00E948D1281E090E0089592
:1025E00080E090E00895FC01168217821086118623
:1025F000128613861482BC016C5F7F4F48E050E066
:1026000082E00C948D12DC01683810F068582DC0FF
:10261000E62FF0E067FF11C0E058F10981E090E09B
:1026200001C0880FEA95EAF714969C911497892BBC
:1026300014968C93149760E018C0E656FE4F649190
:10264000611109C081E090E013969C938E931297DC
:1026500080E090E0089567FF08C014968C9114976D
:10266000826014968C9314976F7716968C911697B8
:10267000861751F117968C911797861729F118969E
:102680008C911897861701F119968C9119978617D6
:10269000D9F01A968C911A978617B1F01B968C91E7
:1026A0001B97861789F0FD01369680E090E0219116
:1026B000211105C0FD01E80FF91F668305C00196D1
:1026C00086309105A1F7BECFBD016C5F7F4F48E01A
:1026D00050E082E00E948D1281E090E00895CF9258
:1026E000DF92EF92FF920F931F93CF93DF936C01D2
:1026F000EB017B01E40EF51E00E010E0CE15DF05D6
:1027000061F06991D601ED91FC910190F081E02D8D
:10271000C6010995080F191FF1CFC801DF91CF91AC
:102720001F910F91FF90EF90DF90CF90089583E07D
:102730008093E9008091F200882319F08AE3809366
:10274000E8000895209180043091810480918204F2
:102750009091830428173907A9F0E0918204F09141
:102760008304E05CFB4F80812091820430918304DC
:102770002F5F3F4F2F7333273093830420938204BE
:1027800090E008958FEF9FEF08952091800430919D
:10279000810480918204909183042817390749F0BD
:1027A000E0918204F0918304E05CFB4F808190E033
:1027B00008958FEF9FEF0895809180049091810498
:1027C0002091820430918304821B930B8F7399278D
:1027D000089585ED8093BC008091BC0084FDFCCF02
:1027E0001092110408954091EB03262F30E0240F3E
:1027F000311D21323105DCF4209111042430C9F45B
:10280000FC0180E090E0861758F43091EB032191B1
:10281000DC01A753BC4FA30FB11D2C930196F3CF3E
:102820008091EB03680F6093EB0380E0089581E0F3
:10283000089582E0089508958FEF9FEF08958FEF38
:102840009FEF08958091C80390E09195819591093B
:102850000895CF93DF9300D0CDB7DEB7CB01642FBF
:1028600049835A830E94F3134981842F5A81952FFB
:102870000F900F90DF91CF910895CF93DF931F9228
:10288000CDB7DEB7698361E0CE0101960E94F313F4
:1028900081E090E00F90DF91CF9108950E949933ED
:1028A0000F931F93CF93DF931F92CDB7DEB78C01A9
:1028B000698380911701882359F041E050E0BE01FF
:1028C0006F5F7F4F83E00E943611181619063CF0A7
:1028D00081E090E0F8019383828380E090E00F90A4
:1028E000DF91CF911F910F9108950F931F93CF9375
:1028F000DF931F92CDB7DEB7009180041091810461
:102900000F5F1F4F0F7311278091820490918304F2
:1029100008171907F9F041E050E0BE016F5F7F4FE3
:1029200082E00E94CF11019719F4898190E002C0E2
:102930008FEF9FEF8F3F2FEF920761F0E0918004C0
:10294000F0918104E05CFB4F80831093810400933D
:102950008004D2CF0F90DF91CF911F910F910895F6
:10296000362F90E0FC01E55DF74F4491FC01E45FF8
:10297000F74F2491FC01E351F84F8491882309F427
:102980004DC04423C1F150E0FA013197EE30F1051A
:1029900090F5E055FF4F0C948C33909180009F7719
:1029A00003C0909180009F7D9093800024C094B5D7
:1029B0009F7702C094B59F7D94BD1DC090919000FB
:1029C0009F7707C0909190009F7D03C090919000E9
:1029D000977F909390000FC09091C0009F7703C0A5
:1029E0009091C0009F7D9093C00005C09091C2005F
:1029F000977F9093C200E82FF0E0EE0FFF1FE152A7
:102A0000F84FA591B4918FB7F894EC91311103C0B0
:102A100020952E2301C02E2B2C938FBF0895CF938A
:102A2000DF9390E0FC01E45FF74F2491FC01E35158
:102A3000F84F8491882361F190E0880F991FFC0181
:102A4000EF52F84FC591D491FC01E152F84FA59196
:102A5000B491611109C09FB7F894888120958223B1
:102A60008883EC912E230BC0623061F49FB7F894F9
:102A70003881822F809583238883EC912E2B2C9391
:102A80009FBF06C08FB7F894E8812E2B28838FBF95
:102A9000DF91CF910895823108F08251E82FF0E064
:102AA000EB53F84FE49180917B00E3FB222720F960
:102AB00030E095E0220F331F9A95E1F78F7D282BA8
:102AC00020937B00E770E064E0937C0080917A00C3
:102AD000806480937A0080917A0086FDFCCF80919B
:102AE00078002091790090E0922B08953FB7F894F8
:102AF00080913C0490913D04A0913E04B0913F042C
:102B000026B5A89B05C02F3F19F00196A11DB11D48
:102B10003FBFBA2FA92F982F8827820F911DA11D83
:102B2000B11DBC01CD0142E0660F771F881F991FC0
:102B30004A95D1F70895CF92DF92EF92FF92CF930B
:102B4000DF936B017C010E947615EB01C114D10467
:102B5000E104F10479F00E9476156C1B7D0B683E50
:102B60007340A0F381E0C81AD108E108F108C85108
:102B7000DC4FECCFDF91CF91FF90EF90DF90CF90C3
:102B800008952FB7F89460913804709139048091BA
:102B90003A0490913B042FBF08951F920F920FB6F5
:102BA0000F9211242F933F938F939F93AF93BF93D3
:102BB0008091380490913904A0913A04B0913B047B
:102BC0003091370423E0230F2D3720F40196A11D07
:102BD000B11D05C026E8230F0296A11DB11D20934B
:102BE00037048093380490933904A0933A04B09347
:102BF0003B0480913C0490913D04A0913E04B0912F
:102C00003F040196A11DB11D80933C0490933D04A7
:102C1000A0933E04B0933F04BF91AF919F918F91D9
:102C20003F912F910F900FBE0F901F9018951F92FC
:102C30000F920FB60F9211242F933F934F935F93F0
:102C40006F937F938F939F93AF93BF93EF93FF9374
:102C50008091B900887F803609F49CC068F588327D
:102C600009F45BC090F4803109F454C038F488232F
:102C700009F4F6C0883009F44DC0F6C0883109F473
:102C80004CC0803209F45DC0EFC0803409F468C0E4
:102C900048F4803309F455C0883309F0E5C08093C7
:102CA0001004D8C0803509F44FC0883509F45DC0E0
:102CB000883409F0D9C0D6C0883909F4C7C0A8F44F
:102CC000883709F467C038F4883609F463C0803760
:102CD00009F460C0C9C0883809F4B8C0803909F463
:102CE0005FC0803809F0C0C05BC0803B09F486C07B
:102CF00038F4803A09F466C0883A09F47FC0B4C059
:102D0000803C09F4A7C0883C09F4A4C0883B09F4BE
:102D10008AC0AAC08091360410C090913504809179
:102D20003404981770F5E091350481E08E0F80939C
:102D30003504F0E0EC5EFB4F80818093BB0085ECB6
:102D400086C0809310048EC0E091350481E08E0F20
:102D5000809335048091BB00F0E0EC5EFB4F8083F4
:102D600090913504809134046EC0E091350481E087
:102D70008E0F809335048091BB00F0E0EC5EFB4F3A
:102D800080838091130481116DC081E080931204CF
:102D900084EA61C083E08093110410920F04CFCFC6
:102DA00080910F04803208F051C0E0910F0481E05F
:102DB0008E0F80930F048091BB00F0E0E151FC4F37
:102DC0008083BDCF85EC8093BC001092110480916C
:102DD0000F04803230F4E0910F04F0E0E151FC4F39
:102DE000108260910F0470E0E091ED03F091EE032A
:102DF0008FEE93E0099510920F0436C084E0809323
:102E000011041092EC031092EB03E091E903F091AE
:102E1000EA0309958091EB03811105C081E080935D
:102E2000EB031092C903E091EC0381E08E0F8093D5
:102E3000EC03F0E0E753FC4F80818093BB0090915E
:102E4000EC038091EB03981708F479CF85E8809321
:102E5000BC000AC085EC8093BC001092110404C031
:102E6000109210040E94E913FF91EF91BF91AF916E
:102E70009F918F917F916F915F914F913F912F9192
:102E80000F900FBE0F901F9018952091AB013091BD
:102E9000AC012817390708F4C90190938B0080937F
:102EA0008A0008952091AB013091AC0128173907B1
:102EB00008F4C901909389008093880008950097D1
:102EC00069F0FC0101900020E9F73197AF01481B40
:102ED000590BBC0180E994E00C946F1380E090E002
:102EE00008950F931F930E94C115609398047093E7
:102EF000990480939A0490939B04E0919004F0913C
:102F000091040084F185E02D80E994E0099597FF14
:102F10001FC00E94C115009198041091990420913E
:102F20009A0430919B04DC01CB01801B910BA20B16
:102F3000B30B009194041091950420919604309164
:102F4000970480179107A207B307B8F28FEF9FEF9E
:102F50001F910F91089580918F0429B1922F9C7039
:102F6000892B90E0AC015595479555954795409331
:102F70008F0440918B0450918C0460918D0470916A
:102F80008E04FC01ED5AFE4F8081082E000C990B37
:102F9000AA0BBB0B840F951FA61FB71F80938B0432
:102FA00090938C04A0938D04B0938E0480918A0436
:102FB000811119C021FF17C081E080938A0480939A
:102FC00088048093AA048091840490918504A09140
:102FD0008604B091870480938B0490938C04A09313
:102FE0008D04B0938E040895E0919004F0919104C3
:102FF0000190F081E02D682F80E994E00994CF934F
:10300000DF938DE00E94F417EC018AE00E94F41730
:103010008C0F9D1FDF91CF9108958F929F92AF9259
:10302000BF92EF92FF920F931F93CF93DF93CDB791
:10303000DEB7A1970FB6F894DEBF0FBECDBF162F37
:10304000042F19A2423008F40AE07E0121E2E20EC8
:10305000F11C802E912CA12CB12C612FA501940183
:103060000E946930029F1019112481E0E81AF108CA
:103070001A3014F4105D01C0195CF7011083122F8F
:10308000732FCA01232B242B252B39F7C7010E944C
:103090005F17A1960FB6F894DEBF0FBECDBFDF91CC
:1030A000CF911F910F91FF90EF90BF90AF909F90A5
:1030B0008F900895CF92DF92EF92FF92CF93DF939C
:1030C00097FF19C06B017C018DE20E94F417EC019F
:1030D00066277727CB016C197D098E099F094AE085
:1030E0000E940D188C0F9D1FDF91CF91FF90EF90E4
:1030F000DF90CF9008954AE0DF91CF91FF90EF905D
:10310000DF90CF900C940D18CF93DF93BC01990FF3
:10311000880B990B0E945A18EC010E94FF178C0F24
:103120009D1FDF91CF910895BC01990F880B990BDA
:103130000C945A18682F70E080E090E04AE00C94FC
:103140000D180C945F17FF920F931F93CF93DF938B
:1031500000D000D0CDB7DEB70E947117FC0197FDFB
:1031600011C08D32910591F0C0970A9778F0E091E7
:103170009004F09191040680F781E02D80E994E0BD
:103180000995EACF60E070E0CB014CC020E030E070
:10319000A901F12CE130F105F1F0ED32F105C9F0B2
:1031A000CF01C0970A97B8F4AAE0B0E00E94563069
:1031B0008F01FF0F220B330BDC01CB01800F911F1E
:1031C000A21FB31F9C01AD012053310941095109D0
:1031D00002C0FF24F394E0919004F09191040680E2
:1031E000F781E02D80E994E029833A834B835C8367
:1031F00009950E947117FC01C09729813A814B8182
:103200005C810A9738F2E130F10521F2FF2041F0AC
:1032100066277727CB01621B730B840B950B02C0CB
:10322000CA01B9010F900F900F900F90DF91CF91CD
:103230001F910F91FF900895CF93DF93CDB7DEB725
:10324000EE970FB6F894DEBF0FBECDBF789484B56D
:10325000826084BD84B5816084BD85B5826085BD92
:1032600085B5816085BD80916E00816080936E0020
:103270001092810080918100826080938100809112
:1032800081008160809381008091800081608093C3
:1032900080008091910082608093910080919100E4
:1032A0008160809391008091900081608093900074
:1032B0008091C10084608093C1008091C1008260D0
:1032C0008093C1008091C10081608093C100809192
:1032D000C30081608093C3008091C00082608093AE
:1032E000C0008091C20081608093C20080917A000A
:1032F000846080937A0080917A00826080937A0063
:1033000080917A00816080937A0080917A00806851
:1033100080937A001092A80181E08093D70080EA20
:103320008093D80082E189BD09B400FEFDCF61E041
:1033300070E080E090E00E949B1580E98093D800C7
:103340001CE01093E2001092E00010927E031092B5
:103350007D031092830310928403109285031092D0
:103360008603109278031092770310928C031092C8
:103370008D0310928E0310928F031092900310927F
:103380009103109292031092930342E0BE01615F99
:103390007F4F80E090E00E94C40E8F8598898A3F1D
:1033A000910509F407C18AEF90E09E878D8742E07E
:1033B000BE01635F7F4F80E090E00E94580E19824B
:1033C0001A821B821C8244E0BE016F5F7F4F82E045
:1033D00090E00E94580E88E394E09E878D8742E03B
:1033E000BE01635F7F4F86E090E00E94580E84E646
:1033F000898B41E0BE016F5E7F4F88E090E00E94C4
:10340000580E41E0BE016F5E7F4F8BE090E00E945E
:10341000580E41E0BE016F5E7F4F8CE090E00E944D
:10342000580E41E0BE016F5E7F4F80E190E00E9448
:10343000580E41E0BE016F5E7F4F8DE090E00E942C
:10344000580E82E3898B41E0BE016F5E7F4F89E0B9
:1034500090E00E94580E41E0BE016F5E7F4F8AE00F
:1034600090E00E94580E41E0BE016F5E7F4F8EE0FB
:1034700090E00E94580E86E4898B41E0BE016F5EA9
:103480007F4F8FE090E00E94580E1E861D8642E01E
:10349000BE01635F7F4F81E190E00E94580E8FEF85
:1034A00097E09E878D8742E0BE01635F7F4F83E197
:1034B00090E00E94580E8FEF9FE09E878D8742E03C
:1034C000BE01635F7F4F85E190E00E94580E80E867
:1034D000898B41E0BE016F5E7F4F87E190E00E94E3
:1034E000580E81E0898B41E0BE016F5E7F4F88E11D
:1034F00090E00E94580E80E699E0A0E0B0E0898359
:103500009A83AB83BC8344E0BE016F5F7F4F89E148
:1035100090E00E94580E198B41E0BE016F5E7F4F14
:103520008DE190E00E94580E1E861D8642E0BE018D
:10353000635F7F4F8AE290E00E94580E42E0BE0136
:10354000635F7F4F8EE290E00E94580E42E0BE0122
:10355000635F7F4F82E390E00E94580E42E0BE011D
:10356000635F7F4F86E390E00E94580E8FEF93E0F9
:103570009E878D8742E0BE01635F7F4F8CE290E0C3
:103580000E94580E42E0BE01635F7F4F80E390E0EF
:103590000E94580E42E0BE01635F7F4F84E390E0DB
:1035A0000E94580E42E0BE01635F7F4F88E390E0C7
:1035B0000E94580E42E067EB71E086E090E00E94C6
:1035C000C40E44E066EA74E082E090E00E94C40E1B
:1035D00044E06BE573E089E190E00E94C40E41E0B5
:1035E00069EB71E088E090E00E94C40E41E062E681
:1035F00073E089E090E00E94C40E41E060E673E071
:103600008AE090E00E94C40E41E065E673E08BE042
:1036100090E00E94C40E41E064E673E08CE090E02C
:103620000E94C40E41E063E673E08DE090E00E94EA
:10363000C40E41E061E673E08EE090E00E94C40EAB
:1036400041E066E673E08FE090E00E94C40E41E046
:103650006FE573E080E190E00E94C40E41E064EB0E
:1036600071E087E190E00E94C40E41E06BE873E0F6
:1036700088E190E00E94C40E42E065EB71E081E1D8
:1036800090E00E94C40E42E062EB71E083E190E0C2
:103690000E94C40E42E069E573E085E190E00E947B
:1036A000C40E41E061EB71E08DE190E00E94C40E38
:1036B00042E06FE773E08AE290E00E94C40E42E0CD
:1036C00061E873E08CE290E00E94C40E42E067E89B
:1036D00073E08EE290E00E94C40E42E069E873E07D
:1036E00080E390E00E94C40E42E069E773E082E369
:1036F00090E00E94C40E42E06BE773E084E390E048
:103700000E94C40E42E063E773E086E390E00E940B
:10371000C40E42E065E773E088E390E00E94C40EC7
:1037200060915B0370915C0380915D0390915E03F7
:103730000E94B63120E030E044EB53E40E940C31AB
:103740006B017C018091B7019091B801BC01990F88
:10375000880B990B0E94B6319B01AC01C701B601E1
:103760000E946B320E947E31609352037093530328
:1037700080935403909355036B017C01F594E79477
:10378000D794C794C0928404D0928504E0928604B2
:10379000F092870462E080E00E940F1562E081E011
:1037A0000E940F1562E082E00E940F1510928A04B9
:1037B000C0928B04D0928C04E0928D04F0928E041F
:1037C00010928F044A9B05C080918F048160809382
:1037D0008F044B9B05C080918F04826080938F047F
:1037E000809169008F7C806180936900EA9A809162
:1037F00069008F73806480936900EB9A60E082E1D6
:103800000E940F1560E083E10E940F1560E084E1E3
:103810000E940F1560E085E10E940F1562E085E0CF
:103820000E940F1562E08EE00E940F1562E08FE0AB
:103830000E940F15549A6E9A249A579A88E191E043
:103840009093AA018093A9018AED96E0909339059F
:103850008093380586E795E090933B0580933A0581
:10386000229A1091B101812F0E94ED0E5C0190937C
:10387000AC018093AB019093B3018093B20160914E
:10388000B5017091B60180E090E00E94B4316B0107
:103890007C01B50180E090E00E94B4319B01AC0155
:1038A000C701B6010E940C316093AD017093AE0167
:1038B0008093AF019093B001012F017010FD05C0FE
:1038C00020E030E04AEF54E404C020E030E04AE772
:1038D00054E4609108017091090180910A0190916E
:1038E0000B010E946B326093080170930901809371
:1038F0000A0190930B01011105C020E030E04AEF6E
:1039000054E404C020E030E04AE754E4609104014C
:103910007091050180910601909107010E946B3220
:103920006093040170930501809306019093070151
:10393000011105C020E030E04AEF54E404C020E06B
:1039400030E04AE754E460910001709101018091F8
:103950000201909103010E946B3260930001709309
:103960000101809302019093030110928000109254
:10397000810010926F0016BA8091AB019091AC015A
:10398000909387008093860010928900109288009F
:1039900010928B0010928A008091B101827482345F
:1039A00021F480918100826003C080918100816058
:1039B000809381008091B10180FF09C080918000D7
:1039C00082608093800080918100806108C0809136
:1039D0008000826080938000809181008861809364
:1039E000810080E090E00E94521780918000806802
:1039F00080938000259A80E090E00E944517809196
:103A00008000806280938000269A61E083E00E94BB
:103A10000F1513E061E083E00E94B01464E170E0F0
:103A200080E090E00E949B1560E083E00E94B0146B
:103A300064E170E080E090E00E949B15115051F726
:103A400010926D0310926E0310926F031092700328
:103A50008DE693E00E94AE078091840490918504E6
:103A6000A0918604B0918704F89480938B0490937E
:103A70008C04A0938D04B0938E04789410926C0300
:103A800010926B038FEF97E0909358038093570346
:103A90008091B401809356030E947615609394033D
:103AA0007093950380939603909397030E947615E5
:103AB0006093A2047093A3048093A4049093A5043C
:103AC000009198031091990320919A0330919B03E0
:103AD0006B017C01C01AD10AE20AF30AC0929E046B
:103AE000D0929F04E092A004F092A104009194036C
:103AF0001091950320919603309197036B017C01FF
:103B0000C01AD10AE20AF30A40EDC41647E0D4060F
:103B1000E104F10410F40C94812F609394037093EA
:103B2000950380939603909397038091880488234C
:103B300019F1F89480918B0490918C04A0918D04DC
:103B4000B0918E04789440918404509185046091E2
:103B5000860470918704841B950BA60BB70B4091CC
:103B6000A6045091A7046091A8047091A904840F41
:103B7000951FA61FB71F16C0F89480918B049091D3
:103B80008C04A0918D04B0918E04789440918404AB
:103B9000509185046091860470918704841B950B75
:103BA000A60BB70B8093900390939103A09392037D
:103BB000B09393038091900390919103A09192030D
:103BC000B091930380938C0390938D03A0938E0305
:103BD000B0938F0310918B0315FB882780F916FD96
:103BE000826017FF02C0846025C0813019F5809182
:103BF000840490918504A0918604B09187046C019F
:103C00007D01C094D094E094F0949C01AD012C19F6
:103C10003D094E095F09609183037091840380918F
:103C20008503909186030E9468332FEF3FEF40E0B9
:103C300050E04AC0823099F4409184045091850448
:103C400060918604709187046A017B01C094D094CE
:103C5000E094F094A0917D03B0917E0329C083305D
:103C600099F4409184045091850460918604709188
:103C700087046A017B01C094D094E094F094A091F1
:103C80007703B091780314C0843061F540918404C7
:103C90005091850460918604709187046A017B01CC
:103CA000C094D094E094F094A0917103B091720309
:103CB0009A01AB012C193D094E095F090E94613040
:103CC0002FEF3FE040E050E00E943730C20ED31E9D
:103CD000E41EF51EC0928C03D0928D03E0928E03F9
:103CE000F0928F0380908C0390908D03A0908E03B0
:103CF000B0908F038091AB049091AC04A091AD047F
:103D0000B091AE048092AB049092AC04A092AD044A
:103D1000B092AE042091B304222309F449C000916B
:103D2000DC0454E0059F90011124B90165557B4FD7
:103D30007B01A5019401281B390B4A0B5B0BCA01BF
:103D4000B9010E94B631D70119966D937D938D9379
:103D50009C931C97F02E3AE0E32E60E070E0CB01DC
:103D6000B4E0FB9EF0011124E555FB4F218532851F
:103D7000438554850E949B30FF2011F0FA9402C0C5
:103D800029E0F22EEA94E110EBCF20E030E040E2AF
:103D900051E40E940C310F5F0A3018F40093DC04E8
:103DA00002C01092DC046EA37FA388A799A70FC05E
:103DB00081E08093B3041092AF041092B00410928B
:103DC000B1041092B2041EA21FA218A619A6209137
:103DD000DD043091DE044091DF045091E0048EA1B7
:103DE0009FA1A8A5B9A58093DD049093DE04A093BC
:103DF000DF04B093E0048091E504882309F444C013
:103E000000913605E4E00E9FC0011124BC016C5402
:103E10007B4F7B016EA17FA1CD010E949A30D7011B
:103E2000D2966D937D938D939C93D597F02EB4E1AC
:103E3000EB2E60E070E0CB01B4E0FB9EF0011124BA
:103E4000EC54FB4F22A933A944A955A90E949B30E9
:103E5000FF2011F0FA9402C0A3E1FA2EEA94E110D7
:103E6000EBCF20E030E040EA51E40E940C310F5FDC
:103E7000043118F40093360502C0109236056EA77F
:103E80007FA788AB99AB0FC081E08093E5041092C7
:103E9000E1041092E2041092E3041092E4041EA6DE
:103EA0001FA618AA19AA80913705882359F110FF77
:103EB0000BC70E944E0B9B01AC0160E070E080E0FC
:103EC00094E40E940C316B017C016091660370E008
:103ED00080E090E00E94B6319B01AC01C701B601C1
:103EE0000E946B3220E030E048EC52E40E940C313A
:103EF0000E947E31AB01C501B4010E94870C2B01E9
:103F00003C01E5C6EEEBF1E0FDA3ECA31F8A1E8A9F
:103F1000412C512C32010E891F890F5F1F4F1F8BBF
:103F20000E8B4EE19801429F8001439F100D11249A
:103F300006511E4FD8018C918370833009F0B7C6AB
:103F40000E944E0B6B017C01F80121853285A78907
:103F5000B08D0E9492332FEF3FE740E050E00E9487
:103F60003730CA01B9010E94B631A70196010E94FB
:103F70000C310E947E319B01AC01D8011B968D91C2
:103F80009C911C97059730F4E4E0F0E01C96FC93BC
:103F9000EE931B97FEE1EF2ECE88DF88EC9CF001BC
:103FA000ED9CF00D1124E651FE4FE1818E2F90E043
:103FB000FC013197ED30F10508F063C6EA5AFF4F76
:103FC0000C948C330E944E0B6A8B7B8B8C8B9D8B5D
:103FD0002EE10E891F89209FC001219F900D112481
:103FE000AC0146515E4F1A01DA0119968D909C90F2
:103FF0001A975596AD90BC9056971F96CD90DC9031
:1040000050975196ED90FC90529753960D911C91BC
:10401000549714962C91149713964C911397579686
:104020008D919C915897ECA1FDA1608171810E94B6
:104030005F0B9401DC010E9492332FEF3FE740E0D9
:1040400050E00E943730CA01B9010E94B6312A8976
:104050003B894C895D890E940C310E947E310E940F
:104060005C0C9B01AC01A0916503B0E00E9456304E
:1040700024E630E040E050E00E943730421A530A14
:10408000640A750A6EC10E944E0B6A8B7B8B8C8B07
:104090009D8B6EE1E62ECE88DF88EC9CF001ED9CD6
:1040A000F00D1124E651FE4F01851285198F088FFE
:1040B000C588D688DD8ECC8EE784F088F9A2E8A288
:1040C000018912891BA70AA7038914891AAF09AFAE
:1040D00084809380ACA1BDA12D903C900785108970
:1040E0006085A7800A2C000CBB08062E000C770BFD
:1040F0006A197B09CB01770FAA0BBB0B6627782FB8
:10410000892F9A2F0E94B6316B017C01B80180E0A3
:1041100090E00E94B43120E030E04AE754E40E948D
:104120000C319B01AC01C701B6010E940C316B013F
:104130007C01C101B8010E947833BC0180E090E0AD
:104140000E94B43120E030E04AE754E40E940C3190
:104150009B01AC01C701B6010E946B320E947E3107
:10416000BA2CAA24C501860F971FAC8CBD8CC8A0A1
:10417000D9A0EAA4FBA409AD1AAD282D492DB1019F
:104180000E945F0B288D398DDC010E9492332FEF46
:104190003FE740E050E00E943730CA01B9010E9479
:1041A000B6312A893B894C895D890E940C310E9475
:1041B0007E310E945C0C461A570A680A790A61C56A
:1041C0000E944E0B688F798F8A8F9B8F5EE1C52E80
:1041D000EE89FF89CE9EC001CF9E900D11248C01E7
:1041E00006511E4F1801D80119960D90BC91A02DB3
:1041F000BD8FAC8FF801038CF48DE02DF9A3E8A3FB
:10420000D8015D96BC91BAA7F80183849484A588EF
:10421000B688C784D088E188F2880389148924810C
:104220004381ACA1BDA10D90BC91A02DBB8BAA8BED
:104230008789908DBD010E945F0B8C01B40180E0E5
:1042400090E00E94B43120E030E04AE754E40E945C
:104250000C319B01AC0160E070E080E89FE30E94BC
:104260000C316B017C018A899B89B4010E947833EF
:10427000BC0180E090E00E94B43120E030E04AE7E9
:1042800054E40E940C319B01AC01C701B6010E94AD
:104290006B326B017C01BAA56B2F70E080E090E07F
:1042A0000E94B43120E030E040E85BE30E946B32D2
:1042B0009B01AC01C701B6010E949B302BED3FE092
:1042C00049EC50E40E946B320E94D8329B01AC0151
:1042D000E8A1F9A16F01FF0FEE08FF08B801110F67
:1042E000880B990B2BAF3EAF4CAF5DAF0E94B63140
:1042F0002BAD3EAD4CAD5DAD0E946B320E947E3168
:10430000CB01770FAA0BBB0BA7019601280F391F12
:104310004A1F5B1FAC8DBD8D0E9456302FEF3FE7CB
:1043200040E050E00E943730CA01B9010E94B63126
:10433000288D398D4A8D5B8D0E940C310E947E3113
:104340009B01AC01A0916403B0E00E94563024E6CA
:1043500030E040E050E00E943730420E531E641EB1
:10436000751ED10116968C91169782FF8AC41D96F0
:104370006D917C911E9780E090E00E94B4312BED0E
:104380003FE049EC50E40E946B3220E030E040E036
:1043900058E30E946B320E94D8329B01AC01C301EA
:1043A000B2012BAF3EAF4CAF5DAF0E94B6312BAD2B
:1043B0003EAD4CAD5DAD0E946B320E947E312B0153
:1043C0003C015FC40E944E0B688F798F8A8F9B8F50
:1043D0004EE1E42ECE88DF88EC9CF001ED9CF00DE0
:1043E0001124E651FE4F018512851D8F0C8F238D00
:1043F000348DA901330F660B770B48A359A36AA329
:104400007BA3558D5AA723843484A588B688C78496
:10441000D088E188F2880389148924814381ACA182
:10442000BDA10D90BC91A02DBB8BAA8B8789908DCF
:10443000BD010E945F0BBC01990F880B990B0E9474
:10444000B6314B015C01B10180E090E00E94B431D3
:1044500020E030E04AE754E40E940C319B01AC01BB
:1044600060E070E080E89FE30E940C316B017C010A
:104470008A899B89B1010E947833BC0180E090E079
:104480000E94B43120E030E04AE754E40E940C314D
:104490009B01AC01C701B6010E946B326B017C012C
:1044A000BAA56B2F70E080E090E00E94B43120E06C
:1044B00030E040E85BE30E946B329B01AC01C70136
:1044C000B6010E949B302BED3FE049EC50E40E9486
:1044D0006B320E94D8326B017C0120E030E0A901F0
:1044E0000E94663287FF0CC020E030E0A901C701BE
:1044F000B6010E94073187FF05C0EFEFECAB02C0A9
:10450000F1E0FCABCCA86C2DCC0C770B880B990B95
:104510000E94B6319B01AC01C501B4010E946B320F
:104520000E947E31CB01770FAA0BBB0BD8C10E9432
:104530004E0B6C8F7D8F8E8F9F8F0EE1EE88FF88E4
:104540000E9DF0010F9DF00D1124E651FE4F2185C7
:10455000328539A328A3238D348DA901330F660B2F
:10456000770B4AA75BA76CA77DA7358D63857485FC
:104570007B8B6A8BA588B688C784D088E188F2884F
:104580000389148924814381ACA1BDA10D90BC9104
:10459000A02DB98FA88F8789908DBD013EAF0E9455
:1045A0005F0B1C01EA89FB89BF0180E090E00E945B
:1045B000B4314B015C013EAD60E4630F70E080E01C
:1045C00090E00E94B43120E030E040E85BE30E94DC
:1045D0006B32A50194010E946B320E948531888D57
:1045E000998D860F971F6A897B890E9478338C0189
:1045F000BC0180E090E00E94B43120E030E04AE766
:1046000054E40E940C316B017C0120E030E0A901F0
:104610000E94663287FD3CC020E030E04AE754E467
:10462000C501B4010E940C31688F798F8A8F9B8FEE
:1046300020E030E040E05FE30E946B329B01AC0180
:10464000C701B6010E94073187FF22C0B101032CC8
:10465000000C880B990B0E94B63120E030E040E856
:1046600050E40E946B32288D398D4A8D5B8D0E94FB
:104670000C31A70196010E946B320E947E31319469
:10468000219431086101C60ED71EDBAACAAA51C007
:1046900020E030E04AE754E4C501B4010E940C3147
:1046A0004B015C0120E030E040E05FE30E946B32B0
:1046B0009B01AC01C701B6010E94663287FD39C07B
:1046C000A5019401C701B6010E94073187FF31C0DF
:1046D000B101032C000C880B990B0E94B63120E02D
:1046E00030E040E850EC0E946B32A50194010E943A
:1046F0000C316B017C018A899B8996958795B8015D
:10470000681B790B80E090E00E94B43120E030E03B
:104710004AE754E40E940C319B01AC01C701B60189
:104720000E946B320E947E317101E60EF71EFBAAD9
:10473000EAAA0AA91BA9C801110FAA0BBB0B2AA53B
:104740003BA54CA55DA5280F391F4A1F5B1FA8A1DB
:10475000B9A10E9456302FEF3FE740E050E00E94A1
:104760003730CA01B9010E94B6312C8D3D8D4E8D76
:104770005F8D0E940C310E947E319B01AC01A091A3
:104780006403B0E00E94563024E630E040E050E0A0
:104790000E943730420E531E641E751E72C20E9464
:1047A0004E0B688F798F8A8F9B8F4EE12E893F89C0
:1047B000429FF001439FF00D1124E651FE4F6185A9
:1047C00072857D8F6C8F238D348DC901330FAA0BB9
:1047D000BB0B88A399A3AAA3BBA3358D23843484E0
:1047E000A588B688C784D088E188F28803891489AF
:1047F00024814381ACA1BDA10D90BC91A02DBB8BA8
:10480000AA8B8789908DBD013EAF0E945F0B8C0102
:10481000B10180E090E00E94B4314B015C013EADFB
:1048200060E8630F70E080E090E00E94B43120E027
:1048300030E040E85BE30E946B32A50194010E94E6
:104840006B320E9485318A899B89860F971FB1013F
:104850000E9478339B8B8A8B82159305D0F5B80123
:10486000012E000C880B990B0E94B6319B01AC0104
:104870000E949B306B017C0120E030E04AE754E469
:10488000C501B4010E940C319B01AC01C701B60106
:104890000E940C314B015C01CA88DB88B60180E0C4
:1048A00090E00E94B43120E030E04AE754E40E94F6
:1048B0000C319B01AC01C501B4010E946B320E9416
:1048C0007E311195019511097801E60EF71EFEAAB9
:1048D000EDAA0DA91EA9C801110FAA0BBB0B28A197
:1048E00039A14AA15BA1280F391F4A1F5B1FAC8D5C
:1048F000BD8D0E9456302FEF3FE740E050E00E9410
:104900003730CA01B9010E94B631288D398D4A8DE0
:104910005B8D2FCF0E944E0B688F798F8A8F9B8F74
:104920004EE12E893F89429FF001439FF00D1124F3
:10493000E651FE4F618572857D8F6C8F238D348D9E
:10494000C901330FAA0BBB0B88A399A3AAA3BBA3CE
:10495000358D23843484A588B688C784D088E188BF
:10496000F2880389148924814381ACA1BDA10D90F3
:10497000BC91A02DBB8BAA8B8789908DBD013EAFCA
:104980000E945F0B8C01B10180E090E00E94B43185
:104990004B015C013EAD60E8630F70E080E090E0A9
:1049A0000E94B43120E030E040E85BE30E946B32CB
:1049B000A50194010E946B320E9485318A899B89EE
:1049C000860F971FB1010E9478339B8B8A8B8215CB
:1049D0009305D0F566277727601B710B072E000C17
:1049E000880B990B0E94B6319B01AC010E949B3051
:1049F0006B017C0120E030E04AE754E4C501B401DA
:104A00000E940C319B01AC01C701B6010E940C3120
:104A10004B015C01CA88DB88B60180E090E00E940F
:104A2000B43120E030E04AE754E40E940C319B01AD
:104A3000AC01C501B4010E946B320E947E31780145
:104A4000E60EF71EF8AEEFAA0FA918AD44CF8EE11F
:104A50006E897F89869FF001879FF00D1124E651B2
:104A6000FE4F038D148DA0916303B0E00E94563079
:104A700020E436E040E050E00E94373069017A01DE
:104A800020918404309185044091860450918704DC
:104A9000D8010E946130DC01CB012FE0B595A795CC
:104AA000979587952A95D1F7092E000CAA0BBB0B79
:104AB00040918C0350918D0360918E0370918F0310
:104AC0008A019B01081B190B2A0B3B0BC901B8017A
:104AD000A6010E94870C460E571E681E791ED1C083
:104AE0008EE16E897F89869FF001879FF00D1124EA
:104AF000E651FE4F038D148DA0916203B0E00E9439
:104B0000563024E630E040E050E00E943730690142
:104B10007A01B801110F880B990B0E94B6312AE96E
:104B200039EC4CEC54E40E940C319B01AC016EA1B9
:104B30007FA188A599A50E949A30A6010E94B40D74
:104B400062C08EE1C82EAE89BF89CA9EF001CB9E9D
:104B5000F00D1124E651FE4F038D148DA0916103D9
:104B6000B0E00E94563024E630E040E050E00E9481
:104B7000373069017A01B801110F880B990B0E9437
:104B8000B63120E03EEF4FEF56E40E940C319B011E
:104B9000AC016EA57FA588A999A90E949A30A601AB
:104BA0000E944C0D30C00EE1EE88FF880E9DF00192
:104BB0000F9DF00D1124E651FE4F038D148DA09131
:104BC0006003B0E00E94563024E630E040E050E060
:104BD0000E94373069017A01B801110F880B990BD7
:104BE0000E94B6312AE939EC4CEC54E40E940C31B5
:104BF0009B01AC016EA17FA188A599A50E949A3066
:104C0000A6010E94CB0C092E000CAA0BBB0B480E70
:104C1000591E6A1E7B1E35C00E944E0B9B01AC01C3
:104C20008EE16E897F89869FF001879FF00D1124A8
:104C3000E651FE4F838D948DBC01990F880B990B23
:104C40002BAF3EAF4CAF5DAF0E94B6312BAD3EAD4A
:104C50004CAD5DAD0E940C310E947E310E945C0C17
:104C60009B01AC01A0916403B0E00E94563024E6A1
:104C700030E040E050E00E943730421A530A640AA4
:104C8000750A0E94C1150091BA011091BB012091D3
:104C9000BC013091BD01DC01CB01801B910BA20B4B
:104CA000B30BECA1FDA180839183A283B3830CA1FC
:104CB0001DA10C5F1F4F1DA30CA32E893F892B3014
:104CC000310509F028C903C0412C512C3201109143
:104CD0008B0311FF2EC00E944E0B9B01AC01E09193
:104CE000620367E471E0E69FC001E79F900D112425
:104CF000BC01990F880B990B2BAF3EAF4CAF5DAF4A
:104D00000E94B6312BAD3EAD4CAD5DAD0E940C3175
:104D10000E947E31AB016EA17FA188A599A50E945A
:104D2000B40D092E000CAA0BBB0B480E591E6A1EAF
:104D30007B1E12FF2EC00E944E0B9B01AC01E09126
:104D4000610367E471E0E69FC001E79F900D1124C5
:104D5000BC01990F880B990B2BAF3EAF4CAF5DAFE9
:104D60000E94B6312BAD3EAD4CAD5DAD0E940C3115
:104D70000E947E31AB016EA57FA588A999A90E94EA
:104D80004C0D092E000CAA0BBB0B480E591E6A1EB7
:104D90007B1E13FF2EC00E944E0B9B01AC01E091C5
:104DA000600367E471E0E69FC001E79F900D112466
:104DB000BC01990F880B990B2BAF3EAF4CAF5DAF89
:104DC0000E94B6312BAD3EAD4CAD5DAD0E940C31B5
:104DD0000E947E31AB016EA17FA188A599A50E949A
:104DE000CB0C092E000CAA0BBB0B480E591E6A1ED9
:104DF0007B1E4091840450918504609186047091DB
:104E0000870480918C0390918D03A0918E03B091C3
:104E10008F03CC24DD247601C41AD50AE60AF70AEA
:104E20008C159D05AE05BF0534F0481759076A0774
:104E30007B070CF045C0B7FD05C0841B950BA60B86
:104E4000B70B04C0840F951FA61FB71F80938C0358
:104E500090938D03A0938E03B0938F030E944E0B0B
:104E60009B01AC0160E07EEF8FEF96E40E940C3175
:104E70006B017C0160915F0370E080E090E00E9434
:104E8000B6319B01AC01C701B6010E946B3220E034
:104E900030E048EC52E40E940C310E947E316B01FC
:104EA0007C0160918C0370918D0380918E039091B1
:104EB0008F03A6010E94870C460E571E681E791E9E
:104EC000A091B901B0E0A30192010E94563024E6FE
:104ED00030E040E050E00E943730CA01B9010E9442
:104EE0005C0C6B017C0114FF04C00E945A180E94E4
:104EF000FF17C0926D03D0926E03E0926F03F092A1
:104F0000700360919003709191038091920390914E
:104F100093030E94B6316B017C0160915203709142
:104F2000530380915403909155030E94B6319B0125
:104F3000AC0160E07FEF8FE797E40E940C319B01AA
:104F4000AC01C701B6010E946B320E947E31462F30
:104F5000572FBC01411530E853076105710524F056
:104F60004FEF5FE760E070E0411580E858078FEF92
:104F70006807780724F440E050E86FEF7FEF409334
:104F800090035093910360939203709393038DE683
:104F900093E00E94AE0782E10E944B1590937E033E
:104FA00080937D0384E10E944B1590937803809356
:104FB000770385E10E944B159093720380937103F0
:104FC00083E10E944B151C0100916B0310916C034F
:104FD00080917F0390918003800F911F4C01A12C41
:104FE000B12CC0907903D0907A03C00ED11EE12C71
:104FF000F12C2091770330917803C901330FAA0B6C
:10500000BB0B9C01AD012C193D094E095F09AFEFA7
:10501000BFE00E94563020917B0330917C03201B1F
:10502000310B2901612C712CA30192012C193D092E
:105030004E095F090E94373029013A01C09073037D
:10504000D0907403C00ED11EE12CF12C209171037D
:1050500030917203C901330FAA0BBB0B9C01AD0148
:105060002C193D094E095F09AFEFBFE00E94563091
:105070002091750330917603201B310B40E050E006
:105080002C193D094E095F090E94373069017A01E8
:1050900020917D0330917E03C901330FAA0BBB0B16
:1050A0009C01AD01281939094A095B09AFEFBFE03E
:1050B0000E9456302091810330918203201B310BD6
:1050C00040E050E0281939094A095B090E9437304D
:1050D000211590E1390714F02FEF3FE037FF02C0B0
:1050E00020E030E030937E0320937D03C201411421
:1050F000A0E15A0614F08FEF9FE02C0197FF02C049
:10510000412C512C5092780340927703C601C11470
:10511000B0E1DB0614F08FEF9FE06C0197FF02C057
:10512000C12CD12CD0927203C0927103C09087031E
:10513000D0908803C00ED11EE12CF12CC101330C9C
:10514000AA0BBB0B9C01AD012C193D094E095F094F
:10515000AFEFBFEF0E9456302091890330918A0350
:10516000201B310B890120E030E0A90198012C19A6
:105170003D094E095F090E94373021153105E1E0F4
:105180004E07510524F02FEF3FEF40E050E0DA01E9
:10519000C90157FF03C080E090E0DC0180938303E6
:1051A00090938403A0938503B093860340E050E07E
:1051B000C12CD12C760160E071E0611102C05C98D5
:1051C00009C0613011F4769805C0623011F42C9852
:1051D00001C05F9820E030E02115310529F486B147
:1051E00086FB882780F910C0213039F483B1869579
:1051F000869586958227817008C0223011F483B18C
:1052000001C089B1869581708727F901E40FF51FE8
:10521000882381F081E090E0A0E0B0E004C0880F36
:10522000991FAA1FBB1FEA95D2F7C82AD92AEA2AD2
:10523000FB2A13C081E090E0A0E0B0E004C0880F3A
:10524000991FAA1FBB1FEA95D2F780959095A0954C
:10525000B095C822D922EA22FB222F5F3F4F24308B
:10526000310509F0B9CF611102C05C9A09C0613003
:1052700011F4769A05C0623011F42C9A01C05F9A3D
:105280006F5F4C5F5F4F643009F097CF8C2D8F704C
:10529000813081F0823081F0843081F0883081F07B
:1052A000833081F0863081F0893081F08C3081F05C
:1052B00080E00FC081E00DC083E00BC085E009C035
:1052C00087E007C082E005C084E003C088E001C039
:1052D00086E0F0EFCF22C82AC0926703D09268031D
:1052E000E0926903F0926A03609171038091720306
:1052F000209177033091780370917D0390917E0324
:10530000F0918303E09184034091900350919103C5
:10531000505849835A83FB83EC837D839F70422FCF
:105320004295407F942B9E83A4E036952795AA95BD
:10533000E1F72F8368879C2D9295907F8F70892B42
:105340008987D701C60114E0B695A79597958795EB
:105350001A95D1F78A870CE0F694E794D794C7940E
:105360000A95D1F7CB861C864CE050E0BE016F5FFA
:105370007F4F84E00E948D1280919E0490919F0443
:10538000A091A004B091A10480319742A105B1057C
:1053900008F4B7C580E994E00E94DC1318161906DA
:1053A0000CF09FC580E994E00E94A213E82F8FE9DA
:1053B0008E0F8A3108F4E0528E2F90E0FC01E15408
:1053C000F109EA31F10508F08CC5ED59FF4F0C9455
:1053D0008C338091B7019091B8010E94941880E2BB
:1053E0000E94F4178091B9010E949A1880E20E94ED
:1053F000F417809162030E949A1880E20E94F417C9
:10540000809160030E949A1880E20E94F4178091B4
:1054100065030E949A1880E20E94F4178091640349
:105420000E949A1880E20E94F417809163030E9400
:105430009A1880E20E94F417809161030E949A18E2
:1054400080E20E94F417809166030E949A1880E21D
:105450000E94F41780915F030E949A1880E20E94D4
:10546000F4176091B5017091B60180E090E04AE0D8
:105470000E940D1880E20E94F4178091B4010E94EE
:105480009A1880E20E94F41780918B030E949A1868
:1054900080E20E94F4176091B2017091B30180E044
:1054A00090E04AE00E940D1880E20E94F41760919B
:1054B0005B0370915C0380915D0390915E030E9499
:1054C0005A1880E20E94F4176091B10170E0ADC2F9
:1054D00083E991E00E94A1188AEF90E00E9494185D
:1054E00088E991E00E94A1188AE991E00E94A11840
:1054F0008CE991E00E94A1188EE991E00E94A11828
:1055000080EA91E00E94A11882EA91E00E94A1182D
:10551000E8C48091AA04082E000C990BE0C4F8940A
:1055200080918B0490918C04A0918D04B0918E0495
:10553000789419821A821B821C82F894C0908B0482
:10554000D0908C04E0908D04F0908E04789480913B
:10555000B2019091B3012091B5013091B601821B47
:10556000930B9695879596958795A0E0B0E08983F3
:105570009A83AB83BC83CE0101960E94AE071EEFD7
:10558000F89440918B0450918C0460918D0470913B
:105590008E04789480918804882351F019821A82AD
:1055A0001B821C82CE0101960E94AE0781E024C0BE
:1055B0009A01AB012C193D094E095F09A091B70171
:1055C000B091B8010E946130209152033091530391
:1055D00040915403509155030E9437302836314092
:1055E0004105510564F019821A821B821C82CE018A
:1055F00001960E94AE0783E08093AA046EC462E322
:1056000070E080E090E00E949B15115009F0B8CF47
:1056100064C40E94A318611101C061E06093B401E9
:105620005CC4F89440908B0450908C0460908D047E
:1056300070908E0478948091840490918504A09158
:105640008604B0918704481A590A6A0A7B0A809135
:10565000A6049091A704A091A804B091A904480EB3
:10566000591E6A1E7B1E0E94A318643071058105B5
:10567000910594F06B017C0171ECC71677E2D706B7
:1056800079E0E706F1046CF0E0ECCE2EE7E2DE2EE6
:10569000E9E0EE2EF12C05C074E0C72ED12CE12CF0
:1056A000F12CC982DA82EB82FC826091B7017091A1
:1056B000B801072E000C880B990B0E94B6314B01E4
:1056C0005C01C301B2010E94B631A50194010E94A0
:1056D0006B322B013C016091520370915303809116
:1056E0005403909155030E94B6319B01AC01C30154
:1056F000B2010E940C312B013C01C0925B03D0929D
:105700005C03E0925D03F0925E03C701B601ADC099
:105710008091840490918504A0918604B0918704BF
:10572000F89440918B0450918C0460918D04709199
:105730008E047894841B950BA60BB70B8093A6045C
:105740009093A704A093A804B093A904C6C3109291
:10575000A6041092A7041092A8041092A90444E091
:1057600066EA74E082E090E046C3F89480908B048F
:1057700090908C04A0908D04B0908E0478948091C9
:10578000840490918504A0918604B0918704881ABE
:10579000990AAA0ABB0A8091A6049091A704A09135
:1057A000A804B091A904880E991EAA1EBB1E0E94CF
:1057B000A3186E3171058105910584F06B017C01A0
:1057C00089E0C81687E0D806E104F10464F068E0D7
:1057D000C62E67E0D62EE12CF12C05C05EE1C52E69
:1057E000D12CE12CF12CC982DA82EB82FC82C5013A
:1057F000B4010E94B6314B015C016091B701709118
:10580000B801072E000C880B990B0E94B6319B0142
:10581000AC01C501B4010E946B324B015C01609187
:1058200052037091530380915403909155030E9449
:10583000B6319B01AC01C501B4010E940C312B01B2
:105840003C01D092B801C092B701B601DD0C880BC3
:10585000990B0E94B6314B015C0160915B03709122
:105860005C0380915D0390915E030E94B63120E05D
:1058700030E044EB53E40E940C31A50194010E94F6
:105880006B320E947E316093520370935303809376
:105890005403909355036B017C01F594E794D794DE
:1058A000C794C0928404D0928504E0928604F0925A
:1058B00087040E94B6319B01AC01C301B2010E9472
:1058C0006B32A50194010E940C310E947E31C60EFC
:1058D000D71EE81EF91E8091A6049091A704A091FE
:1058E000A804B091A904C81AD90AEA0AFB0AF894D4
:1058F000C0928B04D0928C04E0928D04F0928E04BE
:105900007894EBC20E94A318462F60918B0380E02D
:1059100090E050E0FA01082E02C0F595E7950A9450
:10592000E2F7C12CD12C7601C394082E04C0CC0C14
:10593000DD1CEE1CFF1C0A94D2F797018601E0FFE4
:1059400002C06C2902C00095602301968830910541
:1059500009F760938B0370E080E090E042E00E94E2
:105960000D180E94FF17BDC20E94A3188091B101BB
:1059700020E030E0E62FF0E0AF01022E02C05595A6
:1059800047950A94E2F740FF0EC041E050E060E026
:1059900070E0022E04C0440F551F661F771F0A9443
:1059A000D2F7842B0EC041E050E060E070E0022EA0
:1059B00004C0440F551F661F771F0A94D2F7409505
:1059C00084232F5F3F4F28303105B1F68093B1011A
:1059D00041E061EB71E08DE190E00E94580E809112
:1059E000B1010E94ED0EBC0180E090E00E94B43154
:1059F0002091AD013091AE014091AF015091B001C5
:105A00000E946B320E947E3169837A838B839C83F0
:105A100044E0BE016F5F7F4F81E190E00E94580E2D
:105A20008091B1010E94ED0EBC0180E090E04AE05F
:105A300096CF80E090E053C280E994E00E94A213E8
:105A4000E82F8FE98E0F8A3108F4E0528E2F90E014
:105A5000FC01E154F109E231F10508F042C2E358DA
:105A6000FF4F0C948C330E94A318611500E170075E
:105A70008105910524F06FEF7FE080E090E097FFD3
:105A800003C060E070E0CB0169837A838B839C83E1
:105A9000709388036093870320C20E94A318611546
:105AA00010E171078105910524F06FEF7FE080E040
:105AB00090E097FF03C060E070E0CB0169837A83D8
:105AC0008B839C8370938A036093890306C20E9430
:105AD000A318611520E172078105910524F06FEF8D
