:100000000C9426040C944E040C944E040C94CA07D1
:100010000C94A6070C944E040C944E040C944E04BD
:100020000C944E040C944E040C94E90A0C948C0825
:100030000C944E040C944E040C944E040C944E04F8
:100040000C944E040C944E040C944E040C944E04E8
:100050000C944E040C944E040C944E040C947C109E
:100060000C944E040C944E040C944E040C944E04C8
:100070000C944E040C944E040C944E040C944E04B8
:100080000C944E040C944E040C944E040C944E04A8
:100090000C94C6100C944E040C944E040C944E0414
:1000A0000C944E040C944E040C944E04ED1E4E1F02
:1000B000F520EB1FAA21A523E62246248F24C02485
:1000C000F22464252B25AD2C9629122AC92DF02A5D
:1000D000562D252A782BC92DC92DC92DC92DC92DDD
:1000E000C92D9E29782BC92D33292D29C92D9D284D
:1000F0001C29202BC92D7B2B782B922BAC2BC62BAC
:10010000E02BFA2B142C2E2C482CC92DC92DC92DCF
:10011000C92DC92DC92DC92DC92DC92D622C902DD0
:10012000952D722D772DC92D7C2D6D2DC92D8B2DE3
:100130009A2DC92DC92D862DC92DC92DC92DC92D81
:10014000C92D812DCB12D012D512DF1229132913FC
:100150002913E912F312FD120713141329131C13A8
:100160005217551748174C177617761776175917E1
:100170005D17611767176B177617711705A84CCDB8
:10018000B2D44EB93836A9020C50B9918688083CD1
:10019000A6AAAA2ABE000000803F000000000000BE
:1001A00000002A2B280000000000000000000000D2
:1001B000000000000000000000002C9EB4A0A1A2DE
:1001C000A434A6A7A5AE362D3738271E1F2021221E
:1001D00023242526B333B62EB7B89F848586878817
:1001E000898A8B8C8D8E8F90919293949596979807
:1001F000999A9B9C9D2F3130A3AD350405060708C5
:10020000090A0B0C0D0E0F101112131415161718E6
:10021000191A1B1C1DAFB1B0B500080B0002020279
:100220000100090400000102020000052400100181
:100230000524010101042402060524060001070526
:10024000810310004009040100020A0000000705B4
:10025000020240000007058302400000090402007A
:10026000020300000009210101000122E104070549
:10027000840340000107050503400001050109044E
:10028000A10185040901A100093017000000002721
:10029000FFFF0000350047FFFF000075109501814A
:1002A00002093116000027FFFF0000350047FFFF5D
:1002B0000000751095018102093216000027FF0F1A
:1002C0000000350047FF0F0000750C950181020901
:1002D0003316000027FF0F0000350047FF0F000016
:1002E000750C95018102093416000027FF0F0000EC
:1002F000350047FF0F0000750C9501810209391583
:100300000125083500463B0165145500750495012B
:1003100081020509150025015500650019012918FC
:1003200075019518810285F10901150026FF0095D8
:100330003F7508918285F20901953F75088182C059
:10034000050F0992A1028502099F09A009A409A528
:1003500009A61500250135004501750195058102A5
:1003600095038103099415002501350045017501A8
:1003700095018102092215012528350145287507B7
:1003800095018102C00921A10285010922150125DB
:1003900028350145287508950191020925A1020912
:1003A000260927093009310932093309340940097E
:1003B0004109420943250B15013501450B75089587
:1003C000019100C009500954150027FFFF000035B6
:1003D0000047FFFF000066011055FD751095029162
:1003E0000255006600000952150026FF7F350046C1
:1003F000FF7F7510950191020953150125083501FC
:1004000045087508950191020955A10205010930B9
:10041000093115002501750195029102C0050F09EA
:100420005695019102950591030957A1020B010010
:100430000A000B02000A0066140055FE150026FF94
:100440007F3500479F8C0000751095019102550083
:10045000660000C0050F09A766011055FD150027AD
:10046000FFFF0000350047FFFF0000751095019168
:10047000026600005500C0050F095AA10285020955
:100480002215012528350145287508950191020995
:100490005B095D150026FF00350046FF7F75089556
:1004A000029102095C095E66011055FD26FF7F4638
:1004B000FF7F7510950291026600005500C0095F2C
:1004C000A102850309221501252835014528750853
:1004D0009501910209231500250135004501750498
:1004E000950191020958A1020B01000A000B0200BC
:1004F0000A00750295029102C0096016008026FF6D
:100500007F36008046FF7F751095019102096136A4
:10051000008046FF7F95019102150026FF7F350080
:1005200046FF7F0963751095019102096515002644
:10053000FF0046FF7F750895019102C0096EA10278
:1005400085040922150125283501452875089501DE
:1005500091020970150026FF7F350046FF7F751058
:1005600095019102096F16008026FF7F36008046B4
:10057000FF7F950191020971150026FF00350046A5
:1005800067016614005500750895019102097227EC
:10059000FFFF000047FFFF000066011055FD7510CA
:1005A000950191026600005500C00973A1028505FE
:1005B0000922150125283501452875089501910264
:1005C000097016018026FF7F36018046FF7F751077
:1005D00095019102C00974A1028506092215012521
:1005E0002835014528750895019102097509761588
:1005F00081257F36018046FF7F750895029102C0F4
:10060000050F0977A102850A092215012528350160
:1006100045287508950191020978A1020979097A9E
:10062000097B15012503750895019100C0097C150A
:100630000026FF00350046FF009102C00990A1028C
:10064000850B0922150125283501452875089501D6
:100650009102C00996A102850C0997099809990988
:100660009A099B099C15012506750895019100C002
:10067000097DA102850D097E150026FF0035004683
:100680001027750895019102C009ABA102850509E3
:1006900025A1020926092709300931093209330940
:1006A0003409400941094209431501250B3501452B
:1006B0000B75089501B100C00501093B150026FF27
:1006C00001350046FF01750A9501B1027506B101B9
:1006D000C0050F0989A102850609222528150135C3
:1006E00001452875089501B102098BA102098C0901
:1006F0008D098E250315013501450375089501B156
:1007000000C009AC150027FFFF0000350047FFFFC0
:10071000000075109501B100C0097FA1028507098D
:100720008075109501150027FFFF0000350047FF79
:10073000FF0000B102098326FF0046FF00750895FF
:1007400001B10209A909AA75019502150025013513
:10075000004501B10275069501B103C0C0180341FF
:100760000072006400750069006E006F0020004C8C
:10077000004C00430004030904220341007200649A
:1007800000750069006E006F0020004D0069006375
:100790000072006F00200020002000120100020003
:1007A00000004041233780000101020001120100D6
:1007B00002020000404123378000010102000100D5
:1007C000C18081C1C0070605040100080A0B0C0D99
:1007D0000900000000240027002A002D003000003E
:1007E000000000250028002B002E00310004040426
:1007F00004040304050202020204030202020206C8
:1008000006060606060404020202040404080201A5
:100810001040804010204080408008020401804049
:100820002010020110801020404020000000020033
:10083000080E0000030401000B000000000000008F
:1008400000000000000000000000E32D11241FBE86
:10085000CFEFDAE0DEBFCDBF11E0A0E0B1E0E0EF26
:10086000F3E602C005900D92A03AB107D9F725E052
:10087000A0EAB1E001C01D92AC34B207E1F714E088
:10088000C6E2D4E004C02197FE010E94E431C532E3
:10089000D107C9F70E94DF180C94F6310C940000C0
:1008A0008C30F8F4282F30E09EE1899FF00111246C
:1008B000EE51FE4F90819923A1F090819D7F90830E
:1008C000F901EC55FC4F958191110BC0E091A1010C
:1008D000F091A2010084F185E02D09951092B403F6
:1008E00008950895FC01CB012091E80022FFFCCF80
:1008F000282F215028F03091F10030833196F9CF24
:1009000024E6209398032BEF2093E80008950F939B
:100910001F93CF93DF93DB01A40FB51FFB016EEF95
:10092000EA17FB0791F187FF02C0249101C02081E3
:1009300000919C0310919D03C0919A03D0919B0359
:100940000C171D07B4F49091E8009570E1F39091B5
:10095000E80092FD1CC02093F10020919C0330918F
:100960009D032F5F3F4F2F733327232B11F4609389
:10097000E80020919C0330919D032F5F3F4F3093FF
:100980009D0320939C033196CBCFCA0102C08FEF09
:100990009FEFDF91CF911F910F910895CF93DF9338
:1009A00000D000D01F92CDB7DEB7FC0181819081CD
:1009B000913A29F5813009F0BCC08281863051F42A
:1009C00045E050E06FE973E080E40E9487041092F4
:1009D0009F03AFC0873009F0ACC089838FEF9FEFD2
:1009E0009B838A838BE08C8383E08D8345E050E09A
:1009F000BE016F5F7F4F80E40E9487049AC09132EE
:100A000009F097C0893009F094C08281853009F0DF
:100A100090C064E070E0CE0101960E94720486E00E
:100A200080939F0380910F018B3021F1A0910F01E2
:100A300081E08A0F80930F019EE1E0910F019E9F5C
:100A4000F0011124EE51FE4F8081882351F08091F6
:100A50000F018B3030F480910F018F5F80930F0175
:100A6000ECCF8EE1A89FF0011124EE51FE4F81E002
:100A7000808301C0A0E0A093A003A11104C082E084
:100A80008093A10350C010922E0581E08093A103B2
:100A90008A819EE1A99FD0011124AE51BE4F1196CB
:100AA0008C9311978FEF9FEF50969C938E931F9787
:100AB00054961C921E92539752961C921E925197D6
:100AC00013968C93139714968C93149756961C92A6
:100AD0001E9255971E961C921E921D9716961C925A
:100AE00016978FEF9FE71A969C938E9319975896B7
:100AF0001C921E9257975C961C921E925B975D9675
:100B00001C925D9788EE93E01C969C938E931B97A6
:100B1000E091A101F091A2010684F785E02DBD01CD
:100B2000CE01019609958FEF9FEF9093A3038093D9
:100B3000A20381E00F900F900F900F900F90DF9124
:100B4000CF91089542E450E06AE172E080E80E94AB
:100B5000870440E250E06CE572E080E80E94870480
:100B600083E090E00895EF92FF921F93CF93DF937D
:100B7000EC01162FE881F9810480F581E02D0995BB
:100B80007C01E881F9810680F781E02D612FCE019B
:100B90000995C7019927DF91CF911F91FF90EF90A1
:100BA0000895FC0191818081813A29F49D7F81E043
:100BB000913091F414C0813279F49A3049F09B302D
:100BC00019F0993049F40AC0828180930E0106C061
:100BD000828180930D0102C080E0089581E0089534
:100BE0008C30F0F49EE1899FF0011124EE51FE4F0C
:100BF00080818823A9F08081826080838091B40302
:100C000081110EC00E9470106093B2017093B30105
:100C10008093B4019093B50181E08093B40308956B
:100C20000895CF92DF92EF92FF926091AF017091A1
:100C3000B001072E000C880B990B0E940E306B013F
:100C40007C0160914A0370914B0380914C03909119
:100C50004D030E940E309B01AC01C701B6010E94FA
:100C6000642FFF90EF90DF90CF900895CF92DF92A6
:100C7000EF92FF920F931F938B019C014091AA0169
:100C80005091AB016A01E12CF12C66277727CB014B
:100C90006C197D098E099F09061717072807390760
:100CA0004CF0C901B801C016D106E206F30614F4EF
:100CB000C701B6011F910F91FF90EF90DF90CF9089
:100CC00008954F925F926F927F928F929F92AF9210
:100CD000BF92CF92DF92EF92FF92CF93DF9300D03B
:100CE00000D0CDB7DEB74B015C0157FF02C04D5FAE
:100CF0005F4F6A01D594C794D594C7940E9411069A
:100D000069837A838B839C839B01AC01C501B40109
:100D10000E94C33020E030E040E251E40E94C33042
:100D20002B013C0120E030E040E85FE30E94BE3050
:100D30000D2C000CEE08FF0818161CF4C701B601B4
:100D400028C020E030E040E85FEBC301B2010E9420
:100D50005F2F87FF06C0C701B6010E943606CB0190
:100D60001EC0C701B6010E940E309B01AC01C50137
:100D7000B4010E94C33029813A814B815C810E9479
:100D8000C33020E030E040E251E40E94C3300E94D2
:100D9000D62F0E94360688279927861B970B0F901F
:100DA0000F900F900F90DF91CF91FF90EF90DF9019
:100DB000CF90BF90AF909F908F907F906F905F90FB
:100DC0004F9008958F929F92AF92BF92CF92DF92F1
:100DD000EF92FF924B015C01BA01550F880B990B02
:100DE0000E940E306B017C0120E030E0A901C501BA
:100DF000B4010E94BE30A501940118160CF05058A1
:100E0000C701B6010E94C3306B017C010E9411062C
:100E10009B01AC01C701B6010E94C33020E030E065
:100E200040E851E40E94C33020E030E040E251E469
:100E30000E94C33020E030E040E05DE30E94C33018
:100E40000E94D62F0E9436066B017C0120E030E024
:100E5000A901C501B4010E94BE3018162CF48827E0
:100E600099278C199D090DC020E030E0A901C5012A
:100E7000B4010E945F2F87FF02C0C60102C080E05C
:100E800090E0FF90EF90DF90CF90BF90AF909F9059
:100E90008F900895CF92DF92EF92FF92CF93DF93DE
:100EA0006B017C01EA0120E030E0A9010E94BE3024
:100EB000181694F020E030E0A901C701B6010E94A5
:100EC0005F2F87FF3AC020E030E0A901C701B601DB
:100ED0000E94F32E6B017C01BE01DD0F880B990B84
:100EE0000E940E309B01AC01C701B6010E94C330C5
:100EF0006B017C010E9411069B01AC01C701B60188
:100F00000E94C33020E030E040E851E40E94C3304A
:100F100020E030E040E251E40E94C33020E030E0C5
:100F200040E05BE30E94C3300E94D62F0E94360649
:100F300088279927861B970B02C080E090E0DF91FD
:100F4000CF91FF90EF90DF90CF9008951F920F9276
:100F50000FB60F9211242F933F934F935F936F938C
:100F60007F938F939F93AF93BF93EF93FF930E94D1
:100F70008A17FF91EF91BF91AF919F918F917F91D0
:100F80006F915F914F913F912F910F900FBE0F90F6
:100F90001F9018951F920F920FB60F9211242F9346
:100FA0003F934F935F936F937F938F939F93AF93F1
:100FB000BF93EF93FF930E948A17FF91EF91BF9128
:100FC000AF919F918F917F916F915F914F913F91E1
:100FD0002F910F900FBE0F901F901895CF92DF9218
:100FE000EF92FF920F931F93CF93DF931F92CDB792
:100FF000DEB7F82EE42E8B01C82ED92E8C2D8F193A
:101000008E1588F4F80161918F01C60169830E94F1
:10101000792E6981681719F0C6010E94812EFFEFB1
:10102000CF1ADF0AEBCF0F90DF91CF911F910F9175
:10103000FF90EF90DF90CF900895CF92DF92EF92E4
:10104000FF920F931F93CF93DF931F92CDB7DEB71D
:101050008B016B017C01E61AF70A9C2D901B9417FB
:1010600058F4C7018C0D9D1D49830E94792EF6010D
:1010700081936F014981F1CF0F90DF91CF911F9143
:101080000F91FF90EF90DF90CF9008958F929F92F5
:10109000AF92BF92CF92DF92EF92FF9240E050E08A
:1010A00020E0682F70E0812C912C54018394FA0188
:1010B0003296DB0102C0B595A795EA95E2F7750176
:1010C0006401042E04C0CC0CDD1CEE1CFF1C0A9431
:1010D000D2F7A0FF02C02C2902C0C0942C214F5F80
:1010E0005F4F4430510519F730E0220F331FF901EB
:1010F000EC5CFE4F80FF05C08081918196958795BD
:1011000002C080819181FF90EF90DF90CF90BF90DF
:10111000AF909F908F9008951F920F920FB60F92ED
:101120001124EF92FF921F932F933F934F935F935E
:101130006F937F938F939F93AF93BF93EF93FF939F
:10114000CF93DF93CDB7DEB76197DEBFCDBF1092EF
:10115000E9008091E80083FF59C1FE013A96CF0172
:1011600028E02E0F2E1729F03091F10030833196B0
:10117000F9CF24E62093980322EF2093E8002A85F4
:1011800027FF05C03091E80030FFFCCF03C03EEFE1
:101190003093E800322F307609F0C5C08B8581117D
:1011A00005C01092F1001092F10029C1982F9D7F87
:1011B000913009F424C1853049F48091E80080FF22
:1011C000FCCF8C8580688093E30019C1863009F0DC
:1011D0007CC01D85E888F9881092E90010929D0373
:1011E00010929C03123091F510929B0310929A0377
:1011F0000E94A20599E0BE016F5F7F4FFB01292F7E
:1012000011922A95E9F799831A8391E09E8390E8D9
:1012100098879AEF998720919C0330919D03275FCF
:101220003F4F3C832B838D831092E90010929D03E6
:1012300010929C03F0929B03E0929A0349E050E0E5
:1012400080E00E9487040E94A205D9C0F0929B030F
:10125000E0929A03123259F441EE54E06CE772E0E6
:1012600080E80E948704892B09F0C9C0CCC01130E6
:1012700069F488899989089711F4109399038091EA
:101280009903811111C06BE977E016C0133009F0A2
:10129000BAC08C85882359F0823061F0813009F022
:1012A000B2C06DE577E008C06DEA77E005C065E79C
:1012B00077E002C069E777E06115710509F4A3C022
:1012C000FB01449150E080E849C0873009F49BC09D
:1012D000883021F481E08093F10091C0893009F0D9
:1012E0008EC0237009F08FC080E090E031E026E3EB
:1012F00041E0480F4093E9003093EB000196FC0178
:10130000E154F84FE491E093EC002093ED00853038
:10131000910571F78EE78093EA001092EA008C85C0
:101320008093A0016CC0288939891092E90010923D
:101330009D0310929C0330939B0320939A032E8568
:10134000211154C08B859A85913A59F4813209F064
:101350005AC047E050E060E171E080E00E948704FD
:101360004EC0913209F04FC0803239F467E070E02E
:1013700080E191E00E94720442C0823209F043C0D1
:101380008C85809317018091100190911101A0919B
:101390001201B0911301803B9440A105B10579F58C
:1013A0008091170180FD11C087E797E790930108AE
:1013B000809300089BE088E10FB6F894A89580938D
:1013C00060000FBE909360001AC00FB6F894A89505
:1013D00080916000886180936000109260000FBE71
:1013E000A895109201081092000809C0223059F403
:1013F000E0912F05F09130050995882321F08EEFBB
:101400008093E80003C081E28093EB0061960FB601
:10141000F894DEBF0FBECDBFDF91CF91FF91EF916A
:10142000BF91AF919F918F917F916F915F914F91FC
:101430003F912F911F91FF90EF900F900FBE0F9053
:101440001F9018958F929F92AF92BF92CF92DF928A
:10145000EF92FF920F931F93CF93DF9300D01F92D1
:10146000CDB7DEB7382F8B018091A001882389F09A
:101470004A018AEFF82E832F8770E82E90E4C92E58
:10148000832F8072B82E2AE3D22E832F8074A82E49
:1014900021C08FEF9FEF5FC08FB7F894E092E90013
:1014A0009091E80095FF1AC09091F2002C2D291B15
:1014B0008FBF211115C0FA94FF2059F361E070E04D
:1014C00080E090E039834A835B830E944A1039812F
:1014D0004A815B8181149104F9F634C020E0E8CFA1
:1014E000822F90E0881699060CF4282D822F90E028
:1014F000881A990A6FB7F894E092E900BB2029F0A6
:101500002150A8F01092F100FBCFF80137FF07C07F
:10151000215058F074917093F1003196F9CF215019
:1015200020F071917093F100FACF080F191F80918C
:10153000E80085FF0DC08114910411F4A11008C0CA
:101540006FBFC8CF5D9A84E680939E03CA0103C033
:10155000D092E800F5CF0F900F900F90DF91CF91D0
:101560001F910F91FF90EF90DF90CF90BF90AF90C1
:101570009F908F9008959091A001992311F057FFAB
:1015800003C08FEF9FEF08952FB7F8948770809373
:10159000E9008091F20090E0841795070CF4AC010B
:1015A000842FFB0194E6815030F0909398033091A2
:1015B000F1003193F8CF4115510521F08091F200EF
:1015C000882319F02FBFCA0108958BE68093E800A5
:1015D000F9CF1F920F920FB60F9211242F933F93C2
:1015E0004F935F936F937F938F939F93AF93BF932B
:1015F000EF93FF93CF93DF93CDB7DEB7C054D109FC
:10160000DEBFCDBF8091E1001092E10083FF0FC0EB
:101610001092E90091E09093EB001092EC0092E3BD
:101620009093ED001092A00198E09093F00082FF5B
:1016300046C083E08093E9008091F200882319F08E
:101640008AE38093E8009FB7F89482E08093E900F2
:101650008091F2009FBF882321F087E894E00E94E8
:10166000830F9FB7F89485E08093E9008091F200A2
:101670009FBF8823C1F08091310590913205892B5D
:1016800091F040E450E0BE016F5F7F4F85E00E9423
:10169000BB0A97FD08C0E0913105F0913205BC010D
:1016A000CE010196099580919E03882341F0809197
:1016B0009E03815080939E03811101C05D98C05CA0
:1016C000DF4F0FB6F894DEBF0FBECDBFDF91CF91D5
:1016D000FF91EF91BF91AF919F918F917F916F910A
:1016E0005F914F913F912F910F900FBE0F901F90E0
:1016F0001895EF92FF920F931F93CF93DF931F9252
:10170000CDB7DEB789838B017A0141E050E0BE019D
:101710006F5F7F4F84E00E94220AA701B80184E432
:101720000E94220A0F90DF91CF911F910F91FF909D
:10173000EF9008951F93CF93DF93DC0111961C91D6
:1017400011979C91953009F467C060F5923009F4C7
:1017500043C0A8F4913009F04DC1E091A101F0918E
:10176000A2012EE1129FB00111246E517E4F028C16
:10177000F38DE02DCD01DF91CF911F91099493302E
:10178000C9F1943009F036C1E091A101F091A201B4
:101790002EE1129FB00111246E517E4F0488F5890D
:1017A000E02D35C09B3009F49DC038F4963009F423
:1017B00041C09A3009F44CC01DC19C3009F4CBC023
:1017C000913F09F017C140E450E0BD0182EFDF9185
:1017D000CF911F910C94790BE091A101F091A2019E
:1017E0003EE1139FB00111246E517E4F0088F189B4
:1017F000E02D0DC0E091A101F091A2018EE1189FB2
:10180000B00111246E517E4F0288F389E02DCD0185
:10181000DF91CF911F910994E091A101F091A20174
:101820003EE1139FB00111246E517E4F0688F78967
:10183000E02DEDCFE091A101F091A2018EE1189F82
:10184000B00111246E517E4F008CF18DE02DDFCF61
:101850001F3F09F41FE712969C91913099F4812F54
:101860000E94F005E12FF0E0EC55FC4F85818111DD
:10187000C1C0E091A101F091A2010680F781E02DA5
:10188000812F47C0923029F5C1E08C2F0E9450046F
:10189000CF5FCC30D1F7C12FD0E0CC55DC4F8D815C
:1018A000811109C0E091A101F091A2010084F185AC
:1018B000E02D8FE70995812F0E94F0058D81811120
:1018C00099C0E091A101F091A2010680F781E02D7D
:1018D0001FC0933009F08EC0812FDF91CF911F91EF
:1018E0000C94500481E01F3FC1F480930F0188E6FF
:1018F00091E0E2EEF1E0DF019C011D9221503040C9
:10190000E1F7E091A101F091A2010284F385E02DBD
:101910008FE7DF91CF911F91099480932E051C30A2
:1019200008F068C03EE1139FF0011124EE51FE4F14
:10193000108280910F01181710F410930F01E0919D
:10194000A101F091A2010284F385E02D812F099578
:101950001092B4034FC082E08093B5039091B60318
:1019600094609093B6039091B60390619093B60300
:101970001092B7031330B1F040F4113079F0123007
:10198000C9F58091B603826033C0153071F1B0F0B3
:10199000163081F58091B6038E7F2AC08091B60300
:1019A0008D7F26C0E091A101F091A2010480F58114
:1019B000E02D80E009951092B7031CC0E091A101D1
:1019C000F091A2010480F581E02D81E0099581E08C
:1019D00080930F0188E691E0E2EEF1E0DF019C01E7
:1019E0001D9221503040E1F705C08091B60381601F
:1019F0008093B603DF91CF911F910895DC01683881
:101A000010F0685825C0E62FF0E067FF12C0E058DC
:101A1000F10981E090E001C0880FEA95EAF780952E
:101A200014969C911497892314968C93149760E0D4
:101A30000FC0E656FE4F6491662311F167FF08C0A0
:101A400014968C9114978D7F14968C9314976F77BE
:101A5000FD01369686E0662321F09081961301C041
:101A60001082815031968111F6CFBD016C5F7F4F9E
:101A700048E050E082E00E94790B81E090E0089518
:101A800080E090E00895FC0116821782108611868E
:101A9000128613861482BC016C5F7F4F48E050E0D1
:101AA00082E00C94790BDC01683810F068582DC086
:101AB000E62FF0E067FF11C0E058F10981E090E007
:101AC00001C0880FEA95EAF714969C911497892B28
:101AD00014968C93149760E018C0E656FE4F6491FC
:101AE000611109C081E090E013969C938E93129748
:101AF00080E090E0089567FF08C014968C911497D9
:101B0000826014968C9314976F7716968C91169723
:101B1000861751F117968C911797861729F1189609
:101B20008C911897861701F119968C911997861741
:101B3000D9F01A968C911A978617B1F01B968C9152
:101B40001B97861789F0FD01369680E090E0219181
:101B5000211105C0FD01E80FF91F668305C001963C
:101B600086309105A1F7BECFBD016C5F7F4F48E085
:101B700050E082E00E94790B81E090E00895CF92DE
:101B8000DF92EF92FF920F931F93CF93DF936C013D
:101B9000EB017B01E40EF51E00E010E0CE15DF0541
:101BA00061F06991D601ED91FC910190F081E02DF9
:101BB000C6010995080F191FF1CFC801DF91CF9118
:101BC0001F910F91FF90EF90DF90CF90089583E0E9
:101BD0008093E9008091F200882319F08AE38093D2
:101BE000E800089520917C0430917D0480917E046A
:101BF00090917F0428173907A9F0E0917E04F091B5
:101C00007F04E45CFB4F808120917E0430917F044F
:101C10002F5F3F4F2F73332730937F0420937E0431
:101C200090E008958FEF9FEF089520917C0430910C
:101C30007D0480917E0490917F042817390749F034
:101C4000E0917E04F0917F04E45CFB4F808190E0A2
:101C500008958FEF9FEF089580917C0490917D040B
:101C600020917E0430917F04821B930B8F73992700
:101C7000089585ED8093BC008091BC0084FDFCCF6D
:101C800010920D0408954091E703262F30E0240FB1
:101C9000311D21323105DCF420910D042430C9F4CA
:101CA000FC0180E090E0861758F43091E703219121
:101CB000DC01AB53BC4FA30FB11D2C930196F3CFA6
:101CC0008091E703680F6093E70380E0089581E067
:101CD000089582E0089508958FEF9FEF08958FEFA4
:101CE0009FEF08958091C40390E0919581959109AB
:101CF0000895CF93DF9300D0CDB7DEB7CB01642F2B
:101D000049835A830E94430E4981842F5A81952F1B
:101D10000F900F90DF91CF910895CF93DF931F9293
:101D2000CDB7DEB7698361E0CE0101960E94430E14
:101D300081E090E00F90DF91CF9108950895CF93C7
:101D4000DF93FC01EB01718182818983878190851A
:101D50009A87898725853685438154816EE1769FF0
:101D6000C00111248E519E4FDC0150965C934E931E
:101D70001F9756963C932E93559764E0769FD0011B
:101D80001124AE54BE4F1D921D921D921C921397AA
:101D9000838594859E878D8782858E8381E0DF9100
:101DA000CF910895FC012281FB012783FC018381EF
:101DB000FB0180870895FC0182819381FB01908F54
:101DC000878B0895DC01FB0112968D919C911397EE
:101DD000908F878B14968D919C911597948F838FFC
:101DE00016968C911697858F17968D919C911897C2
:101DF000948783870895DC01FB0112968C911297DA
:101E000082838281811110C015968D919C911697C5
:101E1000908F878B13968D919C911497948F838FBD
:101E200017968C918583089582810895DC01FB01CA
:101E300012968C911297838313968C9113978483B7
:101E400014968D919C911597948B838B16968D91FA
:101E50009C911797928B818B08959EE1899FF00149
:101E60001124EE51FE4F708B6787568B458B94E0A3
:101E7000899FF0011124EE54FE4F108211821282CC
:101E8000138208950895089510922E0524E0829FEC
:101E9000C0011124FC01EE54FE4F10821182128207
:101EA0001382089525E0FC0120838EE491E00895DB
:101EB000089580932E0508950E94F1310F931F938A
:101EC000CF93DF931F92CDB7DEB78C0169838091EA
:101ED0001701882359F041E050E0BE016F5F7F4F4A
:101EE00083E00E94220A181619063CF081E090E077
:101EF000F8019383828380E090E00F90DF91CF918F
:101F00001F910F9108950F931F93CF93DF931F920B
:101F1000CDB7DEB700917C0410917D040F5F1F4F99
:101F20000F73112780917E0490917F040817190781
:101F3000F9F041E050E0BE016F5F7F4F82E00E9408
:101F4000BB0A019719F4898190E002C08FEF9FEFDF
:101F50008F3F2FEF920761F0E0917C04F0917D04B8
:101F6000E45CFB4F808310937D0400937C04D2CF0C
:101F70000F90DF91CF911F910F910895CF93DF9331
:101F800090E0FC01E45FF74F2491FC01E351F84F2E
:101F90008491882361F190E0880F991FFC01EF5232
:101FA000F84FC591D491FC01E152F84FA591B4913D
:101FB000611109C09FB7F894888120958223888396
:101FC000EC912E230BC0623061F49FB7F8943881F6
:101FD000822F809583238883EC912E2B2C939FBF97
:101FE00006C08FB7F894E8812E2B28838FBFDF912E
:101FF000CF910895823108F08251E82FF0E0EB5341
:10200000F84FE49180917B00E3FB222720F930E038
:1020100095E0220F331F9A95E1F78F7D282B2093AF
:102020007B00E770E064E0937C0080917A0080643C
:1020300080937A0080917A0086FDFCCF80917800B1
:102040002091790090E0922B08953FB7F894809109
:10205000380490913904A0913A04B0913B0426B51C
:10206000A89B05C02F3F19F00196A11DB11D3FBFD0
:10207000BA2FA92F982F8827820F911DA11DB11D5E
:10208000BC01CD0142E0660F771F881F991F4A955A
:10209000D1F70895CF92DF92EF92FF92CF93DF9323
:1020A0006B017C010E942510EB01C114D104E104F5
:1020B000F10479F00E9425106C1B7D0B683E734083
:1020C000A0F381E0C81AD108E108F108C851DC4F3B
:1020D000ECCFDF91CF91FF90EF90DF90CF900895FC
:1020E0002FB7F894609134047091350480913604D0
:1020F000909137042FBF08951F920F920FB60F9241
:1021000011242F933F938F939F93AF93BF9380910D
:10211000340490913504A0913604B0913704309185
:10212000330423E0230F2D3720F40196A11DB11DA8
:1021300005C026E8230F0296A11DB11D209333048C
:102140008093340490933504A0933604B0933704FD
:102150008091380490913904A0913A04B0913B04E5
:102160000196A11DB11D8093380490933904A0936A
:102170003A04B0933B04BF91AF919F918F913F91EF
:102180002F910F900FBE0F901F9018951F920F92D6
:102190000FB60F9211242F933F934F935F936F933A
:1021A0007F938F939F93AF93BF93EF93FF93809110
:1021B000B900887F803609F49CC068F5883209F43C
:1021C0005BC090F4803109F454C038F4882309F4DA
:1021D000F6C0883009F44DC0F6C0883109F44CC00F
:1021E000803209F45DC0EFC0803409F468C048F45F
:1021F000803309F455C0883309F0E5C080930C049E
:10220000D8C0803509F44FC0883509F45DC08834E2
:1022100009F0D9C0D6C0883909F4C7C0A8F48837F6
:1022200009F467C038F4883609F463C0803709F4CC
:1022300060C0C9C0883809F4B8C0803909F45FC0EB
:10224000803809F0C0C05BC0803B09F486C038F418
:10225000803A09F466C0883A09F47FC0B4C0803C73
:1022600009F4A7C0883C09F4A4C0883B09F48AC0DB
:10227000AAC08091320410C0909131048091300442
:10228000981770F5E091310481E08E0F809331044E
:10229000F0E0E05FFB4F80818093BB0085EC86C05F
:1022A00080930C048EC0E091310481E08E0F809306
:1022B00031048091BB00F0E0E05FFB4F80839091A0
:1022C0003104809130046EC0E091310481E08E0FC2
:1022D000809331048091BB00F0E0E05FFB4F80838E
:1022E00080910F0481116DC081E080930E0484EA17
:1022F00061C083E080930D0410920B04CFCF8091D6
:102300000B04803208F051C0E0910B0481E08E0F85
:1023100080930B048091BB00F0E0E551FC4F80837B
:10232000BDCF85EC8093BC0010920D0480910B040E
:10233000803230F4E0910B04F0E0E551FC4F108264
:1023400060910B0470E0E091E903F091EA038BEEF9
:1023500093E0099510920B0436C084E080930D043D
:102360001092E8031092E703E091E503F091E60391
:1023700009958091E703811105C081E08093E7030F
:102380001092C503E091E80381E08E0F8093E8038B
:10239000F0E0EB53FC4F80818093BB009091E80309
:1023A0008091E703981708F479CF85E88093BC0003
:1023B0000AC085EC8093BC0010920D0404C01092FA
:1023C0000C040E94390EFF91EF91BF91AF919F9144
:1023D0008F917F916F915F914F913F912F910F90CE
:1023E0000FBE0F901F9018952091A3013091A4016A
:1023F0002817390708F4C901909389008093880051
:1024000008954F925F926F927F928F929F92AF92B8
:10241000BF92CF92DF92EF92FF920F931F93CF93D1
:10242000DF93CDB7DEB760970FB6F894DEBF0FBE6F
:10243000CDBF009709F45FC38C016091B10170E0DA
:1024400080E090E00E940E302AE037ED43E25CE34A
:102450000E94C33069837A838B839C83F8018080D8
:102460009180A280B380B7FE08C0B094A0949094ED
:102470008094811C911CA11CB11CC501B4010E9457
:102480000E306B017C016091AA017091AB0180E07C
:1024900090E00E940C302B013C0126E636E646E631
:1024A0005FE30E94C33029813A814B815C810E94A5
:1024B000C3306D837E838F8398879B01AC01C701F6
:1024C000B6010E94BE3087FDCAC0A3019201698196
:1024D0007A818B819C810E94C33069877A878B8740
:1024E0009C8720E030E040E85FE30E94F22E9B01F1
:1024F000AC01C701B6010E945F2F87FFB0C06D819C
:102500007E818F8198850E94D62F6B017C01A50169
:102510009401261B370B480B590BAEE3B0E00E9429
:10252000AE2E4B015C0169857A858B859C850E9466
:10253000D62F9B01AC012C193D094E095F09C5013D
:10254000B4010E948F2E69017A01FFEFCF1ADF0AD2
:10255000EF0AFF0A560161E083E00E94BE0FC1143A
:10256000D10411F480E005C08FEFC816D10421F426
:1025700081E00E9430178AC0EEE2F8E0E4918E2FED
:1025800090E0FC013197EE30F10508F062C0EE55A5
:10259000FF4F0C94E43184B5806884BDC7BC76C01D
:1025A00084B5806284BDC8BC71C0809180008068A1
:1025B00080938000D0928900C092880067C080918B
:1025C0008000806280938000D0928B00C0928A004D
:1025D0005DC080919000806880939000D0929900B7
:1025E000C092980053C080919000806280939000C8
:1025F000D0929B00C0929A0049C080919000886060
:1026000080939000D0929D00C0929C003FC080912A
:10261000C00080688093C0008091C0008F7B809351
:10262000C000C092CF0032C08091C0008062809311
:10263000C000C092D0002AC08091C2008860809300
:10264000C2008091C2008B7F8093C200C092D200F2
:102650001DC0E0E8AE16B1040CF08ACF83CFA30111
:10266000920169817A818B819C810E94C33020E034
:1026700030E040E85FE30E94F22E9B01AC01C7010D
:10268000B6010E94BE3087FD6DCF72CF6091AC0164
:1026900070E060587109072E000C880B990B0E949E
:1026A0000E3020E030E04FE753E40E94642F6B01CE
:1026B0007C016093C0037093C1038093C203909325
:1026C000C30320E030E0A9010E94BE3087FD1DC099
:1026D000A701960160E070E080E89FE30E94F22E7F
:1026E0006093BC037093BD038093BE039093BF03BC
:1026F00080E090E0A0E8BFE38093B8039093B90333
:10270000A093BA03B093BB0323C020E030E0A9013B
:10271000C701B6010E945F2F87FF1AC080E090E0DA
:10272000A0E8BFE38093BC039093BD03A093BE03D6
:10273000B093BF039C01AD01C701B6010E94F32E07
:102740006093B8037093B9038093BA039093BB036B
:102750009091A901F801C080D180E280F380892F97
:10276000807491FDE8C0811195C01C141D041E04E5
:102770001F040CF044C04090AA015090AB0120917E
:10278000AD013091AE014901A12CB12C612C712C0D
:10279000C301B2010E940C302091B8033091B903FB
:1027A0004091BA035091BB030E94C3300E94D62FC0
:1027B000681979098A099B09A70196010E94C0310D
:1027C000A30192010E948F2EDA01C901880D991D83
:1027D000AA1DBB1DF80180839183A283B3832D982A
:1027E0002091A3013091A40180819181281739079C
:1027F00008F4C90190938B0080938A0045C0C114EE
:10280000D104E104F10409F441C04090AA015090C0
:10281000AB018091AD019091AE014C01A12CB12C86
:10282000F094E094D094C094C11CD11CE11CF11C24
:10283000612C712CC301B2010E940C302091BC03A9
:102840003091BD034091BE035091BF030E94C3303D
:102850000E94D62F681979098A099B09A701960158
:102860000E94C031A30192010E948F2EDA01C9019A
:10287000880D991DAA1DBB1DF80180839183A28339
:10288000B3830E94F4112E982A9A35C12D982E9860
:102890002A9831C1E091AA01F091AB011C141D04EA
:1028A0001E041F04DCF44F01969487948091AD01BF
:1028B0009091AE01880E991EA12CB12C2F01612C94
:1028C000712CC301B201681979098A099B09A70112
:1028D00096010E94C031A301920119C0C114D10414
:1028E000E104F10411F14F01969487948091AD01B8
:1028F0009091AE01881A990AA12CB12CA5019401DE
:10290000C701B6010E94C0319F0140E050E00E9423
:102910008F2EDA01C901880D991DAA1DBB1DF80172
:1029200080839183A283B38303C0CF01969587955B
:102930000E94F411DFC0811133C0F7FC02C02A9A53
:1029400001C02A988091AD019091AE016C01E12CFB
:10295000F12C8090AA019090AB01A12CB12CF80130
:10296000208131814281538157FF07C050954095A6
:10297000309521953F4F4F4F5F4FC501B4016C1902
:102980007D098E099F090E94C031A50194010E9412
:102990008F2EDA01C9018C0D9D1DAE1DBF1D81C09A
:1029A0001C141D041E041F046CF520E030E040E8F8
:1029B0005FE36091A5017091A6018091A7019091BC
:1029C000A8010E94F32E209104013091050140914D
:1029D0000601509107010E94C3300E94D62F4B017F
:1029E0005C01609100017091010180910201909160
:1029F00003010E94D62F681979098A099B09A7014A
:102A000096013FC0C114D104E104F10409F44FC0A0
:102A10002091A5013091A6014091A7015091A801F4
:102A200060E070E080E89FE30E94F22E20910401B4
:102A30003091050140910601509107010E94C33079
:102A40000E94D62F4B015C0122273327A9012C19A4
:102A50003D094E095F09609108017091090180915B
:102A60000A0190910B012D873E874F87588B0E945A
:102A7000D62F681979098A099B092D853E854F85CE
:102A800058890E94C0312091AA013091AB0140E0E9
:102A900050E00E948F2EDA01C901880D991DAA1DF0
:102AA000BB1DF80180839183A283B3830BC0609127
:102AB00004017091050180910601909107010E9427
:102AC000DD2FCB010E94F41160910401709105018A
:102AD00080910601909107010E94DD2F2091A301B2
:102AE0003091A4012617370708F4B90170938B00C1
:102AF00060938A002E9860960FB6F894DEBF0FBEE2
:102B0000CDBFDF91CF911F910F91FF90EF90DF909C
:102B1000CF90BF90AF909F908F907F906F905F907D
:102B20004F9008956091A3017091A40180E090E01E
:102B30000E940C309B01AC0160E07EEF8FEF96E4C9
:102B40000E94642F08952F923F924F925F926F924E
:102B50007F928F929F92AF92BF92CF92DF92EF922D
:102B6000FF920F931F93CF93DF93CDB7DEB72997D3
:102B70000FB6F894DEBF0FBECDBF998788874B0193
:102B80002B831D830C831701DF82CE82042F10E07C
:102B90008C819D816C01E12CF12CE885F985F7FD94
:102BA0002BC0C8019695982F882797958795BF01C8
:102BB000681B790B072E000C880B990B0E940E30B6
:102BC0002B013C01C701B6010E940C309B01AC01F6
:102BD000C301B2010E94642F2B013C01C8019695EC
:102BE000982F8827979587959A838983EB8190E81A
:102BF000E99FB00111242AC0B8017695762F662787
:102C000077956795E885F9856E0F7F1F072E000C75
:102C1000880B990B0E940E302B013C01C701B601B5
:102C20000E940C309B01AC01C301B2010E94642FD1
:102C30002B013C0160E86003C001619F900D1124ED
:102C40009A8389832B816203B00111248885998539
:102C5000681B790B072E000C880B990B0E940E3015
:102C60006B017C01B10180E090E00E940C309B017F
:102C7000AC01C701B6010E94642F6B017C018A146C
:102C80009B0408F43FC08E819F818A0D9B1D88168E
:102C90009906C0F50C811D810A0D1B1D8016910639
:102CA00090F4B4016A197B0980E090E00E940C3036
:102CB0009B01AC01C301B2010E94C3300E94D62F18
:102CC00089819A811CC08219930988159905E8F4B5
:102CD0008A189B08EE81FF818E1A9F0AB401620D4B
:102CE000731D80E090E00E940C309B01AC01C70195
:102CF000B6010E94C3300E94D62F88859985860F21
:102D0000971F05C080E090E002C0888599852996CC
:102D10000FB6F894DEBF0FBECDBFDF91CF911F91EC
:102D20000F91FF90EF90DF90CF90BF90AF909F906A
:102D30008F907F906F905F904F903F902F9008956D
:102D40008F929F92AF92BF92CF92DF92EF92FF92BB
:102D5000CF93DF934B015C01EA010E9411066B01E6
:102D60007C01DE01A50194010E94B92E0E940E3063
:102D7000A70196010E94C33020E030E040E051E41A
:102D80000E94C33020E030E040E251E40E94C330B2
:102D900020E030E040E85BE30E94C3300E94D62F81
:102DA0000E94360690958095709561957F4F8F4F64
:102DB0009F4FDF91CF91FF90EF90DF90CF90BF902A
:102DC000AF909F908F900895009769F0FC0101905B
:102DD0000020E9F73197AF01481B590BBC0187E888
:102DE00094E00C94BF0D80E090E008950F931F9342
:102DF0000E94701060938F047093900480939104EC
:102E000090939204E0918704F09188040084F18506
:102E1000E02D87E894E0099597FF1FC00E9470108D
:102E200000918F04109190042091910430919204AC
:102E3000DC01CB01801B910BA20BB30B00918B0427
:102E400010918C0420918D0430918E04801791078D
:102E5000A207B307B8F28FEF9FEF1F910F9108956C
:102E6000EEE2F8E04491EFE0F8E09491E0EFF7E073
:102E70002491222309F44DC04423C1F150E0FA010A
:102E80003197EE30F10590F5E055FF4F0C94E431A9
:102E9000309180003F7703C0309180003F7D3093B8
:102EA000800024C034B53F7702C034B53F7D34BDC7
:102EB0001DC0309190003F7707C0309190003F7D5A
:102EC00003C030919000377F309390000FC0309155
:102ED000C0003F7703C03091C0003F7D3093C000F9
:102EE00005C03091C200377F3093C200E22FF0E07E
:102EF000EE0FFF1FE152F84FA591B4912FB7F89450
:102F0000EC91811103C090959E2301C09E2B9C9350
:102F10002FBF08959091860489B18C70892B90E021
:102F20009C013595279535952795209386044091EA
:102F30008204509183046091840470918504FC01A3
:102F4000ED5AFE4F8081082E000C990BAA0BBB0B8B
:102F5000840F951FA61FB71F80938204909383044C
:102F6000A0938404B0938504809181040895E09136
:102F70008704F09188040190F081E02D682F87E8A4
:102F800094E00994CF93DF938DE00E94B717EC0192
:102F90008AE00E94B7178C0F9D1FDF91CF91089593
:102FA0008F929F92AF92BF92EF92FF920F931F93D7
:102FB000CF93DF93CDB7DEB7A1970FB6F894DEBFFE
:102FC0000FBECDBF162F042F19A2423008F40AE01D
:102FD0007E0121E2E20EF11C802E912CA12CB12C5D
:102FE000612FA50194010E94C12E029F1019112486
:102FF00081E0E81AF1081A3014F4105D01C0195C80
:10300000F7011083122F732FCA01232B242B252B9A
:1030100039F7C7010E94E416A1960FB6F894DEBFF7
:103020000FBECDBFDF91CF911F910F91FF90EF9019
:10303000BF90AF909F908F900895CF92DF92EF92C4
:10304000FF92CF93DF9397FF19C06B017C018DE254
:103050000E94B717EC0166277727CB016C197D0911
:103060008E099F094AE00E94D0178C0F9D1FDF91A7
:10307000CF91FF90EF90DF90CF9008954AE0DF91DD
:10308000CF91FF90EF90DF90CF900C94D017CF931B
:10309000DF93BC01990F880B990B0E941D18EC015E
:1030A0000E94C2178C0F9D1FDF91CF910895BC0124
:1030B000990F880B990B0C941D18682F70E080E015
:1030C00090E04AE00C94D0170C94E416FF920F9312
:1030D0001F93CF93DF9300D000D0CDB7DEB70E940F
:1030E000F616FC0197FD11C08D32910591F0C09745
:1030F0000A9778F0E0918704F09188040680F781C0
:10310000E02D87E894E00995EACF60E070E0CB011C
:103110004CC020E030E0A901F12CE130F105F1F0E4
:10312000ED32F105C9F0CF01C0970A97B8F4AAE0D3
:10313000B0E00E94AE2E8F01FF0F220B330BDC019B
:10314000CB01800F911FA21FB31F9C01AD01205323
:1031500031094109510902C0FF24F394E091870429
:10316000F09188040680F781E02D87E894E02983B8
:103170003A834B835C8309950E94F616FC01C09745
:1031800029813A814B815C810A9738F2E130F1055F
:1031900021F2FF2041F066277727CB01621B730BDA
:1031A000840B950B02C0CA01B9010F900F900F90CC
:1031B0000F90DF91CF911F910F91FF900895CF93C2
:1031C000DF93CDB7DEB7C054D1090FB6F894DEBF98
:1031D0000FBECDBF789484B5826084BD84B5816014
:1031E00084BD85B5826085BD85B5816085BD8091D2
:1031F0006E00816080936E0010928100809181004A
:103200008260809381008091810081608093810041
:103210008091800081608093800080919100826025
:1032200080939100809191008160809391008091C2
:1032300090008160809390008091C10084608093B1
:10324000C1008091C10082608093C1008091C10063
:1032500081608093C1008091C30081608093C3002E
:103260008091C00082608093C0008091C200816024
:103270008093C20080917A00846080937A0080916C
:103280007A00826080937A0080917A0081608093D6
:103290007A0080917A00806880937A001092A00171
:1032A00081E08093D70080EA8093D80082E189BDD5
:1032B00009B400FEFDCF61E070E080E090E00E9484
:1032C0004A1080E98093D8001CE01093E20010922D
:1032D000E00010927B0310927A0310926603109222
:1032E000670310926803109269031092750310929D
:1032F0007403109288031092890310928A0310922B
:103300008B0310928403109285031092860310920F
:10331000870342E0BE01615F7F4F80E090E00E9442
:103320001D088F8598898A3F910509F407C18AEFA6
:1033300090E09E878D8742E0BE01635F7F4F80E013
:1033400090E00E94EE0719821A821B821C8244E0E0
:10335000BE016F5F7F4F82E090E00E94EE0788E33E
:1033600094E09E878D8742E0BE01635F7F4F86E0D9
:1033700090E00E94EE0784E6898B41E0BE016F5E1B
:103380007F4F88E090E00E94EE0741E0BE016F5E53
:103390007F4F8BE090E00E94EE0741E0BE016F5E40
:1033A0007F4F8CE090E00E94EE0741E0BE016F5E2F
:1033B0007F4F80E190E00E94EE0741E0BE016F5E2A
:1033C0007F4F8DE090E00E94EE0782E3898B41E021
:1033D000BE016F5E7F4F89E090E00E94EE0741E002
:1033E000BE016F5E7F4F8AE090E00E94EE0741E0F1
:1033F000BE016F5E7F4F8EE090E00E94EE0786E494
:10340000898B41E0BE016F5E7F4F8FE090E00E94AC
:10341000EE071E861D8642E0BE01635F7F4F81E19D
:1034200090E00E94EE078FEF97E09E878D8742E045
:10343000BE01635F7F4F83E190E00E94EE078FEF54
:103440009FE09E878D8742E0BE01635F7F4F85E1ED
:1034500090E00E94EE0780E8898B41E0BE016F5E3C
:103460007F4F87E190E00E94EE0781E0898B41E089
:10347000BE016F5E7F4F88E190E00E94EE0780E61C
:1034800099E0A0E0B0E089839A83AB83BC8344E0F9
:10349000BE016F5F7F4F89E190E00E94EE07198BBC
:1034A00041E0BE016F5E7F4F8DE190E00E94EE072C
:1034B0001E861D8642E0BE01635F7F4F8AE290E078
:1034C0000E94EE0742E0BE01635F7F4F8EE290E014
:1034D0000E94EE0742E0BE01635F7F4F82E390E00F
:1034E0000E94EE0742E0BE01635F7F4F86E390E0FB
:1034F0000E94EE078FEF93E09E878D8742E0BE012A
:10350000635F7F4F8CE290E00E94EE0742E0BE01D5
:10351000635F7F4F80E390E00E94EE0742E0BE01D0
:10352000635F7F4F84E390E00E94EE0742E0BE01BC
:10353000635F7F4F88E390E00E94EE0742E06FEA0E
:1035400071E086E090E00E941D0844E063E573E0CE
:1035500089E190E00E941D0841E061EB71E088E0A4
:1035600090E00E941D0841E06AE573E089E090E088
:103570000E941D0841E068E573E08AE090E00E9447
:103580001D0841E06DE573E08BE090E00E941D08AE
:1035900041E06CE573E08CE090E00E941D0841E0A2
:1035A0006BE573E08DE090E00E941D0841E069E565
:1035B00073E08EE090E00E941D0841E06EE573E04C
:1035C0008FE090E00E941D0841E067E573E080E134
:1035D00090E00E941D0841E06CEA71E087E190E014
:1035E0000E941D0841E06FE573E088E190E00E94D1
:1035F0001D0842E06DEA71E081E190E00E941D0843
:1036000042E06AEA71E083E190E00E941D0842E036
:1036100061E573E085E190E00E941D0841E069EA00
:1036200071E08DE190E00E941D0842E06CE773E0DC
:103630008AE290E00E941D0842E06EE773E08CE2AF
:1036400090E00E941D0842E06AE673E08EE290E09E
:103650000E941D0842E06CE673E080E390E00E9467
:103660001D0842E066E773E082E390E00E941D08D7
:1036700042E068E773E084E390E00E941D0842E0C6
:1036800060E773E086E390E00E941D0842E062E795
:1036900073E088E390E00E941D08609153037091ED
:1036A000540380915503909156030E940E3020E000
:1036B00030E044EB53E40E94642F6B017C01809165
:1036C000AF019091B001BC01990F880B990B0E943A
:1036D0000E309B01AC01C701B6010E94C3300E94AD
:1036E000D62F60934A0370934B0380934C039093BF
:1036F0004D036B017C01F594E794D794C794C09275
:103700008C03D0928D03E0928E03F0928F0362E0DF
:1037100080E00E94BE0F62E081E00E94BE0F109226
:103720008104C0928204D0928304E0928404F092D7
:103730008504109286044A9B05C0809186048160AE
:10374000809386044B9B05C08091860482608093A1
:103750008604809169008F7C806180936900EA9A79
:10376000809169008F73806480936900EB9A60E0B8
:1037700082E10E94BE0F60E083E10E94BE0F60E024
:1037800084E10E94BE0F60E085E10E94BE0F62E00E
:1037900084E00E94BE0F62E08EE00E94BE0F62E0F5
:1037A0008FE00E94BE0F62E082E00E94BE0F62E0E6
:1037B00086E00E94BE0F62E087E00E94BE0F62E0DA
:1037C00088E00E94BE0F62E085E00E94BE0F88E1A3
:1037D00091E09093A2018093A1018EEC94E09093EC
:1037E000300580932F058AE99BE090933205809302
:1037F0003105229A1091A901812F0E9446085C018F
:103800009093A4018093A3019093AB018093AA01AC
:103810006091AD017091AE0180E090E00E940C30AB
:103820006B017C01B50180E090E00E940C309B01AF
:10383000AC01C701B6010E94642F6093A50170938B
:10384000A6018093A7019093A801012F017010FD9C
:1038500005C020E030E04AEF54E404C020E030E04E
:103860004AE754E4609108017091090180910A01CE
:1038700090910B010E94C33060930801709309017D
:1038800080930A0190930B01011105C020E030E004
:103890004AEF54E404C020E030E04AE754E4609189
:1038A00004017091050180910601909107010E9429
:1038B000C3306093040170930501809306019093D7
:1038C0000701011105C020E030E04AEF54E404C0D4
:1038D00020E030E04AE754E460910001709101017A
:1038E00080910201909103010E94C3306093000116
:1038F0007093010180930201909303011092800064
:103900001092810010926F0016BA8091A3019091DD
:10391000A4019093870080938600109289001092F2
:10392000880010928B0010928A008091A901827405
:10393000823421F480918100826003C080918100F3
:103940008160809381008091A90180FF09C08091EE
:10395000800082608093800080918100806108C037
:1039600080918000826080938000809181008861D6
:103970008093810080E090E00E94F41180918000AB
:10398000806880938000259A10928B0010928A00A4
:1039900080918000806280938000269A61E083E0BD
:1039A0000E94BE0F13E081E00E94301764E170E0D6
:1039B00080E090E00E944A1080E00E94301764E1AD
:1039C00070E080E090E00E944A10115061F7109280
:1039D000800310928103109282031092830380E887
:1039E00093E00E94011280918C0390918D03A0912D
:1039F0008E03B0918F03F894809382049093830494
:103A0000A0938404B0938504789410926503109277
:103A100064038FEF97E09093500380934F0380915E
:103A2000AC0180934E030E94251060939003709325
:103A3000910380939203909393030E9425106093C7
:103A4000990470939A0480939B0490939C04009132
:103A500094031091950320919603309197036B0185
:103A60007C01C01AD10AE20AF30AC0929504D092EE
:103A70009604E0929704F0929804009190031091BC
:103A8000910320919203309193036B017C01C01A42
:103A9000D10AE20AF30A40EDC41647E0D406E10475
:103AA000F10410F40C94D92D60939003709391035A
:103AB0008093920390939303F89480918204909161
:103AC0008304A0918404B0918504789400918C03C0
:103AD00010918D0320918E0330918F03801B910BE9
:103AE000A20BB30B8093880390938903A0938A035E
:103AF000B0938B038093840390938503A0938603F4
:103B0000B09387038090A2049090A304A090A40493
:103B1000B090A5048093A2049093A304A093A4045E
:103B2000B093A5042091AA04222309F443C0F09085
:103B3000D30454E0F59E800111240E551B4FBC01A7
:103B4000CD01681979098A099B090E940E30D801B4
:103B500019966D937D938D939C931C971F2D0AE06E
:103B600060E070E0CB01B4E01B9FF0011124EE5542
:103B7000FB4F21853285438554850E94F32E112306
:103B800011F0115001C019E0015069F720E030E058
:103B900040E251E40E94642F21E02F0D2A3018F4F6
:103BA0002093D30402C01092D30468A779A78AA7F0
:103BB0009BA70FC081E08093AA041092A6041092E4
:103BC000A7041092A8041092A90418A619A61AA670
:103BD0001BA62091D4043091D5044091D604509175
:103BE000D70488A599A5AAA5BBA58093D4049093D2
:103BF000D504A093D604B093D7048091DC04882325
:103C000009F443C010912D05E4E01E9FC00111246A
:103C1000BC0165557B4F7B0168A579A5CD010E944C
:103C2000F22ED701D2966D937D938D939C93D59769
:103C3000012FA4E1FA2E60E070E0CB01B4E00B9F0D
:103C4000F0011124E555FB4F22A933A944A955A938
:103C50000E94F32E002311F0015001C003E1FA94F9
:103C6000F110ECCF20E030E040EA51E40E94642FF4
:103C70001F5F143118F410932D0502C010922D050A
:103C800068AB79AB8AAB9BAB0FC081E08093DC045F
:103C90001092D8041092D9041092DA041092DB0426
:103CA00018AA19AA1AAA1BAA80912E058823A9F17D
:103CB00080915F0380FF2BC70E9492159B01AC018E
:103CC00060E070E080E094E40E94642F6B017C016E
:103CD00060915E0370E080E090E00E940E309B01F6
:103CE000AC01C701B6010E94C33020E030E048ECCF
:103CF00052E40E94642F0E94D62F8B019C01609198
:103D00008403709185038091860390918703A801B5
:103D10000E94A0162B013C01FDC6E6EBF1E0FFA3DB
:103D2000EEA31F8A1E8A412C512C32010E891F8955
:103D30000F5F1F4F1F8B0E8B4EE19801429F80013A
:103D4000439F100D11240E511E4FD8018C9183708A
:103D5000833009F0CFC60E9492156B017C01F801F7
:103D600021853285A789B08D0E94EA312FEF3FE788
:103D700040E050E00E948F2ECA01B9010E940E302F
:103D8000A70196010E94642F0E94D62F9B01AC01CF
:103D9000D8011B968D919C911C97059730F4E4E017
:103DA000F0E01C96FC93EE931B97FEE1EF2ECE887D
:103DB000DF88EC9CF001ED9CF00D1124EE51FE4FDC
:103DC000E1818E2F90E0FC013197ED30F10508F094
:103DD0007BC6EA5AFF4F0C94E4310E9492156A8B1D
:103DE0007B8B8C8B9D8B2EE10E891F89209FC001C0
:103DF000219F900D1124AC014E515E4F1A01DA0142
:103E000019968D909C901A975596AD90BC905697A8
:103E10001F96CD90DC9050975196ED90FC90529764
:103E200053960D911C91549714962C9114971396B8
:103E30004C91139757968D919C915897EEA1FFA1A5
:103E4000608171810E94A3159401DC010E94EA3116
:103E50002FEF3FE740E050E00E948F2ECA01B901EA
:103E60000E940E302A893B894C895D890E94642F0B
:103E70000E94D62F0E9436069B01AC01A0915D03E3
:103E8000B0E00E94AE2E24E630E040E050E00E9418
:103E90008F2E421A530A640A750A72C10E94921543
:103EA0006A8B7B8B8C8B9D8B6EE1E62ECE88DF88B8
:103EB000EC9CF001ED9CF00D1124EE51FE4F0185BC
:103EC00012851B8F0A8FC588D688DF8ECE8EE78439
:103ED000F088FBA2EAA2018912891DA70CA7038919
:103EE000148918AF0FAB84809380AEA1BFA12D9031
:103EF0003C90078510896085A7800A2C000CBB08C0
:103F0000062E000C770B6A197B09CB01770FAA0BE1
:103F1000BB0B6627782F892F9A2F0E940E306B01DA
:103F20007C01B80180E090E00E940C3020E030E09D
:103F30004AE754E40E94642F9B01AC01C701B6011B
:103F40000E94642F6B017C01C101B8010E94D03135
:103F5000BC0180E090E00E940C3020E030E04AE7B5
:103F600054E40E94642F9B01AC01C701B6010E947A
:103F7000C3300E94D62FBA2CAA24C501860F971FE2
:103F8000AE8CBF8CCAA0DBA0ECA4FDA40FA918AD19
:103F9000282D492DB1010E94A3152A8D3B8DDC01EE
:103FA0000E94EA312FEF3FE740E050E00E948F2E61
:103FB000CA01B9010E940E302A893B894C895D896A
:103FC0000E94642F0E94D62F0E943606461A570A76
:103FD000680A790A79C50E9492156A8F7B8F8C8F47
:103FE0009D8F5EE1C52EEE89FF89CE9EC001CF9EDA
:103FF000900D11248C010E511E4F1801D8011996F5
:104000000D90BC91A02DBF8FAE8FF801038CF48D65
:10401000E02DFBA3EAA3D8015D96BC91BCA7F801F3
:1040200083849484A588B688C784D088E188F28880
:104030000389148924814381AEA1BFA10D90BC9155
:10404000A02DBB8BAA8B8789908DBD010E94A315E3
:104050008C01B40180E090E00E940C3020E030E060
:104060004AE754E40E94642F9B01AC0160E070E0D9
:1040700080E89FE30E94642F6B017C018A899B8901
:10408000B4010E94D031BC0180E090E00E940C306D
:1040900020E030E04AE754E40E94642F9B01AC0129
:1040A000C701B6010E94C3306B017C01BCA56B2F18
:1040B00070E080E090E00E940C3020E030E040E8CA
:1040C0005BE30E94C3309B01AC01C701B6010E94B3
:1040D000F32E2BED3FE049EC50E40E94C3300E94E8
:1040E00030319B01AC01EAA1FBA16F01FF0FEE088B
:1040F000FF08B801110F880B990B2DAF21963FAF28
:1041000021974EAF5FAF0E940E302DAD21963FAD8F
:1041100021974EAD5FAD0E94C3300E94D62FCB01D8
:10412000770FAA0BBB0BA7019601280F391F4A1F57
:104130005B1FAE8DBF8D0E94AE2E2FEF3FE740E09C
:1041400050E00E948F2ECA01B9010E940E302A8DC4
:104150003B8D4C8D5D8D0E94642F0E94D62F9B015C
:10416000AC01A0915C03B0E00E94AE2E24E630E0EA
:1041700040E050E00E948F2E420E531E641E751EBA
:10418000D10116968C91169782FF9EC41D966D9153
:104190007C911E9780E090E00E940C302BED3FE078
:1041A00049EC50E40E94C33020E030E040E058E3A6
:1041B0000E94C3300E9430319B01AC01C301B201A7
:1041C0002DAF21963FAF21974EAF5FAF0E940E30CB
:1041D0002DAD21963FAD21974EAD5FAD0E94C3300E
:1041E0000E94D62F2B013C016FC40E9492156A8F4A
:1041F0007B8F8C8F9D8F4EE1E42ECE88DF88EC9CE8
:10420000F001ED9CF00D1124EE51FE4F0185128559
:104210001F8F0E8F238D348DA901330F660B770B03
:104220004AA35BA36CA37DA3558D5CA72384348430
:10423000A588B688C784D088E188F2880389148964
:1042400024814381AEA1BFA10D90BC91A02DBB8B59
:10425000AA8B8789908DBD010E94A315BC01990F7F
:10426000880B990B0E940E304B015C01B10180E07C
:1042700090E00E940C3020E030E04AE754E40E94D5
:10428000642F9B01AC0160E070E080E89FE30E9436
:10429000642F6B017C018A899B89B1010E94D03116
:1042A000BC0180E090E00E940C3020E030E04AE762
:1042B00054E40E94642F9B01AC01C701B6010E9427
:1042C000C3306B017C01BCA56B2F70E080E090E0F7
:1042D0000E940C3020E030E040E85BE30E94C330F5
:1042E0009B01AC01C701B6010E94F32E2BED3FE00C
:1042F00049EC50E40E94C3300E9430316B017C01D4
:1043000020E030E0A9010E94BE3087FF0CC020E011
:1043100030E0A901C701B6010E945F2F87FF05C0E9
:10432000EFEFECAB02C0F1E0FCABCCA86C2DCC0CF9
:10433000770B880B990B0E940E309B01AC01C501D5
:10434000B4010E94C3300E94D62FCB01770FAA0B75
:10435000BB0BE0C10E9492156E8F7F8F88A399A33B
:104360000EE1EE88FF880E9DF0010F9DF00D1124E7
:10437000EE51FE4F218532853BA32AA3238D348D38
:10438000A901330F660B770B4CA75DA76EA77FA71C
:10439000358D638574857B8B6A8BA588B688C784C9
:1043A000D088E188F2880389148924814381AEA1F1
:1043B000BFA10D90BC91A02DBB8FAA8F8789908D36
:1043C000BD0121963FAF21970E94A3151C01EA89E8
:1043D000FB89BF0180E090E00E940C304B015C0142
:1043E00021963FAD219760E4630F70E080E090E09C
:1043F0000E940C3020E030E040E85BE30E94C330D4
:10440000A50194010E94C3300E94DD2F8A8D9B8DEF
:10441000860F971F6A897B890E94D0318C01BC016D
:1044200080E090E00E940C3020E030E04AE754E465
:104430000E94642F6B017C0120E030E0A9010E9402
:10444000BE3087FD3CC020E030E04AE754E4C501BF
:10445000B4010E94642F6A8F7B8F8C8F9D8F20E028
:1044600030E040E05FE30E94C3309B01AC01C70134
:10447000B6010E945F2F87FF22C0B101032C000C00
:10448000880B990B0E940E3020E030E040E850E4A9
:104490000E94C3302A8D3B8D4C8D5D8D0E94642F10
:1044A000A70196010E94C3300E94D62F3194219417
:1044B00031086101C60ED71EDEAACDAA51C020E088
:1044C00030E04AE754E4C501B4010E94642F4B0177
:1044D0005C0120E030E040E05FE30E94C3309B01DC
:1044E000AC01C701B6010E94BE3087FD39C0A501ED
:1044F0009401C701B6010E945F2F87FF31C0B1014F
:10450000032C000C880B990B0E940E3020E030E049
:1045100040E850EC0E94C330A50194010E94642F32
:104520006B017C018A899B8996958795B801681BE8
:10453000790B80E090E00E940C3020E030E04AE708
:1045400054E40E94642F9B01AC01C701B6010E9494
:10455000C3300E94D62F7101E60EF71EFEAAEDAA07
:104560000DA91EA9C801110FAA0BBB0B2CA53DA5B7
:104570004EA55FA5280F391F4A1F5B1FAAA1BBA12B
:104580000E94AE2E2FEF3FE740E050E00E948F2EBA
:10459000CA01B9010E940E302E8D3F8D48A159A14C
:1045A0000E94642F0E94D62F9B01AC01A0915C0356
:1045B000B0E00E94AE2E24E630E040E050E00E94E1
:1045C0008F2E420E531E641E751E7EC20E949215CF
:1045D0006A8F7B8F8C8F9D8F4EE12E893F89429F02
:1045E000F001439FF00D1124EE51FE4F618572855D
:1045F0007F8F6E8F238D348DC901330FAA0BBB0BB8
:104600008AA39BA3ACA3BDA3358D23843484A58842
:10461000B688C784D088E188F28803891489248108
:104620004381AEA1BFA10D90BC91A02DBB8BAA8BE5
:104630008789908DBD0121963FAF21970E94A315D8
:104640008C01B10180E090E00E940C304B015C01D4
:1046500021963FAD219760E8630F70E080E090E025
:104660000E940C3020E030E040E85BE30E94C33061
:10467000A50194010E94C3300E94DD2F8A899B8985
:10468000860F971FB1010E94D0319B8B8A8B8215B8
:104690009305D0F5B801012E000C880B990B0E94F0
:1046A0000E309B01AC010E94F32E6B017C0120E0D7
:1046B00030E04AE754E4C501B4010E94642F9B0135
:1046C000AC01C701B6010E94642F4B015C01CA888E
:1046D000DB88B60180E090E00E940C3020E030E002
:1046E0004AE754E40E94642F9B01AC01C501B40168
:1046F0000E94C3300E94D62F1195019511097801AF
:10470000E60EF71EFCAEEBAE0BAD1CADC801110FF3
:10471000AA0BBB0B2AA13BA14CA15DA1280F391FFD
:104720004A1F5B1FAE8DBF8D0E94AE2E2FEF3FE75D
:1047300040E050E00E948F2ECA01B9010E940E3065
:104740002A8D3B8D4C8D5D8D2BCF0E9492156A8FEB
:104750007B8F8C8F9D8F4EE12E893F89429FF00188
:10476000439FF00D1124EE51FE4F618572857F8FBE
:104770006E8F238D348DC901330FAA0BBB0B8AA317
:104780009BA3ACA3BDA3358D23843484A588B688B0
:10479000C784D088E188F288038914892481438101
:1047A000AEA1BFA10D90BC91A02DBB8BAA8B878918
:1047B000908DBD0121963FAF21970E94A3158C01DA
:1047C000B10180E090E00E940C304B015C01219629
:1047D0003FAD219760E8630F70E080E090E00E94B9
:1047E0000C3020E030E040E85BE30E94C330A501DC
:1047F00094010E94C3300E94DD2F8A899B89860F15
:10480000971FB1010E94D0319B8B8A8B8215930533
:10481000D0F566277727601B710B072E000C880BDD
:10482000990B0E940E309B01AC010E94F32E6B018C
:104830007C0120E030E04AE754E4C501B4010E9465
:10484000642F9B01AC01C701B6010E94642F4B018C
:104850005C01CA88DB88B60180E090E00E940C30E1
:1048600020E030E04AE754E40E94642F9B01AC0151
:10487000C501B4010E94C3300E94D62F7801E60E14
:10488000F71EFAAEE9AE09AD1AAD40CF8EE16E89E2
:104890007F89869FF001879FF00D1124EE51FE4F16
:1048A000038D148DA0915B03B0E00E94AE2E20E436
:1048B00036E040E050E00E948F2E69017A0120919D
:1048C0008C0330918D0340918E0350918F03D8015A
:1048D0000E94B92EDC01CB012FE0B595A7959795E5
:1048E00087952A95D1F7092E000CAA0BBB0B409196
:1048F00084035091850360918603709187038A0138
:104900009B01081B190B2A0B3B0BC901B801A6011F
:104910000E94A016460E571E681E791ED5C08EE155
:104920006E897F89869FF001879FF00D1124EE51DB
:10493000FE4F038D148DA0915A03B0E00E94AE2E5D
:1049400024E630E040E050E00E948F2E69017A01B9
:10495000B801110F880B990B0E940E302AE939EC2F
:104960004CEC54E40E94642F9B01AC0168A579A52E
:104970008AA59BA50E94F22EA6010E944A0762C04A
:104980008EE1C82EAE89BF89CA9EF001CB9EF00D84
:104990001124EE51FE4F038D148DA0915903B0E008
:1049A0000E94AE2E24E630E040E050E00E948F2EC0
:1049B00069017A01B801110F880B990B0E940E3022
:1049C00020E03EEF4FEF56E40E94642F9B01AC01C4
:1049D00068A979A98AA99BA90E94F22EA6010E9422
:1049E000E20630C00EE1EE88FF880E9DF0010F9DBB
:1049F000F00D1124EE51FE4F038D148DA09158033C
:104A0000B0E00E94AE2E24E630E040E050E00E948C
:104A10008F2E69017A01B801110F880B990B0E9442
:104A20000E302AE939EC4CEC54E40E94642F9B01CF
:104A3000AC0168A579A58AA59BA50E94F22EA601C6
:104A40000E946106092E000CAA0BBB0B480E591ED2
:104A50006A1E7B1E39C00E9492159B01AC018EE13B
:104A60006E897F89869FF001879FF00D1124EE519A
:104A7000FE4F838D948DBC01990F880B990B2DAF40
:104A800021963FAF21974EAF5FAF0E940E302DAD04
:104A900021963FAD21974EAD5FAD0E94642F0E94DD
:104AA000D62F0E9436069B01AC01A0915C03B0E0BA
:104AB0000E94AE2E24E630E040E050E00E948F2EAF
:104AC000421A530A640A750A0E9470100091B201DA
:104AD0001091B3012091B4013091B501DC01CB01FB
:104AE000801B910BA20BB30BEEA1FFA180839183DE
:104AF000A283B3830EA11FA10C5F1F4F1FA30EA3A0
:104B00002E893F892B30310509F010C903C0412C93
:104B1000512C320110915F0311FF32C00E94921597
:104B20009B01AC01E0915A0367E471E0E69FC0018C
:104B3000E79F900D1124BC01990F880B990B2DAFA5
:104B400021963FAF21974EAF5FAF0E940E302DAD43
:104B500021963FAD21974EAD5FAD0E94642F0E941C
:104B6000D62FAB0168A579A58AA59BA50E944A0707
:104B7000092E000CAA0BBB0B480E591E6A1E7B1E89
:104B800012FF32C00E9492159B01AC01E0915903C3
:104B900067E471E0E69FC001E79F900D1124BC011E
:104BA000990F880B990B2DAF21963FAF21974EAFF0
:104BB0005FAF0E940E302DAD21963FAD21974EADD7
:104BC0005FAD0E94642F0E94D62FAB0168A979A91E
:104BD0008AA99BA90E94E206092E000CAA0BBB0B16
:104BE000480E591E6A1E7B1E13FF32C00E9492158A
:104BF0009B01AC01E091580367E471E0E69FC001BE
:104C0000E79F900D1124BC01990F880B990B2DAFD4
:104C100021963FAF21974EAF5FAF0E940E302DAD72
:104C200021963FAD21974EAD5FAD0E94642F0E944B
:104C3000D62FAB0168A579A58AA59BA50E94610620
:104C4000092E000CAA0BBB0B480E591E6A1E7B1EB8
:104C500080918C0390918D03A0918E03B0918F036E
:104C6000AC01BD0106E075956795579547950A9586
:104C7000D1F7841B950BA60BB70B40918403509181
:104C800085036091860370918703CC24DD2476012F
:104C9000C81AD90AEA0AFB0A4C155D056E057F059C
:104CA00034F084179507A607B7070CF049C077FDC5
:104CB00009C06A017B01C81AD90AEA0AFB0AD701AE
:104CC000C60104C0840F951FA61FB71F80938403DD
:104CD00090938503A0938603B09387030E94921557
:104CE0009B01AC0160E07EEF8FEF96E40E94642FA1
:104CF0006B017C016091570370E080E090E00E94BE
:104D00000E309B01AC01C701B6010E94C33020E008
:104D100030E048EC52E40E94642F0E94D62F6B01D1
:104D20007C0160918403709185038091860390914A
:104D30008703A6010E94A016460E571E681E791E04
:104D4000A091B101B0E0A30192010E94AE2E24E631
:104D500030E040E050E00E948F2ECA01B9010E946D
:104D600036066B017C0114FF04C00E941D180E94CE
:104D7000C217C0928003D0928103E0928203F09226
:104D80008303609188037091890380918A039091D5
:104D90008B030E940E306B017C0160914A0370917D
:104DA0004B0380914C0390914D030E940E309B0168
:104DB000AC0160E07FEF8FE797E40E94642F9B01D6
:104DC000AC01C701B6010E94C3300E94D62F4B012F
:104DD0005C01611570488105910534F088248A943E
:104DE000BFE79B2EA12CB12C811410E891061FEF78
:104DF000A106B10634F4812CA0E89A2EAA24AA9424
:104E0000BA2C8092880390928903A0928A03B09270
:104E10008B0380E893E00E94011282E10E94FA0F66
:104E200090937B0380937A0384E10E94FA0F90931E
:104E300075038093740385E10E94FA0F90936F03CA
:104E400080936E0383E10E94FA0F1C0100916403BA
:104E50001091650340907C0350907D03400E511EDD
:104E6000612C712CC0907603D0907703C00ED11EB8
:104E7000E12CF12C2091740330917503C901330F9B
:104E8000AA0BBB0B9C01AD012C193D094E095F0912
:104E9000AFEFBFE00E94AE2E2091780330917903EE
:104EA000201B310B40E050E02C193D094E095F09F1
:104EB0000E948F2E2E8B3F8B488F598FC09070038E
:104EC000D0907103C00ED11EE12CF12C20916E0305
:104ED00030916F03C901330FAA0BBB0B9C01AD01CD
:104EE0002C193D094E095F09AFEFBFE00E94AE2EBD
:104EF0002091720330917303201B310B40E050E08E
:104F00002C193D094E095F090E948F2E69017A0113
:104F100020917A0330917B03C901330FAA0BBB0B9D
:104F20009C01AD012419350946095709AFEFBFE0CF
:104F30000E94AE2E20917E0330917F03201B310B07
:104F400040E050E024193509460957090E948F2E88
:104F50002901411420E1520624F044244A94FFE040
:104F60005F2E57FE02C0412C512C50927B03409281
:104F70007A036E887F88611430E1730624F066241A
:104F80006A94EFE07E2E77FE02C0612C712C709245
:104F9000750360927403C11440E1D40624F0CC245C
:104FA000CA947FE0D72ED7FE02C0C12CD12CD0925C
:104FB0006F03C0926E0380916A0390916B03800F20
:104FC000911F9C0140E050E02E8B3F8B488F598F02
:104FD0009101330C440B550B6E897F89888D998D17
:104FE000261B370B480B590BAFEFBFEF0E94AE2EBD
:104FF00020916C0330916D03201B310B40E050E099
:10500000EE88FF88088D198D2E193F09400B510B32
:105010000E948F2E2115310501E04007510524F033
:105020002FEF3FEF40E050E057FF03C020E030E0BB
:10503000A90120936603309367034093680350935C
:10504000690389B182958F7091E0892790E0A0E093
:10505000B0E081709927AA27BB271B9B8260199B10
:105060008460499B88604F9B8061669B80621C9B2B
:105070008064369B806844E0880F991FAA1FBB1F7D
:105080004A95D1F78093600390936103A0936203E4
:10509000B093630310E8911A89829A822B833C8330
:1050A0004D82262D2295207F25292E8354E076944B
:1050B00067945A95E1F76F82C886D98664E0B69501
:1050C000A795979587956A95D1F78A871B861C8641
:1050D0004CE050E0BE016F5F7F4F84E00E94790B8F
:1050E0008091950490919604A0919704B0919804B2
:1050F00080319742A105B10508F45BC587E894E0CB
:105100000E942C0E181619060CF043C587E894E08F
:105110000E94F20DE82F8FE98E0F8A3108F4E052D9
:105120008E2F90E0FC01E154F109EA31F10508F01D
:1051300030C5ED59FF4F0C94E4318091AF0190914F
:10514000B0010E94571880E20E94B7178091B10108
:105150000E945D1880E20E94B71780915A030E9456
:105160005D1880E20E94B717809158030E945D1875
:1051700080E20E94B71780915D030E945D1880E273
:105180000E94B71780915C030E945D1880E20E9424
:10519000B71780915B030E945D1880E20E94B717E9
:1051A000809159030E945D1880E20E94B717809198
:1051B0005E030E945D1880E20E94B717809157033A
:1051C0000E945D1880E20E94B7176091AD01709156
:1051D000AE0180E090E04AE00E94D01780E20E9499
:1051E000B7178091AC010E945D1880E20E94B7174A
:1051F00080915F030E945D1880E20E94B717609162
:10520000AA017091AB0180E090E04AE00E94D017C3
:1052100080E20E94B717609153037091540380910C
:105220005503909156030E941D1880E20E94B71703
:105230006091A90170E058C283E991E00E9464186E
:105240008AEF90E00E94571888E991E00E94641864
:105250008AE991E00E9464189CC48091A104082E00
:10526000000C990B94C4F894C0908204D0908304ED
:10527000E0908404F090850478948091AA01909144
:10528000AB012091AD013091AE01821B930B96953D
:10529000879596958795A0E0B0E089839A83AB8344
:1052A000BC83CE0101960E940112D701C6011EEFF8
:1052B000F8948090820490908304A0908404B0902D
:1052C0008504789488159905AA05BB0554F46CE209
:1052D00071E080E090E00E944A101150D501C401B5
:1052E00039F719821A821B821C82CE0101960E9414
:1052F000011280914A0390914B03A0914C03B0910D
:105300004D03F8948093820490938304A0938404C3
:10531000B09385047894C814D904EA04FB0411F40A
:1053200082E001C081E08093A1042FC40E9466182E
:10533000611101C061E06093AC0127C4F894409012
:105340008204509083046090840470908504789463
:1053500080918C0390918D03A0918E03B0918F0367
:10536000481A590A6A0A7B0A80919D0490919E040A
:10537000A0919F04B091A004480E591E6A1E7B1E86
:105380000E94661864307105810591057CF06B01FF
:105390007C01613C7742894091056CF010ECC12E94
:1053A00017E2D12E19E0E12EF12C05C0B4E0CB2E8E
:1053B000D12CE12CF12CC982DA82EB82FC82609143
:1053C000AF017091B001072E000C880B990B0E9461
:1053D0000E304B015C01C301B2010E940E30A501E9
:1053E00094010E94C3302B013C0160914A037091EB
:1053F0004B0380914C0390914D030E940E309B0112
:10540000AC01C301B2010E94642F2B013C01C09288
:105410005303D0925403E0925503F0925603C70110
:10542000B60191C080918C0390918D03A0918E0361
:10543000B0918F03F8948093820490938304A09397
:105440008404B0938504789453C1F89480908204C6
:1054500090908304A0908404B09085047894809107
:105460008C0390918D03A0918E03B0918F03881AC5
:10547000990AAA0ABB0A80919D0490919E04A0916A
:105480009F04B091A004880E991EAA1EBB1E0E9404
:1054900066186E3171058105910574F06B017C0110
:1054A000693077408105910564F0A8E0CA2EA7E035
:1054B000DA2EE12CF12C05C0FEE1CF2ED12CE12C0F
:1054C000F12CC982DA82EB82FC82C501B4010E9410
:1054D0000E304B015C016091AF017091B001072E5D
:1054E000000C880B990B0E940E309B01AC01C5018A
:1054F000B4010E94C3304B015C0160914A0370917A
:105500004B0380914C0390914D030E940E309B0100
:10551000AC01C501B4010E94642F2B013C01D09263
:10552000B001C092AF01B601DD0C880B990B0E944F
:105530000E304B015C0160915303709154038091D4
:105540005503909156030E940E3020E030E044EB6A
:1055500053E40E94642FA50194010E94C3300E946D
:10556000D62F60934A0370934B0380934C03909320
:105570004D036B017C01F594E794D794C794C092D6
:105580008C03D0928D03E0928E03F0928F030E94E1
:105590000E309B01AC01C301B2010E94C330A501D2
:1055A00094010E94642F0E94D62FC60ED71EE81EBB
:1055B000F91E80919D0490919E04A0919F04B0914A
:1055C000A004C81AD90AEA0AFB0AF894C092820415
:1055D000D0928304E0928404F09285047894D5C23A
:1055E0000E946618262F60915F0380E090E030E013
:1055F000F901082E02C0F595E7950A94E2F7C12C4F
:10560000D12C7601C394082E04C0CC0CDD1CEE1CFA
:10561000FF1C0A94D2F7E0FF02C06C2902C0C094BC
:105620006C2101968830910519F760935F0370E053
:1056300080E090E042E00E94D0170E94C217A9C209
:105640000E9466188091A90120E030E070E0AB0173
:10565000022E02C0559547950A94E2F7C12CD12C31
:105660007601C394022E04C0CC0CDD1CEE1CFF1C82
:105670000A94D2F740FF02C08C2902C0C0948C214A
:105680002F5F3F4F2830310511F78093A90141E08A
:1056900069EA71E08DE190E00E94EE078091A90136
:1056A0000E944608BC0180E090E00E940C302091EE
:1056B000A5013091A6014091A7015091A8010E9437
:1056C000C3300E94D62F69837A838B839C8344E006
:1056D000BE016F5F7F4F81E190E00E94EE078091F5
:1056E000A9010E944608BC0180E090E04AE0A3CFF7
:1056F00080E090E04CC287E894E00E94F20DE82F31
:105700008FE98E0F8A3108F4E0528E2F90E0FC0171
:10571000E154F109E231F10508F03BC2E358FF4FD3
:105720000C94E4310E946618611550E175078105FB
:10573000910524F06FEF7FE080E090E097FF03C0D9
:1057400060E070E0CB0169837A838B839C837093E4
:105750006B0360936A0319C20E9466186115A0E189
:105760007A078105910524F06FEF7FE080E090E0FB
:1057700097FF03C060E070E0CB0169837A838B837D
:105780009C8370936D0360936C03FFC10E94661845
:105790006115B0E17B078105910524F06FEF7FE093
:1057A00080E090E097FF03C060E070E0CB01698388
:1057B0007A838B839C8370937D0360937C03E5C124
:1057C0000E9466186115E0E17E078105910524F0CD
:1057D0006FEF7FE080E090E097FF03C060E070E053
:1057E000CB0169837A838B839C8370937F0360935F
:1057F0007E03CBC10E9466186115F0E17F07810529
:10580000910524F06FEF7FE080E090E097FF03C008
:1058100060E070E0CB0169837A838B839C83709313
:10582000770360937603B1C10E946618611500E1A9
:1058300070078105910524F06FEF7FE080E090E034
:1058400097FF03C060E070E0CB0169837A838B83AC
:105850009C83709379036093780397C10E946618C4
:10586000611510E171078105910524F06FEF7FE06C
:1058700080E090E097FF03C060E070E0CB016983B7
:105880007A838B839C8370937103609370037DC1D3
:105890000E946618611520E172078105910524F0C8
:1058A0006FEF7FE080E090E097FF03C060E070E082
:1058B000CB0169837A838B839C837093730360939A
:1058C000720363C180916A0390916B030E94571821
:1058D0008DE991E00E94641880916C0390916D03B2
:1058E0000E9457188DE991E00E94641880917C0312
:1058F00090917D030E9457188DE991E00E946418F1
:1059000080917E0390917F030E9457188DE991E06A
:105910000E94641880917603909177030E94571833
:105920008DE991E00E946418809178039091790349
:105930000E9457188DE991E00E94641880917003CD
:10594000909171030E9457188DE991E00E946418AC
:1059500080917203909173031AC142E06FEA71E083
:1059600086E090E00E94EE0744E063E573E089E1A1
:1059700090E00E94EE0741E061EB71E088E090E08A
:105980000E94EE0741E06AE573E089E090E00E9442
:10599000EE0741E068E573E08AE090E00E94EE07E0
:1059A00041E06DE573E08BE090E00E94EE0741E09E
:1059B0006CE573E08CE090E00E94EE0741E06BE55F
:1059C00073E08DE090E00E94EE0741E069E573E04E
:1059D0008EE090E00E94EE0741E06EE573E08FE01C
:1059E00090E00E94EE0741E067E573E080E190E01F
:1059F0000E94EE0741E06CEA71E087E190E00E94CE
:105A0000EE0741E06FE573E088E190E00E94EE0769
:105A100042E06DEA71E081E190E00E94EE0742E031
:105A20006AEA71E083E190E00E94EE0742E061E5FE
:105A300073E085E190E00E94EE0742E06CE773E0DE
:105A40008AE290E00E94EE0742E06EE773E08CE2AB
:105A500090E00E94EE0742E06AE673E08EE290E09A
:105A60000E94EE0742E06CE673E080E390E00E9463
:105A7000EE0742E066E773E082E390E00E94EE0703
:105A800042E068E773E084E390E00E94EE0742E0C2
:105A900060E773E086E390E00E94EE0742E062E791
:105AA00073E088E390E00E94EE076FC087E894E01F
:105AB0000E94F20DE82F8FE98E0F8A3108F4E05230
:105AC0008E2F90E0FC01E154F109E331F10508F07B
:105AD00060C0E157FF4F0C94E4310E946618609358
