:100000000C9414040C943C040C943C040C94FC07D5
:100010000C94D8070C943C040C943C040C943C04C1
:100020000C943C040C943C040C941B0B0C94BE08E4
:100030000C943C040C943C040C943C040C943C0440
:100040000C943C040C943C040C943C040C943C0430
:100050000C943C040C943C040C943C040C94AE10A2
:100060000C943C040C943C040C943C040C943C0410
:100070000C943C040C943C040C943C040C943C0400
:100080000C943C040C943C040C943C040C943C04F0
:100090000C94F8100C943C040C943C040C943C0418
:1000A0000C943C040C943C040C943C04E71E491F43
:1000B0000821E61FBD21B723F3225924A324D52408
:1000C000072587254125692C612A002B4D2DDE2B24
:1000D000DA2C132B662C4D2D4D2D4D2D4D2D4D2DE8
:1000E0004D2D8C2A692A4D2DFE29F8294D2D5A298E
:1000F000DD290E2C4D2D662C662C142D192DF62C79
:10010000FB2C4D2D002DF12C4D2D0F2D1E2D4D2D89
:100110004D2D0A2D4D2D4D2D4D2D4D2D4D2D052D9A
:10012000FD120213071311135B135B135B131B13F5
:1001300025132F13391346135B134E132E17311744
:1001400024172817521752175217351739173D170A
:100150004317471752174D1705A84CCDB2D44EB9C7
:100160003836A9020C50B9918688083CA6AAAA2A5A
:10017000BE000000803F00000000000000002A2BAD
:100180002800000000000000000000000000000047
:100190000000000000002C9EB4A0A1A2A434A6A7D9
:1001A000A5AE362D3738271E1F20212223242526D1
:1001B000B333B62EB7B89F8485868788898A8B8C9F
:1001C0008D8E8F909192939495969798999A9B9CE7
:1001D0009D2F3130A3AD350405060708090A0B0C25
:1001E0000D0E0F101112131415161718191A1B1CC7
:1001F0001DAFB1B0B500080B0002020201000904F6
:100200000000010202000005240010010524010184
:1002100001042402060524060001070581031000DD
:100220004009040100020A00000007050202400024
:1002300000070583024000000904020002030000D9
:100240000009210101000122E104070584034000A7
:10025000010705050340000105010904A10185040A
:100260000901A1000930170000000027FFFF00006E
:10027000350047FFFF000075109501810209311616
:10028000000027FFFF0000350047FFFF000075104A
:1002900095018102093216000027FF0F000035008A
:1002A00047FF0F0000750C9501810209331600000D
:1002B00027FF0F0000350047FF0F0000750C950168
:1002C0008102093416000027FF0F0000350047FFA8
:1002D0000F0000750C9501810209391501250835BB
:1002E00000463B016514550075049501810205091E
:1002F000150025015500650019012918750195188B
:10030000810285F10901150026FF00953F750891CE
:100310008285F20901953F75088182C0050F099217
:10032000A1028502099F09A009A409A509A6150033
:10033000250135004501750195058102950381036D
:1003400009941500250135004501750195018102CB
:1003500009221501252835014528750795018102D7
:10036000C00921A102850109221501252835014571
:10037000287508950191020925A102092609270976
:100380003009310932093309340940094109420968
:1003900043250B15013501450B750895019100C0EA
:1003A00009500954150027FFFF0000350047FFFFE3
:1003B000000066011055FD7510950291025500660A
:1003C00000000952150026FF7F350046FF7F75109B
:1003D0009501910209531501250835014508750855
:1003E000950191020955A102050109300931150055
:1003F0002501750195029102C0050F0956950191DD
:1004000002950591030957A1020B01000A000B0296
:10041000000A0066140055FE150026FF7F350047D0
:100420009F8C00007510950191025500660000C078
:10043000050F09A766011055FD150027FFFF0000F5
:10044000350047FFFF00007510950191026600001E
:100450005500C0050F095AA1028502092215012580
:100460002835014528750895019102095B095D153C
:100470000026FF00350046FF7F75089502910209AE
:100480005C095E66011055FD26FF7F46FF7F7510F3
:10049000950291026600005500C0095FA102850324
:1004A0000922150125283501452875089501910275
:1004B00009231500250135004501750495019102B8
:1004C0000958A1020B01000A000B02000A00750284
:1004D00095029102C0096016008026FF7F360080D9
:1004E00046FF7F751095019102096136008046FF35
:1004F0007F95019102150026FF7F350046FF7F0999
:10050000637510950191020965150026FF0046FFED
:100510007F750895019102C0096EA1028504092228
:1005200015012528350145287508950191020970A6
:10053000150026FF7F350046FF7F7510950191025B
:10054000096F16008026FF7F36008046FF7F9501E9
:1005500091020971150026FF0035004667016614F7
:10056000005500750895019102097227FFFF0000F0
:1005700047FFFF000066011055FD751095019102BF
:100580006600005500C00973A10285050922150106
:100590002528350145287508950191020970160135
:1005A0008026FF7F36018046FF7F751095019102FE
:1005B000C00974A1028506092215012528350145C7
:1005C00028750895019102097509761581257F36F0
:1005D000018046FF7F750895029102C0050F0977DB
:1005E000A102850A0922150125283501452875082B
:1005F000950191020978A1020979097A097B15010F
:100600002503750895019100C0097C150026FF009F
:10061000350046FF009102C00990A102850B092216
:100620001501252835014528750895019102C00955
:1006300096A102850C099709980999099A099B09BD
:100640009C15012506750895019100C0097DA10240
:10065000850D097E150026FF003500461027750818
:1006600095019102C009ABA10285050925A10209E6
:1006700026092709300931093209330934094009AB
:1006800041094209431501250B3501450B750895B4
:1006900001B100C00501093B150026FF01350046E8
:1006A000FF01750A9501B1027506B101C0050F0978
:1006B00089A10285060922252815013501452875DD
:1006C000089501B102098BA102098C098D098E25BB
:1006D0000315013501450375089501B100C009AC4A
:1006E000150027FFFF0000350047FFFF00007510D1
:1006F0009501B100C0097FA1028507098075109599
:1007000001150027FFFF0000350047FFFF0000B183
:1007100002098326FF0046FF0075089501B1020912
:10072000A909AA750195021500250135004501B1F9
:100730000275069501B103C0C01803410072006440
:1007400000750069006E006F0020004C004C0043F3
:10075000000403090422034100720064007500696B
:10076000006E006F0020004D006900630072006F92
:100770000020002000200012010002000000404183
:100780002337800001010200011201000202000073
:10079000404123378000010102000100C18081C176
:1007A000C0070605040100080A0B0C0D0900000033
:1007B00000240027002A002D003000000000002542
:1007C0000028002B002E003100040404040403045C
:1007D00005020202020403020202020606060606DF
:1007E00006040402020204040408020110408040CE
:1007F0001020408040800802040180402010020147
:10080000108010204040200000000200080E000070
:10081000030401000B0000000000000000000000C5
:10082000000000000000672D11241FBECFEFDAE0AA
:10083000DEBFCDBF11E0A0E0B1E0E8EFF2E602C01C
:1008400005900D92A23AB107D9F725E0A2EAB1E0EE
:1008500001C01D92AE34B207E1F714E0C4E1D4E068
:1008600004C02197FE010E946831C331D107C9F746
:100870000E94C5180C947A310C940000CF92DF923C
:10088000EF92FF926091B1017091B201072E000CBE
:10089000880B990B0E94922F6B017C0160914C0395
:1008A00070914D0380914E0390914F030E94922FBF
:1008B0009B01AC01C701B6010E94E82EFF90EF90AA
:1008C000DF90CF9008958C30F8F4282F30E09EE12F
:1008D000899FF0011124EC51FE4F90819923A1F0E2
:1008E00090819D7F9083F901EA55FC4F958191118C
:1008F0000BC0E091A301F091A4010084F185E02DEB
:1009000009951092B60308950895FC01CB0120913A
:10091000E80022FFFCCF282F215028F03091F10071
:1009200030833196F9CF24E620939A032BEF20935E
:10093000E80008950F931F93CF93DF93DB01A40F7B
:10094000B51FFB016EEFEA17FB0791F187FF02C0AD
:10095000249101C0208100919E0310919F03C091BA
:100960009C03D0919D030C171D07B4F49091E800EF
:100970009570E1F39091E80092FD1CC02093F10086
:1009800020919E0330919F032F5F3F4F2F7333279A
:10099000232B11F46093E80020919E0330919F0374
:1009A0002F5F3F4F30939F0320939E033196CBCF11
:1009B000CA0102C08FEF9FEFDF91CF911F910F917E
:1009C0000895CF93DF9300D000D01F92CDB7DEB74C
:1009D000FC0181819081913A29F5813009F0BCC0F8
:1009E0008281863051F445E050E061EA73E080E4B2
:1009F0000E949A041092A103AFC0873009F0ACC0E6
:100A000089838FEF9FEF9B838A838BE08C8383E0C6
:100A10008D8345E050E0BE016F5F7F4F80E40E9410
:100A20009A049AC0913209F097C0893009F094C0B5
:100A30008281853009F090C064E070E0CE010196BB
:100A40000E94850486E08093A10380910F018B3082
:100A500021F1A0910F0181E08A0F80930F019EE1A7
:100A6000E0910F019E9FF0011124EC51FE4F808117
:100A7000882351F080910F018B3030F480910F0169
:100A80008F5F80930F01ECCF8EE1A89FF0011124BE
:100A9000EC51FE4F81E0808301C0A0E0A093A2034F
:100AA000A11104C082E08093A30350C010923005CE
:100AB00081E08093A3038A819EE1A99FD001112444
:100AC000AC51BE4F11968C9311978FEF9FEF5096BC
:100AD0009C938E931F9754961C921E9253975296F6
:100AE0001C921E92519713968C93139714968C9385
:100AF000149756961C921E9255971E961C921E9203
:100B00001D9716961C9216978FEF9FE71A969C9347
:100B10008E93199758961C921E9257975C961C922A
:100B20001E925B975D961C925D9788EE93E01C96F3
:100B30009C938E931B97E091A301F091A4010684EE
:100B4000F785E02DBD01CE01019609958FEF9FEF4E
:100B50009093A5038093A40381E00F900F900F90D2
:100B60000F900F90DF91CF91089542E450E066EF2F
:100B700071E080E80E949A0440E250E068E372E08D
:100B800080E80E949A0483E090E00895EF92FF923B
:100B90001F93CF93DF93EC01162FE881F981048036
:100BA000F581E02D09957C01E881F9810680F781C6
:100BB000E02D612FCE010995C7019927DF91CF91D3
:100BC0001F91FF90EF900895FC0191818081813AFF
:100BD00029F49D7F81E0913091F414C0813279F441
:100BE0009A3049F09B3019F0993049F40AC082815B
:100BF00080930E0106C0828180930D0102C080E0C7
:100C0000089581E008958C30F0F49EE1899FF00111
:100C10001124EC51FE4F80818823A9F080818260ED
:100C200080838091B60381110EC00E94A210609350
:100C3000B4017093B5018093B6019093B70181E040
:100C40008093B60308950895CF92DF92EF92FF92BA
:100C50000F931F938B019C014091AC015091AD010A
:100C60006A01E12CF12C66277727CB016C197D09ED
:100C70008E099F0906171707280739074CF0C90185
:100C8000B801C016D106E206F30614F4C701B60196
:100C90001F910F91FF90EF90DF90CF9008958F926A
:100CA0009F92AF92BF92CF92DF92EF92FF92CF933B
:100CB000DF934B015C01EA010E943E046B017C0161
:100CC000DE01A50194010E943D2E0E94922FA701F2
:100CD00096010E94473020E030E040E051E40E945D
:100CE000473020E030E040E251E40E94473020E00D
:100CF00030E040E85BE30E9447300E945A2F0E9498
:100D0000240690958095709561957F4F8F4F9F4FEA
:100D1000DF91CF91FF90EF90DF90CF90BF90AF9099
:100D20009F908F9008954F925F926F927F928F92D3
:100D30009F92AF92BF92CF92DF92EF92FF92CF93AA
:100D4000DF9300D000D0CDB7DEB74B015C0157FF79
:100D500002C04D5F5F4F6A01D594C794D594C79484
:100D60000E943E0469837A838B839C839B01AC0140
:100D7000C501B4010E94473020E030E040E251E478
:100D80000E9447302B013C0120E030E040E85FE367
:100D90000E9442300D2C000CEE08FF0818161CF4BF
:100DA000C701B60128C020E030E040E85FEBC30196
:100DB000B2010E94E32E87FF06C0C701B6010E9460
:100DC0002406CB011EC0C701B6010E94922F9B01D1
:100DD000AC01C501B4010E94473029813A814B81A1
:100DE0005C810E94473020E030E040E251E40E9404
:100DF00047300E945A2F0E94240688279927861B75
:100E0000970B0F900F900F900F90DF91CF91FF9065
:100E1000EF90DF90CF90BF90AF909F908F907F909A
:100E20006F905F904F9008958F929F92AF92BF9274
:100E3000CF92DF92EF92FF924B015C01BA01550F06
:100E4000880B990B0E94922F6B017C0120E030E00F
:100E5000A901C501B4010E944230A50194011816F0
:100E60000CF05058C701B6010E9447306B017C015D
:100E70000E943E049B01AC01C701B6010E944730AD
:100E800020E030E040E851E40E94473020E030E0CC
:100E900040E251E40E94473020E030E040E05DE372
:100EA0000E9447300E945A2F0E9424066B017C0149
:100EB00020E030E0A901C501B4010E9442301816BB
:100EC0002CF4882799278C199D090DC020E030E06B
:100ED000A901C501B4010E94E32E87FF02C0C6012B
:100EE00002C080E090E0FF90EF90DF90CF90BF9045
:100EF000AF909F908F900895CF92DF92EF92FF92E4
:100F0000CF93DF936B017C01EA0120E030E0A9017F
:100F10000E944230181694F020E030E0A901C70189
:100F2000B6010E94E32E87FF3AC020E030E0A9011D
:100F3000C701B6010E94772E6B017C01BE01DD0F57
:100F4000880B990B0E94922F9B01AC01C701B6013F
:100F50000E9447306B017C010E943E049B01AC0162
:100F6000C701B6010E94473020E030E040E851E47C
:100F70000E94473020E030E040E251E40E944730D8
:100F800020E030E040E05BE30E9447300E945A2FAF
:100F90000E94240688279927861B970B02C080E0B1
:100FA00090E0DF91CF91FF90EF90DF90CF90089588
:100FB0001F920F920FB60F9211242F933F934F93CE
:100FC0005F936F937F938F939F93AF93BF93EF93B1
:100FD000FF930E946617FF91EF91BF91AF919F9190
:100FE0008F917F916F915F914F913F912F910F90D2
:100FF0000FBE0F901F9018951F920F920FB60F9271
:1010000011242F933F934F935F936F937F938F930D
:101010009F93AF93BF93EF93FF930E946617FF9147
:10102000EF91BF91AF919F918F917F916F915F9160
:101030004F913F912F910F900FBE0F901F901895D9
:10104000CF92DF92EF92FF920F931F93CF93DF9394
:101050001F92CDB7DEB7F82EE42E8B01C82ED92E05
:101060008C2D8F198E1588F4F80161918F01C601BE
:1010700069830E94FD2D6981681719F0C6010E94DD
:10108000052EFFEFCF1ADF0AEBCF0F90DF91CF9144
:101090001F910F91FF90EF90DF90CF900895CF9226
:1010A000DF92EF92FF920F931F93CF93DF931F92E4
:1010B000CDB7DEB78B016B017C01E61AF70A9C2DD8
:1010C000901B941758F4C7018C0D9D1D49830E94F5
:1010D000FD2DF60181936F014981F1CF0F90DF91D2
:1010E000CF911F910F91FF90EF90DF90CF900895D7
:1010F0008F929F92AF92BF92CF92DF92EF92FF9228
:1011000040E050E020E0682F70E0812C912C5401E9
:101110008394FA013296DB0102C0B595A795EA9552
:10112000E2F775016401042E04C0CC0CDD1CEE1C3A
:10113000FF1C0A94D2F7A0FF02C02C2902C0C09461
:101140002C214F5F5F4F4430510519F730E0220FDB
:10115000331FF901EC5CFE4F80FF05C08081918157
:101160009695879502C080819181FF90EF90DF90E6
:10117000CF90BF90AF909F908F9008951F920F9245
:101180000FB60F921124EF92FF921F932F933F936C
:101190004F935F936F937F938F939F93AF93BF937F
:1011A000EF93FF93CF93DF93CDB7DEB76197DEBFA9
:1011B000CDBF1092E9008091E80083FF59C1FE0184
:1011C0003A96CF0128E02E0F2E1729F03091F1002A
:1011D00030833196F9CF24E620939A0322EF2093AF
:1011E000E8002A8527FF05C03091E80030FFFCCFDA
:1011F00003C03EEF3093E800322F307609F0C5C0CF
:101200008B85811105C01092F1001092F10029C167
:10121000982F9D7F913009F424C1853049F4809145
:10122000E80080FFFCCF8C8580688093E30019C1C3
:10123000863009F07CC01D85E888F9881092E900A5
:1012400010929F0310929E03123091F510929D030D
:1012500010929C030E94B50599E0BE016F5F7F4F1D
:10126000FB01292F11922A95E9F799831A8391E0BE
:101270009E8390E898879AEF998720919E033091FA
:101280009F03275F3F4F3C832B838D831092E900A0
:1012900010929F0310929E03F0929D03E0929C0394
:1012A00049E050E080E00E949A040E94B505D9C050
:1012B000F0929D03E0929C03123259F441EE54E007
:1012C00068E572E080E80E949A04892B09F0C9C0A1
:1012D000CCC0113069F488899989089711F410936A
:1012E0009B0380919B03811111C067E777E016C0D3
:1012F000133009F0BAC08C85882359F0823061F030
:10130000813009F0B2C069E377E008C069E877E0AE
:1013100005C061E577E002C065E577E0611571051C
:1013200009F4A3C0FB01449150E080E849C0873034
:1013300009F49BC0883021F481E08093F10091C0D2
:10134000893009F08EC0237009F08FC080E090E0F2
:1013500031E026E341E0480F4093E9003093EB0091
:101360000196FC01E556F84FE491E093EC002093E0
:10137000ED008530910571F78EE78093EA001092B9
:10138000EA008C858093A2016CC02889398910926B
:10139000E90010929F0310929E0330939D032093C7
:1013A0009C032E85211154C08B859A85913A59F45E
:1013B000813209F05AC047E050E060E171E080E01E
:1013C0000E949A044EC0913209F04FC0803239F425
:1013D00067E070E080E191E00E94850442C08232C3
:1013E00009F043C08C858093170180911001909182
:1013F0001101A0911201B0911301803B9440A1050D
:10140000B10579F58091170180FD11C087E797E755
:1014100090930108809300089BE088E10FB6F89450
:10142000A895809360000FBE909360001AC00FB61D
:10143000F894A89580916000886180936000109274
:1014400060000FBEA895109201081092000809C014
:10145000223059F4E0913105F09132050995882345
:1014600021F08EEF8093E80003C081E28093EB00CF
:1014700061960FB6F894DEBF0FBECDBFDF91CF915E
:10148000FF91EF91BF91AF919F918F917F916F915C
:101490005F914F913F912F911F91FF90EF900F908F
:1014A0000FBE0F901F9018958F929F92AF92BF9290
:1014B000CF92DF92EF92FF920F931F93CF93DF9320
:1014C00000D01F92CDB7DEB7382F8B018091A201DB
:1014D000882389F04A018AEFF82E832F8770E82E3F
:1014E00090E4C92E832F8072B82E2AE3D22E832F48
:1014F0008074A82E21C08FEF9FEF5FC08FB7F89444
:10150000E092E9009091E80095FF1AC09091F200F6
:101510002C2D291B8FBF211115C0FA94FF2059F3E0
:1015200061E070E080E090E039834A835B830E9451
:101530007C1039814A815B8181149104F9F634C0B1
:1015400020E0E8CF822F90E0881699060CF4282D31
:10155000822F90E0881A990A6FB7F894E092E90018
:10156000BB2029F02150A8F01092F100FBCFF80128
:1015700037FF07C0215058F074917093F1003196F5
:10158000F9CF215020F071917093F100FACF080F3C
:10159000191F8091E80085FF0DC08114910411F49A
:1015A000A11008C06FBFC8CF5D9A84E68093A003E6
:1015B000CA0103C0D092E800F5CF0F900F900F90B2
:1015C000DF91CF911F910F91FF90EF90DF90CF901F
:1015D000BF90AF909F908F9008959091A201992312
:1015E00011F057FF03C08FEF9FEF08952FB7F894C6
:1015F00087708093E9008091F20090E0841795074E
:101600000CF4AC01842FFB0194E6815030F09093F0
:101610009A033091F1003193F8CF4115510521F033
:101620008091F200882319F02FBFCA0108958BE63C
:101630008093E800F9CF1F920F920FB60F921124FA
:101640002F933F934F935F936F937F938F939F93CA
:10165000AF93BF93EF93FF93CF93DF93CDB7DEB7F5
:10166000C054D109DEBFCDBF8091E1001092E100EE
:1016700083FF0FC01092E90091E09093EB0010926D
:10168000EC0092E39093ED001092A20198E0909309
:10169000F00082FF46C083E08093E9008091F20071
:1016A000882319F08AE38093E8009FB7F89482E0DA
:1016B0008093E9008091F2009FBF882321F089E8A0
:1016C00094E00E94B50F9FB7F89485E08093E900FD
:1016D0008091F2009FBF8823C1F0809133059091E3
:1016E0003405892B91F040E450E0BE016F5F7F4FDD
:1016F00085E00E94ED0A97FD08C0E0913305F09166
:101700003405BC01CE01019609958091A003882380
:1017100041F08091A00381508093A003811101C00A
:101720005D98C05CDF4F0FB6F894DEBF0FBECDBF33
:10173000DF91CF91FF91EF91BF91AF919F918F91E9
:101740007F916F915F914F913F912F910F900FBEBD
:101750000F901F901895EF92FF920F931F93CF93C6
:10176000DF931F92CDB7DEB789838B017A0141E009
:1017700050E0BE016F5F7F4F84E00E94540AA701D2
:10178000B80184E40E94540A0F90DF91CF911F9119
:101790000F91FF90EF9008951F93CF93DF93DC019B
:1017A00011961C9111979C91953009F467C060F5D2
:1017B000923009F443C0A8F4913009F04DC1E09192
:1017C000A301F091A4012EE1129FB00111246C51EC
:1017D0007E4F028CF38DE02DCD01DF91CF911F91D3
:1017E00009949330C9F1943009F036C1E091A30116
:1017F000F091A4012EE1129FB00111246C517E4F93
:101800000488F589E02D35C09B3009F49DC038F47B
:10181000963009F441C09A3009F44CC01DC19C3087
:1018200009F4CBC0913F09F017C140E450E0BD017D
:1018300082EFDF91CF911F910C94AB0BE091A3014C
:10184000F091A4013EE1139FB00111246C517E4F31
:101850000088F189E02D0DC0E091A301F091A40171
:101860008EE1189FB00111246C517E4F0288F389DC
:10187000E02DCD01DF91CF911F910994E091A3015B
:10188000F091A4013EE1139FB00111246C517E4FF1
:101890000688F789E02DEDCFE091A301F091A40136
:1018A0008EE1189FB00111246C517E4F008CF18D98
:1018B000E02DDFCF1F3F09F41FE712969C91913076
:1018C00099F4812F0E940306E12FF0E0EA55FC4FC6
:1018D00085818111C1C0E091A301F091A40106802E
:1018E000F781E02D812F47C0923029F5C1E08C2F80
:1018F0000E946304CF5FCC30D1F7C12FD0E0CA552E
:10190000DC4F8D81811109C0E091A301F091A40108
:101910000084F185E02D8FE70995812F0E94030651
:101920008D81811199C0E091A301F091A4010680FD
:10193000F781E02D1FC0933009F08EC0812FDF9119
:10194000CF911F910C94630481E01F3FC1F48093F9
:101950000F0188E691E0E4EEF1E0DF019C011D92C9
:1019600021503040E1F7E091A301F091A4010284FD
:10197000F385E02D8FE7DF91CF911F91099480933C
:1019800030051C3008F068C03EE1139FF0011124BF
:10199000EC51FE4F108280910F01181710F4109334
:1019A0000F01E091A301F091A4010284F385E02DE1
:1019B000812F09951092B6034FC082E08093B70340
:1019C0009091B80394609093B8039091B80390619C
:1019D0009093B8031092B9031330B1F040F4113072
:1019E00079F01230C9F58091B803826033C01530A8
:1019F00071F1B0F0163081F58091B8038E7F2AC066
:101A00008091B8038D7F26C0E091A301F091A401DD
:101A10000480F581E02D80E009951092B9031CC087
:101A2000E091A301F091A4010480F581E02D81E013
:101A3000099581E080930F0188E691E0E4EEF1E002
:101A4000DF019C011D9221503040E1F705C08091DB
:101A5000B80381608093B803DF91CF911F910895FF
:101A6000DC01683810F0685825C0E62FF0E067FF09
:101A700012C0E058F10981E090E001C0880FEA95BA
:101A8000EAF7809514969C911497892314968C9369
:101A9000149760E00FC0EA58FE4F6491662311F17D
:101AA00067FF08C014968C9114978D7F14968C93C1
:101AB00014976F77FD01369686E0662321F09081BA
:101AC000961301C01082815031968111F6CFBD016D
:101AD0006C5F7F4F48E050E082E00E94AB0B81E0FA
:101AE00090E0089580E090E00895FC01168217824E
:101AF00010861186128613861482BC016C5F7F4F9C
:101B000048E050E082E00C94AB0BDC01683810F048
:101B100068582DC0E62FF0E067FF11C0E058F109CA
:101B200081E090E001C0880FEA95EAF714969C9155
:101B30001497892B14968C93149760E018C0EA5878
:101B4000FE4F6491611109C081E090E013969C936F
:101B50008E93129780E090E0089567FF08C0149676
:101B60008C911497826014968C9314976F771696C5
:101B70008C911697861751F117968C9117978617A7
:101B800029F118968C911897861701F119968C9166
:101B900019978617D9F01A968C911A978617B1F073
:101BA0001B968C911B97861789F0FD01369680E075
:101BB00090E02191211105C0FD01E80FF91F668316
:101BC00005C0019686309105A1F7BECFBD016C5FBF
:101BD0007F4F48E050E082E00E94AB0B81E090E054
:101BE0000895CF92DF92EF92FF920F931F93CF93BE
:101BF000DF936C01EB017B01E40EF51E00E010E0C9
:101C0000CE15DF0561F06991D601ED91FC9101904F
:101C1000F081E02DC6010995080F191FF1CFC80109
:101C2000DF91CF911F910F91FF90EF90DF90CF90B8
:101C3000089583E08093E9008091F200882319F0F1
:101C40008AE38093E800089520917E0430917F0418
:101C5000809180049091810428173907A9F0E091C0
:101C60008004F0918104E25CFB4F8081209180042C
:101C7000309181042F5F3F4F2F73332730938104BE
:101C80002093800490E008958FEF9FEF08952091B6
:101C90007E0430917F048091800490918104281704
:101CA000390749F0E0918004F0918104E25CFB4F38
:101CB000808190E008958FEF9FEF089580917E04DA
:101CC00090917F042091800430918104821B930BBA
:101CD0008F739927089585ED8093BC008091BC0097
:101CE00084FDFCCF10920F0408954091E903262F44
:101CF00030E0240F311D21323105DCF420910F0436
:101D00002430C9F4FC0180E090E0861758F430914B
:101D1000E9032191DC01A953BC4FA30FB11D2C9302
:101D20000196F3CF8091E903680F6093E90380E0A7
:101D3000089581E0089582E0089508958FEF9FEF60
:101D400008958FEF9FEF08958091C60390E09195DD
:101D5000819591090895CF93DF9300D0CDB7DEB779
:101D6000CB01642F49835A830E94750E4981842FC9
:101D70005A81952F0F900F90DF91CF910895CF93B7
:101D8000DF931F92CDB7DEB7698361E0CE01019684
:101D90000E94750E81E090E00F90DF91CF91089541
:101DA0000895CF93DF93FC01EB01718182818983D8
:101DB000858196819A8789872285338543815481DD
:101DC0006EE1769FC00111248C519E4FDC0150962C
:101DD0005C934E931F9756963C932E93559764E0D1
:101DE000769FD0011124AC54BE4F1D921D921D92BE
:101DF0001C921397808591859E878D8787818E831E
:101E000081E0DF91CF910895FC012281FB012783BE
:101E1000FC018381FB0180870895FC01828193810D
:101E2000FB01908F878B0895DC01FB0112968D9149
:101E30009C911397908F878B14968D919C911597F9
:101E4000948F838F16968C911697858F17968D9108
:101E50009C911897948783870895DC01FB01129663
:101E60008C91129782838281811110C015968D9179
:101E70009C911697908F878B13968D919C911497B8
:101E8000948F838F17968C9185830895828108950E
:101E9000DC01FB0112968C911297838313968C912F
:101EA0001397848314968D919C911597948B838BB3
:101EB00016968D919C911797928B818B08959EE138
:101EC000899FF0011124EC51FE4F708B6787568B70
:101ED000458B94E0899FF0011124EC54FE4F108251
:101EE0001182128213820895089508951092300588
:101EF00024E0829FC0011124FC01EC54FE4F1082AB
:101F0000118212821382089525E0FC0120838EE461
:101F100091E0089508958093300508950E947531E9
:101F20000F931F93CF93DF931F92CDB7DEB78C0132
:101F3000698380911701882359F041E050E0BE0188
:101F40006F5F7F4F83E00E94540A181619063CF019
:101F500081E090E0F8019383828380E090E00F902D
:101F6000DF91CF911F910F9108950F931F93CF93FE
:101F7000DF931F92CDB7DEB700917E0410917F04EE
:101F80000F5F1F4F0F731127809180049091810480
:101F900008171907F9F041E050E0BE016F5F7F4F6D
:101FA00082E00E94ED0A019719F4898190E002C055
:101FB0008FEF9FEF8F3F2FEF920761F0E0917E044C
:101FC000F0917F04E25CFB4F808310937F040093C9
:101FD0007E04D2CF0F90DF91CF911F910F91089582
:101FE000CF93DF9390E0FC01E851F84F2491FC017E
:101FF000E753F84F8491882361F190E0880F991F8F
:10200000FC01E355F84FC591D491FC01E554F84F1C
:10201000A591B491611109C09FB7F894888120956A
:1020200082238883EC912E230BC0623061F49FB72A
:10203000F8943881822F809583238883EC912E2B0E
:102040002C939FBF06C08FB7F894E8812E2B28836E
:102050008FBFDF91CF910895823108F08251E82F30
:10206000F0E0EF55F84FE49180917B00E3FB2227ED
:1020700020F930E095E0220F331F9A95E1F78F7D2C
:10208000282B20937B00E770E064E0937C00809134
:102090007A00806480937A0080917A0086FDFCCF7C
:1020A000809178002091790090E0922B08953FB7BD
:1020B000F89480913A0490913B04A0913C04B09133
:1020C0003D0426B5A89B05C02F3F19F00196A11D20
:1020D000B11D3FBFBA2FA92F982F8827820F911DBE
:1020E000A11DB11DBC01CD0142E0660F771F881F05
:1020F000991F4A95D1F70895CF92DF92EF92FF9200
:10210000CF93DF936B017C010E945710EB01C11448
:10211000D104E104F10479F00E9457106C1B7D0B8F
:10212000683E7340A0F381E0C81AD108E108F108C5
:10213000C851DC4FECCFDF91CF91FF90EF90DF9053
:10214000CF9008952FB7F8946091360470913704BA
:1021500080913804909139042FBF08951F920F92F7
:102160000FB60F9211242F933F938F939F93AF93AA
:10217000BF938091360490913704A0913804B091B8
:1021800039043091350423E0230F2D3720F40196D4
:10219000A11DB11D05C026E8230F0296A11DB11D8A
:1021A000209335048093360490933704A093380429
:1021B000B093390480913A0490913B04A0913C047F
:1021C000B0913D040196A11DB11D80933A049093F6
:1021D0003B04A0933C04B0933D04BF91AF919F9109
:1021E0008F913F912F910F900FBE0F901F901895D8
:1021F0001F920F920FB60F9211242F933F934F937C
:102200005F936F937F938F939F93AF93BF93EF935E
:10221000FF938091B900887F803609F49CC068F5EF
:10222000883209F45BC090F4803109F454C038F46A
:10223000882309F4F6C0883009F44DC0F6C088310F
:1022400009F44CC0803209F45DC0EFC0803409F459
:1022500068C048F4803309F455C0883309F0E5C0FC
:1022600080930E04D8C0803509F44FC0883509F436
:102270005DC0883409F0D9C0D6C0883909F4C7C018
:10228000A8F4883709F467C038F4883609F463C0C5
:10229000803709F460C0C9C0883809F4B8C08039F3
:1022A00009F45FC0803809F0C0C05BC0803B09F40E
:1022B00086C038F4803A09F466C0883A09F47FC0D1
:1022C000B4C0803C09F4A7C0883C09F4A4C0883B92
:1022D00009F48AC0AAC08091340410C090913304DC
:1022E00080913204981770F5E091330481E08E0FED
:1022F00080933304F0E0EE5EFB4F80818093BB005F
:1023000085EC86C080930E048EC0E091330481E09A
:102310008E0F809333048091BB00F0E0EE5EFB4FA4
:10232000808390913304809132046EC0E091330435
:1023300081E08E0F809333048091BB00F0E0EE5E6D
:10234000FB4F80838091110481116DC081E08093E7
:10235000100484EA61C083E080930F0410920D049E
:10236000CFCF80910D04803208F051C0E0910D0470
:1023700081E08E0F80930D048091BB00F0E0E3516B
:10238000FC4F8083BDCF85EC8093BC0010920F047E
:1023900080910D04803230F4E0910D04F0E0E351BF
:1023A000FC4F108260910D0470E0E091EB03F0911E
:1023B000EC038DEE93E0099510920D0436C084E095
:1023C00080930F041092EA031092E903E091E7036F
:1023D000F091E80309958091E903811105C081E03E
:1023E0008093E9031092C703E091EA0381E08E0F26
:1023F0008093EA03F0E0E953FC4F80818093BB00B7
:102400009091EA038091E903981708F479CF85E861
:102410008093BC000AC085EC8093BC0010920F042E
:1024200004C010920E040E946B0EFF91EF91BF91B9
:10243000AF919F918F917F916F915F914F913F915C
:102440002F910F900FBE0F901F9018952091A5010E
:102450003091A6012817390708F4C9019093890023
:102460008093880008954F925F926F927F928F922F
:102470009F92AF92BF92CF92DF92EF92FF920F9313
:102480001F93CF93DF93CDB7DEB760970FB6F89465
:10249000DEBF0FBECDBF009709F45FC38C01609112
:1024A000B30170E080E090E00E94922F2AE037EDC7
:1024B00043E25CE30E94473069837A838B839C8389
:1024C000F80180809180A280B380B7FE08C0B094EC
:1024D000A09490948094811C911CA11CB11CC501F6
:1024E000B4010E94922F6B017C016091AC0170914C
:1024F000AD0180E090E00E94902F2B013C0126E688
:1025000036E646E65FE30E94473029813A814B81F7
:102510005C810E9447306D837E838F8398879B0107
:10252000AC01C701B6010E94423087FDCAC0A301B9
:10253000920169817A818B819C810E9447306987F1
:102540007A878B879C8720E030E040E85FE30E9439
:10255000762E9B01AC01C701B6010E94E32E87FFD6
:10256000B0C06D817E818F8198850E945A2F6B014A
:102570007C01A5019401261B370B480B590BAEE3D8
:10258000B0E00E94322E4B015C0169857A858B8513
:102590009C850E945A2F9B01AC012C193D094E09C4
:1025A0005F09C501B4010E94132E69017A01FFEF92
:1025B000CF1ADF0AEF0AFF0A560161E083E00E94AA
:1025C000F00FC114D10411F480E005C08FEFC816DC
:1025D000D10421F481E00E940C178AC0EAE0F8E0FF
:1025E000E4918E2F90E0FC013197EE30F10508F078
:1025F00062C0E057FF4F0C94683184B5806884BD99
:10260000C7BC76C084B5806284BDC8BC71C08091EF
:102610008000806880938000D0928900C0928800FA
:1026200067C080918000806280938000D0928B0090
:10263000C0928A005DC08091900080688093900075
:10264000D0929900C092980053C08091900080620F
:1026500080939000D0929B00C0929A0049C08091D4
:102660009000886080939000D0929D00C0929C0062
:102670003FC08091C00080688093C0008091C000FE
:102680008F7B8093C000C092CF0032C08091C00089
:1026900080628093C000C092D0002AC08091C200A6
:1026A00088608093C2008091C2008B7F8093C200BB
:1026B000C092D2001DC0E0E8AE16B1040CF08ACF83
:1026C00083CFA301920169817A818B819C810E94D1
:1026D000473020E030E040E85FE30E94762E9B0127
:1026E000AC01C701B6010E94423087FD6DCF72CFA9
:1026F0006091AE0170E060587109072E000C880BE4
:10270000990B0E94922F20E030E04FE753E40E94A3
:10271000E82E6B017C016093C2037093C303809326
:10272000C4039093C50320E030E0A9010E94423029
:1027300087FD1DC0A701960160E070E080E89FE37F
:102740000E94762E6093BE037093BF038093C003F4
:102750009093C10380E090E0A0E8BFE38093BA03C8
:102760009093BB03A093BC03B093BD0323C020E0B0
:1027700030E0A901C701B6010E94E32E87FF1AC00D
:1027800080E090E0A0E8BFE38093BE039093BF0396
:10279000A093C003B093C1039C01AD01C701B60172
:1027A0000E94772E6093BA037093BB038093BC039F
:1027B0009093BD039091AB01F801C080D180E2807D
:1027C000F380892F807491FDE8C0811195C01C149D
:1027D0001D041E041F040CF044C04090AC01509036
:1027E000AD012091AF013091B0014901A12CB12C74
:1027F000612C712CC301B2010E94902F2091BA0369
:102800003091BB034091BC035091BD030E944730FF
:102810000E945A2F681979098A099B09A701960114
:102820000E944431A30192010E94132EDA01C901D2
:10283000880D991DAA1DBB1DF80180839183A28379
:10284000B3832D982091A5013091A60180819181BB
:102850002817390708F4C90190938B0080938A00E8
:1028600045C0C114D104E104F10409F441C0409011
:10287000AC015090AD018091AF019091B0014C013D
:10288000A12CB12CF094E094D094C094C11CD11C24
:10289000E11CF11C612C712CC301B2010E94902F2C
:1028A0002091BE033091BF034091C0035091C103FA
:1028B0000E9447300E945A2F681979098A099B099A
:1028C000A70196010E944431A30192010E94132E98
:1028D000DA01C901880D991DAA1DBB1DF80180836D
:1028E0009183A283B3830E9426122E982A9A35C11F
:1028F0002D982E982A9831C1E091AC01F091AD014C
:102900001C141D041E041F04DCF44F0196948794CC
:102910008091AF019091B001880E991EA12CB12C2D
:102920002F01612C712CC301B201681979098A0940
:102930009B09A70196010E944431A301920119C08D
:10294000C114D104E104F10411F14F01969487946C
:102950008091AF019091B001881A990AA12CB12CF5
:10296000A5019401C701B6010E9444319F0140E0D6
:1029700050E00E94132EDA01C901880D991DAA1D8D
:10298000BB1DF80180839183A283B38303C0CF0171
:10299000969587950E942612DFC0811133C0F7FCFF
:1029A00002C02A9A01C02A988091AF019091B0018B
:1029B0006C01E12CF12C8090AC019090AD01A12C28
:1029C000B12CF801208131814281538157FF07C02A
:1029D00050954095309521953F4F4F4F5F4FC50122
:1029E000B4016C197D098E099F090E944431A5012B
:1029F00094010E94132EDA01C9018C0D9D1DAE1D9C
:102A0000BF1D81C01C141D041E041F046CF520E0B2
:102A100030E040E85FE36091A7017091A8018091E8
:102A2000A9019091AA010E94772E20910401309172
:102A3000050140910601509107010E9447300E9414
:102A40005A2F4B015C01609100017091010180914E
:102A50000201909103010E945A2F681979098A098D
:102A60009B09A70196013FC0C114D104E104F10400
:102A700009F44FC02091A7013091A8014091A9010C
:102A80005091AA0160E070E080E89FE30E94762EFA
:102A900020910401309105014091060150910701F8
:102AA0000E9447300E945A2F4B015C012227332796
:102AB000A9012C193D094E095F0960910801709127
:102AC000090180910A0190910B012D873E874F8764
:102AD000588B0E945A2F681979098A099B092D85FC
:102AE0003E854F8558890E9444312091AC01309138
:102AF000AD0140E050E00E94132EDA01C901880DBB
:102B0000991DAA1DBB1DF80180839183A283B38305
:102B10000BC06091040170910501809106019091B4
:102B200007010E94612FCB010E94261260910401CF
:102B30007091050180910601909107010E94612F1B
:102B40002091A5013091A6012617370708F4B90195
:102B500070938B0060938A002E9860960FB6F8945D
:102B6000DEBF0FBECDBFDF91CF911F910F91FF90C0
:102B7000EF90DF90CF90BF90AF909F908F907F901D
:102B80006F905F904F9008956091A5017091A6019C
:102B900080E090E00E94902F9B01AC0160E07EEF0E
:102BA0008FEF96E40E94E82E08952F923F924F9265
:102BB0005F926F927F928F929F92AF92BF92CF92CD
:102BC000DF92EF92FF920F931F93CF93DF93CDB7D6
:102BD000DEB729970FB6F894DEBF0FBECDBF998739
:102BE00088874B012B831D830C831701DF82CE82E4
:102BF000042F10E08C819D816C01E12CF12CE88583
:102C0000F985F7FD2BC0C8019695982F88279795D1
:102C10008795BF01681B790B072E000C880B990B59
:102C20000E94922F2B013C01C701B6010E94902FF8
:102C30009B01AC01C301B2010E94E82E2B013C01B3
:102C4000C8019695982F8827979587959A838983A9
:102C5000EB8190E8E99FB00111242AC0B801769574
:102C6000762F662777956795E885F9856E0F7F1F24
:102C7000072E000C880B990B0E94922F2B013C0110
:102C8000C701B6010E94902F9B01AC01C301B201A4
:102C90000E94E82E2B013C0160E86003C001619FA7
:102CA000900D11249A8389832B816203B001112432
:102CB00088859985681B790B072E000C880B990B6A
:102CC0000E94922F6B017C01B10180E090E00E9494
:102CD000902F9B01AC01C701B6010E94E82E6B0149
:102CE0007C018A149B0408F43FC08E819F818A0D69
:102CF0009B1D88169906C0F50C811D810A0D1B1DB0
:102D00008016910690F4B4016A197B0980E090E086
:102D10000E94902F9B01AC01C301B2010E94473079
:102D20000E945A2F89819A811CC0821993098815A3
:102D30009905E8F48A189B08EE81FF818E1A9F0A94
:102D4000B401620D731D80E090E00E94902F9B0102
:102D5000AC01C701B6010E9447300E945A2F8885F6
:102D60009985860F971F05C080E090E002C0888596
:102D7000998529960FB6F894DEBF0FBECDBFDF91BF
:102D8000CF911F910F91FF90EF90DF90CF90BF9068
:102D9000AF909F908F907F906F905F904F903F90FB
:102DA0002F9008950F931F930E94A2106093910497
:102DB000709392048093930490939404E091890417
:102DC000F0918A040084F185E02D89E894E009956A
:102DD00097FF1FC00E94A2100091910410919204CD
:102DE0002091930430919404DC01CB01801B910B62
:102DF000A20BB30B00918D0410918E0420918F04CF
:102E00003091900480179107A207B307B8F28FEFB3
:102E10009FEF1F910F910895EAE0F8E04491EBEEE7
:102E2000F7E09491ECECF7E02491222309F44DC0F3
:102E30004423C1F150E0FA013197EE30F10590F5ED
:102E4000E256FF4F0C946831309180003F7703C009
:102E5000309180003F7D3093800024C034B53F77AF
:102E600002C034B53F7D34BD1DC0309190003F7726
:102E700007C0309190003F7D03C030919000377FB4
:102E8000309390000FC03091C0003F7703C0309165
:102E9000C0003F7D3093C00005C03091C200377F35
:102EA0003093C200E22FF0E0EE0FFF1FE554F84F21
:102EB000A591B4912FB7F894EC91811103C090952E
:102EC0009E2301C09E2B9C932FBF08959091880450
:102ED00089B18C70892B90E09C01359527953595AB
:102EE0002795209388044091840450918504609133
:102EF000860470918704FC01ED5AFE4F8081082EF4
:102F0000000C990BAA0BBB0B840F951FA61FB71FB4
:102F10008093840490938504A0938604B0938704DF
:102F2000809183040895E0918904F0918A040190CE
:102F3000F081E02D682F89E894E00994CF93DF9326
:102F40008DE00E949317EC018AE00E9493178C0F8A
:102F50009D1FDF91CF910895009769F0FC010190CA
:102F60000020E9F73197AF01481B590BBC0189E8F4
:102F700094E00C94F10D80E090E008958F929F9280
:102F8000AF92BF92EF92FF920F931F93CF93DF9375
:102F9000CDB7DEB7A1970FB6F894DEBF0FBECDBF99
:102FA000162F042F19A2423008F40AE07E0121E214
:102FB000E20EF11C802E912CA12CB12C612FA501C9
:102FC00094010E94452E029F1019112481E0E81AF5
:102FD000F1081A3014F4105D01C0195CF701108378
:102FE000122F732FCA01232B242B252B39F7C7014E
:102FF0000E94AC17A1960FB6F894DEBF0FBECDBFEE
:10300000DF91CF911F910F91FF90EF90BF90AF9004
:103010009F908F900895CF92DF92EF92FF92CF937F
:10302000DF9397FF19C06B017C018DE20E9493171B
:10303000EC0166277727CB016C197D098E099F0962
:103040004AE00E94BE178C0F9D1FDF91CF91FF9029
:10305000EF90DF90CF9008954AE0DF91CF91FF90FD
:10306000EF90DF90CF900C94BE17CF93DF93BC010D
:10307000990F880B990B0E940B18EC010E949E1768
:103080008C0F9D1FDF91CF910895682F70E080E035
:1030900090E04AE00C94BE17FF920F931F93CF93DA
:1030A000DF9300D000D0CDB7DEB70E94D216FC016E
:1030B00097FD11C08D32910591F0C0970A9778F075
:1030C000E0918904F0918A040680F781E02D89E877
:1030D00094E00995EACF60E070E0CB014CC020E0BD
:1030E00030E0A901F12CE130F105F1F0ED32F1050C
:1030F000C9F0CF01C0970A97B8F4AAE0B0E00E94E7
:10310000322E8F01FF0F220B330BDC01CB01800F1E
:10311000911FA21FB31F9C01AD012053310941092A
:10312000510902C0FF24F394E0918904F0918A04CC
:103130000680F781E02D89E894E029833A834B8368
:103140005C8309950E94D216FC01C09729813A81BF
:103150004B815C810A9738F2E130F10521F2FF20C2
:1031600041F066277727CB01621B730B840B950B0D
:1031700002C0CA01B9010F900F900F900F90DF911C
:10318000CF911F910F91FF900895CF93DF93CDB70B
:10319000DEB7C554D1090FB6F894DEBF0FBECDBF60
:1031A000789484B5826084BD84B5816084BD85B522
:1031B000826085BD85B5816085BD80916E0081602E
:1031C00080936E00109281008091810082608093D4
:1031D00081008091810081608093810080918000D6
:1031E0008160809380008091910082608093910043
:1031F0008091910081608093910080919000816026
:10320000809390008091C10084608093C100809180
:10321000C10082608093C1008091C1008160809371
:10322000C1008091C30081608093C3008091C00081
:1032300082608093C0008091C20081608093C20050
:1032400080917A00846080937A0080917A00826015
:1032500080937A0080917A00816080937A008091D7
:103260007A00806880937A001092A20181E08093B6
:10327000D70080EA8093D80082E189BD09B400FEBE
:10328000FDCF61E070E080E090E00E947C1080E97A
:103290008093D8001CE01093E2001092E00010929E
:1032A00078031092770310927D0310927E031092A0
:1032B0007F03109280031092720310927103109298
:1032C0008A0310928B0310928C0310928D0310923C
:1032D000860310928703109288031092890342E0BC
:1032E000BE01615F7F4F80E090E00E944F088F85B4
:1032F00098898A3F910509F4C1C08AEF90E09E87C2
:103300008D8742E0BE01635F7F4F80E090E00E94C6
:10331000200819821A821B821C8244E0BE016F5F62
:103320007F4F82E090E00E94200888E394E09E872F
:103330008D8742E0BE01635F7F4F86E090E00E9490
:10334000200884E6898B41E0BE016F5E7F4F88E0F4
:1033500090E00E94200841E0BE016F5E7F4F8BE04D
:1033600090E00E94200841E0BE016F5E7F4F8CE03C
:1033700090E00E94200841E0BE016F5E7F4F80E137
:1033800090E00E94200841E0BE016F5E7F4F8DE01B
:1033900090E00E94200882E3898B41E0BE016F5ECD
:1033A0007F4F89E090E00E94200841E0BE016F5EFF
:1033B0007F4F8AE090E00E94200841E0BE016F5EEE
:1033C0007F4F8EE090E00E94200886E4898B41E0E8
:1033D000BE016F5E7F4F8FE090E00E9420081E8646
:1033E0001D8642E0BE01635F7F4F81E190E00E9455
:1033F00020088FEF97E09E878D8742E0BE01635FD4
:103400007F4F83E190E00E9420088FEF9FE09E872E
:103410008D8742E0BE01635F7F4F85E190E00E94AF
:10342000200880E8898B41E0BE016F5E7F4F87E115
:1034300090E00E94200881E0898B41E0BE016F5E30
:103440007F4F88E190E00E94200880E699E0A0E0AC
:10345000B0E089839A83AB83BC8344E0BE016F5F95
:103460007F4F89E190E00E942008198B41E0BE0166
:103470006F5E7F4F8DE190E00E94200842E061EB9B
:1034800071E086E090E00E944F0844E065E573E05B
:1034900089E190E00E944F0841E063EB71E088E031
:1034A00090E00E944F0841E06CE573E089E090E015
:1034B0000E944F0841E06AE573E08AE090E00E94D4
:1034C0004F0841E06FE573E08BE090E00E944F0809
:1034D00041E06EE573E08CE090E00E944F0841E02F
:1034E0006DE573E08DE090E00E944F0841E06BE5F0
:1034F00073E08EE090E00E944F0841E060E673E0E8
:103500008FE090E00E944F0841E069E573E080E1C0
:1035100090E00E944F0841E06EEA71E087E190E0A0
:103520000E944F0841E065E873E088E190E00E9466
:103530004F0842E06FEA71E081E190E00E944F089D
:1035400042E06CEA71E083E190E00E944F0842E0C3
:1035500063E573E085E190E00E944F0841E06BEA8B
:1035600071E08DE190E00E944F088FEF9FE0909313
:103570007A038093790310927C0310927B039093DB
:1035800082038093810310928403109283039093AB
:1035900074038093730310927603109275039093D3
:1035A0006E0380936D031092700310926F0360910D
:1035B00055037091560380915703909158030E94D0
:1035C000922F20E030E044EB53E40E94E82E6B01A0
:1035D0007C018091B1019091B201BC01990F880BDF
:1035E000990B0E94922F9B01AC01C701B6010E946A
:1035F00047300E945A2F60934C0370934D03809381
:103600004E0390934F036B017C01F594E794D7949C
:10361000C794C0928E03D0928F03E0929003F092F1
:10362000910362E080E00E94F00F62E081E00E947E
:10363000F00F10928304C0928404D0928504E0922B
:103640008604F0928704109288044A9B05C08091FA
:1036500088048160809388044B9B05C08091880416
:10366000826080938804809169008F7C8061809360
:103670006900EA9A809169008F7380648093690081
:10368000EB9A60E082E10E94F00F60E083E10E942B
:10369000F00F60E084E10E94F00F60E085E10E949D
:1036A000F00F62E084E00E94F00F62E08EE00E9482
:1036B000F00F62E08FE00E94F00F62E082E00E9473
:1036C000F00F62E086E00E94F00F62E087E00E9467
:1036D000F00F62E088E00E94F00F62E085E00E9457
:1036E000F00F88E191E09093A4018093A30181EE13
:1036F00094E090933205809331058CEC9BE090939D
:10370000340580933305229A1091AB01812F0E94DA
:1037100078085C019093A6018093A5019093AD0178
:103720008093AC016091AF017091B00180E090E0B6
:103730000E94902F6B017C01B50180E090E00E9417
:10374000902F9B01AC01C701B6010E94E82E609347
:10375000A7017093A8018093A9019093AA01012F5A
:10376000017010FD05C020E030E04AEF54E404C0D1
:1037700020E030E04AE754E46091080170910901CB
:1037800080910A0190910B010E94473060930801DB
:103790007093090180930A0190930B01011105C0F8
:1037A00020E030E04AEF54E404C020E030E04AE793
:1037B00054E460910401709105018091060190919B
:1037C00007010E94473060930401709305018093C4
:1037D000060190930701011105C020E030E04AEF97
:1037E00054E404C020E030E04AE754E46091000172
:1037F0007091010180910201909103010E94473074
:103800006093000170930101809302019093030182
:10381000109280001092810010926F0016BA809171
:10382000A5019091A6019093870080938600109245
:1038300089001092880010928B0010928A0080916B
:10384000AB018274823421F480918100826003C0D4
:10385000809181008160809381008091AB0180FF25
:1038600009C08091800082608093800080918100F7
:10387000806108C080918000826080938000809188
:10388000810088618093810080E090E00E94261290
:1038900080918000806880938000259A10928B0030
:1038A00010928A0080918000806280938000269A26
:1038B00061E083E00E94F00F13E081E00E940C17AA
:1038C00064E170E080E090E00E947C1080E00E9463
:1038D0000C1764E170E080E090E00E947C101150D1
:1038E00061F71092670310926803109269031092B7
:1038F0006A0387E693E00E94331280918E039091D1
:103900008F03A0919003B0919103F8948093840465
:1039100090938504A0938604B0938704789482E002
:1039200090E090936603809365038FEF97E0909308
:103930005203809351038091AE01809350030E9403
:103940005710609392037093930380939403909322
:1039500095030E94571060939B0470939C0480937E
:103960009D0490939E0400919603109197032091DB
:103970009803309199033B014C01601A710A820A45
:10398000930A60929704709298048092990490929E
:103990009A04009192031091930320919403309123
:1039A00095034B015C01801A910AA20AB30A40ED0B
:1039B000841647E09406A104B10410F40C945D2D24
:1039C0006093920370939303809394039093950371
:1039D000F8948091840490918504A0918604B0911C
:1039E0008704789440918E0350918F0360919003E7
:1039F00070919103841B950BA60BB70B80938A03E0
:103A000090938B03A0938C03B0938D0380938603D4
:103A100090938703A0938803B09389031091850343
:103A200015FB882780F916FD826017FF02C08460AD
:103A30001DC08130D9F46A017B01C094D094E09418
:103A4000F0949A01AB012C193D094E095F09609170
:103A50007D0370917E0380917F03909180030E948B
:103A600044312FEF3FEF40E050E032C0823059F454
:103A70006A017B01C094D094E094F094A091770304
:103A8000B091780319C0833059F46A017B01C09466
:103A9000D094E094F094A0917103B09172030CC0A3
:103AA000843021F56A017B01C094D094E094F094B5
:103AB000A0916B03B0916C039A01AB012C193D09E5
:103AC0004E095F090E943D2E2FEF3FE040E050E09D
:103AD0000E94132EC20ED31EE41EF51EC092860352
:103AE000D0928703E0928803F09289038090860346
:103AF00090908703A0908803B09089038091A404DC
:103B00009091A504A091A604B091A7048092A4046A
:103B10009092A504A092A604B092A7042091AC04B0
:103B2000222309F449C00091D50454E0059F900177
:103B30001124B9016C557B4F7B01A5019401281B11
:103B4000390B4A0B5B0BCA01B9010E94922FD701B6
:103B500019966D937D938D939C931C97F02E5AE04C
:103B6000E52E60E070E0CB01B4E0FB9EF001112493
:103B7000EC55FB4F21853285438554850E94772E75
:103B8000FF2011F0FA9402C049E0F42EEA94E1100B
:103B9000EBCF20E030E040E251E40E94E82E0F5FDE
:103BA0000A3018F40093D50402C01092D5046AA715
:103BB0007EA78FA798AB0FC081E08093AC041092D2
:103BC000A8041092A9041092AA041092AB041AA699
:103BD0001EA61FA618AA2091D6043091D7044091A2
:103BE000D8045091D9048AA59EA5AFA5B8A9809301
:103BF000D6049093D704A093D804B093D9048091AD
:103C0000DE04882309F444C000912F05E4E00E9FF0
:103C1000C0011124BC0163557B4F7B016AA57EA5C1
:103C2000CD010E94762ED701D2966D937D938D9310
:103C30009C93D597F02E34E1E32E60E070E0CB0149
:103C4000B4E0FB9EF0011124E355FB4F22A933A9F8
:103C500044A955A90E94772EFF2011F0FA9402C0C2
:103C600023E1F22EEA94E110EBCF20E030E040EACD
:103C700051E40E94E82E0F5F043118F400932F05E1
:103C800002C010922F056DAB7EAB8FAB98AF0FC00B
:103C900081E08093DE041092DA041092DB0410922B
:103CA000DC041092DD041DAA1EAA1FAA18AE809182
:103CB0003005882359F110FF4DC70E94C4159B01A0
:103CC000AC0160E070E080E094E40E94E82E6B01BB
:103CD0007C016091600370E080E090E00E94922F90
:103CE0009B01AC01C701B6010E94473020E030E0E3
:103CF00048EC52E40E94E82E0E945A2FAB01C50105
:103D0000B4010E944F062B013C0127C7E8EBF1E00C
:103D1000FF8FEE8F1F8A1E8A412C512C32010E8993
:103D20001F890F5F1F4F1F8B0E8BBEE1AB2E48010B
:103D3000A89C8001A99C100D11240C511E4FD80184
:103D40008C918370833009F0F8C60E94C4156B0112
:103D50007C01F80121853285A789B08D0E946E31E2
:103D60002FEF3FE740E050E00E94132ECA01B90157
:103D70000E94922FA70196010E94E82E0E945A2FBE
:103D80009B01AC01D8011B968D919C911C970597C6
:103D900030F4E4E0F0E01C96FC93EE931B97AEE168
:103DA000AA2E8E889F88A89CF001A99CF00D112452
:103DB000EC51FE4FE1818E2F90E0FC013197ED3008
:103DC000F10508F0A4C6EA5AFF4F0C9468310E942E
:103DD000C4156A8B7B8B8C8B9D8BFEE1AF2E8E88FE
:103DE0009F88A89CC001A99C900D11248C010C51A6
:103DF0001E4F1801D80119968D909C901A975596D0
:103E0000AD90BC9056971F96CD90DC9050975196F0
:103E1000ED90FC90529753960D911C9154971496E7
:103E20002C91149713964C91139757968D919C91C2
:103E30005897EE8DFF8D608171810E94D515940198
:103E4000DC010E946E312FEF3FE740E050E00E941E
:103E5000132ECA01B9010E94922F2A893B894C89ED
:103E60005D890E94E82E0E945A2F0E9424069B0121
:103E7000AC01A0915F03B0E00E94322E24E630E056
:103E800040E050E00E94132E421A530A640A750A59
:103E90007EC10E94C4156A8B7B8B8C8B9D8B6EE1DF
:103EA000A62E8E889F88A89CF001A99CF00D112455
:103EB000EC51FE4F818492849B8E8A8EA588B688B1
:103EC000BBA2AAA2C784D088DFA2CEA2E188F288D2
:103ED000FAAAE9AA038914891DAF0CAF84809380E4
:103EE000AE8DBF8D2D903C90078510896085A78091
:103EF0000A2C000CBB08062E000C770B6A197B09F4
:103F0000CB01770FAA0BBB0B6627782F892F9A2F2F
:103F10000E94922F6B017C01B80180E090E00E942A
:103F2000902F20E030E04AE754E40E94E82E9B0105
:103F3000AC01C701B6010E94E82E6B017C01C101F2
:103F4000B8010E945431BC0180E090E00E94902FA3
:103F500020E030E04AE754E40E94E82E9B01AC01E7
:103F6000C701B6010E9447300E945A2FBA2CAA24DA
:103F7000C501860F971FAAA0BBA0CEA0DFA0E9A80D
:103F8000FAA80CAD1DAD282D492DB1010E94D51503
:103F90002A8D3B8DDC010E946E312FEF3FE740E020
:103FA00050E00E94132ECA01B9010E94922F2A8963
:103FB0003B894C895D890E94E82E0E945A2F0E94FD
:103FC0002406461A570A680A790AA1C50E94C41530
:103FD0006A8F7B8F8C8F9D8F5EE1A52E8E889F8848
:103FE000A89CC001A99C900D11248C010C511E4F5E
:103FF0001801D80119960D90BC91A02DBBA3AAA3BE
:10400000F801038CF48DE02DFFA3EEA3D8015D969B
:10401000BC91B9ABF80183849484A588B688C78421
:10402000D088E188F2880389148924814381AE8D88
:10403000BF8D0D90BC91A02DBB8BAA8B8789908DD5
:10404000BD010E94D5158C01B40180E090E00E9472
:10405000902F20E030E04AE754E40E94E82E9B01D4
:10406000AC0160E070E080E89FE30E94E82E6B0105
:104070007C018A899B89B4010E945431BC0180E093
:1040800090E00E94902F20E030E04AE754E40E9444
:10409000E82E9B01AC01C701B6010E9447306B01BD
:1040A0007C0189A8682D70E080E090E00E94902F4C
:1040B00020E030E040E85BE30E9447309B01AC0128
:1040C000C701B6010E94772E2BED3FE049EC50E48A
:1040D0000E9447300E94B4309B01AC018EA09FA08B
:1040E0006401990CEE08FF08B801110F880B990BB9
:1040F00025962FAF259726963FAF269723964FAF4D
:10410000239724965FAF24970E94922F25962FAD78
:10411000259726963FAD269723964FAD2397249655
:104120005FAD24970E9447300E945A2FCB01770F32
:10413000AA0BBB0BA7019601280F391F4A1F5B1F53
:10414000AAA1BBA10E94322E2FEF3FE740E050E032
:104150000E94132ECA01B9010E94922F2A8D3B8D15
:104160004C8D5D8D0E94E82E0E945A2F9B01AC0160
:10417000A0915E03B0E00E94322E24E630E040E0E1
:1041800050E00E94132E420E531E641E751ED10174
:1041900016968C91169782FFBAC41D966D917C91EC
:1041A0001E9780E090E00E94902F2BED3FE049ECBD
:1041B00050E40E94473020E030E040E058E30E94A5
:1041C00047300E94B4309B01AC01C301B201259677
:1041D0002FAF259726963FAF269723964FAF23976D
:1041E00024965FAF24970E94922F25962FAD259796
:1041F00026963FAD269723964FAD239724965FAD25
:1042000024970E9447300E945A2F2B013C017FC403
:104210000E94C4156A8F7B8F8C8F9D8F4EE1A42ED8
:104220008E889F88A89CF001A99CF00D1124EC5168
:10423000FE4F818492849BA28AA2238D348D4901F2
:10424000330FAA08BB088EA29FA2A8A6B9A6958C78
:1042500099AA23843484A588B688C784D088E18845
:10426000F2880389148924814381AE8DBF8D0D901E
:10427000BC91A02DBB8BAA8B8789908DBD010E941C
:10428000D515BC01990F880B990B0E94922F4B01F9
:104290005C01B10180E090E00E94902F20E030E0CE
:1042A0004AE754E40E94E82E9B01AC0160E070E014
:1042B00080E89FE30E94E82E6B017C018A899B893C
:1042C000B1010E945431BC0180E090E00E94902F27
:1042D00020E030E04AE754E40E94E82E9B01AC0164
:1042E000C701B6010E9447306B017C01B9A96B2F51
:1042F00070E080E090E00E94902F20E030E040E805
:104300005BE30E9447309B01AC01C701B6010E94EC
:10431000772E2BED3FE049EC50E40E9447300E949D
:10432000B4306B017C0120E030E0A9010E944230F2
:1043300087FF0CC020E030E0A901C701B6010E9450
:10434000E32E87FF05C0EFEFEBAF02C0F1E0FBAF5C
:10435000CBAC6C2DCC0C770B880B990B0E94922F59
:104360009B01AC01C501B4010E9447300E945A2F45
:10437000CB01770FAA0BBB0BDFC10E94C4156AA348
:104380007BA38CA39DA33EE1A32E8E889F88A89C2F
:10439000F001A99CF00D1124EC51FE4F8184928410
:1043A0009FA28EA2238D348D4901330FAA08BB082A
:1043B00089AA9AAAABAABCAA358D838494849B8AC5
:1043C0008A8AA588B688C784D088E188F28803895C
:1043D000148924814381AE8DBF8D0D90BC91A02D99
:1043E000BB8FAA8F8789908DBD0126963FAF2697F8
:1043F0000E94D5151C01B40180E090E00E94902F2E
:104400004B015C0126963FAD269760E4630F70E098
:1044100080E090E00E94902F20E030E040E85BE3F5
:104420000E944730A50194010E9447300E94612FED
:104430008A8D9B8D860F971F6A897B890E945431D4
:104440008C01BC0180E090E00E94902F20E030E0E1
:104450004AE754E40E94E82E6B017C0120E030E042
:10446000A9010E94423087FD37C020E030E04AE7D2
:1044700054E4C501B4010E94E82E6A8F7B8F8C8FB3
:104480009D8F20E030E040E05FE30E9447309B01D9
:10449000AC01C701B6010E94E32E87FF1DC0B10128
:1044A000032C000C880B990B0E94922F20E030E027
:1044B00040E850E40E9447302A8D3B8D4C8D5D8D45
:1044C0000E94E82EA70196010E9447300E945A2FB1
:1044D0003194219431084CC020E030E04AE754E4A4
:1044E000C501B4010E94E82E4B015C0120E030E0E0
:1044F00040E05FE30E9447309B01AC01C701B60179
:104500000E94423087FD39C0A5019401C701B60160
:104510000E94E32E87FF31C0B101032C000C880BF1
:10452000990B0E94922F20E030E040E850EC0E946E
:104530004730A50194010E94E82E6B017C018A8915
:104540009B8996958795B801681B790B80E090E070
:104550000E94902F20E030E04AE754E40E94E82EC9
:104560009B01AC01C701B6010E9447300E945A2F3F
:104570004101860E971E9AAE89AE89AC9AACC401F1
:10458000990CAA0BBB0B29A93AA94BA95CA9280F26
:10459000391F4A1F5B1FAEA1BFA10E94322E2FEF11
:1045A0003FE740E050E00E94132ECA01B9010E948B
:1045B000922F2AA13BA14CA15DA10E94E82E0E944E
:1045C0005A2F9B01AC01A0915E03B0E00E94322EF5
:1045D00024E630E040E050E00E94132E420E531ECD
:1045E000641E751E94C20E94C4156A8F7B8F8C8FC7
:1045F0009D8FBEE1AB2E8E889F88A89CF001A99C60
:10460000F00D1124EC51FE4F818492849BA28AA26A
:10461000238D348D4901330FAA08BB088EA29FA2B7
:10462000A8A6B9A6358D23843484A588B688C78406
:10463000D088E188F2880389148924814381AE8D72
:10464000BF8D0D90BC91A02DBB8BAA8B8789908DBF
:10465000BD0126963FAF26970E94D5158C01B1016A
:1046600080E090E00E94902F4B015C0126963FADC8
:10467000269760E8630F70E080E090E00E94902F42
:1046800020E030E040E85BE30E944730A501940160
:104690000E9447300E94612F8A899B89860F971F4D
:1046A000B1010E9454319B8B8A8B82159305E0F5F2
:1046B000B801012E000C880B990B0E94922F9B01D0
:1046C000AC010E94772E6B017C0120E030E04AE7CC
:1046D00054E4C501B4010E94E82E9B01AC01C7015E
:1046E000B6010E94E82E4B015C01CA88DB88B60146
:1046F00080E090E00E94902F20E030E04AE754E410
:104700000E94E82E9B01AC01C501B4010E94473014
:104710000E945A2F1195019511094801860E971E86
:1047200022969FAE8EAE229722968EAC9FAC229799
:10473000C401990CAA0BBB0B2EA13FA148A559A5FA
:10474000280F391F4A1F5B1FAAA1BBA10E94322E4E
:104750002FEF3FE740E050E00E94132ECA01B9015D
:104760000E94922F2A8D3B8D4C8D5D8D26CF0E940D
:10477000C4156A8F7B8F8C8F9D8FAEE1AA2E8E8899
:104780009F88A89CF001A99CF00D1124EC51FE4FCC
:10479000818492849BA28AA2238D348D4901330F98
:1047A000AA08BB088EA29FA2A8A6B9A6358D23840D
:1047B0003484A588B688C784D088E188F2880389C4
:1047C000148924814381AE8DBF8D0D90BC91A02DA5
:1047D000BB8BAA8B8789908DBD0126963FAF26970C
:1047E0000E94D5158C01B10180E090E00E94902FCD
:1047F0004B015C0126963FAD269760E8630F70E0A1
:1048000080E090E00E94902F20E030E040E85BE301
:104810000E944730A50194010E9447300E94612FF9
:104820008A899B89860F971FB1010E9454319B8B07
:104830008A8B82159305D0F566277727601B710B4D
:10484000072E000C880B990B0E94922F9B01AC0144
:104850000E94772E6B017C0120E030E04AE754E4AF
:10486000C501B4010E94E82E9B01AC01C701B6014D
:104870000E94E82E4B015C01CA88DB88B60180E00B
:1048800090E00E94902F20E030E04AE754E40E943C
:10489000E82E9B01AC01C501B4010E9447300E9483
:1048A0005A2F4801860E971E9FAE8EAE8EAC9FACDF
:1048B0003FCFEEE1AE2E8E889F88A89CF001A99C88
:1048C000F00D1124EC51FE4F038D148DA0915D036A
:1048D000B0E00E94322E20E436E040E050E00E943A
:1048E000132E69017A0120918E0330918F0340913C
:1048F000900350919103D8010E943D2EDC01CB0121
:10490000FFE0B595A79597958795FA95D1F7092E6C
:10491000000CAA0BBB0B409186035091870360915A
:104920008803709189038A019B01081B190B2A0BCC
:104930003B0BC901B801A6010E944F06460E571E47
:10494000681E791EE4C07EE1A72E8E889F88A89CF1
:10495000F001A99CF00D1124EC51FE4F038D148D34
:10496000A0915C03B0E00E94322E24E630E040E0EB
:1049700050E00E94132E69017A01B801110F880BD3
:10498000990B0E94922F2AE939EC4CEC54E40E94D6
:10499000E82E9B01AC016AA57EA58FA598A90E946F
:1049A000762EA6010E947C0763C06EE1A62E8E883B
:1049B0009F88A89CF001A99CF00D1124EC51FE4F9A
:1049C000038D148DA0915B03B0E00E94322E24E68B
:1049D00030E040E050E00E94132E69017A01B801F6
:1049E000110F880B990B0E94922F20E03EEF4FEFA2
:1049F00056E40E94E82E9B01AC016DA97EA98FA907
:104A000098AD0E94762EA6010E94140731C09EE147
:104A1000A92E8E889F88A89CF001A99CF00D1124D6
:104A2000EC51FE4F038D148DA0915A03B0E00E940B
:104A3000322E24E630E040E050E00E94132E69015F
:104A40007A01B801110F880B990B0E94922F2AE965
:104A500039EC4CEC54E40E94E82E9B01AC016AA5B1
:104A60007EA58FA598A90E94762EA6010E94930686
:104A7000092E000CAA0BBB0B480E591E6A1E7B1E8A
:104A800046C00E94C4159B01AC018EE1A82E8E8801
:104A90009F88A89CF001A99CF00D1124EC51FE4FB9
:104AA000838D948DBC01990F880B990B25962FAFA0
:104AB000259726963FAF269723964FAF23972496A8
:104AC0005FAF24970E94922F25962FAD25972696AB
:104AD0003FAD269723964FAD239724965FAD24973D
:104AE0000E94E82E0E945A2F0E9424069B01AC01CE
:104AF000A0915E03B0E00E94322E24E630E040E058
:104B000050E00E94132E421A530A640A750A0E944A
:104B1000A2100091B4011091B5012091B60130911D
:104B2000B701DC01CB01801B910BA20BB30BEE8D07
:104B3000FF8D80839183A283B3830E8D1F8D0C5FC5
:104B40001F4F1F8F0E8F2E893F892B30310509F0A3
:104B5000E6C803C0412C512C32011091850311FF8E
:104B60003EC00E94C4159B01AC01E0915C0367E468
:104B700071E0E69FC001E79F900D1124BC01990FE1
:104B8000880B990B25962FAF259726963FAF269732
:104B900023964FAF239724965FAF24970E94922FBE
:104BA00025962FAD259726963FAD269723964FAD98
:104BB000239724965FAD24970E94E82E0E945A2FD7
:104BC000AB016AA57EA58FA598A90E947C07092E36
:104BD000000CAA0BBB0B480E591E6A1E7B1E12FF4F
:104BE0003EC00E94C4159B01AC01E0915B0367E4E9
:104BF00071E0E69FC001E79F900D1124BC01990F61
:104C0000880B990B25962FAF259726963FAF2697B1
:104C100023964FAF239724965FAF24970E94922F3D
:104C200025962FAD259726963FAD269723964FAD17
:104C3000239724965FAD24970E94E82E0E945A2F56
:104C4000AB016DA97EA98FA998AD0E941407092E0A
:104C5000000CAA0BBB0B480E591E6A1E7B1E13FFCD
:104C60003EC00E94C4159B01AC01E0915A0367E469
:104C700071E0E69FC001E79F900D1124BC01990FE0
:104C8000880B990B25962FAF259726963FAF269731
:104C900023964FAF239724965FAF24970E94922FBD
:104CA00025962FAD259726963FAD269723964FAD97
:104CB000239724965FAD24970E94E82E0E945A2FD6
:104CC000AB016AA57EA58FA598A90E949306092E1F
:104CD000000CAA0BBB0B480E591E6A1E7B1E80914E
:104CE0008E0390918F03A0919003B0919103AC013A
:104CF000BD0106E075956795579547950A95D1F7DB
:104D0000841B950BA60BB70B40918603509187032C
:104D10006091880370918903CC24DD247601C81A40
:104D2000D90AEA0AFB0A4C155D056E057F0534F0C9
:104D300084179507A607B7070CF049C077FD09C08F
:104D40004A015B01881A990AAA0ABB0AD501C40163
:104D500004C0840F951FA61FB71F809386039093EE
:104D60008703A0938803B09389030E94C4159B0115
:104D7000AC0160E07EEF8FEF96E40E94E82E6B01BD
:104D80007C016091590370E080E090E00E94922FD6
:104D90009B01AC01C701B6010E94473020E030E022
:104DA00048EC52E40E94E82E0E945A2F6B017C01CD
:104DB00060918603709187038091880390918903A5
:104DC000A6010E944F06460E571E681E791EA0912E
:104DD000B301B0E0A30192010E94322E24E630E03C
:104DE00040E050E00E94132ECA01B9010E9424063F
:104DF0006B017C0114FF04C00E940B180E949E17D7
:104E0000C0926703D0926803E0926903F0926A034C
:104E100060918A0370918B0380918C0390918D0334
:104E20000E94922F6B017C0160914C0370914D03A5
:104E300080914E0390914F030E94922F9B01AC01F1
:104E400060E07FEF8FE797E40E94E82E9B01AC01C2
:104E5000C701B6010E9447300E945A2F6B017C01A6
:104E6000611570488105910534F0CC24CA94AFE7F0
:104E7000DA2EE12CF12CC11410E8D1061FEFE10667
:104E8000F10634F4C12CF0E8DF2EEE24EA94FE2C77
:104E9000C0928A03D0928B03E0928C03F0928D0330
:104EA00087E693E00E94331282E10E942C105C019D
:104EB000909378038093770384E10E942C109C01E7
:104EC000909372038093710385E125962FAF259708
:104ED00026963FAF26970E942C108C0190936C036E
:104EE00080936B0383E10E942C103C01092E000C7F
:104EF000880899086E8A7F8A888E998E40917903F6
:104F000050917A0325962FAD259726963FAD26978B
:104F1000A416B50624F4B0927A03A09279034091C6
:104F20007B0350917C034A155B0524F4B0927C030B
:104F3000A0927B034091810350918203052E000CC7
:104F4000660B770B6E887F88888C998C6416750643
:104F50008606970624F49093820380938103409100
:104F6000830350918403052E000C660B770B6E882B
:104F70007F88888C998C461557056805790524F437
:104F800090938403809383038091730390917403BF
:104F90002817390724F43093740320937303809106
:104FA0007503909176038217930724F43093760368
:104FB0002093750380916D0390916E030817190774
:104FC00024F410936E0300936D0380916F0390910E
:104FD00070038017910724F41093700300936F03FC
:104FE00020906503309066038090790390907A0357
:104FF000820C931CA40160E070E04E8F5F8F68A369
:1050000079A34090730350907403420C531C612C9D
:10501000712CC901330FAA0BBB0B9C01AD012419E4
:10502000350946095709AFEFBFE00E94322E2091A3
:105030007503309176032219330940E050E02419BA
:105040003509460957090E94132E2AA73BA74CA7EA
:105050005DA740906D0350906E03420C531C612C71
:10506000712CC801110FAA0BBB0B9C01AD012419B7
:10507000350946095709AFEFBFE00E94322E209153
:105080006F033091700322193309890120E030E069
:10509000A901980124193509460957090E94132EC0
:1050A00029013A01C501BB0CAA0BBB0B9C01AD0148
:1050B0008E8C9F8CA8A0B9A0281939094A095B09D0
:1050C000AFEFBFE00E94322E20917B0330917C0332
:1050D00022193309890120E030E0A901980128193B
:1050E00039094A095B090E94132E590121153041E3
:1050F00024F0AA24AA94EFE0BE2EB7FE02C0A12C91
:10510000B12CB0927803A09277030AA51BA50115D4
:1051100020E1120714F00FEF1FE017FF02C000E0BC
:1051200010E01093720300937103411430E15306B1
:1051300024F044244A947FE0572E57FE02C0412CAD
:10514000512C50926C0340926B03609081037090DD
:105150008203620C731C812C912C2E893F89488D0F
:10516000598D2619370948095909AFEFBFEF0E9439
:10517000322E20918303309184032219330940E0B9
:1051800050E026193709480959090E94132E2115A4
:10519000310561E04607510524F02FEF3FEF40E075
:1051A00050E057FF03C020E030E0A90120937D03C9
:1051B00030937E0340937F035093800389B182959F
:1051C0008F7091E0892790E0A0E0B0E0817099278E
:1051D000AA27BB271B9B8260199B8460499B886020
:1051E0004F9B8061669B80621C9B8064369B8068BD
:1051F00044E0880F991FAA1FBB1F4A95D1F78093DF
:10520000610390936203A0936303B093640370E817
:10521000D71AC982DA822B833C83AD82202F229554
:10522000207F2B292E8354E0169507955A95E1F798
:105230000F834886598664E0B695A795979587951C
:105240006A95D1F78A871B861C864CE050E0BE0128
:105250006F5F7F4F84E00E94AB0B80919704909129
:105260009804A0919904B0919A0480319742A105C5
:10527000B10508F422C489E894E00E945E0E181675
:1052800019060CF00AC489E894E00E94240EE82F65
:105290008FE98E0F8A3108F4E0528E2F90E0FC01E6
:1052A000E154F109EA31F10508F0F7C3ED59FF4F78
:1052B0000C9468316091B1017091B201072E000C1D
:1052C000880B990B0E940B1880E20E949317809123
:1052D000B3010E94451880E20E94931780915C03FD
:1052E0000E94451880E20E94931780915A030E9401
:1052F000451880E20E94931780915F030E94451831
:1053000080E20E94931780915E030E94451880E21C
:105310000E94931780915D030E94451880E20E94CD
:10532000931780915B030E94451880E20E949317B7
:10533000809160030E94451880E20E94931780913B
:1053400059030E94451880E20E9493176091AF01B3
:105350007091B00180E090E04AE00E94BE1780E2C8
:105360000E9493178091AE010E94451880E20E942E
:105370009317809185030E94451880E20E9493173D
:105380006091AC017091AD0180E090E04AE00E9434
:10539000BE1780E20E9493176091550370915603E7
:1053A00080915703909158030E940B1880E20E944D
:1053B00093176091AB0170E085C283E991E00E9490
:1053C000AC176AEF70E080E090E00E940B1888E96B
:1053D00091E00E94AC178AE991E00E94AC178CE939
:1053E00091E00E94AC178EE991E00E94AC1755C382
:1053F0008091A304082E000C990B4DC3F894C09023
:105400008404D0908504E0908604F090870478941A
:105410008091AC019091AD012091AF013091B0012C
:10542000821B930B9695879596958795A0E0B0E0A3
:1054300089839A83AB83BC83CE0101960E94331289
:10544000D701C6011EEFF8948090840490908504E3
:10545000A0908604B0908704789488159905AA05D1
:10546000BB0554F46CE271E080E090E00E947C1097
:105470001150D501C40139F719821A821B821C828E
:10548000CE0101960E94331280914C0390914D03FE
:10549000A0914E03B0914F03F894809384049093AD
:1054A0008504A0938604B09387047894C814D90423
:1054B000EA04FB0411F482E001C081E08093A304BC
:1054C000E8C20E944C18611101C061E06093AE0116
:1054D000E0C28FEF9FE090937A038093790310925C
:1054E0007C0310927B03909382038093810310923C
:1054F0008403109283039093740380937303109238
:1055000076031092750390936E0380936D0310924F
:10551000700310926F03BDC2F894409084045090C1
:1055200085046090860470908704789480918E033F
:1055300090918F03A0919003B0919103481A590A5A
:105540006A0A7B0A80919F049091A004A091A10413
:10555000B091A204480E591E6A1E7B1E0E944C1870
:1055600064307105810591057CF06B017C01613C23
:105570007742894091056CF010ECC12E17E2D12ED4
:1055800019E0E12EF12C05C0B4E0CB2ED12CE12C9A
:10559000F12CC982DA82EB82FC826091B1017091B8
:1055A000B201072E000C880B990B0E94922F4B0121
:1055B0005C01C301B2010E94922FA50194010E94D7
:1055C00047302B013C0160914C0370914D03809159
:1055D0004E0390914F030E94922F9B01AC01C30197
:1055E000B2010E94E82E2B013C01C0925503D092DB
:1055F0005603E0925703F0925803C701B60191C0D9
:1056000080918E0390918F03A0919003B0919103AC
:10561000F8948093840490938504A0938604B093B7
:105620008704789453C1F894809084049090850402
:10563000A0908604B0908704789480918E03909116
:105640008F03A0919003B0919103881A990AAA0A36
:10565000BB0A80919F049091A004A091A104B091F5
:10566000A204880E991EAA1EBB1E0E944C186E3101
:1056700071058105910574F06B017C0169307740FB
:105680008105910564F0A8E0CA2EA7E0DA2EE12C8E
:10569000F12C05C0FEE1CF2ED12CE12CF12CC982DA
:1056A000DA82EB82FC82C501B4010E94922F4B0189
:1056B0005C016091B1017091B201072E000C880B62
:1056C000990B0E94922F9B01AC01C501B4010E946D
:1056D00047304B015C0160914C0370914D03809108
:1056E0004E0390914F030E94922F9B01AC01C50184
:1056F000B4010E94E82E2B013C01D092B201C0926D
:10570000B101B601DD0C880B990B0E94922F4B0161
:105710005C016091550370915603809157039091FD
:1057200058030E94922F20E030E044EB53E40E94A3
:10573000E82EA50194010E9447300E945A2F6093E1
:105740004C0370934D0380934E0390934F036B0172
:105750007C01F594E794D794C794C0928E03D092BD
:105760008F03E0929003F09291030E94922F9B018D
:10577000AC01C301B2010E944730A50194010E940F
:10578000E82E0E945A2FC60ED71EE81EF91E8091E1
:105790009F049091A004A091A104B091A204C81A02
:1057A000D90AEA0AFB0AF894C0928404D0928504CC
:1057B000E0928604F092870478946BC10E944C18A2
:1057C000262F6091850380E090E030E0F901082EFB
:1057D00002C0F595E7950A94E2F7C12CD12C760129
:1057E000C394082E04C0CC0CDD1CEE1CFF1C0A94D4
:1057F000D2F7E0FF02C06C2902C0C0946C21019670
:105800008830910519F76093850370E080E090E09F
:1058100042E00E94BE170E949E173FC10E944C1892
:105820008091AB0120E030E070E0AB01022E02C0BD
:10583000559547950A94E2F7C12CD12C7601C39473
:10584000022E04C0CC0CDD1CEE1CFF1C0A94D2F707
:1058500040FF02C08C2902C0C0948C212F5F3F4FB3
:105860002830310511F78093AB0141E06BEA71E01C
:105870008DE190E00E9420088091AB010E947808A1
:10588000BC0180E090E00E94902F2091A701309110
:10589000A8014091A9015091AA010E9447300E949D
:1058A0005A2F69837A838B839C8344E0BE016F5FA8
:1058B0007F4F81E190E00E9420088091AB010E941F
:1058C0007808BC0180E090E04AE0A3CF80E090E05F
:1058D000E2C042E061EB71E086E090E00E942008C7
:1058E00044E065E573E089E190E00E94200841E032
:1058F00063EB71E088E090E00E94200841E06CE5F5
:1059000073E089E090E00E94200841E06AE573E0DE
:105910008AE090E00E94200841E06FE573E08BE0B0
:1059200090E00E94200841E06EE573E08CE090E09A
:105930000E94200841E06DE573E08DE090E00E9458
:10594000200841E06BE573E08EE090E00E942008C3
:1059500041E060E673E08FE090E00E94200841E0C3
:1059600069E573E080E190E00E94200841E06EEA82
:1059700071E087E190E00E94200841E065E873E073
:1059800088E190E00E94200842E06FEA71E081E146
:1059900090E00E94200842E06CEA71E083E190E030
:1059A0000E94200842E063E573E085E190E00E94F8
:1059B00020086FC089E894E00E94240EE82F8FE948
:1059C0008E0F8A3108F4E0528E2F90E0FC01E154F2
:1059D000F109E331F10508F060C0E358FF4F0C9482
:1059E00068310E944C186093B30153C00E944C1858
:1059F00060935F034EC00E944C1860935C0349C0E3
:105A00000E944C1860935A0344C00E944C18609343
:105A10005E033FC00E944C1860935D033AC00E9431
:105A20004C1860935B0335C00E944C186093600370
:105A300030C00E944C18609359032BC00E944C1830
:105A400070E080E090E00E94902F2FE632E143E882
:105A50005AE30E9447306B017C016093A701709369
:105A6000A8018093A9019093AA016091AC01709163
:105A7000AD0180E090E00E94902F9B01AC01C70136
:105A8000B6010E9447300E94612F7093B00160936D
:105A9000AF0181E090E00E94351880919B049091C5
:105AA0009C04A0919D04B0919E04809396039093D2
:105AB0009703A0939803B093990380E090E0892B1B
:105AC00011F40C94A91C0E9400000C94A91C1092C3
:105AD0008C0410928B0488EE93E0A0E0B0E08093F9
