:100000000C943F040C9467040C9467040C94181B24
:100010000C94F41A0C9467040C9467040C94670411
:100020000C9467040C9467040C94320C0C94D5095E
:100030000C9467040C9467040C9467040C94670494
:100040000C9467040C9467040C9467040C94670484
:100050000C9467040C9467040C9467040C94DB10F4
:100060000C9467040C9467040C9467040C94670464
:100070000C9467040C9467040C9467040C94670454
:100080000C9467040C9467040C9467040C94670444
:100090000C9425110C9467040C9467040C94670469
:1000A0000C9467040C9467040C9467048C21ED2174
:1000B0008C238A22412431267925CE2617274827EA
:1000C0007A27E827B327C231AA2D2C2E0F33262FEB
:1000D0009C32592EAB2F0F330F330F330F330F33A7
:1000E0000F33B52DB22D0F33302D2A2D0F33832C26
:1000F000012D562F0F3390304B2EC22FDA2FF22FB7
:100100000A3022303A3052300F330F330F330F336F
:100110000F330F330F330F330F330F338130A730CB
:10012000C130DB30F5300F31293143315D310F33D0
:100130000F330F330F330F330F330F330F330F33AF
:100140007731D632DB32B832BD320F33C232B332FE
:100150000F33D132E0320F330F33CC320F330F3342
:100160000F330F330F33C732320E350E280E2C0EDD
:10017000560E560E560E390E3D0E410E470E4B0EC4
:10018000560E510E2B13301335133F138913891359
:100190008913491353135D136713741389137C1365
:1001A00005A84CCDB2D44EB93836A9020C50B9913D
:1001B0008688083CA6AAAA2ABE000000803F00004C
:1001C0000000000000002A2B2800000000000000B2
:1001D00000000000000000000000000000002C9E55
:1001E000B4A0A1A2A434A6A7A5AE362D3738271EE9
:1001F0001F20212223242526B333B62EB7B89F848F
:1002000085868788898A8B8C8D8E8F909192939426
:1002100095969798999A9B9C9D2F3130A3AD350464
:1002200005060708090A0B0C0D0E0F101112131406
:1002300015161718191A1B1C1DAFB1B0B500080B05
:100240000002020201000904000001020200000590
:1002500024001001052401010104240206052406DE
:1002600000010705810310004009040100020A0093
:10027000000007050202400000070583024000005D
:10028000090402000203000000092101010001220B
:10029000E104070584034000010705050340000150
:1002A00005010904A10185040901A1000930170015
:1002B00000000027FFFF0000350047FFFF0000752A
:1002C0001095018102093116000027FFFF0000355B
:1002D0000047FFFF000075109501810209321600EA
:1002E0000027FF0F0000350047FF0F0000750C9539
:1002F000018102093316000027FF0F000035004777
:10030000FF0F0000750C95018102093416000027CB
:10031000FF0F0000350047FF0F0000750C950181AD
:10032000020939150125083500463B0165145500C1
:100330007504950181020509150025015500650028
:100340001901291875019518810285F10901150017
:1003500026FF00953F7508918285F20901953F754A
:10036000088182C0050F0992A1028502099F09A098
:1003700009A409A509A61500250135004501750147
:100380009505810295038103099415002501350027
:1003900045017501950181020922150125283501C4
:1003A0004528750795018102C00921A1028501092F
:1003B0002215012528350145287508950191020966
:1003C00025A1020926092709300931093209330913
:1003D000340940094109420943250B1501350145FE
:1003E0000B750895019100C009500954150027FFAD
:1003F000FF0000350047FFFF000066011055FD7546
:10040000109502910255006600000952150026FF62
:100410007F350046FF7F7510950191020953150144
:100420002508350145087508950191020955A10275
:100430000501093009311500250175019502910268
:10044000C0050F095695019102950591030957A121
:10045000020B01000A000B02000A0066140055FEA0
:10046000150026FF7F3500479F8C00007510950111
:1004700091025500660000C0050F09A766011055DE
:10048000FD150027FFFF0000350047FFFF00007546
:1004900010950191026600005500C0050F095AA190
:1004A0000285020922150125283501452875089580
:1004B000019102095B095D150026FF00350046FF2A
:1004C0007F750895029102095C095E66011055FD71
:1004D00026FF7F46FF7F751095029102660000554A
:1004E00000C0095FA10285030922150125283501F5
:1004F000452875089501910209231500250135004D
:1005000045017504950191020958A1020B01000AE9
:10051000000B02000A00750295029102C0096016E4
:10052000008026FF7F36008046FF7F751095019181
:1005300002096136008046FF7F9501910215002671
:10054000FF7F350046FF7F09637510950191020911
:1005500065150026FF0046FF7F750895019102C0D2
:10056000096EA102850409221501252835014528B7
:100570007508950191020970150026FF7F35004628
:10058000FF7F751095019102096F16008026FF7F8D
:1005900036008046FF7F950191020971150026FF04
:1005A00000350046670166140055007508950191F5
:1005B00002097227FFFF000047FFFF0000660110DD
:1005C00055FD7510950191026600005500C0097334
:1005D000A102850509221501252835014528750840
:1005E00095019102097016018026FF7F3601804631
:1005F000FF7F751095019102C00974A1028506095B
:100600002215012528350145287508950191020913
:100610007509761581257F36018046FF7F7508951F
:10062000029102C0050F0977A102850A092215016E
:100630002528350145287508950191020978A10200
:100640000979097A097B150125037508950191003F
:10065000C0097C150026FF00350046FF009102C04E
:100660000990A102850B092215012528350145288D
:10067000750895019102C00996A102850C09970998
:10068000980999099A099B099C15012506750895F1
:10069000019100C0097DA102850D097E150026FF8C
:1006A000003500461027750895019102C009ABA1DD
:1006B0000285050925A10209260927093009310902
:1006C000320933093409400941094209431501251A
:1006D0000B3501450B75089501B100C00501093BBB
:1006E000150026FF01350046FF01750A9501B1028C
:1006F0007506B101C0050F0989A1028506092225E9
:100700002815013501452875089501B102098BA10D
:1007100002098C098D098E250315013501450375E4
:10072000089501B100C009AC150027FFFF00003596
:100730000047FFFF000075109501B100C0097FA1BF
:10074000028507098075109501150027FFFF00003D
:10075000350047FFFF0000B102098326FF0046FF76
:100760000075089501B10209A909AA75019502153C
:1007700000250135004501B10275069501B103C0A0
:10078000C01803410072006400750069006E006FBC
:100790000020004C004C00430004030904220341E4
:1007A0000072006400750069006E006F0020004D4B
:1007B000006900630072006F00200020002000121A
:1007C00001000200000040412337800001010200C7
:1007D00001120100020200004041233780000101A4
:1007E00002000100C18081C1C007060504010008A4
:1007F0000A0B0C0D0900000000240027002A002D20
:1008000000300000000000250028002B002E0031E1
:1008100000000000002300260029002C002F000407
:100820000404040403040502020202040302020297
:100830000206060606060604040202020404040870
:1008400002011040804010204080408008020401D6
:100850008040201002011080102040402000000045
:100860000200080E0000030401000B00000000005D
:1008700000000000000000000000000029331124E7
:100880001FBECFEFDAE0DEBFCDBF11E0A0E0B1E0E8
:10089000ECE9FEE602C005900D92AC3AB107D9F73B
:1008A00025E0ACEAB1E001C01D92AB38B207E1F738
:1008B00014E0CFE3D4E004C02197FE010E943A3750
:1008C000CE33D107C9F70E94FC1D0C944C370C9411
:1008D0000000EF92FF921F93CF93DF93EC01162F4E
:1008E000E881F9810480F581E02D09957C01E8819A
:1008F000F9810680F781E02D612FCE010995C701AE
:100900009927DF91CF911F91FF90EF900895FC01FF
:1009100091818081813A29F49D7F81E0913091F429
:1009200014C0813279F49A3049F09B3019F0993033
:1009300049F40AC082818093020106C082818093BB
:10094000010102C080E0089581E008958F929F9296
:10095000AF92BF92CF92DF92EF92FF9240E050E0D1
:1009600020E0682F70E0812C912C54018394FA01CF
:100970003296DB0102C0B595A795EA95E2F77501BD
:100980006401042E04C0CC0CDD1CEE1CFF1C0A9478
:10099000D2F7A0FF02C02C2902C0C0942C214F5FC7
:1009A0005F4F4430510519F730E0220F331FF90132
:1009B000E85EFE4F80FF05C0808191819695879506
:1009C00002C080819181FF90EF90DF90CF90BF9027
:1009D000AF909F908F9008958F929F92AF92BF9209
:1009E000CF92DF92EF92FF920F931F93CF93DF93FB
:1009F000CDB7DEB729970FB6F894DEBF0FBECDBFD7
:100A000010928C0310928B03109291031092920318
:100A10001092930310929403109286031092850310
:100A200010929E0310929F031092A0031092A103B4
:100A300010929A0310929B0310929C0310929D03B4
:100A400042E0BE01695F7F4F80E090E00E946B1B37
:100A50008F8198858A3F910509F44BC18AEF90E018
:100A60009E838D8342E0BE016B5F7F4F80E090E00C
:100A70000E943C1B19821A821B821C8244E0BE0128
:100A80006F5F7F4F82E090E00E943C1B88E394E020
:100A90009E838D8342E0BE016B5F7F4F86E090E0D6
:100AA0000E943C1B84E6898741E0BE01675F7F4F5F
:100AB00088E090E00E943C1B41E0BE01675F7F4FF1
:100AC0008BE090E00E943C1B41E0BE01675F7F4FDE
:100AD0008CE090E00E943C1B41E0BE01675F7F4FCD
:100AE00080E190E00E943C1B41E0BE01675F7F4FC8
:100AF0008DE090E00E943C1B82E3898741E0BE01CB
:100B0000675F7F4F89E090E00E943C1B41E0BE019F
:100B1000675F7F4F8AE090E00E943C1B41E0BE018E
:100B2000675F7F4F8EE090E00E943C1B86E48987E0
:100B300041E0BE01675F7F4F8FE090E00E943C1B69
:100B40001E821D8242E0BE016B5F7F4F81E190E01B
:100B50000E943C1B8FEF97E09E838D8342E0BE0195
:100B60006B5F7F4F83E190E00E943C1B8FEF9FE023
:100B70009E838D8342E0BE016B5F7F4F85E190E0F5
:100B80000E943C1B8DE2898741E0BE01675F7F4F79
:100B900087E190E00E943C1B81E0898741E0BE0133
:100BA000675F7F4F88E190E00E943C1B80E699E000
:100BB000A0E0B0E089839A83AB83BC8344E0BE01AC
:100BC0006F5F7F4F89E190E00E943C1B8CE089873A
:100BD00041E0BE01675F7F4F8DE190E00E943C1BCA
:100BE000EE24EA94F12CFE82ED8242E0BE016B5FBE
:100BF0007F4F8EE190E00E943C1B0FEF11E01E83BF
:100C00000D8342E0BE016B5F7F4F80E290E00E9467
:100C10003C1B8FEF92E09E838D8342E0BE016B5FB1
:100C20007F4F82E290E00E943C1BFE82ED8242E018
:100C3000BE016B5F7F4F84E290E00E943C1B1E83ED
:100C40000D8342E0BE016B5F7F4F86E290E00E9421
:100C50003C1B1E821D8242E0BE016B5F7F4F88E21B
:100C600090E00E943C1B1E821D8242E0BE016B5F31
:100C70007F4F8AE290E00E943C1B42E0BE016B5F26
:100C80007F4F8EE290E00E943C1B42E0BE016B5F12
:100C90007F4F82E390E00E943C1B42E0BE016B5F0D
:100CA0007F4F86E390E00E943C1B8FEF93E09E8392
:100CB0008D8342E0BE016B5F7F4F8CE290E00E942B
:100CC0003C1B42E0BE016B5F7F4F80E390E00E94DF
:100CD0003C1B42E0BE016B5F7F4F84E390E00E94CB
:100CE0003C1B42E0BE016B5F7F4F88E390E00E94B7
:100CF0003C1B42E060EC71E086E090E00E946B1BE0
:100D000044E06CED74E082E090E00E946B1B44E0F4
:100D100068EB71E089E190E00E946B1B41E066ECBA
:100D200071E088E090E00E946B1B41E06EEC71E0A6
:100D300089E090E00E946B1B41E06CEC71E08AE07E
:100D400090E00E946B1B41E061ED71E08BE090E070
:100D50000E946B1B41E060ED71E08CE090E00E942E
:100D60006B1B41E06FEC71E08DE090E00E946B1B2B
:100D700041E06DEC71E08EE090E00E946B1B41E081
:100D800066E673E08FE090E00E946B1B41E067EC49
:100D900071E080E190E00E946B1B41E06CE673E043
:100DA00087E190E00E946B1B41E069E973E088E114
:100DB00090E00E946B1B42E06EEB71E081E190E0FD
:100DC0000E946B1B42E06CEB71E083E190E00E94BB
:100DD0006B1B42E061EB71E085E190E00E946B1BD0
:100DE00041E067EB71E08DE190E00E946B1B41E018
:100DF0006DE673E08EE190E00E946B1B41E06EE6D1
:100E000073E080E290E00E946B1B41E06FE673E0CC
:100E100082E290E00E946B1B41E060E773E084E2B5
:100E200090E00E946B1B41E061E773E086E290E096
:100E30000E946B1B41E062E773E088E290E00E9451
:100E40006B1B42E06DE873E08AE290E00E946B1B4E
:100E500042E06FE873E08CE290E00E946B1B42E09E
:100E600065E973E08EE290E00E946B1B42E067E967
:100E700073E080E390E00E946B1B42E067E873E060
:100E800082E390E00E946B1B42E069E873E084E338
:100E900090E00E946B1B42E061E873E086E390E023
:100EA0000E946B1B42E063E873E088E390E00E94DD
:100EB0006B1B6091B8017091B9018091BA0190915A
:100EC000BB010E94643520E030E044EB53E40E9413
:100ED000BA346B017C018091C0019091C101BC01C9
:100EE000990F880B990B0E9464359B01AC01C701D7
:100EF000B6010E9419360E942C35609377037093D7
:100F000078038093790390937A036B017C01F594C5
:100F1000E794D794C794C0929604D0929704E09235
:100F20009804F092990462E080E00E941D1062E053
:100F300081E00E941D1062E082E00E941D1010926C
:100F40009C04C0929D04D0929E04E0929F04F09273
:100F5000A0041092A1044A9B05C08091A104816065
:100F60008093A1044B9B05C08091A1048260809373
:100F7000A104809169008F7C806180936900EA9A66
:100F8000809169008F73806480936900EB9A60E0C0
:100F900082E10E941D1060E083E10E941D1060E06C
:100FA00084E10E941D106E9A60E086E00E941D1090
:100FB000249A1092AF011092AE011092C2011092C9
:100FC000C3011092C4011092C5011092AD0110929C
:100FD000B00161E08091B0040E941D1060E080913A
:100FE000B1040E941D1011E01093B20460E08091E2
:100FF000B0040E94ED0F1093B2040E94CF1060362F
:10100000794081059105C8F30E94BF1C1092D3045A
:1010100060916C0370E080E090E00E94623520E017
:1010200030E040E85EE30E9419366093B3047093A9
:10103000B4048093B5049093B60482E391E0909356
:101040007C0480937B048EE597E190936F058093F9
:101050006E058AEF95E19093710580937005229A51
:10106000F090B7018F2D0E94A6048C019093B603D7
:101070008093B5039093BD018093BC016091BE0144
:101080007091BF0180E090E00E9462354B015C01ED
:10109000B80180E090E00E9462359B01AC01C5017F
:1010A000B4010E94BA346093B3017093B401809389
:1010B000B5019093B6011F2D1170F0FC05C020E022
:1010C00030E04AEF54E404C020E030E04AE754E462
:1010D00060910301709104018091050190910601D6
:1010E0000E941936609303017093040180930501F7
:1010F00090930601111105C020E030E04AEF54E45E
:1011000004C020E030E04AE754E4609107017091A8
:1011100008018091090190910A010E94193660939B
:101120000701709308018093090190930A0111113E
:1011300005C020E030E04AEF54E404C020E030E095
:101140004AE754E460910B0170910C0180910D010C
:1011500090910E010E94193660930B0170930C015F
:1011600080930D0190930E011092800010928100E7
:1011700010926F0016BA8091B5039091B6039093C8
:101180008700809386001092890010928800109248
:101190008B0010928A008091B7018274823421F40E
:1011A00080918100826003C0809181008160809382
:1011B00081008091B70180FF09C08091800082602A
:1011C0008093800080918100806108C080918000C0
:1011D000826080938000809181008861809381008B
:1011E00080E090E00E94531280918000806880939C
:1011F0008000259A10928B0010928A0080918000C6
:10120000806280938000269A61E083E00E941D1036
:1012100013E061E083E00E94ED0F64E170E080E0A4
:1012200090E00E94A91060E083E00E94ED0F64E16D
:1012300070E080E090E00E94A910115051F71092E8
:101240007B0310927C0310927D0310927E038BE748
:1012500093E00E9460128091960490919704A0916F
:101260009804B0919904F89480939D0490939E04FF
:10127000A0939F04B093A004789410926A031092F4
:1012800069038FEF97E090936803809367038091E1
:101290006C0380936B030E9484106093A20370938D
:1012A000A3038093A4039093A50329960FB6F89403
:1012B000DEBF0FBECDBFDF91CF911F910F91FF9089
:1012C000EF90DF90CF90BF90AF909F908F90089558
:1012D000FC01CB012091E80022FFFCCF282F2150F8
:1012E00028F03091F10030833196F9CF24E6209335
:1012F000AE032BEF2093E80008950F931F93CF9335
:10130000DF93DB01A40FB51FFB016EEFEA17FB07AC
:1013100091F187FF02C0249101C020810091B203A6
:101320001091B303C091B003D091B1030C171D0706
:10133000B4F49091E8009570E1F39091E80092FD8B
:101340001CC02093F1002091B2033091B3032F5FB2
:101350003F4F2F733327232B11F46093E800209124
:10136000B2033091B3032F5F3F4F3093B303209309
:10137000B2033196CBCFCA0102C08FEF9FEFDF914E
:10138000CF911F910F91089542E450E06EE372E017
:1013900080E80E947D0940E250E060E872E080E869
:1013A0000E947D0983E090E008951F920F920FB68E
:1013B0000F921124EF92FF921F932F933F934F931D
:1013C0005F936F937F938F939F93AF93BF93EF93AD
:1013D000FF93CF93DF93CDB7DEB76197DEBFCDBF6D
:1013E0001092E9008091E80083FF59C1FE013A960E
:1013F000CF0128E02E0F2E1729F03091F100308315
:101400003196F9CF24E62093AE0322EF2093E80033
:101410002A8527FF05C03091E80030FFFCCF03C0CC
:101420003EEF3093E800322F307609F0C5C08B854F
:10143000811105C01092F1001092F10029C1982F7E
:101440009D7F913009F424C1853049F48091E800F2
:1014500080FFFCCF8C8580688093E30019C18630C3
:1014600009F07CC01D85E888F9881092E900109287
:10147000B3031092B203123091F51092B10310929F
:10148000B0030E94C40999E0BE016F5F7F4FFB016A
:10149000292F11922A95E9F799831A8391E09E8367
:1014A00090E898879AEF99872091B2033091B3031F
:1014B000275F3F4F3C832B838D831092E90010926E
:1014C000B3031092B203F092B103E092B00349E08B
:1014D00050E080E00E947D090E94C409D9C0F092CA
:1014E000B103E092B003123259F441EE54E060EAE5
:1014F00072E080E80E947D09892B09F0C9C0CCC048
:10150000113069F488899989089711F41093AF0311
:101510008091AF03811111C06FEB77E016C01330DB
:1015200009F0BAC08C85882359F0823061F081308F
:1015300009F0B2C061E877E008C061ED77E005C06E
:1015400069E977E002C06DE977E06115710509F49A
:10155000A3C0FB01449150E080E849C0873009F402
:101560009BC0883021F481E08093F10091C08930E4
:1015700009F08EC0237009F08FC080E090E031E068
:1015800026E341E0480F4093E9003093EB000196D9
:10159000FC01ED51F84FE491E093EC002093ED0055
:1015A0008530910571F78EE78093EA001092EA008A
:1015B0008C858093AC016CC0288939891092E90030
:1015C0001092B3031092B2033093B1032093B0038F
:1015D0002E85211154C08B859A85913A59F4813218
:1015E00009F05AC047E050E06FE071E080E00E94EF
:1015F0007D094EC0913209F04FC0803239F467E066
:1016000070E08FE091E00E94680942C0823209F0E8
:1016100043C08C858093160180910F019091100139
:10162000A0911101B0911201803B9440A105B10538
:1016300079F58091160180FD11C087E797E79093B7
:101640000108809300089BE088E10FB6F894A89504
:10165000809360000FBE909360001AC00FB6F8949C
:10166000A89580916000886180936000109260006E
:101670000FBEA895109201081092000809C02230F0
:1016800059F4E0916E05F0916F050995882321F0DA
:101690008EEF8093E80003C081E28093EB006196B7
:1016A0000FB6F894DEBF0FBECDBFDF91CF91FF9193
:1016B000EF91BF91AF919F918F917F916F915F91CA
:1016C0004F913F912F911F91FF90EF900F900FBE80
:1016D0000F901F9018958F929F92AF92BF92CF92CA
:1016E000DF92EF92FF920F931F93CF93DF9300D07F
:1016F0001F92CDB7DEB7382F8B018091AC018823C4
:1017000089F04A018AEFF82E832F8770E82E90E443
:10171000C92E832F8072B82E2AE3D22E832F807495
:10172000A82E21C08FEF9FEF5FC08FB7F894E09293
:10173000E9009091E80095FF1AC09091F2002C2DDD
:10174000291B8FBF211115C0FA94FF2059F361E0C6
:1017500070E080E090E039834A835B830E94A910A7
:1017600039814A815B8181149104F9F634C020E00B
:10177000E8CF822F90E0881699060CF4282D822F4E
:1017800090E0881A990A6FB7F894E092E900BB20BC
:1017900029F02150A8F01092F100FBCFF80137FF9B
:1017A00007C0215058F074917093F1003196F9CF31
:1017B000215020F071917093F100FACF080F191F9A
:1017C0008091E80085FF0DC08114910411F4A110EF
:1017D00008C06FBFC8CF5D9A84E68093B403CA0186
:1017E00003C0D092E800F5CF0F900F900F90DF91DB
:1017F000CF911F910F91FF90EF90DF90CF90BF900E
:10180000AF909F908F9008959091AC01992311F023
:1018100057FF03C08FEF9FEF08952FB7F89487709D
:101820008093E9008091F20090E0841795070CF412
:10183000AC01842FFB0194E6815030F09093AE030D
:101840003091F1003193F8CF4115510521F080918D
:10185000F200882319F02FBFCA0108958BE6809308
:10186000E800F9CF1F920F920FB60F9211242F9319
:101870003F934F935F936F937F938F939F93AF9318
:10188000BF93EF93FF93CF93DF93CDB7DEB7C054F1
:10189000D109DEBFCDBF8091E1001092E10083FF4E
:1018A0000FC01092E90091E09093EB001092EC00D1
:1018B00092E39093ED001092AC0198E09093F000C9
:1018C00082FF46C083E08093E9008091F200882384
:1018D00019F08AE38093E8009FB7F89482E0809340
:1018E000E9008091F2009FBF882321F082EA94E012
:1018F0000E94890F9FB7F89485E08093E90080915A
:10190000F2009FBF8823C1F080917005909171050E
:10191000892B91F040E450E0BE016F5F7F4F85E07E
:101920000E94040C97FD08C0E0917005F0917105CC
:10193000BC01CE01019609958091B403882341F042
:101940008091B40381508093B403811101C05D98EC
:10195000C05CDF4F0FB6F894DEBF0FBECDBFDF9186
:10196000CF91FF91EF91BF91AF919F918F917F9117
:101970006F915F914F913F912F910F900FBE0F90FC
:101980001F901895EF92FF920F931F93CF93DF93C1
:101990001F92CDB7DEB789838B017A0141E050E019
:1019A000BE016F5F7F4F84E00E946B0BA701B801FF
:1019B00084E40E946B0B0F90DF91CF911F910F91E8
:1019C000FF90EF900895DC01683810F0685825C04A
:1019D000E62FF0E067FF12C0E058F10981E090E0E7
:1019E00001C0880FEA95EAF7809514969C911497A8
:1019F000892314968C93149760E00FC0E254FE4F35
:101A00006491662311F167FF08C014968C911497B6
:101A10008D7F14968C9314976F77FD01369686E030
:101A2000662321F09081961301C010828150319677
:101A30008111F6CFBD016C5F7F4F48E050E082E03E
:101A40000E94C20C81E090E0089580E090E008954B
:101A5000FC01168217821086118612861386148264
:101A6000BC016C5F7F4F48E050E082E00C94C20CF8
:101A7000DC01683810F068582DC0E62FF0E067FFF1
:101A800011C0E058F10981E090E001C0880FEA95AB
:101A9000EAF714969C911497892B14968C931497BB
:101AA00060E018C0E254FE4F6491611109C081E00A
:101AB00090E013969C938E93129780E090E00895A7
:101AC00067FF08C014968C911497826014968C93CB
:101AD00014976F7716968C911697861751F1179673
:101AE0008C911797861729F118968C91189786175D
:101AF00001F119968C9119978617D9F01A968C9145
:101B00001A978617B1F01B968C911B97861789F050
:101B1000FD01369680E090E02191211105C0FD0184
:101B2000E80FF91F668305C0019686309105A1F77D
:101B3000BECFBD016C5F7F4F48E050E082E00E9465
:101B4000C20C81E090E00895CF92DF92EF92FF9275
:101B50000F931F93CF93DF936C01EB017B01E40E96
:101B6000F51E00E010E0CE15DF0561F06991D601A9
:101B7000ED91FC910190F081E02DC6010995080FCF
:101B8000191FF1CFC801DF91CF911F910F91FF90E5
:101B9000EF90DF90CF90089583E08093E9008091EB
:101BA000F200882319F08AE38093E80008952091D9
:101BB0007704309178048091790490917A04281701
:101BC0003907A9F0E0917904F0917A04E95CFB4FC0
:101BD00080812091790430917A042F5F3F4F2F73D9
:101BE000332730937A042093790490E008958FEF9F
:101BF0009FEF0895209177043091780480917904C3
:101C000090917A042817390749F0E0917904F0910E
:101C10007A04E95CFB4F808190E008958FEF9FEF9D
:101C200008958091770490917804209179043091FF
:101C30007A04821B930B8F739927089590E0FC011F
:101C40003197EE30F10590F5EC54FF4F0C943A3794
:101C5000809180008F7703C0809180008F7D80937A
:101C60008000089584B58F7702C084B58F7D84BDD0
:101C70000895809190008F7707C0809190008F7DAC
:101C800003C080919000877F809390000895809199
:101C9000C0008F7703C08091C0008F7D8093C0000B
:101CA00008958091C200877F8093C200089585EDDA
:101CB0008093BC008091BC0084FDFCCF109208048E
:101CC00008954091E203262F30E0240F311D213288
:101CD0003105DCF4209108042430C9F4FC0180E0D3
:101CE00090E0861758F43091E2032191DC01A05472
:101CF000BC4FA30FB11D2C930196F3CF8091E2034B
:101D0000680F6093E20380E0089581E0089582E027
:101D1000089508958FEF9FEF08958FEF9FEF089537
:101D20008091BF0390E09195819591090895CF939B
:101D3000DF9300D0CDB7DEB7CB01642F49835A8340
:101D40000E94610E4981842F5A81952F0F900F9028
:101D5000DF91CF910895CF93DF931F92CDB7DEB778
:101D6000698361E0CE0101960E94610E81E090E0FE
:101D70000F90DF91CF9108950895CF93DF93FC01E9
:101D8000EB01718182818983878190859A87898718
:101D900025853685438154816EE1769FC0011124EB
:101DA00082509E4FDC0150965C934E931F9756963F
:101DB0003C932E93559764E0769FD0011124A25353
:101DC000BE4F1D921D921D921C9213978385948580
:101DD0009E878D8782858E8381E0DF91CF910895E4
:101DE000FC012281FB012783FC018381FB018087A9
:101DF0000895FC0182819381FB01908F878B089568
:101E0000DC01FB0112968D919C911397908F878B2B
:101E100014968D919C911597948F838F16968C9123
:101E20001697858F17968D919C9118979487838725
:101E30000895DC01FB0112968C91129782838281B6
:101E4000811110C015968D919C911697908F878B5C
:101E500013968D919C911497948F838F17968C91E4
:101E60008583089582810895DC01FB0112968C918F
:101E70001297838313968C911397848314968D9174
:101E80009C911597948B838B16968D919C911797A7
:101E9000928B818B08959EE1899FF0011124E2507D
:101EA000FE4F708B6787568B458B94E0899FF001BE
:101EB0001124E253FE4F1082118212821382089580
:101EC000089508950E9447370F931F93CF93DF9390
:101ED0001F92CDB7DEB78C016983809116018823EC
:101EE00059F041E050E0BE016F5F7F4F83E00E94F8
:101EF0006B0B181619063CF081E090E0F801938313
:101F0000828380E090E00F90DF91CF911F910F913D
:101F100008950F931F93CF93DF931F92CDB7DEB732
:101F200000917704109178040F5F1F4F0F731127F2
:101F30008091790490917A0408171907F9F041E02B
:101F400050E0BE016F5F7F4F82E00E94040C01975A
:101F500019F4898190E002C08FEF9FEF8F3F2FEF40
:101F6000920761F0E0917704F0917804E95CFB4F0F
:101F700080831093780400937704D2CF0F90DF9181
:101F8000CF911F910F910895CF93DF93282F30E0C9
:101F9000F901E35AF74F8491F901E25CF74FD491CC
:101FA000F901E15EF74FC491CC2391F081110E94B9
:101FB0001E0EEC2FF0E0EE0FFF1FEF5EF74FA59126
:101FC000B491EC91ED2381E090E021F480E002C037
:101FD00080E090E0DF91CF9108951F93CF93DF933E
:101FE000282F30E0F901E35AF74F8491F901E25CC0
:101FF000F74FD491F901E15EF74FC491CC23C9F0BA
:10200000162F81110E941E0EEC2FF0E0EE0FFF1F25
:10201000ED5FF74FA591B4918FB7F894111105C0FA
:102020009C91ED2FE095E92302C0EC91ED2BEC9310
:102030008FBFDF91CF911F910895CF93DF9390E0F1
:10204000FC01E25CF74F2491FC01E15EF74F8491C3
:10205000882361F190E0880F991FFC01EB50F84F45
:10206000C591D491FC01ED5FF74FA591B491611139
:1020700009C09FB7F8948881209582238883EC91CA
:102080002E230BC0623061F49FB7F8943881822F01
:10209000809583238883EC912E2B2C939FBF06C0C1
:1020A0008FB7F894E8812E2B28838FBFDF91CF91D3
:1020B0000895823108F08251E82FF0E0E751F84F9F
:1020C000E49180917B00E3FB222720F930E095E04A
:1020D000220F331F9A95E1F78F7D282B20937B00E9
:1020E000E770E064E0937C0080917A0080648093E4
:1020F0007A0080917A0086FDFCCF80917800209153
:10210000790090E0922B08953FB7F89480913304C2
:1021100090913404A0913504B091360426B5A89B63
:1021200005C02F3F19F00196A11DB11D3FBFBA2F69
:10213000A92F982F8827820F911DA11DB11DBC01C9
:10214000CD0142E0660F771F881F991F4A95D1F78E
:102150000895CF92DF92EF92FF92CF93DF936B01BE
:102160007C010E948410EB01C114D104E104F1044C
:1021700079F00E9484106C1B7D0B683E7340A0F3C5
:1021800081E0C81AD108E108F108C851DC4FECCF52
:10219000DF91CF91FF90EF90DF90CF9008952FB710
:1021A000F89460912F0470913004809131049091E3
:1021B00032042FBF08951F920F920FB60F92112471
:1021C0002F933F938F939F93AF93BF9380912F044F
:1021D00090913004A0913104B091320430912E04DA
:1021E00023E0230F2D3720F40196A11DB11D05C05A
:1021F00026E8230F0296A11DB11D20932E04809383
:102200002F0490933004A0933104B0933204809152
:10221000330490913404A0913504B09136040196B2
:10222000A11DB11D8093330490933404A093350411
:10223000B0933604BF91AF919F918F913F912F91B1
:102240000F900FBE0F901F9018951F920F920FB610
:102250000F9211242F933F934F935F936F937F932C
:102260008F939F93AF93BF93EF93FF938091B900A8
:10227000887F803609F49CC068F5883209F45BC019
:1022800090F4803109F454C038F4882309F4F6C07E
:10229000883009F44DC0F6C0883109F44CC0803252
:1022A00009F45DC0EFC0803409F468C048F480339D
:1022B00009F455C0883309F0E5C080930704D8C0FD
:1022C000803509F44FC0883509F45DC0883409F0C1
:1022D000D9C0D6C0883909F4C7C0A8F4883709F432
:1022E00067C038F4883609F463C0803709F460C0E9
:1022F000C9C0883809F4B8C0803909F45FC0803893
:1023000009F0C0C05BC0803B09F486C038F4803A55
:1023100009F466C0883A09F47FC0B4C0803C09F46F
:10232000A7C0883C09F4A4C0883B09F48AC0AAC0AD
:1023300080912D0410C090912C0480912B0498174B
:1023400070F5E0912C0481E08E0F80932C04F0E076
:10235000E55FFB4F80818093BB0085EC86C0809356
:1023600007048EC0E0912C0481E08E0F80932C0432
:102370008091BB00F0E0E55FFB4F808390912C04DF
:1023800080912B046EC0E0912C0481E08E0F80932D
:102390002C048091BB00F0E0E55FFB4F80838091CF
:1023A0000A0481116DC081E08093090484EA61C050
:1023B00083E08093080410920604CFCF8091060436
:1023C000803208F051C0E091060481E08E0F8093C6
:1023D00006048091BB00F0E0EA51FC4F8083BDCF42
:1023E00085EC8093BC001092080480910604803232
:1023F00030F4E0910604F0E0EA51FC4F1082609165
:10240000060470E0E091E403F091E50386EE93E0CA
:1024100009951092060436C084E080930804109257
:10242000E3031092E203E091E003F091E1030995E8
:102430008091E203811105C081E08093E203109254
:10244000C003E091E30381E08E0F8093E303F0E0AB
:10245000E054FC4F80818093BB009091E303809116
:10246000E203981708F479CF85E88093BC000AC08E
:1024700085EC8093BC001092080404C010920704FD
:102480000E94570EFF91EF91BF91AF919F918F9155
:102490007F916F915F914F913F912F910F900FBE60
:1024A0000F901F9018952091B5033091B60328170F
:1024B000390708F4C9019093890080938800089532
:1024C0004F925F926F927F928F929F92AF92BF9244
:1024D000CF92DF92EF92FF920F931F93CF93DF93F0
:1024E000CDB7DEB760970FB6F894DEBF0FBECDBF95
:1024F000009709F4E8C28C016091C60170E080E0A9
:1025000090E00E9464352AE037ED43E25CE30E94EC
:10251000193669837A838B839C83F801808091804C
:10252000A280B380B7FE08C0B094A0949094809429
:10253000811C911CA11CB11CC501B4010E94643511
:102540006B017C016091BC017091BD0180E090E065
:102550000E9462352B013C0126E636E646E65FE343
:102560000E94193629813A814B815C810E9419367B
:102570006D837E838F8398879B01AC01C701B60171
:102580000E94143687FDCBC0A301920169817A8134
:102590008B819C810E94193669877A878B879C87FB
:1025A00020E030E040E85FE30E9448349B01AC014A
:1025B000C701B6010E94B53487FFB1C06D817E812D
:1025C0008F8198850E942C356B017C01A5019401B7
:1025D000261B370B480B590BAEE3B0E00E940434C6
:1025E0004B015C0169857A858B859C850E942C3521
:1025F0009B01AC012C193D094E095F09C501B401CD
:102600000E94E53369017A01FFEFCF1ADF0AEF0A72
:10261000FF0A560161E083E00E941D10C114D1043D
:1026200011F460E005C08FEFC816D10429F461E011
:1026300083E00E94ED0F8AC0E0E6F8E0E4918E2F7F
:1026400090E0FC013197EE30F10508F062C0EE53E6
:10265000FF4F0C943A3784B5806884BDC7BC76C000
:1026600084B5806284BDC8BC71C0809180008068E0
:1026700080938000D0928900C092880067C08091CA
:102680008000806280938000D0928B00C0928A008C
:102690005DC080919000806880939000D0929900F6
:1026A000C092980053C08091900080628093900007
:1026B000D0929B00C0929A0049C08091900088609F
:1026C00080939000D0929D00C0929C003FC080916A
:1026D000C00080688093C0008091C0008F7B809391
:1026E000C000C092CF0032C08091C0008062809351
:1026F000C000C092D0002AC08091C2008860809340
:10270000C2008091C2008B7F8093C200C092D20031
:102710001DC0E0E8AE16B1040CF089CF82CFA30152
:10272000920169817A818B819C810E94193620E017
:1027300030E040E85FE30E9448349B01AC01C701F0
:10274000B6010E94143687FD6CCF71CF80E090E017
:10275000A0E8BFE38093BB039093BC03A093BD03A9
:10276000B093BE038093B7039093B803A093B903CB
:10277000B093BA039091B701F801C080D180E28094
:10278000F380892F807491FDBEC081116BC01C1431
:102790001D041E041F049CF54090BC015090BD0117
:1027A0008090BE019090BF01A12CB12C612C712CA6
:1027B000C301B201681979098A099B09A701960129
:1027C0000E941637A30192010E94E533820E931EE8
:1027D000A41EB51EF80180829182A282B3822D9838
:1027E0002091B5033091B603808191812817390774
:1027F00008F4C90190938B0080938A002DC0C11406
:10280000D104E104F10451F14090BC015090BD01AC
:102810008090BE019090BF01A12CB12C612C712C35
:10282000A50194012419350946095709C701B601C4
:102830000E941637A30192010E94E533DA01C90113
:10284000880D991DAA1DBB1DF80180839183A28369
:10285000B3830E9453122E982A9A35C12D982E9830
:102860002A9831C1E091BC01F091BD011C141D04F6
:102870001E041F04DCF44F01969487948091BE01DE
:102880009091BF01880E991EA12CB12C2F01612CB3
:10289000712CC301B201681979098A099B09A70142
:1028A00096010E941637A301920119C0C114D104E8
:1028B000E104F10411F14F01969487948091BE01D7
:1028C0009091BF01881A990AA12CB12CA5019401FD
:1028D000C701B6010E9416379F0140E050E00E94F8
:1028E000E533DA01C901880D991DAA1DBB1DF80148
:1028F00080839183A283B38303C0CF01969587958C
:102900000E945312DFC0811133C0F7FC02C02A9A23
:1029100001C02A988091BE019091BF016C01E12C09
:10292000F12C8090BC019090BD01A12CB12CF8013C
:10293000208131814281538157FF07C050954095D6
:10294000309521953F4F4F4F5F4FC501B4016C1932
:102950007D098E099F090E941637A50194010E94E6
:10296000E533DA01C9018C0D9D1DAE1DBF1D81C06F
:102970001C141D041E041F046CF520E030E040E828
:102980005FE36091B3017091B4018091B5019091C2
:10299000B6010E944934209107013091080140910D
:1029A000090150910A010E9419360E942C354B01F1
:1029B0005C0160910B0170910C0180910D0190916F
:1029C0000E010E942C35681979098A099B09A70113
:1029D00096013FC0C114D104E104F10409F44FC0D1
:1029E0002091B3013091B4014091B5015091B601ED
:1029F00060E070E080E89FE30E9448342091070186
:102A0000309108014091090150910A010E94193644
:102A10000E942C354B015C0122273327A9012C1978
:102A20003D094E095F096091030170910401809195
:102A30000501909106012D873E874F87588B0E9494
:102A40002C35681979098A099B092D853E854F85A2
:102A500058890E9416372091BC013091BD0140E099
:102A600050E00E94E533DA01C901880D991DAA1DC5
:102A7000BB1DF80180839183A283B3830BC0609157
:102A80000701709108018091090190910A010E944B
:102A90003335CB010E9453126091070170910801F8
:102AA0008091090190910A010E9433352091B5036C
:102AB0003091B6032617370708F4B90170938B00DD
:102AC00060938A002E9860960FB6F894DEBF0FBE12
:102AD000CDBFDF91CF911F910F91FF90EF90DF90CD
:102AE000CF90BF90AF909F908F907F906F905F90AE
:102AF0004F90089510926D0524E0829FC00111242B
:102B0000FC01E253FE4F108211821282138208955B
:102B100025E0FC0120838EE491E0089508958093E0
:102B20006D050895CF92DF92EF92FF926091C00100
:102B30007091C101072E000C880B990B0E9464351F
:102B40006B017C0160917703709178038091790328
:102B500090917A030E9464359B01AC01C701B601D4
:102B60000E94BA34FF90EF90DF90CF9008958C30A0
:102B7000F8F4282F30E09EE1899FF0011124E25003
:102B8000FE4F90819923A1F090819D7F9083F90160
:102B9000EE57FB4F958191110BC0E0917B04F091B2
:102BA0007C040084F185E02D09951092920408952B
:102BB00008958C30F0F49EE1899FF0011124E250D9
:102BC000FE4F80818823A9F080818260808380917C
:102BD000920481110EC00E94CF106093C8017093BF
:102BE000C9018093CA019093CB0181E08093920444
:102BF000089508951F93CF93DF93DC0111961C91E4
:102C000011979C91953009F467C060F5923009F4F2
:102C100043C0A8F4913009F04DC1E0917B04F091DC
:102C20007C042EE1129FB001112462507E4F028C71
:102C3000F38DE02DCD01DF91CF911F910994933059
:102C4000C9F1943009F036C1E0917B04F0917C0425
:102C50002EE1129FB001112462507E4F0488F58945
:102C6000E02D35C09B3009F49DC038F4963009F44E
:102C700041C09A3009F44CC01DC19C3009F4CBC04E
:102C8000913F09F017C140E450E0BD0182EFDF91B0
:102C9000CF911F910C94C20CE0917B04F0917C04C5
:102CA0003EE1139FB001112462507E4F0088F189EC
:102CB000E02D0DC0E0917B04F0917C048EE1189F23
:102CC000B001112462507E4F0288F389E02DCD01BE
:102CD000DF91CF911F910994E0917B04F0917C04E6
:102CE0003EE1139FB001112462507E4F0688F789A0
:102CF000E02DEDCFE0917B04F0917C048EE1189FF4
:102D0000B001112462507E4F008CF18DE02DDFCF99
:102D10001F3F09F41FE712969C91913099F4812F7F
:102D20000E94D915E12FF0E0EE57FB4F858181110C
:102D3000C1C0E0917B04F0917C040680F781E02D16
:102D4000812F47C0923029F5C1E08C2F0E94B71522
:102D5000CF5FCC30D1F7C12FD0E0CE57DB4F8D8184
:102D6000811109C0E0917B04F0917C040084F1851D
:102D7000E02D8FE70995812F0E94D9158D81811152
:102D800099C0E0917B04F0917C040680F781E02DEE
:102D90001FC0933009F08EC0812FDF91CF911F911A
:102DA0000C94B71581E01F3FC1F48093170188E6AA
:102DB00091E0EEEFF1E0DF019C011D9221503040E7
:102DC000E1F7E0917B04F0917C040284F385E02D2F
:102DD0008FE7DF91CF911F91099480936D051C308F
:102DE00008F068C03EE1139FF0011124E250FE4F4D
:102DF000108280911701181710F410931701E091B9
:102E00007B04F0917C040284F385E02D812F0995E9
:102E1000109292044FC082E08093930490919404A6
:102E2000946090939404909194049061909394048E
:102E3000109295041330B1F040F4113079F0123053
:102E4000C9F580919404826033C0153071F1B0F0FF
:102E5000163081F5809194048E7F2AC0809194046D
:102E60008D7F26C0E0917B04F0917C040480F58185
:102E7000E02D80E00995109295041CC0E0917B0440
:102E8000F0917C040480F581E02D81E0099581E0DA
:102E90008093170188E691E0EEEFF1E0DF019C01FD
:102EA0001D9221503040E1F705C08091940481606B
:102EB00080939404DF91CF911F910895CF93DF9376
:102EC00000D000D01F92CDB7DEB7FC018181908188
:102ED000913A29F5813009F0BCC08281863051F4E5
:102EE00045E050E06DE774E080E40E947D091092B7
:102EF0007D04AFC0873009F0ACC089838FEF9FEFAE
:102F00009B838A838BE08C8383E08D8345E050E054
:102F1000BE016F5F7F4F80E40E947D099AC09132AD
:102F200009F097C0893009F094C08281853009F09A
:102F300090C064E070E0CE0101960E94680986E0CE
:102F400080937D04809117018B3021F1A0911701AE
:102F500081E08A0F809317019EE1E09117019E9F07
:102F6000F0011124E250FE4F8081882351F08091BE
:102F700017018B3030F4809117018F5F8093170118
:102F8000ECCF8EE1A89FF0011124E250FE4F81E0CA
:102F9000808301C0A0E0A0937E04A11104C082E060
:102FA00080937F0450C010926D0581E080937F0470
:102FB0008A819EE1A99FD0011124A250BE4F119693
:102FC0008C9311978FEF9FEF50969C938E931F9742
:102FD00054961C921E92539752961C921E92519791
:102FE00013968C93139714968C93149756961C9261
:102FF0001E9255971E961C921E921D9716961C9215
:1030000016978FEF9FE71A969C938E931997589671
:103010001C921E9257975C961C921E925B975D962F
:103020001C925D9788EE93E01C969C938E931B9761
:10303000E0917B04F0917C040684F785E02DBD01CE
:10304000CE01019609958FEF9FEF909381048093B5
:10305000800481E00F900F900F900F900F90DF9100
:10306000CF9108956091B5037091B60380E090E030
:103070000E9462359B01AC0160E07EEF8FEF96E429
:103080000E94BA3408952F923F924F925F926F92AE
:103090007F928F929F92AF92BF92CF92DF92EF92E8
:1030A000FF920F931F93CF93DF93CDB7DEB729978E
:1030B0000FB6F894DEBF0FBECDBF998788874B014E
:1030C0002B831D830C831701DF82CE82042F10E037
:1030D0008C819D816C01E12CF12CE885F985F7FD4F
:1030E0002BC0C8019695982F882797958795BF0183
:1030F000681B790B072E000C880B990B0E94643516
:103100002B013C01C701B6010E9462359B01AC0155
:10311000C301B2010E94BA342B013C01C80196954B
:10312000982F8827979587959A838983EB8190E8D4
:10313000E99FB00111242AC0B8017695762F662741
:1031400077956795E885F9856E0F7F1F072E000C30
:10315000880B990B0E9464352B013C01C701B60115
:103160000E9462359B01AC01C301B2010E94BA34D6
:103170002B013C0160E86003C001619F900D1124A8
:103180009A8389832B816203B001112488859985F4
:10319000681B790B072E000C880B990B0E94643575
:1031A0006B017C01B10180E090E00E9462359B01DF
:1031B000AC01C701B6010E94BA346B017C018A14CC
:1031C0009B0408F43FC08E819F818A0D9B1D881649
:1031D0009906C0F50C811D810A0D1B1D80169106F4
:1031E00090F4B4016A197B0980E090E00E94623596
:1031F0009B01AC01C301B2010E9419360E942C351B
:1032000089819A811CC08219930988159905E8F46F
:103210008A189B08EE81FF818E1A9F0AB401620D05
:10322000731D80E090E00E9462359B01AC01C701F4
:10323000B6010E9419360E942C3588859985860F23
:10324000971F05C080E090E002C088859985299687
:103250000FB6F894DEBF0FBECDBFDF91CF911F91A7
:103260000F91FF90EF90DF90CF90BF90AF909F9025
:103270008F907F906F905F904F903F902F90089528
:10328000CF92DF92EF92FF920F931F938B019C01DD
:103290004091BC015091BD016A01E12CF12C6627DF
:1032A0007727CB016C197D098E099F09061717072F
:1032B000280739074CF0C901B801C016D106E2064B
:1032C000F30614F4C701B6011F910F91FF90EF9020
:1032D000DF90CF9008958F929F92AF92BF92CF923E
:1032E000DF92EF92FF92CF93DF934B015C01EA01F3
:1032F0000E9492156B017C01DE01A50194010E94E0
:103300000F340E946435A70196010E94193620E00F
:1033100030E040E051E40E94193620E030E040E225
:1033200051E40E94193620E030E040E85BE30E945F
:1033300019360E942C350E94401990958095709501
:1033400061957F4F8F4F9F4FDF91CF91FF90EF900F
:10335000DF90CF90BF90AF909F908F9008954F9245
:103360005F926F927F928F929F92AF92BF92CF9215
:10337000DF92EF92FF92CF93DF9300D000D0CDB7D2
:10338000DEB74B015C0157FF02C04D5F5F4F6A0122
:10339000D594C794D594C7940E94921569837A8373
:1033A0008B839C839B01AC01C501B4010E9419363B
:1033B00020E030E040E251E40E9419362B013C014C
:1033C00020E030E040E85FE30E9414360D2C000C52
:1033D000EE08FF0818161CF4C701B60128C020E04B
:1033E00030E040E85FEBC301B2010E94B53487FFD3
:1033F00006C0C701B6010E944019CB011EC0C7011B
:10340000B6010E9464359B01AC01C501B4010E9464
:10341000193629813A814B815C810E94193620E05E
:1034200030E040E251E40E9419360E942C350E949F
:10343000401988279927861B970B0F900F900F90A4
:103440000F90DF91CF91FF90EF90DF90CF90BF90E2
:10345000AF909F908F907F906F905F904F90089566
:103460008F929F92AF92BF92CF92DF92EF92FF9294
:103470004B015C01BA01550F880B990B0E94643512
:103480006B017C0120E030E0A901C501B4010E947C
:103490001436A501940118160CF05058C701B60156
:1034A0000E9419366B017C010E9492159B01AC01B0
:1034B000C701B6010E94193620E030E040E851E42F
:1034C0000E94193620E030E040E251E40E941936B3
:1034D00020E030E040E05DE30E9419360E942C3588
:1034E0000E9440196B017C0120E030E0A901C50178
:1034F000B4010E94143618162CF4882799278C19C9
:103500009D090DC020E030E0A901C501B4010E9471
:10351000B53487FF02C0C60102C080E090E0FF9092
:10352000EF90DF90CF90BF90AF909F908F900895D5
:10353000CF92DF92EF92FF92CF93DF936B017C01EA
:10354000EA0120E030E0A9010E941436181694F038
:1035500020E030E0A901C701B6010E94B53487FF21
:103560003AC020E030E0A901C701B6010E94493409
:103570006B017C01BE01DD0F880B990B0E94643545
:103580009B01AC01C701B6010E9419366B017C0199
:103590000E9492159B01AC01C701B6010E94193629
:1035A00020E030E040E851E40E94193620E030E0AD
:1035B00040E251E40E94193620E030E040E05BE355
:1035C0000E9419360E942C350E944019882799279D
:1035D000861B970B02C080E090E0DF91CF91FF90B7
:1035E000EF90DF90CF9008951F920F920FB60F9239
:1035F00011242F933F934F935F936F937F938F93F8
:103600009F93AF93BF93EF93FF930E94E01BFF91B3
:10361000EF91BF91AF919F918F917F916F915F914A
:103620004F913F912F910F900FBE0F901F901895C3
:103630001F920F920FB60F9211242F933F934F9327
:103640005F936F937F938F939F93AF93BF93EF930A
:10365000FF930E94E01BFF91EF91BF91AF919F916B
:103660008F917F916F915F914F913F912F910F902B
:103670000FBE0F901F901895CF92DF92EF92FF929E
:103680000F931F93CF93DF931F92CDB7DEB7F82E22
:10369000E42E8B01C82ED92E8C2D8F198E1588F40F
:1036A000F80161918F01C60169830E94CF3369815E
:1036B000681719F0C6010E94D733FFEFCF1ADF0A4F
:1036C000EBCF0F90DF91CF911F910F91FF90EF9073
:1036D000DF90CF900895CF92DF92EF92FF920F93F9
:1036E0001F93CF93DF931F92CDB7DEB78B016B0192
:1036F0007C01E61AF70A9C2D901B941758F4C70119
:103700008C0D9D1D49830E94CF33F60181936F017B
:103710004981F1CF0F90DF91CF911F910F91FF90D1
:10372000EF90DF90CF900895009769F0FC01019031
:103730000020E9F73197AF01481B590BBC0182EA21
:1037400094E00C94A40D80E090E008950F931F93F3
:103750000E94CF106093AA047093AB048093AC04D2
:103760009093AD04E091A204F091A3040084F1854C
:10377000E02D82EA94E0099597FF1FC00E94CF10C8
:103780000091AA041091AB042091AC043091AD04D7
:10379000DC01CB01801B910BA20BB30B0091A604A3
:1037A0001091A7042091A8043091A90480179107D3
:1037B000A207B307B8F28FEF9FEF1F910F91089503
:1037C0008091A10429B1922F9C70892B90E0AC01CB
:1037D00055954795559547954093A10440919D0473
:1037E00050919E0460919F047091A004FC01ED5AD9
:1037F000FE4F8081082E000C990BAA0BBB0B840F87
:10380000951FA61FB71F80939D0490939E04A093BD
:103810009F04B093A00480919C04811119C021FFE2
:1038200017C081E080939C0480939A048093E00405
:103830008091960490919704A0919804B091990476
:1038400080939D0490939E04A0939F04B093A00442
:103850000895CF92DF92EF92FF92CF931092D2040D
:10386000C0E0C12CD12C76018091B20490E0479643
:103870002C2F30E082179307ECF061E08091B004C8
:103880000E94ED0FC83178F48091B1040E94C40FFA
:10389000CC0CDD1CEE1CFF1C882329F08FEFC81A0E
:1038A000D80AE80AF80A60E08091B0040E94ED0F9F
:1038B000CF5FDACF80E8E8268091C7049091C804F2
:1038C0008130910529F41092C8041092C70405C0F4
:1038D00001969093C8048093C704C114D104E104F5
:1038E000F10409F446C09091D20481E0890F8093DD
:1038F000D204E091C704F091C804EE0FFF1FEE0F51
:10390000FF1FE055FB4FC782D086E186F28680918B
:10391000D004882371F18091CE04823038F1C090B8
:10392000B704D090B804E090B904F090BA04409184
:10393000BB045091BC046091BD047091BE044C0D59
:103940005D1D6E1D7F1D4093C3045093C40460939E
:10395000C5047093C6041092CE041092D00481E086
:103960008093D3049E5F9093D20403C08F5F8093B3
:10397000CE04CF91FF90EF90DF90CF90089581E03B
:103980008093D0041092CE048091B1040E94C40FA1
:10399000811103C00E94291C02C01092D2048091A0
:1039A000D204823089F70895E091A204F091A30433
:1039B0000190F081E02D682F82EA94E00994CF9382
:1039C000DF938DE00E94D41CEC018AE00E94D41C9D
:1039D0008C0F9D1FDF91CF9108958F929F92AF9290
:1039E000BF92EF92FF920F931F93CF93DF93CDB7C8
:1039F000DEB7A1970FB6F894DEBF0FBECDBF162F6E
:103A0000042F19A2423008F40AE07E0121E2E20EFE
:103A1000F11C802E912CA12CB12C612FA5019401B9
:103A20000E941734029F1019112481E0E81AF1084E
:103A30001A3014F4105D01C0195CF7011083122FC5
:103A4000732FCA01232B242B252B39F7C7010E9482
:103A5000941BA1960FB6F894DEBF0FBECDBFDF91C9
:103A6000CF911F910F91FF90EF90BF90AF909F90DB
:103A70008F900895CF92DF92EF92FF92CF93DF93D2
:103A800097FF19C06B017C018DE20E94D41CEC01F0
:103A900066277727CB016C197D098E099F094AE0BB
:103AA0000E94ED1C8C0F9D1FDF91CF91FF90EF9036
:103AB000DF90CF9008954AE0DF91CF91FF90EF9093
:103AC000DF90CF900C94ED1CCF93DF93BC01990F46
:103AD000880B990B0E943A1DEC010E94DF1C8C0F91
:103AE0009D1FDF91CF910895BC01990F880B990B11
:103AF0000C943A1D682F70E080E090E04AE00C944E
:103B0000ED1C0C94941BFF920F931F93CF93DF93A4
:103B100000D000D0CDB7DEB70E94A61BFC0197FDF8
:103B200011C08D32910591F0C0970A9778F0E0911D
:103B3000A204F091A3040680F781E02D82EA94E0CC
:103B40000995EACF60E070E0CB014CC020E030E0A6
:103B5000A901F12CE130F105F1F0ED32F105C9F0E8
:103B6000CF01C0970A97B8F4AAE0B0E00E940434ED
:103B70008F01FF0F220B330BDC01CB01800F911F54
:103B8000A21FB31F9C01AD01205331094109510906
:103B900002C0FF24F394E091A204F091A3040680F4
:103BA000F781E02D82EA94E029833A834B835C839A
:103BB00009950E94A61BFC01C09729813A814B817F
:103BC0005C810A9738F2E130F10521F2FF2041F0E3
:103BD00066277727CB01621B730B840B950B02C002
:103BE000CA01B9010F900F900F900F90DF91CF9104
:103BF0001F910F91FF900895CF93DF93CDB7DEB75C
:103C0000ED970FB6F894DEBF0FBECDBF789484B5A4
:103C1000826084BD84B5816084BD85B5826085BDC8
:103C200085B5816085BD80916E00816080936E0056
:103C30001092810080918100826080938100809148
:103C400081008160809381008091800081608093F9
:103C5000800080919100826080939100809191001A
:103C600081608093910080919000816080939000AA
:103C70008091C10084608093C1008091C100826006
:103C80008093C1008091C10081608093C1008091C8
:103C9000C30081608093C3008091C00082608093E4
:103CA000C0008091C20081608093C20080917A0040
:103CB000846080937A0080917A00826080937A0099
:103CC00080917A00816080937A0080917A00806888
:103CD00080937A001092AC0181E08093D70080EA53
:103CE0008093D80082E189BD09B400FEFDCF61E078
:103CF00070E080E090E00E94A91080E98093D800F5
:103D00008CE08093E2001092E0000E94EC040E949C
:103D100084106093D8047093D9048093DA0490934C
:103D2000DB040091AA031091AB032091AC03309106
:103D3000AD036B017C01C01AD10AE20AF30AC092FA
:103D4000D404D092D504E092D604F092D704009126
:103D5000A2031091A3032091A4033091A5036B014A
:103D60007C01C01AD10AE20AF30A40EDC41647E00A
:103D7000D406E104F10410F40C941F336093A20301
:103D80007093A3038093A4039093A503E2E210929F
:103D9000B0018091AE019091AF01829774F01092C2
:103DA000AF011092AE011092C2011092C3011092A5
:103DB000C4011092C5011092AD018091AE019091A5
:103DC000AF018230910564F4892B09F42C9A80911B
:103DD000AE019091AF01019709F045C02C9843C006
:103DE0009C012170332780FD3AC099B1991F992712
:103DF000991F9093B0018091AD01803258F54091A8
:103E0000C2015091C3016091C4017091C50101E0EC
:103E100010E020E030E0082E04C0000F111F221F28
:103E2000331F0A94D2F7992329F0402B512B622B90
:103E3000732B08C000951095209530954023512391
:103E4000622373234093C2015093C3016093C40162
:103E50007093C5018F5F8093AD01769A04C02130C5
:103E6000310509F476988091AE019091AF010196E9
:103E70009093AF018093AE01E15009F088CF80911B
:103E80009A04882319F1F89480919D0490919E04DE
:103E9000A0919F04B091A004789440919604509111
:103EA00097046091980470919904841B950BA60B5C
:103EB000B70B4091DC045091DD046091DE047091F9
:103EC000DF04840F951FA61FB71F16C0F8948091BA
:103ED0009D0490919E04A0919F04B091A0047894B9
:103EE00040919604509197046091980470919904C0
:103EF000841B950BA60BB70B80939E0390939F0397
:103F0000A093A003B093A10380919E0390919F037F
:103F1000A091A003B091A10380939A0390939B0377
:103F2000A0939C03B0939D031091990315FB8827E0
:103F300080F916FD826017FF02C0846025C08130C1
:103F400019F58091960490919704A0919804B091EE
:103F500099046C017D01C094D094E094F0949C018C
:103F6000AD012C193D094E095F09609191037091D3
:103F7000920380919303909194030E9416372FEF40
:103F80003FEF40E050E04AC0823099F440919604FF
:103F90005091970460919804709199046A017B0193
:103FA000C094D094E094F094A0918B03B0918C03D2
:103FB00029C0833099F44091960450919704609100
:103FC0009804709199046A017B01C094D094E094A4
:103FD000F094A0918503B091860314C0843061F5FC
:103FE00040919604509197046091980470919904BF
:103FF0006A017B01C094D094E094F094A0917F0377
:10400000B09180039A01AB012C193D094E095F095B
:104010000E940F342FEF3FE040E050E00E94E53374
:10402000C20ED31EE41EF51EC0929A03D0929B03CB
:10403000E0929C03F0929D0380909A0390909B03E2
:10404000A0909C03B0909D038091E1049091E204C4
:10405000A091E304B091E4048092E1049092E20420
:10406000A092E304B092E4042091E904222309F42D
:1040700049C00091120554E0059F90011124B90137
:104080006F517B4F7B01A5019401281B390B4A0B13
:104090005B0BCA01B9010E946435D70119966D9373
:1040A0007D938D939C931C97F02E3AE0E32E60E075
:1040B00070E0CB01B4E0FB9EF0011124EF51FB4F07
:1040C00021853285438554850E944934FF2011F0B3
:1040D000FA9402C029E0F22EEA94E110EBCF20E03E
:1040E00030E040E251E40E94BA340F5F0A3018F425
:1040F0000093120502C0109212056DA37EA38FA338
:1041000098A70FC081E08093E9041092E504109213
:10411000E6041092E7041092E8041DA21EA21FA25A
:1041200018A6209113053091140540911505509162
:1041300016058DA19EA1AFA1B8A5809313059093FC
:104140001405A0931505B093160580911B058823CF
:1041500009F444C000916C05E4E00E9FC0011124F5
:10416000BC0166517B4F7B016DA17EA1CD010E94F8
:104170004834D701D2966D937D938D939C93D597B8
:10418000F02EB4E1EB2E60E070E0CB01B4E0FB9EDA
:10419000F0011124E651FB4F22A933A944A955A9E6
:1041A0000E944934FF2011F0FA9402C0A3E1FA2ED4
:1041B000EA94E110EBCF20E030E040EA51E40E94C5
:1041C000BA340F5F043118F400936C0502C01092EA
:1041D0006C056DA77EA78FA798AB0FC081E0809379
:1041E0001B051092170510921805109219051092D0
:1041F0001A051DA61EA61FA618AA80916D05882364
:1042000059F110FF08C70E9432189B01AC0160E011
:1042100070E080E094E40E94BA346B017C0160910C
:10422000660370E080E090E00E9464359B01AC0181
:10423000C701B6010E94193620E030E048EC52E494
:104240000E94BA340E942C35AB01C501B4010E9412
:104250006B192B013C01E2C6E2EDF1E0FA8FE98F28
:104260001E861D86412C512C32010D851E850F5F47
:104270001F4F1E870D874EE19801429F8001439F8B
:10428000100D112402501E4FD8018C918370833081
:1042900009F0B4C60E9432186B017C01F801218537
:1042A0003285A789B08D0E9440372FEF3FE740E06D
:1042B00050E00E94E533CA01B9010E946435A701AC
:1042C00096010E94BA340E942C359B01AC01D801A2
:1042D0001B968D919C911C97059730F4E4E0F0E0DB
:1042E0001C96FC93EE931B97FEE1EF2ECD84DE84AB
:1042F000EC9CF001ED9CF00D1124E250FE4FE181A9
:104300008E2F90E0FC013197ED30F10508F060C68A
:10431000EA5AFF4F0C943A370E943218698B7A8B15
:104320008B8B9C8B2EE10D851E85209FC001219FCC
:10433000900D1124AC0142505E4F1A01DA0119961A
:104340008D909C901A975596AD90BC9056971F965D
:10435000CD90DC9050975196ED90FC9052975396EB
:104360000D911C91549714962C91149713964C917F
:10437000139757968D919C915897E98DFA8D60818E
:1043800071810E9443189401DC010E9440372FEF95
:104390003FE740E050E00E94E533CA01B9010E94C6
:1043A000643529893A894B895C890E94BA340E9414
:1043B0002C350E9440199B01AC01A091D101B0E0C5
:1043C0000E94043424E630E040E050E00E94E533EF
:1043D000421A530A640A750A6EC10E943218698B28
:1043E0007A8B8B8B9C8B5EE1E52ECD84DE84EC9CFE
:1043F000F001ED9CF00D1124E250FE4F0185128575
:104400001E8B0D8BC588D688DE8ECD8EE784F08816
:10441000FAA2E9A2018912891AA709A703891489B6
:104420001DAB0CAB84809380A98DBA8D2D903C90F0
:10443000078510896085A7800A2C000CBB08062E12
:10444000000C770B6A197B09CB01770FAA0BBB0B0A
:104450006627782F892F9A2F0E9464356B017C0183
:10446000B80180E090E00E94623520E030E04AE749
:1044700054E40E94BA349B01AC01C701B6010E940A
:10448000BA346B017C01C101B8010E942637BC011E
:1044900080E090E00E94623520E030E04AE754E49A
:1044A0000E94BA349B01AC01C701B6010E941936C3
:1044B0000E942C35BA2CAA24C501860F971FAD8CFB
:1044C000BE8CC9A0DAA0E9A4FAA40CA91DA9282DC4
:1044D000492DB1010E9443182D893E89DC010E94BB
:1044E00040372FEF3FE740E050E00E94E533CA013C
:1044F000B9010E94643529893A894B895C890E94F7
:10450000BA340E942C350E944019461A570A680A8C
:10451000790A5EC50E9432186D8B7E8B8F8B988FC7
:104520004EE1C42EED85FE85CE9EC001CF9E900D3E
:1045300011248C0102501E4F1801D80119960D90BC
:10454000BC91A02DBE8FAD8FF801038CF48DE02DB2
:10455000FAA3E9A3D8015D96BC91B9A7F8018384B9
:104560009484A588B688C784D088E188F2880389B6
:10457000148924814381A98DBA8D0D90BC91A02D01
:10458000BA8BA98B8789908DBD010E9443188C013D
:10459000B40180E090E00E94623520E030E04AE71C
:1045A00054E40E94BA349B01AC0160E070E080E802
:1045B0009FE30E94BA346B017C0189899A89B40116
:1045C0000E942637BC0180E090E00E94623520E026
:1045D00030E04AE754E40E94BA349B01AC01C701C1
:1045E000B6010E9419366B017C01B9A56B2F70E0F2
:1045F00080E090E00E94623520E030E040E85BE33C
:104600000E9419369B01AC01C701B6010E944934D2
:104610002BED3FE049EC50E40E9419360E948636AB
:104620009B01AC01E9A1FAA16F01FF0FEE08FF08A1
:10463000B801110F880B990B2AAF3DAF4BAF5CAFA0
:104640000E9464352AAD3DAD4BAD5CAD0E9419367C
:104650000E942C35CB01770FAA0BBB0BA70196014B
:10466000280F391F4A1F5B1FAD8DBE8D0E94043479
:104670002FEF3FE740E050E00E94E533CA01B90167
:104680000E9464352D893E894F89588D0E94BA3425
:104690000E942C359B01AC01A091D001B0E00E949A
:1046A000043424E630E040E050E00E94E533420E5E
:1046B000531E641E751ED10116968C91169782FFAB
:1046C00087C41D966D917C911E9780E090E00E94BA
:1046D00062352BED3FE049EC50E40E94193620E0B2
:1046E00030E040E058E30E9419360E9486369B0174
:1046F000AC01C301B2012AAF3DAF4BAF5CAF0E942A
:1047000064352AAD3DAD4BAD5CAD0E9419360E94BB
:104710002C352B013C015CC40E9432186D8B7E8BC2
:104720008F8B988F3EE1E32ECD84DE84EC9CF001EC
:10473000ED9CF00D1124E250FE4F018512851E8F75
:104740000D8F238D348DA901330F660B770B49A391
:104750005AA36BA37CA3558D59A723843484A588C1
:10476000B688C784D088E188F288038914892481B7
:104770004381A98DBA8D0D90BC91A02DBA8BA98BC8
:104780008789908DBD010E944318BC01990F880B49
:10479000990B0E9464354B015C01B10180E090E00F
:1047A0000E94623520E030E04AE754E40E94BA34C7
:1047B0009B01AC0160E070E080E89FE30E94BA34A6
:1047C0006B017C0189899A89B1010E942637BC015D
:1047D00080E090E00E94623520E030E04AE754E457
:1047E0000E94BA349B01AC01C701B6010E94193680
:1047F0006B017C01B9A56B2F70E080E090E00E9416
:10480000623520E030E040E85BE30E9419369B010E
:10481000AC01C701B6010E9449342BED3FE049ECE1
:1048200050E40E9419360E9486366B017C0120E01C
:1048300030E0A9010E94143687FF0CC020E030E070
:10484000A901C701B6010E94B53487FF05C0EFEF8B
:10485000EBAB02C0F1E0FBABCBA86C2DCC0C770B23
:10486000880B990B0E9464359B01AC01C501B40112
:104870000E9419360E942C35CB01770FAA0BBB0B77
:10488000D5C10E9432186D8F7E8F8F8F98A30EE155
:10489000ED84FE840E9DF0010F9DF00D1124E25079
:1048A000FE4F218532853AA329A3238D348DA9019A
:1048B000330F660B770B49A75AA76BA77CA7358DDB
:1048C000638574857A8B698BA588B688C784D08800
:1048D000E188F2880389148924814381A98DBA8DE6
:1048E0000D90BC91A02DBE8BAD8B8789908DBD01A5
:1048F0003DAF0E9443181C01E989FA89BF0180E09D
:1049000090E00E9462354B015C013DAD60E4630FB5
:1049100070E080E090E00E94623520E030E040E806
:104920005BE30E941936A50194010E9419360E948A
:1049300033358D899E89860F971F69897A890E94F0
:1049400026378C01BC0180E090E00E94623520E0B7
:1049500030E04AE754E40E94BA346B017C0120E065
:1049600030E0A9010E94143687FD3CC020E030E011
:104970004AE754E4C501B4010E94BA346D8B7E8BC2
:104980008F8B988F20E030E040E05FE30E94193683
:104990009B01AC01C701B6010E94B53487FF22C05C
:1049A000B101032C000C880B990B0E94643520E0A8
:1049B00030E040E850E40E9419362D893E894F8945
:1049C000588D0E94BA34A70196010E9419360E94A0
:1049D0002C353194219431086101C60ED71EDAAA14
:1049E000C9AA51C020E030E04AE754E4C501B4014F
:1049F0000E94BA344B015C0120E030E040E05FE30C
:104A00000E9419369B01AC01C701B6010E94143601
:104A100087FD39C0A5019401C701B6010E94B534D4
:104A200087FF31C0B101032C000C880B990B0E9449
:104A3000643520E030E040E850EC0E941936A501D2
:104A400094010E94BA346B017C0189899A899695F8
:104A50008795B801681B790B80E090E00E94623571
:104A600020E030E04AE754E40E94BA349B01AC01F4
:104A7000C701B6010E9419360E942C357101E60E5D
:104A8000F71EFAAAE9AA09A91AA9C801110FAA0BC7
:104A9000BB0B29A53AA54BA55CA5280F391F4A1FBA
:104AA0005B1FA9A1BAA10E9404342FEF3FE740E0A9
:104AB00050E00E94E533CA01B9010E9464352D8D92
:104AC0003E8D4F8D58A10E94BA340E942C359B0117
:104AD000AC01A091D001B0E00E94043424E630E0A3
:104AE00040E050E00E94E533420E531E641E751EE6
:104AF0006FC20E9432186D8B7E8B8F8B988F4EE128
:104B00002D853E85429FF001439FF00D1124E25018
:104B1000FE4F618572857E8F6D8F238D348DC90127
:104B2000330FAA0BBB0B89A39AA3ABA3BCA3358DF0
:104B300023843484A588B688C784D088E188F28825
:104B40000389148924814381A98DBA8D8D909C900D
:104B50008789908DB4013DAF0E9443189A8B898B51
:104B6000B10180E090E00E9462356B017C013DADB7
:104B700060E8630F70E080E090E00E94623520E022
:104B800030E040E85BE30E941936A70196010E94DD
:104B900019360E943335C401860F971FB1010E9458
:104BA00026378C0182159305D8F5E989FA89BF016A
:104BB000FF0F880B990B0E9464359B01AC010E948A
:104BC00049344B015C0120E030E04AE754E4C7017E
:104BD000B6010E94BA349B01AC01C501B4010E9428
:104BE000BA346B017C01B80180E090E00E9462352C
:104BF00020E030E04AE754E40E94BA349B01AC0163
:104C0000C701B6010E9419360E942C3529893A89BC
:104C10003195219531096901C60ED71ED9AEC8AEAE
:104C2000E8ACF9ACC701FF0CAA0BBB0B29A13AA158
:104C30004BA15CA1280F391F4A1F5B1FAD8DBE8D94
:104C40000E9404342FEF3FE740E050E00E94E5333C
:104C5000CA01B9010E9464352D893E894F89588D5A
:104C600032CF0E9432186D8B7E8B8F8B988F2EE106
:104C70000D851E85209FF001219FF00D1124E2502B
:104C8000FE4F418552855E8F4D8F238D348DB90146
:104C9000330F880B990B69A37AA38BA39CA3358D43
:104CA00023843484A588B688C784D088E188F288B4
:104CB0000389148924814381A98DBA8D8D909C909C
:104CC0008789908DB4013DAF0E9443189A8B898BE0
:104CD000B10180E090E00E9462356B017C013DAD46
:104CE00060E8630F70E080E090E00E94623520E0B1
:104CF00030E040E85BE30E941936A70196010E946C
:104D000019360E943335C401860F971FB1010E94E6
:104D100026378C0182159305D0F569897A897195BA
:104D200061957109072E000C880B990B0E94643560
:104D30009B01AC010E9449344B015C0120E030E052
:104D40004AE754E4C701B6010E94BA349B01AC01A2
:104D5000C501B4010E94BA346B017C01B80180E046
:104D600090E00E94623520E030E04AE754E40E947F
:104D7000BA349B01AC01C701B6010E9419360E94EA
:104D80002C35E989FA89E60FF71FFFABEEABCEA809
:104D9000DFA8C601DD0CAA0BBB0B48CF0EE1ED84EA
:104DA000FE840E9DF0010F9DF00D1124E250FE4F88
:104DB000038D148DA091CF01B0E00E94043420E453
:104DC00036E040E050E00E94E53369017A0120912D
:104DD0009604309197044091980450919904D80119
:104DE0000E940F34DC01CB011FE0B595A795979584
:104DF00087951A95D1F7092E000CAA0BBB0B409191
:104E00009A0350919B0360919C0370919D038A01CA
:104E10009B01081B190B2A0B3B0BC901B801A6010A
:104E20000E946B19460E571E681E791ED1C08EE176
:104E30006D857E85869FF001879FF00D1124E250DD
:104E4000FE4F038D148DA091CE01B0E00E9404347A
:104E500024E630E040E050E00E94E53369017A0149
:104E6000B801110F880B990B0E9464352AE939ECBF
:104E70004CEC54E40E94BA349B01AC016DA17EA1BC
:104E80008FA198A50E944834A6010E94981A62C07A
:104E9000FEE1CF2EAD85BE85CA9EF001CB9EF00D02
:104EA0001124E250FE4F038D148DA091CD01B0E08E
:104EB0000E94043424E630E040E050E00E94E533F4
:104EC00069017A01B801110F880B990B0E946435B2
:104ED00020E03EEF4FEF56E40E94BA349B01AC0154
:104EE0006DA57EA58FA598A90E944834A6010E94B1
:104EF000301A30C00EE1ED84FE840E9DF0010F9D4E
:104F0000F00D1124E250FE4F038D148DA091CC01C1
:104F1000B0E00E94043424E630E040E050E00E941B
:104F2000E53369017A01B801110F880B990B0E94D2
:104F300064352AE939EC4CEC54E40E94BA349B0104
:104F4000AC016DA17EA18FA198A50E944834A60155
:104F50000E94AF19092E000CAA0BBB0B480E591E5C
:104F60006A1E7B1E35C00E9432189B01AC018EE187
:104F70006D857E85869FF001879FF00D1124E2509C
:104F8000FE4F838D948DBC01990F880B990B2AAF2E
:104F90003DAF4BAF5CAF0E9464352AAD3DAD4BAD2C
:104FA0005CAD0E94BA340E942C350E9440199B01CE
:104FB000AC01A091D001B0E00E94043424E630E0BE
:104FC00040E050E00E94E533421A530A640A750A31
:104FD0000E94CF100091C8011091C9012091CA010F
:104FE0003091CB01DC01CB01801B910BA20BB30BE9
:104FF000E98DFA8D80839183A283B383098D1A8D05
:105000000C5F1F4F1A8F098F2D853E852B30310580
:1050100009F02BC903C0412C512C32011091990386
:1050200011FF2EC00E9432189B01AC01E091CE010D
:1050300067E471E0E69FC001E79F900D1124BC0179
:10504000990F880B990B2AAF3DAF4BAF5CAF0E9415
:1050500064352AAD3DAD4BAD5CAD0E94BA340E94C3
:105060002C35AB016DA17EA18FA198A50E94981A45
:10507000092E000CAA0BBB0B480E591E6A1E7B1E84
:1050800012FF2EC00E9432189B01AC01E091CD01AD
:1050900067E471E0E69FC001E79F900D1124BC0119
:1050A000990F880B990B2AAF3DAF4BAF5CAF0E94B5
:1050B00064352AAD3DAD4BAD5CAD0E94BA340E9463
:1050C0002C35AB016DA57EA58FA598A90E94301A3D
:1050D000092E000CAA0BBB0B480E591E6A1E7B1E24
:1050E00013FF2EC00E9432189B01AC01E091CC014D
:1050F00067E471E0E69FC001E79F900D1124BC01B9
:10510000990F880B990B2AAF3DAF4BAF5CAF0E9454
:1051100064352AAD3DAD4BAD5CAD0E94BA340E9402
:105120002C35AB016DA17EA18FA198A50E94AF196E
:10513000092E000CAA0BBB0B480E591E6A1E7B1EC3
:105140008091960490919704A0919804B09199044D
:10515000AC01BD01E6E07595679557954795EA95D1
:10516000D1F7841B950BA60BB70B40919A03509176
:105170009B0360919C0370919D03CC24DD247601F8
:10518000C81AD90AEA0AFB0A4C155D056E057F05A7
:1051900034F084179507A607B7070CF049C077FDD0
:1051A00009C06A017B01C81AD90AEA0AFB0AD701B9
:1051B000C60104C0840F951FA61FB71F80939A03D2
:1051C00090939B03A0939C03B0939D030E9432187D
:1051D0009B01AC0160E07EEF8FEF96E40E94BA3451
:1051E0006B017C016091C70170E080E090E00E945B
:1051F00064359B01AC01C701B6010E94193620E05D
:1052000030E048EC52E40E94BA340E942C356B0125
:105210007C0160919A0370919B0380919C03909113
:105220009D03A6010E946B19460E571E681E791E2B
:10523000A091C601B0E0A30192010E94043424E6CB
:1052400030E040E050E00E94E533CA01B9010E941D
:1052500040196B017C0114FF04C00E943A1D0E949A
:10526000DF1CC0927B03D0927C03E0927D03F0921E
:105270007E0360919E0370919F038091A0039091A3
:10528000A1030E9464356B017C01609177037091EA
:1052900078038091790390917A030E9464359B0191
:1052A000AC0160E07FEF8FE797E40E94BA349B0186
:1052B000AC01C701B6010E9419360E942C354B0182
:1052C0005C01611570488105910534F088248A9449
:1052D0004FE7942EA12CB12C811410E891061FEFFA
:1052E000A106B10634F4812C30E8932EAA24AA94A6
:1052F000BA2C80929E0390929F03A092A003B0923A
:10530000A1038BE793E00E94601282E10E94591092
:1053100090938C0380938B031092860310928503E5
:105320001092800310927F0383E10E9459109093A2
:1053300074038093730384E10E9459109093760361
:105340008093750310916C0380916B031817C1F063
:10535000612F70E080E090E00E94623520E030E054
:1053600040E85EE30E9419366093B3047093B4047E
:105370008093B5049093B60410936B030E94BF1CF6
:105380008091B1040E94C40F811103C00E94291CA6
:1053900002C01092D2044091B7045091B8046091B9
:1053A000B9047091BA048091BB049091BC04A0919F
:1053B000BD04B091BE04840F951FA61FB71F0091B6
:1053C000C3041091C4042091C5043091C604801B0D
:1053D000910BA20BB30BBC01CD010090CF0404C014
:1053E00095958795779567950A94D2F70E946435CD
:1053F0002091B3043091B4044091B5045091B604A7
:105400000E94BA340E942C356D877E878F87988BD7
:105410000091690310916A0380918D0390918E032E
:10542000800F911F2C01612C712CC0908703D090AC
:105430008803C00ED11EE12CF12C20918503309100
:105440008603C901330FAA0BBB0B9C01AD012C19BC
:105450003D094E095F09AFEFBFE00E94043420917F
:10546000890330918A03201B310B40E050E02C1956
:105470003D094E095F090E94E533298F3A8F4B8F12
:105480005C8FC0908103D0908203C00ED11EE12CAE
:10549000F12C20917F0330918003C901330FAA0BB7
:1054A000BB0B9C01AD012C193D094E095F09AFEF03
:1054B000BFE00E9404342091830330918403201BB9
:1054C000310B40E050E02C193D094E095F090E9464
:1054D000E53369017A0120918B0330918C03C90176
:1054E000330FAA0BBB0B9C01AD01241935094609EA
:1054F0005709AFEFBFE00E94043420918F03309131
:105500009003201B310B890120E030E0A9019801B4
:1055100024193509460957090E94E5331901211458
:1055200020E1320624F022242A942FE0322E37FE86
:1055300002C0212C312C30928C0320928B03498C99
:105540005A8C411430E1530624F044244A949FE0DD
:10555000592E57FE02C0412C512C50928603409286
:1055600085038601C11440E1D40614F00FEF1FE05B
:1055700017FF02C000E010E01093800300937F0348
:105580008091670390916803A0E0B0E0CD84DE8451
:10559000EF84F888C816D906EA06FB064CF4109288
:1055A000910310929203109293031092940310C0EF
:1055B000CD84DE84EF84F888C81AD90AEA0AFB0A87
:1055C000C0929103D0929203E0929303F0929403DD
:1055D000C0909103D0909203E0909303F0909403D5
:1055E000C114D10421E0E206F1042CF0CC24CA94C9
:1055F000DC2CE12CF12CF7FE03C0C12CD12C760160
:10560000C0929103D0929203E0929303F09294039C
:105610004091C2015091C3016091C4017091C501D4
:105620004D875E876F87788B842F8F70813081F0F4
:10563000823081F0843081F0883081F0833081F0D5
:10564000863081F0893081F08C3081F090E00FC09D
:1056500091E00DC093E00BC095E009C097E007C052
:1056600092E005C094E003C098E001C096E02D856B
:105670003E854F855889207F292BDA01C901209169
:10568000720322FF0CC060917303709174034FEF9B
:1056900053E0461B570B509374034093730323FF4F
:1056A0000CC060917503709176034FEF53E0461B79
:1056B000570B509376034093750320FF05C084FF7A
:1056C00002C08F7E01C080614091730350917403CA
:1056D00060916D0370E04617570794F4E0917503ED
:1056E000F09176036091710370E0E617F7070CF014
:1056F0005BC06091700370E0E617F707CCF459C007
:1057000060916E0370E04617570794F4609171033F
:1057100070E0E0917503F0917603E617F7070CF05F
:105720004DC06091700370E0E617F7070CF44BC0B2
:1057300060916E0370E046175707DCF060916F03CD
:1057400070E046175707ACF46091710370E0E09188
:105750007503F0917603E617F707D4F560917003AF
:1057600070E0E617F7072CF421FD37C084FD48C030
:1057700034C060916F0370E046175707C4F1609121
:105780007503709176034091710350E064177507BB
:105790004CF54091700350E06417750744F521FF04
:1057A0002AC084FF28C02CC040E050E061E070E0D7
:1057B0002BC040E050E062E070E026C040E050E0E6
:1057C00064E070E021C040E050E068E070E01CC0A0
:1057D00040E050E060E170E017C040E050E060E27F
:1057E00070E012C040E050E060E470E00DC040E0C6
:1057F00050E0BA0109C040E050E060E870E004C049
:1058000041E050E060E070E024E0440F551F661F67
:10581000771F2A95D1F78F7EAF70B07F842B952BA1
:10582000A62BB72B8093A6039093A703A093A8035E
:10583000B093A9039401305829833A83CB82DC8248
:105840002D82242D2295207F23292E8334E0569407
:1058500047943A95E1F74F820887282F2295207FB9
:10586000212B2987AC01BD01E4E07695679557951A
:105870004795EA95D1F74A87AC01BD01FCE07695E2
:10588000679557954795FA95D1F74B8714E1B695EB
:10589000A795979587951A95D1F78C874CE050E09E
:1058A000BE016F5F7F4F84E00E94C20C8091D404E0
:1058B0009091D504A091D604B091D704803197423D
:1058C000A105B10508F4BBC682EA94E00E94110E5E
:1058D000181619060CF0A3C682EA94E00E94D70DB0
:1058E000E82F8FE98E0F8A3108F4E0528E2F90E076
:1058F000FC01E154F109EA31F10508F090C6ED59D7
:10590000FF4F0C943A378091C0019091C1010E94E1
:10591000741D80E20E94D41C8091C6010E947A1DF1
:1059200080E20E94D41C8091CE010E947A1D80E208
:105930000E94D41C8091CC010E947A1D80E20E94BA
:10594000D41C8091D1010E947A1D80E20E94D41C57
:105950008091D0010E947A1D80E20E94D41C809127
:10596000CF010E947A1D80E20E94D41C8091CD015B
:105970000E947A1D80E20E94D41C809166030E94DE
:105980007A1D80E20E94D41C8091C7010E947A1D7A
:1059900080E20E94D41C6091BE017091BF0180E042
:1059A00090E04AE00E94ED1C80E20E94D41C8091AD
:1059B0006C030E947A1D80E20E94D41C809199039E
:1059C0000E947A1D80E20E94D41C6091BC017091FB
:1059D000BD0180E090E04AE00E94ED1C80E20E9460
:1059E000D41C6091B8017091B9018091BA01909175
:1059F000BB010E943A1D80E20E94D41C6091B70155
:105A00007BC383E991E00E94811D8AEF90E00E94B0
:105A1000741D88E991E00E94811D8AE991E00E944D
:105A2000811D8CE991E00E94811D8EE991E00E9428
:105A3000811D80EA91E00E94811D82EA91E00E942E
:105A4000811D84EA91E00E94811D86EA91E00E9416
:105A5000811DE5C58091E004082E000C990BDDC581
:105A6000F89480919D0490919E04A0919F04B09120
:105A7000A004789419821A821B821C82F894C09028
:105A80009D04D0909E04E0909F04F090A004789430
:105A90008091BC019091BD012091BE013091BF0168
:105AA000821B930B9695879596958795A0E0B0E01D
:105AB00089839A83AB83BC83CE0101960E946012D6
:105AC0001EEFF89440919D0450919E0460919F04B4
:105AD0007091A004789480919A04882351F01982DF
