:100000000C942D040C9455040C9455040C943B0949
:100010000C9417090C9455040C9455040C94550435
:100020000C9455040C9455040C945A0C0C94FD0932
:100030000C9455040C9455040C9455040C945504DC
:100040000C9455040C9455040C9455040C945504CC
:100050000C9455040C9455040C9455040C9467129C
:100060000C9455040C9455040C9455040C945504AC
:100070000C9455040C9455040C9455040C9455049C
:100080000C9455040C9455040C9455040C9455048C
:100090000C94B1120C9455040C9455040C94550412
:1000A0000C9455040C9455040C9455046E20CF20E8
:1000B00086226C213B2333257724D4251D264E260A
:1000C0008026FA26B926D42EBD2B392CF02F172DD9
:1000D0007D2F4C2C9F2DF02FF02FF02FF02FF02F95
:1000E000F02FC52B9F2DF02F5A2B542BF02FB82A11
:1000F000372B472DF02FA22D9F2DB92DD32DED2D70
:10010000072E212E3B2E552E6F2EF02FF02FF02F85
:10011000F02FF02FF02FF02FF02FF02F892EB72F88
:10012000BC2F992F9E2FF02FA32F942FF02FB22F9B
:10013000C12FF02FF02FAD2FF02FF02FF02FF02F39
:10014000F02FA82FBE0FC10FB40FB80FE20FE20FB0
:10015000E20FC50FC90FCD0FD30FD70FE20FDD0F81
:10016000B714BC14C114CB14151515151515D514D9
:10017000DF14E914F31400151515081505A84CCD66
:10018000B2D44EB93836A9020C50B9918688083CD1
:10019000A6AAAA2ABE000000803F000000000000BE
:1001A00000002A2B280000000000000000000000D2
:1001B000000000000000000000002C9EB4A0A1A2DE
:1001C000A434A6A7A5AE362D3738271E1F2021221E
:1001D00023242526B333B62EB7B89F848586878817
:1001E000898A8B8C8D8E8F90919293949596979807
:1001F000999A9B9C9D2F3130A3AD350405060708C5
:10020000090A0B0C0D0E0F101112131415161718E6
:10021000191A1B1C1DAFB1B0B500080B0002020279
:100220000100090400000102020000052400100181
:100230000524010101042402060524060001070526
:10024000810310004009040100020A0000000705B4
:10025000020240000007058302400000090402007A
:10026000020300000009210101000122E104070549
:10027000840340000107050503400001050109044E
:10028000A10185040901A100093017000000002721
:10029000FFFF0000350047FFFF000075109501814A
:1002A00002093116000027FFFF0000350047FFFF5D
:1002B0000000751095018102093216000027FF0F1A
:1002C0000000350047FF0F0000750C950181020901
:1002D0003316000027FF0F0000350047FF0F000016
:1002E000750C95018102093416000027FF0F0000EC
:1002F000350047FF0F0000750C9501810209391583
:100300000125083500463B0165145500750495012B
:1003100081020509150025015500650019012918FC
:1003200075019518810285F10901150026FF0095D8
:100330003F7508918285F20901953F75088182C059
:10034000050F0992A1028502099F09A009A409A528
:1003500009A61500250135004501750195058102A5
:1003600095038103099415002501350045017501A8
:1003700095018102092215012528350145287507B7
:1003800095018102C00921A10285010922150125DB
:1003900028350145287508950191020925A1020912
:1003A000260927093009310932093309340940097E
:1003B0004109420943250B15013501450B75089587
:1003C000019100C009500954150027FFFF000035B6
:1003D0000047FFFF000066011055FD751095029162
:1003E0000255006600000952150026FF7F350046C1
:1003F000FF7F7510950191020953150125083501FC
:1004000045087508950191020955A10205010930B9
:10041000093115002501750195029102C0050F09EA
:100420005695019102950591030957A1020B010010
:100430000A000B02000A0066140055FE150026FF94
:100440007F3500479F8C0000751095019102550083
:10045000660000C0050F09A766011055FD150027AD
:10046000FFFF0000350047FFFF0000751095019168
:10047000026600005500C0050F095AA10285020955
:100480002215012528350145287508950191020995
:100490005B095D150026FF00350046FF7F75089556
:1004A000029102095C095E66011055FD26FF7F4638
:1004B000FF7F7510950291026600005500C0095F2C
:1004C000A102850309221501252835014528750853
:1004D0009501910209231500250135004501750498
:1004E000950191020958A1020B01000A000B0200BC
:1004F0000A00750295029102C0096016008026FF6D
:100500007F36008046FF7F751095019102096136A4
:10051000008046FF7F95019102150026FF7F350080
:1005200046FF7F0963751095019102096515002644
:10053000FF0046FF7F750895019102C0096EA10278
:1005400085040922150125283501452875089501DE
:1005500091020970150026FF7F350046FF7F751058
:1005600095019102096F16008026FF7F36008046B4
:10057000FF7F950191020971150026FF00350046A5
:1005800067016614005500750895019102097227EC
:10059000FFFF000047FFFF000066011055FD7510CA
:1005A000950191026600005500C00973A1028505FE
:1005B0000922150125283501452875089501910264
:1005C000097016018026FF7F36018046FF7F751077
:1005D00095019102C00974A1028506092215012521
:1005E0002835014528750895019102097509761588
:1005F00081257F36018046FF7F750895029102C0F4
:10060000050F0977A102850A092215012528350160
:1006100045287508950191020978A1020979097A9E
:10062000097B15012503750895019100C0097C150A
:100630000026FF00350046FF009102C00990A1028C
:10064000850B0922150125283501452875089501D6
:100650009102C00996A102850C0997099809990988
:100660009A099B099C15012506750895019100C002
:10067000097DA102850D097E150026FF0035004683
:100680001027750895019102C009ABA102850509E3
:1006900025A1020926092709300931093209330940
:1006A0003409400941094209431501250B3501452B
:1006B0000B75089501B100C00501093B150026FF27
:1006C00001350046FF01750A9501B1027506B101B9
:1006D000C0050F0989A102850609222528150135C3
:1006E00001452875089501B102098BA102098C0901
:1006F0008D098E250315013501450375089501B156
:1007000000C009AC150027FFFF0000350047FFFFC0
:10071000000075109501B100C0097FA1028507098D
:100720008075109501150027FFFF0000350047FF79
:10073000FF0000B102098326FF0046FF00750895FF
:1007400001B10209A909AA75019502150025013513
:10075000004501B10275069501B103C0C0180341FF
:100760000072006400750069006E006F0020004C8C
:10077000004C00430004030904220341007200649A
:1007800000750069006E006F0020004D0069006375
:100790000072006F00200020002000120100020003
:1007A00000004041233780000101020001120100D6
:1007B00002020000404123378000010102000100D5
:1007C000C18081C1C0070605040100080A0B0C0D99
:1007D0000900000000240027002A002D003000003E
:1007E000000000250028002B002E00310000000032
:1007F000002300260029002C002F00040404040418
:1008000003040502020202040302020202060606B3
:100810000606060404020202040404080201104051
:100820008040102040804080080204018040201059
:100830000201108010204040200000000200080E3D
:100840000000030401000B00000000000000000095
:1008500000000000000000000A3011241FBECFEF8E
:10086000DAE0DEBFCDBF11E0A0E0B1E0EEE5F8E6F2
:1008700002C005900D92A63AB107D9F725E0A6EA85
:10088000B1E001C01D92AA37B207E1F714E0CDE252
:10089000D4E004C02197FE010E941B34CC32D10762
:1008A000C9F70E9452190C942D340C940000109238
:1008B0005C0524E0829FC0011124FC01E954FE4F35
:1008C0001082118212821382089525E0FC01208398
:1008D0008EE491E00895089580935C050895CF9289
:1008E000DF92EF92FF926091B4017091B501072EF3
:1008F000000C880B990B0E9445326B017C016091C2
:100900004F037091500380915103909152030E94C4
:1009100045329B01AC01C701B6010E949B31FF909B
:10092000EF90DF90CF9008958C30F8F4282F30E0CE
:100930009EE1899FF0011124E951FE4F9081992396
:10094000A1F090819D7F9083F901EE54FC4F958139
:1009500091110BC0E091A701F091A8010084F185ED
:10096000E02D09951092C20308950895FC01CB0172
:100970002091E80022FFFCCF282F215028F0309151
:10098000F10030833196F9CF24E62093A6032BEFB4
:100990002093E80008950F931F93CF93DF93DB011B
:1009A000A40FB51FFB016EEFEA17FB0791F187FF5C
:1009B00002C0249101C020810091AA031091AB03D1
:1009C000C091A803D091A9030C171D07B4F490910E
:1009D000E8009570E1F39091E80092FD1CC020932F
:1009E000F1002091AA033091AB032F5F3F4F2F738B
:1009F0003327232B11F46093E8002091AA03309150
:100A0000AB032F5F3F4F3093AB032093AA03319684
:100A1000CBCFCA0102C08FEF9FEFDF91CF911F9123
:100A20000F910895CF93DF9300D000D01F92CDB7E0
:100A3000DEB7FC0181819081913A29F5813009F07E
:100A4000BCC08281863051F445E050E06DEA73E02D
:100A500080E40E94CB041092AD03AFC0873009F050
:100A6000ACC089838FEF9FEF9B838A838BE08C835D
:100A700083E08D8345E050E0BE016F5F7F4F80E4EF
:100A80000E94CB049AC0913209F097C0893009F0D6
:100A900094C08281853009F090C064E070E0CE019E
:100AA00001960E94B60486E08093AD0380910F0109
:100AB0008B3021F1A0910F0181E08A0F80930F010B
:100AC0009EE1E0910F019E9FF0011124E951FE4F3C
:100AD0008081882351F080910F018B3030F4809118
:100AE0000F018F5F80930F01ECCF8EE1A89FF00183
:100AF0001124E951FE4F81E0808301C0A0E0A09362
:100B0000AE03A11104C082E08093AF0350C01092E5
:100B10005C0581E08093AF038A819EE1A99FD001AB
:100B20001124A951BE4F11968C9311978FEF9FEF0F
:100B300050969C938E931F9754961C921E92539797
:100B400052961C921E92519713968C93139714965B
:100B50008C93149756961C921E9255971E961C9233
:100B60001E921D9716961C9216978FEF9FE71A9666
:100B70009C938E93199758961C921E9257975C9649
:100B80001C921E925B975D961C925D9788EE93E097
:100B90001C969C938E931B97E091A701F091A8015E
:100BA0000684F785E02DBD01CE01019609958FEFF2
:100BB0009FEF9093B1038093B00381E00F900F906B
:100BC0000F900F900F90DF91CF91089542E450E085
:100BD0006AE172E080E80E94CB0440E250E06CE5FC
:100BE00072E080E80E94CB0483E090E00895EF92E9
:100BF000FF921F93CF93DF93EC01162FE881F981C9
:100C00000480F581E02D09957C01E881F981068059
:100C1000F781E02D612FCE010995C7019927DF915A
:100C2000CF911F91FF90EF900895FC0191818081F9
:100C3000813A29F49D7F81E0913091F414C0813292
:100C400079F49A3049F09B3019F0993049F40AC090
:100C5000828180930E0106C0828180930D0102C0C3
:100C600080E0089581E008958C30F0F49EE1899F42
:100C7000F0011124E951FE4F80818823A9F0808181
:100C8000826080838091C20381110EC00E945B123A
:100C90006093B7017093B8018093B9019093BA0142
:100CA00081E08093C203089508956091A901709135
:100CB000AA0180E090E00E9443329B01AC0160E019
:100CC0007EEF8FEF96E40E949B3108952F923F9222
:100CD0004F925F926F927F928F929F92AF92BF924C
:100CE000CF92DF92EF92FF920F931F93CF93DF93F8
:100CF000CDB7DEB729970FB6F894DEBF0FBECDBFD4
:100D0000998788874B012B831D830C831701DF8212
:100D1000CE82042F10E08C819D816C01E12CF12C9E
:100D2000E885F985F7FD2BC0C8019695982F88278F
:100D300097958795BF01681B790B072E000C880BD0
:100D4000990B0E9445322B013C01C701B6010E945C
:100D500043329B01AC01C301B2010E949B312B01C4
:100D60003C01C8019695982F8827979587959A8377
:100D70008983EB8190E8E99FB00111242AC0B80172
:100D80007695762F662777956795E885F9856E0FB6
:100D90007F1F072E000C880B990B0E9445322B01F8
:100DA0003C01C701B6010E9443329B01AC01C30163
:100DB000B2010E949B312B013C0160E86003C0013D
:100DC000619F900D11249A8389832B816203B00166
:100DD000112488859985681B790B072E000C880BD8
:100DE000990B0E9445326B017C01B10180E090E0DB
:100DF0000E9443329B01AC01C701B6010E949B31A6
:100E00006B017C018A149B0408F43FC08E819F8192
:100E10008A0D9B1D88169906C0F50C811D810A0D4F
:100E20001B1D8016910690F4B4016A197B0980E0BD
:100E300090E00E9443329B01AC01C301B2010E94C9
:100E4000FA320E940D3289819A811CC0821993095D
:100E500088159905E8F48A189B08EE81FF818E1A9F
:100E60009F0AB401620D731D80E090E00E9443323E
:100E70009B01AC01C701B6010E94FA320E940D32FB
:100E800088859985860F971F05C080E090E002C095
:100E90008885998529960FB6F894DEBF0FBECDBF21
:100EA000DF91CF911F910F91FF90EF90DF90CF9046
:100EB000BF90AF909F908F907F906F905F904F907A
:100EC0003F902F900895CF92DF92EF92FF920F9371
:100ED0001F938B019C014091B0015091B1016A01B7
:100EE000E12CF12C66277727CB016C197D098E093F
:100EF0009F0906171707280739074CF0C901B801E1
:100F0000C016D106E206F30614F4C701B6011F911C
:100F10000F91FF90EF90DF90CF9008958F929F9266
:100F2000AF92BF92CF92DF92EF92FF92CF93DF9377
:100F30004B015C01EA010E946F046B017C01DE0140
:100F4000A50194010E94F0300E944532A70196014C
:100F50000E94FA3220E030E040E051E40E94FA3290
:100F600020E030E040E251E40E94FA3220E030E03C
:100F700040E85BE30E94FA320E940D320E94630750
:100F800090958095709561957F4F8F4F9F4FDF9122
:100F9000CF91FF90EF90DF90CF90BF90AF909F9058
:100FA0008F9008954F925F926F927F928F929F924F
:100FB000AF92BF92CF92DF92EF92FF92CF93DF93E7
:100FC00000D000D0CDB7DEB74B015C0157FF02C0A7
:100FD0004D5F5F4F6A01D594C794D594C7940E9422
:100FE0006F0469837A838B839C839B01AC01C50169
:100FF000B4010E94FA3220E030E040E251E40E9465
:10100000FA322B013C0120E030E040E85FE30E942F
:10101000F5320D2C000CEE08FF0818161CF4C70161
:10102000B60128C020E030E040E85FEBC301B20128
:101030000E94963187FF06C0C701B6010E94630770
:10104000CB011EC0C701B6010E9445329B01AC0115
:10105000C501B4010E94FA3229813A814B815C8139
:101060000E94FA3220E030E040E251E40E94FA327D
:101070000E940D320E94630788279927861B970BD1
:101080000F900F900F900F90DF91CF91FF90EF9006
:10109000DF90CF90BF90AF909F908F907F906F9098
:1010A0005F904F9008958F929F92AF92BF92CF9290
:1010B000DF92EF92FF924B015C01BA01550F880B52
:1010C000990B0E9445326B017C0120E030E0A901C0
:1010D000C501B4010E94F532A501940118160CF067
:1010E0005058C701B6010E94FA326B017C010E9480
:1010F0006F049B01AC01C701B6010E94FA3220E0E7
:1011000030E040E851E40E94FA3220E030E040E272
:1011100051E40E94FA3220E030E040E05DE30E94BA
:10112000FA320E940D320E9463076B017C0120E0BD
:1011300030E0A901C501B4010E94F53218162CF463
:10114000882799278C199D090DC020E030E0A9015E
:10115000C501B4010E94963187FF02C0C60102C0DA
:1011600080E090E0FF90EF90DF90CF90BF90AF9045
:101170009F908F900895CF92DF92EF92FF92CF933E
:10118000DF936B017C01EA0120E030E0A9010E94BD
:10119000F532181694F020E030E0A901C701B6013D
:1011A0000E94963187FF3AC020E030E0A901C701D4
:1011B000B6010E942A316B017C01BE01DD0F880B54
:1011C000990B0E9445329B01AC01C701B6010E94F8
:1011D000FA326B017C010E946F049B01AC01C701D4
:1011E000B6010E94FA3220E030E040E851E40E946B
:1011F000FA3220E030E040E251E40E94FA3220E08E
:1012000030E040E05BE30E94FA320E940D320E941F
:10121000630788279927861B970B02C080E090E020
:10122000DF91CF91FF90EF90DF90CF9008951F92C4
:101230000F920FB60F9211242F933F934F935F930A
:101240006F937F938F939F93AF93BF93EF93FF938E
:101250000E94FD17FF91EF91BF91AF919F918F91E8
:101260007F916F915F914F913F912F910F900FBEA2
:101270000F901F9018951F920F920FB60F92112486
:101280002F933F934F935F936F937F938F939F938E
:10129000AF93BF93EF93FF930E94FD17FF91EF91E0
:1012A000BF91AF919F918F917F916F915F914F917E
:1012B0003F912F910F900FBE0F901F901895CF92D6
:1012C000DF92EF92FF920F931F93CF93DF931F92C2
:1012D000CDB7DEB7F82EE42E8B01C82ED92E8C2D7B
:1012E0008F198E1588F4F80161918F01C601698309
:1012F0000E94B0306981681719F0C6010E94B830A9
:10130000FFEFCF1ADF0AEBCF0F90DF91CF911F9144
:101310000F91FF90EF90DF90CF900895CF92DF92E2
:10132000EF92FF920F931F93CF93DF931F92CDB74E
:10133000DEB78B016B017C01E61AF70A9C2D901B2E
:10134000941758F4C7018C0D9D1D49830E94B0303D
:10135000F60181936F014981F1CF0F90DF91CF9119
:101360001F910F91FF90EF90DF90CF9008958F9293
:101370009F92AF92BF92CF92DF92EF92FF9240E0A6
:1013800050E020E0682F70E0812C912C5401839470
:10139000FA013296DB0102C0B595A795EA95E2F70E
:1013A00075016401042E04C0CC0CDD1CEE1CFF1C76
:1013B0000A94D2F7A0FF02C02C2902C0C0942C21AD
:1013C0004F5F5F4F4430510519F730E0220F331F54
:1013D000F901EC5CFE4F80FF05C0808191819695FC
:1013E000879502C080819181FF90EF90DF90CF9030
:1013F000BF90AF909F908F9008951F920F920FB65D
:101400000F921124EF92FF921F932F933F934F93CC
:101410005F936F937F938F939F93AF93BF93EF935C
:10142000FF93CF93DF93CDB7DEB76197DEBFCDBF1C
:101430001092E9008091E80083FF59C1FE013A96BD
:10144000CF0128E02E0F2E1729F03091F1003083C4
:101450003196F9CF24E62093A60322EF2093E800EB
:101460002A8527FF05C03091E80030FFFCCF03C07C
:101470003EEF3093E800322F307609F0C5C08B85FF
:10148000811105C01092F1001092F10029C1982F2E
:101490009D7F913009F424C1853049F48091E800A2
:1014A00080FFFCCF8C8580688093E30019C1863073
:1014B00009F07CC01D85E888F9881092E900109237
:1014C000AB031092AA03123091F51092A903109267
:1014D000A8030E94E60599E0BE016F5F7F4FFB0104
:1014E000292F11922A95E9F799831A8391E09E8317
:1014F00090E898879AEF99872091AA033091AB03DF
:10150000275F3F4F3C832B838D831092E90010921D
:10151000AB031092AA03F092A903E092A80349E05A
:1015200050E080E00E94CB040E94E605D9C0F09212
:10153000A903E092A803123259F441EE54E06CE79B
:1015400072E080E80E94CB04892B09F0C9C0CCC0AE
:10155000113069F488899989089711F41093A703C9
:101560008091A703811111C06BE977E016C0133099
:1015700009F0BAC08C85882359F0823061F081303F
:1015800009F0B2C06DE577E008C06DEA77E005C00C
:1015900065E777E002C069E777E06115710509F456
:1015A000A3C0FB01449150E080E849C0873009F4B2
:1015B0009BC0883021F481E08093F10091C0893094
:1015C00009F08EC0237009F08FC080E090E031E018
:1015D00026E341E0480F4093E9003093EB00019689
:1015E000FC01E154F84FE491E093EC002093ED000E
:1015F0008530910571F78EE78093EA001092EA003A
:101600008C858093A6016CC0288939891092E900E5
:101610001092AB031092AA033093A9032093A8035E
:101620002E85211154C08B859A85913A59F48132C7
:1016300009F05AC047E050E060E171E080E00E94AC
:10164000CB044EC0913209F04FC0803239F467E0CC
:1016500070E080E191E00E94B60442C0823209F05D
:1016600043C08C85809317018091100190911101E6
:10167000A0911201B0911301803B9440A105B105E6
:1016800079F58091170180FD11C087E797E7909366
:101690000108809300089BE088E10FB6F894A895B4
:1016A000809360000FBE909360001AC00FB6F8944C
:1016B000A89580916000886180936000109260001E
:1016C0000FBEA895109201081092000809C02230A0
:1016D00059F4E0915D05F0915E050995882321F0AC
:1016E0008EEF8093E80003C081E28093EB00619667
:1016F0000FB6F894DEBF0FBECDBFDF91CF91FF9143
:10170000EF91BF91AF919F918F917F916F915F9179
:101710004F913F912F911F91FF90EF900F900FBE2F
:101720000F901F9018958F929F92AF92BF92CF9279
:10173000DF92EF92FF920F931F93CF93DF9300D02E
:101740001F92CDB7DEB7382F8B018091A601882379
:1017500089F04A018AEFF82E832F8770E82E90E4F3
:10176000C92E832F8072B82E2AE3D22E832F807445
:10177000A82E21C08FEF9FEF5FC08FB7F894E09243
:10178000E9009091E80095FF1AC09091F2002C2D8D
:10179000291B8FBF211115C0FA94FF2059F361E076
:1017A00070E080E090E039834A835B830E943512C9
:1017B00039814A815B8181149104F9F634C020E0BB
:1017C000E8CF822F90E0881699060CF4282D822FFE
:1017D00090E0881A990A6FB7F894E092E900BB206C
:1017E00029F02150A8F01092F100FBCFF80137FF4B
:1017F00007C0215058F074917093F1003196F9CFE1
:10180000215020F071917093F100FACF080F191F49
:101810008091E80085FF0DC08114910411F4A1109E
:1018200008C06FBFC8CF5D9A84E68093AC03CA013D
:1018300003C0D092E800F5CF0F900F900F90DF918A
:10184000CF911F910F91FF90EF90DF90CF90BF90BD
:10185000AF909F908F9008959091A601992311F0D9
:1018600057FF03C08FEF9FEF08952FB7F89487704D
:101870008093E9008091F20090E0841795070CF4C2
:10188000AC01842FFB0194E6815030F09093A603C5
:101890003091F1003193F8CF4115510521F080913D
:1018A000F200882319F02FBFCA0108958BE68093B8
:1018B000E800F9CF1F920F920FB60F9211242F93C9
:1018C0003F934F935F936F937F938F939F93AF93C8
:1018D000BF93EF93FF93CF93DF93CDB7DEB7C054A1
:1018E000D109DEBFCDBF8091E1001092E10083FFFE
:1018F0000FC01092E90091E09093EB001092EC0081
:1019000092E39093ED001092A60198E09093F0007E
:1019100082FF46C083E08093E9008091F200882333
:1019200019F08AE38093E8009FB7F89482E08093EF
:10193000E9008091F2009FBF882321F081E994E0C3
:101940000E9415119FB7F89485E08093E90080917B
:10195000F2009FBF8823C1F080915F0590916005E0
:10196000892B91F040E450E0BE016F5F7F4F85E02E
:101970000E942C0C97FD08C0E0915F05F091600576
:10198000BC01CE01019609958091AC03882341F0FA
:101990008091AC0381508093AC03811101C05D98AC
:1019A000C05CDF4F0FB6F894DEBF0FBECDBFDF9136
:1019B000CF91FF91EF91BF91AF919F918F917F91C7
:1019C0006F915F914F913F912F910F900FBE0F90AC
:1019D0001F901895EF92FF920F931F93CF93DF9371
:1019E0001F92CDB7DEB789838B017A0141E050E0C9
:1019F000BE016F5F7F4F84E00E94930BA701B80187
:101A000084E40E94930B0F90DF91CF911F910F916F
:101A1000FF90EF9008951F93CF93DF93DC01119611
:101A20001C9111979C91953009F467C060F5923034
:101A300009F443C0A8F4913009F04DC1E091A70129
:101A4000F091A8012EE1129FB001112469517E4F3F
:101A5000028CF38DE02DCD01DF91CF911F91099480
:101A60009330C9F1943009F036C1E091A701F091AB
:101A7000A8012EE1129FB001112469517E4F048804
:101A8000F589E02D35C09B3009F49DC038F49630BF
:101A900009F441C09A3009F44CC01DC19C3009F4CE
:101AA000CBC0913F09F017C140E450E0BD0182EF87
:101AB000DF91CF911F910C94EA0CE091A701F09176
:101AC000A8013EE1139FB001112469517E4F0088A7
:101AD000F189E02D0DC0E091A701F091A8018EE100
:101AE000189FB001112469517E4F0288F389E02DBF
:101AF000CD01DF91CF911F910994E091A701F09161
:101B0000A8013EE1139FB001112469517E4F068860
:101B1000F789E02DEDCFE091A701F091A8018EE1CA
:101B2000189FB001112469517E4F008CF18DE02D7A
:101B3000DFCF1F3F09F41FE712969C91913099F473
:101B4000812F0E943406E12FF0E0EE54FC4F858196
:101B50008111C1C0E091A701F091A8010680F78131
:101B6000E02D812F47C0923029F5C1E08C2F0E94D3
:101B70009404CF5FCC30D1F7C12FD0E0CE54DC4FEE
:101B80008D81811109C0E091A701F091A801008425
:101B9000F185E02D8FE70995812F0E9434068D8114
:101BA000811199C0E091A701F091A8010680F78109
:101BB000E02D1FC0933009F08EC0812FDF91CF91AF
:101BC0001F910C94940481E01F3FC1F480930F0196
:101BD00088E691E0E7EEF1E0DF019C011D922150E3
:101BE0003040E1F7E091A701F091A8010284F3856C
:101BF000E02D8FE7DF91CF911F91099480935C05D1
:101C00001C3008F068C03EE1139FF0011124E95137
:101C1000FE4F108280910F01181710F410930F01DE
:101C2000E091A701F091A8010284F385E02D812FB6
:101C300009951092C2034FC082E08093C303909134
:101C4000C40394609093C4039091C40390619093F3
:101C5000C4031092C5031330B1F040F4113079F091
:101C60001230C9F58091C403826033C0153071F120
:101C7000B0F0163081F58091C4038E7F2AC0809128
:101C8000C4038D7F26C0E091A701F091A8010480D4
:101C9000F581E02D80E009951092C5031CC0E0910C
:101CA000A701F091A8010480F581E02D81E009955C
:101CB00081E080930F0188E691E0E7EEF1E0DF013B
:101CC0009C011D9221503040E1F705C08091C40372
:101CD00081608093C403DF91CF911F910895DC014F
:101CE000683810F0685825C0E62FF0E067FF12C092
:101CF000E058F10981E090E001C0880FEA95EAF729
:101D0000809514969C911497892314968C9314971C
:101D100060E00FC0E656FE4F6491662311F167FF45
:101D200008C014968C9114978D7F14968C931497F9
:101D30006F77FD01369686E0662321F09081961339
:101D400001C01082815031968111F6CFBD016C5FC8
:101D50007F4F48E050E082E00E94EA0C81E090E092
:101D6000089580E090E00895FC01168217821086A5
:101D70001186128613861482BC016C5F7F4F48E087
:101D800050E082E00C94EA0CDC01683810F06858EE
:101D90002DC0E62FF0E067FF11C0E058F10981E0A7
:101DA00090E001C0880FEA95EAF714969C91149789
:101DB000892B14968C93149760E018C0E656FE4F5A
:101DC0006491611109C081E090E013969C938E9319
:101DD000129780E090E0089567FF08C014968C91F8
:101DE0001497826014968C9314976F7716968C9143
:101DF0001697861751F117968C911797861729F128
:101E000018968C911897861701F119968C9119974D
:101E10008617D9F01A968C911A978617B1F01B96EF
:101E20008C911B97861789F0FD01369680E090E033
:101E30002191211105C0FD01E80FF91F668305C03E
:101E4000019686309105A1F7BECFBD016C5F7F4F33
:101E500048E050E082E00E94EA0C81E090E00895C2
:101E6000CF92DF92EF92FF920F931F93CF93DF9366
:101E70006C01EB017B01E40EF51E00E010E0CE15D5
:101E8000DF0561F06991D601ED91FC910190F0813F
:101E9000E02DC6010995080F191FF1CFC801DF9188
:101EA000CF911F910F91FF90EF90DF90CF90089509
:101EB00083E08093E9008091F200882319F08AE39F
:101EC0008093E800089520918604309187048091E2
:101ED00088049091890428173907A9F0E0918804B3
:101EE000F0918904EA5BFB4F808120918804309156
:101EF00089042F5F3F4F2F7333273093890420933A
:101F0000880490E008958FEF9FEF08952091860454
:101F100030918704809188049091890428173907AB
:101F200049F0E0918804F0918904EA5BFB4F8081DD
:101F300090E008958FEF9FEF08958091860490912F
:101F400087042091880430918904821B930B8F733E
:101F50009927089590E0FC013197EE30F10590F556
:101F6000EE55FF4F0C941B34809180008F7703C097
:101F7000809180008F7D80938000089584B58F7755
:101F800002C084B58F7D84BD0895809190008F77C5
:101F900007C0809190008F7D03C080919000877F63
:101FA0008093900008958091C0008F7703C0809146
:101FB000C0008F7D8093C00008958091C200877F0C
:101FC0008093C200089585ED8093BC008091BC0091
:101FD00084FDFCCF1092170408954091F103262F41
:101FE00030E0240F311D21323105DCF4209117043B
:101FF0002430C9F4FC0180E090E0861758F4309159
:10200000F1032191DC01A153BC4FA30FB11D2C930F
:102010000196F3CF8091F103680F6093F10380E0A4
:10202000089581E0089582E0089508958FEF9FEF6D
:1020300008958FEF9FEF08958091CE0390E09195E2
:10204000819591090895CF93DF9300D0CDB7DEB786
:10205000CB01642F49835A830E94ED0F4981842F5D
:102060005A81952F0F900F90DF91CF910895CF93C4
:10207000DF931F92CDB7DEB7698361E0CE01019691
:102080000E94ED0F81E090E00F90DF91CF910895D5
:102090000895CF93DF93FC01EB01718182818983E5
:1020A000858196819A8789872285338543815481EA
:1020B0006EE1769FC001112489519E4FDC0150963C
:1020C0005C934E931F9756963C932E93559764E0DE
:1020D000769FD0011124A954BE4F1D921D921D92CE
:1020E0001C921397808591859E878D8787818E832B
:1020F00081E0DF91CF910895FC012281FB012783CC
:10210000FC018381FB0180870895FC01828193811A
:10211000FB01908F878B0895DC01FB0112968D9156
:102120009C911397908F878B14968D919C91159706
:10213000948F838F16968C911697858F17968D9115
:102140009C911897948783870895DC01FB01129670
:102150008C91129782838281811110C015968D9186
:102160009C911697908F878B13968D919C911497C5
:10217000948F838F17968C9185830895828108951B
:10218000DC01FB0112968C911297838313968C913C
:102190001397848314968D919C911597948B838BC0
:1021A00016968D919C911797928B818B08959EE145
:1021B000899FF0011124E951FE4F708B6787568B80
:1021C000458B94E0899FF0011124E954FE4F108261
:1021D0001182128213820895089508950E9428346E
:1021E0000F931F93CF93DF931F92CDB7DEB78C0170
:1021F000698380911701882359F041E050E0BE01C6
:102200006F5F7F4F83E00E94930B181619063CF016
:1022100081E090E0F8019383828380E090E00F906A
:10222000DF91CF911F910F9108950F931F93CF933B
:10223000DF931F92CDB7DEB700918604109187041B
:102240000F5F1F4F0F7311278091880490918904AD
:1022500008171907F9F041E050E0BE016F5F7F4FAA
:1022600082E00E942C0C019719F4898190E002C051
:102270008FEF9FEF8F3F2FEF920761F0E091860481
:10228000F0918704EA5BFB4F8083109387040093EF
:102290008604D2CF0F90DF91CF911F910F910895B7
:1022A000CF93DF93282F30E0F901E75CF74F84915B
:1022B000F901E65EF74FD491F901E550F84FC4916A
:1022C000CC2391F081110E94AA0FEC2FF0E0EE0FC9
:1022D000FF1FE351F84FA591B491EC91ED2381E0FC
:1022E00090E021F480E002C080E090E0DF91CF91A7
:1022F00008951F93CF93DF93282F30E0F901E75C17
:10230000F74F8491F901E65EF74FD491F901E5505A
:10231000F84FC491CC23C9F0162F81110E94AA0F47
:10232000EC2FF0E0EE0FFF1FE152F84FA591B491B2
:102330008FB7F894111105C09C91ED2FE095E9231A
:1023400002C0EC91ED2BEC938FBFDF91CF911F91E9
:102350000895CF93DF9390E0FC01E65EF74F249160
:10236000FC01E550F84F8491882361F190E0880FDB
:10237000991FFC01EF52F84FC591D491FC01E15235
:10238000F84FA591B491611109C09FB7F894888165
:10239000209582238883EC912E230BC0623061F458
:1023A0009FB7F8943881822F809583238883EC919E
:1023B0002E2B2C939FBF06C08FB7F894E8812E2B4D
:1023C00028838FBFDF91CF910895823108F0825129
:1023D000E82FF0E0EB53F84FE49180917B00E3FBB2
:1023E000222720F930E095E0220F331F9A95E1F77C
:1023F0008F7D282B20937B00E770E064E0937C00C6
:1024000080917A00806480937A0080917A0086FDC2
:10241000FCCF809178002091790090E0922B089574
:102420003FB7F8948091420490914304A0914404F2
:10243000B091450426B5A89B05C02F3F19F0019621
:10244000A11DB11D3FBFBA2FA92F982F8827820F3A
:10245000911DA11DB11DBC01CD0142E0660F771F8A
:10246000881F991F4A95D1F70895CF92DF92EF9276
:10247000FF92CF93DF936B017C010E941012EB015E
:10248000C114D104E104F10479F00E9410126C1B14
:102490007D0B683E7340A0F381E0C81AD108E108C3
:1024A000F108C851DC4FECCFDF91CF91FF90EF9056
:1024B000DF90CF9008952FB7F89460913E0470910B
:1024C0003F0480914004909141042FBF08951F92D2
:1024D0000F920FB60F9211242F933F938F939F93D8
:1024E000AF93BF9380913E0490913F04A09140042C
:1024F000B091410430913D0423E0230F2D3720F4A7
:102500000196A11DB11D05C026E8230F0296A11D4D
:10251000B11D20933D0480933E0490933F04A0930B
:102520004004B09341048091420490914304A091EF
:102530004404B09145040196A11DB11D809342044D
:1025400090934304A0934404B0934504BF91AF918A
:102550009F918F913F912F910F900FBE0F901F90E1
:1025600018951F920F920FB60F9211242F933F933D
:102570004F935F936F937F938F939F93AF93BF938B
:10258000EF93FF938091B900887F803609F49CC057
:1025900068F5883209F45BC090F4803109F454C0C6
:1025A00038F4882309F4F6C0883009F44DC0F6C029
:1025B000883109F44CC0803209F45DC0EFC080342A
:1025C00009F468C048F4803309F455C0883309F031
:1025D000E5C080931604D8C0803509F44FC0883513
:1025E00009F45DC0883409F0D9C0D6C0883909F42F
:1025F000C7C0A8F4883709F467C038F4883609F4EE
:1026000063C0803709F460C0C9C0883809F4B8C015
:10261000803909F45FC0803809F0C0C05BC0803BDE
:1026200009F486C038F4803A09F466C0883A09F49F
:102630007FC0B4C0803C09F4A7C0883C09F4A4C0A2
:10264000883B09F48AC0AAC080913C0410C09091D4
:102650003B0480913A04981770F5E0913B0481E0C7
:102660008E0F80933B04F0E0E65EFB4F8081809309
:10267000BB0085EC86C0809316048EC0E0913B04BD
:1026800081E08E0F80933B048091BB00F0E0E65E1A
:10269000FB4F808390913B0480913A046EC0E0919F
:1026A0003B0481E08E0F80933B048091BB00F0E0FF
:1026B000E65EFB4F80838091190481116DC081E03B
:1026C0008093180484EA61C083E080931704109219
:1026D0001504CFCF80911504803208F051C0E091ED
:1026E000150481E08E0F809315048091BB00F0E00B
:1026F000EB50FC4F8083BDCF85EC8093BC001092E3
:10270000170480911504803230F4E0911504F0E054
:10271000EB50FC4F10826091150470E0E091F303E0
:10272000F091F40385EF93E009951092150436C0FB
:1027300084E0809317041092F2031092F103E09169
:10274000EF03F091F00309958091F103811105C029
:1027500081E08093F1031092CF03E091F20381E0D6
:102760008E0F8093F203F0E0E153FC4F8081809361
:10277000BB009091F2038091F103981708F479CF90
:1027800085E88093BC000AC085EC8093BC00109261
:10279000170404C0109216040E94E30FFF91EF91FA
:1027A000BF91AF919F918F917F916F915F914F9169
:1027B0003F912F910F900FBE0F901F901895209171
:1027C000A9013091AA012817390708F4C90190938B
:1027D00089008093880008954F925F926F927F9254
:1027E0008F929F92AF92BF92CF92DF92EF92FF9221
:1027F0000F931F93CF93DF93CDB7DEB760970FB6DC
:10280000F894DEBF0FBECDBF009709F4E8C28C017B
:102810006091B60170E080E090E00E9445322AE0CD
:1028200037ED43E25CE30E94FA3269837A838B835B
:102830009C83F80180809180A280B380B7FE08C09D
:10284000B094A09490948094811C911CA11CB11C04
:10285000C501B4010E9445326B017C016091B00159
:102860007091B10180E090E00E9443322B013C0165
:1028700026E636E646E65FE30E94FA3229813A818F
:102880004B815C810E94FA326D837E838F839887AF
:102890009B01AC01C701B6010E94F53287FDCBC098
:1028A000A301920169817A818B819C810E94FA3215
:1028B00069877A878B879C8720E030E040E85FE378
:1028C0000E9429319B01AC01C701B6010E949631DB
:1028D00087FFB1C06D817E818F8198850E940D3206
:1028E0006B017C01A5019401261B370B480B590B8A
:1028F000AEE3B0E00E94E5304B015C0169857A856A
:102900008B859C850E940D329B01AC012C193D09E1
:102910004E095F09C501B4010E94C63069017A0100
:10292000FFEFCF1ADF0AEF0AFF0A560161E083E0EA
:102930000E94A911C114D10411F460E005C08FEF09
:10294000C816D10429F461E083E00E9479118AC09D
:10295000ECE3F8E0E4918E2F90E0FC013197EE304B
:10296000F10508F062C0E055FF4F0C941B3484B5AC
:10297000806884BDC7BC76C084B5806284BDC8BC95
:1029800071C080918000806880938000D09289001F
:10299000C092880067C08091800080628093800030
:1029A000D0928B00C0928A005DC0809190008068B8
:1029B00080939000D0929900C092980053C080916B
:1029C0009000806280939000D0929B00C0929A0009
:1029D00049C080919000886080939000D0929D00C3
:1029E000C0929C003FC08091C00080688093C0006E
:1029F0008091C0008F7B8093C000C092CF0032C016
:102A00008091C00080628093C000C092D0002AC034
:102A10008091C20088608093C2008091C2008B7F49
:102A20008093C200C092D2001DC0E0E8AE16B1048F
:102A30000CF089CF82CFA301920169817A818B81C9
:102A40009C810E94FA3220E030E040E85FE30E947F
:102A500029319B01AC01C701B6010E94F53287FD07
:102A60006CCF71CF80E090E0A0E8BFE38093CA0311
:102A70009093CB03A093CC03B093CD038093C60374
:102A80009093C703A093C803B093C9039091AF017B
:102A9000F801C080D180E280F380892F807491FD9D
:102AA000BEC081116BC01C141D041E041F049CF5C4
:102AB0004090B0015090B1018090B2019090B3016C
:102AC000A12CB12C612C712CC301B20168197909B8
:102AD0008A099B09A70196010E94F733A30192017D
:102AE0000E94C630820E931EA41EB51EF80180827D
:102AF0009182A282B3822D982091A9013091AA01DE
:102B0000808191812817390708F4C90190938B00BF
:102B100080938A002DC0C114D104E104F10451F165
:102B20004090B0015090B1018090B2019090B301FB
:102B3000A12CB12C612C712CA5019401241935090B
:102B400046095709C701B6010E94F733A301920154
:102B50000E94C630DA01C901880D991DAA1DBB1D4E
:102B6000F80180839183A283B3830E94DF132E98A0
:102B70002A9A35C12D982E982A9831C1E091B0013A
:102B8000F091B1011C141D041E041F04DCF44F015C
:102B9000969487948091B2019091B301880E991E0A
:102BA000A12CB12C2F01612C712CC301B201681929
:102BB00079098A099B09A70196010E94F733A301AD
:102BC000920119C0C114D104E104F10411F14F01C3
:102BD000969487948091B2019091B301881A990AD2
:102BE000A12CB12CA5019401C701B6010E94F733B5
:102BF0009F0140E050E00E94C630DA01C901880D13
:102C0000991DAA1DBB1DF80180839183A283B38304
:102C100003C0CF01969587950E94DF13DFC0811115
:102C200033C0F7FC02C02A9A01C02A988091B201F1
:102C30009091B3016C01E12CF12C8090B001909047
:102C4000B101A12CB12CF801208131814281538145
:102C500057FF07C050954095309521953F4F4F4FF6
:102C60005F4FC501B4016C197D098E099F090E944F
:102C7000F733A50194010E94C630DA01C9018C0D19
:102C80009D1DAE1DBF1D81C01C141D041E041F040C
:102C90006CF520E030E040E85FE36091AB017091BB
:102CA000AC018091AD019091AE010E942A3120913A
:102CB00004013091050140910601509107010E94E5
:102CC000FA320E940D324B015C016091000170915B
:102CD000010180910201909103010E940D32681957
:102CE00079098A099B09A70196013FC0C114D10443
:102CF000E104F10409F44FC02091AB013091AC0123
:102D00004091AD015091AE0160E070E080E89FE33A
:102D10000E94293120910401309105014091060162
:102D2000509107010E94FA320E940D324B015C0162
:102D300022273327A9012C193D094E095F0960910B
:102D400008017091090180910A0190910B012D8772
:102D50003E874F87588B0E940D32681979098A097E
:102D60009B092D853E854F8558890E94F733209118
:102D7000B0013091B10140E050E00E94C630DA016C
:102D8000C901880D991DAA1DBB1DF801808391837F
:102D9000A283B3830BC060910401709105018091FF
:102DA0000601909107010E941432CB010E94DF13AB
:102DB00060910401709105018091060190910701D5
:102DC0000E9414322091A9013091AA0126173707D9
:102DD00008F4B90170938B0060938A002E98609676
:102DE0000FB6F894DEBF0FBECDBFDF91CF911F911C
:102DF0000F91FF90EF90DF90CF90BF90AF909F909A
:102E00008F907F906F905F904F900895009769F03A
:102E1000FC0101900020E9F73197AF01481B590BE5
:102E2000BC0181E994E00C94300F80E090E00895BB
:102E30000F931F930E945B126093990470939A04FE
:102E400080939B0490939C04E0919104F0919204F0
:102E50000084F185E02D81E994E0099597FF1FC07A
:102E60000E945B120091990410919A0420919B0496
:102E700030919C04DC01CB01801B910BA20BB30BA6
:102E80000091950410919604209197043091980434
:102E900080179107A207B307B8F28FEF9FEF1F913A
:102EA0000F910895CF92DF92EF92FF92CF931092FD
:102EB000C104C0E0C12CD12C76018091A10490E026
:102EC00047962C2F30E082179307ECF061E0809159
:102ED0009F040E947911C83178F48091A0040E9467
:102EE0005011CC0CDD1CEE1CFF1C882329F08FEF49
:102EF000C81AD80AE80AF80A60E080919F040E9484
:102F00007911CF5FDACF80E8E8268091B6049091FE
:102F1000B7048130910529F41092B7041092B604D9
:102F200005C001969093B7048093B604C114D104F0
:102F3000E104F10409F446C09091C10481E0890FD5
:102F40008093C104E091B604F091B704EE0FFF1F27
:102F5000EE0FFF1FE156FB4FC782D086E186F28657
:102F60008091BF04882371F18091BD04823038F1D3
:102F7000C090A604D090A704E090A804F090A90403
:102F80004091AA045091AB046091AC047091AD04DF
:102F90004C0D5D1D6E1D7F1D4093B2045093B30414
:102FA0006093B4047093B5041092BD041092BF04F2
:102FB00081E08093C2049E5F9093C10403C08F5F41
:102FC0008093BD04CF91FF90EF90DF90CF90089554
:102FD00081E08093BF041092BD048091A0040E9400
:102FE0005011811103C00E94521702C01092C104F7
:102FF0008091C104823089F708959091900489B13D
:103000008C70892B90E09C013595279535952795F7
:103010002093900440918C0450918D0460918E0413
:1030200070918F04FC01ED5AFE4F8081082E000C38
:10303000990BAA0BBB0B840F951FA61FB71F80937C
:103040008C0490938D04A0938E04B0938F04809190
:103050008B040895E0919104F09192040190F08125
:10306000E02D682F81E994E00994CF93DF938DE000
:103070000E942A18EC018AE00E942A188C0F9D1FDA
:10308000DF91CF9108958F929F92AF92BF92EF926E
:10309000FF920F931F93CF93DF93CDB7DEB7A19726
:1030A0000FB6F894DEBF0FBECDBF162F042F19A2A6
:1030B000423008F40AE07E0121E2E20EF11C802E8B
:1030C000912CA12CB12C612FA50194010E94F83004
:1030D000029F1019112481E0E81AF1081A3014F443
:1030E000105D01C0195CF7011083122F732FCA0104
:1030F000232B242B252B39F7C7010E940617A196F5
:103100000FB6F894DEBF0FBECDBFDF91CF911F91F8
:103110000F91FF90EF90BF90AF909F908F90089588
:10312000CF92DF92EF92FF92CF93DF9397FF19C078
:103130006B017C018DE20E942A18EC01662777273B
:10314000CB016C197D098E099F094AE00E94431842
:103150008C0F9D1FDF91CF91FF90EF90DF90CF906C
:1031600008954AE0DF91CF91FF90EF90DF90CF90EC
:103170000C944318CF93DF93BC01990F880B990BE4
:103180000E949018EC010E9435188C0F9D1FDF9152
:10319000CF910895BC01990F880B990B0C9490184E
:1031A000682F70E080E090E04AE00C9443180C94A3
:1031B0000617FF920F931F93CF93DF9300D000D099
:1031C000CDB7DEB70E941817FC0197FD11C08D32F4
:1031D000910591F0C0970A9778F0E0919104F091F1
:1031E00092040680F781E02D81E994E00995EACF09
:1031F00060E070E0CB014CC020E030E0A901F12C90
:10320000E130F105F1F0ED32F105C9F0CF01C097E1
:103210000A97B8F4AAE0B0E00E94E5308F01FF0FF2
:10322000220B330BDC01CB01800F911FA21FB31FB8
:103230009C01AD01205331094109510902C0FF240D
:10324000F394E0919104F09192040680F781E02DCF
:1032500081E994E029833A834B835C8309950E943A
:103260001817FC01C09729813A814B815C810A972C
:1032700038F2E130F10521F2FF2041F0662777278F
:10328000CB01621B730B840B950B02C0CA01B90101
:103290000F900F900F900F90DF91CF911F910F9192
:1032A000FF900895CF93DF93CDB7DEB7C254D10915
:1032B0000FB6F894DEBF0FBECDBF789484B58260A0
:1032C00084BD84B5816084BD85B5826085BD85B5CA
:1032D000816085BD80916E00816080936E00109248
:1032E00081008091810082608093810080918100C3
:1032F0008160809381008091800081608093800054
:103300008091910082608093910080919100816012
:1033100080939100809190008160809390008091D3
:10332000C10084608093C1008091C100826080935D
:10333000C1008091C10081608093C1008091C30071
:1033400081608093C3008091C00082608093C00040
:103350008091C20081608093C20080917A00846075
:1033600080937A0080917A00826080937A008091C5
:103370007A00816080937A0080917A0080688093DF
:103380007A001092A60181E08093D70080EA8093B2
:10339000D80082E189BD09B400FEFDCF61E070E094
:1033A00080E090E00E94351280E98093D8001CE014
:1033B0001093E2001092E0001092840310928303B5
:1033C0001092890310928A0310928B0310928C033F
:1033D00010927E0310927D03109296031092970331
:1033E00010929803109299031092920310929303F3
:1033F000109294031092950342E0BE01615F7F4FEB
:1034000080E090E00E948E098F8598898A3F91051F
:1034100009F407C18AEF90E09E878D8742E0BE01E4
:10342000635F7F4F80E090E00E945F0919821A82FB
:103430001B821C8244E0BE016F5F7F4F82E090E000
:103440000E945F0988E394E09E878D8742E0BE0179
:10345000635F7F4F86E090E00E945F0984E6898B7E
:1034600041E0BE016F5E7F4F88E090E00E945F09FF
:1034700041E0BE016F5E7F4F8BE090E00E945F09EC
:1034800041E0BE016F5E7F4F8CE090E00E945F09DB
:1034900041E0BE016F5E7F4F80E190E00E945F09D6
:1034A00041E0BE016F5E7F4F8DE090E00E945F09BA
:1034B00082E3898B41E0BE016F5E7F4F89E090E03F
:1034C0000E945F0941E0BE016F5E7F4F8AE090E09D
:1034D0000E945F0941E0BE016F5E7F4F8EE090E089
:1034E0000E945F0986E4898B41E0BE016F5E7F4FD9
:1034F0008FE090E00E945F091E861D8642E0BE01BB
:10350000635F7F4F81E190E00E945F098FEF97E05A
:103510009E878D8742E0BE01635F7F4F83E190E02D
:103520000E945F098FEF9FE09E878D8742E0BE017A
:10353000635F7F4F85E190E00E945F098DE2898B98
:1035400041E0BE016F5E7F4F87E190E00E945F091E
:1035500081E0898B41E0BE016F5E7F4F88E190E0A2
:103560000E945F0980E699E0A0E0B0E089839A8339
:10357000AB83BC8344E0BE016F5F7F4F89E190E085
:103580000E945F09198B41E0BE016F5E7F4F8DE1A4
:1035900090E00E945F091E861D8642E0BE01635FC7
:1035A0007F4F8AE290E00E945F0942E0BE01635FC4
:1035B0007F4F8EE290E00E945F0942E0BE01635FB0
:1035C0007F4F82E390E00E945F0942E0BE01635FAB
:1035D0007F4F86E390E00E945F098FEF93E09E8724
:1035E0008D8742E0BE01635F7F4F8CE290E00E94D6
:1035F0005F0942E0BE01635F7F4F80E390E00E947D
:103600005F0942E0BE01635F7F4F84E390E00E9468
:103610005F0942E0BE01635F7F4F88E390E00E9454
:103620005F0942E064EB71E086E090E00E948E0961
:1036300044E069E573E089E190E00E948E0941E091
:1036400066EB71E088E090E00E948E0941E060E660
:1036500073E089E090E00E948E0941E06EE573E03E
:103660008AE090E00E948E0941E063E673E08BE01F
:1036700090E00E948E0941E062E673E08CE090E009
:103680000E948E0941E061E673E08DE090E00E94C7
:103690008E0941E06FE573E08EE090E00E948E09B4
:1036A00041E064E673E08FE090E00E948E0941E023
:1036B0006DE573E080E190E00E948E0941E062E7F1
:1036C00073E087E190E00E948E0941E061E973E0D8
:1036D00088E190E00E948E0942E062EB71E081E1B6
:1036E00090E00E948E0942E060EB71E083E190E09F
:1036F0000E948E0942E067E573E085E190E00E9458
:103700008E0941E06FEA71E08DE190E00E948E0940
:1037100042E065E873E08AE290E00E948E0942E0B0
:1037200067E873E08CE290E00E948E0942E06DE869
:1037300073E08EE290E00E948E0942E06FE873E051
:1037400080E390E00E948E0942E06FE773E082E33D
:1037500090E00E948E0942E061E873E084E390E02B
:103760000E948E0942E069E773E086E390E00E94E0
:103770008E0942E06BE773E088E390E00E948E09D7
:103780006091590370915A0380915B0390915C039F
:103790000E94453220E030E044EB53E40E949B312C
:1037A0006B017C018091B4019091B501BC01990F2E
:1037B000880B990B0E9445329B01AC01C701B601F1
:1037C0000E94FA320E940D3260934F0370935003AF
:1037D00080935103909352036B017C01F594E7941D
:1037E000D794C794C0929A03D0929B03E0929C0313
:1037F000F0929D0362E080E00E94A91162E081E006
:103800000E94A91110928B04C0928C04D0928D0456
:10381000E0928E04F0928F04109290044A9B05C0AF
:10382000809190048160809390044B9B05C08091AF
:103830009004826080939004809169008F7C806105
:1038400080936900EA9A809169008F738064809305
:103850006900EB9A60E082E10E94A91160E083E1D7
:103860000E94A91160E084E10E94A9116E9A60E0B3
:1038700086E00E94A911249A1092550310925403D5
:103880001092690310926A0310926B0310926C03FA
:10389000109253031092560361E080919F040E949E
:1038A000A91160E08091A0040E94A91111E0109379
:1038B000A10460E080919F040E9479111093A104FB
:1038C0000E945B126036794081059105C8F30E9421
:1038D000E8171092C2046091720370E080E090E0FB
:1038E0000E94433220E030E040E85EE30E94FA327A
:1038F0006093A2047093A3048093A4049093A504FE
:1039000088E191E09093A8018093A70182E195E07E
:1039100090935E0580935D058BE09DE0909360053C
:1039200080935F05229A1091AF01812F0E94B70901
:103930005C019093AA018093A9019093B1018093B7
:10394000B0016091B2017091B30180E090E00E94FB
:1039500043326B017C01B50180E090E00E9443326C
:103960009B01AC01C701B6010E949B316093AB0182
:103970007093AC018093AD019093AE01012F017063
:1039800010FD05C020E030E04AEF54E404C020E020
:1039900030E04AE754E46091080170910901809198
:1039A0000A0190910B010E94FA3260930801709312
:1039B000090180930A0190930B01011105C020E0D9
:1039C00030E04AEF54E404C020E030E04AE754E439
:1039D00060910401709105018091060190910701A9
:1039E0000E94FA32609304017093050180930601EE
:1039F00090930701011105C020E030E04AEF54E444
:103A000004C020E030E04AE754E460910001709186
:103A1000010180910201909103010E94FA326093AA
:103A200000017093010180930201909303011092B1
:103A300080001092810010926F0016BA8091A90147
:103A40009091AA019093870080938600109289003C
:103A50001092880010928B0010928A008091AF0122
:103A60008274823421F480918100826003C080914D
:103A700081008160809381008091AF0180FF09C047
:103A800080918000826080938000809181008061BD
:103A900008C08091800082608093800080918100C6
:103AA00088618093810080E090E00E94DF13809124
:103AB0008000806880938000259A10928B0010927D
:103AC0008A0080918000806280938000269A61E065
:103AD00083E00E94A91113E061E083E00E94791164
:103AE00064E170E080E090E00E94351260E083E0E5
:103AF0000E94791164E170E080E090E00E9435124C
:103B0000115051F7109273031092740310927503C1
:103B10001092760383E793E00E94EC1380919A035E
:103B200090919B03A0919C03B0919D03F894809386
:103B30008C0490938D04A0938E04B0938F0478949A
:103B40001092700310926F038FEF97E090936E03C3
:103B500080936D0380917203809371030E94101211
:103B600060939E0370939F038093A0039093A1039F
:103B70000E9410126093C7047093C8048093C90414
:103B80009093CA040091A2031091A3032091A4036F
:103B90003091A5036B017C01C01AD10AE20AF30A35
:103BA000C092C304D092C404E092C504F092C6044B
:103BB00000919E0310919F032091A0033091A103D7
:103BC0006B017C01C01AD10AE20AF30A40EDC41667
:103BD00047E0D406E104F10410F40C940030609343
:103BE0009E0370939F038093A0039093A103E2E24E
:103BF000109256038091540390915503829774F06C
:103C000010925503109254031092690310926A03A4
:103C100010926B0310926C03109253038091540323
:103C2000909155038230910564F4892B09F42C9A04
:103C30008091540390915503019709F045C02C9849
:103C400043C09C012170332780FD3AC099B1991F70
:103C50009927991F9093560380915303803258F50A
:103C60004091690350916A0360916B0370916C03FA
:103C700001E010E020E030E0082E04C0000F111F2A
:103C8000221F331F0A94D2F7992329F0402B512B7E
:103C9000622B732B08C0009510952095309540231A
:103CA0005123622373234093690350936A03609303
:103CB0006B0370936C038F5F80935303769A04C0F9
:103CC0002130310509F47698809154039091550381
:103CD00001969093550380935403E15009F088CFE7
:103CE000F89480918C0490918D04A0918E04B091F1
:103CF0008F04789440919A0350919B0360919C03A8
:103D000070919D03841B950BA60BB70B80939603B4
:103D100090939703A0939803B09399038093920391
:103D200090939303A0939403B09395031091910300
:103D300015FB882780F916FD826017FF02C084609A
:103D40001DC08130D9F46A017B01C094D094E09405
:103D5000F0949A01AB012C193D094E095F0960915D
:103D6000890370918A0380918B0390918C030E9448
:103D7000F7332FEF3FEF40E050E032C0823059F48C
:103D80006A017B01C094D094E094F094A0918303E5
:103D9000B091840319C0833059F46A017B01C09447
:103DA000D094E094F094A0917D03B0917E030CC078
:103DB000843021F56A017B01C094D094E094F094A2
:103DC000A0917703B09178039A01AB012C193D09BA
:103DD0004E095F090E94F0302FEF3FE040E050E0D5
:103DE0000E94C630C20ED31EE41EF51EC09292037E
:103DF000D0929303E0929403F09295038090920303
:103E000090909303A0909403B09095038091D00478
:103E10009091D104A091D204B091D3048092D004A7
:103E20009092D104A092D204B092D3042091D804ED
:103E3000222309F449C00091010554E0059F900137
:103E40001124B90160537B4F7B01A5019401281B0C
:103E5000390B4A0B5B0BCA01B9010E944532D701ED
:103E600019966D937D938D939C931C97F02EBAE0D9
:103E7000EB2E60E070E0CB01B4E0FB9EF00111247A
:103E8000E053FB4F21853285438554850E942A31BA
:103E9000FF2011F0FA9402C0A9E0FA2EEA94E11092
:103EA000EBCF20E030E040E251E40E949B310F5F15
:103EB0000A3018F40093010502C0109201056AA7A8
:103EC0007BA78CA79DA70FC081E08093D804109298
:103ED000D4041092D5041092D6041092D7041AA6D6
:103EE0001BA61CA61DA6209102053091030540913A
:103EF0000405509105058AA59BA5ACA5BDA5809399
:103F0000020590930305A0930405B09305058091E5
:103F10000A05882309F444C000915B05E4E00E9F84
:103F2000C0011124BC0167527B4F7B016AA57BA5B0
:103F3000CD010E942931D701D2966D937D938D9347
:103F40009C93D597F02EF4E1EF2E60E070E0CB016A
:103F5000B4E0FB9EF0011124E752FB4F22A933A9E4
:103F600044A955A90E942A31FF2011F0FA9402C0F9
:103F7000E3E1FE2EEA94E110EBCF20E030E040EAEE
:103F800051E40E949B310F5F043118F400935B05EC
:103F900002C010925B056AAB7BAB8CAB9DAB0FC0D4
:103FA00081E080930A051092060510920705109291
:103FB0000805109209051AAA1BAA1CAA1DAA80911D
:103FC0005C05882359F110FF38C70E9455069B01F4
:103FD000AC0160E070E080E094E40E949B316B01F2
:103FE0007C016091640370E080E090E00E944532C3
:103FF0009B01AC01C701B6010E94FA3220E030E01B
:1040000048EC52E40E949B310E940D32AB01C50185
:10401000B4010E948E072B013C0112C7EBEBF1E0CB
:10402000FF8FEE8F1B8A1A8A412C512C32010A898C
:104030001B890F5F1F4F1B8B0A8B4EE19801429F1C
:104040008001439F100D112409511E4FD8018C91FE
:104050008370833009F0E4C60E9455066B017C0131
:10406000F80121853285A789B08D0E9421342FEF78
:104070003FE740E050E00E94C630CA01B9010E940B
:104080004532A70196010E949B310E940D329B018F
:10409000AC01D8011B968D919C911C97059730F42B
:1040A000E4E0F0E01C96FC93EE931B976EE1E62EA5
:1040B000CA88DB88EC9CF001ED9CF00D1124E951DD
:1040C000FE4FE1818E2F90E0FC013197ED30F1053C
:1040D00008F090C6EA5AFF4F0C941B340E94550614
:1040E0006E8B7F8B888F998F2EE10A891B89209F89
:1040F000C001219F900D1124AC0149515E4F1A015E
:10410000DA0119968D909C901A975596AD90BC90B7
:1041100056971F96CD90DC9050975196ED90FC905D
:10412000529753960D911C91549714962C91149775
:1041300013964C91139757968D919C915897EE8DAD
:10414000FF8D608171810E9466069401DC010E94EE
:1041500021342FEF3FE740E050E00E94C630CA0113
:10416000B9010E9445322E893F89488D598D0E94A0
:104170009B310E940D320E9463079B01AC01A0910C
:104180006303B0E00E94E53024E630E040E050E018
:104190000E94C630421A530A640A750A7AC10E9404
:1041A00055066E8B7F8B888F998FBEE1EB2ECA8868
:1041B000DB88EC9CF001ED9CF00D1124E951FE4FE1
:1041C000018512851B8F0A8FC588D688DBA2CAA2FB
:1041D000E784F088FFA2EEA2018912891FA70EA72B
:1041E000038914891EAF0DAF84809380AE8DBF8D7F
:1041F0002D903C90078510896085A7800A2C000CC3
:10420000BB08062E000C770B6A197B09CB01770FD0
:10421000AA0BBB0B6627782F892F9A2F0E94453255
:104220006B017C01B80180E090E00E94433220E005
:1042300030E04AE754E40E949B319B01AC01C70186
:10424000B6010E949B316B017C01C101B8010E9443
:104250000734BC0180E090E00E94433220E030E06F
:104260004AE754E40E949B319B01AC01C701B601AF
:104270000E94FA320E940D32BA2CAA24C501860F80
:10428000971FAAA0BBA0CEA0DFA0EEA4FFA40DADF7
:104290001EAD282D492DB1010E9466062A8D3B8D49
:1042A000DC010E9421342FEF3FE740E050E00E9404
:1042B000C630CA01B9010E9445322E893F89488D16
:1042C000598D0E949B310E940D320E946307461A4D
:1042D000570A680A790A8EC50E9455066A8F7B8F35
:1042E0008C8F9D8FAEE1CA2EEA89FB89CE9EC001DC
:1042F000CF9E900D11248C0109511E4F1801D80139
:1043000019960D90BC91A02DBBA3AAA3F801038C14
:10431000F48DE02DFFA3EEA3D8015D96BC91BEA75E
:10432000F80183849484A588B688C784D088E188FE
:10433000F2880389148924814381AE8DBF8D0D904D
:10434000BC91A02DBF8BAE8B8789908DBD010E9443
:1043500066068C01B40180E090E00E94433220E0C8
:1043600030E04AE754E40E949B319B01AC0160E0DD
:1043700070E080E89FE30E949B316B017C018E8995
:104380009F89B4010E940734BC0180E090E00E9444
:10439000433220E030E04AE754E40E949B319B0125
:1043A000AC01C701B6010E94FA326B017C01BEA5C7
:1043B0006B2F70E080E090E00E94433220E030E01C
:1043C00040E85BE30E94FA329B01AC01C701B601F1
:1043D0000E942A312BED3FE049EC50E40E94FA3272
:1043E0000E9467339B01AC01EEA1FFA16F01FF0F9B
:1043F000EE08FF08B801110F880B990B2FAF239619
:104400003FAF239721964FAF219722965FAF229718
:104410000E9445322FAD23963FAD239721964FAD95
:10442000219722965FAD22970E94FA320E940D32A8
:10443000CB01770FAA0BBB0BA7019601280F391FE1
:104440004A1F5B1FAAA1BBA10E94E5302FEF3FE7E7
:1044500040E050E00E94C630CA01B9010E944532D6
:104460002A8D3B8D4C8D5D8D0E949B310E940D32BB
:104470009B01AC01A0916203B0E00E94E53024E60C
:1044800030E040E050E00E94C630420E531E641EF1
:10449000751ED10116968C91169782FFABC41D969E
:1044A0006D917C911E9780E090E00E9443322BED4D
:1044B0003FE049EC50E40E94FA3220E030E040E076
:1044C00058E30E94FA320E9467339B01AC01C3019A
:1044D000B2012FAF23963FAF239721964FAF21977D
:1044E00022965FAF22970E9445322FAD23963FADB3
:1044F000239721964FAD219722965FAD22970E9478
:10450000FA320E940D322B013C0174C40E94550600
:104510006A8F7B8F8C8F9D8FFEE1EF2ECA88DB88A0
:10452000EC9CF001ED9CF00D1124E951FE4F01854A
:1045300012851BA30AA3238D348DA901330F660BAB
:10454000770B4EA35FA368A779A7558D5EA7238439
:104550003484A588B688C784D088E188F288038926
:10456000148924814381AE8DBF8D0D90BC91A02D07
:10457000BF8BAE8B8789908DBD010E946606BC0102
:10458000990F880B990B0E9445324B015C01B101D8
:1045900080E090E00E94433220E030E04AE754E4BB
:1045A0000E949B319B01AC0160E070E080E89FE3DA
:1045B0000E949B316B017C018E899F89B1010E9411
:1045C0000734BC0180E090E00E94433220E030E0FC
:1045D0004AE754E40E949B319B01AC01C701B6013C
:1045E0000E94FA326B017C01BEA56B2F70E080E067
:1045F00090E00E94433220E030E040E85BE30E941C
:10460000FA329B01AC01C701B6010E942A312BEDA1
:104610003FE049EC50E40E94FA320E9467336B019C
:104620007C0120E030E0A9010E94F53287FF0CC038
:1046300020E030E0A901C701B6010E94963187FF52
:1046400005C0EFEFEEAB02C0F1E0FEABCEA86C2DE3
:10465000CC0C770B880B990B0E9445329B01AC0167
:10466000C501B4010E94FA320E940D32CB01770FCE
:10467000AA0BBB0BDDC10E9455066AA37BA38CA3CA
:104680009DA30EE1EA88FB880E9DF0010F9DF00DC1
:104690001124E951FE4F218532853FA32EA3238D9E
:1046A000348DA901330F660B770B4EA75FA768AB5C
:1046B00079AB358D638574857F8B6E8BA588B688C5
:1046C000C784D088E188F2880389148924814381D2
:1046D000AE8DBF8D0D90BC91A02DBB8FAA8F878909
:1046E000908DBD0123963FAF23970E9466061C0163
:1046F000EE89FF89BF0180E090E00E9443324B01C8
:104700005C0123963FAD239760E4630F70E080E087
:1047100090E00E94433220E030E040E85BE30E94FA
:10472000FA32A50194010E94FA320E9414328A8D55
:104730009B8D860F971F6E897F890E9407348C019D
:10474000BC0180E090E00E94433220E030E04AE784
:1047500054E40E949B316B017C0120E030E0A90110
:104760000E94F53287FD3CC020E030E04AE754E487
:10477000C501B4010E949B316A8F7B8F8C8F9D8F06
:1047800020E030E040E05FE30E94FA329B01AC01A0
:10479000C701B6010E94963187FF22C0B101032CE8
:1047A000000C880B990B0E94453220E030E040E875
:1047B00050E40E94FA322A8D3B8D4C8D5D8D0E9413
:1047C0009B31A70196010E94FA320E940D3231946A
:1047D000219431086101C60ED71ED8AECFAA51C0B0
:1047E00020E030E04AE754E4C501B4010E949B3167
:1047F0004B015C0120E030E040E05FE30E94FA32D0
:104800009B01AC01C701B6010E94F53287FD39C09A
:10481000A5019401C701B6010E94963187FF31C0FE
:10482000B101032C000C880B990B0E94453220E04B
:1048300030E040E850EC0E94FA32A50194010E9459
:104840009B316B017C018E899F8996958795B80174
:10485000681B790B80E090E00E94433220E030E05A
:104860004AE754E40E949B319B01AC01C701B601A9
:104870000E94FA320E940D327101E60EF71EF8AE68
:10488000EFAA0FA918ADC801110FAA0BBB0B2EA5DB
:104890003FA548A959A9280F391F4A1F5B1FAEA180
:1048A000BFA10E94E5302FEF3FE740E050E00E94BB
:1048B000C630CA01B9010E9445322AA13BA14CA1D0
:1048C0005DA10E949B310E940D329B01AC01A09121
:1048D0006203B0E00E94E53024E630E040E050E0C2
:1048E0000E94C630420E531E641E751E83C20E9473
:1048F00055066A8F7B8F8C8F9D8F4EE12A893B896D
:10490000429FF001439FF00D1124E951FE4F618554
:1049100072857BA36AA3238D348DC901330FAA0B43
:10492000BB0B8EA39FA3A8A7B9A7358D238434847E
:10493000A588B688C784D088E188F288038914895D
:1049400024814381AE8DBF8D8D909C908789908D01
:10495000B40123963FAF23970E9466069F8B8E8BF0
:10496000B10180E090E00E9443326B017C0123960C
:104970003FAD239760E8630F70E080E090E00E9415
:10498000433220E030E040E85BE30E94FA32A701C6
:1049900096010E94FA320E941432C401860F971FBA
:1049A000B1010E9407348C0182159305D8F5EE8978
:1049B000FF89BF01FF0F880B990B0E9445329B01B5
:1049C000AC010E942A314B015C0120E030E04AE753
:1049D00054E4C701B6010E949B319B01AC01C501A3
:1049E000B4010E949B316B017C01B80180E090E032
:1049F0000E94433220E030E04AE754E40E949B31B9
:104A00009B01AC01C701B6010E94FA320E940D322F
:104A10002E893F893195219531096901C60ED71E2E
:104A2000DAAEC9AEE9ACFAACC701FF0CAA0BBB0BFE
:104A30002EA13FA148A559A5280F391F4A1F5B1F6A
:104A4000AAA1BBA10E94E5302FEF3FE740E050E074
:104A50000E94C630CA01B9010E9445322A8D3B8DA1
:104A60004C8D5D8D2ECF0E9455066A8F7B8F8C8F6B
:104A70009D8F2EE10A891B89209FF001219FF00D57
:104A80001124E951FE4F418552855BA34AA3238D32
:104A9000348DB901330F880B990B6EA37FA388A7C0
:104AA00099A7358D23843484A588B688C784D08897
:104AB000E188F2880389148924814381AE8DBF8DFA
:104AC0008D909C908789908DB40123963FAF23975A
:104AD0000E9466069F8B8E8BB10180E090E00E9461
:104AE00043326B017C0123963FAD239760E8630F4F
:104AF00070E080E090E00E94433220E030E040E847
:104B00005BE30E94FA32A70196010E94FA320E94EA
:104B10001432C401860F971FB1010E9407348C0123
:104B200082159305D0F56E897F897195619571091C
:104B3000072E000C880B990B0E9445329B01AC019B
:104B40000E942A314B015C0120E030E04AE754E446
:104B5000C701B6010E949B319B01AC01C501B401A4
:104B60000E949B316B017C01B80180E090E00E94C3
:104B7000433220E030E04AE754E40E949B319B013D
:104B8000AC01C701B6010E94FA320E940D32EE89D3
:104B9000FF89E60FF71FFCAFEBAFCBACDCACC60177
:104BA000DD0CAA0BBB0B44CF0EE1EA88FB880E9DFF
:104BB000F0010F9DF00D1124E951FE4F038D148D6E
:104BC000A0916103B0E00E94E53020E436E040E0CF
:104BD00050E00E94C63069017A0120919A03309119
:104BE0009B0340919C0350919D03D8010E94F0309B
:104BF000DC01CB017FE0B595A795979587957A95D0
:104C0000D1F7092E000CAA0BBB0B409192035091D7
:104C1000930360919403709195038A019B01081B93
:104C2000190B2A0B3B0BC901B801A6010E948E0784
:104C3000460E571E681E791EDDC08EE16A897B898B
:104C4000869FF001879FF00D1124E951FE4F038DDF
:104C5000148DA0916003B0E00E94E53024E630E0BE
:104C600040E050E00E94C63069017A01B801110F9E
:104C7000880B990B0E9445322AE939EC4CEC54E43C
:104C80000E949B319B01AC016AA57BA58CA59DA5CB
:104C90000E942931A6010E94BB0862C06EE1C62EA7
:104CA000AA89BB89CA9EF001CB9EF00D1124E9515F
:104CB000FE4F038D148DA0915F03B0E00E94E5309C
:104CC00024E630E040E050E00E94C63069017A01FD
:104CD000B801110F880B990B0E94453220E03EEF7E
:104CE0004FEF56E40E949B319B01AC016AA97BA95E
:104CF0008CA99DA90E942931A6010E94530830C0A9
:104D00000EE1EA88FB880E9DF0010F9DF00D112445
:104D1000E951FE4F038D148DA0915E03B0E00E9417
:104D2000E53024E630E040E050E00E94C630690102
:104D30007A01B801110F880B990B0E9445322AE9BC
:104D400039EC4CEC54E40E949B319B01AC016AA508
:104D50007BA58CA59DA50E942931A6010E94D207A2
:104D6000092E000CAA0BBB0B480E591E6A1E7B1E97
:104D700041C00E9455069B01AC018EE16A897B8986
:104D8000869FF001879FF00D1124E951FE4F838D1E
:104D9000948DBC01990F880B990B2FAF23963FAFD1
:104DA000239721964FAF219722965FAF22970E94BB
:104DB00045322FAD23963FAD239721964FAD2197D6
:104DC00022965FAD22970E949B310E940D320E9475
:104DD00063079B01AC01A0916203B0E00E94E53043
:104DE00024E630E040E050E00E94C630421A530A08
:104DF000640A750A0E945B120091B7011091B80114
:104E00002091B9013091BA01DC01CB01801B910BDB
:104E1000A20BB30BEE8DFF8D80839183A283B383AE
:104E20000E8D1F8D0C5F1F4F1F8F0E8F2A893B89A0
:104E30002B30310509F0FBC803C0412C512C320145
:104E40001091910311FF3AC00E9455069B01AC01DD
:104E5000E091600367E471E0E69FC001E79F900D79
:104E60001124BC01990F880B990B2FAF23963FAFEC
:104E7000239721964FAF219722965FAF22970E94EA
:104E800045322FAD23963FAD239721964FAD219705
:104E900022965FAD22970E949B310E940D32AB019A
:104EA0006AA57BA58CA59DA50E94BB08092E000CB8
:104EB000AA0BBB0B480E591E6A1E7B1E12FF3AC07E
:104EC0000E9455069B01AC01E0915F0367E471E02D
:104ED000E69FC001E79F900D1124BC01990F880B3C
:104EE000990B2FAF23963FAF239721964FAF219772
:104EF00022965FAF22970E9445322FAD23963FAD99
:104F0000239721964FAD219722965FAD22970E945D
:104F10009B310E940D32AB016AA97BA98CA99DA986
:104F20000E945308092E000CAA0BBB0B480E591EF9
:104F30006A1E7B1E13FF3AC00E9455069B01AC01FE
:104F4000E0915E0367E471E0E69FC001E79F900D8A
:104F50001124BC01990F880B990B2FAF23963FAFFB
:104F6000239721964FAF219722965FAF22970E94F9
:104F700045322FAD23963FAD239721964FAD219714
:104F800022965FAD22970E949B310E940D32AB01A9
:104F90006AA57BA58CA59DA50E94D207092E000CB1
:104FA000AA0BBB0B480E591E6A1E7B1E80919A03EA
:104FB00090919B03A0919C03B0919D03AC01BD0116
:104FC00026E075956795579547952A95D1F7841BE7
:104FD000950BA60BB70B40919203509193036091F0
:104FE000940370919503CC24DD247601C81AD90A64
:104FF000EA0AFB0A4C155D056E057F0534F084173F
:105000009507A607B7070CF049C077FD09C06A01EC
:105010007B01C81AD90AEA0AFB0AD701C60104C0F3
:10502000840F951FA61FB71F80939203909393033D
:10503000A0939403B09395030E9455069B01AC0185
:1050400060E07EEF8FEF96E40E949B316B017C0164
:1050500060915D0370E080E090E00E9445329B012A
:10506000AC01C701B6010E94FA3220E030E048EC02
:1050700052E40E949B310E940D326B017C016091D1
:105080009203709193038091940390919503A601EC
:105090000E948E07460E571E681E791EA091B6010B
:1050A000B0E0A30192010E94E53024E630E040E048
:1050B00050E00E94C630CA01B9010E9463076B012B
:1050C0007C0114FF04C00E9490180E943518C09201
:1050D0007303D0927403E0927503F09276036091AB
:1050E00096037091970380919803909199030E9481
:1050F00045326B017C0160914F03709150038091A8
:105100005103909152030E9445329B01AC0160E033
:105110007FEF8FE797E40E949B319B01AC01C701B1
:10512000B6010E94FA320E940D322B013C0161153A
:1051300070488105910534F044244A949FE7592E24
:10514000612C712C411410E851061FEF61067106A5
:1051500034F4412C80E8582E66246A94762C4092D0
:10516000960350929703609298037092990383E795
:1051700093E00E94EC1382E10E94E5119093840376
:105180008093830383E10E94E51190937E038093D3
:105190007D0384E10E94E511909378038093770367
:1051A00010917203809171031817C1F0612F70E0A4
:1051B00080E090E00E94433220E030E040E85EE38F
:1051C0000E94FA326093A2047093A3048093A40413
:1051D0009093A504109371030E94E8178091A00496
:1051E0000E945011811103C00E94521702C01092F8
:1051F000C1044091A6045091A7046091A804709145
:10520000A9048091AA049091AB04A091AC04B09140
:10521000AD04840F951FA61FB71F0091B204109113
:10522000B3042091B4043091B504801B910BA20B00
:10523000B30BBC01CD010090BE0404C095958795C9
:10524000779567950A94D2F70E9445322091A2047F
:105250003091A3044091A4045091A5040E949B3175
:105260000E940D326A8B7B8B8C8B9D8B00916F0320
:10527000109170038091850390918603800F911F98
:105280006C01E12CF12CCE8EDF8EE8A2F9A2C09049
:105290007F03D0908003C00ED11EE12CF12C209111
:1052A0007D0330917E03C901330FAA0BBB0B9C0118
:1052B000AD012C193D094E095F09AFEFBFE00E9417
:1052C000E5302091810330918203201B310B49018D
:1052D000A12CB12CA50194012C193D094E095F099F
:1052E0000E94C6302E8B3F8B488F598F8090790358
:1052F00090907A03800E911EA12CB12C20917703FF
:1053000030917803C901330FAA0BBB0B9C01AD018F
:10531000281939094A095B09AFEFBFE00E94E5305F
:1053200020917B0330917C03201B310B40E050E047
:10533000281939094A095B090E94C63049015A01F6
:105340002091830330918403032E000C440B550BF2
:10535000CE8CDF8CE8A0F9A02C193D094E095F091D
:10536000AFEFBFE00E94E5302091870330918803C2
:10537000201B310B890120E030E0A90198012C1994
:105380003D094E095F090E94C6307901211530415F
:1053900024F0EE24EA940FE0F02EF7FE02C0E12C98
:1053A000F12CF0928403E09283030E891F8901158A
:1053B00020E1120714F00FEF1FE017FF02C000E01A
:1053C00010E010937E0300937D03F401811430E11B
:1053D000930614F0EFEFFFE0F7FF02C0E0E0F0E02B
:1053E000F0937803E093770380916D0390916E03BF
:1053F000A0E0B0E04A895B896C897D89481759072C
:105400006A077B074CF41092890310928A0310926A
:105410008B0310928C0310C02A893B894C895D89CB
:10542000281B390B4A0B5B0B2093890330938A03AB
:1054300040938B0350938C034091890350918A03CE
:1054400060918B0370918C034115510531E0630726
:10545000710524F04FEF5FEF60E070E077FF03C06D
:1054600040E050E0BA014093890350938A0360936F
:105470008B0370938C038091690390916A03A091D0
:105480006B03B0916C0324E0880F991FAA1FBB1F08
:105490002A95D1F78093650390936603A0936703E1
:1054A000B093680320E8521A49825A824B835C8386
:1054B000ED82202F2295207F2F292E83680134E052
:1054C000D694C7943A95E1F7CF82E887F987AC0183
:1054D000BD01E4E07695679557954795EA95D1F734
:1054E0004A87AC01BD01FCE07695679557954795D5
:1054F000FA95D1F74B8714E1B695A79597958795BF
:105500001A95D1F78C874CE050E0BE016F5F7F4F5A
:1055100084E00E94EA0C8091C3049091C404A0919D
:10552000C504B091C60480319742A105B10508F4C5
:1055300067C581E994E00E949D0F181619060CF0CA
:105540004FC581E994E00E94630FE82F8FE98E0F29
:105550008A3108F4E0528E2F90E0FC01E154F10909
:10556000EA31F10508F03CC5ED59FF4F0C941B34AE
:105570008091B4019091B5010E94CA1880E20E9406
:105580002A188091B6010E94D01880E20E942A1841
:10559000809160030E94D01880E20E942A188091B6
:1055A0005E030E94D01880E20E942A188091630353
:1055B0000E94D01880E20E942A18809162030E9403
:1055C000D01880E20E942A18809161030E94D018AE
:1055D00080E20E942A1880915F030E94D01880E226
:1055E0000E942A18809164030E94D01880E20E94D1
:1055F0002A1880915D030E94D01880E20E942A1828
:105600006091B2017091B30180E090E04AE00E94A5
:10561000431880E20E942A18809172030E94D018D9
:1056200080E20E942A18809191030E94D01880E2A3
:105630000E942A186091B0017091B10180E090E061
:105640004AE00E94431880E20E942A1860915903A0
:1056500070915A0380915B0390915C030E949018B3
:1056600080E20E942A186091AF0170E064C283E971
:1056700091E00E94D7188AEF90E00E94CA1888E94A
:1056800091E00E94D7188AE991E00E94D7188CE92E
:1056900091E00E94D7188EE991E00E94D71880EA25
:1056A00091E00E94D7189CC48091CF04082E000C72
:1056B000990B94C4F894C0908C04D0908D04E09021
:1056C0008E04F0908F0478948091B0019091B10194
:1056D0002091B2013091B301821B930B969587956F
:1056E00096958795A0E0B0E089839A83AB83BC83CD
:1056F000CE0101960E94EC13D701C6011EEFF8946B
:1057000080908C0490908D04A0908E04B0908F04B3
:10571000789488159905AA05BB0554F46CE271E0EC
:1057200080E090E00E9435121150D501C40139F794
:1057300019821A821B821C82CE0101960E94EC13F0
:1057400080914F0390915003A0915103B091520367
:10575000F89480938C0490938D04A0938E04B0935E
:105760008F047894C814D904EA04FB0411F482E08D
:1057700001C081E08093CF042FC40E94D918611129
:1057800001C061E06093720327C4F89440908C04D8
:1057900050908D0460908E0470908F047894809166
:1057A0009A0390919B03A0919C03B0919D03481A8A
:1057B000590A6A0A7B0A8091CB049091CC04A0918B
:1057C000CD04B091CE04480E591E6A1E7B1E0E9465
:1057D000D91864307105810591057CF06B017C015D
:1057E000613C7742894091056CF010ECC12E17E2C4
:1057F000D12E19E0E12EF12C05C0B4E0CB2ED12C36
:10580000E12CF12CC982DA82EB82FC826091B40136
:105810007091B501072E000C880B990B0E94453240
:105820004B015C01C301B2010E944532A501940104
:105830000E94FA322B013C0160914F03709150039A
:1058400080915103909152030E9445329B01AC011B
:10585000C301B2010E949B312B013C01C09259034C
:10586000D0925A03E0925B03F0925C03C701B60149
:1058700091C080919A0390919B03A0919C03B09159
:105880009D03F89480938C0490938D04A0938E04D0
:10589000B0938F04789453C1F89480908C049090C6
:1058A0008D04A0908E04B0908F04789480919A0318
:1058B00090919B03A0919C03B0919D03881A990A33
:1058C000AA0ABB0A8091CB049091CC04A091CD048C
:1058D000B091CE04880E991EAA1EBB1E0E94D91834
:1058E0006E3171058105910574F06B017C016930A1
:1058F00077408105910564F0A8E0CA2EA7E0DA2E72
:10590000E12CF12C05C0FEE1CF2ED12CE12CF12CA5
:10591000C982DA82EB82FC82C501B4010E94453261
:105920004B015C016091B4017091B501072E000C30
:10593000880B990B0E9445329B01AC01C501B40153
:105940000E94FA324B015C0160914F037091500349
:1059500080915103909152030E9445329B01AC010A
:10596000C501B4010E949B312B013C01D092B501CD
:10597000C092B401B601DD0C880B990B0E94453230
:105980004B015C016091590370915A0380915B0354
:1059900090915C030E94453220E030E044EB53E4F8
:1059A0000E949B31A50194010E94FA320E940D329F
:1059B00060934F037093500380935103909352036D
:1059C0006B017C01F594E794D794C794C0929A0335
:1059D000D0929B03E0929C03F0929D030E9445327B
:1059E0009B01AC01C301B2010E94FA32A5019401EE
:1059F0000E949B310E940D32C60ED71EE81EF91E72
:105A00008091CB049091CC04A091CD04B091CE04B0
:105A1000C81AD90AEA0AFB0AF894C0928C04D092F8
:105A20008D04E0928E04F0928F047894D5C20E9487
:105A3000D918262F6091910380E090E030E0F901C1
:105A4000082E02C0F595E7950A94E2F7C12CD12CF7
:105A50007601C394082E04C0CC0CDD1CEE1CFF1C88
:105A60000A94D2F7E0FF02C06C2902C0C0946C21F6
:105A700001968830910519F76093910370E080E0FA
:105A800090E042E00E9443180E943518A9C20E948B
:105A9000D9188091AF0120E030E070E0AB01022E18
:105AA00002C0559547950A94E2F7C12CD12C760196
:105AB000C394022E04C0CC0CDD1CEE1CFF1C0A9407
:105AC000D2F740FF02C08C2902C0C0948C212F5F06
:105AD0003F4F2830310511F78093AF0141E06FEA65
