:100000000C9418040C9440040C94EA080C9408090D
:100010000C94F9080C9440040C9440040C94400493
:100020000C9440040C9440040C940B0C0C94AE09FA
:100030000C9440040C9440040C9440040C94400430
:100040000C9440040C9440040C9440040C94400420
:100050000C9440040C9440040C9440040C946612DC
:100060000C9440040C9440040C9440040C94400400
:100070000C9440040C9440040C9440040C944004F0
:100080000C9440040C9440040C9440040C944004E0
:100090000C94B0120C9440040C9440040C94400452
:1000A0000C9440040C9440040C944004CD202F2167
:1000B0002123CC21D623D425132572262627582781
:1000C0008A270A28C427D82F032D6D2DF4301D2E22
:1000D0008130782DA32EF430F430F430F430F43045
:1000E000F4300B2DA32EF430AF2CA92CF430012CBE
:1000F000802C4D2EF430A62EA32EBD2ED72EF12E01
:100100000B2F252F3F2F592F732FF430F430F4305D
:10011000F430F430F430F430F430F4308D2FBB3060
:10012000C0309D30A230F430A7309830F430B63073
:10013000C530F430F430B130F430F430F430F43011
:10014000F430AC307011731166116A11941194116E
:10015000941177117B117F118511891194118F11E1
:1001600005A84CCDB2D44EB93836A9020C50B9917D
:100170008688083CA6AAAA2ABE000000803F00008C
:100180000000000000002A2B2800000000000000F2
:1001900000000000000000000000000000002C9E95
:1001A000B4A0A1A2A434A6A7A5AE362D3738271E29
:1001B0001F20212223242526B333B62EB7B89F84CF
:1001C00085868788898A8B8C8D8E8F909192939467
:1001D00095969798999A9B9C9D2F3130A3AD3504A5
:1001E00005060708090A0B0C0D0E0F101112131447
:1001F00015161718191A1B1C1DAFB1B0B500080B46
:1002000000020202010009040000010202000005D0
:10021000240010010524010101042402060524061E
:1002200000010705810310004009040100020A00D3
:10023000000007050202400000070583024000009D
:10024000090402000203000000092101010001224B
:10025000E104070584034000010705050340000190
:1002600005010904A10185040901A1000930170055
:1002700000000027FFFF0000350047FFFF0000756A
:100280001095018102093116000027FFFF0000359B
:100290000047FFFF0000751095018102093216002A
:1002A0000027FF0F0000350047FF0F0000750C9579
:1002B000018102093316000027FF0F0000350047B7
:1002C000FF0F0000750C950181020934160000270C
:1002D000FF0F0000350047FF0F0000750C950181EE
:1002E000020939150125083500463B016514550002
:1002F0007504950181020509150025015500650069
:100300001901291875019518810285F10901150057
:1003100026FF00953F7508918285F20901953F758A
:10032000088182C0050F0992A1028502099F09A0D8
:1003300009A409A509A61500250135004501750187
:100340009505810295038103099415002501350067
:100350004501750195018102092215012528350104
:100360004528750795018102C00921A1028501096F
:1003700022150125283501452875089501910209A6
:1003800025A1020926092709300931093209330953
:10039000340940094109420943250B15013501453E
:1003A0000B750895019100C009500954150027FFED
:1003B000FF0000350047FFFF000066011055FD7586
:1003C000109502910255006600000952150026FFA3
:1003D0007F350046FF7F7510950191020953150185
:1003E0002508350145087508950191020955A102B6
:1003F00005010930093115002501750195029102A9
:10040000C0050F095695019102950591030957A161
:10041000020B01000A000B02000A0066140055FEE0
:10042000150026FF7F3500479F8C00007510950151
:1004300091025500660000C0050F09A7660110551E
:10044000FD150027FFFF0000350047FFFF00007586
:1004500010950191026600005500C0050F095AA1D0
:1004600002850209221501252835014528750895C0
:10047000019102095B095D150026FF00350046FF6A
:100480007F750895029102095C095E66011055FDB1
:1004900026FF7F46FF7F751095029102660000558A
:1004A00000C0095FA1028503092215012528350135
:1004B000452875089501910209231500250135008D
:1004C00045017504950191020958A1020B01000A2A
:1004D000000B02000A00750295029102C009601625
:1004E000008026FF7F36008046FF7F7510950191C2
:1004F00002096136008046FF7F95019102150026B2
:10050000FF7F350046FF7F09637510950191020951
:1005100065150026FF0046FF7F750895019102C012
:10052000096EA102850409221501252835014528F7
:100530007508950191020970150026FF7F35004668
:10054000FF7F751095019102096F16008026FF7FCD
:1005500036008046FF7F950191020971150026FF44
:100560000035004667016614005500750895019135
:1005700002097227FFFF000047FFFF00006601101D
:1005800055FD7510950191026600005500C0097374
:10059000A102850509221501252835014528750880
:1005A00095019102097016018026FF7F3601804671
:1005B000FF7F751095019102C00974A1028506099B
:1005C0002215012528350145287508950191020954
:1005D0007509761581257F36018046FF7F75089560
:1005E000029102C0050F0977A102850A09221501AF
:1005F0002528350145287508950191020978A10241
:100600000979097A097B150125037508950191007F
:10061000C0097C150026FF00350046FF009102C08E
:100620000990A102850B09221501252835014528CD
:10063000750895019102C00996A102850C099709D8
:10064000980999099A099B099C1501250675089531
:10065000019100C0097DA102850D097E150026FFCC
:10066000003500461027750895019102C009ABA11D
:100670000285050925A10209260927093009310942
:10068000320933093409400941094209431501255A
:100690000B3501450B75089501B100C00501093BFB
:1006A000150026FF01350046FF01750A9501B102CC
:1006B0007506B101C0050F0989A102850609222529
:1006C0002815013501452875089501B102098BA14E
:1006D00002098C098D098E25031501350145037525
:1006E000089501B100C009AC150027FFFF000035D7
:1006F0000047FFFF000075109501B100C0097FA100
:10070000028507098075109501150027FFFF00007D
:10071000350047FFFF0000B102098326FF0046FFB6
:100720000075089501B10209A909AA75019502157C
:1007300000250135004501B10275069501B103C0E0
:10074000C01803410072006400750069006E006FFC
:100750000020004C004C0043000403090422034124
:100760000072006400750069006E006F0020004D8B
:10077000006900630072006F00200020002000125A
:100780000100020000004041233780000101020007
:1007900001120100020200004041233780000101E4
:1007A00002000100C18081C1C007060504010008E4
:1007B0000A0B0C0D0900000000240027002A002D60
:1007C00000300000000000250028002B002E003122
:1007D00000040404040403040502020202040302E8
:1007E00002020206060606060604040202020404C9
:1007F0000408020110408040102040804080080220
:100800000401804020100201108010204040200090
:1008100000000200080E0000030401000B000000AD
:1008200000000000000000000000000000000E3189
:1008300011241FBECFEFDAE0DEBFCDBF11E0A0E094
:10084000B1E0ECEAFAE602C005900D92A239B107D8
:10085000D9F725E0A2E9B1E001C01D92AE3DB20793
:10086000E1F714E0C8E1D4E004C02197FE010E9442
:100870004235C731D107C9F70E946C1A0C94543520
:100880000C940000CF92DF92EF92FF926091A10151
:100890007091A201072E000C880B990B0E946C33FB
:1008A0006B017C01609177037091780380917903EB
:1008B00090917A030E946C339B01AC01C701B60191
:1008C0000E94C232FF90EF90DF90CF9008958C305D
:1008D000F8F4282F30E093E2899FF0011124ED52C3
:1008E000FE4F90819923A1F090819D7F9083F90123
:1008F000EF51FC4F958191110BC0E0919301F09164
:1009000094010084F185E02D09951092F10308957A
:100910000895FC01CB012091E80022FFFCCF282F95
:10092000215028F03091F10030833196F9CF24E640
:100930002093CF032BEF2093E80008950F931F938C
:10094000CF93DF93DB01A40FB51FFB016EEFEA1716
:10095000FB0791F187FF02C0249101C02081009123
:10096000D3031091D403C091D103D091D2030C17BB
:100970001D07B4F49091E8009570E1F39091E800C0
:1009800092FD1CC02093F1002091D3033091D40339
:100990002F5F3F4F2F733327232B11F46093E80011
:1009A0002091D3033091D4032F5F3F4F3093D40372
:1009B0002093D3033196CBCFCA0102C08FEF9FEFB4
:1009C000DF91CF911F910F910895CF93DF9300D0C6
:1009D00000D01F92CDB7DEB7FC0181819081913AA2
:1009E00029F5813009F0BCC08281863051F445E0A0
:1009F00050E06CED73E080E40E949E041092DC03F2
:100A0000AFC0873009F0ACC089838FEF9FEF9B8325
:100A10008A838BE08C8383E08D8345E050E0BE01C8
:100A20006F5F7F4F80E40E949E049AC0913209F06C
:100A300097C0893009F094C08281853009F090C058
:100A400064E070E0CE0101960E94890486E0809304
:100A5000DC0380910F018B3021F1A0910F0181E027
:100A60008A0F80930F0193E2E0910F019E9FF001A6
:100A70001124ED52FE4F8081882351F080910F01A7
:100A80008B3030F480910F018F5F80930F01ECCF9A
:100A900083E2A89FF0011124ED52FE4F81E0808394
:100AA00001C0A0E0A093DD03A11104C082E0809307
:100AB000DE0350C01092CA0581E08093DE038A8174
:100AC00093E2A99FD0011124AD52BE4F11968C9391
:100AD00011978FEF9FEF50969C938E931F9754968C
:100AE0001C921E92539752961C921E9251971396E7
:100AF0008C93139714968C93149756961C921E926F
:100B000055971E961C921E921D9716961C9216972C
:100B10008FEF9FE71A969C938E93199758961C9285
:100B20001E9257975C961C921E925B975D961C9244
:100B30005D9788EE93E01C969C938E931B97E091B3
:100B40009301F09194010684F785E02DBD01CE015B
:100B5000019609958FEF9FEF9093E0038093DF0359
:100B600081E00F900F900F900F900F90DF91CF9139
:100B7000089542E450E06EEF71E080E80E949E0428
:100B800040E250E060E472E080E80E949E0483E06E
:100B900090E00895EF92FF921F93CF93DF93EC01C3
:100BA000162FE881F9810480F581E02D09957C01FB
:100BB000E881F9810680F781E02D612FCE0109954A
:100BC000C7019927DF91CF911F91FF90EF90089572
:100BD000FC0191818081813A29F49D7F81E09130EF
:100BE00091F414C0813279F49A3049F09B3019F0B5
:100BF000993049F40AC0828180930E0106C0828137
:100C000080930D0102C080E0089581E008958C304A
:100C1000F0F493E2899FF0011124ED52FE4F8081A0
:100C20008823A9F08081826080838091F103811103
:100C30000EC00E945A126093A3017093A401809386
:100C4000A5019093A60181E08093F1030895089592
:100C5000609195017091960180E090E00E946A3366
:100C60009B01AC0160E07EEF8FEF96E40E94C23200
:100C700008952F923F924F925F926F927F928F9240
:100C80009F92AF92BF92CF92DF92EF92FF920F931B
:100C90001F93CF93DF93CDB7DEB729970FB6F894A4
:100CA000DEBF0FBECDBF998788874B012B831D8385
:100CB0000C831701DF82CE82042F10E08C819D818E
:100CC0006C01E12CF12CE885F985F7FD2BC0C801FA
:100CD0009695982F882797958795BF01681B790B64
:100CE000072E000C880B990B0E946C332B013C01E2
:100CF000C701B6010E946A339B01AC01C301B20176
:100D00000E94C2322B013C01C8019695982F88277A
:100D1000979587959A838983EB8190E8E99FB00145
:100D200011242AC0B8017695762F662777956795A6
:100D3000E885F9856E0F7F1F072E000C880B990B35
:100D40000E946C332B013C01C701B6010E946A333B
:100D50009B01AC01C301B2010E94C2322B013C01D4
:100D600060E86003C001619F900D11249A8389831C
:100D70002B816203B001112488859985681B790B4A
:100D8000072E000C880B990B0E946C336B017C01C1
:100D9000B10180E090E00E946A339B01AC01C70181
:100DA000B6010E94C2326B017C018A149B0408F4D4
:100DB0003FC08E819F818A0D9B1D88169906C0F5C4
:100DC0000C811D810A0D1B1D8016910690F4B40143
:100DD0006A197B0980E090E00E946A339B01AC01B4
:100DE000C301B2010E9460340E94343389819A8128
:100DF0001CC08219930988159905E8F48A189B0884
:100E0000EE81FF818E1A9F0AB401620D731D80E08E
:100E100090E00E946A339B01AC01C701B6010E94B9
:100E200060340E94343388859985860F971F05C0EA
:100E300080E090E002C08885998529960FB6F894E5
:100E4000DEBF0FBECDBFDF91CF911F910F91FF90FD
:100E5000EF90DF90CF90BF90AF909F908F907F905A
:100E60006F905F904F903F902F900895CF92DF92B8
:100E7000EF92FF920F931F938B019C0140919C0175
:100E800050919D016A01E12CF12C66277727CB0157
:100E90006C197D098E099F0906171707280739075E
:100EA0004CF0C901B801C016D106E206F30614F4ED
:100EB000C701B6011F910F91FF90EF90DF90CF9087
:100EC00008958F929F92AF92BF92CF92DF92EF924E
:100ED000FF92CF93DF934B015C01EA010E94420431
:100EE0006B017C01DE01A50194010E9412320E9477
:100EF0006C33A70196010E94603420E030E040E0AE
:100F000051E40E94603420E030E040E251E40E946D
:100F1000603420E030E040E85BE30E9460340E94EF
:100F200034330E94360790958095709561957F4F78
:100F30008F4F9F4FDF91CF91FF90EF90DF90CF9039
:100F4000BF90AF909F908F9008954F925F926F9255
:100F50007F928F929F92AF92BF92CF92DF92EF9249
:100F6000FF92CF93DF9300D000D0CDB7DEB74B0117
:100F70005C0157FF02C04D5F5F4F6A01D594C79473
:100F8000D594C7940E94420469837A838B839C839F
:100F90009B01AC01C501B4010E94603420E030E047
:100FA00040E251E40E9460342B013C0120E030E03B
:100FB00040E85FE30E945B340D2C000CEE08FF0854
:100FC00018161CF4C701B60128C020E030E040E844
:100FD0005FEBC301B2010E94B83287FF06C0C701B0
:100FE000B6010E943607CB011EC0C701B6010E94A0
:100FF0006C339B01AC01C501B4010E9460342981AE
:101000003A814B815C810E94603420E030E040E214
:1010100051E40E9460340E9434330E9436078827CE
:101020009927861B970B0F900F900F900F90DF91D1
:10103000CF91FF90EF90DF90CF90BF90AF909F90B7
:101040008F907F906F905F904F9008958F929F92B6
:10105000AF92BF92CF92DF92EF92FF924B015C0171
:10106000BA01550F880B990B0E946C336B017C0100
:1010700020E030E0A901C501B4010E945B34A50164
:10108000940118160CF05058C701B6010E94603444
:101090006B017C010E9442049B01AC01C701B601B7
:1010A0000E94603420E030E040E851E40E94603467
:1010B00020E030E040E251E40E94603420E030E083
:1010C00040E05DE30E9460340E9434330E943607A2
:1010D0006B017C0120E030E0A901C501B4010E9450
:1010E0005B3418162CF4882799278C199D090DC09C
:1010F00020E030E0A901C501B4010E94B83287FFA9
:1011000002C0C60102C080E090E0FF90EF90DF9047
:10111000CF90BF90AF909F908F900895CF92DF9225
:10112000EF92FF92CF93DF936B017C01EA0120E005
:1011300030E0A9010E945B34181694F020E030E002
:10114000A901C701B6010E94B83287FF3AC020E06A
:1011500030E0A901C701B6010E944C326B017C014D
:10116000BE01DD0F880B990B0E946C339B01AC0113
:10117000C701B6010E9460346B017C010E944204E9
:101180009B01AC01C701B6010E94603420E030E051
:1011900040E851E40E94603420E030E040E251E455
:1011A0000E94603420E030E040E05BE30E94603465
:1011B0000E9434330E94360788279927861B970B95
:1011C00002C080E090E0DF91CF91FF90EF90DF9040
:1011D000CF9008951F920F920FB60F9211248F9304
:1011E00081E080937B038F910F900FBE0F901F9033
:1011F00018951F920F920FB60F9211248F9381E0D2
:1012000080937B038F910F900FBE0F901F901895C6
:101210001F920F920FB60F9211242F933F934F936B
:101220005F936F937F938F939F93AF93BF93EF934E
:10123000FF939091DB0389B18C70892B90E09C0126
:1012400035952795359527952093DB034091D70356
:101250005091D8036091D9037091DA03FC01EC5CE2
:10126000FE4F8081082E000C990BAA0BBB0B840F3C
:10127000951FA61FB71F8093D7039093D803A09301
:10128000D903B093DA038091D603FF91EF91BF9118
:10129000AF919F918F917F916F915F914F913F910E
:1012A0002F910F900FBE0F901F901895CF92DF9245
:1012B000EF92FF920F931F93CF93DF931F92CDB7BF
:1012C000DEB7F82EE42E8B01C82ED92E8C2D8F1967
:1012D0008E1588F4F80161918F01C60169830E941F
:1012E000D2316981681719F0C6010E94DA31FFEF27
:1012F000CF1ADF0AEBCF0F90DF91CF911F910F91A3
:10130000FF90EF90DF90CF900895CF92DF92EF9211
:10131000FF920F931F93CF93DF931F92CDB7DEB74A
:101320008B016B017C01E61AF70A9C2D901B941728
:1013300058F4C7018C0D9D1D49830E94D231F601DE
:1013400081936F014981F1CF0F90DF91CF911F9170
:101350000F91FF90EF90DF90CF9008951F920F9222
:101360000FB60F921124EF92FF921F932F933F938A
:101370004F935F936F937F938F939F93AF93BF939D
:10138000EF93FF93CF93DF93CDB7DEB76197DEBFC7
:10139000CDBF1092E9008091E80083FF59C1FE01A2
:1013A0003A96CF0128E02E0F2E1729F03091F10048
:1013B00030833196F9CF24E62093CF0322EF209398
:1013C000E8002A8527FF05C03091E80030FFFCCFF8
:1013D00003C03EEF3093E800322F307609F0C5C0ED
:1013E0008B85811105C01092F1001092F10029C186
:1013F000982F9D7F913009F424C1853049F4809164
:10140000E80080FFFCCF8C8580688093E30019C1E1
:10141000863009F07CC01D85E888F9881092E900C3
:101420001092D4031092D303123091F51092D2038C
:101430001092D1030E94B90599E0BE016F5F7F4F02
:10144000FB01292F11922A95E9F799831A8391E0DC
:101450009E8390E898879AEF99872091D3033091E3
:10146000D403275F3F4F3C832B838D831092E90089
:101470001092D4031092D303F092D203E092D103DE
:1014800049E050E080E00E949E040E94B905D9C066
:10149000F092D203E092D103123259F441EE54E0BB
:1014A00060E672E080E80E949E04892B09F0C9C0C2
:1014B000CCC0113069F488899989089711F4109388
:1014C000D0038091D003811111C06FE777E016C07F
:1014D000133009F0BAC08C85882359F0823061F04E
:1014E000813009F0B2C061E477E008C061E977E0DB
:1014F00005C069E577E002C06DE577E0611571052B
:1015000009F4A3C0FB01449150E080E849C0873052
:1015100009F49BC0883021F481E08093F10091C0F0
:10152000893009F08EC0237009F08FC080E090E010
:1015300031E026E341E0480F4093E9003093EB00AF
:101540000196FC01ED55F84FE491E093EC002093F7
:10155000ED008530910571F78EE78093EA001092D7
:10156000EA008C85809392016CC028893989109299
:10157000E9001092D4031092D3033093D203209346
:10158000D1032E85211154C08B859A85913A59F447
:10159000813209F05AC047E050E060E171E080E03C
:1015A0000E949E044EC0913209F04FC0803239F43F
:1015B00067E070E080E191E00E94890442C08232DD
:1015C00009F043C08C8580931701809110019091A0
:1015D0001101A0911201B0911301803B9440A1052B
:1015E000B10579F58091170180FD11C087E797E774
:1015F00090930108809300089BE088E10FB6F8946F
:10160000A895809360000FBE909360001AC00FB63B
:10161000F894A89580916000886180936000109292
:1016200060000FBEA895109201081092000809C032
:10163000223059F4E091CD05F091CE05099588232B
:1016400021F08EEF8093E80003C081E28093EB00ED
:1016500061960FB6F894DEBF0FBECDBFDF91CF917C
:10166000FF91EF91BF91AF919F918F917F916F917A
:101670005F914F913F912F911F91FF90EF900F90AD
:101680000FBE0F901F9018958F929F92AF92BF92AE
:10169000CF92DF92EF92FF920F931F93CF93DF933E
:1016A00000D01F92CDB7DEB7382F8B018091920109
:1016B000882389F04A018AEFF82E832F8770E82E5D
:1016C00090E4C92E832F8072B82E2AE3D22E832F66
:1016D0008074A82E21C08FEF9FEF5FC08FB7F89462
:1016E000E092E9009091E80095FF1AC09091F20015
:1016F0002C2D291B8FBF211115C0FA94FF2059F3FF
:1017000061E070E080E090E039834A835B830E946F
:10171000341239814A815B8181149104F9F634C015
:1017200020E0E8CF822F90E0881699060CF4282D4F
:10173000822F90E0881A990A6FB7F894E092E90036
:10174000BB2029F02150A8F01092F100FBCFF80146
:1017500037FF07C0215058F074917093F100319613
:10176000F9CF215020F071917093F100FACF080F5A
:10177000191F8091E80085FF0DC08114910411F4B8
:10178000A11008C06FBFC8CF5D9A84E68093D503CF
:10179000CA0103C0D092E800F5CF0F900F900F90D0
:1017A000DF91CF911F910F91FF90EF90DF90CF903D
:1017B000BF90AF909F908F90089590919201992340
:1017C00011F057FF03C08FEF9FEF08952FB7F894E4
:1017D00087708093E9008091F20090E0841795076C
:1017E0000CF4AC01842FFB0194E6815030F090930F
:1017F000CF033091F1003193F8CF4115510521F01D
:101800008091F200882319F02FBFCA0108958BE65A
:101810008093E800F9CF1F920F920FB60F92112418
:101820002F933F934F935F936F937F938F939F93E8
:10183000AF93BF93EF93FF93CF93DF93CDB7DEB713
:10184000C054D109DEBFCDBF8091E1001092E1000C
:1018500083FF0FC01092E90091E09093EB0010928B
:10186000EC0092E39093ED001092920198E0909337
:10187000F00082FF46C083E08093E9008091F2008F
:10188000882319F08AE38093E8009FB7F89482E0F8
:101890008093E9008091F2009FBF882321F082E0CD
:1018A00095E00E940E119FB7F89485E08093E900BF
:1018B0008091F2009FBF8823C1F08091CF05909165
:1018C000D005892B91F040E450E0BE016F5F7F4F5F
:1018D00085E00E94DD0B97FD08C0E091CF05F091F7
:1018E000D005BC01CE01019609958091D5038823CE
:1018F00041F08091D50381508093D503811101C0BF
:101900005D98C05CDF4F0FB6F894DEBF0FBECDBF51
:10191000DF91CF91FF91EF91BF91AF919F918F9107
:101920007F916F915F914F913F912F910F900FBEDB
:101930000F901F901895EF92FF920F931F93CF93E4
:10194000DF931F92CDB7DEB789838B017A0141E027
:1019500050E0BE016F5F7F4F84E00E94440BA701FF
:10196000B80184E40E94440B0F90DF91CF911F9146
:101970000F91FF90EF9008951F93CF93DF93DC01B9
:1019800011961C9111979C91953009F467C060F5F0
:10199000923009F443C0A8F4913009F04DC1E091B0
:1019A0009301F091940123E2129FB00111246D5232
:1019B0007E4F028CF38DE02DCD01DF91CF911F91F1
:1019C00009949330C9F1943009F036C1E091930144
:1019D000F091940123E2129FB00111246D527E4FC9
:1019E0000488F589E02D35C09B3009F49DC038F49A
:1019F000963009F441C09A3009F44CC01DC19C30A6
:101A000009F4CBC0913F09F017C140E450E0BD019B
:101A100082EFDF91CF911F910C949B0CE091930189
:101A2000F091940133E2139FB00111246D527E4F67
:101A30000088F189E02D0DC0E0919301F0919401AF
:101A400083E2189FB00111246D527E4F0288F38902
:101A5000E02DCD01DF91CF911F910994E091930189
:101A6000F091940133E2139FB00111246D527E4F27
:101A70000688F789E02DEDCFE0919301F091940174
:101A800083E2189FB00111246D527E4F008CF18DBE
:101A9000E02DDFCF1F3F09F41FE712969C91913094
:101AA00099F4812F0E940706E12FF0E0EF51FC4FDF
:101AB00085818111C1C0E0919301F091940106806C
:101AC000F781E02D812F47C0923029F5C1E08C2F9E
:101AD0000E946704CF5FCC30D1F7C12FD0E0CF5147
:101AE000DC4F8D81811109C0E0919301F091940147
:101AF0000084F185E02D8FE70995812F0E9407066C
:101B00008D81811199C0E0919301F091940106803B
:101B1000F781E02D1FC0933009F08EC0812FDF9137
:101B2000CF911F910C94670481E01F3FC1F4809313
:101B30000F0184EA91E0E3EDF1E0DF019C011D92E9
:101B400021503040E1F7E0919301F091940102843B
:101B5000F385E02D8FE7DF91CF911F91099480935A
:101B6000CA051C3008F068C033E2139FF00111244D
:101B7000ED52FE4F108280910F01181710F4109350
:101B80000F01E0919301F09194010284F385E02D1F
:101B9000812F09951092F1034FC082E08093F203E8
:101BA0009091F30394609093F3039091F303906109
:101BB0009093F3031092F4031330B1F040F411301A
:101BC00079F01230C9F58091F303826033C015308B
:101BD00071F1B0F0163081F58091F3038E7F2AC049
:101BE0008091F3038D7F26C0E0919301F0919401E1
:101BF0000480F581E02D80E009951092F4031CC06B
:101C0000E0919301F09194010480F581E02D81E051
:101C1000099581E080930F0184EA91E0E3EDF1E022
:101C2000DF019C011D9221503040E1F705C08091F9
:101C3000F30381608093F303DF91CF911F910895A7
:101C4000DC01683810F0685825C0E62FF0E067FF27
:101C500012C0E058F10981E090E001C0880FEA95D8
:101C6000EAF7809514969C911497892314968C9387
:101C7000149760E00FC0E258FE4F6491662311F1A3
:101C800067FF08C014968C9114978D7F14968C93DF
:101C900014976F77FD01369686E0662321F09081D8
:101CA000961301C01082815031968111F6CFBD018B
:101CB0006C5F7F4F48E050E082E00E949B0C81E027
:101CC00090E0089580E090E00895FC01168217826C
:101CD00010861186128613861482BC016C5F7F4FBA
:101CE00048E050E082E00C949B0CDC01683810F076
:101CF00068582DC0E62FF0E067FF11C0E058F109E9
:101D000081E090E001C0880FEA95EAF714969C9173
:101D10001497892B14968C93149760E018C0E2589E
:101D2000FE4F6491611109C081E090E013969C938D
:101D30008E93129780E090E0089567FF08C0149694
:101D40008C911497826014968C9314976F771696E3
:101D50008C911697861751F117968C9117978617C5
:101D600029F118968C911897861701F119968C9184
:101D700019978617D9F01A968C911A978617B1F091
:101D80001B968C911B97861789F0FD01369680E093
:101D900090E02191211105C0FD01E80FF91F668334
:101DA00005C0019686309105A1F7BECFBD016C5FDD
:101DB0007F4F48E050E082E00E949B0C81E090E081
:101DC0000895CF92DF92EF92FF920F931F93CF93DC
:101DD000DF936C01EB017B01E40EF51E00E010E0E7
:101DE000CE15DF0561F06991D601ED91FC9101906E
:101DF000F081E02DC6010995080F191FF1CFC80128
:101E0000DF91CF911F910F91FF90EF90DF90CF90D6
:101E1000089583E08093E9008091F200882319F00F
:101E20008AE38093E80008952091B1043091B204D0
:101E30008091B3049091B40428173907A9F0E09178
:101E4000B304F091B404EF58FB4F80812091B304A8
:101E50003091B4042F5F3F4F2F7333273093B40476
:101E60002093B30490E008958FEF9FEF08952091A1
:101E7000B1043091B2048091B3049091B404281756
:101E8000390749F0E091B304F091B404EF58FB4FE7
:101E9000808190E008958FEF9FEF08958091B104C5
:101EA0009091B2042091B3043091B404821B930B3F
:101EB0008F739927089585ED8093BC008091BC00B5
:101EC00084FDFCCF1092FB04089540914304262F1B
:101ED00030E0240F311D21323105DCF42091FB0468
:101EE0002430C9F4FC0180E090E0861758F430916A
:101EF00043042191DC01AF5DBB4FA30FB11D2C93B7
:101F00000196F3CF80914304680F6093430480E00F
:101F1000089581E0089582E008950895E091FD0418
:101F20008091FC04E81730F4F0E0EB54FB4F808123
:101F300090E008958FEF9FEF08959091FD048091B8
:101F4000FC04981750F4E92FF0E0EB54FB4F20818C
:101F500030E09F5F9093FD0402C02FEF3FEFC90177
:101F600008958091FC0490E02091FD04821B91096A
:101F70000895CF92DF92EF92FF920F931F93CF932A
:101F8000DF937C01262F972F8A01809101058823FA
:101F900091F0C62FD72F6E01C40ED51ECC15DD05CE
:101FA00071F06991D701ED91FC910190F081E02DE4
:101FB000C7010995F3CF642F822F0E94650FC801D6
:101FC000DF91CF911F910F91FF90EF90DF90CF9015
:101FD0000895CF93DF931F92CDB7DEB76983209129
:101FE00001052223D1F02091FE04203240F021E0AF
:101FF00030E0FC013383228380E090E015C08091C3
:10200000FF04E82FF0E0EF5FFB4F998190838F5F33
:102010008093FF048093FE0405C061E0CE01019629
:102020000E94650F81E090E00F90DF91CF910895BD
:102030000895CF93DF93FC01EB0171818281898345
:10204000878190859A878987258536854381548144
:1020500063E2769FC00111248D529E4FDC015096A1
:102060005C934E931F9756963C932E93559764E03E
:10207000769FD0011124AD55BE4F1D921D921D9229
:102080001C921397838594859E878D8782858E8386
:1020900081E0DF91CF910895FC012281FB0127832C
:1020A000FC018381FB0180870895FC01828193817B
:1020B000FB01908F878B0895DC01FB0112968D91B7
:1020C0009C911397908F878B14968D919C91159767
:1020D000948F838F16968C911697858F17968D9176
:1020E0009C911897948783870895DC01FB011296D1
:1020F0008C91129782838281811110C015968D91E7
:102100009C911697908F878B13968D919C91149725
:10211000948F838F17968C91858308958281813067
:1021200079F415968D919C91169790A3878F1396AD
:102130008D919C91149792A381A317968C91868F71
:102140000895DC01FB0112968C91129783831396FC
:102150008C911397848314968D919C911597948BF1
:10216000838B16968D919C911797928B818B0895F6
:1021700093E2899FF0011124ED52FE4F708B678727
:10218000568B458B94E0899FF0011124ED55FE4F4D
:102190001082118212821382089508950895109278
:1021A000CA0524E0829FC0011124FC01ED55FE4FB9
:1021B0001082118212821382089525E0FC0120838F
:1021C00084E491E0089508958093CA0508950E94DB
:1021D0004F350F931F93CF93DF931F92CDB7DEB789
:1021E0008C01698380911701882359F041E050E008
:1021F000BE016F5F7F4F83E00E94440B18161906E3
:102200003CF081E090E0F8019383828380E090E0ED
:102210000F90DF91CF911F910F9108950F931F930E
:10222000CF93DF931F92CDB7DEB70091B104109129
:10223000B2040F5F1F4F0F7311278091B304909169
:10224000B40408171907F9F041E050E0BE016F5FD0
:102250007F4F82E00E94DD0B019719F4898190E0A5
:1022600002C08FEF9FEF8F3F2FEF920761F0E09159
:10227000B104F091B204EF58FB4F80831093B20485
:102280000093B104D2CF0F90DF91CF911F910F91A6
:102290000895362F90E0FC01E15FF74F4491FC0177
:1022A000E051F84F2491FC01EF52F84F84918823BC
:1022B00009F44DC04423C1F150E0FA013197EE30EA
:1022C000F10590F5EE55FF4F0C944235909180004A
:1022D0009F7703C0909180009F7D9093800024C0E1
:1022E00094B59F7702C094B59F7D94BD1DC0909119
:1022F00090009F7707C0909190009F7D03C09091C0
:102300009000977F909390000FC09091C0009F77AE
:1023100003C09091C0009F7D9093C00005C0909134
:10232000C200977F9093C200E82FF0E0EE0FFF1FEE
:10233000ED53F84FA591B4918FB7F894EC9131110A
:1023400003C020952E2301C02E2B2C938FBF089500
:10235000CF93DF9390E0FC01E051F84F2491FC0112
:10236000EF52F84F8491882361F190E0880F991F14
:10237000FC01EB54F84FC591D491FC01ED53F84F9B
:10238000A591B491611109C09FB7F89488812095F7
:1023900082238883EC912E230BC0623061F49FB7B7
:1023A000F8943881822F809583238883EC912E2B9B
:1023B0002C939FBF06C08FB7F894E8812E2B2883FB
:1023C0008FBFDF91CF910895823108F08251E82FBD
:1023D000F0E0E755F84FE49180917B00E3FB222782
:1023E00020F930E095E0220F331F9A95E1F78F7DB9
:1023F000282B20937B00E770E064E0937C008091C1
:102400007A00806480937A0080917A0086FDFCCF08
:10241000809178002091790090E0922B08953FB749
:10242000F89480916D0490916E04A0916F04B09126
:10243000700426B5A89B05C02F3F19F00196A11D79
:10244000B11D3FBFBA2FA92F982F8827820F911D4A
:10245000A11DB11DBC01CD0142E0660F771F881F91
:10246000991F4A95D1F70895CF92DF92EF92FF928C
:10247000CF93DF936B017C010E940F12EB01C1141B
:10248000D104E104F10479F00E940F126C1B7D0B62
:10249000683E7340A0F381E0C81AD108E108F10852
:1024A000C851DC4FECCFDF91CF91FF90EF90DF90E0
:1024B000CF9008952FB7F8946091690470916A04E1
:1024C00080916B0490916C042FBF08951F920F921E
:1024D0000FB60F9211242F933F938F939F93AF9337
:1024E000BF938091690490916A04A0916B04B091AC
:1024F0006C043091680423E0230F2D3720F40196FB
:10250000A11DB11D05C026E8230F0296A11DB11D16
:10251000209368048093690490936A04A0936B04E9
:10252000B0936C0480916D0490916E04A0916F043F
:10253000B09170040196A11DB11D80936D0490931C
:102540006E04A0936F04B0937004BF91AF919F91FC
:102550008F913F912F910F900FBE0F901F90189564
:102560001F920F920FB60F9211242F933F934F9308
:102570005F936F937F938F939F93AF93BF93EF93EB
:10258000FF938091B900887F803609F49CC068F57C
:10259000883209F45BC090F4803109F454C038F4F7
:1025A000882309F4F6C0883009F44DC0F6C088319C
:1025B00009F44CC0803209F45DC0EFC0803409F4E6
:1025C00068C048F4803309F455C0883309F0E5C089
:1025D0008093F804D8C0803509F44FC0883509F4D9
:1025E0005DC0883409F0D9C0D6C0883909F4C7C0A5
:1025F000A8F4883709F467C038F4883609F463C052
:10260000803709F460C0C9C0883809F4B8C080397F
:1026100009F45FC0803809F0C0C05BC0803B09F49A
:1026200086C038F4803A09F466C0883A09F47FC05D
:10263000B4C0803C09F4A7C0883C09F4A4C0883B1E
:1026400009F48AC0AAC08091F50410C09091F704E3
:102650008091F604981770F5E091F70481E08E0FF1
:102660008093F704F0E0EB52FB4F80818093BB0036
:1026700085EC86C08093F8048EC0E091F70481E079
:102680008E0F8093F7048091BB00F0E0EB52FB4F7C
:1026900080839091F7048091F6046EC0E091F70476
:1026A00081E08E0F8093F7048091BB00F0E0EB5245
:1026B000FB4F80838091FA0481116DC081E080938B
:1026C000F90484EA61C083E08093FB0410926704FC
:1026D000CFCF80916704803208F051C0E091670449
:1026E00081E08E0F809367048091BB00F0E0E95B8E
:1026F000FB4F8083BDCF85EC8093BC001092FB0420
:1027000080916704803230F4E0916704F0E0E95B87
:10271000FB4F10826091670470E0E0914504F091F6
:10272000460487E494E009951092670436C084E07B
:102730008093FB041092440410924304E0914104FE
:10274000F0914204099580914304811105C081E014
:102750008093430410922104E091440481E08E0FA1
:1027600080934404F0E0EF5DFB4F80818093BB00D9
:102770009091440480914304981708F479CF85E838
:102780008093BC000AC085EC8093BC001092FB04CF
:1027900004C01092F8040E945B0FFF91EF91BF916B
:1027A000AF919F918F917F916F915F914F913F91E9
:1027B0002F910F900FBE0F901F9018952091FE043F
:1027C00090910005213208F049C08091FB048111ED
:1027D000FCCF32E03093FB046093FA043FEF309378
:1027E000F8041092F7042093F604A1E0B4E045ED5C
:1027F00054E0FA013E2F341B321718F43D91319307
:10280000F9CF1092F5042091F504990F922B909333
:10281000F5049091F904913061F41092F9049091CB
:10282000F5049093BB009091BC0093FDF8CF95EC1C
:1028300001C095EE9093BC009091FB049230E1F3BF
:102840009091F8049F3F79F08091F804803241F034
:102850008091F804803331F084E005C081E003C04A
:1028600082E001C083E01092FF041092FE041092F7
:10287000010508954F925F926F927F928F929F927F
:10288000AF92BF92CF92DF92EF92FF920F931F937E
:10289000CF93DF9300D000D0CDB7DEB7009709F417
:1028A0006FC28C0160919E0170E060587109072E23
:1028B000000C880B990B0E946C3320E030E04FE74E
:1028C00053E40E94C2326B017C016093FD0370935C
:1028D000FE038093FF039093000420E030E0A90101
:1028E0000E945B3487FD1DC0A701960160E070E087
:1028F00080E89FE30E944B326093F9037093FA03E0
:102900008093FB039093FC0380E090E0A0E8BFE39A
:102910008093F5039093F603A093F703B093F80325
:1029200023C020E030E0A901C701B6010E94B832FF
:1029300087FF1AC080E090E0A0E8BFE38093F9032E
:102940009093FA03A093FB03B093FC039C01AD01A9
:10295000C701B6010E944C326093F5037093F603F1
:102960008093F7039093F80380919B01982F9074C4
:1029700087FFD9C1F801C080D180E280F380911136
:1029800042C185FDAAC01C141D041E041F040CF0C6
:1029900047C040E060E070E08CEC95E00E941918C0
:1029A00080909C0190909D01A12CB12CC501B40197
:1029B0000E946A332B013C012091970130919801CC
:1029C0004091990150919A010E9460340E943433E1
:1029D0006B017C012091F5033091F6034091F703E0
:1029E0005091F803C301B2010E9460340E94343355
:1029F0009B01AC012C193D094E095F09F80160816A
:102A00007181828193810E941E35A50194010E94EB
:102A1000E831CA01B9016C0D7D1D8E1D9F1D81C15C
:102A2000C114D104E104F10409F44CC080909C016C
:102A300090909D01A12CB12CC501B4010E946A3374
:102A40002B013C012091970130919801409199010F
:102A500050919A010E9460340E94343369837A83D2
:102A60008B839C83F094E094D094C094C11CD11CBF
:102A7000E11CF11C2091F9033091FA034091FB0312
:102A80005091FC03C301B2010E9460340E943433B0
:102A900029813A814B815C81621B730B840B950BFE
:102AA000A70196010E941E35A50194010E94E831FC
:102AB00069817A818B819C81620F731F841F951FAE
:102AC00040E003C040E060E070E08CEC95E00E94E4
:102AD000191840E060E070E03BC1E0919C01F0918A
:102AE0009D011C141D041E041F04DCF44F01969468
:102AF000879480919F019091A001880E991EA12C2E
:102B0000B12C2F01612C712CC301B2016819790914
:102B10008A099B09A70196010E941E35A301920113
:102B200019C0C114D104E104F10411F14F019694CC
:102B3000879480919F019091A001881A990AA12CF5
:102B4000B12CA5019401C701B6010E941E359F0159
:102B500040E050E00E94E831CA01B901680D791DDA
:102B60008A1D9B1DF801608371838283938303C058
:102B7000BF017695679540E08CEC95E00E941918AE
:102B8000F8016481758186819781E0919C01F091C3
:102B90009D011616170618061906CCF46F01D69477
:102BA000C79420919F013091A001C20ED31EE12C49
:102BB000F12C4F01A12CB12C240135014C185D08DA
:102BC0006E087F089B01AC01C301B20199C0611579
:102BD00071058105910599F06F01D694C7942091F4
:102BE0009F013091A001C21AD30AE12CF12CA70158
:102BF00096010E941E359F0140E050E085C0BF0154
:102C0000769567958EC0F7FC02C02A9A01C02A9873
:102C100080909C0190909D01A12CB12CC501B40124
:102C20000E946A3320919701309198014091990157
:102C300050919A010E9460340E9434336B017C01F0
:102C4000F801208131814281538157FF07C050959F
:102C50004095309521953F4F4F4F5F4FC501B401CF
:102C60006C197D098E099F090E941E35A5019401EA
:102C70000E94E831CA01B9016C0D7D1D8E1D9F1D9A
:102C8000F801608371838283938340E08CEC95E04C
:102C90000E941918F80184819581A681B781B7FD3A
:102CA00002C02E9A01C02E9880909C0190909D01A8
:102CB000A12CB12CC501B4010E946A332091970167
:102CC000309198014091990150919A010E9460348D
:102CD0000E9434336B017C01F801248135814681E7
:102CE000578157FF07C050954095309521953F4F2C
:102CF0004F4F5F4FC501B4016C197D098E099F09C3
:102D00000E941E35A50194010E94E831CA01B90153
:102D10006C0D7D1D8E1D9F1DF80164837583868358
:102D2000978340E015C0911109C085FF07C0E0906E
:102D30009C01F0909D01F694E79402C0E12CF12CE7
:102D400040E0B7018CEC95E00E94191840E0B70113
:102D50008BEC95E00F900F900F900F90DF91CF913B
:102D60001F910F91FF90EF90DF90CF90BF90AF90A9
:102D70009F908F907F906F905F904F900C94191858
:102D80000F900F900F900F90DF91CF911F910F91A7
:102D9000FF90EF90DF90CF90BF90AF909F908F907B
:102DA0007F906F905F904F9008959091FB049111E8
:102DB000FCCF91E09093FB049093FA042FEF2093C3
:102DC000F8041092F704260F2093F6049093F5046C
:102DD0009091F504880F892B8093F5048091F90474
:102DE000813061F41092F9048091F5048093BB0066
:102DF0008091BC0083FDF8CF85EC01C085EE809307
:102E0000BC008091FB048130E1F38091F7048617C8
:102E100010F46091F704A5EDB4E025EB34E0F9017E
:102E20008E2F821B861718F48D918193F9CF862FF0
:102E30000895009769F0FC0101900020E9F73197AF
:102E4000AF01481B590BBC0182E095E00C94E10EE8
:102E500080E090E00895CF93DF93109220051092C8
:102E60001F0590911C0521E020930105909300051A
:102E70001092FF041092FE04A0912105B09122054A
:102E8000ED91FC9111970190F081E02D682FCD011B
:102E9000099561E080912105909122050E94DE1341
:102EA000882319F08AE99FEF0DC062E080911C052C
:102EB0000E94D5161092FD048093FC04823049F0E4
:102EC00089E99FEF9093200580931F0580E090E0B3
:102ED0001BC08091210590912205DC01ED91FC91B0
:102EE0000680F781E02D0995D82FB0E0CB2F809197
:102EF000210590912205DC01ED91FC910680F7817E
:102F0000E02D09958C0F9D1FDF91CF910895E091E1
:102F10000205F09103050190F081E02D682F82E019
:102F200095E00994CF93DF938DE00E948717EC0121
:102F30008AE00E9487178C0F9D1FDF91CF91089523
:102F40008F929F92AF92BF92EF92FF920F931F9337
:102F5000CF93DF93CDB7DEB7A1970FB6F894DEBF5E
:102F60000FBECDBF162F042F19A2423008F40AE07D
:102F70007E0121E2E20EF11C802E912CA12CB12CBD
:102F8000612FA50194010E941A32029F1019112489
:102F900081E0E81AF1081A3014F4105D01C0195CE0
:102FA000F7011083122F732FCA01232B242B252BFB
:102FB00039F7C7010E941917A1960FB6F894DEBF22
:102FC0000FBECDBFDF91CF911F910F91FF90EF907A
:102FD000BF90AF909F908F900895CF92DF92EF9225
:102FE000FF92CF93DF9397FF19C06B017C018DE2B5
:102FF0000E948717EC0166277727CB016C197D09A2
:103000008E099F094AE00E94A0178C0F9D1FDF9137
:10301000CF91FF90EF90DF90CF9008954AE0DF913D
:10302000CF91FF90EF90DF90CF900C94A0170C946D
:1030300019171F93CF93DF93EB011091B8002CE089
:103040002093B800FC01808191E09093010580936A
:1030500000051092FF041092FE04442311F060E674
:1030600001C060E480E195E00E94E90FBE0184E0C8
:10307000769567958A95E1F780E195E00E94E90FE2
:10308000BE0194E0660F771F9A95E1F780E195E025
:103090000E94E90F61E080E195E00E94DE13109349
:1030A000B800DF91CF911F9108951092FD04109206
:1030B000FC041092FF041092FE041092FB0481E0C5
:1030C0008093FA041092F90461E082E00E944911B1
:1030D00061E083E00E944911E9EBF0E080818E7F9E
:1030E000808380818D7F808388E48093B80085E42D
:1030F0008093BC000895CF92DF92EF92FF926B0114
:103100007C018CE00E942B17ECE1F5E09F70948B22
:10311000838B6785708981899289C786D08AE18A85
:10312000F28AFF90EF90DF90CF900895CF931092A6
:10313000200510921F0580911C0591E090930105D8
:10314000809300051092FF041092FE0480912105E7
:1031500090912205DC01ED91FC910190F081E02D30
:1031600067E0099561E080912105909122050E9418
:10317000DE13C82F882341F08CE99FEF9093200540
:1031800080931F05C0E01EC061E080911C050E9475
:10319000D5161092FD048093FC04813039F08BE940
:1031A0009FEF9093200580931F050CC0809121050F
:1031B00090912205DC01ED91FC910680F781E02DD4
:1031C0000995C82F8C2FCF910895CF93C82F1092B7
:1031D000200510921F0580911C0591E09093010538
:1031E000809300051092FF041092FE048091210547
:1031F00090912205DC01ED91FC910190F081E02D90
:1032000067E009958091210590912205DC01ED91FF
:10321000FC910190F081E02D6C2F099561E0809187
:103220002105909122050E94DE13882331F088E366
:103230009FEF9093200580931F0580911F05CF91EC
:103240000895CF93DF93BC01990F880B990B0E94CF
:10325000ED17EC010E9492178C0F9D1FDF91CF910B
:1032600008958F929F92AF92BF92CF92DF92EF928A
:10327000FF920F931F938EE00E942B1720911F0542
:103280003091200540912B0550912C0560912D0522
:1032900070912E05232B21F0342F252FCB014FC009
:1032A0009F7020912F05309130054901032E000CAD
:1032B000AA08BB086C01092E000CEE08FF0821309B
:1032C000E8E03E075CF0F901F8508E179F0734F4F0
:1032D000505F6F4F7F4F8A019B010EC08130E8E045
:1032E0009E078CF0FC01F8502E173F0764F48A010A
:1032F0009B01105121093109081919092A093B09B3
:10330000B901A80104C0481959096A097B094C0D83
:103310005D1D6E1D7F1D40932B0550932C05609302
:103320002D0570932E059093300580932F053091D5
:103330002B0520912C0580912D0590912E05632F52
:10334000722F1F910F91FF90EF90DF90CF90BF9061
:10335000AF909F908F900895BC01990F880B990BA7
:103360000C94ED17682F70E080E090E04AE00C9438
:10337000A0170F931F930E945A1260930A0570932F
:103380000B0580930C0590930D05E0910205F091DB
:1033900003050084F185E02D82E095E0099597FF13
:1033A0001FC00E945A1200910A0510910B0520912E
:1033B0000C0530910D05DC01CB01801B910BA20B9C
:1033C000B30B009106051091070520910805309177
:1033D000090580179107A207B307B8F28FEF9FEF97
:1033E0001F910F910895FF920F931F93CF93DF9337
:1033F00000D000D0CDB7DEB70E94B919FC0197FD0F
:1034000011C08D32910591F0C0970A9778F0E09144
:103410000205F09103050680F781E02D82E095E03A
:103420000995EACF60E070E0CB014CC020E030E0CD
:10343000A901F12CE130F105F1F0ED32F105C9F00F
:10344000CF01C0970A97B8F4AAE0B0E00E94073213
:103450008F01FF0F220B330BDC01CB01800F911F7B
:10346000A21FB31F9C01AD0120533109410951092D
:1034700002C0FF24F394E0910205F0910305068059
:10348000F781E02D82E095E029833A834B835C83CA
:1034900009950E94B919FC01C09729813A814B8195
:1034A0005C810A9738F2E130F10521F2FF2041F00A
:1034B00066277727CB01621B730B840B950B02C029
:1034C000CA01B9010F900F900F900F90DF91CF912B
:1034D0001F910F91FF900895CF93DF93CDB7DEB783
:1034E000C454D1090FB6F894DEBF0FBECDBF789497
:1034F00084B5826084BD84B5816084BD85B58260F9
:1035000085BD85B5816085BD80916E0081608093A9
:103510006E00109281008091810082608093810012
:103520008091810081608093810080918000816022
:1035300080938000809191008260809391008091BF
:1035400091008160809391008091900081608093D0
:1035500090008091C10084608093C1008091C1007F
:1035600082608093C1008091C10081608093C1001E
:103570008091C30081608093C3008091C00082600D
:103580008093C0008091C20081608093C2008091CE
:103590007A00846080937A0080917A0082608093C0
:1035A0007A0080917A00816080937A0080917A001D
:1035B000806880937A001092920181E08093D70016
:1035C00080EA8093D80082E189BD09B400FEFDCF76
:1035D00061E070E080E090E00E94341280E9809326
:1035E000D8008CE08093E2001092E0001092A903D2
:1035F0001092A8031092AF031092B0031092B1037F
:103600001092B2031092A3031092A2031092BF0370
:103610001092C0031092C1031092C2031092B7031C
:103620001092B8031092B9031092BA031092BB0320
:103630001092BC031092BD031092BE0342E0BE0183
:10364000615F7F4F80E090E00E9485098F859889B7
:103650008A3F910509F407C18AEF90E09E878D8724
:1036600042E0BE01635F7F4F80E090E00E94560918
:1036700019821A821B821C8244E0BE016F5F7F4F59
:1036800082E090E00E94560988E394E09E878D874F
:1036900042E0BE01635F7F4F86E090E00E945609E2
:1036A00084E6898B41E0BE016F5E7F4F88E090E049
:1036B0000E94560941E0BE016F5E7F4F8BE090E0B3
:1036C0000E94560941E0BE016F5E7F4F8CE090E0A2
:1036D0000E94560941E0BE016F5E7F4F80E190E09D
:1036E0000E94560941E0BE016F5E7F4F8DE090E081
:1036F0000E94560982E3898B41E0BE016F5E7F4FD5
:1037000089E090E00E94560941E0BE016F5E7F4F64
:103710008AE090E00E94560941E0BE016F5E7F4F53
:103720008EE090E00E94560986E4898B41E0BE015C
:103730006F5E7F4F8FE090E00E9456091E861D86C7
:1037400042E0BE01635F7F4F81E190E00E94560935
:103750008FEF97E09E878D8742E0BE01635F7F4FCA
:1037600083E190E00E9456098FEF9FE09E878D874E
:1037700042E0BE01635F7F4F85E190E00E94560901
:1037800010E8198B41E0BE016F5E7F4F87E190E04A
:103790000E94560981E0898B41E0BE016F5E7F4F38
:1037A00088E190E00E94560980E090E1A0E0B0E05E
:1037B00089839A83AB83BC8344E0BE016F5F7F4FF4
:1037C00089E190E00E945609198B41E0BE016F5ECD
:1037D0007F4F8DE190E00E9456091E861D8642E0D3
:1037E000BE01635F7F4F8AE290E00E94560942E08B
:1037F000BE01635F7F4F8EE290E00E94560942E077
:10380000BE01635F7F4F82E390E00E94560942E071
:10381000BE01635F7F4F86E390E00E9456098FEF01
:1038200093E09E878D8742E0BE01635F7F4F8CE20D
:1038300090E00E94560942E0BE01635F7F4F80E343
:1038400090E00E94560942E0BE01635F7F4F84E32F
:1038500090E00E94560942E0BE01635F7F4F88E31B
:1038600090E00E94560942E061EA71E086E090E053
:103870000E94850944E061E873E089E190E00E94DC
:10388000850941E065E873E088E090E00E948509E1
:1038900041E069E873E089E090E00E94850941E039
:1038A00067E873E08AE090E00E94850941E06CE8F7
:1038B00073E08BE090E00E94850941E06BE873E0E3
:1038C0008CE090E00E94850941E06AE873E08DE0B9
:1038D00090E00E94850941E068E873E08EE090E0A6
:1038E0000E94850941E06DE873E08FE090E00E945E
:1038F000850941E066E873E080E190E00E94850977
:1039000041E06EE971E087E190E00E94850941E0C5
:103910006EEA73E088E190E00E94850942E06FE979
:1039200071E081E190E00E94850942E06CE971E07C
:1039300083E190E00E94850942E06FE773E085E152
:1039400090E00E94850980917F039091800390937D
:103950009D0180939C0141E06BE971E08DE190E075
:103960000E94850942E06AEA73E08AE290E00E94E0
:10397000850942E06CEA73E08CE290E00E948509E0
:1039800042E063EB73E08EE290E00E94850942E042
:1039900065EB73E080E390E00E94850942E064EA11
:1039A00073E082E390E00E94850942E066EA73E0FA
:1039B00084E390E00E94850942E06EE973E086E3CB
:1039C00090E00E94850942E060EA73E088E390E0BD
:1039D0000E94850960918103709182038091830325
:1039E000909184030E946C3320E030E044EB53E478
:1039F0000E94C2326B017C018091A1019091A201D1
:103A0000BC01990F880B990B0E946C339B01AC0190
:103A1000C701B6010E9460340E943433609377037B
:103A2000709378038093790390937A03DC01CB0140
:103A3000B595A795979587958093C3039093C403F5
:103A4000A093C503B093C60360E082E10E94A81171
:103A500060E083E10E94A81160E084E10E94A81167
:103A600060E085E10E94A81162E084E00E94A81154
:103A700062E08EE00E94A81162E08FE00E94A8112F
:103A800062E083E00E94A81162E086E00E94A81133
:103A900062E087E00E94A81162E088E00E94A8111D
:103AA00062E081E00E94A81180916900806C80939F
:103AB0006900EB9A88E191E09093940180939301DF
:103AC00085EE94E09093CE058093CD058CEB9CE041
:103AD0009093D0058093CF05229A00917F03109197
:103AE0008003109396010093950110939D0100931C
:103AF0009C0160919F017091A00180E090E00E9484
:103B00006A336B017C01B80180E090E00E946A3367
:103B10009B01AC01C701B6010E94C23260939701BC
:103B2000709398018093990190939A0180919B01E1
:103B3000182F117080FD05C020E030E04AEF54E4FA
:103B400004C020E030E04AE754E46091080170913D
:103B5000090180910A0190910B010E9460346093E9
:103B600008017093090180930A0190930B011111D0
:103B700005C020E030E04AEF54E404C020E030E02B
:103B80004AE754E4609104017091050180910601B7
:103B9000909107010E9460346093040170930501C5
:103BA0008093060190930701111105C020E030E0D9
:103BB0004AEF54E404C020E030E04AE754E4609166
:103BC00000017091010180910201909103010E9416
:103BD000603460930001709301018093020190931F
:103BE000030180E68093CC050E94551881E68093FE
:103BF000CB050E94551841E060E070E08CEC95E048
:103C00000E94191841E060E070E08BEC95E00E94A2
:103C10001918269A10929403109295031092960305
:103C200010929703109298031092990310929A039E
:103C300010929B0384E993E00E943A14109293033C
:103C4000109292038FEF97E090937E0380937D0311
:103C500080919E0180937C030E9455188FEF809382
:103C60001D0510921E0580911C0591E090930105A1
:103C7000809300051092FF041092FE0461E0809191
:103C80002105909122050E94DE130E949618837EE2
:103C90000E94E5180E9496188C7F0E94E51860919A
:103CA000C3037091C4038091C5039091C6030E9421
:103CB0007B180E940F126093C7037093C803809310
:103CC000C9039093CA030E940F1260933505709345
:103CD000360580933705909338050091CB031091FA
:103CE000CC032091CD033091CE031B012C01201A6F
:103CF000310A420A530A209231053092320540922D
:103D00003305509234050091C7031091C8032091E8
:103D1000C9033091CA036B017C01C01AD10AE20ABF
:103D2000F30A40EDC41647E0D406E104F10410F4B0
:103D30000C9404316093C7037093C8038093C90344
:103D40009093CA0380917B03882361F06091C30341
:103D50007091C4038091C5039091C6030E947B18A3
:103D600010927B030E943119C090C303D090C4030A
:103D7000E090C503F090C603DC01CB018C199D09CE
:103D8000AE09BF098093BF039093C003A093C10302
:103D9000B093C2038093B7039093B803A093B90381
:103DA000B093BA034601570180949094A094B094C4
:103DB000C818D908EA08FB086091AF037091B003F6
:103DC0008091B1039091B203A70196010E941E3524
:103DD0002FEF3FEF40E050E00E94E831BA01A90127
:103DE000480D591D6A1D7B1D4093BB035093BC03B6
:103DF0006093BD037093BE031091AE0315FB88273B
:103E000080F916FD826017FF02C084600BC081300C
:103E100049F44093B7035093B8036093B903709388
:103E2000BA032AC0823029F4A091A803B091A90353
:103E30000DC0833029F4A091A203B091A30306C062
:103E40008430D1F4A0919C03B0919D03A701960109
:103E50000E9412322FEF3FE040E050E00E94E83134
:103E6000820E931EA41EB51E8092B7039092B803D3
:103E7000A092B903B092BA038090B7039090B803B0
:103E8000A090B903B090BA0380913E0590913F0590
:103E9000A0914005B091410580923E0590923F056A
:103EA000A0924005B092410520914605222309F4D5
:103EB00049C000916F0554E0059F90011124B9019C
:103EC000625C7A4F7B0114012501281A390A4A0ADB
:103ED0005B0AC201B1010E946C33D70119966D9340
:103EE0007D938D939C931C97F02E5AE0E52E60E015
:103EF00070E0CB01B4E0FB9EF0011124E25CFA4FCC
:103F000021853285438554850E944C32FF2011F073
:103F1000FA9402C049E0F42EEA94E110EBCF20E0DD
:103F200030E040E251E40E94C2320F5F0A3018F4E0
:103F300000936F0502C010926F056CA77DA78EA736
:103F40009FA70FC081E08093460510924205109212
:103F5000430510924405109245051CA61DA61EA6F9
:103F60001FA6209170053091710540917205509106
:103F700073058CA59DA5AEA5BFA5809370059093F4
:103F80007105A0937205B09373058091780588231D
:103F900009F444C00091C905E4E00E9FC00111245A
:103FA000BC01695B7A4F7B016CA57DA5CD010E94A8
:103FB0004B32D701D2966D937D938D939C93D59779
:103FC000F02E34E1E32E60E070E0CB01B4E0FB9E24
:103FD000F0011124E95BFA4F22A933A944A955A99C
:103FE0000E944C32FF2011F0FA9402C023E1F22E1D
:103FF000EA94E110EBCF20E030E040EA51E40E9487
:10400000C2320F5F043118F40093C90502C0109248
:10401000C9056CAB7DAB8EAB9FAB0FC081E08093CD
:10402000780510927405109275051092760510921D
:1040300077051CAA1DAA1EAA1FAA8091CA0588235B
:10404000F1F110FD02C00C942D280E9428069B015E
:10405000AC0160E070E080E094E40E94C2326B0149
:104060007C0160918D0370E080E090E00E946C33F1
:104070009B01AC01C701B6010E94603420E030E032
:1040800048EC52E40E94C2320E9434336B017C013E
:10409000AB01C501B4010E9461072B013C01609195
:1040A000BB037091BC038091BD039091BE03A60138
:1040B0000E9461076E8F7F8F88A399A3D5C7E7EA17
:1040C000F1E0FBA7EAA71B8A1A8A1E8E1F8E18A290
:1040D00019A2412C512C32010A891B890F5F1F4FF5
:1040E0001B8B0A8BB3E2CB2E1801C29C8001C39CB0
:1040F000100D11240D521E4FD8018C918370833006
:1041000009F09EC70E9428066E8B7F8B888F998F3F
:10411000F80121853285A789B08D0E9448352FEF9F
:104120003FE740E050E00E94E831CA01B9010E9437
:104130006C332E893F89488D598D0E94C2320E946E
:1041400034339B01AC01D80119960D90BC91A02D80
:10415000BBA3AAA3F801278C30A08385948505977B
:1041600028F4A4E0CA2ED12CD486C38603E2EA88C0
:10417000FB880E9DF0010F9DF00D1124ED52FE4FB6
:10418000E1818E2F90E0FC013197ED30F10508F0D0
:1041900041C7EA5AFF4F0C9442350E9428066E8BA5
:1041A0007F8B888F998FF3E2CF2E2A883B88C29C21
:1041B000C001C39C900D11248C010D521E4F18019B
:1041C000D80119968D909C901A975596AD90BC90F9
:1041D00056971F96CD90DC9050975196ED90FC909D
:1041E000529753960D911C91549714962C911497B5
:1041F00013964C91139757968D919C915897EAA5D9
:10420000FBA5608171810E9439069401DC010E9446
:1042100048352FEF3FE740E050E00E94E831CA0107
:10422000B9010E946C332E893F89488D598D0E94B7
:10423000C2320E9434330E9436079B01AC01A09128
:104240008C03B0E00E94073224E630E040E050E00A
:104250000E94E831421A530A640A750A7EC10E941C
:1042600028066E8B7F8B888F998F63E2C62E2A88F3
:104270003B88C29CF001C39CF00D1124ED52FE4F0F
:10428000218432843B8E2A8EC588D688DBA2CAA2BE
:10429000E784F088FFA2EEA20189128919AB08AB6E
:1042A000238834883CAE2BAE84809380AAA5BBA51E
:1042B0002D903C90078510896085A7800A2C000C02
:1042C000BB08062E000C770B6A197B09CB01770F10
:1042D000AA0BBB0B6627782F892F9A2F0E946C336D
:1042E0006B017C01B80180E090E00E946A3320E01D
:1042F00030E04AE754E40E94C2329B01AC01C7019E
:10430000B6010E94C2326B017C01C101B8010E945A
:104310002E35BC0180E090E00E946A3320E030E05E
:104320004AE754E40E94C2329B01AC01C701B601C6
:104330000E9460340E943433BA2CAA24C501860F2F
:10434000971FAAA0BBA0CEA0DFA0E8A8F9A80BAD3C
:104350001CAD282D492DB1010E9439062A8D3B8DB7
:10436000DC010E9448352FEF3FE740E050E00E941B
:10437000E831CA01B9010E946C332E893F89488D0A
:10438000598D0E94C2320E9434330E943607461A69
:10439000570A680A790A3EC60E9428066A8F7B8FF0
:1043A0008C8F9D8F53E2C52E2A883B88C29CC0010A
:1043B000C39C900D11248C010D521E4F1801D80181
:1043C00019960D90BC91A02DBBA3AAA3F801038C54
:1043D000F48DE02DFFA3EEA3D8015D96BC91B8ABA0
:1043E000F80183849484A588B688C784D088E1883E
:1043F000F2880389148924814381AAA5BBA50D9065
:10440000BC91A02DBF8BAE8B8789908DBD010E9482
:1044100039068C01B40180E090E00E946A3320E00C
:1044200030E04AE754E40E94C2329B01AC0160E0F4
:1044300070E080E89FE30E94C2326B017C018E89AC
:104440009F89B4010E942E35BC0180E090E00E945B
:104450006A3320E030E04AE754E40E94C2329B0114
:10446000AC01C701B6010E9460346B017C01B8A9A0
:104470006B2F70E080E090E00E946A3320E030E033
:1044800040E85BE30E9460349B01AC01C701B601C8
:104490000E944C322BED3FE049EC50E40E94603426
:1044A0000E94CD349B01AC01EEA1FFA16F01FF0F73
:1044B000EE08FF08B801110F880B990B22962FAF59
:1044C000229725963FAF259723964FAF23972496A3
:1044D0005FAF24970E946C3322962FAD22972596CA
:1044E0003FAD259723964FAD239724965FAD249734
:1044F0000E9460340E943433CB01770FAA0BBB0BB0
:10450000A7019601280F391F4A1F5B1FAAA1BBA153
:104510000E9407322FEF3FE740E050E00E94E83171
:10452000CA01B9010E946C332A8D3B8D4C8D5D8D83
:104530000E94C2320E9434339B01AC01A0918B03D4
:10454000B0E00E94073224E630E040E050E00E94F4
:10455000E831420E531E641E751ED10116968C91D1
:1045600082FF58C5C301B2010E946C336B017C010C
:10457000F1016585768580E090E00E946A332BED3D
:104580003FE049EC50E40E94603420E030E040E03D
:1045900058E30E9460340E94BD329B01AC016E8DD5
:1045A0007F8D88A199A122962FAF229725963FAFA4
:1045B000259723964FAF239724965FAF24970E94A9
:1045C0006C334B015C0122962FAD229725963FADAF
:1045D000259723964FAD239724965FAD2497C70167
:1045E000B6010E9460349B01AC01C501B4010E9478
:1045F0004C320E9434336E8F7F8F88A399A3D101F0
:104600001D966D917C911E9780E090E00E946A3328
:104610002BED3FE049EC50E40E94603420E030E0B4
:1046200040E058E30E9460340E94CD349B01AC010D
:10463000C701B6010E9460340E9434332B013C0153
:10464000E9C40E9428066A8F7B8F8C8F9D8F43E27E
:10465000C42E2A883B88C29CF001C39CF00D112413
:10466000ED52FE4F218432843BA22AA2238D348D49
:104670006901330FEE08FF08CEA2DFA2E8A6F9A673
:10468000258C28AA23843484A588B688C784D0883A
:10469000E188F2880389148924814381AAA5BBA5F6
:1046A0000D90BC91A02DBF8BAE8B8789908DBD01E5
:1046B0000E943906BC01990F880B990B0E946C333C
:1046C0004B015C01B10180E090E00E946A3320E080
:1046D00030E04AE754E40E94C2329B01AC0160E042
:1046E00070E080E89FE30E94C2326B017C018E89FA
:1046F0009F89B1010E942E35BC0180E090E00E94AC
:104700006A3320E030E04AE754E40E94C2329B0161
:10471000AC01C701B6010E9460346B017C0128A87E
:10472000622D70E080E090E00E946A3320E030E08B
:1047300040E85BE30E9460349B01AC01C701B60115
:104740000E944C322BED3FE049EC50E40E94603473
:104750000E94CD346B017C0120E030E0A9010E9471
:104760005B3487FF0CC020E030E0A901C701B6012F
:104770000E94B83287FF05C00FEF08AF02C011E0FA
:1047800018AF28AC622D220C770B880B990B0E9476
:104790006C339B01AC01C501B4010E9460340E94DE
:1047A0003433CB01770FAA0BBB0BE3C10E94280661
:1047B0006AA37BA38CA39DA333E2C32E2A883B88E4
:1047C000C29CF001C39CF00D1124ED52FE4F2184D8
:1047D00032843FA22EA2238D348D6901330FEE085F
:1047E000FF08C8AAD9AAEAAAFBAA358D2384348473
:1047F0003F8A2E8AA588B688C784D088E188F28847
:104800000389148924814381AAA5BBA50D90BC917D
:10481000A02DBB8FAA8F8789908DBD0125963FAFB4
:1048200025970E9439061C01EE89FF89BF0180E0AF
:1048300090E00E946A334B015C0125963FAD2597BD
:1048400060E4630F70E080E090E00E946A3320E053
:1048500030E040E85BE30E946034A50194010E94CF
:1048600060340E943B338A8D9B8D860F971F6E8923
:104870007F890E942E358C01BC0180E090E00E946F
:104880006A3320E030E04AE754E40E94C2326B0110
:104890007C0120E030E0A9010E945B3487FD3CC030
:1048A00020E030E04AE754E4C501B4010E94C2327E
:1048B0006A8F7B8F8C8F9D8F20E030E040E05FE33C
:1048C0000E9460349B01AC01C701B6010E94B8325E
:1048D00087FF22C0B101032C000C880B990B0E94AA
:1048E0006C3320E030E040E850E40E9460342A8DD0
:1048F0003B8D4C8D5D8D0E94C232A70196010E94B6
:1049000060340E9434333194219431086101C60E21
:10491000D71EDAAEC9AE51C020E030E04AE754E419
:10492000C501B4010E94C2324B015C0120E030E0BD
:1049300040E05FE30E9460349B01AC01C701B60117
:104940000E945B3487FD39C0A5019401C701B601FF
:104950000E94B83287FF31C0B101032C000C880BD4
:10496000990B0E946C3320E030E040E850EC0E944C
:104970006034A50194010E94C2326B017C018E89D2
:104980009F8996958795B801681B790B80E090E028
:104990000E946A3320E030E04AE754E40E94C232C9
:1049A0009B01AC01C701B6010E9460340E94343300
:1049B0007101E60EF71EFAAEE9AE29AC3AACC101C0
:1049C000330CAA0BBB0B28A939A94AA95BA9280F4C
:1049D000391F4A1F5B1FAEA1BFA10E9407322FEFF4
:1049E0003FE740E050E00E94E831CA01B9010E946F
:1049F0006C332AA13BA14CA15DA10E94C2320E944E
:104A000034339B01AC01A0918B03B0E00E940732CC
:104A100024E630E040E050E00E94E831420E531EB0
:104A2000641E751EF7C20E9428066A8F7B8F8C8FCA
:104A30009D8FB3E2CB2E2A883B88C29CF001C39C99
:104A4000F00D1124ED52FE4F218432843BA22AA2A4
:104A5000238D348D6901330FEE08FF08CEA2DFA24B
:104A6000E8A6F9A6358D23843484A588B688C78442
:104A7000D088E188F2880389148924814381AAA51A
:104A8000BBA58D909C908789908DB40125963FAFF2
:104A900025970E9439069F8B8E8BB10180E090E0B4
:104AA0000E946A336B017C0125963FAD259760E833
:104AB000630F70E080E090E00E946A3320E030E015
:104AC00040E85BE30E946034A70196010E946034D5
:104AD0000E943B33C401860F971FB1010E942E35FF
:104AE0008C0182159305E8F52E883F88B101032CCF
:104AF000000C880B990B0E946C339B01AC010E9447
:104B00004C324B015C0120E030E04AE754E4C7013D
:104B1000B6010E94C2329B01AC01C501B4010E94E2
:104B2000C2326B017C01B80180E090E00E946A33E0
:104B300020E030E04AE754E40E94C2329B01AC011D
:104B4000C701B6010E9460340E943433910131954F
:104B5000219531091901260E371E21963FAE2EAE42
:104B6000219721962EAC3FAC2197C101330CAA0BA3
:104B7000BB0B2EA13FA148A559A5280F391F4A1FDD
:104B80005B1FAAA1BBA10E9407322FEF3FE740E0C5
:104B900050E00E94E831CA01B9010E946C332A8DAD
:104BA0003B8D4C8D5D8D29CF0E9428066A8F7B8FAF
:104BB0008C8F9D8FA3E2CA2E2A883B88C29CF0016D
:104BC000C39CF00D1124ED52FE4F218432843BA290
:104BD0002AA2238D348D6901330FEE08FF08CEA27F
:104BE000DFA2E8A6F9A6358D23843484A588B6888B
:104BF000C784D088E188F28803891489248143819D
:104C0000AAA5BBA58D909C908789908DB40125960F
:104C10003FAF25970E9439069F8B8E8BB10180E0B4
:104C200090E00E946A336B017C0125963FAD259789
:104C300060E8630F70E080E090E00E946A3320E05B
:104C400030E040E85BE30E946034A70196010E94D7
:104C500060340E943B33C401860F971FB1010E944C
:104C60002E358C0182159305D0F56E897F8971955B
:104C700061957109072E000C880B990B0E946C330B
:104C80009B01AC010E944C324B015C0120E030E002
:104C90004AE754E4C701B6010E94C2329B01AC014D
:104CA000C501B4010E94C2326B017C01B80180E0F1
:104CB00090E00E946A3320E030E04AE754E40E942A
:104CC000C2329B01AC01C701B6010E9460340E9450
:104CD00034332E883F88260E371E3EAE2DAE2DACC7
:104CE0003EAC43CFC0908A03D12CE12CF12C63E27F
:104CF0000A891B89609FC001619F900D11248C015E
:104D00000D521E4F1B8F0A8FD8015B960D911C917F
:104D10005C978090C3039090C403A090C503B090AB
:104D2000C603C701B6010E941E3520E436E040E00C
:104D300050E00E94E8312EA33FA348A759A7D8010D
:104D4000A50194010E941232DC01CB01EFE0B59580
:104D5000A79597958795EA95D1F7092E000CAA0B90
:104D6000BB0B4091B7035091B8036091B9037091A8
:104D7000BA038A019B01081B190B2A0B3B0BC901C3
:104D8000B8014EA15FA10E946107460E571E681E22
:104D9000791EAA8DBB8D91960D911C9192972AA197
:104DA0003BA1D1010E9448352FEF3FE740E050E0A2
:104DB0000E94E831CA01B9010E946C332E893F89F3
:104DC000488D598D0E94C2320E9434339B01AC0140
:104DD000C701B6010E941E3520E436E040E050E0F5
:104DE0000E94E83169017A01D801A50194010E946D
:104DF0001232DC01CB01FFE0B595A7959795879519
:104E0000FA95D1F7092E000CAA0BBB0B4091BB03FE
:104E10005091BC036091BD037091BE038A019B0158
:104E2000081B190B2A0B3B0BC901B801A6010E94F4
:104E300061072E8D3F8D48A159A1260F371F481FAE
:104E4000591F2E8F3F8F48A359A3E4C073E2C72E8A
:104E50002A883B88C29CF001C39CF00D1124ED52BE
:104E6000FE4F038D148DA0918903B0E00E9407329C
:104E700024E630E040E050E00E94E83169017A0128
:104E8000B801110F880B990B0E946C332AE939EC99
:104E90004CEC54E40E94C2329B01AC016CA57DA590
:104EA0008EA59FA50E944B32A6010E948E0863C06A
:104EB00063E2C62E2A883B88C29CF001C39CF00D99
:104EC0001124ED52FE4F038D148DA0918803B0E0A4
:104ED0000E94073224E630E040E050E00E94E831D2
:104EE00069017A01B801110F880B990B0E946C338C
:104EF00020E03EEF4FEF56E40E94C2329B01AC012E
:104F00006CA97DA98EA99FA90E944B32A6010E947F
:104F1000260831C093E2C92E2A883B88C29CF00142
:104F2000C39CF00D1124ED52FE4F038D148DA09102
:104F30008703B0E00E94073224E630E040E050E012
:104F40000E94E83169017A01B801110F880B990BB1
:104F50000E946C332AE939EC4CEC54E40E94C232D2
:104F60009B01AC016CA57DA58EA59FA50E944B322F
:104F7000A6010E94A507092E000CAA0BBB0B480E28
:104F8000591E6A1E7B1E46C00E9428069B01AC016A
:104F900083E2C82E2A883B88C29CF001C39CF00D96
:104FA0001124ED52FE4F838D948DBC01990F880B17
:104FB000990B22962FAF229725963FAF25972396E0
:104FC0004FAF239724965FAF24970E946C332296AD
:104FD0002FAD229725963FAD259723964FAD23976A
:104FE00024965FAD24970E94C2320E9434330E94FF
:104FF00036079B01AC01A0918B03B0E00E94073201
:1050000024E630E040E050E00E94E831421A530AC2
:10501000640A750A0E945A120091A3011091A4011A
:105020002091A5013091A601DC01CB01801B910BE1
:10503000A20BB30BEAA5FBA580839183A283B38364
:105040000AA51BA50C5F1F4F1BA70AA72A893B892E
:105050002B30310509F040C807C01E8E1F8E18A2E4
:1050600019A2412C512C32011091AE0311FF3EC008
:105070000E9428069B01AC01E091890367E471E07E
:10508000E69FC001E79F900D1124BC01990F880B8A
:10509000990B22962FAF229725963FAF25972396FF
:1050A0004FAF239724965FAF24970E946C332296CC
:1050B0002FAD229725963FAD259723964FAD239789
:1050C00024965FAD24970E94C2320E943433AB0114
:1050D0006CA57DA58EA59FA50E948E08092E000CAB
:1050E000AA0BBB0B480E591E6A1E7B1E12FF3EC048
:1050F0000E9428069B01AC01E091880367E471E0FF
:10510000E69FC001E79F900D1124BC01990F880B09
:10511000990B22962FAF229725963FAF259723967E
:105120004FAF239724965FAF24970E946C3322964B
:105130002FAD229725963FAD259723964FAD239708
:1051400024965FAD24970E94C2320E943433AB0193
:105150006CA97DA98EA99FA90E942608092E000C82
:10516000AA0BBB0B480E591E6A1E7B1E13FF3EC0C6
:105170000E9428069B01AC01E091870367E471E07F
:10518000E69FC001E79F900D1124BC01990F880B89
:10519000990B22962FAF229725963FAF25972396FE
:1051A0004FAF239724965FAF24970E946C332296CB
:1051B0002FAD229725963FAD259723964FAD239788
:1051C00024965FAD24970E94C2320E943433AB0113
:1051D0006CA57DA58EA59FA50E94A507092E000C94
:1051E000AA0BBB0B480E591E6A1E7B1EC090C30340
:1051F000D090C403E090C503F090C603D701C60168
:1052000006E0B595A795979587950A95D1F7C81AA1
:10521000D90AEA0AFB0A8091B7039091B803A091DA
:10522000B903B091BA038824992454018C189D08BD
:10523000AE08BF0888159905AA05BB0534F0C81645
:10524000D906EA06FB060CF049C0B7FD05C08C196B
:105250009D09AE09BF0904C08C0D9D1DAE1DBF1D6B
:105260008093B7039093B803A093B903B093BA03A4
:105270000E9428069B01AC0160E07EEF8FEF96E470
:105280000E94C2326A8B7B8B8C8B9D8B60918603D4
:1052900070E080E090E00E946C339B01AC016A8971
:1052A0007B898C899D890E94603420E030E048EC45
:1052B00052E40E94C2320E9434339B01AC016091DF
:1052C000B7037091B8038091B9039091BA03A90113
:1052D0000E946107460E571E681E791E8091BB030F
:1052E0009091BC03A091BD03B091BE0388159905B0
:1052F000AA05BB0534F0C816D906EA06FB060CF071
:1053000051C0B7FD09C0AC01BD014C195D096E0962
:105310007F096A017B0104C0C80ED91EEA1EFB1E6C
:10532000C092BB03D092BC03E092BD03F092BE03D7
:105330000E9428069B01AC0160E07EEF8FEF96E4AF
:105340000E94C2326B017C016091860370E080E0B4
:1053500090E00E946C339B01AC01C701B6010E9432
:10536000603420E030E048EC52E40E94C2320E94F7
:1053700034336B017C016091BB037091BC0380915D
:10538000BD039091BE03A6010E946107CE8CDF8C05
:10539000E8A0F9A0C60ED71EE81EF91ECE8EDF8E3D
:1053A000E8A2F9A2C0908503D12CE12CF12CA30135
:1053B0009201C701B6010E941E3524E630E040E0AC
:1053C00050E00E94E831CA01B9010E9436074B0142
:1053D0005C012E8D3F8D48A159A1C701B6010E94E5
:1053E0001E3524E630E040E050E00E94E831CA017A
:1053F000B9010E9436076B017C0114FF0EC0C50184
:10540000B4010E94ED1789E791E00E941718C701C7
:10541000B6010E94ED170E94921780929403909219
:105420009503A0929603B0929703C0929803D092EE
:105430009903E0929A03F0929B036091BF037091ED
:10544000C0038091C1039091C2030E946C336B0131
:105450007C0160917703709178038091790390913A
:105460007A030E946C339B01AC0160E07FEF8FE711
:1054700097E40E94C2329B01AC01C701B6010E94B1
:1054800060340E9434334B015C0161157048810522
:10549000910534F088248A94AFE79A2EA12CB12C80
:1054A000811410E891061FEFA106B10634F4812C97
:1054B000F0E89F2EAA24AA94BA2C8092BF0390925F
:1054C000C003A092C103B092C20384E993E00E949A
:1054D0003A1482E10E94E4119093A9038093A803F7
:1054E00084E10E94E4119093A3038093A20385E1D9
:1054F0000E94E41190939D0380939C0383E10E949A
:10550000E4119F8F8E8F20909203309093034090F0
:10551000AA035090AB03420C531C612C712CC09019
:10552000A403D090A503C20CD31CE12CF12C209134
:10553000A2033091A303C901330FAA0BBB0B9C013B
:10554000AD012C193D094E095F09AFEFBFE00E9484
:1055500007322091A6033091A7032219330989014C
:1055600020E030E0A90198012C193D094E095F099E
:105570000E94E8312A8B3B8B4C8B5D8BC0909E0345
:10558000D0909F03C20CD31CE12CF12C20919C03E2
:1055900030919D03C901330FAA0BBB0B9C01AD01D8
:1055A0002C193D094E095F09AFEFBFE00E94073299
:1055B0002091A0033091A10322193309890120E031
:1055C00030E0A90198012C193D094E095F090E949C
:1055D000E83169017A012091A8033091A903C9013A
:1055E000330FAA0BBB0B9C01AD01241935094609E9
:1055F0005709AFEFBFE00E9407322091AC03309112
:10560000AD0322193309890120E030E0A901980196
:1056100024193509460957090E94E83139016114F6
:1056200020E1720624F066246A94EFE07E2E77FE75
:1056300002C0612C712C7092A9036092A8030A89A0
:105640001B89011530E1130714F00FEF1FE017FF5E
:1056500002C000E010E01093A3030093A203C11462
:1056600040E1D40624F0CC24CA947FE0D72ED7FEA4
:1056700002C0C12CD12CD0929D03C0929C0380917A
:10568000B3039091B403820D931D9C0140E050E060
:105690002A8B3B8B4C8B5D8B4E8C5F8CA201550C07
:1056A000660B770B9A01AB018A899B89AC89BD890E
:1056B000281B390B4A0B5B0BAFEFBFEF0E94073281
:1056C0002091B5033091B6032219330940E050E030
:1056D0002A883B884C885D8822193309440955097A
:1056E0000E94E8312115310561E04607510524F09B
:1056F0002FEF3FEF40E050E057FF03C020E030E0E5
:10570000A9012093AF033093B0034093B1035093AA
:10571000B20389B182958F7091E0892790E0A0E073
:10572000B0E081709927AA27BB271B9B8260199B39
:1057300084604F9B8061669B80621C9B806444E018
:10574000880F991FAA1FBB1F4A95D1F780938E031C
:1057500090938F03A0939003B093910370E8971AEE
:1057600089829A822B833C836D82202F2295207F11
:1057700027292E8354E0169507955A95E1F70F8354
:10578000C886D98664E0B695A795979587956A955A
:10579000D1F78A871B861C864CE050E0BE016F5F04
:1057A0007F4F84E00E949B0C8091310590913205DF
:1057B000A0913305B091340580319742A105B10520
:1057C00008F422C582E095E00E944E0F18161906D3
:1057D0000CF00AC582E095E00E94140FE82F8FE9D3
:1057E0008E0F8A3108F4E0528E2F90E0FC01E154D4
:1057F000F109EA31F10508F0F7C4ED59FF4F0C94B7
:1058000042358091A1019091A2010E94AC1980E2E1
:105810000E948717809185030E94B21980E20E943E
:105820008717809189030E94B21980E20E9487172E
:10583000809187030E94B21980E20E9487178091AD
:105840008C030E94B21980E20E94871780918B031B
:105850000E94B21980E20E94871780918A030E94F9
:10586000B21980E20E948717809188030E94B219C2
:1058700080E20E94871780918D030E94B21980E216
:105880000E948717809186030E94B21980E20E94CD
:10589000871760919F017091A00180E090E04AE03D
:1058A0000E94A01780E20E94871780919E010E94AB
:1058B000B21980E20E9487178091AE030E94B2194C
:1058C00080E20E94871760919C0170919D0180E0A9
:1058D00090E04AE00E94A01780E20E948717609142
:1058E00081037091820380918303909184030E94CD
:1058F000ED1780E20E94871760919B0170E01FC244
:105900008BE791E00E9417188AEF90E00E94AC1993
:1059100080E891E00E94171882E891E00E94171831
:1059200084E891E00E94171886E891E00E94171819
:1059300088E891E00E9417188AE891E00E94171801
:105940008CE891E00E9417188EE891E00E941718E9
:105950004BC480913D05082E000C990B43C40E9456
:1059600031194B015C011D821E821F8218868091B5
:105970009C0190919D0120919F013091A001821B7B
:10598000930B9695879596958795A0E0B0E08983CF
:105990009A83AB83BC83CE0101960E943A14240102
:1059A00035011EEF0E9431196B017C014616570626
:1059B00068067906CCF019821A821B821C82CE01FD
:1059C00001960E943A146091770370917803809158
:1059D000790390917A030E947B188C149D04AE0485
:1059E000BF0469F482E00CC06CE271E080E090E0FA
:1059F0000E943412115026013701A1F6DCCF81E05C
:105A000080933D05EDC30E94F319611101C061E06F
:105A100060939E01E5C30E9431190091C303109168
:105A2000C4032091C5033091C6032B013C01401AE9
:105A3000510A620A730A0E94F319643071058105E4
:105A400091057CF06B017C01613C774289409105B6
:105A50006CF010ECC12E17E2D12E19E0E12EF12CE2
:105A600005C0B4E0CB2ED12CE12CF12CC982DA8216
:105A7000EB82FC826091A1017091A201072E000CC3
:105A8000880B990B0E946C334B015C01C301B2017E
:105A90000E946C33A50194010E9460342B013C01EB
:105AA00060917703709178038091790390917A03E4
:105AB0000E946C339B01AC01C301B2010E94C2324F
:105AC0002B013C01C0928103D0928203E0928303B8
:105AD000F0928403C701B60177C06091C30370914F
