:100000000C94E9030C9411040C94D4050C941C0674
:100010000C94F8050C9411040C9411040C94110424
:100020000C9411040C9411040C943B090C94DE06FE
:100030000C9411040C9411040C9411040C941104EC
:100040000C9411040C9411040C9411040C941104DC
:100050000C9411040C9411040C9411040C94CC1BFA
:100060000C9411040C9411040C9411040C941104BC
:100070000C9411040C9411040C9411040C941104AC
:100080000C9411040C9411040C9411040C9411049C
:100090000C94161C0C9411040C9411040C9411046F
:1000A0000C9411040C9411040C941104E82C792A7A
:1000B000582BEB2D422C592D6B2BE52CEB2DEB2DDA
:1000C000EB2DEB2DEB2DEB2DA42A812AEB2D762A9F
:1000D000702AEB2DC629492A802CEB2DE52CE52C26
:1000E000A82DB02D782D802DEB2D882D702DEB2D8A
:1000F000A02DB82DEB2DEB2D982DEB2DEB2DEB2D11
:10010000EB2DEB2D902D4B10DB1018127811FB12FC
:10011000B3141A1450154B167E16B1162117EC168F
:1001200005A84CCDB2D44EB93836A9020C50B991BD
:100130008688083CA6AAAA2ABE000000803F0000CC
:100140000000000000002A2B280000000000000032
:1001500000000000000000000000000000002C9ED5
:10016000B4A0A1A2A434A6A7A5AE362D3738271E69
:100170001F20212223242526B333B62EB7B89F840F
:1001800085868788898A8B8C8D8E8F9091929394A7
:1001900095969798999A9B9C9D2F3130A3AD3504E5
:1001A00005060708090A0B0C0D0E0F101112131487
:1001B00015161718191A1B1C1DAFB1B0B500080B86
:1001C0000002020201000904000001020200000511
:1001D000240010010524010101042402060524065F
:1001E00000010705810310004009040100020A0014
:1001F00000000705020240000007058302400000DE
:10020000090402000203000000092101010001228B
:10021000E1040705840340000107050503400001D0
:1002200005010904A10185040901A1000930170095
:1002300000000027FFFF0000350047FFFF000075AA
:100240001095018102093116000027FFFF000035DB
:100250000047FFFF0000751095018102093216006A
:100260000027FF0F0000350047FF0F0000750C95B9
:10027000018102093316000027FF0F0000350047F7
:10028000FF0F0000750C950181020934160000274C
:10029000FF0F0000350047FF0F0000750C9501812E
:1002A000020939150125083500463B016514550042
:1002B00075049501810205091500250155006500A9
:1002C0001901291875019518810285F10901150098
:1002D00026FF00953F7508918285F20901953F75CB
:1002E000088182C0050F0992A1028502099F09A019
:1002F00009A409A509A615002501350045017501C8
:1003000095058102950381030994150025013500A7
:100310004501750195018102092215012528350144
:100320004528750795018102C00921A102850109AF
:1003300022150125283501452875089501910209E6
:1003400025A1020926092709300931093209330993
:10035000340940094109420943250B15013501457E
:100360000B750895019100C009500954150027FF2D
:10037000FF0000350047FFFF000066011055FD75C6
:10038000109502910255006600000952150026FFE3
:100390007F350046FF7F75109501910209531501C5
:1003A0002508350145087508950191020955A102F6
:1003B00005010930093115002501750195029102E9
:1003C000C0050F095695019102950591030957A1A2
:1003D000020B01000A000B02000A0066140055FE21
:1003E000150026FF7F3500479F8C00007510950192
:1003F00091025500660000C0050F09A7660110555F
:10040000FD150027FFFF0000350047FFFF000075C6
:1004100010950191026600005500C0050F095AA110
:100420000285020922150125283501452875089500
:10043000019102095B095D150026FF00350046FFAA
:100440007F750895029102095C095E66011055FDF1
:1004500026FF7F46FF7F75109502910266000055CA
:1004600000C0095FA1028503092215012528350175
:1004700045287508950191020923150025013500CD
:1004800045017504950191020958A1020B01000A6A
:10049000000B02000A00750295029102C009601665
:1004A000008026FF7F36008046FF7F751095019102
:1004B00002096136008046FF7F95019102150026F2
:1004C000FF7F350046FF7F09637510950191020992
:1004D00065150026FF0046FF7F750895019102C053
:1004E000096EA10285040922150125283501452838
:1004F0007508950191020970150026FF7F350046A9
:10050000FF7F751095019102096F16008026FF7F0D
:1005100036008046FF7F950191020971150026FF84
:100520000035004667016614005500750895019175
:1005300002097227FFFF000047FFFF00006601105D
:1005400055FD7510950191026600005500C00973B4
:10055000A1028505092215012528350145287508C0
:1005600095019102097016018026FF7F36018046B1
:10057000FF7F751095019102C00974A102850609DB
:100580002215012528350145287508950191020994
:100590007509761581257F36018046FF7F750895A0
:1005A000029102C0050F0977A102850A09221501EF
:1005B0002528350145287508950191020978A10281
:1005C0000979097A097B15012503750895019100C0
:1005D000C0097C150026FF00350046FF009102C0CF
:1005E0000990A102850B092215012528350145280E
:1005F000750895019102C00996A102850C09970919
:10060000980999099A099B099C1501250675089571
:10061000019100C0097DA102850D097E150026FF0C
:10062000003500461027750895019102C009ABA15D
:100630000285050925A10209260927093009310982
:10064000320933093409400941094209431501259A
:100650000B3501450B75089501B100C00501093B3B
:10066000150026FF01350046FF01750A9501B1020C
:100670007506B101C0050F0989A102850609222569
:100680002815013501452875089501B102098BA18E
:1006900002098C098D098E25031501350145037565
:1006A000089501B100C009AC150027FFFF00003517
:1006B0000047FFFF000075109501B100C0097FA140
:1006C000028507098075109501150027FFFF0000BE
:1006D000350047FFFF0000B102098326FF0046FFF7
:1006E0000075089501B10209A909AA7501950215BD
:1006F00000250135004501B10275069501B103C021
:10070000C01803410072006400750069006E006F3C
:100710000020004C004C0043000403090422034164
:100720000072006400750069006E006F0020004DCB
:10073000006900630072006F00200020002000129A
:100740000100020000004041233780000101020047
:100750000112010002020000404123378000010124
:1007600002000100C18081C1C00706050401000824
:100770000A0B0C0D0900000000250028002B002E9C
:1007800000310000000000240027002A002D003066
:100790000004040404040304050202020204030228
:1007A0000202020606060606060404020202040409
:1007B0000408020110408040102040804080080260
:1007C00004018040201002011080102040402000D1
:1007D000052E11241FBECFEFDAE0DEBFCDBF11E042
:1007E000A0E0B1E0E4E3F4E602C005900D92A83A7F
:1007F000B107D9F725E0A8EAB1E001C01D92A53400
:10080000B207E1F713E0C9EED3E004C02197FE017F
:100810000E940632C83ED107C9F70E941D220C94DF
:1008200018320C9400008C30F8F4282F30E09DE151
:10083000899FF0011124E55BFD4F90819923A1F080
:1008400090819D7F9083F901E550FE4F9581911134
:100850000BC0E091A901F091AA010084F185E02D7F
:10086000099510920B0208950895FC01CB01209187
:10087000E80022FFFCCF282F215028F03091F10012
:1008800030833196F9CF24E62093EF012BEF2093AC
:10089000E80008950F931F93CF93DF93DB01A40F1C
:1008A000B51FFB016EEFEA17FB0791F187FF02C04E
:1008B000249101C020810091F3011091F401C091B5
:1008C000F101D091F2010C171D07B4F49091E800EA
:1008D0009570E1F39091E80092FD1CC02093F10027
:1008E0002091F3013091F4012F5F3F4F2F73332795
:1008F000232B11F46093E8002091F3013091F4016F
:100900002F5F3F4F3093F4012093F3013196CBCF0B
:10091000CA0102C08FEF9FEFDF91CF911F910F911E
:100920000895CF93DF9300D000D01F92CDB7DEB7EC
:10093000FC0181819081913A29F5813009F0BCC098
:100940008281863051F445E050E066EF71E080E44A
:100950000E944A041092F601AFC0873009F0ACC083
:1009600089838FEF9FEF9B838A838BE08C8383E067
:100970008D8345E050E0BE016F5F7F4F80E40E94B1
:100980004A049AC0913209F097C0893009F094C0A6
:100990008281853009F090C064E070E0CE0101965C
:1009A0000E94350486E08093F60180910F018B3020
:1009B00021F1A0910F0181E08A0F80930F019DE149
:1009C000E0910F019E9FF0011124E55BFD4F8081B6
:1009D000882351F080910F018B3030F480910F010A
:1009E0008F5F80930F01ECCF8DE1A89FF001112460
:1009F000E55BFD4F81E0808301C0A0E0A093F7019B
:100A0000A11104C082E08093F80150C010925F04ED
:100A100081E08093F8018A819DE1A99FD001112492
:100A2000A55BBD4F11968C9311978FEF9FEF1F968B
:100A30009C938E931E9753961C921E92529751969A
:100A40001C921E92509712968C93129713968C9329
:100A5000139755961C921E9254971D961C921E92A7
:100A60001C9715961C9215978FEF9FE719969C93EC
:100A70008E93189757961C921E9256975B961C92CF
:100A80001E925A975C961C925C9788EE93E01B9698
:100A90009C938E931A97E091A901F091AA01068484
:100AA000F785E02DBD01CE01019609958FEF9FEFEF
:100AB0009093FA018093F90181E00F900F900F90CD
:100AC0000F900F90DF91CF91089542E450E06EEBCC
:100AD00071E080E80E944A0440E250E060E072E089
:100AE00080E80E944A0483E090E00895EF92FF922C
:100AF0001F93CF93DF93EC01162FE881F9810480D7
:100B0000F581E02D09957C01E881F9810680F78166
:100B1000E02D612FCE010995C7019927DF91CF9173
:100B20001F91FF90EF900895FC0191818081813A9F
:100B300029F49D7F81E0913091F414C0813279F4E1
:100B40009A3049F09B3019F0993049F40AC08281FB
:100B500080930E0106C0828180930D0102C080E067
:100B6000089581E008958C30F0F49DE1899FF001B3
:100B70001124E55BFD4F80818823A9F0808182608C
:100B8000808380910B0281110EC00E94C01B609374
:100B9000110270931202809313029093140281E069
:100BA00080930B02089508951F920F920FB60F9233
:100BB00011248F939F93AF93BF93809119029091CB
:100BC0001A02A0911B02B0911C02F8948093B30307
:100BD0009093B403A093B503B093B6037894BF91F8
:100BE000AF919F918F910F900FBE0F901F9018950E
:100BF0001F920F920FB60F9211242F933F934F9392
:100C00005F936F937F938F939F93AF93BF93EF9374
:100C1000FF930E944C0DFF91EF91BF91AF919F9177
:100C20008F917F916F915F914F913F912F910F9095
:100C30000FBE0F901F9018951F920F920FB60F9234
:100C400011242F933F934F935F936F937F938F93D1
:100C50009F93AF93BF93EF93FF930E944C0DFF912F
:100C6000EF91BF91AF919F918F917F916F915F9124
:100C70004F913F912F910F900FBE0F901F9018959D
:100C8000CF92DF92EF92FF920F931F93CF93DF9358
:100C90001F92CDB7DEB7F82EE42E8B01C82ED92EC9
:100CA0008C2D8F198E1588F4F80161918F01C60182
:100CB00069830E949B2E6981681719F0C6010E9402
:100CC000A32EFFEFCF1ADF0AEBCF0F90DF91CF916A
:100CD0001F910F91FF90EF90DF90CF900895CF92EA
:100CE000DF92EF92FF920F931F93CF93DF931F92A8
:100CF000CDB7DEB78B016B017C01E61AF70A9C2D9C
:100D0000901B941758F4C7018C0D9D1D49830E94B8
:100D10009B2EF60181936F014981F1CF0F90DF91F6
:100D2000CF911F910F91FF90EF90DF90CF9008959A
:100D30008F929F92AF92BF92CF92DF92EF92FF92EB
:100D400040E050E020E0682F70E0812C912C5401AD
:100D50008394FA013296DB0102C0B595A795EA9516
:100D6000E2F775016401042E04C0CC0CDD1CEE1CFE
:100D7000FF1C0A94D2F7A0FF02C02C2902C0C09425
:100D80002C214F5F5F4F4430510519F730E0220F9F
:100D9000331FF901EC5CFE4F80FF05C0808191811B
:100DA0009695879502C080819181FF90EF90DF90AA
:100DB000CF90BF90AF909F908F9008951F920F9209
:100DC0000FB60F921124EF92FF921F932F933F9330
:100DD0004F935F936F937F938F939F93AF93BF9343
:100DE000EF93FF93CF93DF93CDB7DEB76197DEBF6D
:100DF000CDBF1092E9008091E80083FF59C1FE0148
:100E00003A96CF0128E02E0F2E1729F03091F100ED
:100E100030833196F9CF24E62093EF0122EF20931F
:100E2000E8002A8527FF05C03091E80030FFFCCF9D
:100E300003C03EEF3093E800322F307609F0C5C092
:100E40008B85811105C01092F1001092F10029C12B
:100E5000982F9D7F913009F424C1853049F4809109
:100E6000E80080FFFCCF8C8580688093E30019C187
:100E7000863009F07CC01D85E888F9881092E90069
:100E80001092F4011092F301123091F51092F201D8
:100E90001092F1010E94650599E0BE016F5F7F4FDE
:100EA000FB01292F11922A95E9F799831A8391E082
:100EB0009E8390E898879AEF99872091F30130916B
:100EC000F401275F3F4F3C832B838D831092E90011
:100ED0001092F4011092F301F092F201E092F1010C
:100EE00049E050E080E00E944A040E946505D9C0B4
:100EF000F092F201E092F101123259F441EE54E025
:100F000060E272E080E80E944A04892B09F0C9C0BF
:100F1000CCC0113069F488899989089711F410932D
:100F2000F0018091F001811111C06FE377E016C0EC
:100F3000133009F0BAC08C85882359F0823061F0F3
:100F4000813009F0B2C061E077E008C061E577E088
:100F500005C069E177E002C06DE177E061157105D8
:100F600009F4A3C0FB01449150E080E849C08730F8
:100F700009F49BC0883021F481E08093F10091C096
:100F8000893009F08EC0237009F08FC080E090E0B6
:100F900031E026E341E0480F4093E9003093EB0055
:100FA0000196FC01ED59F84FE491E093EC00209399
:100FB000ED008530910571F78EE78093EA0010927D
:100FC000EA008C858093A8016CC028893989109229
:100FD000E9001092F4011092F3013093F201209392
:100FE000F1012E85211154C08B859A85913A59F4CF
:100FF000813209F05AC047E050E060E171E080E0E2
:101000000E944A044EC0913209F04FC0803239F438
:1010100067E070E080E191E00E94350442C08232D6
:1010200009F043C08C858093170180911001909145
:101030001101A0911201B0911301803B9440A105D0
:10104000B10579F58091170180FD11C087E797E719
:1010500090930108809300089BE088E10FB6F89414
:10106000A895809360000FBE909360001AC00FB6E1
:10107000F894A89580916000886180936000109238
:1010800060000FBEA895109201081092000809C0D8
:10109000223059F4E0916004F091610409958823AD
:1010A00021F08EEF8093E80003C081E28093EB0093
:1010B00061960FB6F894DEBF0FBECDBFDF91CF9122
:1010C000FF91EF91BF91AF919F918F917F916F9120
:1010D0005F914F913F912F911F91FF90EF900F9053
:1010E0000FBE0F901F9018958F929F92AF92BF9254
:1010F000CF92DF92EF92FF920F931F93CF93DF93E4
:1011000000D01F92CDB7DEB7382F8B018091A80198
:10111000882389F04A018AEFF82E832F8770E82E02
:1011200090E4C92E832F8072B82E2AE3D22E832F0B
:101130008074A82E21C08FEF9FEF5FC08FB7F89407
:10114000E092E9009091E80095FF1AC09091F200BA
:101150002C2D291B8FBF211115C0FA94FF2059F3A4
:1011600061E070E080E090E039834A835B830E9415
:101170009A1B39814A815B8181149104F9F634C04C
:1011800020E0E8CF822F90E0881699060CF4282DF5
:10119000822F90E0881A990A6FB7F894E092E900DC
:1011A000BB2029F02150A8F01092F100FBCFF801EC
:1011B00037FF07C0215058F074917093F1003196B9
:1011C000F9CF215020F071917093F100FACF080F00
:1011D000191F8091E80085FF0DC08114910411F45E
:1011E000A11008C06FBFC8CF5D9A84E68093F50157
:1011F000CA0103C0D092E800F5CF0F900F900F9076
:10120000DF91CF911F910F91FF90EF90DF90CF90E2
:10121000BF90AF909F908F9008959091A8019923CF
:1012200011F057FF03C08FEF9FEF08952FB7F89489
:1012300087708093E9008091F20090E08417950711
:101240000CF4AC01842FFB0194E6815030F09093B4
:10125000EF013091F1003193F8CF4115510521F0A4
:101260008091F200882319F02FBFCA0108958BE600
:101270008093E800F9CF1F920F920FB60F921124BE
:101280002F933F934F935F936F937F938F939F938E
:10129000AF93BF93EF93FF93CF93DF93CDB7DEB7B9
:1012A000C054D109DEBFCDBF8091E1001092E100B2
:1012B00083FF0FC01092E90091E09093EB00109231
:1012C000EC0092E39093ED001092A80198E09093C7
:1012D000F00082FF46C083E08093E9008091F20035
:1012E000882319F08AE38093E8009FB7F89482E09E
:1012F0008093E9008091F2009FBF882321F088EB62
:1013000093E00E94D31A9FB7F89485E08093E90098
:101310008091F2009FBF8823C1F080916204909178
:101320006304892B91F040E450E0BE016F5F7F4F72
:1013300085E00E940D0997FD08C0E0916204F091DC
:101340006304BC01CE01019609958091F5018823C3
:1013500041F08091F50181508093F501811101C028
:101360005D98C05CDF4F0FB6F894DEBF0FBECDBFF7
:10137000DF91CF91FF91EF91BF91AF919F918F91AD
:101380007F916F915F914F913F912F910F900FBE81
:101390000F901F901895EF92FF920F931F93CF938A
:1013A000DF931F92CDB7DEB789838B017A0141E0CD
:1013B00050E0BE016F5F7F4F84E00E947408A70178
:1013C000B80184E40E9474080F90DF91CF911F91BF
:1013D0000F91FF90EF9008951F93CF93DF93EC014F
:1013E00019819881953009F45DC058F59230D1F19A
:1013F000A8F4913009F03FC2E091A901F091AA014F
:101400002DE1129FB0011124655B7D4F028CF38D9D
:10141000E02DCE01DF91CF911F910994933081F19E
:10142000943009F028C2E091A901F091AA01ADE140
:101430001A9FB0011124655B7D4F0488F589E02D6A
:101440002CC09B3009F493C030F49630C9F19A3027
:1014500009F444C010C29C3009F4C2C0913F09F4A1
:1014600011C109C2E091A901F091AA013DE1139FC8
:10147000B0011124655B7D4F0088F189E02D0DC01E
:10148000E091A901F091AA018DE1189FB00111240A
:10149000655B7D4F0288F389E02DCE01DF91CF910E
:1014A0001F910994E091A901F091AA01BDE11B9F50
:1014B000B0011124655B7D4F0688F789E02DEDCFE3
:1014C000E091A901F091AA012DE1129FB001112430
:1014D000655B7D4F008CF18DE02DDFCF1F3F09F460
:1014E0001FE79A81913099F4812F0E94B305E12F73
:1014F000F0E0E550FE4F85818111BDC1E091A90169
:10150000F091AA010680F781E02D812F47C092302B
:1015100029F5C1E08C2F0E941304CF5FCC30D1F7A6
:10152000C12FD0E0C550DE4F8D81811109C0E091FF
:10153000A901F091AA010084F185E02D8FE70995BA
:10154000812F0E94B3058D81811195C1E091A90180
:10155000F091AA010680F781E02D1FC0933009F0B9
:101560008AC1812FDF91CF911F910C94130481E0E8
:101570001F3FC1F480930F018CE591E0EBE4F2E0B2
:10158000DF019C011D9221503040E1F7E091A9015B
:10159000F091AA010284F385E02D8FE7DF91CF91CE
:1015A0001F91099480935F041C3008F064C13DE1F1
:1015B000139FF0011124E55BFD4F108280910F0114
:1015C000181710F410930F01E091A901F091AA01EE
:1015D0000284F385E02D812F099510920B024BC1F7
:1015E00082E080930C0290910D02946090930D0222
:1015F00090910D02906190930D0210920E021330A3
:10160000C1F048F4113089F0123009F034C18091F2
:101610000D02826034C0153079F1B8F0163009F04F
:101620002AC180910D028E7F2AC080910D028D7F8C
:1016300026C0E091A901F091AA010480F581E02D76
:1016400080E0099510920E0216C1E091A901F09177
:10165000AA010480F581E02D81E0099581E0809365
:101660000F018CE591E0EBE4F2E0DF019C011D92BB
:1016700021503040E1F7FFC080910D0281608093DE
:101680000D02F9C08E89813009F0ADC0A981BA81FF
:10169000AE31B1053CF0A93037E0B3072CF0A8E03B
:1016A000B7E002C0AEE1B0E02091B2013091B301E9
:1016B0004091B4015091B5010E94DB2E28E631E043
:1016C00040E050E00E94B12E2093A9033093AA037A
:1016D0004093AB035093AC03CA01B90122E030E060
:1016E00040E050E00E94B12E2093190230931A027C
:1016F00040931B0250931C028D89813011F40E948B
:10170000190E8F81893C08F088EC80930F02888540
:10171000893C08F088EC80931E028985893C08F09A
:1017200088EC809317028A85893C08F088EC8093C6
:1017300015028B85893C08F088EC80931D028C850E
:10174000893C08F088EC809318028D85893C08F06C
:1017500088EC809316028E85893C08F088EC809393
:10176000A7038F85893C08F088EC809310022A89B2
:101770003B898091AF039091B00328173907A0F4FB
:1017800037FD0AC08091AB019091AC0101972817F9
:10179000390720F4C90102C080E090E09093AE03C5
:1017A0008093AD0383E68E8B288939898091AD03C0
:1017B0009091AE038217930708F050C083E68E8B9A
:1017C000121613064CF48091AB019091AC012817CE
:1017D000390720F4C90102C081E090E09093B00382
:1017E0008093AF033BC08F3FC9F58091B7019091C3
:1017F000B8019A8389838091CE039091CF03A09101
:10180000D003B091D1038B839C83AD83BE83809141
:101810000F028F8380911E0288878091170289872B
:10182000809115028A8780911D028B878091180212
:101830008C87809116028D878091A7038E87809177
:1018400010028F878091AF039091B003998B888BA2
:101850008091AD039091AE039B8B8A8B86EE90E0D6
:10186000988F8F8B40E450E0BE0182EFDF91CF91E3
:101870001F910C94CB09DF91CF911F910895DC014A
:10188000683810F0685825C0E62FF0E067FF12C0F6
:10189000E058F10981E090E001C0880FEA95EAF78D
:1018A000809514969C911497892314968C93149781
:1018B00060E00FC0E25CFE4F6491662311F167FFA8
:1018C00008C014968C9114978D7F14968C9314975E
:1018D0006F77FD01369686E0662321F0908196139E
:1018E00001C01082815031968111F6CFBD016C5F2D
:1018F0007F4F48E050E082E00E94CB0981E090E019
:10190000089580E090E00895FC0116821782108609
:101910001186128613861482BC016C5F7F4F48E0EB
:1019200050E082E00C94CB09DC01683810F0685874
:101930002DC0E62FF0E067FF11C0E058F10981E00B
:1019400090E001C0880FEA95EAF714969C911497ED
:10195000892B14968C93149760E018C0E25CFE4FBC
:101960006491611109C081E090E013969C938E937D
:10197000129780E090E0089567FF08C014968C915C
:101980001497826014968C9314976F7716968C91A7
:101990001697861751F117968C911797861729F18C
:1019A00018968C911897861701F119968C911997B2
:1019B0008617D9F01A968C911A978617B1F01B9654
:1019C0008C911B97861789F0FD01369680E090E098
:1019D0002191211105C0FD01E80FF91F668305C0A3
:1019E000019686309105A1F7BECFBD016C5F7F4F98
:1019F00048E050E082E00E94CB0981E090E0089549
:101A0000009769F0FC0101900020E9F73197AF01E0
:101A1000481B590BBC0188EB93E00C94EC1880E058
:101A200090E008950F931F930E94C01B6093C00322
:101A30007093C1038093C2039093C303E091B803F2
:101A4000F091B9030084F185E02D88EB93E00995CE
:101A500097FF1FC00E94C01B0091C0031091C103DB
:101A60002091C2033091C303DC01CB01801B910B99
:101A7000A20BB30B0091BC031091BD032091BE03D8
:101A80003091BF0380179107A207B307B8F28FEF19
:101A90009FEF1F910F9108959091B70389B18C70BA
:101AA000892B90E09C0135952795359527952093B6
:101AB000B7034091B3035091B4036091B5037091A3
:101AC000B603FC01E25BFE4F8081082E000C990BEF
:101AD000AA0BBB0B840F951FA61FB71F8093B303E0
:101AE0009093B403A093B503B093B6038091B2036F
:101AF0000895E091B803F091B9030190F081E02DD1
:101B0000682F88EB93E00994CF93DF938DE00E94D8
:101B1000790DEC018AE00E94790D8C0F9D1FDF91F9
:101B2000CF9108958F929F92AF92BF92EF92FF92C2
:101B30000F931F93CF93DF93CDB7DEB7A1970FB667
:101B4000F894DEBF0FBECDBF162F042F19A242306E
:101B500008F40AE07E0121E2E20EF11C802E912CB5
:101B6000A12CB12C612FA50194010E94E32E029FAC
:101B70001019112481E0E81AF1081A3014F4105DEC
:101B800001C0195CF7011083122F732FCA01232B98
:101B9000242B252B39F7C7010E94000DA1960FB603
:101BA000F894DEBF0FBECDBFDF91CF911F910F9193
:101BB000FF90EF90BF90AF909F908F900895CF923D
:101BC000DF92EF92FF92CF93DF9397FF19C06B01E3
:101BD0007C018DE20E94790DEC0166277727CB010D
:101BE0006C197D098E099F094AE00E94920D8C0FA5
:101BF0009D1FDF91CF91FF90EF90DF90CF900895E0
:101C00004AE0DF91CF91FF90EF90DF90CF900C945E
:101C1000920DCF93DF93BC01990F880B990B0E9413
:101C2000DF0DEC010E94840D8C0F9D1FDF91CF9181
:101C300008954F925F926F927F928F929F92AF9290
:101C4000BF92CF92DF92EF92FF92CF93DF93F894FF
:101C5000C090B303D090B403E090B503F090B60306
:101C600078946091AF037091B0038091AD0390912F
:101C7000AE03681B790B769567957695679580E03E
:101C800090E00E945E1D68EC70E080E090E00E94B1
:101C90009A1B46015701C8EED3E06091AF037091E3
:101CA000B0038091AD039091AE03681B790B7695DC
:101CB00067957695679580E090E00E945E1D68ECE0
:101CC00070E080E090E00E949A1BF8944090B3038B
:101CD0005090B4036090B5037090B6037894841468
:101CE0009504A604B70421F0219753014201A9F6F7
:101CF0008091A9039091AA03A091AB03B091AC038A
:101D0000F8948093B3039093B403A093B503B09376
:101D1000B603789460E070E0CB010E945E1DC414AD
:101D2000D504E604F70411F482E001C081E0809359
:101D3000D20381E090E0DF91CF91FF90EF90DF90B0
:101D4000CF90BF90AF909F908F907F906F905F905B
:101D50004F900C94090E2F923F924F925F926F9288
:101D60007F928F929F92AF92BF92CF92DF92EF922B
:101D7000FF920F931F93CF93DF93CDB7DEB7AF974B
:101D80000FB6F894DEBF0FBECDBF6B837C838D830F
:101D90009E838091D3039091D403A091D503B091F9
:101DA000D6032B813C814D815E812093D3033093F8
:101DB000D4034093D5035093D6032091DB03222311
:101DC00009F44AC01091040434E0139FA0011124C7
:101DD000BA016D527C4F7B012B813C814D815E812C
:101DE000281B390B4A0B5B0BCA01B9010E9430302A
:101DF000D70119966D937D938D939C931C97012F1A
:101E0000BAE0FB2E60E070E0CB01B4E00B9FF00184
:101E10001124ED52FC4F21853285438554850E9463
:101E2000152F002311F0015001C009E0FA94F110C0
:101E3000ECCF20E030E040E251E40E94862F1F5FAB
:101E40001A3018F41093040402C0109204046D8B2D
:101E50007E8B8F8B988F0FC081E08093DB03109275
:101E6000D7031092D8031092D9031092DA031D8A77
:101E70001E8A1F8A188E2091050430910604409115
:101E80000704509108048D899E89AF89B88D80938D
:101E9000050490930604A0930704B093080480916E
:101EA0000D04882309F443C010915E04E4E01E9FF2
:101EB000B0011124CB0184529C4F7C016D897E8935
:101EC000CD010E94142FD701D2966D937D938D93EF
:101ED0009C93D597012FA4E1FA2E60E070E0CB012E
:101EE000B4E00B9FF0011124E452FC4F22A933A966
:101EF00044A955A90E94152F002311F0015001C0DB
:101F000003E1FA94F110ECCF20E030E040EA51E434
:101F10000E94862F1F5F143118F410935E0402C0D4
:101F200010925E046D8F7E8F8F8F98A30FC081E01B
:101F300080930D041092090410920A0410920B046D
:101F400010920C041D8E1E8E1F8E18A280915F04AD
:101F5000882309F441C08B819C81AD81BE81B7FF8C
:101F600007C0B095A095909581959F4FAF4FBF4FFB
:101F70000297A105B1050CF487C78091A80380FFE3
:101F800083C70E945B1F9B01AC0160E070E080E0B2
:101F900094E40E94862F6B017C016091A70370E09E
:101FA00080E090E00E9430309B01AC01C701B60197
:101FB0000E94E53020E030E048EC52E40E94862F99
:101FC0000E94F82FAB016B817C818D819E810E94E4
:101FD00094202B013C015BC7EFE1F2E0FC8BEB8B23
:101FE0001A821982412C512C320129813A812F5FAA
:101FF0003F4F3A8329836DE1629FA001639F500D9B
:1020000011248A01055B1D4FD8018C9183708330A8
:1020100009F02DC70E945B1F6B017C01F801208530
:102020003185A689B7890E940C322FEF3FE740E047
:1020300050E00E94B12ECA01B9010E943030A701C0
:1020400096010E94862F0E94F82F6B017C01D80117
:102050001A968D919C911B97059730F4E4E0F0E07F
:102060001B96FC93EE931A974DE129813A81429F8A
:10207000F001439FF00D1124E55BFD4FE1818E2FB0
:1020800090E0FC013197ED30F10508F0DAC6ED572C
:10209000FF4F0C9406320E945B1F6F8378878987FD
:1020A0009A878DE169817A81869FA001879F500D73
:1020B0001124DA01A55BBD4F1D0118968D909C90EF
:1020C00019975496AD90BC9055971E96CD90DC9084
:1020D0001F975096ED90FC90519752960D911C9140
:1020E000539713962C91139712964C9112975696DC
:1020F0008D919C915797EB89FC89608171810E9439
:102100006C1F9401DC010E940C322FEF3FE740E08E
:1021100050E00E94B12ECA01B9010E9430302F81D7
:10212000388549855A850E94862F0E94F82F0E9483
:1021300069209B01AC01A0911E02B0E00E94D02E4C
:1021400024E630E040E050E00E94B12E421A530AEB
:10215000640A750AD10115968C91159782FF71C694
:102160001C966D917C911D9780E090E00E942E302E
:102170002BED3FE049EC50E40E94E53020E030E0F8
:1021800040E058E30E94E5300E9452319B01AC01CF
:10219000C301B2012AA73DA74BA75CA70E9430301C
:1021A0002AA53DA54BA55CA50E94E5300E94F82F0D
:1021B0002B013C0146C60E945B1F6F83788789878D
:1021C0009A874DE129813A81429FF001439FF00DAA
:1021D0001124E55BFD4F608571857C876B87A48842
:1021E000B58886859785988B8F87A089B189BA8FA6
:1021F000A98F228933893DA32CA383809280AB8948
:10220000BC892D903C90268537853FA72EA76781F6
:102210000681002E000C110B062E000C770B601BA4
:10222000710BCB01770FAA0BBB0B6627782F892F79
:102230009A2F0E9430306B017C014EA55FA5BA0138
:1022400080E090E00E942E3020E030E04AE754E445
:102250000E94862F9B01AC01C701B6010E94862F08
:102260006B017C01C1016EA57FA50E94F231BC010A
:1022700080E090E00E942E3020E030E04AE754E415
:102280000E94862F9B01AC01C701B6010E94E53078
:102290000E94F82F102F0027C801860F971FCF84A8
:1022A000D888E98CFA8C0CA11DA1282D492DB101EB
:1022B0000E946C1F2B853C85DC010E940C322FEFA5
:1022C0003FE740E050E00E94B12ECA01B9010E94F0
:1022D00030302F81388549855A850E94862F0E948B
:1022E000F82F0E946920461A570A680A790AA9C578
:1022F0000E945B1F6F83788789879A878DE1698148
:102300007A81869FF001879FF00D1124E55BFD4FD8
:1023100020843184A28DB38DBC87AB87B48DBF87F9
:10232000228533853A8F298FA488B588C684D784BF
:10233000E088F1880289138923814281AB89BC89B5
:102340008D909C9086899789B4010E946C1F8C01A6
:10235000E98DFA8DBF0180E090E00E942E3020E0F0
:1023600030E04AE754E40E94862F9B01AC0160E014
:1023700070E080E89FE30E94862F6B017C01C4011E
:10238000698D7A8D0E94F231BC0180E090E00E945C
:102390002E3020E030E04AE754E40E94862F9B0173
:1023A000AC01C701B6010E94E5306B017C01FF85DD
:1023B0006F2F70E080E090E00E942E3020E030E04F
:1023C00040E85BE30E94E5309B01AC01C701B60128
:1023D0000E94152F2BED3FE049EC50E40E94E530C0
:1023E0000E9452319B01AC016B857C856B01770F9C
:1023F000EE08FF08B801110F880B990B2AA73DA71B
:102400004BA75CA70E9430302AA53DA54BA55CA533
:102410000E94E5300E94F82FCB01770FAA0BBB0B6F
:10242000A7019601280F391F4A1F5B1FD101BDC0AC
:102430000E945B1F6F83788789879A87ADE18981C6
:102440009A81A89FF001A99FF00D1124E55BFD4F33
:10245000208531853C872B87228D338DA901330F51
:10246000660B770B4F87588B698B7A8B548D598FFE
:1024700022843384A488B588C684D784E088F18810
:102480000289138923814281AB89BC890D90BC915B
:10249000A02DBDA3ACA386899789BD010E946C1FA6
:1024A000BC01990F880B990B0E9430306B017C01A5
:1024B000B10180E090E00E942E3020E030E04AE759
:1024C00054E40E94862F9B01AC0160E070E080E83C
:1024D0009FE30E94862F4B015C018CA19DA1B1015D
:1024E0000E94F231BC0180E090E00E942E3020E09A
:1024F00030E04AE754E40E94862F9B01AC01C501FD
:10250000B4010E94E5304B015C01B98D6B2F70E086
:1025100080E090E00E942E3020E030E040E85BE375
:102520000E94E5309B01AC01C501B4010E94152F4A
:102530002BED3FE049EC50E40E94E5300E9452311F
:102540004B015C0120E030E0A9010E94E03087FFF0
:102550000CC020E030E0A901C501B4010E94812F28
:1025600087FF05C0EFEFEBA302C0F1E0FBA32BA1B7
:10257000622F220F770B880B990B0E9430309B0142
:10258000AC01C701B6010E94E5300E94F82FCB01D3
:10259000770FAA0BBB0B2F85388949895A89280FD9
:1025A000391F4A1F5B1FAB85BC850E94D02E2FEFC1
:1025B0003FE740E050E00E94B12ECA01B9010E94FD
:1025C00030302F81388549855A850E94862F0E9498
:1025D000F82F9B01AC01A0911D02B0E00E94D02E0B
:1025E00024E630E040E050E00E94B12E420E531E3F
:1025F000641E751E26C40E945B1F6B877C878D87B7
:102600009E876DE149815A81649FF001659FF00DBD
:102610001124E55BFD4F80859185988B8F87228DF6
:10262000338DA901330F660B770B498F5A8F6B8F50
:102630007C8F348D22843384A488B588C684D78463
:10264000E088F1880289138923814281AB89BC89A2
:102650000D90BC91A02DB887AF8386899789BD0165
:102660003DA70E946C1F8C01B10180E090E00E94A8
:102670002E304B015C013DA580E4830F682F70E094
:1026800080E090E00E942E3020E030E040E85BE304
:102690000E94E530A50194010E94E5300E94FF2FC1
:1026A0008F819885860F971FB1010E94F2319DA3FB
:1026B0008CA3BC0180E090E00E942E3020E030E04E
:1026C0004AE754E40E94862F6B017C0120E030E051
:1026D000A9010E94E03087FD3CC020E030E04AE7DD
:1026E00054E4C501B4010E94862F6F8378878987DF
:1026F0009A8720E030E040E05FE30E94E5309B01F4
:10270000AC01C701B6010E94812F87FF22C0B8012A
:10271000012E000C880B990B0E94303020E030E035
:1027200040E850E40E94E5302F81388549855A857C
:102730000E94862FA70196010E94E5300E94F82F83
:10274000119501951109F801E60FF71FFAA3E9A306
:1027500050C020E030E04AE754E4C501B4010E94D3
:10276000862F4B015C0120E030E040E05FE30E94F7
:10277000E5309B01AC01C701B6010E94E03087FD46
:1027800038C0A5019401C701B6010E94812F87FFBF
:1027900030C0B801012E000C880B990B0E9430301C
:1027A00020E030E040E850EC0E94E530A5019401C3
:1027B0000E94862F6B017C01369427946CA17DA129
:1027C0006219730980E090E00E942E3020E030E032
:1027D0004AE754E40E94862F9B01AC01C701B60171
:1027E0000E94E5300E94F82F9801260F371F3AA368
:1027F00029A349A15AA1CA01550FAA0BBB0B298DC8
:102800003A8D4B8D5C8D280F391F4A1F5B1FAF859A
:10281000B8890E94D02E2FEF3FE740E050E00E94A1
:10282000B12ECA01B9010E9430302B853C854D85FF
:102830005E85CBCE0E945B1F6F83788789879A87DE
:102840008DE169817A81869FF001879FF00D1124C7
:10285000E55BFD4FA085B185BC87AB87228D338DAD
:10286000A901330F660B770B4F87588B698B7A8BD7
:10287000348D22843384A488B588C684D784E088C4
:10288000F1880289138923814281AB89BC898D90AB
:102890009C9086899789B4013DA70E946C1F8C018A
:1028A000B10180E090E00E942E306B017C013DA5DB
:1028B0003058632F70E080E090E00E942E3020E0DE
:1028C00030E040E85BE30E94E530A70196010E94FA
:1028D000E5300E94FF2FC401860F971FB1010E94AF
:1028E000F2319A8F898F82159305D0F5B801012EA8
:1028F000000C880B990B0E9430309B01AC010E94A8
:10290000152F4B015C0120E030E04AE754E4C70199
:10291000B6010E94862F9B01AC01C501B4010E9443
:10292000862F6B017C01E98DFA8DBF0180E090E07C
:102930000E942E3020E030E04AE754E40E94862FC7
:102940009B01AC01C701B6010E94E5300E94F82F3F
:102950001195019511099801260F371F3FA32EA34A
:102960004EA15FA198C00E945B1F6F837887898703
:102970009A878DE169817A81869FF001879FF00DAA
:102980001124E55BFD4FA085B185BC87AB87228D07
:10299000338DA901330F660B770B4F87588B698BEB
:1029A0007A8B348D22843384A488B588C684D784F6
:1029B000E088F1880289138923814281AB89BC892F
:1029C0008D909C9086899789B4013DA70E946C1FC9
:1029D0008C01B10180E090E00E942E306B017C01FF
:1029E0003DA53058632F70E080E090E00E942E30CB
:1029F00020E030E040E85BE30E94E530A70196016B
:102A00000E94E5300E94FF2FC401860F971FB1017D
:102A10000E94F2319A8F898F82159305D0F566272F
:102A20007727601B710B072E000C880B990B0E94F7
:102A300030309B01AC010E94152F4B015C0120E05E
:102A400030E04AE754E4C701B6010E94862F9B019B
:102A5000AC01C501B4010E94862F6B017C01E98D98
:102A6000FA8DBF0180E090E00E942E3020E030E03F
:102A70004AE754E40E94862F9B01AC01C701B601CE
:102A80000E94E5300E94F82F9801260F371F39A7C2
:102A900028A748A559A5CA01550FAA0BBB0B7BCD8A
:102AA0008DE169817A81869FF001879FF00D112465
:102AB000E55BFD4FA28DB38D8090190290901A02B4
:102AC000A0901B02B0901C02A50194010E94DB2E75
:102AD000DC01CB016FE0B595A795979587956A9531
:102AE000D1F7092E000CAA0BBB0B2B813C814D8129
:102AF0005E81281B390B4A0B5B0B1216130614065A
:102B00001506F4F4A28DB38DA50194010E94DB2E6D
:102B1000DC01CB015FE0B595A795979587955A9510
:102B2000D1F7092E000CAA0BBB0B4B815C816D8188
:102B30007E81481B590B6A0B7B0BDB01CA011BC052
:102B4000A28DB38DA50194010E94DB2EDC01CB0187
:102B50004FE0B595A795979587954A95D1F7092E9A
:102B6000000CAA0BBB0B2B813C814D815E81821B2B
:102B7000930BA40BB50B6DE149815A81649FF00161
:102B8000659FF00D1124E55BFD4F448178E0479F80
:102B9000A0011124052E000C660B770B481759076E
:102BA0006A077B070CF04DC1A28DB38DA50194017E
:102BB0000E94DB2EDC01CB013FE0B595A7959795F0
:102BC00087953A95D1F7092E000CAA0BBB0B2B81E8
:102BD0003C814D815E81281B390B4A0B5B0B57FDF5
:102BE00003C008EF1FEF02C008E010E06DE149816B
:102BF0005A81649FF001659FF00D1124E55BFD4F44
:102C00003480828D938D9C878B87A0911802B0E0D1
:102C1000A70196010E94D02E20E436E040E050E06B
:102C20000E94B12E2F83388749875A87309E6001D2
:102C3000319ED00C11240D2C000CEE08FF082B81C6
:102C40003C814D815E81C20ED31EE41EF51EAB8514
:102C5000BC85A50194010E94DB2EDC01CB012FE095
:102C6000B595A795979587952A95D1F7092E000CCC
:102C7000AA0BBB0BA7019601281B390B4A0B5B0B58
:102C8000CA01B9014F8158850E949420460E571EF3
:102C9000681E791ED6C06DE149815A81649FF0019A
:102CA000659FF00D1124E55BFD4F028D138DA09102
:102CB0001702B0E0A70196010E94D02E24E630E072
:102CC00040E050E00E94B12E69017A01B801110F75
:102CD000880B990B0E9430302AE939EC4CEC54E413
:102CE0000E94862F9B01AC016D897E898F89988D0A
:102CF0000E94142FA6010E94C12165C0ADE1898107
:102D00009A81A89FF001A99FF00D1124E55BFD4F6A
:102D1000028D138DA0911602B0E0A70196010E94CA
:102D2000D02E24E630E040E050E00E94B12E690150
:102D30007A01B801110F880B990B0E94303020E006
:102D40003EEF4FEF56E40E94862F9B01AC016D8D44
:102D50007E8D8F8D98A10E94142FA6010E9459216B
:102D600032C04DE129813A81429FF001439FF00D2D
:102D70001124E55BFD4F028D138DA0911502B0E08B
:102D8000A70196010E94D02E24E630E040E050E0FA
:102D90000E94B12E69017A01B801110F880B990BBD
:102DA0000E9430302AE939EC4CEC54E40E94862F22
:102DB0009B01AC016D897E898F89988D0E94142FAB
:102DC000A6010E94D820092E000CAA0BBB0B480EAE
:102DD000591E6A1E7B1E35C00E945B1F9B01AC0101
:102DE0008DE169817A81869FF001879FF00D112422
:102DF000E55BFD4F628D738D072E000C880B990BE0
:102E00002AA73DA74BA75CA70E9430302AA53DA565
:102E10004BA55CA50E94862F0E94F82F0E94692076
:102E20009B01AC01A0911D02B0E00E94D02E24E6CF
:102E300030E040E050E00E94B12E421A530A640A8A
:102E4000750A0E94C01B009111021091120220917C
:102E5000130230911402DC01CB01801B910BA20BF9
:102E6000B30BEB89FC8980839183A283B3832B8985
:102E70003C892C5F3F4F3C8B2B8B49815A814B30D7
:102E8000510509F0B2C803C0412C512C32013090D9
:102E9000A80331FE2EC00E945B1F9B01AC01E09194
:102EA000170287E491E0E89FB001E99F700D1124BB
:102EB000072E000C880B990B2AA73DA74BA75CA7F0
:102EC0000E9430302AA53DA54BA55CA50E94862F07
:102ED0000E94F82FAB016D897E898F89988D0E94A1
:102EE000C121092E000CAA0BBB0B480E591E6A1EED
:102EF0007B1E32FE2EC00E945B1F9B01AC01E09145
:102F0000160287E491E0E89FB001E99F700D11245B
:102F1000072E000C880B990B2AA73DA74BA75CA78F
:102F20000E9430302AA53DA54BA55CA50E94862FA6
:102F30000E94F82FAB016D8D7E8D8F8D98A10E9420
:102F40005921092E000CAA0BBB0B480E591E6A1EF4
:102F50007B1E33FE2EC00E945B1F9B01AC01E091E3
:102F6000150287E491E0E89FB001E99F700D1124FC
:102F7000072E000C880B990B2AA73DA74BA75CA72F
:102F80000E9430302AA53DA54BA55CA50E94862F46
:102F90000E94F82FAB016D897E898F89988D0E94E0
:102FA000D820092E000CAA0BBB0B480E591E6A1E16
:102FB0007B1E8091190290911A02A0911B02B09180
:102FC0001C02002711279801081B190B2A0B3B0B29
:102FD0004B815C816D817E814017510762077307C9
:102FE00034F084179507A607B7070CF03FC02B8174
:102FF0003C814D815E8157FD07C069017A01C81A85
:10300000D90AEA0AFB0A08C0CB80DC80ED80FE808A
:10301000C80ED91EEA1EFB1E0E945B1F9B01AC015D
:1030200060E07EEF8FEF96E40E94862F4B015C01FB
:103030006091100270E080E090E00E9430309B01CF
:10304000AC01C501B4010E94E53020E030E048EC5D
:1030500052E40E94862F0E94F82FAB01C701B601EF
:103060000E949420460E571E681E791EA0910F02E2
:10307000B0E0A30192010E94D02E24E630E040E0AF
:1030800050E00E94B12ECA01B9010E9469206B0173
:103090007C0134FE04C00E94DF0D0E94840DC70134
:1030A000B601AF960FB6F894DEBF0FBECDBFDF916D
:1030B000CF911F910F91FF90EF90DF90CF90BF9035
:1030C000AF909F908F907F906F905F904F903F90C8
:1030D0002F900895682F70E080E090E04AE00C9413
:1030E000920D0C94000DFF920F931F93CF93DF93DB
:1030F00000D000D0CDB7DEB70E94120DFC0197FDC5
:1031000011C08D32910591F0C0970A9778F0E09147
:10311000B803F091B9030680F781E02D88EB93E0C6
:103120000995EACF60E070E0CB014CC020E030E0D0
:10313000A901F12CE130F105F1F0ED32F105C9F012
:10314000CF01C0970A97B8F4AAE0B0E00E94D02E51
:103150008F01FF0F220B330BDC01CB01800F911F7E
:10316000A21FB31F9C01AD01205331094109510930
:1031700002C0FF24F394E091B803F091B9030680F4
:10318000F781E02D88EB93E029833A834B835C83BE
:1031900009950E94120DFC01C09729813A814B814B
:1031A0005C810A9738F2E130F10521F2FF2041F00D
:1031B00066277727CB01621B730B840B950B02C02C
:1031C000CA01B9010F900F900F900F90DF91CF912E
:1031D0001F910F91FF900895CF92DF92EF92FF928F
:1031E0000F931F93CF93DF936C01EB017B01E40EF0
:1031F000F51E00E010E0CE15DF0561F06991D60103
:10320000ED91FC910190F081E02DC6010995080F28
:10321000191FF1CFC801DF91CF911F910F91FF903E
:10322000EF90DF90CF90089583E08093E900809144
:10323000F200882319F08AE38093E8000895209132
:10324000410530914205809143059091440528172E
:103250003907A9F0E0914305F0914405EF5FFA4F7B
:10326000808120914305309144052F5F3F4F2F739C
:103270003327309344052093430590E008958FEF62
:103280009FEF0895209141053091420580914305BB
:10329000909144052817390749F0E0914305F091D2
:1032A0004405EF5FFA4F808190E008958FEF9FEF24
:1032B00008958091410590914205209143053091F8
:1032C0004405821B930B8F739927089585ED809396
:1032D000BC008091BC0084FDFCCF1092D204089504
:1032E0004091AC04262F30E0240F311D21323105EE
:1032F000DCF42091D2042430C9F4FC0180E090E099
:10330000861758F43091AC042191DC01A657BB4FCD
:10331000A30FB11D2C930196F3CF8091AC04680FDD
:103320006093AC0480E0089581E0089582E0089500
:1033300008958FEF9FEF08958FEF9FEF089580918D
:10334000890490E09195819591090895CF93DF9339
:1033500000D0CDB7DEB7CB01642F49835A830E94DA
:1033600070194981842F5A81952F0F900F90DF910A
:10337000CF910895CF93DF931F92CDB7DEB76983C6
:1033800061E0CE0101960E94701981E090E00F90FB
:10339000DF91CF9108950895CF93DF93FC01EB0166
:1033A0007181828189838781908599878887258526
:1033B0003685438154816DE1769FC0011124855B80
:1033C0009D4FDC011F965C934E931E9755963C9340
:1033D0002E93549764E0769FD0011124A55EBD4FD3
:1033E0001D921D921D921C921397838594859D8733
:1033F0008C8782858D8381E0DF91CF910895FC01D8
:103400002281FB012683FC018381FB0187830895D0
:10341000FC0182819381FB01978B868B0895DC01EF
:10342000FB0112968D919C911397978B868B149626
:103430008D919C911597938F828F16968C911697EC
:10344000848F17968D919C91189793878287089502
:10345000DC01FB0115968D919C911697978B868BBD
:1034600013968D919C911497938F828F19968C91BE
:103470001997848317968D919C911897918F808FBF
:103480000895DC01FB0112968C91129782831396AA
:103490008C911397838314968D919C911597938BA0
:1034A000828B16968D919C911797918B808B0895A6
:1034B0009DE1899FF0011124E55BFD4F77876687C9
:1034C000558B448B94E0899FF0011124E55EFD4FFC
:1034D0001082118212821382089508950895109225
:1034E0005F0424E0829FC0011124FC01E55EFD4FD2
:1034F0001082118212821382089525E0FC0120833C
:103500008EE891E00895089580935F040895CF9226
:10351000DF92EF92FF926091B7017091B801072E90
:10352000000C880B990B0E9430306B017C0160917C
:10353000A9037091AA038091AB039091AC030E9400
:1035400030309B01AC01C701B6010E94862FFF906D
:10355000EF90DF90CF9008950E9413320F931F9346
:10356000CF93DF931F92CDB7DEB78C016983809133
:103570001701882359F041E050E0BE016F5F7F4F93
:1035800083E00E947408181619063CF081E090E070
:10359000F8019383828380E090E00F90DF91CF91D8
:1035A0001F910F9108950F931F93CF93DF931F9255
:1035B000CDB7DEB700914105109142050F5F1F4F57
:1035C0000F7311278091430590914405081719073F
:1035D000F9F041E050E0BE016F5F7F4F82E00E9452
:1035E0000D09019719F4898190E002C08FEF9FEFD8
:1035F0008F3F2FEF920761F0E0914105F091420576
:10360000EF5FFA4F80831093420500934105D2CFBC
:103610000F90DF91CF911F910F910895CF93DF937A
:1036200090E0FC01E055F84F2491FC01EF56F84F73
:103630008491882361F190E0880F991FFC01ED5778
:10364000F84FC591D491FC01EB58F84FA591B49176
:10365000611109C09FB7F8948881209582238883DF
:10366000EC912E230BC0623061F49FB7F89438813F
:10367000822F809583238883EC912E2B2C939FBFE0
:1036800006C08FB7F894E8812E2B28838FBFDF9177
:10369000CF910895823108F08251E82FF0E0E75988
:1036A000F84FE49180917B00E3FB222720F930E082
:1036B00095E0220F331F9A95E1F78F7D282B2093F9
:1036C0007B00E770E064E0937C0080917A00806486
:1036D00080937A0080917A0086FDFCCF80917800FB
:1036E0002091790090E0922B08953FB7F894809153
:1036F000FD049091FE04A091FF04B091000526B551
:10370000A89B05C02F3F19F00196A11DB11D3FBF19
:10371000BA2FA92F982F8827820F911DA11DB11DA7
:10372000BC01CD0142E0660F771F881F991F4A95A3
:10373000D1F70895CF92DF92EF92FF92CF93DF936C
:103740006B017C010E94751BEB01C114D104E104E3
:10375000F10479F00E94751B6C1B7D0B683E734071
:10376000A0F381E0C81AD108E108F108C851DC4F84
:10377000ECCFDF91CF91FF90EF90DF90CF90089545
:103780002FB7F8946091F9047091FA048091FB04CA
:103790009091FC042FBF08951F920F920FB60F92C5
:1037A00011242F933F938F939F93AF93BF93809157
:1037B000F9049091FA04A091FB04B091FC043091BB
:1037C000F80423E0230F2D3720F40196A11DB11D2D
:1037D00005C026E8230F0296A11DB11D2093F80411
:1037E0008093F9049093FA04A093FB04B093FC0433
:1037F0008091FD049091FE04A091FF04B09100051A
:103800000196A11DB11D8093FD049093FE04A09329
:10381000FF04B0930005BF91AF919F918F913F91AD
:103820002F910F900FBE0F901F9018951F920F921F
:103830000FB60F9211242F933F934F935F936F9383
:103840007F938F939F93AF93BF93EF93FF93809159
:10385000B900887F803609F49CC068F5883209F485
:103860005BC090F4803109F454C038F4882309F423
:10387000F6C0883009F44DC0F6C0883109F44CC058
:10388000803209F45DC0EFC0803409F468C048F4A8
:10389000803309F455C0883309F0E5C08093D10422
:1038A000D8C0803509F44FC0883509F45DC088342C
:1038B00009F0D9C0D6C0883909F4C7C0A8F4883740
:1038C00009F467C038F4883609F463C0803709F416
:1038D00060C0C9C0883809F4B8C0803909F45FC035
:1038E000803809F0C0C05BC0803B09F486C038F462
:1038F000803A09F466C0883A09F47FC0B4C0803CBD
:1039000009F4A7C0883C09F4A4C0883B09F48AC024
:10391000AAC08091F70410C09091F6048091F5043C
:10392000981770F5E091F60481E08E0F8093F6040D
:10393000F0E0EB52FB4F80818093BB0085EC86C0AA
:103940008093D1048EC0E091F60481E08E0F8093C5
:10395000F6048091BB00F0E0EB52FB4F8083909126
:10396000F6048091F5046EC0E091F60481E08E0FBC
:103970008093F6048091BB00F0E0EB52FB4F808314
:103980008091D40481116DC081E08093D30484EAD6
:1039900061C083E08093D2041092D004CFCF809195
:1039A000D004803208F051C0E091D00481E08E0F45
:1039B0008093D0048091BB00F0E0E055FB4F808302
:1039C000BDCF85EC8093BC001092D2048091D004CE
:1039D000803230F4E091D004F0E0E055FB4F1082EB
:1039E0006091D00470E0E091AE04F091AF0480EB00
:1039F00094E009951092D00436C084E08093D204FC
:103A00001092AD041092AC04E091AA04F091AB04C2
:103A100009958091AC04811105C081E08093AC04CC
:103A200010928A04E091AD0481E08E0F8093AD0482
:103A3000F0E0E657FB4F80818093BB009091AD048E
:103A40008091AC04981708F479CF85E88093BC0086
:103A50000AC085EC8093BC001092D20404C010927E
:103A6000D1040E946619FF91EF91BF91AF919F9190
:103A70008F917F916F915F914F913F912F910F9017
:103A80000FBE0F901F9018952091AB013091AC01A3
:103A90002817390708F4C90190938B0080938A0096
:103AA00008952091AB013091AC012817390708F433
:103AB000C901909389008093880008954F925F9286
:103AC0006F927F928F929F92AF92BF92CF92DF922E
:103AD000EF92FF92CF93DF9300D000D0CDB7DEB747
:103AE0006B017C016091B60170E060587109072E8E
:103AF000000C880B990B0E94303020E030E04FE73B
:103B000053E40E94862F4B015C01609385047093FF
:103B10008604809387049093880420E030E0A90114
:103B20000E94E0301816ACF4A501940160E070E04A
:103B300080E89FE30E94142F6093810470938204B5
:103B4000809383049093840480E090E0A0E8BFE336
:103B500030C020E030E0A901C501B4010E94812FEE
:103B600087FF1BC080E090E0A0E8BFE38093810462
:103B700090938204A0938304B09384049C01AD01CC
:103B8000C501B4010E94152F60937D0470937E04DB
:103B900080937F049093800414C080E090E0A0E8BC
:103BA000BFE38093810490938204A0938304B09335
:103BB000840480937D0490937E04A0937F04B0934B
:103BC00080049091B101892F807491FDA5C081116D
:103BD00067C01C141D041E041F04A4F54090AF030D
:103BE0005090B0038090AD039090AE03A12CB12C07
:103BF000612C712CC301B2010E942E3020917D04F2
:103C000030917E0440917F04509180040E94E53001
:103C10000E94F82F681979098A099B09A701960162
:103C20000E94E231A30192010E94B12E69017A0142
:103C3000C80CD91CEA1CFB1C80E090E00E94511DBE
:103C4000C60125C1C114D104E104F10431F1409051
:103C5000AF035090B0038091AD039091AE034C013F
:103C6000A12CB12CF094E094D094C094C11CD11C30
:103C7000E11CF11C612C712CC301B2010E942E3099
:103C800020918104309182044091830450918404F6
:103C90000E94E5300E94F82F1CC080E090E0F3C045
:103CA000E091AF03F091B0031C141D041E041F0427
:103CB000BCF44F01969487948091AD039091AE032C
:103CC000880E991EA12CB12C2F01612C712CC301DF
:103CD000B201681979098A099B09A701960141C0B7
:103CE000C114D104E104F10499F04F019694879432
:103CF0008091AD039091AE03881A990AA12CB12C42
:103D0000A5019401C701B6010E94E2319F01A5C03F
:103D1000CF0196958795B7C0811128C0F7FC02C0E6
:103D20002A9A01C02A988091AD039091AE034C016C
:103D3000A12CB12C4090AF035090B003612C712C9A
:103D4000A7019601F7FE07C0509540953095219543
:103D50003F4F4F4F5F4FC301B201681979098A097C
:103D60009B090E94E231A301920179C01C141D0439
:103D70001E041F046CF520E030E040E85FE3609132
:103D8000AD017091AE018091AF019091B0010E94A0
:103D9000152F2091040130910501409106015091A9
:103DA00007010E94E5300E94F82F4B015C016091F1
:103DB00000017091010180910201909103010E9424
:103DC000F82F681979098A099B09A70196013FC054
:103DD000C114D104E104F10409F44AC02091AD01F9
:103DE0003091AE014091AF015091B00160E070E0C0
:103DF00080E89FE30E94142F209104013091050177
:103E000040910601509107010E94E5300E94F82F71
:103E10004B015C0122273327A9012C193D094E09CA
:103E20005F09609108017091090180910A019091E8
:103E30000B0129833A834B835C830E94F82F681916
:103E400079098A099B0929813A814B815C810E9409
:103E5000E2312091AF033091B00340E050E00E9486
:103E6000B12EDA01C901880D991DAA1DBB1D0BC019
:103E70006091040170910501809106019091070104
:103E80000E94FF2FCB010E94511D80E090E00F9017
:103E90000F900F900F90DF91CF91FF90EF90DF90F8
:103EA000CF90BF90AF909F908F907F906F905F90DA
:103EB0004F900C94441D6091AB017091AC0180E077
:103EC00090E00E942E309B01AC0160E07EEF8FEF0E
:103ED00096E40E94862F08952F923F924F925F9210
:103EE0006F927F928F929F92AF92BF92CF92DF920A
:103EF000EF92FF920F931F93CF93DF93CDB7DEB76F
:103F000029970FB6F894DEBF0FBECDBF998788877B
:103F10004B012B831D830C831701DF82CE82042F7C
:103F200010E08C819D816C01E12CF12CE885F985F4
:103F3000F7FD2BC0C8019695982F882797958795F0
:103F4000BF01681B790B072E000C880B990B0E9490
:103F500030302B013C01C701B6010E942E309B017D
:103F6000AC01C301B2010E94862F2B013C01C801A4
:103F70009695982F8827979587959A838983EB81C3
:103F800090E8E99FB00111242AC0B8017695762FF8
:103F9000662777956795E885F9856E0F7F1F072E51
:103FA000000C880B990B0E9430302B013C01C7019B
:103FB000B6010E942E309B01AC01C301B2010E94E8
:103FC000862F2B013C0160E86003C001619F900DCA
:103FD00011249A8389832B816203B001112488857F
:103FE0009985681B790B072E000C880B990B0E9492
:103FF00030306B017C01B10180E090E00E942E30F6
:104000009B01AC01C701B6010E94862F6B017C01A8
:104010008A149B0408F43FC08E819F818A0D9B1DEA
:1040200088169906C0F50C811D810A0D1B1D80168E
:10403000910690F4B4016A197B0980E090E00E9437
:104040002E309B01AC01C301B2010E94E5300E94F9
:10405000F82F89819A811CC08219930988159905C6
:10406000E8F48A189B08EE81FF818E1A9F0AB4013A
:10407000620D731D80E090E00E942E309B01AC0128
:10408000C701B6010E94E5300E94F82F8885998506
:10409000860F971F05C080E090E002C08885998553
:1040A00029960FB6F894DEBF0FBECDBFDF91CF913A
:1040B0001F910F91FF90EF90DF90CF90BF90AF9046
:1040C0009F908F907F906F905F904F903F902F9038
:1040D0000895CF92DF92EF92FF920F931F938B017F
:1040E0009C014091AF035091B0036A01E12CF12C87
:1040F00066277727CB016C197D098E099F09061762
:104100001707280739074CF0C901B801C016D106B6
:10411000E206F30614F4C701B6011F910F91FF9058
:10412000EF90DF90CF9008958F929F92AF92BF92C1
:10413000CF92DF92EF92FF92CF93DF934B015C011E
:10414000EA010E94871A6B017C01DE01A50194013E
:104150000E94DB2E0E943030A70196010E94E530BC
:1041600020E030E040E051E40E94E53020E030E023
:1041700040E251E40E94E53020E030E040E85BE3BB
:104180000E94E5300E94F82F0E946920909580954A
:10419000709561957F4F8F4F9F4FDF91CF91FF902B
:1041A000EF90DF90CF90BF90AF909F908F90089549
:1041B0004F925F926F927F928F929F92AF92BF9237
:1041C000CF92DF92EF92FF92CF93DF9300D000D097
:1041D000CDB7DEB74B015C0157FF02C04D5F5F4FAB
:1041E0006A01D594C794D594C7940E94871A6983AD
:1041F0007A838B839C839B01AC01C501B4010E942F
:10420000E53020E030E040E251E40E94E5302B014F
:104210003C0120E030E040E85FE30E94E0300D2CFC
:10422000000CEE08FF0818161CF4C701B60128C0E0
:1042300020E030E040E85FEBC301B2010E94812F33
:1042400087FF06C0C701B6010E946920CB011EC0CE
:10425000C701B6010E9430309B01AC01C501B40119
:104260000E94E53029813A814B815C810E94E530D2
:1042700020E030E040E251E40E94E5300E94F82F57
:104280000E94692088279927861B970B0F900F9013
:104290000F900F90DF91CF91FF90EF90DF90CF9034
:1042A000BF90AF909F908F907F906F905F904F9056
:1042B00008958F929F92AF92BF92CF92DF92EF922A
:1042C000FF924B015C01BA01550F880B990B0E94BC
:1042D00030306B017C0120E030E0A901C501B40160
:1042E0000E94E030A501940118160CF05058C70147
:1042F000B6010E94E5306B017C010E94871A9B0188
:10430000AC01C701B6010E94E53020E030E040E892
:1043100051E40E94E53020E030E040E251E40E94A8
:10432000E53020E030E040E05DE30E94E5300E94AF
:10433000F82F0E9469206B017C0120E030E0A90188
:10434000C501B4010E94E03018162CF48827992783
:104350008C199D090DC020E030E0A901C501B40110
:104360000E94812F87FF02C0C60102C080E090E05A
:10437000FF90EF90DF90CF90BF90AF909F908F9085
:104380000895CF92DF92EF92FF92CF93DF936B016C
:104390007C01EA0120E030E0A9010E94E03018161B
:1043A00094F020E030E0A901C701B6010E94812FFE
:1043B00087FF3AC020E030E0A901C701B6010E94A2
:1043C000152F6B017C01BE01DD0F880B990B0E943C
:1043D00030309B01AC01C701B6010E94E5306B0192
:1043E0007C010E94871A9B01AC01C701B6010E94A3
:1043F000E53020E030E040E851E40E94E53020E084
:1044000030E040E251E40E94E53020E030E040E05E
:104410005BE30E94E5300E94F82F0E946920882704
:104420009927861B970B02C080E090E0DF91CF9127
:10443000FF90EF90DF90CF900895CF93DF93CDB7AB
:10444000DEB769970FB6F894DEBF0FBECDBF789484
:1044500084B5826084BD84B5816084BD85B5826089
:1044600085BD85B5816085BD80916E00816080933A
:104470006E001092810080918100826080938100A3
:1044800080918100816080938100809180008160B3
:104490008093800080919100826080939100809150
:1044A0009100816080939100809190008160809361
:1044B00090008091C10084608093C1008091C10010
:1044C00082608093C1008091C10081608093C100AF
:1044D0008091C30081608093C3008091C00082609E
:1044E0008093C0008091C20081608093C20080915F
:1044F0007A00846080937A0080917A008260809351
:104500007A0080917A00816080937A0080917A00AD
:10451000806880937A001092A80181E08093D70090
:1045200080EA8093D80082E189BD09B400FEFDCF06
:1045300061E070E080E090E00E949A1B80E9809347
:10454000D8008CE08093E2001092E0000E94751B7E
:104550006093E7017093E8018093E9019093EA0189
:104560001092BC011092D2011092D1011092DB0185
:104570001092DC011092DD011092DE011092CC014C
:104580001092CB011092E3011092E4011092E50128
:104590001092E60142E0BE01615F7F4F80E090E053
:1045A0000E946F068F859889863E910509F4C4C0E4
:1045B00086EE90E09E878D8742E0BE01635F7F4F6D
:1045C00080E090E00E94400619821A821B821C82C1
:1045D00044E0BE016F5F7F4F82E090E00E944006A2
:1045E00088E394E09E878D8742E0BE01635F7F4F42
:1045F00086E090E00E94400684E6898B41E0BE019F
:104600006F5E7F4F88E090E00E94400641E0BE016F
:104610006F5E7F4F8BE090E00E94400641E0BE015C
:104620006F5E7F4F8CE090E00E94400641E0BE014B
:104630006F5E7F4F80E190E00E94400641E0BE0146
:104640006F5E7F4F8DE090E00E94400682E3898B91
:1046500041E0BE016F5E7F4F89E090E00E9440061E
:1046600041E0BE016F5E7F4F8AE090E00E9440060D
:1046700041E0BE016F5E7F4F8EE090E00E944006F9
:1046800086E4898B41E0BE016F5E7F4F8FE090E052
:104690000E9440061E861D8642E0BE01635F7F4F7A
:1046A00081E190E00E94400684EF91E09E878D8733
:1046B00042E0BE01635F7F4F83E190E00E944006CD
:1046C0008FEF9FE09E878D8742E0BE01635F7F4F43
:1046D00085E190E00E94400680E890E09E878D870B
:1046E00042E0BE01635F7F4F87E190E00E94400699
:1046F00081E0898B41E0BE016F5E7F4F88E190E0F1
:104700000E94400680E699E0A0E0B0E089839A83A9
:10471000AB83BC8344E0BE016F5F7F4F89E190E0D3
:104720000E94400689E0898B41E0BE016F5E7F4FA9
:104730008DE190E00E94400642E067EB71E086E088
:1047400090E00E946F0644E062EB71E089E190E046
:104750000E946F0641E06FE072E088E090E00E9406
:104760006F0641E067E172E089E090E00E946F0629
:1047700041E065E172E08AE090E00E946F0641E06E
:104780006EE172E08BE090E00E946F0641E06DE127
:1047900072E08CE090E00E946F0641E068E172E018
:1047A0008DE090E00E946F0641E066E172E08EE0ED
:1047B00090E00E946F0641E067EA73E08FE090E0CE
:1047C0000E946F0641E060E172E080E190E00E94AB
:1047D0006F0641E066EB71E087E190E00E946F06B2
:1047E00041E068EA73E088E190E00E946F0642E0F1
:1047F0006DEA73E081E190E00E946F0642E06FEAAB
:1048000073E083E190E00E946F0642E06DEB71E09F
:1048100085E190E00E946F0641E061EB71E08DE17F
:1048200090E00E946F068FEF9FE09093D4018093F9
:10483000D3011092D6011092D5019093E00180939C
:10484000DF011092E2011092E1019093CE0180937A
:10485000CD011092D0011092CF019093C8018093A6
:10486000C7011092CA011092C9016091B201709102
:10487000B3018091B4019091B5010E94303020E0E5
:1048800030E044EB53E40E94862F6B017C01809161
:10489000B7019091B801BC01990F880B990B0E9448
:1048A00030309B01AC01C701B6010E94E5300E9487
:1048B000F82F6093A9037093AA038093AB0390939E
:1048C000AC036B017C01F594E794D794C794C09234
:1048D0001902D0921A02E0921B02F0921C0262E0CE
:1048E00080E00E940E1B62E081E00E940E1B62E0ED
:1048F00082E00E940E1B809169008C6080936900A9
:10490000E99A1092B203C092B303D092B403E0923A
:10491000B503F092B6031092B7034A9B05C080918D
:10492000B70381608093B7034B9B05C08091B703A9
:1049300082608093B703809169008F7C806180934F
:104940006900EA9A809169008F738064809369009E
:10495000EB9A60E082E10E940E1B60E083E10E941E
:104960000E1B60E084E10E940E1B60E085E10E9466
:104970000E1B62E084E00E940E1B62E08EE00E944B
:104980000E1B62E08FE00E940E1B62E083E00E943B
:104990000E1B579A6E9A249A3E9A88E191E0909362
:1049A000AA018093A90181E994E090936104809326
:1049B00060048CEE99E09093630480936204229AE1
:1049C000F090B1018F2D0E9498068C019093AC015C
:1049D0008093AB019093B0038093AF036091AD03DC
:1049E0007091AE0380E090E00E942E304B015C019C
:1049F000B80180E090E00E942E309B01AC01C5011F
:104A0000B4010E94862F6093AD017093AE01809334
:104A1000AF019093B0011F2D1170F0FC05C020E094
:104A200030E04AEF54E404C020E030E04AE754E4C8
:104A3000609108017091090180910A0190910B0128
:104A40000E94E530609308017093090180930A0188
:104A500090930B01111105C020E030E04AEF54E4BF
:104A600004C020E030E04AE754E460910401709112
:104A7000050180910601909107010E94E530609345
:104A800004017093050180930601909307011111B1
:104A900005C020E030E04AEF54E404C020E030E0FC
:104AA0004AE754E460910001709101018091020194
:104AB000909103010E94E530609300017093010121
:104AC0008093020190930301109280001092810064
:104AD00010926F0016BA8091AB019091AC01909347
:104AE00087008093860010928900109288001092AF
:104AF0008B0010928A008091B1018274823421F47B
:104B000080918100826003C08091810081608093E8
:104B100081008091B10180FF04C08091810080619B
:104B200008C0809180008260809380008091810025
:104B300088618093810080E090E00E94511D809107
:104B40008000806880938000259A80E090E00E9439
:104B5000441D80918000806280938000269A60E0EE
:104B600070E0CB010E945E1D8091190290911A02A3
:104B7000A0911B02B0911C02F8948093B303909310
:104B8000B403A093B503B093B603789488E090E0A3
:104B90009093C4018093C3018FEF97E09093BB0182
:104BA0008093BA018091B6018093B9010E94751B70
:104BB0006093CA037093CB038093CC039093CD038F
:104BC0000091EB011091EC012091ED013091EE018B
:104BD0005B016C01A01AB10AC20AD30AA092C603F3
:104BE000B092C703C092C803D092C9030091E701F5
:104BF0001091E8012091E9013091EA016B017C01FB
:104C0000C01AD10AE20AF30A40EDC41647E0D406FE
:104C1000E104F10408F4EFC76093E7017093E80141
:104C20008093E9019093EA01F8944091B303509185
:104C3000B4036091B5037091B60378948091190222
:104C400090911A02A0911B02B0911C025A016B01B3
:104C5000A81AB90ACA0ADB0AC601B501A092E30183
:104C6000B092E401C092E501D092E6013091A80330
:104C700035FB222720F936FD226037FF02C0246071
:104C800025C0213019F5C090DF01D090E0010D2C36
:104C9000000CEE08FF088091DB019091DC01A091EF
:104CA000DD01B091DE019C01AD012C193D094E09D9
:104CB0005F09AFEFB3E00E94D02E2091E101309167
:104CC000E2018901330F220B330B5FC02230E9F47C
:104CD000C090D301D090D401E12CF12C2091D101CE
:104CE0003091D201C901330FAA0BBB0B9C01AD015E
:104CF0002C193D094E095F09AFEFB3E00E94D02E99
:104D00002091D5013091D6013DC02330E9F4C09007
:104D1000CD01D090CE01E12CF12C2091CB0130912E
:104D2000CC01C901330FAA0BBB0B9C01AD012C199F
:104D30003D094E095F09AFEFB3E00E94D02E2091EC
:104D4000CF013091D0011EC0243061F5C090C70161
:104D5000D090C801E12CF12C2091C5013091C60101
:104D6000C901330FAA0BBB0B9C01AD012C193D09E6
:104D70004E095F09AFEFB3E00E94D02E2091C90128
:104D80003091CA01890120E030E0A90198012C1975
:104D90003D094E095F090E94B12ECA01B901725046
:104DA000810991090E94AB0E6093D7017093D801DD
:104DB0008093D9019093DA016091E3017091E4014D
:104DC0008091E5019091E6010E9430306B017C01F9
:104DD0006091A9037091AA038091AB039091AC03F9
:104DE0000E9430309B01AC0160E07FEF8FE797E4D9
:104DF0000E94862F9B01AC01C701B6010E94E530DD
:104E00000E94F82F462F572FBC01411500E850078C
:104E10006105710524F04FEF5FE760E070E0411538
:104E200010E851071FEF6107710724F440E050E8D4
:104E30006FEF7FEF4093E3015093E4016093E5014E
:104E40007093E6016091D7017091D8018091D901EA
:104E50009091DA010E945E1D82E10E944A1B8C0142
:104E6000000F111F000F111F1093D2010093D101E9
:104E700084E10E944A1B1C01220C331C220C331CAF
:104E80003092CC012092CB0185E10E944A1B7C012B
:104E9000EE0CFF1CEE0CFF1CF092C601E092C50167
:104EA00083E10E944A1B880F991F880F991F5C019C
:104EB000092E000CCC08DD08AA8ABB8ACC8ADD8AC0
:104EC0004091D3015091D4010417150720F4109399
:104ED000D4010093D3014091D5015091D6014017E0
:104EE000510720F41093D6010093D5014091DF01C2
:104EF0005091E001052E000C660B770BAA88BB8849
:104F0000CC88DD88A416B506C606D70624F490938F
:104F1000E0018093DF014091E1015091E201052E13
:104F2000000C660B770BAA88BB88CC88DD884A15F5
:104F30005B056C057D0524F49093E2018093E1010B
:104F40008091CD019091CE012816390620F430923F
:104F5000CE012092CD018091CF019091D001821598
:104F6000930520F43092D0012092CF018091C701A7
:104F70009091C801E816F90620F4F092C801E09279
:104F8000C7018091C9019091CA018E159F0520F437
:104F9000F092CA01E092C901C090C301D090C4014F
:104FA0008091D3019091D4018C0D9D1D2C01612C19
:104FB000712C8090CD019090CE018C0C9D1CA12C69
:104FC000B12CC101330CAA0BBB0B9C01AD012819FC
:104FD00039094A095B09AFEFBFE00E94D02E20914A
:104FE000CF013091D0012C193D0940E050E0281943
:104FF00039094A095B090E94B12E2E8B3F8B488FDD
:10500000598F8090C7019090C8018C0C9D1CA12CD9
:10501000B12CC701FF0CAA0BBB0B9C01AD012819D9
:1050200039094A095B09AFEFBFE00E94D02E2091F9
:10503000C9013091CA012C193D0940E050E02819FE
:1050400039094A095B090E94B12E49015A01C80178
:10505000110FAA0BBB0B9C01AD01241935094609A0
:105060005709AFEFBFE00E94D02E2091D5013091BB
:10507000D6012C193D09890120E030E0A9019801F1
:1050800024193509460957090E94B12E211500E15E
:10509000300714F02FEF3FE037FF02C020E030E090
:1050A0003093D2012093D1018E899F89811510E11F
:1050B000910714F08FEF9FE02C0197FF02C0412C65
:1050C000512C5092CC014092CB01C401811420E1BB
:1050D000920614F08FEF9FE04C0197FF02C0812CE5
:1050E000912C9092C6018092C5018090DF01909032
:1050F000E0018C0C9D1CA12CB12C2A893B894C8988
:105100005D89281939094A095B09AFEFBFEF0E9491
:10511000D02E2091E1013091E2012C193D09890145
:1051200020E030E0A9019801281939094A095B09F2
:105130000E94B12E2115310581E04807510524F068
:105140002FEF3FEF40E050E0DA01C90157FF03C005
:1051500080E090E0DC018093DB019093DC01A09380
:10516000DD01B093DE0140E050E0C12CD12C76018E
:1051700060E071E0611102C05F9809C0613011F414
:10518000769805C0623011F42C9801C0469820E052
:1051900030E02115310521F489B18295817011C06B
:1051A000213039F483B18695869586958227817062
:1051B00009C0223021F483B18695817002C089B183
:1051C00081708727F901E40FF51F882381F081E0C2
:1051D00090E0A0E0B0E004C0880F991FAA1FBB1F99
:1051E000EA95D2F7C82AD92AEA2AFB2A13C081E015
:1051F00090E0A0E0B0E004C0880F991FAA1FBB1F79
:10520000EA95D2F780959095A095B095C822D922BD
:10521000EA22FB222F5F3F4F2430310509F0B9CF3E
:10522000611102C05F9A09C0613011F4769A05C01D
:10523000623011F42C9A01C0469A6F5F4C5F5F4F49
:10524000643009F097CF8C2D8F70813081F08230DF
:1052500081F0843081F0883081F0833081F08630B5
:1052600081F0893081F08C3081F080E00FC081E0E6
:105270000DC083E00BC085E009C087E007C082E075
:1052800005C084E003C088E001C086E090EFC92239
:10529000C82AC092BF01D092C001E092C101F09231
:1052A000C2016091C5018091C6012091CB0130916E
:1052B000CC017091D1019091D201F091DB01E0918C
:1052C000DC014091E3015091E401505849835A8335
:1052D000FB83EC837D839F70422F4295407F942B0C
:1052E0009E83A4E036952795AA95E1F72F836887DA
:1052F0009C2D9295907F8F70892B8987D701C6014D
:1053000014E0B695A795979587951A95D1F78A8752
:105310000CE0F694E794D794C7940A95D1F7CB861E
:105320001C864CE050E0BE016F5F7F4F84E00E941E
:10533000CB098091C6039091C703A091C803B09197
:10534000C90380319742A105B10508F454C488EB24
:1053500093E00E945919181619060CF03CC488EB0A
:1053600093E00E941F19E82F8FE98E0F8A3108F40D
:10537000E0528E2F90E0FC01E154F109EA31F10591
:1053800008F029C4EA5AFF4F0C9406326091B70125
:105390007091B801072E000C880B990B0E94DF0D4D
:1053A00080E20E94790D80910F020E946A1880E2CB
:1053B0000E94790D809117020E946A1880E20E9473
:1053C000790D809115020E946A1880E20E94790D81
:1053D00080911E020E946A1880E20E94790D8091DD
:1053E0001D020E946A1880E20E94790D80911802C5
:1053F0000E946A1880E20E94790D809116020E9434
:105400006A1880E20E94790D8091A7030E946A18B1
:1054100080E20E94790D809110020E946A1880E259
:105420000E94790D6091AD037091AE0380E090E031
:105430004AE00E94920D80E20E94790D8091B601AF
:105440000E946A1880E20E94790D8091A8030E9450
:105450006A1880E20E94790D6091AF037091B003E9
:1054600080E090E04AE00E94920D80E20E94790D77
:105470006091B2017091B3018091B4019091B50136
:105480000E94DF0D80E20E94790D6091B10170E011
:1054900098C283E991E00E94711866EE70E080E0A6
:1054A00090E00E94DF0D88E991E00E9471188AE97E
:1054B00091E00E9471188CE991E00E9471188EE9C8
:1054C00091E00E94711880EA91E00E94711882EACE
:1054D00091E00E94711884EA91E00E9471187BC3E8
:1054E0008091D203082E000C990B73C30E94190EF1
:1054F00072C30E947318611101C061E06093B6012C
:1055000066C38FEF9FE09093D4018093D3011092F4
:10551000D6011092D5019093E0018093DF011092A3
:10552000E2011092E1019093CE018093CD0110929F
:10553000D0011092CF019093C8018093C7011092BF
:10554000CA011092C90143C30E94731864307105E7
:105550008105910574F0DC01CB01813C17E29107D4
:1055600019E0A107B1054CF080EC97E2A9E0B0E0AA
:1055700004C084E090E0A0E0B0E089839A83AB832C
:10558000BC83F8948090B3039090B403A090B503CB
:10559000B090B60378944090CE035090CF036090C3
:1055A000D0037090D1036091B7017091B801072EBC
:1055B000000C880B990B0E9430306B017C018091AC
:1055C000190290911A02A0911B02B0911C02A50130
:1055D0009401281B390B4A0B5B0BCA01B901640DFE
:1055E000751D861D971D0E943030A70196010E94EF
:1055F000E5304B015C016091A9037091AA03809191
:10560000AB039091AC030E9430309B01AC01C5010B
:10561000B4010E94862F6A8B7B8B8C8B9D8B69815A
:105620007A818B819C816093B2017093B3018093E6
:10563000B4019093B5010E94303020E030E044EB9B
:1056400053E40E94862FA70196010E94E5300E9434
:10565000F82F6093A9037093AA038093AB039093F0
:10566000AC034B015C01B594A79497948794809206
:10567000190290921A02A0921B02B0921C020E9480
:1056800030309B01AC016A897B898C899D890E949D
:10569000E530A70196010E94862F0E94F82F860E02
:1056A000971EA81EB91E84189508A608B708DFC063
:1056B0008091190290911A02A0911B02B0911C02D4
:1056C000F8948093B3039093B403A093B503B0937D
:1056D000B60378947AC10E9473186E317105810502
:1056E00091056CF0DC01CB01893037E09307A1050F
:1056F000B1054CF088E097E0A0E0B0E004C08EE196
:1057000090E0A0E0B0E089839A83AB83BC83F894F7
:105710008091B3039091B403A091B503B091B60307
:105720007894A090CE03B090CF03C090D003D090D7
:10573000D103AA8ABB8ACC8ADD8A00911902109112
:105740001A0220911B0230911C02801B910BA20BAC
:10575000B30BA80EB91ECA1EDB1EC601B5010E94FE
:1057600030306B017C016091B7017091B801072E58
:10577000000C880B990B0E9430309B01AC01C701D3
:10578000B6010E94E5306B017C016091A903709124
:10579000AA038091AB039091AC030E9430309B012F
:1057A000AC01C701B6010E94862F2B013C01C980C4
:1057B000DA80EB80FC80D092B801C092B701609192
:1057C000B2017091B3018091B4019091B5010E9432
:1057D000303020E030E044EB53E40E94862F4B0150
:1057E0005C01C701B6010E9430309B01AC01C501CC
:1057F000B4010E94E5300E94F82F6093A9037093D2
:10580000AA038093AB039093AC034B015C01B59466
:10581000A794979487948092190290921A02A0926A
:105820001B02B0921C020E9430309B01AC01C301EC
:10583000B2010E94E5302B013C01B601DD0C880B62
:10584000990B0E9430309B01AC01C301B2010E9450
:10585000862F0E94F82F860E971EA81EB91ECA8892
:10586000DB88EC88FD888C189D08AE08BF08F8948A
:105870008092B3039092B403A092B503B092B603A2
:105880007894A5C10E947318462F6091A80380E008
:1058900090E050E0FA01082E02C0F595E7950A94D1
:1058A000E2F7E0FF0EC0A12CB12C6501A394082EF5
:1058B00004C0AA0CBB1CCC1CDD1C0A94D2F76A29BC
:1058C00010C0C12CD12C7601C394082E04C0CC0C7E
:1058D000DD1CEE1CFF1C0A94D2F79701860100958F
:1058E0006023019688309105A9F66093A80370E0C3
:1058F00080E090E042E00E94920D0E94840D6BC116
:105900000E9473188091B10120E030E0E62FF0E0B2
:10591000AF01022E02C0559547950A94E2F740FF69
:105920000EC041E050E060E070E0022E04C0440F81
:10593000551F661F771F0A94D2F7842B0EC041E0D3
:1059400050E060E070E0022E04C0440F551F661F57
:10595000771F0A94D2F7409584232F5F3F4F28305A
:105960003105B1F68093B10141E061EB71E08DE169
:1059700090E00E9440068091B1010E949806BC010F
:1059800080E090E00E942E302091AD013091AE0178
:105990004091AF015091B0010E94E5300E94F82F74
:1059A00069837A838B839C8344E0BE016F5F7F4F62
:1059B00081E190E00E9440068091B1010E9498062A
:1059C000BC0180E090E04AE096CF80E090E001C129
:1059D00042E067EB71E086E090E00E94400644E020
:1059E00062EB71E089E190E00E94400641E06FE0E7
:1059F00072E088E090E00E94400641E067E172E0DA
:105A000089E090E00E94400641E065E172E08AE0B2
:105A100090E00E94400641E06EE172E08BE090E091
:105A20000E94400641E06DE172E08CE090E00E944F
:105A3000400641E068E172E08DE090E00E9440069F
:105A400041E066E172E08EE090E00E94400641E0B5
:105A500067EA73E08FE090E00E94400641E060E179
:105A600072E080E190E00E94400641E066EB71E068
:105A700087E190E00E94400641E068EA73E088E137
:105A800090E00E94400642E06DEA73E081E190E020
:105A90000E94400642E06FEA73E083E190E00E94DA
:105AA000400642E06DEB71E085E190E00E94400627
:105AB0008EC088EB93E00E941F19E82F8FE98E0FAC
:105AC0008A3108F4E0528E2F90E0FC01E154F10994
:105AD000E331F10508F07FC0E059FF4F0C94063226
