:100000000C9426040C944E040C944E040C94CA07D1
:100010000C94A6070C944E040C944E040C944E04BD
:100020000C944E040C944E040C94E90A0C948C0825
:100030000C944E040C944E040C944E040C944E04F8
:100040000C944E040C944E040C944E040C944E04E8
:100050000C944E040C944E040C944E040C94C72142
:100060000C944E040C944E040C944E040C944E04C8
:100070000C944E040C944E040C944E040C944E04B8
:100080000C944E040C944E040C944E040C944E04A8
:100090000C9411220C944E040C944E040C944E04B7
:1000A0000C944E040C944E040C944E04132F992B74
:1000B000552C4E303F2DBC2F682CC42D4E304E3069
:1000C0004E304E304E304E30A12BC42D4E30962B3C
:1000D000902B4E30F62A792B6F2D4E30C72DC42D24
:1000E000DE2DF82D122E2C2E462E602E7A2E942EDA
:1000F0004E304E304E304E304E304E304E304E3010
:100100004E30AE2E0B301330DB2FE32F4E30EB2F63
:10011000D32F4E3003301B304E304E30FB2F4E303D
:100120004E304E304E304E30F32FE20EE50ED80EEC
:10013000DC0E060F060F060FE90EED0EF10EF70EA0
:10014000FB0E060F010F1912A912E6134613C9146C
:100150008116E8151E1719184C187F18EF18BA18D1
:10016000FF1B041C091C131C5D1C5D1C5D1C1D1C5D
:10017000271C311C3B1C481C5D1C501C05A84CCD89
:10018000B2D44EB93836A9020C50B9918688083CD1
:10019000A6AAAA2ABE000000803F000000000000BE
:1001A00000002A2B280000000000000000000000D2
:1001B000000000000000000000002C9EB4A0A1A2DE
:1001C000A434A6A7A5AE362D3738271E1F2021221E
:1001D00023242526B333B62EB7B89F848586878817
:1001E000898A8B8C8D8E8F90919293949596979807
:1001F000999A9B9C9D2F3130A3AD350405060708C5
:10020000090A0B0C0D0E0F101112131415161718E6
:10021000191A1B1C1DAFB1B0B500080B0002020279
:100220000100090400000102020000052400100181
:100230000524010101042402060524060001070526
:10024000810310004009040100020A0000000705B4
:10025000020240000007058302400000090402007A
:10026000020300000009210101000122E104070549
:10027000840340000107050503400001050109044E
:10028000A10185040901A100093017000000002721
:10029000FFFF0000350047FFFF000075109501814A
:1002A00002093116000027FFFF0000350047FFFF5D
:1002B0000000751095018102093216000027FF0F1A
:1002C0000000350047FF0F0000750C950181020901
:1002D0003316000027FF0F0000350047FF0F000016
:1002E000750C95018102093416000027FF0F0000EC
:1002F000350047FF0F0000750C9501810209391583
:100300000125083500463B0165145500750495012B
:1003100081020509150025015500650019012918FC
:1003200075019518810285F10901150026FF0095D8
:100330003F7508918285F20901953F75088182C059
:10034000050F0992A1028502099F09A009A409A528
:1003500009A61500250135004501750195058102A5
:1003600095038103099415002501350045017501A8
:1003700095018102092215012528350145287507B7
:1003800095018102C00921A10285010922150125DB
:1003900028350145287508950191020925A1020912
:1003A000260927093009310932093309340940097E
:1003B0004109420943250B15013501450B75089587
:1003C000019100C009500954150027FFFF000035B6
:1003D0000047FFFF000066011055FD751095029162
:1003E0000255006600000952150026FF7F350046C1
:1003F000FF7F7510950191020953150125083501FC
:1004000045087508950191020955A10205010930B9
:10041000093115002501750195029102C0050F09EA
:100420005695019102950591030957A1020B010010
:100430000A000B02000A0066140055FE150026FF94
:100440007F3500479F8C0000751095019102550083
:10045000660000C0050F09A766011055FD150027AD
:10046000FFFF0000350047FFFF0000751095019168
:10047000026600005500C0050F095AA10285020955
:100480002215012528350145287508950191020995
:100490005B095D150026FF00350046FF7F75089556
:1004A000029102095C095E66011055FD26FF7F4638
:1004B000FF7F7510950291026600005500C0095F2C
:1004C000A102850309221501252835014528750853
:1004D0009501910209231500250135004501750498
:1004E000950191020958A1020B01000A000B0200BC
:1004F0000A00750295029102C0096016008026FF6D
:100500007F36008046FF7F751095019102096136A4
:10051000008046FF7F95019102150026FF7F350080
:1005200046FF7F0963751095019102096515002644
:10053000FF0046FF7F750895019102C0096EA10278
:1005400085040922150125283501452875089501DE
:1005500091020970150026FF7F350046FF7F751058
:1005600095019102096F16008026FF7F36008046B4
:10057000FF7F950191020971150026FF00350046A5
:1005800067016614005500750895019102097227EC
:10059000FFFF000047FFFF000066011055FD7510CA
:1005A000950191026600005500C00973A1028505FE
:1005B0000922150125283501452875089501910264
:1005C000097016018026FF7F36018046FF7F751077
:1005D00095019102C00974A1028506092215012521
:1005E0002835014528750895019102097509761588
:1005F00081257F36018046FF7F750895029102C0F4
:10060000050F0977A102850A092215012528350160
:1006100045287508950191020978A1020979097A9E
:10062000097B15012503750895019100C0097C150A
:100630000026FF00350046FF009102C00990A1028C
:10064000850B0922150125283501452875089501D6
:100650009102C00996A102850C0997099809990988
:100660009A099B099C15012506750895019100C002
:10067000097DA102850D097E150026FF0035004683
:100680001027750895019102C009ABA102850509E3
:1006900025A1020926092709300931093209330940
:1006A0003409400941094209431501250B3501452B
:1006B0000B75089501B100C00501093B150026FF27
:1006C00001350046FF01750A9501B1027506B101B9
:1006D000C0050F0989A102850609222528150135C3
:1006E00001452875089501B102098BA102098C0901
:1006F0008D098E250315013501450375089501B156
:1007000000C009AC150027FFFF0000350047FFFFC0
:10071000000075109501B100C0097FA1028507098D
:100720008075109501150027FFFF0000350047FF79
:10073000FF0000B102098326FF0046FF00750895FF
:1007400001B10209A909AA75019502150025013513
:10075000004501B10275069501B103C0C0180341FF
:100760000072006400750069006E006F0020004C8C
:10077000004C00430004030904220341007200649A
:1007800000750069006E006F0020004D0069006375
:100790000072006F00200020002000120100020003
:1007A00000004041233780000101020001120100D6
:1007B00002020000404123378000010102000100D5
:1007C000C18081C1C000000000250028002B002E40
:1007D00000310004040404040304050202020204BC
:1007E00003020202020606060606060404020202CC
:1007F0000404040802011040804010204080408022
:1008000008020401804020100201108010204040A6
:10081000200000000200080E0000030401000B008D
:1008200000000000000000000000000000000000C8
:10083000070605040100080A0B0C0D090000000062
:10084000240027002A002D003000683011241FBE2C
:10085000CFEFDAE0DEBFCDBF11E0A0E0B1E0EAEF1C
:10086000F8E602C005900D92A23AB107D9F725E04B
:10087000A2EAB1E001C01D92AF33B207E1F714E084
:10088000C6E2D4E004C02197FE010E946934C5325B
:10089000D107C9F70E94D2230C947B340C9400003A
:1008A0008C30F8F4282F30E09DE1899FF00111246D
:1008B000EB5BFD4F90819923A1F090819D7F908308
:1008C000F901EB50FE4F958191110BC0E091A3010E
:1008D000F091A4010084F185E02D099510920502A4
:1008E00008950895FC01CB012091E80022FFFCCF80
:1008F000282F215028F03091F10030833196F9CF24
:1009000024E62093E9012BEF2093E80008950F934C
:100910001F93CF93DF93DB01A40FB51FFB016EEF95
:10092000EA17FB0791F187FF02C0249101C02081E3
:100930000091ED011091EE01C091EB01D091EC011D
:100940000C171D07B4F49091E8009570E1F39091B5
:10095000E80092FD1CC02093F1002091ED01309140
:10096000EE012F5F3F4F2F733327232B11F460933A
:10097000E8002091ED013091EE012F5F3F4F309361
:10098000EE012093ED013196CBCFCA0102C08FEF6B
:100990009FEFDF91CF911F910F910895CF93DF9338
:1009A00000D000D01F92CDB7DEB7FC0181819081CD
:1009B000913A29F5813009F0BCC08281863051F42A
:1009C00045E050E060EF71E080E40E9487041092FF
:1009D000F001AFC0873009F0ACC089838FEF9FEF83
:1009E0009B838A838BE08C8383E08D8345E050E09A
:1009F000BE016F5F7F4F80E40E9487049AC09132EE
:100A000009F097C0893009F094C08281853009F0DF
:100A100090C064E070E0CE0101960E94720486E00E
:100A20008093F00180910F018B3021F1A0910F0193
:100A300081E08A0F80930F019DE1E0910F019E9F5D
:100A4000F0011124EB5BFD4F8081882351F08091F0
:100A50000F018B3030F480910F018F5F80930F0175
:100A6000ECCF8DE1A89FF0011124EB5BFD4F81E0FD
:100A7000808301C0A0E0A093F101A11104C082E035
:100A80008093F20150C01092590481E08093F201EA
:100A90008A819DE1A99FD0011124AB5BBD4F1196C6
:100AA0008C9311978FEF9FEF1F969C938E931E97B9
:100AB00053961C921E92529751961C921E925097DA
:100AC00012968C93129713968C93139755961C92AB
:100AD0001E9254971D961C921E921C9715961C925E
:100AE00015978FEF9FE719969C938E9318975796BB
:100AF0001C921E9256975B961C921E925A975C9679
:100B00001C925C9788EE93E01B969C938E931A97A9
:100B1000E091A301F091A4010684F785E02DBD01C9
:100B2000CE01019609958FEF9FEF9093F40180938A
:100B3000F30181E00F900F900F900F900F90DF91D5
:100B4000CF91089542E450E06AE172E080E80E94AB
:100B5000870440E250E06CE572E080E80E94870480
:100B600083E090E00895EF92FF921F93CF93DF937D
:100B7000EC01162FE881F9810480F581E02D0995BB
:100B80007C01E881F9810680F781E02D612FCE019B
:100B90000995C7019927DF91CF911F91FF90EF90A1
:100BA0000895FC0191818081813A29F49D7F81E043
:100BB000913091F414C0813279F49A3049F09B302D
:100BC00019F0993049F40AC0828180930E0106C061
:100BD000828180930D0102C080E0089581E0089534
:100BE0008C30F0F49DE1899FF0011124EB5BFD4F07
:100BF00080818823A9F080818260808380910502B2
:100C000081110EC00E94BB2160930B0270930C02F5
:100C100080930D0290930E0281E080930502089567
:100C20000895CF92DF92EF92FF926091B10170919F
:100C3000B201072E000C880B990B0E9493326B01B6
:100C40007C016091A3037091A4038091A50390910E
:100C5000A6030E9493329B01AC01C701B6010E941A
:100C6000E931FF90EF90DF90CF900895CF92DF921F
:100C7000EF92FF920F931F938B019C014091A90368
:100C80005091AA036A01E12CF12C66277727CB014A
:100C90006C197D098E099F09061717072807390760
:100CA0004CF0C901B801C016D106E206F30614F4EF
:100CB000C701B6011F910F91FF90EF90DF90CF9089
:100CC00008954F925F926F927F928F929F92AF9210
:100CD000BF92CF92DF92EF92FF92CF93DF9300D03B
:100CE00000D0CDB7DEB74B015C0157FF02C04D5FAE
:100CF0005F4F6A01D594C794D594C7940E9411069A
:100D000069837A838B839C839B01AC01C501B40109
:100D10000E94483320E030E040E251E40E94483332
:100D20002B013C0120E030E040E85FE30E944333C8
:100D30000D2C000CEE08FF0818161CF4C701B601B4
:100D400028C020E030E040E85FEBC301B2010E9420
:100D5000E43187FF06C0C701B6010E943606CB0109
:100D60001EC0C701B6010E9493329B01AC01C501B0
:100D7000B4010E94483329813A814B815C810E94F1
:100D8000483320E030E040E251E40E9448330E94C2
:100D90005B320E94360688279927861B970B0F9097
:100DA0000F900F900F90DF91CF91FF90EF90DF9019
:100DB000CF90BF90AF909F908F907F906F905F90FB
:100DC0004F9008958F929F92AF92BF92CF92DF92F1
:100DD000EF92FF924B015C01BA01550F880B990B02
:100DE0000E9493326B017C0120E030E0A901C50133
:100DF000B4010E944333A501940118160CF0505819
:100E0000C701B6010E9448336B017C010E941106A4
:100E10009B01AC01C701B6010E94483320E030E0DD
:100E200040E851E40E94483320E030E040E251E4E1
:100E30000E94483320E030E040E05DE30E94483308
:100E40000E945B320E9436066B017C0120E030E09C
:100E5000A901C501B4010E94433318162CF4882758
:100E600099278C199D090DC020E030E0A901C5012A
:100E7000B4010E94E43187FF02C0C60102C080E0D5
:100E800090E0FF90EF90DF90CF90BF90AF909F9059
:100E90008F900895CF92DF92EF92FF92CF93DF93DE
:100EA0006B017C01EA0120E030E0A9010E9443339C
:100EB000181694F020E030E0A901C701B6010E94A5
:100EC000E43187FF3AC020E030E0A901C701B60154
:100ED0000E9478316B017C01BE01DD0F880B990BFC
:100EE0000E9493329B01AC01C701B6010E944833B6
:100EF0006B017C010E9411069B01AC01C701B60188
:100F00000E94483320E030E040E851E40E9448333A
:100F100020E030E040E251E40E94483320E030E03D
:100F200040E05BE30E9448330E945B320E94360639
:100F300088279927861B970B02C080E090E0DF91FD
:100F4000CF91FF90EF90DF90CF9008951F920F9276
:100F50000FB60F9211242F933F934F935F936F938C
:100F60007F938F939F93AF93BF93EF93FF930E94D1
:100F70001A0FFF91EF91BF91AF919F918F917F9148
:100F80006F915F914F913F912F910F900FBE0F90F6
:100F90001F9018951F920F920FB60F9211242F9346
:100FA0003F934F935F936F937F938F939F93AF93F1
:100FB000BF93EF93FF930E941A0FFF91EF91BF91A0
:100FC000AF919F918F917F916F915F914F913F91E1
:100FD0002F910F900FBE0F901F901895CF92DF9218
:100FE000EF92FF920F931F93CF93DF931F92CDB792
:100FF000DEB7F82EE42E8B01C82ED92E8C2D8F193A
:101000008E1588F4F80161918F01C60169830E94F1
:10101000FE306981681719F0C6010E940631FFEFA2
:10102000CF1ADF0AEBCF0F90DF91CF911F910F9175
:10103000FF90EF90DF90CF900895CF92DF92EF92E4
:10104000FF920F931F93CF93DF931F92CDB7DEB71D
:101050008B016B017C01E61AF70A9C2D901B9417FB
:1010600058F4C7018C0D9D1D49830E94FE30F60186
:1010700081936F014981F1CF0F90DF91CF911F9143
:101080000F91FF90EF90DF90CF9008958F929F92F5
:10109000AF92BF92CF92DF92EF92FF9240E050E08A
:1010A00020E0682F70E0812C912C54018394FA0188
:1010B0003296DB0102C0B595A795EA95E2F7750176
:1010C0006401042E04C0CC0CDD1CEE1CFF1C0A9431
:1010D000D2F7A0FF02C02C2902C0C0942C214F5F80
:1010E0005F4F4430510519F730E0220F331FF901EB
:1010F000EC5CFE4F80FF05C08081918196958795BD
:1011000002C080819181FF90EF90DF90CF90BF90DF
:10111000AF909F908F9008951F920F920FB60F92ED
:101120001124EF92FF921F932F933F934F935F935E
:101130006F937F938F939F93AF93BF93EF93FF939F
:10114000CF93DF93CDB7DEB76197DEBFCDBF1092EF
:10115000E9008091E80083FF59C1FE013A96CF0172
:1011600028E02E0F2E1729F03091F10030833196B0
:10117000F9CF24E62093E90122EF2093E8002A85A5
:1011800027FF05C03091E80030FFFCCF03C03EEFE1
:101190003093E800322F307609F0C5C08B8581117D
:1011A00005C01092F1001092F10029C1982F9D7F87
:1011B000913009F424C1853049F48091E80080FF22
:1011C000FCCF8C8580688093E30019C1863009F0DC
:1011D0007CC01D85E888F9881092E9001092EE0124
:1011E0001092ED01123091F51092EC011092EB018A
:1011F0000E94A20599E0BE016F5F7F4FFB01292F7E
:1012000011922A95E9F799831A8391E09E8390E8D9
:1012100098879AEF99872091ED013091EE01275F31
:101220003F4F3C832B838D831092E9001092EE0197
:101230001092ED01F092EC01E092EB0149E050E0F8
:1012400080E00E9487040E94A205D9C0F092EC01C0
:10125000E092EB01123259F441EE54E06CE772E097
:1012600080E80E948704892B09F0C9C0CCC01130E6
:1012700069F488899989089711F41093EA0180919B
:10128000EA01811111C06BE977E016C0133009F053
:10129000BAC08C85882359F0823061F0813009F022
:1012A000B2C06DE577E008C06DEA77E005C065E79C
:1012B00077E002C069E777E06115710509F4A3C022
:1012C000FB01449150E080E849C0873009F49BC09D
:1012D000883021F481E08093F10091C0893009F0D9
:1012E0008EC0237009F08FC080E090E031E026E3EB
:1012F00041E0480F4093E9003093EB000196FC0178
:10130000E154F84FE491E093EC002093ED00853038
:10131000910571F78EE78093EA001092EA008C85C0
:101320008093A2016CC0288939891092E90010923B
:10133000EE011092ED013093EC012093EB012E852C
:10134000211154C08B859A85913A59F4813209F064
:101350005AC047E050E060E171E080E00E948704FD
:101360004EC0913209F04FC0803239F467E070E02E
:1013700080E191E00E94720442C0823209F043C0D1
:101380008C85809317018091100190911101A0919B
:101390001201B0911301803B9440A105B10579F58C
:1013A0008091170180FD11C087E797E790930108AE
:1013B000809300089BE088E10FB6F894A89580938D
:1013C00060000FBE909360001AC00FB6F894A89505
:1013D00080916000886180936000109260000FBE71
:1013E000A895109201081092000809C0223059F403
:1013F000E0915A04F0915B040995882321F08EEF67
:101400008093E80003C081E28093EB0061960FB601
:10141000F894DEBF0FBECDBFDF91CF91FF91EF916A
:10142000BF91AF919F918F917F916F915F914F91FC
:101430003F912F911F91FF90EF900F900FBE0F9053
:101440001F9018958F929F92AF92BF92CF92DF928A
:10145000EF92FF920F931F93CF93DF9300D01F92D1
:10146000CDB7DEB7382F8B018091A201882389F098
:101470004A018AEFF82E832F8770E82E90E4C92E58
:10148000832F8072B82E2AE3D22E832F8074A82E49
:1014900021C08FEF9FEF5FC08FB7F894E092E90013
:1014A0009091E80095FF1AC09091F2002C2D291B15
:1014B0008FBF211115C0FA94FF2059F361E070E04D
:1014C00080E090E039834A835B830E9495213981D3
:1014D0004A815B8181149104F9F634C020E0E8CFA1
:1014E000822F90E0881699060CF4282D822F90E028
:1014F000881A990A6FB7F894E092E900BB2029F0A6
:101500002150A8F01092F100FBCFF80137FF07C07F
:10151000215058F074917093F1003196F9CF215019
:1015200020F071917093F100FACF080F191F80918C
:10153000E80085FF0DC08114910411F4A11008C0CA
:101540006FBFC8CF5D9A84E68093EF01CA0103C0E4
:10155000D092E800F5CF0F900F900F90DF91CF91D0
:101560001F910F91FF90EF90DF90CF90BF90AF90C1
:101570009F908F9008959091A201992311F057FFA9
:1015800003C08FEF9FEF08952FB7F8948770809373
:10159000E9008091F20090E0841795070CF4AC010B
:1015A000842FFB0194E6815030F09093E901309153
:1015B000F1003193F8CF4115510521F08091F200EF
:1015C000882319F02FBFCA0108958BE68093E800A5
:1015D000F9CF1F920F920FB60F9211242F933F93C2
:1015E0004F935F936F937F938F939F93AF93BF932B
:1015F000EF93FF93CF93DF93CDB7DEB7C054D109FC
:10160000DEBFCDBF8091E1001092E10083FF0FC0EB
:101610001092E90091E09093EB001092EC0092E3BD
:101620009093ED001092A20198E09093F00082FF59
:1016300046C083E08093E9008091F200882319F08E
:101640008AE38093E8009FB7F89482E08093E900F2
:101650008091F2009FBF882321F082EB93E00E94EB
:10166000CE209FB7F89485E08093E9008091F20046
:101670009FBF8823C1F080915C0490915D04892B09
:1016800091F040E450E0BE016F5F7F4F85E00E9423
:10169000BB0A97FD08C0E0915C04F0915D04BC01B9
:1016A000CE01019609958091EF01882341F0809148
:1016B000EF0181508093EF01811101C05D98C05C02
:1016C000DF4F0FB6F894DEBF0FBECDBFDF91CF91D5
:1016D000FF91EF91BF91AF919F918F917F916F910A
:1016E0005F914F913F912F910F900FBE0F901F90E0
:1016F0001895EF92FF920F931F93CF93DF931F9252
:10170000CDB7DEB789838B017A0141E050E0BE019D
:101710006F5F7F4F84E00E94220AA701B80184E432
:101720000E94220A0F90DF91CF911F910F91FF909D
:10173000EF9008951F93CF93DF93EC011981988167
:10174000953009F45DC058F59230D1F1A8F491308C
:1017500009F03FC2E091A301F091A4012DE1129F95
:10176000B00111246B5B7D4F028CF38DE02DCE0117
:10177000DF91CF911F910994933081F1943009F05A
:1017800028C2E091A301F091A401ADE11A9FB0013C
:1017900011246B5B7D4F0488F589E02D2CC09B30B4
:1017A00009F493C030F49630C9F19A3009F444C07A
:1017B00010C29C3009F4C2C0913F09F411C109C2A2
:1017C000E091A301F091A4013DE1139FB001112428
:1017D0006B5B7D4F0088F189E02D0DC0E091A30186
:1017E000F091A4018DE1189FB00111246B5B7D4F36
:1017F0000288F389E02DCE01DF91CF911F910994EA
:10180000E091A301F091A401BDE11B9FB00111245F
:101810006B5B7D4F0688F789E02DEDCFE091A3014A
:10182000F091A4012DE1129FB00111246B5B7D4F5B
:10183000008CF18DE02DDFCF1F3F09F41FE79A8167
:10184000913099F4812F0E94F005E12FF0E0EB50E8
:10185000FE4F85818111BDC1E091A301F091A401EA
:101860000680F781E02D812F47C0923029F5C1E035
:101870008C2F0E945004CF5FCC30D1F7C12FD0E025
:10188000CB50DE4F8D81811109C0E091A301F09111
:10189000A4010084F185E02D8FE70995812F0E9436
:1018A000F0058D81811195C1E091A301F091A40112
:1018B0000680F781E02D1FC0933009F08AC1812F87
:1018C000DF91CF911F910C94500481E01F3FC1F430
:1018D00080930F018CE591E0E5E4F2E0DF019C01EB
:1018E0001D9221503040E1F7E091A301F091A40155
:1018F0000284F385E02D8FE7DF91CF911F9109944A
:10190000809359041C3008F064C13DE1139FF0013D
:101910001124EB5BFD4F108280910F01181710F41A
:1019200010930F01E091A301F091A4010284F385CB
:10193000E02D812F0995109205024BC182E0809322
:10194000060290910702946090930702909107021B
:10195000906190930702109208021330C1F048F48E
:10196000113089F0123009F034C180910702826091
:1019700034C0153079F1B8F0163009F02AC18091E1
:1019800007028E7F2AC0809107028D7F26C0E091DA
:10199000A301F091A4010480F581E02D80E0099578
:1019A0001092080216C1E091A301F091A4010480F5
:1019B000F581E02D81E0099581E080930F018CE5B0
:1019C00091E0E5E4F2E0DF019C011D9221503040FE
:1019D000E1F7FFC080910702816080930702F9C0A0
:1019E0008E89813009F0ADC0A981BA81AE31B105CF
:1019F0003CF0A93037E0B3072CF0A8E0B7E002C014
:101A0000AEE1B0E02091AC013091AD014091AE016A
:101A10005091AF010E943E3128E631E040E050E0B5
:101A20000E9414312093A3033093A4034093A50391
:101A30005093A603CA01B90122E030E040E050E033
:101A40000E94143120931302309314024093150224
:101A5000509316028D89813011F40E94E70F8F8117
:101A6000893C08F088EC809309028885893C08F05D
:101A700088EC809318028985893C08F088EC809373
:101A800011028A85893C08F088EC80930F028B85CF
:101A9000893C08F088EC809317028C85893C08F01B
:101AA00088EC809312028D85893C08F088EC809345
:101AB00010028E85893C08F088EC8093A1038F8505
:101AC000893C08F088EC80930A022A893B8980913E
:101AD000A9039091AA0328173907A0F437FD0AC07B
:101AE0008091A5019091A60101972817390720F44C
:101AF000C90102C080E090E09093A8038093A703FF
:101B000083E68E8B288939898091A7039091A80359
:101B10008217930708F050C083E68E8B12161306C7
:101B20004CF48091A5019091A6012817390720F463
:101B3000C90102C081E090E09093AA038093A903B9
:101B40003BC08F3FC9F58091B1019091B2019A835A
:101B500089838091C8039091C903A091CA03B09171
:101B6000CB038B839C83AD83BE83809109028F83DB
:101B700080911802888780911102898780910F02D5
:101B80008A87809117028B87809112028C878091BF
:101B900010028D878091A1038E8780910A028F8722
:101BA0008091A9039091AA03998B888B8091A703B8
:101BB0009091A8039B8B8A8B86EE90E0988F8F8BF9
:101BC00040E450E0BE0182EFDF91CF911F910C9471
:101BD000790BDF91CF911F910895DC01683810F0E7
:101BE000685825C0E62FF0E067FF12C0E058F10901
:101BF00081E090E001C0880FEA95EAF7809514969D
:101C00009C911497892314968C93149760E00FC0CD
:101C1000E656FE4F6491662311F167FF08C01496E3
:101C20008C9114978D7F14968C9314976F77FD0188
:101C3000369686E0662321F09081961301C01082CB
:101C4000815031968111F6CFBD016C5F7F4F48E026
:101C500050E082E00E94790B81E090E0089580E0FE
:101C600090E00895FC011682178210861186128674
:101C700013861482BC016C5F7F4F48E050E082E025
:101C80000C94790BDC01683810F068582DC0E62FF1
:101C9000F0E067FF11C0E058F10981E090E001C079
:101CA000880FEA95EAF714969C911497892B14965D
:101CB0008C93149760E018C0E656FE4F6491611152
:101CC00009C081E090E013969C938E93129780E078
:101CD00090E0089567FF08C014968C911497826075
:101CE00014968C9314976F7716968C911697861787
:101CF00051F117968C911797861729F118968C91A8
:101D00001897861701F119968C9119978617D9F0B3
:101D10001A968C911A978617B1F01B968C911B9787
:101D2000861789F0FD01369680E090E0219121111F
:101D300005C0FD01E80FF91F668305C001968630D6
:101D40009105A1F7BECFBD016C5F7F4F48E050E029
:101D500082E00E94790B81E090E00895009769F09D
:101D6000FC0101900020E9F73197AF01481B590BA6
:101D7000BC0182EB93E00C94C81F80E090E00895D2
:101D8000E4E1F8E04491E5EFF7E09491E6EDF7E067
:101D90002491222309F44DC04423C1F150E0FA01FB
:101DA0003197EE30F10590F5EB56FF4F0C94693406
:101DB000309180003F7703C0309180003F7D3093A9
:101DC000800024C034B53F7702C034B53F7D34BDB8
:101DD0001DC0309190003F7707C0309190003F7D4B
:101DE00003C030919000377F309390000FC0309146
:101DF000C0003F7703C03091C0003F7D3093C000EA
:101E000005C03091C200377F3093C200E22FF0E06E
:101E1000EE0FFF1FEB53F84FA591B4912FB7F89435
:101E2000EC91811103C090959E2301C09E2B9C9341
:101E30002FBF08959091B10389B18C70892B90E0E8
:101E40009C0135952795359527952093B1034091B1
:101E5000AD035091AE036091AF037091B003FC01EC
:101E6000E25BFE4F8081082E000C990BAA0BBB0B86
:101E7000840F951FA61FB71F8093AD039093AE03E9
:101E8000A093AF03B093B0038091AC030895E091A9
:101E9000B203F091B3030190F081E02D682F82EB43
:101EA00093E00994CF93DF938DE00E94470FEC01FC
:101EB0008AE00E94470F8C0F9D1FDF91CF910895FC
:101EC0008F929F92AF92BF92EF92FF920F931F93C8
:101ED000CF93DF93CDB7DEB7A1970FB6F894DEBFEF
:101EE0000FBECDBF162F042F19A2423008F40AE00E
:101EF0007E0121E2E20EF11C802E912CA12CB12C4E
:101F0000612FA50194010E944631029F10191124EE
:101F100081E0E81AF1081A3014F4105D01C0195C70
:101F2000F7011083122F732FCA01232B242B252B8B
:101F300039F7C7010E94AE0EA1960FB6F894DEBF26
:101F40000FBECDBFDF91CF911F910F91FF90EF900A
:101F5000BF90AF909F908F900895CF92DF92EF92B5
:101F6000FF92CF93DF9397FF19C06B017C018DE245
:101F70000E94470FEC0166277727CB016C197D097A
:101F80008E099F094AE00E94600F8C0F9D1FDF9110
:101F9000CF91FF90EF90DF90CF9008954AE0DF91CE
:101FA000CF91FF90EF90DF90CF900C94600FCF9384
:101FB000DF93BC01990F880B990B0E94AD0FEC01C8
:101FC0000E94520F8C0F9D1FDF91CF9108954F9269
:101FD0005F926F927F928F929F92AF92BF92CF92B9
:101FE000DF92EF92FF92CF93DF93F894C090AD030E
:101FF000D090AE03E090AF03F090B003789460917E
:10200000A9037091AA038091A7039091A803681B6C
:10201000790B769567957695679580E090E00E94BC
:10202000371B68EC70E080E090E00E94952146014B
:102030005701C8EED3E06091A9037091AA03809183
:10204000A7039091A803681B790B76956795769501
:10205000679580E090E00E94371B68EC70E080E0BC
:1020600090E00E949521F8944090AD035090AE030B
:102070006090AF037090B003789484149504A60424
:10208000B70421F0219753014201A9F68091A303DF
:102090009091A403A091A503B091A603F894809316
:1020A000AD039093AE03A093AF03B093B0037894C5
:1020B00060E070E0CB010E94371BC414D504E60435
:1020C000F70411F482E001C081E08093CC0381E049
:1020D00090E0DF91CF91FF90EF90DF90CF90BF9095
:1020E000AF909F908F907F906F905F904F900C94E7
:1020F000D70F2F923F924F925F926F927F928F9263
:102100009F92AF92BF92CF92DF92EF92FF920F9386
:102110001F93CF93DF93CDB7DEB7AF970FB6F89489
:10212000DEBF0FBECDBF6B837C838D839E8380918A
:10213000CD039091CE03A091CF03B091D0032B811A
:102140003C814D815E812093CD033093CE0340933B
:10215000CF035093D0032091D503222309F44AC022
:102160001091FE0334E0139FA0011124BA016353C0
:102170007C4F7B012B813C814D815E81281B390B7B
:102180004A0B5B0BCA01B9010E949332D701199621
:102190006D937D938D939C931C97012FBAE0FB2E3A
:1021A00060E070E0CB01B4E00B9FF0011124E35339
:1021B000FC4F21853285438554850E947831002368
:1021C00011F0015001C009E0FA94F110ECCF20E0C9
:1021D00030E040E251E40E94E9311F5F1A3018F408
:1021E0001093FE0302C01092FE036D8B7E8B8F8BCB
:1021F000988F0FC081E08093D5031092D103109285
:10220000D2031092D3031092D4031D8A1E8A1F8A10
:10221000188E2091FF0330910004409101045091E9
:1022200002048D899E89AF89B88D8093FF039093B6
:102230000004A0930104B093020480910704882352
:1022400009F443C010915804E4E01E9FB00111242A
:10225000CB018A529C4F7C016D897E89CD010E9401
:102260007731D701D2966D937D938D939C93D597BB
:10227000012FA4E1FA2E60E070E0CB01B4E00B9FE7
:10228000F0011124EA52FC4F22A933A944A955A90F
:102290000E947831002311F0015001C003E1FA944B
:1022A000F110ECCF20E030E040EA51E40E94E93147
:1022B0001F5F143118F41093580402C01092580490
:1022C0006D8F7E8F8F8F98A30FC081E0809307045E
:1022D0001092030410920404109205041092060454
:1022E0001D8E1E8E1F8E18A280915904882309F41A
:1022F00041C08B819C81AD81BE81B7FF07C0B09585
:10230000A095909581959F4FAF4FBF4F0297A10524
:10231000B1050CF487C78091A20380FF83C70E9498
:10232000761E9B01AC0160E070E080E094E40E94C6
:10233000E9316B017C016091A10370E080E090E0E5
:102340000E9493329B01AC01C701B6010E94483341
:1023500020E030E048EC52E40E94E9310E945B3218
:10236000AB016B817C818D819E810E94841F2B013A
:102370003C015BC7E9E1F2E0FC8BEB8B1A8219822E
:10238000412C512C320129813A812F5F3F4F3A83F2
:1023900029836DE1629FA001639F500D11248A0182
:1023A0000B5B1D4FD8018C918370833009F02DC7D2
:1023B0000E94761E6B017C01F80120853185A6897B
:1023C000B7890E946F342FEF3FE740E050E00E9452
:1023D0001431CA01B9010E949332A70196010E94EB
:1023E000E9310E945B326B017C01D8011A968D9114
:1023F0009C911B97059730F4E4E0F0E01B96FC936A
:10240000EE931A974DE129813A81429FF001439F53
:10241000F00D1124EB5BFD4FE1818E2F90E0FC016C
:102420003197ED30F10508F0DAC6ED55FF4F0C9409
:1024300069340E94761E6F83788789879A878DE139
:1024400069817A81869FA001879F500D1124DA014E
:10245000AB5BBD4F1D0118968D909C9019975496BB
:10246000AD90BC9055971E96CD90DC901F975096DE
:10247000ED90FC90519752960D911C9153971396A5
:102480002C91139712964C91129756968D919C9180
:102490005797EB89FC89608171810E94871E9401A6
:1024A000DC010E946F342FEF3FE740E050E00E94D4
:1024B0001431CA01B9010E9493322F8138854985B0
:1024C0005A850E94E9310E945B320E9436069B01C8
:1024D000AC01A0911802B0E00E94333124E630E054
:1024E00040E050E00E941431421A530A640A750A0F
:1024F000D10115968C91159782FF71C61C966D912E
:102500007C911D9780E090E00E9491322BED3FE09E
:1025100049EC50E40E94483320E030E040E058E3CA
:102520000E9448330E94B5339B01AC01C301B20144
:102530002AA73DA74BA75CA70E9493322AA53DA5D9
:102540004BA55CA50E9448330E945B322B013C01E5
:1025500046C60E94761E6F83788789879A874DE1E9
:1025600029813A81429FF001439FF00D1124EB5BDA
:10257000FD4F608571857C876B87A488B5888685CB
:102580009785988B8F87A089B189BA8FA98F228967
:1025900033893DA32CA383809280AB89BC892D9085
:1025A0003C90268537853FA72EA767810681002EA0
:1025B000000C110B062E000C770B601B710BCB016E
:1025C000770FAA0BBB0B6627782F892F9A2F0E94B3
:1025D00093326B017C014EA55FA5BA0180E090E0CB
:1025E0000E94913220E030E04AE754E40E94E93151
:1025F0009B01AC01C701B6010E94E9316B017C016E
:10260000C1016EA57FA50E945534BC0180E090E019
:102610000E94913220E030E04AE754E40E94E93120
:102620009B01AC01C701B6010E9448330E945B3296
:10263000102F0027C801860F971FCF84D888E98CF8
:10264000FA8C0CA11DA1282D492DB1010E94871ED5
:102650002B853C85DC010E946F342FEF3FE740E083
:1026600050E00E941431CA01B9010E9493322F81B7
:10267000388549855A850E94E9310E945B320E9463
:102680003606461A570A680A790AA9C50E94761EB4
:102690006F83788789879A878DE169817A81869FA0
:1026A000F001879FF00D1124EB5BFD4F20843184F6
:1026B000A28DB38DBC87AB87B48DBF872285338550
:1026C0003A8F298FA488B588C684D784E088F1889A
:1026D0000289138923814281AB89BC898D909C90AA
:1026E00086899789B4010E94871E8C01E98DFA8D35
:1026F000BF0180E090E00E94913220E030E04AE7A4
:1027000054E40E94E9319B01AC0160E070E080E894
:102710009FE30E94E9316B017C01C401698D7A8DD0
:102720000E945534BC0180E090E00E94913220E08C
:1027300030E04AE754E40E94E9319B01AC01C70153
:10274000B6010E9448336B017C01FF856F2F70E05A
:1027500080E090E00E94913220E030E040E85BE3CE
:102760000E9448339B01AC01C701B6010E94783139
:102770002BED3FE049EC50E40E9448330E94B53312
:102780009B01AC016B857C856B01770FEE08FF0820
:10279000B801110F880B990B2AA73DA74BA75CA77F
:1027A0000E9493322AA53DA54BA55CA50E94483303
:1027B0000E945B32CB01770FAA0BBB0BA7019601DE
:1027C000280F391F4A1F5B1FD101BDC00E94761E12
:1027D0006F83788789879A87ADE189819A81A89FDD
:1027E000F001A99FF00D1124EB5BFD4F2085318591
:1027F0003C872B87228D338DA901330F660B770B16
:102800004F87588B698B7A8B548D598F22843384F0
:10281000A488B588C684D784E088F18802891389A2
:1028200023814281AB89BC890D90BC91A02DBDA3B1
:10283000ACA386899789BD010E94871EBC01990FB0
:10284000880B990B0E9493326B017C01B10180E0EF
:1028500090E00E94913220E030E04AE754E40E9488
:10286000E9319B01AC0160E070E080E89FE30E94E9
:10287000E9314B015C018CA19DA1B1010E9455344D
:10288000BC0180E090E00E94913220E030E04AE715
:1028900054E40E94E9319B01AC01C501B4010E94DE
:1028A00048334B015C01B98D6B2F70E080E090E004
:1028B0000E94913220E030E040E85BE30E94483320
:1028C0009B01AC01C501B4010E9478312BED3FE0C2
:1028D00049EC50E40E9448330E94B5334B015C013F
:1028E00020E030E0A9010E94433387FF0CC020E0C4
:1028F00030E0A901C501B4010E94E43187FF05C0A1
:10290000EFEFEBA302C0F1E0FBA32BA1622F220F9C
:10291000770B880B990B0E9493329B01AC01C70186
:10292000B6010E9448330E945B32CB01770FAA0B9D
:10293000BB0B2F85388949895A89280F391F4A1FAF
:102940005B1FAB85BC850E9433312FEF3FE740E032
:1029500050E00E941431CA01B9010E9493322F81C4
:10296000388549855A850E94E9310E945B329B0176
:10297000AC01A0911702B0E00E94333124E630E0B0
:1029800040E050E00E941431420E531E641E751E3A
:1029900026C40E94761E6B877C878D879E876DE19B
:1029A00049815A81649FF001659FF00D1124EB5B12
:1029B000FD4F80859185988B8F87228D338DA9015E
:1029C000330F660B770B498F5A8F6B8F7C8F348D4B
:1029D00022843384A488B588C684D784E088F188AB
:1029E0000289138923814281AB89BC890D90BC91F6
:1029F000A02DB887AF8386899789BD013DA70E9426
:102A0000871E8C01B10180E090E00E9491324B0161
:102A10005C013DA580E4830F682F70E080E090E0CA
:102A20000E94913220E030E040E85BE30E944833AE
:102A3000A50194010E9448330E9462328F819885DB
:102A4000860F971FB1010E9455349DA38CA3BC0132
:102A500080E090E00E94913220E030E04AE754E4C8
:102A60000E94E9316B017C0120E030E0A9010E9465
:102A7000433387FD3CC020E030E04AE754E4C50121
:102A8000B4010E94E9316F83788789879A8720E0B3
:102A900030E040E05FE30E9448339B01AC01C70196
:102AA000B6010E94E43187FF22C0B801012E000C5C
:102AB000880B990B0E94933220E030E040E850E40C
:102AC0000E9448332F81388549855A850E94E93113
:102AD000A70196010E9448330E945B32119501952F
:102AE0001109F801E60FF71FFAA3E9A350C020E08F
:102AF00030E04AE754E4C501B4010E94E9314B01DA
:102B00005C0120E030E040E05FE30E9448339B013D
:102B1000AC01C701B6010E94433387FD38C0A5014F
:102B20009401C701B6010E94E43187FF30C0B801AB
:102B3000012E000C880B990B0E94933220E030E0AC
:102B400040E850EC0E944833A50194010E94E9310D
:102B50006B017C01369427946CA17DA162197309E5
:102B600080E090E00E94913220E030E04AE754E4B7
:102B70000E94E9319B01AC01C701B6010E944833B4
:102B80000E945B329801260F371F3AA329A349A15F
:102B90005AA1CA01550FAA0BBB0B298D3A8D4B8D3B
:102BA0005C8D280F391F4A1F5B1FAF85B8890E94B3
:102BB00033312FEF3FE740E050E00E941431CA016B
:102BC000B9010E9493322B853C854D855E85CBCE25
:102BD0000E94761E6F83788789879A878DE1698145
:102BE0007A81869FF001879FF00D1124EB5BFD4FEA
:102BF000A085B185BC87AB87228D338DA901330FAA
:102C0000660B770B4F87588B698B7A8B348D2284B8
:102C10003384A488B588C684D784E088F188028983
:102C2000138923814281AB89BC898D909C908689D0
:102C30009789B4013DA70E94871E8C01B10180E0F5
:102C400090E00E9491326B017C013DA53058632FCA
:102C500070E080E090E00E94913220E030E040E8B7
:102C60005BE30E944833A70196010E9448330E940B
:102C70006232C401860F971FB1010E9455349A8FAA
:102C8000898F82159305D0F5B801012E000C880BB1
:102C9000990B0E9493329B01AC010E9478314B0149
:102CA0005C0120E030E04AE754E4C701B6010E942D
:102CB000E9319B01AC01C501B4010E94E9316B010E
:102CC0007C01E98DFA8DBF0180E090E00E94913295
:102CD00020E030E04AE754E40E94E9319B01AC0176
:102CE000C701B6010E9448330E945B3211950195DD
:102CF00011099801260F371F3FA32EA34EA15FA1F4
:102D000098C00E94761E6F83788789879A878DE1A5
:102D100069817A81869FF001879FF00D1124EB5B1A
:102D2000FD4FA085B185BC87AB87228D338DA9016E
:102D3000330F660B770B4F87588B698B7A8B348DEB
:102D400022843384A488B588C684D784E088F18837
:102D50000289138923814281AB89BC898D909C9023
:102D600086899789B4013DA70E94871E8C01B10115
:102D700080E090E00E9491326B017C013DA53058CB
:102D8000632F70E080E090E00E94913220E030E01C
:102D900040E85BE30E944833A70196010E94483354
:102DA0000E946232C401860F971FB1010E94553400
:102DB0009A8F898F82159305D0F566277727601B38
:102DC000710B072E000C880B990B0E9493329B010C
:102DD000AC010E9478314B015C0120E030E04AE711
:102DE00054E4C701B6010E94E9319B01AC01C50161
:102DF000B4010E94E9316B017C01E98DFA8DBF01BC
:102E000080E090E00E94913220E030E04AE754E414
:102E10000E94E9319B01AC01C701B6010E94483311
:102E20000E945B329801260F371F39A728A748A5B3
:102E300059A5CA01550FAA0BBB0B7BCD8DE169814A
:102E40007A81869FF001879FF00D1124EB5BFD4F87
:102E5000A28DB38D8090130290901402A090150261
:102E6000B0901602A50194010E943E31DC01CB0115
:102E70006FE0B595A795979587956A95D1F7092E37
:102E8000000CAA0BBB0B2B813C814D815E81281B62
:102E9000390B4A0B5B0B1216130614061506F4F4D5
:102EA000A28DB38DA50194010E943E31DC01CB01BE
:102EB0005FE0B595A795979587955A95D1F7092E17
:102EC000000CAA0BBB0B4B815C816D817E81481B82
:102ED000590B6A0B7B0BDB01CA011BC0A28DB38DA2
:102EE000A50194010E943E31DC01CB014FE0B59574
:102EF000A795979587954A95D1F7092E000CAA0BAF
:102F0000BB0B2B813C814D815E81821B930BA40BFB
:102F1000B50B6DE149815A81649FF001659FF00D09
:102F20001124EB5BFD4F448178E0479FA001112401
:102F3000052E000C660B770B481759076A077B07AD
:102F40000CF04DC1A28DB38DA50194010E943E31BC
:102F5000DC01CB013FE0B595A795979587953A950C
:102F6000D1F7092E000CAA0BBB0B2B813C814D81A4
:102F70005E81281B390B4A0B5B0B57FD03C008EF22
:102F80001FEF02C008E010E06DE149815A81649FA3
:102F9000F001659FF00D1124EB5BFD4F3480828DB5
:102FA000938D9C878B87A0911202B0E0A7019601B8
:102FB0000E94333120E436E040E050E00E941431BA
:102FC0002F83388749875A87309E6001319ED00C05
:102FD00011240D2C000CEE08FF082B813C814D8143
:102FE0005E81C20ED31EE41EF51EAB85BC85A50115
:102FF00094010E943E31DC01CB012FE0B595A795ED
:10300000979587952A95D1F7092E000CAA0BBB0B33
:10301000A7019601281B390B4A0B5B0BCA01B901AA
:103020004F8158850E94841F460E571E681E791EC8
:10303000D6C06DE149815A81649FF001659FF00D12
:103040001124EB5BFD4F028D138DA0911102B0E0B6
:10305000A70196010E94333124E630E040E050E0C1
:103060000E94143169017A01B801110F880B990B84
:103070000E9493322AE939EC4CEC54E40E94E93185
:103080009B01AC016D897E898F89988D0E94773173
:10309000A6010E944A0765C0ADE189819A81A89F77
:1030A000F001A99FF00D1124EB5BFD4F028D138DF4
:1030B000A0911002B0E0A70196010E94333124E6EE
:1030C00030E040E050E00E94143169017A01B8011B
:1030D000110F880B990B0E94933220E03EEF4FEFC7
:1030E00056E40E94E9319B01AC016D8D7E8D8F8D80
:1030F00098A10E947731A6010E94E20632C04DE1FC
:1031000029813A81429FF001439FF00D1124EB5B2E
:10311000FD4F028D138DA0910F02B0E0A701960123
:103120000E94333124E630E040E050E00E94143148
:1031300069017A01B801110F880B990B0E94933233
:103140002AE939EC4CEC54E40E94E9319B01AC01D2
:103150006D897E898F89988D0E947731A6010E94A2
:103160006106092E000CAA0BBB0B480E591E6A1EE5
:103170007B1E35C00E94761E9B01AC018DE16981EA
:103180007A81869FF001879FF00D1124EB5BFD4F44
:10319000628D738D072E000C880B990B2AA73DA713
:1031A0004BA75CA70E9493322AA53DA54BA55CA521
:1031B0000E94E9310E945B320E9436069B01AC01FD
:1031C000A0911702B0E00E94333124E630E040E0E5
:1031D00050E00E941431421A530A640A750A0E9490
:1031E000BB2100910B0210910C0220910D02309135
:1031F0000E02DC01CB01801B910BA20BB30BEB8900
:10320000FC8980839183A283B3832B893C892C5FC3
:103210003F4F3C8B2B8B49815A814B30510509F034
:10322000B2C803C0412C512C32013090A20331FEB0
:103230002EC00E94761E9B01AC01E091110287E432
:1032400091E0E89FB001E99F700D1124072E000C5A
:10325000880B990B2AA73DA74BA75CA70E94933226
:103260002AA53DA54BA55CA50E94E9310E945B32D1
:10327000AB016D897E898F89988D0E944A07092E3E
:10328000000CAA0BBB0B480E591E6A1E7B1E32FE99
:103290002EC00E94761E9B01AC01E091100287E4D3
:1032A00091E0E89FB001E99F700D1124072E000CFA
:1032B000880B990B2AA73DA74BA75CA70E949332C6
:1032C0002AA53DA54BA55CA50E94E9310E945B3271
:1032D000AB016D8D7E8D8F8D98A10E94E206092E27
:1032E000000CAA0BBB0B480E591E6A1E7B1E33FE38
:1032F0002EC00E94761E9B01AC01E0910F0287E474
:1033000091E0E89FB001E99F700D1124072E000C99
:10331000880B990B2AA73DA74BA75CA70E94933265
:103320002AA53DA54BA55CA50E94E9310E945B3210
:10333000AB016D897E898F89988D0E946106092E67
:10334000000CAA0BBB0B480E591E6A1E7B1E8091F7
:10335000130290911402A0911502B0911602002759
:1033600011279801081B190B2A0B3B0B4B815C8121
:103370006D817E81401751076207730734F084170F
:103380009507A607B7070CF03FC02B813C814D8104
:103390005E8157FD07C069017A01C81AD90AEA0A95
:1033A000FB0A08C0CB80DC80ED80FE80C80ED91EF1
:1033B000EA1EFB1E0E94761E9B01AC0160E07EEFC0
:1033C0008FEF96E40E94E9314B015C0160910A02A3
:1033D00070E080E090E00E9493329B01AC01C50157
:1033E000B4010E94483320E030E048EC52E40E94EF
:1033F000E9310E945B32AB01C701B6010E94841F14
:10340000460E571E681E791EA0910902B0E0A30166
:1034100092010E94333124E630E040E050E00E9407
:103420001431CA01B9010E9436066B017C0134FED9
:1034300004C00E94AD0F0E94520FC701B601AF96A3
:103440000FB6F894DEBF0FBECDBFDF91CF911F91B5
:103450000F91FF90EF90DF90CF90BF90AF909F9033
:103460008F907F906F905F904F903F902F90089536
:10347000682F70E080E090E04AE00C94600F0C94BC
:10348000AE0E0F931F930E94BB216093BA037093FB
:10349000BB038093BC039093BD03E091B203F09112
:1034A000B3030084F185E02D82EB93E0099597FF4B
:1034B0001FC00E94BB210091BA031091BB03209151
:1034C000BC033091BD03DC01CB01801B910BA20B2F
:1034D000B30B0091B6031091B7032091B80330915C
:1034E000B90380179107A207B307B8F28FEF9FEFD8
:1034F0001F910F9108950895CF93DF93FC01EB0185
:1035000071818281898387819085998788872585C4
:103510003685438154816DE1769FC00111248B5B18
:103520009D4FDC011F965C934E931E9755963C93DE
:103530002E93549764E0769FD0011124AB5EBD4F6B
:103540001D921D921D921C921397838594859D87D1
:103550008C8782858D8381E0DF91CF910895FC0176
:103560002281FB012683FC018381FB01878308956F
:10357000FC0182819381FB01978B868B0895DC018E
:10358000FB0112968D919C911397978B868B1496C5
:103590008D919C911597938F828F16968C9116978B
:1035A000848F17968D919C911897938782870895A1
:1035B000DC01FB0115968D919C911697978B868B5C
:1035C00013968D919C911497938F828F19968C915D
:1035D0001997848317968D919C911897918F808F5E
:1035E0000895DC01FB0112968C9112978283139649
:1035F0008C911397838314968D919C911597938B3F
:10360000828B16968D919C911797918B808B089544
:103610009DE1899FF0011124EB5BFD4F7787668761
:10362000558B448B94E0899FF0011124EB5EFD4F94
:1036300010821182128213820895089508951092C3
:10364000590424E0829FC0011124FC01EB5EFD4F70
:103650001082118212821382089525E0FC012083DA
:103660008EE891E0089508958093590408952F926B
:103670003F924F925F926F927F928F929F92AF9202
:10368000BF92CF92DF92EF92FF92CF93DF93CDB7AD
:10369000DEB764970FB6F894DEBF0FBECDBF6B01E7
:1036A0007C016091090270E080E090E00E9493321A
:1036B0002AE037ED43E25CE30E94483369837A8372
:1036C0008B839C8316012701F7FE07C02224332435
:1036D00021012C183D084E085F08C201B1010E946B
:1036E00093324B015C016091A9037091AA0380E0C1
:1036F00090E00E9491326D837E838F83988726E6C7
:1037000036E646E65FE30E94483329813A814B81E1
:103710005C810E94483369877A878B879C879B01ED
:10372000AC01C501B4010E94433387FDCBC02D819C
:103730003E814F81588569817A818B819C810E946D
:1037400048336D877E878F87988B20E030E040E894
:103750005FE30E9477319B01AC01C501B4010E9477
:10376000E43187FFAFC069857A858B859C850E948F
:103770005B324B015C01A2019101261B370B480B08
:10378000590BAEE3B0E00E94333169837A838B83B7
:103790009C836D857E858F8598890E945B329B0115
:1037A000AC01281939094A095B0969817A818B8141
:1037B0009C810E94143149015A018FEF881A980A9E
:1037C000A80AB80A340161E083E00E94092181144B
:1037D000910409F498C08FEF8816910409F48EC003
:1037E000E4E1F8E0E4918E2F90E0FC013197EE30B7
:1037F000F10508F062C0E055FF4F0C94693484B5C0
:10380000806884BD87BC82C084B5806284BD88BC6A
:103810007DC08091800080688093800090928900B4
:103820008092880073C080918000806280938000C5
:1038300090928B0080928A0069C08091900080688D
:103840008093900090929900809298005FC0809140
:10385000900080628093900090929B0080929A00EA
:1038600055C08091900088608093900090929D0058
:1038700080929C004BC08091C00080688093C00003
:103880008091C0008F7B8093C0008092CF003EC0AB
:103890008091C00080628093C0008092D00036C0CA
:1038A0008091C20088608093C2008091C2008B7FAB
:1038B0008093C2008092D20029C080E8681671040B
:1038C000ECF421C02D813E814F81588569817A8138
:1038D0008B819C810E94483320E030E040E85FE328
:1038E0000E9477319B01AC01C501B4010E944333B2
:1038F00061E087FD05C083E00E94092181E004C0EA
:1039000083E00E94092180E00E94C00E6091B00116
:1039100070E060587109072E000C880B990B0E940B
:10392000933220E030E04FE753E40E94E9314B014D
:103930005C0160937F047093800480938104909372
:10394000820420E030E0A9010E9443331816ACF451
:10395000A501940160E070E080E89FE30E94773168
:1039600060937B0470937C0480937D0490937E0429
:1039700080E090E0A0E8BFE330C020E030E0A901A3
:10398000C501B4010E94E43187FF1BC080E090E0D4
:10399000A0E8BFE380937B0490937C04A0937D0414
:1039A000B0937E049C01AD01C501B4010E94783141
:1039B00060937704709378048093790490937A04E9
:1039C00014C080E090E0A0E8BFE380937B04909374
:1039D0007C04A0937D04B0937E048093770490933D
:1039E0007804A0937904B0937A049091AB01892F65
:1039F000807491FDA9C0811167C01C141D041E04B0
:103A00001F04A4F54090A9035090AA038090A70337
:103A10009090A803A12CB12C612C712CC301B20190
:103A20000E9491322091770430917804409179047A
:103A300050917A040E9448330E945B3268197909D8
:103A40008A099B09A70196010E944534A3019201AE
:103A50000E94143169017A01C80CD91CEA1CFB1CB4
:103A600080E090E00E944C23C60128C1C114D1041B
:103A7000E104F10431F14090A9035090AA03809130
:103A8000A7039091A8034C01A12CB12CF094E094D1
:103A9000D094C094C11CD11CE11CF11C612C712C70
:103AA000C301B2010E94913220917B0430917C04C9
:103AB00040917D0450917E040E9448330E945B3205
:103AC0001CC080E090E0F6C0E091A903F091AA0349
:103AD0001C141D041E041F04DCF44F0196948794EB
:103AE0008091A7039091A803880E991EA12CB12C58
:103AF0002F01612C712CC301B201681979098A095F
:103B00009B09A70196010E944534A3019201BEC002
:103B1000C114D104E104F10499F04F019694879403
:103B20008091A7039091A803881A990AA12CB12C1F
:103B3000A5019401C701B6010E9445349F01A4C0AC
:103B4000CF0196958795B6C0811127C0F7FC02C0BA
:103B50002A9A01C02A988091A7039091A8036C012A
:103B6000E12CF12C8090A9039090AA03A12CB12CF8
:103B7000C501B4016C197D098E099F09A20191014B
:103B80000E944534A50194010E941431DA01C90153
:103B90008C0D9D1DAE1DBF1D8DC01C141D041E046B
:103BA0001F046CF520E030E040E85FE36091A7017E
:103BB0007091A8018091A9019091AA010E94783189
:103BC00020910401309105014091060150910701B7
:103BD0000E9448330E945B324B015C0160910001FE
:103BE0007091010180910201909103010E945B326A
:103BF000681979098A099B09A70196013FC0C11478
:103C0000D104E104F10409F44AC02091A7013091E4
:103C1000A8014091A9015091AA0160E070E080E8FC
:103C20009FE30E947731209104013091050140917A
:103C30000601509107010E9448330E945B324B01FC
:103C40005C0122273327A9012C193D094E095F0980
:103C5000609108017091090180910A0190910B0116
:103C6000298B3A8B4B8B5C8B0E945B3268197909EC
:103C70008A099B0929893A894B895C890E944534C4
:103C80002091A9033091AA0340E050E00E94143132
:103C9000DA01C901880D991DAA1DBB1D0BC06091D9
:103CA00004017091050180910601909107010E9425
:103CB0006232CB010E944C2380E090E064960FB604
:103CC000F894DEBF0FBECDBFDF91CF91FF90EF9094
:103CD000DF90CF90BF90AF909F908F907F906F902C
:103CE0005F904F903F902F900C943F236091A501DF
:103CF0007091A60180E090E00E9491329B01AC019E
:103D000060E07EEF8FEF96E40E94E93108952F92F4
:103D10003F924F925F926F927F928F929F92AF925B
:103D2000BF92CF92DF92EF92FF920F931F93CF93A8
:103D3000DF93CDB7DEB729970FB6F894DEBF0FBE7D
:103D4000CDBF998788874B012B831D830C83170177
:103D5000DF82CE82042F10E08C819D816C01E12CEA
:103D6000F12CE885F985F7FD2BC0C8019695982FB1
:103D7000882797958795BF01681B790B072E000C44
:103D8000880B990B0E9493322B013C01C701B601AD
:103D90000E9491329B01AC01C301B2010E94E93142
:103DA0002B013C01C8019695982F882797958795F8
:103DB0009A838983EB8190E8E99FB00111242AC09E
:103DC000B8017695762F662777956795E885F9850A
:103DD0006E0F7F1F072E000C880B990B0E949332E9
:103DE0002B013C01C701B6010E9491329B01AC013D
:103DF000C301B2010E94E9312B013C0160E860037C
:103E0000C001619F900D11249A8389832B816203E5
:103E1000B001112488859985681B790B072E000C49
:103E2000880B990B0E9493326B017C01B10180E0F9
:103E300090E00E9491329B01AC01C701B6010E9443
:103E4000E9316B017C018A149B0408F43FC08E8128
:103E50009F818A0D9B1D88169906C0F50C811D81D6
:103E60000A0D1B1D8016910690F4B4016A197B0996
:103E700080E090E00E9491329B01AC01C301B2014D
:103E80000E9448330E945B3289819A811CC082194A
:103E9000930988159905E8F48A189B08EE81FF813B
:103EA0008E1A9F0AB401620D731D80E090E00E949B
:103EB00091329B01AC01C701B6010E9448330E94B8
:103EC0005B3288859985860F971F05C080E090E05A
:103ED00002C08885998529960FB6F894DEBF0FBE7B
:103EE000CDBFDF91CF911F910F91FF90EF90DF90A9
:103EF000CF90BF90AF909F908F907F906F905F908A
:103F00004F903F902F9008958F929F92AF92BF92C3
:103F1000CF92DF92EF92FF92CF93DF934B015C0140
:103F2000EA010E9411066B017C01DE01A5019401EA
:103F30000E943E310E949332A70196010E944833AD
:103F400020E030E040E051E40E94483320E030E0DF
:103F500040E251E40E94483320E030E040E85BE377
:103F60000E9448330E945B320E94360690958095ED
:103F7000709561957F4F8F4F9F4FDF91CF91FF904D
:103F8000EF90DF90CF90BF90AF909F908F9008956B
:103F9000CF92DF92EF92FF920F931F93CF93DF9315
:103FA0006C01EB017B01E40EF51E00E010E0CE1584
:103FB000DF0561F06991D601ED91FC910190F081EE
:103FC000E02DC6010995080F191FF1CFC801DF9137
:103FD000CF911F910F91FF90EF90DF90CF900895B8
:103FE00083E08093E9008091F200882319F08AE34E
:103FF0008093E800089520913B0530913C05809125
:104000003D0590913E0528173907A9F0E0913D053F
:10401000F0913E05E550FB4F808120913D053091A8
:104020003E052F5F3F4F2F73332730933E0520937C
:104030003D0590E008958FEF9FEF089520913B0597
:1040400030913C0580913D0590913E052817390738
:1040500049F0E0913D05F0913E05E550FB4F808130
:1040600090E008958FEF9FEF089580913B05909128
:104070003C0520913D0530913E05821B930B8F73CB
:104080009927089585ED8093BC008091BC0084FD44
:10409000FCCF1092CC0408954091A604262F30E066
:1040A000240F311D21323105DCF42091CC04243061
:1040B000C9F4FC0180E090E0861758F43091A60422
:1040C0002191DC01AC57BB4FA30FB11D2C9301967E
:1040D000F3CF8091A604680F6093A60480E0089552
:1040E00081E0089582E0089508958FEF9FEF08958D
:1040F0008FEF9FEF08958091830490E091958195D3
:1041000091090895CF93DF9300D0CDB7DEB7CB01EF
:10411000642F49835A830E944C204981842F5A81FD
:10412000952F0F900F90DF91CF910895CF93DF934C
:104130001F92CDB7DEB7698361E0CE0101960E9480
:104140004C2081E090E00F90DF91CF9108950E9484
:1041500076340F931F93CF93DF931F92CDB7DEB7C3
:104160008C01698380911701882359F041E050E068
:10417000BE016F5F7F4F83E00E94220A1816190666
:104180003CF081E090E0F8019383828380E090E04E
:104190000F90DF91CF911F910F9108950F931F936F
:1041A000CF93DF931F92CDB7DEB700913B051091FF
:1041B0003C050F5F1F4F0F73112780913D059091B4
:1041C0003E0508171907F9F041E050E0BE016F5FA6
:1041D0007F4F82E00E94BB0A019719F4898190E029
:1041E00002C08FEF9FEF8F3F2FEF920761F0E091BA
:1041F0003B05F0913C05E550FB4F808310933C0557
:1042000000933B05D2CF0F90DF91CF911F910F917B
:104210000895CF93DF9390E0FC01EE50F84F249186
:10422000FC01ED52F84F8491882361F190E0880FF2
:10423000991FFC01E45CF74FC591D491FC01EB534D
:10424000F84FA591B491611109C09FB7F894888186
:10425000209582238883EC912E230BC0623061F479
:104260009FB7F8943881822F809583238883EC91BF
:104270002E2B2C939FBF06C08FB7F894E8812E2B6E
:1042800028838FBFDF91CF910895823108F082514A
:10429000E82FF0E0E05DF74FE49180917B00E3FBD5
:1042A000222720F930E095E0220F331F9A95E1F79D
:1042B0008F7D282B20937B00E770E064E0937C00E7
:1042C00080917A00806480937A0080917A0086FDE4
:1042D000FCCF809178002091790090E0922B089596
:1042E0003FB7F8948091F7049091F804A091F904F5
:1042F000B091FA0426B5A89B05C02F3F19F001968E
:10430000A11DB11D3FBFBA2FA92F982F8827820F5B
:10431000911DA11DB11DBC01CD0142E0660F771FAB
:10432000881F991F4A95D1F70895CF92DF92EF9297
:10433000FF92CF93DF936B017C010E947021EB0110
:10434000C114D104E104F10479F00E9470216C1BC6
:104350007D0B683E7340A0F381E0C81AD108E108E4
:10436000F108C851DC4FECCFDF91CF91FF90EF9077
:10437000DF90CF9008952FB7F8946091F304709177
:10438000F4048091F5049091F6042FBF08951F92D4
:104390000F920FB60F9211242F933F938F939F93F9
:1043A000AF93BF938091F3049091F404A091F5042E
:1043B000B091F6043091F20423E0230F2D3720F45E
:1043C0000196A11DB11D05C026E8230F0296A11D6F
:1043D000B11D2093F2048093F3049093F404A0930E
:1043E000F504B093F6048091F7049091F804A0913D
:1043F000F904B091FA040196A11DB11D8093F70450
:104400009093F804A093F904B093FA04BF91AF918C
:104410009F918F913F912F910F900FBE0F901F9002
:1044200018951F920F920FB60F9211242F933F935E
:104430004F935F936F937F938F939F93AF93BF93AC
:10444000EF93FF938091B900887F803609F49CC078
:1044500068F5883209F45BC090F4803109F454C0E7
:1044600038F4882309F4F6C0883009F44DC0F6C04A
:10447000883109F44CC0803209F45DC0EFC080344B
:1044800009F468C048F4803309F455C0883309F052
:10449000E5C08093CB04D8C0803509F44FC088357F
:1044A00009F45DC0883409F0D9C0D6C0883909F450
:1044B000C7C0A8F4883709F467C038F4883609F40F
:1044C00063C0803709F460C0C9C0883809F4B8C037
:1044D000803909F45FC0803809F0C0C05BC0803B00
:1044E00009F486C038F4803A09F466C0883A09F4C1
:1044F0007FC0B4C0803C09F4A7C0883C09F4A4C0C4
:10450000883B09F48AC0AAC08091F10410C0909140
:10451000F0048091EF04981770F5E091F00481E0C9
:104520008E0F8093F004F0E0E153FB4F8081809385
:10453000BB0085EC86C08093CB048EC0E091F00474
:1045400081E08E0F8093F0048091BB00F0E0E15396
:10455000FB4F80839091F0048091EF046EC0E09156
:10456000F00481E08E0F8093F0048091BB00F0E0B6
:10457000E153FB4F80838091CE0481116DC081E0B7
:104580008093CD0484EA61C083E08093CC041092D0
:10459000CA04CFCF8091CA04803208F051C0E091A4
:1045A000CA0481E08E0F8093CA048091BB00F0E0C2
:1045B000E655FB4F8083BDCF85EC8093BC00109205
:1045C000CC048091CA04803230F4E091CA04F0E057
:1045D000E655FB4F10826091CA0470E0E091A80498
:1045E000F091A9048AEA94E009951092CA0436C0B1
:1045F00084E08093CC041092A7041092A604E0916A
:10460000A404F091A50409958091A604811105C028
:1046100081E08093A60410928404E091A70481E0D5
:104620008E0F8093A704F0E0EC57FB4F80818093BE
:10463000BB009091A7048091A604981708F479CF45
:1046400085E88093BC000AC085EC8093BC00109282
:10465000CC0404C01092CB040E944220FF91EF9141
:10466000BF91AF919F918F917F916F915F914F918A
:104670003F912F910F900FBE0F901F901895209192
:10468000A5013091A6012817390708F4C9019093B4
:104690008B0080938A0008952091A5013091A60196
:1046A0002817390708F4C90190938900809388007E
:1046B0000895FF920F931F93CF93DF9300D000D004
:1046C000CDB7DEB70E94411AFC0197FD11C08D32B3
:1046D000910591F0C0970A9778F0E091B203F091BC
:1046E000B3030680F781E02D82EB93E00995EACFD2
:1046F00060E070E0CB014CC020E030E0A901F12C7B
:10470000E130F105F1F0ED32F105C9F0CF01C097CC
:104710000A97B8F4AAE0B0E00E9433318F01FF0F8E
:10472000220B330BDC01CB01800F911FA21FB31FA3
:104730009C01AD01205331094109510902C0FF24F8
:10474000F394E091B203F091B3030680F781E02D7A
:1047500082EB93E029833A834B835C8309950E9423
:10476000411AFC01C09729813A814B815C810A97EB
:1047700038F2E130F10521F2FF2041F0662777277A
:10478000CB01621B730B840B950B02C0CA01B901EC
:104790000F900F900F900F90DF91CF911F910F917D
:1047A000FF900895CF93DF93CDB7DEB76D970FB627
:1047B000F894DEBF0FBECDBF789484B5826084BD0F
:1047C00084B5816084BD85B5826085BD85B5816015
:1047D00085BD80916E00816080936E001092810093
:1047E000809181008260809381008091810081604E
:1047F000809381008091800081608093800080910F
:1048000091008260809391008091910081608093FB
:104810009100809190008160809390008091C10010
:1048200084608093C1008091C10082608093C10048
:104830008091C10081608093C1008091C30081603C
:104840008093C3008091C00082608093C0008091FB
:10485000C20081608093C20080917A00846080935E
:104860007A0080917A00826080937A0080917A0049
:10487000816080937A0080917A00806880937A00CA
:104880001092A20181E08093D70080EA8093D80043
:1048900082E189BD09B400FEFDCF61E070E080E0F7
:1048A00090E00E94952180E98093D8008CE080936D
:1048B000E2001092E0000E9470216093E101709389
:1048C000E2018093E3019093E4011092B60110920B
:1048D000CC011092CB011092D5011092D60110920A
:1048E000D7011092D8011092C6011092C501109202
:1048F000DD011092DE011092DF011092E00142E032
:10490000BE01615F7F4F80E090E00E941D088F85AF
:104910009889863E910509F414C186EE90E09E8741
:104920008D8742E0BE01635F7F4F80E090E00E9490
:10493000EE0719821A821B821C8244E0BE016F5F5F
:104940007F4F82E090E00E94EE0788E394E09E872C
:104950008D8742E0BE01635F7F4F86E090E00E945A
:10496000EE0784E6898B41E0BE016F5E7F4F88E0F1
:1049700090E00E94EE0741E0BE016F5E7F4F8BE04A
:1049800090E00E94EE0741E0BE016F5E7F4F8CE039
:1049900090E00E94EE0741E0BE016F5E7F4F80E134
:1049A00090E00E94EE0741E0BE016F5E7F4F8DE018
:1049B00090E00E94EE0782E3898B41E0BE016F5ECA
:1049C0007F4F89E090E00E94EE0741E0BE016F5EFC
:1049D0007F4F8AE090E00E94EE0741E0BE016F5EEB
:1049E0007F4F8EE090E00E94EE0786E4898B41E0E5
:1049F000BE016F5E7F4F8FE090E00E94EE071E8643
:104A00001D8642E0BE01635F7F4F81E190E00E941E
:104A1000EE0784EF91E09E878D8742E0BE01635FE1
:104A20007F4F83E190E00E94EE070FEF1FE01E87AB
:104A30000D8742E0BE01635F7F4F85E190E00E94F9
:104A4000EE0780E890E09E878D8742E0BE01635FBD
:104A50007F4F87E190E00E94EE0781E0898B41E083
:104A6000BE016F5E7F4F88E190E00E94EE0780E616
:104A700099E0A0E0B0E089839A83AB83BC8344E0F3
:104A8000BE016F5F7F4F89E190E00E94EE0789E0F1
:104A9000898B41E0BE016F5E7F4F8DE190E00E9407
:104AA000EE071E861D8642E0BE01635F7F4F8AE2ED
:104AB00090E00E94EE071E870D8742E0BE01635F13
:104AC0007F4F8CE290E00E94EE071E861D8642E03A
:104AD000BE01635F7F4F8EE290E00E94EE071E876B
:104AE0000D8742E0BE01635F7F4F80E390E00E944C
:104AF000EE071E861D8642E0BE01635F7F4F82E3A4
:104B000090E00E94EE071E870D8742E0BE01635FC2
:104B10007F4F84E390E00E94EE071E861D8642E0F0
:104B2000BE01635F7F4F86E390E00E94EE071E8721
:104B30000D8742E0BE01635F7F4F88E390E00E94F3
:104B4000EE0742E061EB71E086E090E00E941D0814
:104B500044E06CEA71E089E190E00E941D0841E0C8
:104B600069E072E088E090E00E941D0841E061E1A8
:104B700072E089E090E00E941D0841E06FE072E081
:104B80008AE090E00E941D0841E068E172E08BE05D
:104B900090E00E941D0841E067E172E08CE090E047
:104BA0000E941D0841E062E172E08DE090E00E9409
:104BB0001D0841E060E172E08EE090E00E941D0877
:104BC00041E061EA73E08FE090E00E941D0841E05F
:104BD0006AE072E080E190E00E941D0841E060EB35
:104BE00071E087E190E00E941D0841E062EA73E015
:104BF00088E190E00E941D0842E067EA73E081E1ED
:104C000090E00E941D0842E069EA73E083E190E0D1
:104C10000E941D0842E067EB71E085E190E00E9490
:104C20001D0841E06BEA71E08DE190E00E941D08F3
:104C300042E06DEC71E08AE290E00E941D0842E0E3
:104C40006FEC71E08CE290E00E941D0842E069ED9B
:104C500071E08EE290E00E941D0842E06BED71E091
:104C600080E390E00E941D0842E067EC71E082E37F
:104C700090E00E941D0842E069EC71E084E390E05E
:104C80000E941D0842E061EC71E086E390E00E9422
:104C90001D0842E063EC71E088E390E00E941D088B
:104CA0006091AC017091AD018091AE019091AF0126
:104CB0000E94933220E030E044EB53E40E94E9315B
:104CC0006B017C018091B1019091B201BC01990FFF
:104CD000880B990B0E9493329B01AC01C701B6016E
:104CE0000E9448330E945B326093A3037093A40335
:104CF0008093A5039093A6036B017C01F594E79440
:104D0000D794C794C0921302D0921402E092150275
:104D1000F092160262E080E00E94092162E081E0E8
:104D20000E9409211092AC03C092AD03D092AE0351
:104D3000E092AF03F092B0031092B1034A9B05C01A
:104D40008091B10381608093B1034B9B05C080913A
:104D5000B10382608093B103809169008F7C806190
:104D600080936900EA9A809169008F7380648093D0
:104D70006900EB9A60E082E10E94092160E083E132
:104D80000E94092160E084E10E94092160E085E140
:104D90000E94092162E084E00E94092162E08EE025
:104DA0000E94092162E08FE00E94092162E082E016
:104DB0000E94092162E086E00E94092162E087E00A
:104DC0000E94092162E088E00E94092162E085E0FA
:104DD0000E94092188E191E09093A4018093A301AE
:104DE0008EEC94E090935B0480935A048AE99BE0F4
:104DF00090935D0480935C04229A509AF090AB01EA
:104E00008F2D0E9446088C019093A6018093A501E6
:104E10009093AA038093A9036091A7037091A803BC
:104E200080E090E00E9491324B015C01B80180E08B
:104E300090E00E9491329B01AC01C501B4010E9437
:104E4000E9316093A7017093A8018093A901909321
:104E5000AA011F2D1170F0FC05C020E030E04AEFE0
:104E600054E404C020E030E04AE754E460910801D3
:104E70007091090180910A0190910B010E944833C1
:104E8000609308017093090180930A0190930B01CC
:104E9000111105C020E030E04AEF54E404C020E0E6
:104EA00030E04AE754E4609104017091050180917B
:104EB0000601909107010E944833609304017093AA
:104EC00005018093060190930701111105C020E0B0
:104ED00030E04AEF54E404C020E030E04AE754E414
:104EE0006091000170910101809102019091030194
:104EF0000E94483360930001709301018093020186
:104F000090930301109280001092810010926F0024
:104F100016BA8091A5019091A60190938700809385
:104F20008600109289001092880010928B001092D7
:104F30008A008091AB018274823421F480918100D7
:104F4000826003C0809181008160809381008091A4
:104F5000AB0180FF04C080918100806108C0809116
:104F600080008260809380008091810088618093BE
:104F7000810080E090E00E944C2380918000806856
:104F800080938000259A80E090E00E943F238091EA
:104F90008000806280938000269A13E0589A64E132
:104FA00070E080E090E00E949521589864E170E004
:104FB00080E090E00E949521115081F760E070E060
:104FC000CB010E94371B8091130290911402A09193
:104FD0001502B0911602F8948093AD039093AE033E
:104FE000A093AF03B093B00378941092BE011092D7
:104FF000BD018FEF97E09093B5018093B40180914C
:10500000B0018093B3010E9470216093C403709338
:10501000C5038093C6039093C7030091E5011091E7
:10502000E6012091E7013091E8016B017C01C01A93
:10503000D10AE20AF30AC092C003D092C103E092FF
:10504000C203F092C3030091E1011091E2012091AB
:10505000E3013091E4016B017C01C01AD10AE20A3C
:10506000F30A40EDC41647E0D406E104F10410F45D
:105070000C945E306093E1017093E2018093E30150
:105080009093E401F8944091AD035091AE03609188
:10509000AF037091B0037894809113029091140241
:1050A000A0911502B09116026A017B01C81AD90AB3
:1050B000EA0AFB0AC701B601C092DD01D092DE0107
:1050C000E092DF01F092E0013091A20335FB22274C
:1050D00020F936FD226037FF02C0246025C0213050
:1050E00019F5C090D901D090DA010D2C000CEE0812
:1050F000FF088091D5019091D601A091D701B09180
:10510000D8019C01AD012C193D094E095F09AFEF93
:10511000B3E00E9433312091DB013091DC01890141
:10512000330F220B330B5FC02230E9F4C090CD0166
:10513000D090CE01E12CF12C2091CB013091CC010B
:10514000C901330FAA0BBB0B9C01AD012C193D0902
:105150004E095F09AFEFB3E00E9433312091CF01D8
:105160003091D0013DC02330E9F4C090C701D09008
:10517000C801E12CF12C2091C5013091C601C90173
:10518000330FAA0BBB0B9C01AD012C193D094E0935
:105190005F09AFEFB3E00E9433312091C901309134
:1051A000CA011EC0243061F5C090C101D090C20177
:1051B000E12CF12C2091BF013091C001C901330FC6
:1051C000AA0BBB0B9C01AD012C193D094E095F09CF
:1051D000AFEFB3E00E9433312091C3013091C4019D
:1051E000890120E030E0A90198012C193D094E0900
:1051F0005F090E941431CA01B901725081099109F5
:105200000E9479106093D1017093D2018093D301F1
:105210009093D4016091DD017091DE018091DF01F6
:105220009091E0010E9493326B017C016091A30395
:105230007091A4038091A5039091A6030E949332DC
:105240009B01AC0160E07FEF8FE797E40E94E931BA
:105250009B01AC01C701B6010E9448330E945B323A
:105260004B015C01611570488105910534F088247B
:105270008A948FE7982EA12CB12C811410E8910606
:105280001FEFA106B10634F4812C00E8902EAA2469
:10529000AA94BA2C8092DD019092DE01A092DF01E7
:1052A000B092E0016091D1017091D2018091D3015F
:1052B0009091D4010E94371B82E10E9445218C010C
:1052C00084E10E9445219C0185E12C8F3D8F0E9445
:1052D00045219B8B8A8B83E10E9445219F8B8E8B7E
:1052E0002090BD013090BE018091CD019091CE0102
:1052F000820D931D6C01E12CF12C4090C701509060
:10530000C801420C531C612C712C2C8D3D8D220F39
:10531000331F220F331FC901330FAA0BBB0B9C0194
:10532000AD012419350946095709AFEFBFE00E94C6
:1053300033312091C9013091CA012219330940E06B
:1053400050E024193509460957090E941431288F65
:10535000398F4A8F5B8F4090C1015090C201420C3F
:10536000531C612C712C2A893B89220F331F220F79
:10537000331FC901330FAA0BBB0B9C01AD012419CC
:10538000350946095709AFEFBFE00E94333120913C
:10539000C3013091C4012219330940E050E02419BF
:1053A0003509460957090E94143129013A0198012B
:1053B000220F331F220F331FC901330FAA0BBB0B60
:1053C0009C01AD012C193D094E095F09AFEFBFE00B
:1053D0000E9433312091CF013091D001221933093D
:1053E000890120E030E0A90198012C193D094E09FE
:1053F0005F090E9414316901C11420E1D20624F032
:10540000CC24CA94FFE0DF2ED7FE02C0C12CD12CE1
:10541000D092CC01C092CB01088D198D011530E1DD
:10542000130714F00FEF1FE017FF02C000E010E0B9
:105430001093C6010093C5017201411440E1540666
:1054400024F0EE24EA94EFE0FE2EF7FE02C0E12CF9
:10545000F12CF092C001E092BF014090D901509030
:10546000DA01420C531C612C712C2E893F89220FCA
:10547000331F220F331FC901330FAA0BBB0B9C0133
:10548000AD012419350946095709AFEFBFEF0E9456
:1054900033312091DB013091DC012219330940E0E6
:1054A00050E024193509460957090E941431211585
:1054B000310561E04607510524F02FEF3FEF40E052
:1054C00050E057FF03C020E030E0A9012093D50150
:1054D0003093D6014093D7015093D80189B182957A
:1054E0008F7091E0892790E0A0E0B0E0817099276B
:1054F000AA27BB271B9B8260199B8460369B806810
:10550000499902C0886001C0877F4F9902C08061BD
:1055100001C08F7E669902C0806201C08F7D1C9998
:1055200002C0806401C08F7B44E0880F991FAA1FCE
:10553000BB1F4A95D1F78093B9019093BA01A0930C
:10554000BB01B093BC0160E8961A89829A822B83D2
:105550003C83CD82202F2295207F2D292E8354E05D
:10556000169507955A95E1F70F83E886F98664E06A
:10557000B695A795979587956A95D1F78A871B86E3
:105580001C864CE050E0BE016F5F7F4F84E00E94BC
:10559000790B8091C0039091C103A091C203B09197
:1055A000C30380319742A105B10508F487C582EB9A
:1055B00093E00E943520181619060CF06FC582EB97
:1055C00093E00E94FB1FE82F8FE98E0F8A3108F4C9
:1055D000E0528E2F90E0FC01E154F109EA31F1052F
:1055E00008F05CC5EA5AFF4F0C9469346091B10130
:1055F0007091B201072E000C880B990B0E94AD0F21
:1056000080E20E94470F809109020E94381A80E2CE
:105610000E94470F809111020E94381A80E20E9476
:10562000470F80910F020E94381A80E20E94470FB4
:10563000809118020E94381A80E20E94470F8091E0
:1056400017020E94381A80E20E94470F80911202CE
:105650000E94381A80E20E94470F809110020E9437
:10566000381A80E20E94470F8091A1030E94381AE5
:1056700080E20E94470F80910A020E94381A80E25D
:105680000E94470F6091A7037091A80380E090E00B
:105690004AE00E94600F80E20E94470F8091B001B3
:1056A0000E94381A80E20E94470F8091A2030E9454
:1056B000381A80E20E94470F6091A9037091AA03F3
:1056C00080E090E04AE00E94600F80E20E94470F75
:1056D0006091AC017091AD018091AE019091AF01EC
:1056E0000E94AD0F80E20E94470F6091AB0170E015
:1056F00096C383E991E00E943F1A66EE70E080E075
:1057000090E00E94AD0F88E991E00E943F1A8AE97B
:1057100091E00E943F1A8CE991E00E943F1ABEC4BA
:105720008091CC03082E000C990BB6C40E94E70FA1
:10573000B5C40E945923611101C061E06093B001BA
:10574000A9C40E945923643071058105910574F044
:10575000DC01CB01813C17E2910719E0A107B105FB
:105760004CF080EC97E2A9E0B0E004C084E090E067
:10577000A0E0B0E089839A83AB83BC83F8948090E7
:10578000AD039090AE03A090AF03B090B0037894B7
:105790004090C8035090C9036090CA037090CB0337
:1057A0006091B1017091B201072E000C880B990B2A
:1057B0000E9493326B017C0180911302909114023C
:1057C000A0911502B0911602A5019401281B390B76
:1057D0004A0B5B0BCA01B901640D751D861D971D2F
:1057E0000E949332A70196010E9448334B015C014D
:1057F0006091A3037091A4038091A5039091A603E7
:105800000E9493329B01AC01C501B4010E94E931B1
:105810006A8B7B8B8C8B9D8B69817A818B819C8140
:105820006093AC017093AD018093AE019093AF0192
:105830000E94933220E030E044EB53E40E94E931CF
:10584000A70196010E9448330E945B326093A30334
:105850007093A4038093A5039093A6034B015C016E
:10586000B594A7949794879480921302909214020F
:10587000A0921502B09216020E9493329B01AC01D5
:105880006A897B898C899D890E944833A70196018A
:105890000E94E9310E945B32860E971EA81EB91E37
:1058A00084189508A608B708DFC08091130290916C
:1058B0001402A0911502B0911602F8948093AD03E2
:1058C0009093AE03A093AF03B093B00378945CC100
:1058D0000E9459236E317105810591056CF0DC0140
:1058E000CB01893037E09307A105B1054CF088E082
:1058F00097E0A0E0B0E004C08EE190E0A0E0B0E06E
:1059000089839A83AB83BC83F8948091AD03909193
:10591000AE03A091AF03B091B0037894C090C803D8
:10592000D090C903E090CA03F090CB03CA8ADB8A07
:10593000EC8AFD8A00911302109114022091150245
:1059400030911602801B910BA20BB30BC80ED91E0F
:10595000EA1EFB1EC701B6010E9493326B017C0157
:105960006091B1017091B201072E000C880B990B68
:105970000E9493329B01AC01C701B6010E944833DB
:105980006B017C016091A3037091A4038091A50336
:105990009091A6030E9493329B01AC01C701B6010E
:1059A0000E94E9312B013C01C980DA80EB80FC8048
:1059B000D092B201C092B1016091AC017091AD0181
:1059C0008091AE019091AF010E94933220E030E0CF
:1059D00044EB53E40E94E9314B015C01C701B6017D
:1059E0000E9493329B01AC01C501B4010E9448336F
:1059F0000E945B326093A3037093A4038093A5037A
:105A00009093A6034B015C01B594A7949794879457
:105A10008092130290921402A0921502B092160284
:105A20000E9493329B01AC01C301B2010E94483332
:105A30002B013C01B601DD0C880B990B0E949332BF
:105A40009B01AC01C301B2010E94E9310E945B32AB
:105A5000860E971EA81EB91EEA88FB880C891D8930
:105A60008E189F08A00AB10AF8948092AD03909214
:105A7000AE03A092AF03B092B00378940BC30E9420
:105A80005923262F6091A20380E090E030E0F901D5
:105A9000082E02C0F595E7950A94E2F7C12CD12CA7
:105AA0007601C394082E04C0CC0CDD1CEE1CFF1C38
:105AB0000A94D2F7E0FF02C06C2902C0C0946C21A6
:105AC00001968830910519F76093A20370E080E099
:105AD00090E042E00E94600F0E94520FDFC20E94DD
