:100000000C940D040C9435040C9435040C94F507F1
:100010000C94D1070C9435040C9435040C943504DD
:100020000C9435040C9435040C94CE0A0C9471088D
:100030000C9435040C9435040C9435040C9435045C
:100040000C9435040C9435040C9435040C9435044C
:100050000C9435040C9435040C9435040C94321231
:100060000C9435040C9435040C9435040C9435042C
:100070000C9435040C9435040C9435040C9435041C
:100080000C9435040C9435040C9435040C9435040C
:100090000C947C120C9435040C9435040C943504A7
:1000A0000C9435040C9435040C943504AE2E5E2C5F
:1000B0003B2DB02F252E1F2F4E2DAB2EB02FB02F46
:1000C000B02FB02FB02FB02F872C662CB02F5B2C09
:1000D000552CB02FB32B362C552EB02FAB2EAB2E6C
:1000E0006E2F762F3E2F462FB02F4E2F362FB02F4C
:1000F000662F7E2FB02FB02F5E2FB02FB02FB02FD6
:10010000B02FB02F562F210F240F170F1B0F450FA5
:10011000450F450F280F2C0F300F360F3A0F450FA4
:10012000400FC81758189519F518781A301C971BE6
:10013000CD1CC81DFB1D2E1E9E1E691E05A84CCD84
:10014000B2D44EB93836A9020C50B9918688083C11
:10015000A6AAAA2ABE000000803F000000000000FE
:1001600000002A2B28000000000000000000000012
:10017000000000000000000000002C9EB4A0A1A21E
:10018000A434A6A7A5AE362D3738271E1F2021225E
:1001900023242526B333B62EB7B89F848586878857
:1001A000898A8B8C8D8E8F90919293949596979847
:1001B000999A9B9C9D2F3130A3AD35040506070805
:1001C000090A0B0C0D0E0F10111213141516171827
:1001D000191A1B1C1DAFB1B0B500080B00020202BA
:1001E00001000904000001020200000524001001C2
:1001F0000524010101042402060524060001070567
:10020000810310004009040100020A0000000705F4
:1002100002024000000705830240000009040200BA
:10022000020300000009210101000122E104070589
:10023000840340000107050503400001050109048E
:10024000A10185040901A100093017000000002761
:10025000FFFF0000350047FFFF000075109501818A
:1002600002093116000027FFFF0000350047FFFF9D
:100270000000751095018102093216000027FF0F5A
:100280000000350047FF0F0000750C950181020941
:100290003316000027FF0F0000350047FF0F000056
:1002A000750C95018102093416000027FF0F00002C
:1002B000350047FF0F0000750C95018102093915C3
:1002C0000125083500463B0165145500750495016C
:1002D000810205091500250155006500190129183D
:1002E00075019518810285F10901150026FF009519
:1002F0003F7508918285F20901953F75088182C09A
:10030000050F0992A1028502099F09A009A409A568
:1003100009A61500250135004501750195058102E5
:1003200095038103099415002501350045017501E8
:1003300095018102092215012528350145287507F7
:1003400095018102C00921A102850109221501251B
:1003500028350145287508950191020925A1020952
:1003600026092709300931093209330934094009BE
:100370004109420943250B15013501450B750895C7
:10038000019100C009500954150027FFFF000035F6
:100390000047FFFF000066011055FD7510950291A2
:1003A0000255006600000952150026FF7F35004601
:1003B000FF7F75109501910209531501250835013C
:1003C00045087508950191020955A10205010930FA
:1003D000093115002501750195029102C0050F092B
:1003E0005695019102950591030957A1020B010051
:1003F0000A000B02000A0066140055FE150026FFD5
:100400007F3500479F8C00007510950191025500C3
:10041000660000C0050F09A766011055FD150027ED
:10042000FFFF0000350047FFFF00007510950191A8
:10043000026600005500C0050F095AA10285020995
:1004400022150125283501452875089501910209D5
:100450005B095D150026FF00350046FF7F75089596
:10046000029102095C095E66011055FD26FF7F4678
:10047000FF7F7510950291026600005500C0095F6C
:10048000A102850309221501252835014528750893
:1004900095019102092315002501350045017504D8
:1004A000950191020958A1020B01000A000B0200FC
:1004B0000A00750295029102C0096016008026FFAD
:1004C0007F36008046FF7F751095019102096136E5
:1004D000008046FF7F95019102150026FF7F3500C1
:1004E00046FF7F0963751095019102096515002685
:1004F000FF0046FF7F750895019102C0096EA102B9
:10050000850409221501252835014528750895011E
:1005100091020970150026FF7F350046FF7F751098
:1005200095019102096F16008026FF7F36008046F4
:10053000FF7F950191020971150026FF00350046E5
:10054000670166140055007508950191020972272C
:10055000FFFF000047FFFF000066011055FD75100A
:10056000950191026600005500C00973A10285053E
:1005700009221501252835014528750895019102A4
:10058000097016018026FF7F36018046FF7F7510B7
:1005900095019102C00974A1028506092215012561
:1005A00028350145287508950191020975097615C8
:1005B00081257F36018046FF7F750895029102C034
:1005C000050F0977A102850A0922150125283501A1
:1005D00045287508950191020978A1020979097ADF
:1005E000097B15012503750895019100C0097C154B
:1005F0000026FF00350046FF009102C00990A102CD
:10060000850B092215012528350145287508950116
:100610009102C00996A102850C09970998099909C8
:100620009A099B099C15012506750895019100C042
:10063000097DA102850D097E150026FF00350046C3
:100640001027750895019102C009ABA10285050923
:1006500025A1020926092709300931093209330980
:100660003409400941094209431501250B3501456B
:100670000B75089501B100C00501093B150026FF67
:1006800001350046FF01750A9501B1027506B101F9
:10069000C0050F0989A10285060922252815013503
:1006A00001452875089501B102098BA102098C0941
:1006B0008D098E250315013501450375089501B196
:1006C00000C009AC150027FFFF0000350047FFFF01
:1006D000000075109501B100C0097FA102850709CE
:1006E0008075109501150027FFFF0000350047FFBA
:1006F000FF0000B102098326FF0046FF0075089540
:1007000001B10209A909AA75019502150025013553
:10071000004501B10275069501B103C0C01803413F
:100720000072006400750069006E006F0020004CCC
:10073000004C0043000403090422034100720064DA
:1007400000750069006E006F0020004D00690063B5
:100750000072006F00200020002000120100020043
:100760000000404123378000010102000112010016
:100770000202000040412337800001010200010015
:10078000C18081C1C0070605040100080A0B0C0DD9
:100790000900000000240027002A002D003000007E
:1007A000000000250028002B002E00310000000072
:1007B000002300260029002C002F00040404040458
:1007C00003040502020202040302020202060606F4
:1007D0000606060404020202040404080201104092
:1007E000804010204080408008020401804020109A
:1007F0000201108010204040200000000200080E7E
:100800000000030401000B000000000000000000D5
:100810000000000000000000CA2F11241FBECFEF0F
:10082000DAE0DEBFCDBF11E0A0E0B1E0E8E4FAE637
:1008300002C005900D92A039B107D9F725E0A0E9D3
:10084000B1E001C01D92A238B207E1F714E0CDE09B
:10085000D4E004C02197FE010E94E333CC30D107DD
:10086000C9F70E94FF230C9422350C940000CF920C
:10087000DF92EF92FF9260919E0170919F01072E8F
:10088000000C880B990B0E940D326B017C0160916A
:10089000790470917A0480917B0490917C040E9489
:1008A0000D329B01AC01C701B6010E946331FF907C
:1008B000EF90DF90CF9008958C30F8F4282F30E03F
:1008C0009DE1899FF0011124E55EFC4F9081992301
:1008D000A1F090819D7F9083F901E551FE4F9581B4
:1008E00091110BC0E0919101F09192010084F1858A
:1008F000E02D09951092FB0108950895FC01CB01AC
:100900002091E80022FFFCCF282F215028F03091C1
:10091000F10030833196F9CF24E62093DF012BEFED
:100920002093E80008950F931F93CF93DF93DB018B
:10093000A40FB51FFB016EEFEA17FB0791F187FFCC
:1009400002C0249101C020810091E3011091E401D3
:10095000C091E101D091E2010C171D07B4F4909110
:10096000E8009570E1F39091E80092FD1CC020939F
:10097000F1002091E3013091E4012F5F3F4F2F738D
:100980003327232B11F46093E8002091E301309189
:10099000E4012F5F3F4F3093E4012093E301319650
:1009A000CBCFCA0102C08FEF9FEFDF91CF911F9194
:1009B0000F910895CF93DF9300D000D01F92CDB751
:1009C000DEB7FC0181819081913A29F5813009F0EF
:1009D000BCC08281863051F445E050E066EE71E0A3
:1009E00080E40E9493041092E601AFC0873009F0C2
:1009F000ACC089838FEF9FEF9B838A838BE08C83CE
:100A000083E08D8345E050E0BE016F5F7F4F80E45F
:100A10000E9493049AC0913209F097C0893009F07E
:100A200094C08281853009F090C064E070E0CE010E
:100A300001960E947E0486E08093E60180910F017A
:100A40008B3021F1A0910F0181E08A0F80930F017B
:100A50009DE1E0910F019E9FF0011124E55EFC4FA6
:100A60008081882351F080910F018B3030F4809188
:100A70000F018F5F80930F01ECCF8DE1A89FF001F4
:100A80001124E55EFC4F81E0808301C0A0E0A093CB
:100A9000E701A11104C082E08093E80150C01092E8
:100AA000630581E08093E8018A819DE1A99FD001DF
:100AB0001124A55EBC4F11968C9311978FEF9FEF79
:100AC0001F969C938E931E9753961C921E9252973C
:100AD00051961C921E92509712968C9312971396D1
:100AE0008C93139755961C921E9254971D961C92A8
:100AF0001E921C9715961C9215978FEF9FE71996DB
:100B00009C938E93189757961C921E9256975B96BD
:100B10001C921E925A975C961C925C9788EE93E00A
:100B20001B969C938E931A97E0919101F0919201FC
:100B30000684F785E02DBD01CE01019609958FEF62
:100B40009FEF9093EA018093E90181E00F900F906D
:100B50000F900F900F90DF91CF91089542E450E0F5
:100B60006AED71E080E80E94930440E250E06CE19D
:100B700072E080E80E94930483E090E00895EF9291
:100B8000FF921F93CF93DF93EC01162FE881F98139
:100B90000480F581E02D09957C01E881F9810680CA
:100BA000F781E02D612FCE010995C7019927DF91CB
:100BB000CF911F91FF90EF900895FC01918180816A
:100BC000813A29F49D7F81E0913091F414C0813203
:100BD00079F49A3049F09B3019F0993049F40AC001
:100BE000828180930E0106C0828180930D0102C034
:100BF00080E0089581E008958C30F0F49DE1899FB4
:100C0000F0011124E55EFC4F80818823A9F08081EA
:100C1000826080838091FB0181110EC00E942612A8
:100C20006093E1027093E2028093E3029093E40206
:100C300081E08093FB0108950895CF92DF92EF92B7
:100C4000FF920F931F938B019C0140917F04509161
:100C500080046A01E12CF12C66277727CB016C19FF
:100C60007D098E099F0906171707280739074CF0D9
:100C7000C901B801C016D106E206F30614F4C70193
:100C8000B6011F910F91FF90EF90DF90CF900895E4
:100C90008F929F92AF92BF92CF92DF92EF92FF928C
:100CA000CF93DF934B015C01EA010E9437046B0193
:100CB0007C01DE01A50194010E94B8300E940D3232
:100CC000A70196010E94C23220E030E040E051E4EA
:100CD0000E94C23220E030E040E251E40E94C23281
:100CE00020E030E040E85BE30E94C2320E94D53150
:100CF0000E941D0690958095709561957F4F8F4F4E
:100D00009F4FDF91CF91FF90EF90DF90CF90BF90FA
:100D1000AF909F908F9008954F925F926F927F92C5
:100D20008F929F92AF92BF92CF92DF92EF92FF92FB
:100D3000CF93DF9300D000D0CDB7DEB74B015C017D
:100D400057FF02C04D5F5F4F6A01D594C794D59499
:100D5000C7940E94370469837A838B839C839B01A9
:100D6000AC01C501B4010E94C23220E030E040E293
:100D700051E40E94C2322B013C0120E030E040E807
:100D80005FE30E94BD320D2C000CEE08FF08181620
:100D90001CF4C701B60128C020E030E040E85FEB5A
:100DA000C301B2010E945E3187FF06C0C701B601D0
:100DB0000E941D06CB011EC0C701B6010E940D3264
:100DC0009B01AC01C501B4010E94C23229813A8164
:100DD0004B815C810E94C23220E030E040E251E46D
:100DE0000E94C2320E94D5310E941D068827992791
:100DF000861B970B0F900F900F900F90DF91CF9164
:100E0000FF90EF90DF90CF90BF90AF909F908F902A
:100E10007F906F905F904F9008958F929F92AF92C6
:100E2000BF92CF92DF92EF92FF924B015C01BA0129
:100E3000550F880B990B0E940D326B017C0120E04D
:100E400030E0A901C501B4010E94BD32A5019401A1
:100E500018160CF05058C701B6010E94C2326B013F
:100E60007C010E9437049B01AC01C701B6010E94BE
:100E7000C23220E030E040E851E40E94C23220E07B
:100E800030E040E251E40E94C23220E030E040E035
:100E90005DE30E94C2320E94D5310E941D066B01A3
:100EA0007C0120E030E0A901C501B4010E94BD32FF
:100EB00018162CF4882799278C199D090DC020E05D
:100EC00030E0A901C501B4010E945E3187FF02C074
:100ED000C60102C080E090E0FF90EF90DF90CF90DD
:100EE000BF90AF909F908F900895CF92DF92EF9236
:100EF000FF92CF93DF936B017C01EA0120E030E0A9
:100F0000A9010E94BD32181694F020E030E0A9013A
:100F1000C701B6010E945E3187FF3AC020E030E091
:100F2000A901C701B6010E94F2306B017C01BE012C
:100F3000DD0F880B990B0E940D329B01AC01C7019C
:100F4000B6010E94C2326B017C010E9437049B01F2
:100F5000AC01C701B6010E94C23220E030E040E897
:100F600051E40E94C23220E030E040E251E40E94AD
:100F7000C23220E030E040E05BE30E94C2320E94D7
:100F8000D5310E941D0688279927861B970B02C022
:100F900080E090E0DF91CF91FF90EF90DF90CF90D5
:100FA00008951F920F920FB60F9211242F933F9323
:100FB0004F935F936F937F938F939F93AF93BF9361
:100FC000EF93FF930E949220FF91EF91BF91AF9119
:100FD0009F918F917F916F915F914F913F912F9151
:100FE0000F900FBE0F901F9018951F920F920FB683
:100FF0000F9211242F933F934F935F936F937F939F
:101000008F939F93AF93BF93EF93FF930E94922090
:10101000FF91EF91BF91AF919F918F917F916F91D0
:101020005F914F913F912F910F900FBE0F901F90A6
:101030001895CF92DF92EF92FF920F931F93CF9369
:10104000DF931F92CDB7DEB7F82EE42E8B01C82EAA
:10105000D92E8C2D8F198E1588F4F80161918F018E
:10106000C60169830E9478306981681719F0C6014A
:101070000E948030FFEFCF1ADF0AEBCF0F90DF9195
:10108000CF911F910F91FF90EF90DF90CF90089537
:10109000CF92DF92EF92FF920F931F93CF93DF9344
:1010A0001F92CDB7DEB78B016B017C01E61AF70A00
:1010B0009C2D901B941758F4C7018C0D9D1D4983DE
:1010C0000E947830F60181936F014981F1CF0F9032
:1010D000DF91CF911F910F91FF90EF90DF90CF9014
:1010E00008951F920F920FB60F921124EF92FF9264
:1010F0001F932F933F934F935F936F937F938F93A0
:101100009F93AF93BF93EF93FF93CF93DF93CDB7AD
:10111000DEB76197DEBFCDBF1092E9008091E80095
:1011200083FF59C1FE013A96CF0128E02E0F2E17FA
:1011300029F03091F10030833196F9CF24E62093E5
:10114000DF0122EF2093E8002A8527FF05C03091B8
:10115000E80030FFFCCF03C03EEF3093E800322FB1
:10116000307609F0C5C08B85811105C01092F10061
:101170001092F10029C1982F9D7F913009F424C16C
:10118000853049F48091E80080FFFCCF8C85806831
:101190008093E30019C1863009F07CC01D85E88882
:1011A000F9881092E9001092E4011092E3011230E4
:1011B00091F51092E2011092E1010E94AE0599E0D2
:1011C000BE016F5F7F4FFB01292F11922A95E9F72E
:1011D00099831A8391E09E8390E898879AEF998784
:1011E0002091E3013091E401275F3F4F3C832B8343
:1011F0008D831092E9001092E4011092E301F092C5
:10120000E201E092E10149E050E080E00E949304B5
:101210000E94AE05D9C0F092E201E092E1011232E3
:1012200059F441EE54E06CE372E080E80E949304CC
:10123000892B09F0C9C0CCC0113069F4888999891B
:10124000089711F41093E0018091E001811111C021
:101250006BE577E016C0133009F0BAC08C8588239F
:1012600059F0823061F0813009F0B2C06DE177E071
:1012700008C06DE677E005C065E377E002C069E38A
:1012800077E06115710509F4A3C0FB01449150E0BA
:1012900080E849C0873009F49BC0883021F481E0A0
:1012A0008093F10091C0893009F08EC0237009F05D
:1012B0008FC080E090E031E026E341E0480F4093AA
:1012C000E9003093EB000196FC01E158F84FE491FE
:1012D000E093EC002093ED008530910571F78EE7E7
:1012E0008093EA001092EA008C85809390016CC094
:1012F000288939891092E9001092E4011092E301E3
:101300003093E2012093E1012E85211154C08B8599
:101310009A85913A59F4813209F05AC047E050E079
:1013200060E171E080E00E9493044EC0913209F0C8
:101330004FC0803239F467E070E080E191E00E94B4
:101340007E0442C0823209F043C08C85809317012D
:101350008091100190911101A0911201B09113019F
:10136000803B9440A105B10579F58091170180FD7E
:1013700011C087E797E790930108809300089BE0EE
:1013800088E10FB6F894A895809360000FBE909303
:1013900060001AC00FB6F894A8958091600088612B
:1013A00080936000109260000FBEA8951092010813
:1013B0001092000809C0223059F4E0916805F091BC
:1013C00069050995882321F08EEF8093E80003C01A
:1013D00081E28093EB0061960FB6F894DEBF0FBEFA
:1013E000CDBFDF91CF91FF91EF91BF91AF919F91D1
:1013F0008F917F916F915F914F913F912F911F91AD
:10140000FF90EF900F900FBE0F901F9018958F9246
:101410009F92AF92BF92CF92DF92EF92FF920F9383
:101420001F93CF93DF9300D01F92CDB7DEB7382F35
:101430008B0180919001882389F04A018AEFF82E70
:10144000832F8770E82E90E4C92E832F8072B82EE8
:101450002AE3D22E832F8074A82E21C08FEF9FEF16
:101460005FC08FB7F894E092E9009091E80095FF93
:101470001AC09091F2002C2D291B8FBF211115C08D
:10148000FA94FF2059F361E070E080E090E0398346
:101490004A835B830E94001239814A815B818114F7
:1014A0009104F9F634C020E0E8CF822F90E088164E
:1014B00099060CF4282D822F90E0881A990A6FB7AC
:1014C000F894E092E900BB2029F02150A8F0109296
:1014D000F100FBCFF80137FF07C0215058F074919D
:1014E0007093F1003196F9CF215020F071917093F3
:1014F000F100FACF080F191F8091E80085FF0DC099
:101500008114910411F4A11008C06FBFC8CF5D9A77
:1015100084E68093E501CA0103C0D092E800F5CFCC
:101520000F900F900F90DF91CF911F910F91FF902F
:10153000EF90DF90CF90BF90AF909F908F900895E5
:1015400090919001992311F057FF03C08FEF9FEF07
:1015500008952FB7F89487708093E9008091F20086
:1015600090E0841795070CF4AC01842FFB0194E6FE
:10157000815030F09093DF013091F1003193F8CF3A
:101580004115510521F08091F200882319F02FBFF9
:10159000CA0108958BE68093E800F9CF1F920F925D
:1015A0000FB60F9211242F933F934F935F936F9336
:1015B0007F938F939F93AF93BF93EF93FF93CF93BB
:1015C000DF93CDB7DEB7C054D109DEBFCDBF809168
:1015D000E1001092E10083FF0FC01092E90091E05A
:1015E0009093EB001092EC0092E39093ED00109238
:1015F000900198E09093F00082FF46C083E08093D2
:10160000E9008091F200882319F08AE38093E800D2
:101610009FB7F89482E08093E9008091F2009FBF29
:10162000882321F08CE894E00E94E0109FB7F894A2
:1016300085E08093E9008091F2009FBF8823C1F08C
:1016400080916A0590916B05892B91F040E450E000
:10165000BE016F5F7F4F85E00E94A00A97FD08C022
:10166000E0916A05F0916B05BC01CE0101960995E8
:101670008091E501882341F08091E50181508093BC
:10168000E501811101C05D98C05CDF4F0FB6F89491
:10169000DEBF0FBECDBFDF91CF91FF91EF91BF9124
:1016A000AF919F918F917F916F915F914F913F91FA
:1016B0002F910F900FBE0F901F901895EF92FF92F1
:1016C0000F931F93CF93DF931F92CDB7DEB789831C
:1016D0008B017A0141E050E0BE016F5F7F4F84E0F3
:1016E0000E94070AA701B80184E40E94070A0F902C
:1016F000DF91CF911F910F91FF90EF9008951F936D
:10170000CF93DF93EC0119819881953009F45DC086
:1017100058F59230D1F1A8F4913009F03FC2E09130
:101720009101F09192012DE1129FB0011124655EAB
:101730007C4F028CF38DE02DCE01DF91CF911F9174
:101740000994933081F1943009F028C2E09191011D
:10175000F0919201ADE11A9FB0011124655E7C4FBA
:101760000488F589E02D2CC09B3009F493C030F437
:101770009630C9F19A3009F444C010C29C3009F483
:10178000C2C0913F09F411C109C2E0919101F091E9
:1017900092013DE1139FB0011124655E7C4F0088EA
:1017A000F189E02D0DC0E0919101F09192018DE160
:1017B000189FB0011124655E7C4F0288F389E02DEB
:1017C000CE01DF91CF911F910994E0919101F091A9
:1017D0009201BDE11B9FB0011124655E7C4F06881C
:1017E000F789E02DEDCFE0919101F09192012DE18B
:1017F000129FB0011124655E7C4F008CF18DE02DAD
:10180000DFCF1F3F09F41FE79A81913099F4812FB0
:101810000E94FC05E12FF0E0E551FE4F858181112A
:10182000BDC1E0919101F09192010680F781E02D18
:10183000812F47C0923029F5C1E08C2F0E945C04B3
:10184000CF5FCC30D1F7C12FD0E0C551DE4F8D81B5
:10185000811109C0E0919101F09192010084F1851C
:10186000E02D8FE70995812F0E94FC058D81811164
:1018700095C1E0919101F09192010680F781E02DF0
:101880001FC0933009F08AC1812FDF91CF911F9142
:101890000C945C0481E01F3FC1F480930F018CE540
:1018A00091E0EBE1F3E0DF019C011D92215030401B
:1018B000E1F7E0919101F09192010284F385E02D2E
:1018C0008FE7DF91CF911F910994809363051C30BE
:1018D00008F064C13DE1139FF0011124E55EFC4F67
:1018E000108280910F01181710F410930F01E091EE
:1018F0009101F09192010284F385E02D812F0995E9
:101900001092FB014BC182E08093FC019091FD019C
:1019100094609093FD019091FD0190619093FD0181
:101920001092FE011330C1F048F4113089F01230EA
:1019300009F034C18091FD01826034C0153079F125
:10194000B8F0163009F02AC18091FD018E7F2AC0BF
:101950008091FD018D7F26C0E0919101F09192016F
:101960000480F581E02D80E009951092FE0116C1FA
:10197000E0919101F09192010480F581E02D81E0E8
:10198000099581E080930F018CE591E0EBE1F3E0B4
:10199000DF019C011D9221503040E1F7FFC0809192
:1019A000FD0181608093FD01F9C08E89813009F0CD
:1019B000ADC0A981BA81AE31B1053CF0A93037E0A4
:1019C000B3072CF0A8E0B7E002C0AEE1B0E0209190
:1019D0009A0130919B0140919C0150919D010E9480
:1019E000B83028E631E040E050E00E948E3020938D
:1019F000790430937A0440937B0450937C04CA01A9
:101A0000B90122E030E040E050E00E948E302093A7
:101A1000E9023093EA024093EB025093EC028D8985
:101A2000813011F40E944F228F81893C08F088ECAC
:101A30008093DF028885893C08F088EC8093EE0271
:101A40008985893C08F088EC8093E7028A85893C87
:101A500008F088EC8093E5028B85893C08F088ECDF
:101A60008093ED028C85893C08F088EC8093E80235
:101A70008D85893C08F088EC8093E6028E85893C50
:101A800008F088EC809377048F85893C08F088EC17
:101A90008093E0022A893B8980917F0490918004A1
:101AA00028173907A0F437FD0AC08091930190915F
:101AB000940101972817390720F4C90102C080E07A
:101AC00090E090937E0480937D0483E68E8B28893A
:101AD000398980917D0490917E048217930708F0E4
:101AE00050C083E68E8B121613064CF4809193013E
:101AF000909194012817390720F4C90102C081E0B0
:101B000090E09093800480937F043BC08F3FC9F5A1
:101B100080919E0190919F019A8389838091D20444
:101B20009091D304A091D404B091D5048B839C836D
:101B3000AD83BE838091DF028F838091EE02888720
:101B40008091E70289878091E5028A878091ED0282
:101B50008B878091E8028C878091E6028D87809147
:101B600077048E878091E0028F8780917F04909127
:101B70008004998B888B80917D0490917E049B8B4F
:101B80008A8B83EF90E0988F8F8B40E450E0BE010A
:101B900082EFDF91CF911F910C945E0BDF91CF917B
:101BA0001F910895DC01683810F0685825C0E62FB1
:101BB000F0E067FF12C0E058F10981E090E001C059
:101BC000880FEA95EAF7809514969C9114978923DB
:101BD00014968C93149760E00FC0E65AFE4F649100
:101BE000662311F167FF08C014968C9114978D7FBE
:101BF00014968C9314976F77FD01369686E06623D2
:101C000021F09081961301C010828150319681118C
:101C1000F6CFBD016C5F7F4F48E050E082E00E944C
:101C20005E0B81E090E0089580E090E00895FC0173
:101C30001682178210861186128613861482BC01C2
:101C40006C5F7F4F48E050E082E00C945E0BDC015B
:101C5000683810F068582DC0E62FF0E067FF11C01B
:101C6000E058F10981E090E001C0880FEA95EAF7B9
:101C700014969C911497892B14968C93149760E07A
:101C800018C0E65AFE4F6491611109C081E090E0EE
:101C900013969C938E93129780E090E0089567FFCF
:101CA00008C014968C911497826014968C931497A4
:101CB0006F7716968C911697861751F117968C911F
:101CC0001797861729F118968C911897861701F1A6
:101CD00019968C9119978617D9F01A968C911A97A4
:101CE0008617B1F01B968C911B97861789F0FD0122
:101CF000369680E090E02191211105C0FD01E80FAA
:101D0000F91F668305C0019686309105A1F7BECF05
:101D1000BD016C5F7F4F48E050E082E00E945E0BA7
:101D200081E090E00895CF92DF92EF92FF920F93BF
:101D30001F93CF93DF936C01EB017B01E40EF51E43
:101D400000E010E0CE15DF0561F06991D601ED915C
:101D5000FC910190F081E02DC6010995080F191F33
:101D6000F1CFC801DF91CF911F910F91FF90EF90BC
:101D7000DF90CF90089583E08093E9008091F20096
:101D8000882319F08AE38093E80008952091DB020C
:101D90003091DC028091DD029091DE022817390734
:101DA000A9F0E091DD02F091DE02E556FD4F808161
:101DB0002091DD023091DE022F5F3F4F2F733327DA
:101DC0003093DE022093DD0290E008958FEF9FEFC5
:101DD00008952091DB023091DC028091DD02909128
:101DE000DE022817390749F0E091DD02F091DE02AA
:101DF000E556FD4F808190E008958FEF9FEF0895A5
:101E00008091DB029091DC022091DD023091DE02B4
:101E1000821B930B8F739927089590E0FC013197F3
:101E2000EE30F10590F5ED57FF4F0C94E3338091C0
:101E300080008F7703C0809180008F7D8093800029
:101E4000089584B58F7702C084B58F7D84BD0895D1
:101E5000809190008F7707C0809190008F7D03C0A4
:101E600080919000877F8093900008958091C000BA
:101E70008F7703C08091C0008F7D8093C00008954C
:101E80008091C200877F8093C200089585ED809382
:101E9000BC008091BC0084FDFCCF10927B050895AE
:101EA00040914902262F30E0240F311D21323105A7
:101EB000DCF420917B052430C9F4FC0180E090E043
:101EC000861758F4309149022191DC01A95DBD4F7C
:101ED000A30FB11D2C930196F3CF80914902680F97
:101EE0006093490280E0089581E0089582E00895BA
:101EF000089581E090E030917D0520917C053217B6
:101F000010F480E090E09195819591090895809179
:101F10007D0590917C05891730F48F5F80937D0556
:101F200080E090E008958FEF9FEF089580917C0509
:101F300090E020917D05821B91090895CF92DF9258
:101F4000EF92FF920F931F93CF93DF937C01262F85
:101F5000972F8A0180918404882391F0C62FD72F70
:101F60006E01C40ED51ECC15DD0571F06991D70147
:101F7000ED91FC910190F081E02DC7010995F3CF1F
:101F8000642F822F0E94500FC801DF91CF911F91C3
:101F90000F91FF90EF90DF90CF900895CF93DF9354
:101FA0001F92CDB7DEB76983209184042223D1F03C
:101FB00020918104203240F021E030E0FC013383A5
:101FC000228380E090E015C080918204E82FF0E049
:101FD000E95FFD4F998190838F5F809382048093A6
:101FE000810405C061E0CE0101960E94500F81E09E
:101FF00090E00F90DF91CF9108950895CF93DF93F4
:10200000FC01EB01718182818983878190859987A9
:10201000888725853685438154816DE1769FC0018F
:102020001124855E9C4FDC011F965C934E931E9796
:1020300055963C932E93549764E0769FD0011124DB
:10204000A551BD4F1D921D921D921C921397838521
:1020500094859D878C8782858D8381E0DF91CF91E8
:102060000895FC012281FB012683FC018381FB0191
:1020700087830895FC0182819381FB01978B868B76
:102080000895DC01FB0112968D919C911397978B1B
:10209000868B14968D919C911597938F828F1696AF
:1020A0008C911697848F17968D919C911897938792
:1020B00082870895DC01FB0115968D919C911697FE
:1020C000978B868B13968D919C911497938F828F0B
:1020D00019968C911997848317968D919C911897D6
:1020E000918F808F0895DC01FB0112968C911297DD
:1020F000828313968C911397838314968D919C9170
:102100001597938B828B16968D919C911797918B37
:10211000808B08959DE1899FF0011124E55EFC4FBD
:1021200077876687558B448B94E0899FF001112453
:10213000E551FD4F10821182128213820895089595
:1021400008951092630524E0829FC0011124FC01D0
:10215000E551FD4F1082118212821382089525E00D
:10216000FC0120838AE391E008950895809363053C
:1021700008950E941D350F931F93CF93DF931F92F5
:10218000CDB7DEB78C01698380911701882359F0A0
:1021900041E050E0BE016F5F7F4F83E00E94070A7D
:1021A000181619063CF081E090E0F80193838283D1
:1021B00080E090E00F90DF91CF911F910F910895F3
:1021C0000F931F93CF93DF931F92CDB7DEB700918C
:1021D000DB021091DC020F5F1F4F0F7311278091FC
:1021E000DD029091DE0208171907F9F041E050E096
:1021F000BE016F5F7F4F82E00E94A00A019719F431
:10220000898190E002C08FEF9FEF8F3F2FEF920701
:1022100061F0E091DB02F091DC02E556FD4F808336
:102220001093DC020093DB02D2CF0F90DF91CF91AD
:102230001F910F910895CF93DF93282F30E0F9017C
:10224000E750F84F8491F901E652F84FD491F90123
:10225000E554F84FC491CC2391F081110E940D0FE9
:10226000EC2FF0E0EE0FFF1FE355F84FA591B4916E
:10227000EC91ED2381E090E021F480E002C080E069
:1022800090E0DF91CF9108951F93CF93DF93282F94
:1022900030E0F901E750F84F8491F901E652F84F28
:1022A000D491F901E554F84FC491CC23C9F0162F0D
:1022B00081110E940D0FEC2FF0E0EE0FFF1FE15691
:1022C000F84FA591B4918FB7F894111105C09C9166
:1022D000ED2FE095E92302C0EC91ED2BEC938FBF3D
:1022E000DF91CF911F910895CF93DF9390E0FC0190
:1022F000E652F84F2491FC01E554F84F849188236D
:1023000061F190E0880F991FFC01EF56F84FC591DD
:10231000D491FC01E156F84FA591B491611109C027
:102320009FB7F8948881209582238883EC912E238F
:102330000BC0623061F49FB7F8943881822F80958A
:1023400083238883EC912E2B2C939FBF06C08FB7DD
:10235000F894E8812E2B28838FBFDF91CF910895C9
:10236000823108F08251E82FF0E0EB57F84FE4910A
:1023700080917B00E3FB222720F930E095E0220FDB
:10238000331F9A95E1F78F7D282B20937B00E77010
:10239000E064E0937C0080917A00806480937A000E
:1023A00080917A0086FDFCCF8091780020917900A1
:1023B00090E0922B08953FB7F89480919702909106
:1023C0009802A0919902B0919A0226B5A89B05C0E7
:1023D0002F3F19F00196A11DB11D3FBFBA2FA92FA4
:1023E000982F8827820F911DA11DB11DBC01CD0121
:1023F00042E0660F771F881F991F4A95D1F708950D
:10240000CF92DF92EF92FF92CF93DF936B017C012B
:102410000E94DB11EB01C114D104E104F10479F055
:102420000E94DB116C1B7D0B683E7340A0F381E0C2
:10243000C81AD108E108F108C851DC4FECCFDF9190
:10244000CF91FF90EF90DF90CF9008952FB7F89441
:1024500060919302709194028091950290919602FE
:102460002FBF08951F920F920FB60F9211242F9332
:102470003F938F939F93AF93BF93809193029091DB
:102480009402A0919502B09196023091920223E0BD
:10249000230F2D3720F40196A11DB11D05C026E89C
:1024A000230F0296A11DB11D2093920280939302E7
:1024B00090939402A0939502B09396028091970214
:1024C00090919802A0919902B0919A020196A11D53
:1024D000B11D8093970290939802A0939902B093B4
:1024E0009A02BF91AF919F918F913F912F910F9041
:1024F0000FBE0F901F9018951F920F920FB60F925C
:1025000011242F933F934F935F936F937F938F93F8
:102510009F93AF93BF93EF93FF938091B900887F10
:10252000803609F49CC068F5883209F45BC090F4E9
:10253000803109F454C038F4882309F4F6C0883097
:1025400009F44DC0F6C0883109F44CC0803209F45A
:102550005DC0EFC0803409F468C048F4803309F4EA
:1025600055C0883309F0E5C080936E02D8C080352D
:1025700009F44FC0883509F45DC0883409F0D9C02A
:10258000D6C0883909F4C7C0A8F4883709F467C0F1
:1025900038F4883609F463C0803709F460C0C9C0D4
:1025A000883809F4B8C0803909F45FC0803809F070
:1025B000C0C05BC0803B09F486C038F4803A09F49F
:1025C00066C0883A09F47FC0B4C0803C09F4A7C053
:1025D000883C09F4A4C0883B09F48AC0AAC0809151
:1025E000910210C09091900280918F02981770F51F
:1025F000E091900281E08E0F80939002F0E0E1592B
:10260000FD4F80818093BB0085EC86C080936E0275
:102610008EC0E091900281E08E0F809390028091B5
:10262000BB00F0E0E159FD4F8083909190028091D2
:102630008F026EC0E091900281E08E0F8093900235
:102640008091BB00F0E0E159FD4F808380917A05D5
:1026500081116DC081E08093790584EA61C083E0D7
:1026600080937B0510926D02CFCF80916D028032F6
:1026700008F051C0E0916D0281E08E0F80936D02F1
:102680008091BB00F0E0E35BFD4F8083BDCF85EC24
:102690008093BC0010927B0580916D02803230F4F3
:1026A000E0916D02F0E0E35BFD4F108260916D02FE
:1026B00070E0E0914B02F0914C028DE492E00995BC
:1026C00010926D0236C084E080937B0510924A021E
:1026D00010924902E0914702F091480209958091D9
:1026E0004902811105C081E08093490210922702BE
:1026F000E0914A0281E08E0F80934A02F0E0E95DAA
:10270000FD4F80818093BB0090914A0280914902E5
:10271000981708F479CF85E88093BC000AC085EC4F
:102720008093BC0010927B0504C010926E020E9440
:10273000460FFF91EF91BF91AF919F918F917F9144
:102740006F915F914F913F912F910F900FBE0F901E
:102750001F9018952091810490918304213208F0F4
:1027600049C080917B058111FCCF32E030937B051D
:1027700060937A053FEF30936E021092900220939F
:102780008F02A7E0B2E04FE652E0FA013E2F341B81
:10279000321718F43D913193F9CF109291022091A4
:1027A0009102990F922B909391029091790591301B
:1027B00061F410927905909191029093BB009091F1
:1027C000BC0093FDF8CF95EC01C095EE9093BC0052
:1027D00090917B059230E1F390916E029F3F79F0EA
:1027E00080916E02803241F080916E02803331F030
:1027F00084E005C081E003C082E001C083E0109264
:102800008204109281041092840408954F925F9282
:102810006F927F928F929F92AF92BF92CF92DF92F0
:10282000EF92FF92CF93DF9300D000D0CDB7DEB709
:10283000C12CD12C20E8E22E2FE3F22EC09203020D
:10284000D0920402E0920502F0920602C092FF01CB
:10285000D0920002E0920102F092020220919901CE
:1028600027FFD5C06B017C0126FD79C0161617061F
:10287000180619060CF04BC040E060E070E086E6F8
:1028800095E00E94712180907F0490908004A12C9B
:10289000B12CC501B4010E940B322B013C012091E7
:1028A00095013091960140919701509198010E94B5
:1028B000C2320E94D53169837A838B839C832091B5
:1028C000FF01309100024091010250910202C301C8
:1028D000B2010E94C2320E94D53129813A814B81D6
:1028E0005C81621B730B840B950BA70196010E9400
:1028F000BF33A50194010E948E3069817A818B815A
:102900009C81620F731F841F951F40E06AC0672B74
:10291000682B692B01F180907F0490908004A12C9A
:10292000B12CC501B4010E940B3220919501309168
:10293000960140919701509198010E94C2320E94E5
:10294000D5312B013C0122273327A9012C193D0940
:102950004E095F092CC040E060E070E03BC097FD8D
:1029600002C02A9A01C02A9880907F049090800427
:10297000A12CB12CC501B4010E940B32209195010C
:102980003091960140919701509198010E94C23276
:102990000E94D5312B013C01A7019601F7FE07C02B
:1029A00050954095309521953F4F4F4F5F4FC50152
:1029B000B40164197509860997090E94BF33A501FE
:1029C00094010E948E30CA01B901640D751D861DE7
:1029D000971D40E086E695E00E94712140E060E0AE
:1029E00070E084E695E00F900F900F900F90DF91CC
:1029F000CF91FF90EF90DF90CF90BF90AF909F90DE
:102A00008F907F906F905F904F900C9471210F90FA
:102A10000F900F900F90DF91CF91FF90EF90DF908C
:102A2000CF90BF90AF909F908F907F906F905F906E
:102A30004F900895609193017091940180E090E02F
:102A40000E940B329B01AC0160E07EEF8FEF96E4B9
:102A50000E94633108952F923F924F925F926F923E
:102A60007F928F929F92AF92BF92CF92DF92EF921E
:102A7000FF920F931F93CF93DF93CDB7DEB72997C4
:102A80000FB6F894DEBF0FBECDBF998788874B0184
:102A90002B831D830C831701DF82CE82042F10E06D
:102AA0008C819D816C01E12CF12CE885F985F7FD85
:102AB0002BC0C8019695982F882797958795BF01B9
:102AC000681B790B072E000C880B990B0E940D32A6
:102AD0002B013C01C701B6010E940B329B01AC01E6
:102AE000C301B2010E9463312B013C01C8019695DC
:102AF000982F8827979587959A838983EB8190E80B
:102B0000E99FB00111242AC0B8017695762F662777
:102B100077956795E885F9856E0F7F1F072E000C66
:102B2000880B990B0E940D322B013C01C701B601A5
:102B30000E940B329B01AC01C301B2010E946331C0
:102B40002B013C0160E86003C001619F900D1124DE
:102B50009A8389832B816203B0011124888599852A
:102B6000681B790B072E000C880B990B0E940D3205
:102B70006B017C01B10180E090E00E940B329B016F
:102B8000AC01C701B6010E9463316B017C018A145C
:102B90009B0408F43FC08E819F818A0D9B1D88167F
:102BA0009906C0F50C811D810A0D1B1D801691062A
:102BB00090F4B4016A197B0980E090E00E940B3226
:102BC0009B01AC01C301B2010E94C2320E94D53107
:102BD00089819A811CC08219930988159905E8F4A6
:102BE0008A189B08EE81FF818E1A9F0AB401620D3C
:102BF000731D80E090E00E940B329B01AC01C70185
:102C0000B6010E94C2320E94D53188859985860F0F
:102C1000971F05C080E090E002C0888599852996BD
:102C20000FB6F894DEBF0FBECDBFDF91CF911F91DD
:102C30000F91FF90EF90DF90CF90BF90AF909F905B
:102C40008F907F906F905F904F903F902F9008955E
:102C50002F923F924F925F926F927F928F929F92AC
:102C6000AF92BF92CF92DF92EF92FF920F931F939A
:102C7000CF93DF93CDB7DEB7AF970FB6F894DEBF33
:102C80000FBECDBF6B837C838D839E838091D704E1
:102C90009091D804A091D904B091DA042B813C81A1
:102CA0004D815E812093D7043093D8044093D9049A
:102CB0005093DA042091DF04222309F44AC01091D2
:102CC000080534E0139FA0011124BA0169527B4F1B
:102CD0007B012B813C814D815E81281B390B4A0B86
:102CE0005B0BCA01B9010E940D32D70119966D9391
:102CF0007D938D939C931C97012FBAE0FB2E60E08F
:102D000070E0CB01B4E00B9FF0011124E952FB4FBE
:102D100021853285438554850E94F230002311F0CD
:102D2000015001C009E0FA94F110ECCF20E030E04E
:102D300040E251E40E9463311F5F1A3018F410938F
:102D4000080502C0109208056D8B7E8B8F8B988FC3
:102D50000FC081E08093DF041092DB041092DC044A
:102D60001092DD041092DE041D8A1E8A1F8A188EBE
:102D70002091090530910A0540910B0550910C05F1
:102D80008D899E89AF89B88D8093090590930A0536
:102D9000A0930B05B0930C0580911105882309F4CD
:102DA00043C010916205E4E01E9FB0011124CB01E5
:102DB00080529B4F7C016D897E89CD010E94F1304C
:102DC000D701D2966D937D938D939C93D597012FC8
:102DD000A4E1FA2E60E070E0CB01B4E00B9FF001BB
:102DE0001124E052FB4F22A933A944A955A90E94FE
:102DF000F230002311F0015001C003E1FA94F11008
:102E0000ECCF20E030E040EA51E40E9463311F5FE4
:102E1000143118F41093620502C0109262056D8F90
:102E20007E8F8F8F98A30FC081E080931105109241
:102E30000D0510920E0510920F05109210051D8EB3
:102E40001E8E1F8E18A280916305882309F441C04D
:102E50008B819C81AD81BE81B7FF07C0B095A095E5
:102E6000909581959F4FAF4FBF4F0297A105B10538
:102E70000CF487C78091780480FF83C70E941A15DD
:102E80009B01AC0160E070E080E094E40E9463315B
:102E90006B017C016091770470E080E090E00E941B
:102EA0000D329B01AC01C701B6010E94C23220E085
:102EB00030E048EC52E40E9463310E94D531AB010E
:102EC0006B817C818D819E810E9448062B013C0193
:102ED0005BC7EFEEF2E0FC8BEB8B1A821982412C80
:102EE000512C320129813A812F5F3F4F3A83298348
:102EF0006DE1629FA001639F500D11248A01055E60
:102F00001C4FD8018C918370833009F02DC70E942B
:102F10001A156B017C01F80120853185A689B789D6
:102F20000E94E9332FEF3FE740E050E00E948E30EF
:102F3000CA01B9010E940D32A70196010E946331B6
:102F40000E94D5316B017C01D8011A968D919C911C
:102F50001B97059730F4E4E0F0E01B96FC93EE93AA
:102F60001A974DE129813A81429FF001439FF00D6C
:102F70001124E55EFC4FE1818E2F90E0FC0131973A
:102F8000ED30F10508F0DAC6EF56FF4F0C94E3334D
:102F90000E941A156F83788789879A878DE16981E6
:102FA0007A81869FA001879F500D1124DA01A55ECA
:102FB000BC4F1D0118968D909C9019975496AD901A
:102FC000BC9055971E96CD90DC901F975096ED9033
:102FD000FC90519752960D911C91539713962C91FA
:102FE000139712964C91129756968D919C915797E4
:102FF000EB89FC89608171810E942B159401DC01B1
:103000000E94E9332FEF3FE740E050E00E948E300E
:10301000CA01B9010E940D322F81388549855A8530
:103020000E9463310E94D5310E941D069B01AC01B4
:10303000A091EE02B0E00E94AD3024E630E040E026
:1030400050E00E948E30421A530A640A750AD10178
:1030500015968C91159782FF71C61C966D917C9187
:103060001D9780E090E00E940B322BED3FE049EC91
:1030700050E40E94C23220E030E040E058E30E9479
:10308000C2320E942F339B01AC01C301B2012AA7B7
:103090003DA74BA75CA70E940D322AA53DA54BA5D5
:1030A0005CA50E94C2320E94D5312B013C0146C66C
:1030B0000E941A156F83788789879A874DE1298145
:1030C0003A81429FF001439FF00D1124E55EFC4FD1
:1030D000608571857C876B87A488B5888685978590
:1030E000988B8F87A089B189BA8FA98F228933895C
:1030F0003DA32CA383809280AB89BC892D903C900A
:10310000268537853FA72EA767810681002E000CF4
:10311000110B062E000C770B601B710BCB01770F88
:10312000AA0BBB0B6627782F892F9A2F0E940D328E
:103130006B017C014EA55FA5BA0180E090E00E9482
:103140000B3220E030E04AE754E40E9463319B01F7
:10315000AC01C701B6010E9463316B017C01C10162
:103160006EA57FA50E94CF33BC0180E090E00E9455
:103170000B3220E030E04AE754E40E9463319B01C7
:10318000AC01C701B6010E94C2320E94D531102F96
:103190000027C801860F971FCF84D888E98CFA8C46
:1031A0000CA11DA1282D492DB1010E942B152B85A5
:1031B0003C85DC010E94E9332FEF3FE740E050E01F
:1031C0000E948E30CA01B9010E940D322F813885CC
:1031D00049855A850E9463310E94D5310E941D069F
:1031E000461A570A680A790AA9C50E941A156F83F8
:1031F000788789879A878DE169817A81869FF00136
:10320000879FF00D1124E55EFC4F20843184A28D50
:10321000B38DBC87AB87B48DBF87228533853A8F4A
:10322000298FA488B588C684D784E088F18802896C
:10323000138923814281AB89BC898D909C908689BA
:103240009789B4010E942B158C01E98DFA8DBF017D
:1032500080E090E00E940B3220E030E04AE754E446
:103260000E9463319B01AC0160E070E080E89FE365
:103270000E9463316B017C01C401698D7A8D0E94CB
:10328000CF33BC0180E090E00E940B3220E030E0C0
:103290004AE754E40E9463319B01AC01C701B601C7
:1032A0000E94C2326B017C01FF856F2F70E080E0CD
:1032B00090E00E940B3220E030E040E85BE30E94A7
:1032C000C2329B01AC01C701B6010E94F2302BED66
:1032D0003FE049EC50E40E94C2320E942F339B0130
:1032E000AC016B857C856B01770FEE08FF08B80198
:1032F000110F880B990B2AA73DA74BA75CA70E942B
:103300000D322AA53DA54BA55CA50E94C2320E94A4
:10331000D531CB01770FAA0BBB0BA7019601280F64
:10332000391F4A1F5B1FD101BDC00E941A156F8350
:10333000788789879A87ADE189819A81A89FF00172
:10334000A99FF00D1124E55EFC4F208531853C8757
:103350002B87228D338DA901330F660B770B4F8797
:10336000588B698B7A8B548D598F22843384A4882F
:10337000B588C684D784E088F188028913892381BF
:103380004281AB89BC890D90BC91A02DBDA3ACA39B
:1033900086899789BD010E942B15BC01990F880B66
:1033A000990B0E940D326B017C01B10180E090E02D
:1033B0000E940B3220E030E04AE754E40E9463317F
:1033C0009B01AC0160E070E080E89FE30E94633104
:1033D0004B015C018CA19DA1B1010E94CF33BC01C6
:1033E00080E090E00E940B3220E030E04AE754E4B5
:1033F0000E9463319B01AC01C501B4010E94C2323D
:103400004B015C01B98D6B2F70E080E090E00E9471
:103410000B3220E030E040E85BE30E94C2329B01C7
:10342000AC01C501B4010E94F2302BED3FE049EC44
:1034300050E40E94C2320E942F334B015C0120E015
:1034400030E0A9010E94BD3287FF0CC020E030E0CF
:10345000A901C501B4010E945E3187FF05C0EFEFED
:10346000EBA302C0F1E0FBA32BA1622F220F770B8D
:10347000880B990B0E940D329B01AC01C701B6016C
:103480000E94C2320E94D531CB01770FAA0BBB0B31
:103490002F85388949895A89280F391F4A1F5B1F90
:1034A000AB85BC850E94AD302FEF3FE740E050E098
:1034B0000E948E30CA01B9010E940D322F813885D9
:1034C00049855A850E9463310E94D5319B01AC0128
:1034D000A091ED02B0E00E94AD3024E630E040E083
:1034E00050E00E948E30420E531E641E751E26C48C
:1034F0000E941A156B877C878D879E876DE14981B5
:103500005A81649FF001659FF00D1124E55EFC4F28
:1035100080859185988B8F87228D338DA901330FFC
:10352000660B770B498F5A8F6B8F7C8F348D22847B
:103530003384A488B588C684D784E088F18802895A
:10354000138923814281AB89BC890D90BC91A02D48
:10355000B887AF8386899789BD013DA70E942B1547
:103560008C01B10180E090E00E940B324B015C01C4
:103570003DA580E4830F682F70E080E090E00E941A
:103580000B3220E030E040E85BE30E94C232A5014C
:1035900094010E94C2320E94DC318F819885860F8F
:1035A000971FB1010E94CF339DA38CA3BC0180E083
:1035B00090E00E940B3220E030E04AE754E40E94A1
:1035C00063316B017C0120E030E0A9010E94BD3233
:1035D00087FD3CC020E030E04AE754E4C501B40177
:1035E0000E9463316F83788789879A8720E030E073
:1035F00040E05FE30E94C2329B01AC01C701B6010B
:103600000E945E3187FF22C0B801012E000C880B9A
:10361000990B0E940D3220E030E040E850E40E9417
:10362000C2322F81388549855A850E946331A701AE
:1036300096010E94C2320E94D5311195019511095F
:10364000F801E60FF71FFAA3E9A350C020E030E02D
:103650004AE754E4C501B4010E9463314B015C01A7
:1036600020E030E040E05FE30E94C2329B01AC0109
:10367000C701B6010E94BD3287FD38C0A501940183
:10368000C701B6010E945E3187FF30C0B801012E2C
:10369000000C880B990B0E940D3220E030E040E8CE
:1036A00050EC0E94C232A50194010E9463316B016B
:1036B0007C01369427946CA17DA16219730980E086
:1036C00090E00E940B3220E030E04AE754E40E9490
:1036D00063319B01AC01C701B6010E94C2320E9456
:1036E000D5319801260F371F3AA329A349A15AA122
:1036F000CA01550FAA0BBB0B298D3A8D4B8D5C8DE2
:10370000280F391F4A1F5B1FAF85B8890E94AD3053
:103710002FEF3FE740E050E00E948E30CA01B90130
:103720000E940D322B853C854D855E85CBCE0E9457
:103730001A156F83788789879A878DE169817A81E5
:10374000869FF001879FF00D1124E55EFC4FA08558
:10375000B185BC87AB87228D338DA901330F660BF2
:10376000770B4F87588B698B7A8B348D2284338407
:10377000A488B588C684D784E088F1880289138933
:1037800023814281AB89BC898D909C9086899789E1
:10379000B4013DA70E942B158C01B10180E090E09F
:1037A0000E940B326B017C013DA53058632F70E005
:1037B00080E090E00E940B3220E030E040E85BE3E4
:1037C0000E94C232A70196010E94C2320E94DC31DF
:1037D000C401860F971FB1010E94CF339A8F898F42
:1037E00082159305D0F5B801012E000C880B990BBA
:1037F0000E940D329B01AC010E94F2304B015C0132
:1038000020E030E04AE754E4C701B6010E9463318A
:103810009B01AC01C501B4010E9463316B017C01C5
:10382000E98DFA8DBF0180E090E00E940B3220E02C
:1038300030E04AE754E40E9463319B01AC01C701C8
:10384000B6010E94C2320E94D5311195019511092D
:103850009801260F371F3FA32EA34EA15FA198C04A
:103860000E941A156F83788789879A878DE169810D
:103870007A81869FF001879FF00D1124E55EFC4F51
:10388000A085B185BC87AB87228D338DA901330F0D
:10389000660B770B4F87588B698B7A8B348D22841C
:1038A0003384A488B588C684D784E088F1880289E7
:1038B000138923814281AB89BC898D909C90868934
:1038C0009789B4013DA70E942B158C01B10180E0BE
:1038D00090E00E940B326B017C013DA53058632FB4
:1038E00070E080E090E00E940B3220E030E040E8A1
:1038F0005BE30E94C232A70196010E94C2320E947D
:10390000DC31C401860F971FB1010E94CF339A8F1B
:10391000898F82159305D0F566277727601B710B79
:10392000072E000C880B990B0E940D329B01AC01F5
:103930000E94F2304B015C0120E030E04AE754E4A1
:10394000C701B6010E9463319B01AC01C501B401FE
:103950000E9463316B017C01E98DFA8DBF0180E02B
:1039600090E00E940B3220E030E04AE754E40E94ED
:1039700063319B01AC01C701B6010E94C2320E94B3
:10398000D5319801260F371F39A728A748A559A573
:10399000CA01550FAA0BBB0B7BCD8DE169817A81E2
:1039A000869FF001879FF00D1124E55EFC4FA28DEC
:1039B000B38D8090E9029090EA02A090EB02B09063
:1039C000EC02A50194010E94B830DC01CB016FE04C
:1039D000B595A795979587956A95D1F7092E000C0F
:1039E000AA0BBB0B2B813C814D815E81281B390BBF
:1039F0004A0B5B0B1216130614061506F4F4A28D7F
:103A0000B38DA50194010E94B830DC01CB015FE0C9
:103A1000B595A795979587955A95D1F7092E000CDE
:103A2000AA0BBB0B4B815C816D817E81481B590BBE
:103A30006A0B7B0BDB01CA011BC0A28DB38DA501F4
:103A400094010E94B830DC01CB014FE0B595A795F9
:103A5000979587954A95D1F7092E000CAA0BBB0BB9
:103A60002B813C814D815E81821B930BA40BB50B96
:103A70006DE149815A81649FF001659FF00D112429
:103A8000E55EFC4F448178E0479FA0011124052E9C
:103A9000000C660B770B481759076A077B070CF079
:103AA0004DC1A28DB38DA50194010E94B830DC01F7
:103AB000CB013FE0B595A795979587953A95D1F7B6
:103AC000092E000CAA0BBB0B2B813C814D815E8122
:103AD000281B390B4A0B5B0B57FD03C008EF1FEF88
:103AE00002C008E010E06DE149815A81649FF00155
:103AF000659FF00D1124E55EFC4F3480828D938D1F
:103B00009C878B87A091E802B0E0A70196010E94F4
:103B1000AD3020E436E040E050E00E948E302F834C
:103B2000388749875A87309E6001319ED00C112416
:103B30000D2C000CEE08FF082B813C814D815E812D
:103B4000C20ED31EE41EF51EAB85BC85A5019401F3
:103B50000E94B830DC01CB012FE0B595A795979571
:103B600087952A95D1F7092E000CAA0BBB0BA7014C
:103B70009601281B390B4A0B5B0BCA01B9014F8117
:103B800058850E944806460E571E681E791ED6C0EC
:103B90006DE149815A81649FF001659FF00D112408
:103BA000E55EFC4F028D138DA091E702B0E0A70106
:103BB00096010E94AD3024E630E040E050E00E94E3
:103BC0008E3069017A01B801110F880B990B0E94A0
:103BD0000D322AE939EC4CEC54E40E9463319B012C
:103BE000AC016D897E898F89988D0E94F130A60184
:103BF0000E94750765C0ADE189819A81A89FF00197
:103C0000A99FF00D1124E55EFC4F028D138DA0914C
:103C1000E602B0E0A70196010E94AD3024E630E054
:103C200040E050E00E948E3069017A01B801110F26
:103C3000880B990B0E940D3220E03EEF4FEF56E4C7
:103C40000E9463319B01AC016D8D7E8D8F8D98A19B
:103C50000E94F130A6010E940D0732C04DE129817A
:103C60003A81429FF001439FF00D1124E55EFC4F25
:103C7000028D138DA091E502B0E0A70196010E948C
:103C8000AD3024E630E040E050E00E948E30690123
:103C90007A01B801110F880B990B0E940D322AE9A5
:103CA00039EC4CEC54E40E9463319B01AC016D890A
:103CB0007E898F89988D0E94F130A6010E948C0622
:103CC000092E000CAA0BBB0B480E591E6A1E7B1E48
:103CD00035C00E941A159B01AC018DE169817A8182
:103CE000869FF001879FF00D1124E55EFC4F628DE9
:103CF000738D072E000C880B990B2AA73DA74BA7A5
:103D00005CA70E940D322AA53DA54BA55CA50E948B
:103D100063310E94D5310E941D069B01AC01A09128
:103D2000ED02B0E00E94AD3024E630E040E050E02B
:103D30000E948E30421A530A640A750A0E942612A3
:103D40000091E1021091E2022091E3023091E4023D
:103D5000DC01CB01801B910BA20BB30BEB89FC891F
:103D600080839183A283B3832B893C892C5F3F4F4F
:103D70003C8B2B8B49815A814B30510509F0B2C8DD
:103D800003C0412C512C32013090780431FE2EC0FA
:103D90000E941A159B01AC01E091E70287E491E0D3
:103DA000E89FB001E99F700D1124072E000C880BCD
:103DB000990B2AA73DA74BA75CA70E940D322AA505
:103DC0003DA54BA55CA50E9463310E94D531AB0196
:103DD0006D897E898F89988D0E947507092E000C48
:103DE000AA0BBB0B480E591E6A1E7B1E32FE2EC04C
:103DF0000E941A159B01AC01E091E60287E491E074
:103E0000E89FB001E99F700D1124072E000C880B6C
:103E1000990B2AA73DA74BA75CA70E940D322AA5A4
:103E20003DA54BA55CA50E9463310E94D531AB0135
:103E30006D8D7E8D8F8D98A10E940D07092E000C2F
:103E4000AA0BBB0B480E591E6A1E7B1E33FE2EC0EA
:103E50000E941A159B01AC01E091E50287E491E014
:103E6000E89FB001E99F700D1124072E000C880B0C
:103E7000990B2AA73DA74BA75CA70E940D322AA544
:103E80003DA54BA55CA50E9463310E94D531AB01D5
:103E90006D897E898F89988D0E948C06092E000C71
:103EA000AA0BBB0B480E591E6A1E7B1E8091E902AD
:103EB0009091EA02A091EB02B091EC020027112749
:103EC0009801081B190B2A0B3B0B4B815C816D8100
:103ED0007E81401751076207730734F084179507F6
:103EE000A607B7070CF03FC02B813C814D815E8156
:103EF00057FD07C069017A01C81AD90AEA0AFB0A04
:103F000008C0CB80DC80ED80FE80C80ED91EEA1E82
:103F1000FB1E0E941A159B01AC0160E07EEF8FEF43
:103F200096E40E9463314B015C016091E00270E015
:103F300080E090E00E940D329B01AC01C501B4010C
:103F40000E94C23220E030E048EC52E40E9463312B
:103F50000E94D531AB01C701B6010E944806460E4A
:103F6000571E681E791EA091DF02B0E0A3019201E6
:103F70000E94AD3024E630E040E050E00E948E30F8
:103F8000CA01B9010E941D066B017C0134FE04C008
:103F90000E9437210E94CA20C701B601AF960FB612
:103FA000F894DEBF0FBECDBFDF91CF911F910F916F
:103FB000FF90EF90DF90CF90BF90AF909F908F9049
:103FC0007F906F905F904F903F902F900895CF9289
:103FD000DF92EF92FF92CF931092C804C0E0C12C01
:103FE000D12C76018091A80490E047962C2F30E0E8
:103FF00082179307ECF061E08091A6040E944411BF
:10400000C83178F48091A7040E941B11CC0CDD1CF0
:10401000EE1CFF1C882329F08FEFC81AD80AE80A83
:10402000F80A60E08091A6040E944411CF5FDACFC5
:1040300080E8E8268091BD049091BE04813091050E
:1040400029F41092BE041092BD0405C0019690930D
:10405000BE048093BD04C114D104E104F10409F449
:1040600046C09091C80481E0890F8093C804E09114
:10407000BD04F091BE04EE0FFF1FEE0FFF1FEA55C7
:10408000FB4FC782D086E186F2868091C6048823E2
:1040900071F18091C404823038F1C090AD04D090A9
:1040A000AE04E090AF04F090B0044091B1045091A0
:1040B000B2046091B3047091B4044C0D5D1D6E1D8B
:1040C0007F1D4093B9045093BA046093BB0470936E
:1040D000BC041092C4041092C60481E08093C90409
:1040E0009E5F9093C80403C08F5F8093C404CF91F8
:1040F000FF90EF90DF90CF90089581E08093C60409
:104100001092C4048091A7040E941B11811103C066
:104110000E94E71F02C01092C8048091C804823038
:1041200089F7089590918B0489B18C70892B90E068
:104130009C01359527953595279520938B044091C3
:104140008704509188046091890470918A04FC016D
:10415000E15CFE4F8081082E000C990BAA0BBB0B73
:10416000840F951FA61FB71F809387049093880420
:10417000A0938904B0938A04809186040895E09105
:104180008C04F0918D040190F081E02D682F8CE873
:1041900094E00994CF93DF938DE00E94BF20EC015F
:1041A0008AE00E94BF208C0F9D1FDF91CF91089560
:1041B000009769F0FC0101900020E9F73197AF0109
:1041C000481B590BBC018CE894E00C94930E80E0E2
:1041D00090E008958F929F92AF92BF92EF92FF92DC
:1041E0000F931F93CF93DF93CDB7DEB7A1970FB691
:1041F000F894DEBF0FBECDBF162F042F19A2423098
:1042000008F40AE07E0121E2E20EF11C802E912CDE
:10421000A12CB12C612FA50194010E94C030029FF6
:104220001019112481E0E81AF1081A3014F4105D15
:1042300001C0195CF7011083122F732FCA01232BC1
:10424000242B252B39F7C7010E94D820A1960FB641
:10425000F894DEBF0FBECDBFDF91CF911F910F91BC
:10426000FF90EF90BF90AF909F908F900895CF9266
:10427000DF92EF92FF92CF93DF9397FF19C06B010C
:104280007C018DE20E94BF20EC0166277727CB01DD
:104290006C197D098E099F094AE00E94EA208C0F63
:1042A0009D1FDF91CF91FF90EF90DF90CF90089509
:1042B0004AE0DF91CF91FF90EF90DF90CF900C9488
:1042C000EA20CF93DF93BC01990F880B990B0E94D2
:1042D0003721EC010E94CA208C0F9D1FDF91CF91E6
:1042E00008952F923F924F925F926F927F928F929A
:1042F0009F92AF92BF92CF92DF92EF92FF920F9375
:104300001F93CF93DF9300D01F92CDB7DEB77C0110
:104310008B01D42E2DB63EB660E074E284EF90E0BF
:1043200020E030E0A9010E94C030DA01C9014097C5
:10433000A109B109B695A795979587958093B8007F
:10434000DD2011F080E601C080E48983C80124E00B
:10435000969587952A95E1F78A830295007F0B83CE
:10436000D701ED90FC90F701808191E09093840457
:10437000809383041092820410928104A480B580FB
:10438000F3E0AF16B104A8F0D70111968D919C917E
:104390001297DC01ED91FC910280F381E02D43E066
:1043A00050E0BE016F5F7F4F0995039709F05BC036
:1043B0004DC06DB67EB6EDB7FEB7EA19FB090FB674
:1043C000F894FEBF0FBEEDBF8DB79EB701964C01AE
:1043D000C12CD12C83E0482E512C82010C191D09CF
:1043E000A016B10608F48501A1E0B0E0AC0FBD1F36
:1043F000AC0DBD1DF401C401800F911FE817F90732
:1044000019F02D912193FACFC00ED11ED70111962C
:104410008D919C911297DC01ED91FC910280F381CA
:10442000E02DA801B40109958017910731F00FB66E
:10443000F8947EBE0FBE6DBE16C0B3E0CB16D1049D
:1044400060F20FB6F8947EBE0FBE6DBE61E0F7015C
:10445000818192810E94AA13811105C088E4809312
:10446000B80081E001C080E00FB6F8943EBE0FBEF8
:104470002DBE0F900F900F90DF91CF911F910F9154
:10448000FF90EF90DF90CF90BF90AF909F908F9074
:104490007F906F905F904F903F902F9008954F9234
:1044A0005F926F927F928F929F92AF92BF92CF92C4
:1044B000DF92EF92FF92CF93DF93F894C09087043E
:1044C000D0908804E0908904F0908A0478946091F8
:1044D0007F047091800480917D0490917E04681B1C
:1044E000790B769567957695679580E090E00E94C8
:1044F000061468EC70E080E090E00E940012460133
:104500005701C8EED3E060917F04709180048091E0
:104510007D0490917E04681B790B7695679576955E
:10452000679580E090E00E94061468EC70E080E0FF
:1045300090E00E940012F894409087045090880404
:104540006090890470908A04789484149504A60479
:10455000B70421F0219753014201A9F68091790413
:1045600090917A04A0917B04B0917C04F89480939C
:10457000870490938804A0938904B0938A04789464
:1045800060E070E0CB010E940614C414D504E60478
:10459000F70411F482E001C081E08093D60481E049
:1045A00090E0DF91CF91FF90EF90DF90CF90BF90A0
:1045B000AF909F908F907F906F905F904F900C94F2
:1045C00061211F93CF93DF93EC0110927D05109230
:1045D0007C05109282041092810410927B0511E0F8
:1045E00010937A051092790561E082E00E944411EF
:1045F00061E083E00E9444118091B9008E7F809336
:10460000B9008091B9008D7F8093B90088E48093D0
:10461000B80085E48093BC001B83888110938404D8
:1046200080938304109282041092810461E0898156
:104630009A810E94AA1391E0811190E0892FDF9165
:10464000CF911F9108950F931F930E94261260939C
:104650009404709395048093960490939704E0914A
:104660008C04F0918D040084F185E02D8CE894E0B9
:10467000099597FF1FC00E94261200919404109183
:1046800095042091960430919704DC01CB01801BA6
:10469000910BA20BB30B0091900410919104209107
:1046A00092043091930480179107A207B307B8F2E0
:1046B0008FEF9FEF1F910F9108951F93CF93DF937B
:1046C000EC01162F88819981009711F00E948534A2
:1046D00086E090E00E94F033FC0110838AE994E0C8
:1046E00092838183138280E290E095838483F983AF
:1046F000E883CF01DF91CF911F910C94E122682FC5
:1047000070E080E090E04AE00C94EA20FF920F9382
:104710001F93CF93DF9300D000D0CDB7DEB70E94B8
:104720002323FC0197FD11C08D32910591F0C097B4
:104730000A9778F0E0918C04F0918D040680F7815F
:10474000E02D8CE894E00995EACF60E070E0CB01C1
:104750004CC020E030E0A901F12CE130F105F1F08E
:10476000ED32F105C9F0CF01C0970A97B8F4AAE07D
:10477000B0E00E94AD308F01FF0F220B330BDC0144
:10478000CB01800F911FA21FB31F9C01AD012053CD
:1047900031094109510902C0FF24F394E0918C04CE
:1047A000F0918D040680F781E02D8CE894E0298358
:1047B0003A834B835C8309950E942323FC01C097B5
:1047C00029813A814B815C810A9738F2E130F10509
:1047D00021F2FF2041F066277727CB01621B730B84
:1047E000840B950B02C0CA01B9010F900F900F9076
:1047F0000F90DF91CF911F910F91FF900895CF936C
:10480000DF93CDB7DEB76D970FB6F894DEBF0FBE5E
:10481000CDBF789484B5826084BD84B5816084BD49
:1048200085B5826085BD85B5816085BD80916E004E
:10483000816080936E00109281008091810082607F
:1048400080938100809181008160809381008091BC
:1048500080008160809380008091910082608093CD
:1048600091008091910081608093910080919000EF
:104870008160809390008091C10084608093C1002A
:104880008091C10082608093C1008091C1008160ED
:104890008093C1008091C30081608093C3008091A8
:1048A000C00082608093C0008091C20081608093CC
:1048B000C20080917A00846080937A0080917A00AF
:1048C000826080937A0080917A00816080937A0080
:1048D00080917A00806880937A001092900181E044
:1048E0008093D70080EA8093D80082E189BD09B423
:1048F00000FEFDCF61E070E080E090E00E940012D9
:1049000080E98093D8008CE08093E2001092E00070
:104910000E94DB116093D7017093D8018093D90175
:104920009093DA011092A0011092CA011092C9016D
:104930001092CF011092D0011092D1011092D201A9
:104940001092C8011092C7011092D3011092D401A5
:104950001092D5011092D60142E0BE01615F7F4FF7
:1049600080E090E00E9448088F859889833F9105F8
:1049700009F4C4C083EF90E09E878D8742E0BE01BA
:10498000635F7F4F80E090E00E94190819821A82CD
:104990001B821C8244E0BE016F5F7F4F82E090E08B
:1049A0000E94190888E394E09E878D8742E0BE014B
:1049B000635F7F4F86E090E00E94190884E6898B50
:1049C00041E0BE016F5E7F4F88E090E00E941908D1
:1049D00041E0BE016F5E7F4F8BE090E00E941908BE
:1049E00041E0BE016F5E7F4F8CE090E00E941908AD
:1049F00041E0BE016F5E7F4F80E190E00E941908A8
:104A000041E0BE016F5E7F4F8DE090E00E9419088B
:104A100082E3898B41E0BE016F5E7F4F89E090E0C9
:104A20000E94190841E0BE016F5E7F4F8AE090E06E
:104A30000E94190841E0BE016F5E7F4F8EE090E05A
:104A40000E94190886E4898B41E0BE016F5E7F4FAA
:104A50008FE090E00E9419081E861D8642E0BE018C
:104A6000635F7F4F81E190E00E94190884EF91E03D
:104A70009E878D8742E0BE01635F7F4F83E190E0B8
:104A80000E9419088FEF9FE09E878D8742E0BE014C
:104A9000635F7F4F85E190E00E9419088DE290E00E
:104AA0009E878D8742E0BE01635F7F4F87E190E084
:104AB0000E94190881E0898B41E0BE016F5E7F4F43
:104AC00088E190E00E94190880E699E0A0E0B0E05B
:104AD00089839A83AB83BC8344E0BE016F5F7F4FC1
:104AE00089E190E00E94190880E8898B41E0BE01CD
:104AF0006F5E7F4F8DE190E00E94190842E06EE901
:104B000071E086E090E00E94480844E06AE971E0C4
:104B100089E190E00E94480841E06FED72E088E092
:104B200090E00E94480841E067EE72E089E090E082
:104B30000E94480841E065EE72E08AE090E00E9441
:104B4000480841E06EEE72E08BE090E00E94480879
:104B500041E06DEE72E08CE090E00E94480841E098
:104B600068EE72E08DE090E00E94480841E066EE59
:104B700072E08EE090E00E94480841E067E774E050
:104B80008FE090E00E94480841E060EE72E080E132
:104B900090E00E94480841E064EC71E087E190E019
:104BA0000E94480841E068E774E088E190E00E94D4
:104BB000480842E06DE774E081E190E00E94480817
:104BC00042E06FE774E083E190E00E94480842E031
:104BD00065EA71E085E190E00E9448088091A501B6
:104BE0009091A6019093800480937F0441E069E94D
:104BF00071E08DE190E00E9448088FEF9FE0909374
:104C0000C2018093C1011092C0011092BF01909324
:104C1000BE018093BD011092BC011092BB01909324
:104C2000BA018093B9011092B8011092B701909324
:104C3000B6018093B5011092B4011092B301609156
:104C40009A0170919B0180919C0190919D010E941D
:104C50000D3220E030E044EB53E40E9463316B01FD
:104C60007C0180919E0190919F01BC01990F880B5E
:104C7000990B0E940D329B01AC01C701B6010E9445
:104C8000C2320E94D5316093790470937A04809384
:104C90007B0490937C046B017C01F594E794D7949A
:104CA000C794C092E902D092EA02E092EB02F0923D
:104CB000EC0262E080E00E94741162E081E00E94F8
:104CC000741110928604C0928704D0928804E092F6
:104CD0008904F0928A0410928B044A9B05C080914B
:104CE0008B04816080938B044B9B05C080918B0467
:104CF000826080938B04809169008F7C80618093B7
:104D00006900EA9A809169008F73806480936900DA
:104D1000EB9A60E082E10E94741160E083E10E94FE
:104D2000741160E084E10E9474116E9A60E086E084
:104D30000E947411249A1092A3011092A201109261
:104D4000A7011092A8011092A9011092AA01109235
:104D5000A1011092A40161E08091A6040E94741147
:104D600060E08091A7040E94741111E01093A804E0
:104D700060E08091A6040E9444111093A8040E9450
:104D800026126036794081059105C8F30E947D2086
:104D90001092C9046091C40170E080E090E00E942C
:104DA0000B3220E030E040E85EE30E94C2326093C4
:104DB000A9047093AA048093AB049093AC048EE191
:104DC00091E090939201809391018AED94E0909309
:104DD0006905809368058FE79BE090936B0580934E
:104DE0006A05229A0091A5011091A60110939401E1
:104DF000009393011093800400937F0460917D04DD
:104E000070917E0480E090E00E940B326B017C0187
:104E1000B80180E090E00E940B329B01AC01C70119
:104E2000B6010E946331609395017093960180935F
:104E300097019093980180919901182F117080FD2E
:104E400005C020E030E04AEF54E404C020E030E048
:104E50004AE754E4609108017091090180910A01C8
:104E600090910B010E94C232609308017093090176
:104E700080930A0190930B01111105C020E030E0EE
:104E80004AEF54E404C020E030E04AE754E4609183
:104E900004017091050180910601909107010E9423
:104EA000C2326093040170930501809306019093D0
:104EB0000701111105C020E030E04AEF54E404C0BE
:104EC00020E030E04AE754E4609100017091010174
:104ED00080910201909103010E94C232609300010F
:104EE00070930101809302019093030160E686E6CE
:104EF00095E00E945D2361E684E695E00E945D23D3
:104F000041E060E070E086E695E00E94712141E0BA
:104F100060E070E084E695E00E94712160E070E05E
:104F2000CB010E9406148091E9029091EA02A091BF
:104F3000EB02B091EC02F89480938704909388047C
:104F4000A0938904B0938A04789482E090E09093CF
:104F5000B2018093B1018FEF97E09093B0018093FD
:104F6000AF018091C4018093C30122242A945FE0A1
:104F7000352E0E94DB116093CE047093CF04809392
:104F8000D0049093D1040091DB011091DC012091B9
:104F9000DD013091DE016B017C01C01AD10AE20A09
:104FA000F30AC092CA04D092CB04E092CC04F092EF
:104FB000CD040091D7011091D8012091D9013091F1
:104FC000DA016B017C01C01AD10AE20AF30A40ED52
:104FD000C41647E0D406E104F10408F4D1C7609395
:104FE000D7017093D8018093D9019093DA0192E2AE
:104FF0001092A4012091A2013091A3012232310527
:1050000074F01092A3011092A2011092A7011092C5
:10501000A8011092A9011092AA011092A101209159
:10502000A2013091A301223031056CF4232B09F445
:105030002C9A2091A2013091A3012130310509F071
:1050400049C02C9847C0A9014170552720FD3EC09A
:1050500029B1221F2227221F2093A4018091A101A0
:10506000803278F5C090A701D090A801E090A90106
:10507000F090AA0141E050E060E070E0082E04C02A
:10508000440F551F661F771F0A94D2F7222329F079
:105090004C295D296E297F290CC08A019B0100954E
:1050A000109520953095B701A60140235123622326
:1050B00073234093A7015093A8016093A9017093B3
:1050C000AA018F5F8093A101769A04C041305105F7
:1050D00009F476982091A2013091A3012F5F3F4FF0
:1050E0003093A3012093A201915009F081CFF8944D
:1050F00040918704509188046091890470918A04DA
:1051000078948091E9029091EA02A091EB02B0912B
:10511000EC026A017B01C81AD90AEA0AFB0AC70134
:10512000B601C092D301D092D401E092D501F092A1
:10513000D6013091780435FB222720F936FD226014
:1051400037FF02C0246013C0213089F42091CF01C1
:105150003091D0014091D1015091D201AFEFB3E035
:105160000E94AD302FEF3FEF40E050E01CC02230F6
:1051700029F4A091C901B091CA010DC0233029F4CE
:10518000A091C701B091C80106C0243099F4A09144
:10519000C501B091C6012FEF33E00E94E9332FEF34
:1051A0003FE040E050E00E948E30CA01B9017250E9
:1051B000810991090E9428166093CB017093CC015C
:1051C0008093CD019093CE016091D3017091D40171
:1051D0008091D5019091D6010E940D326B017C0126
:1051E0006091790470917A0480917B0490917C04A1
:1051F0000E940D329B01AC0160E07FEF8FE797E4E6
:105200000E9463319B01AC01C701B6010E94C2320A
:105210000E94D531462F572FBC01411500E8500799
:105220006105710524F04FEF5FE760E070E0411524
:1052300010E851071FEF6107710724F440E050E8C0
:105240006FEF7FEF4093D3015093D4016093D5016A
:105250007093D6016091CB017091CC018091CD010A
:105260009091CE010E94061482E10E94B0115C016F
:105270009093CA018093C90183E10E94B0117C011F
:105280009093C8018093C70184E10E94B0114C0142
:105290009093C6018093C5011091C4018091C30110
:1052A0001817C1F0612F70E080E090E00E940B328F
:1052B00020E030E040E85EE30E94C2326093A9043F
:1052C0007093AA048093AB049093AC041093C30131
:1052D0000E947D208091A7040E941B11811103C0B0
:1052E0000E94E71F02C01092C8044091AD04509183
:1052F000AE046091AF047091B0048091B1049091BC
:10530000B204A091B304B091B404840F951FA61FFA
:10531000B71F0091B9041091BA042091BB043091D9
:10532000BC04801B910BA20BB30BBC01CD01009000
:10533000C50404C095958795779567950A94D2F72B
:105340000E940D322091A9043091AA044091AB042F
:105350005091AC040E9463310E94D5312B013C0175
:105360008091C1019091C201A816B90620F4B092B3
:10537000C201A092C1018091BF019091C0018A1524
:105380009B0520F4B092C001A092BF018091BD01A5
:105390009091BE01092E000CAA0BBB0B48165906B2
:1053A0006A067B0624F45092BE014092BD018091B2
:1053B000BB019091BC01092E000CAA0BBB0B8415FC
:1053C0009505A605B70524F45092BC014092BB0197
:1053D0008091B9019091BA01E816F90620F4F09293
:1053E000BA01E092B9018091B7019091B8018E1590
:1053F0009F0520F4F092B801E092B7018091B501C9
:105400009091B6018816990620F49092B601809288
:10541000B5018091B3019091B4018815990520F4EC
:105420009092B4018092B3010091B1011091B20148
:105430008091C1019091C201800F911F9C0140E0B9
:1054400050E02A8B3B8B4C8B5D8B8091B901909106
:10545000BA01800F911F9C0140E050E02E8B3F8BE2
:10546000488F598FC701FF0CAA0BBB0B9C01AD01E4
:10547000CE88DF88E88CF98C2C193D094E095F092C
:10548000AFEFBFE00E94AD302091B7013091B8017D
:10549000201B310B40E050E02C193D094E095F09FB
:1054A0000E948E302E8B3F8B488F598F8091B50193
:1054B0009091B601800F911F6C01E12CF12CC40179
:1054C000990CAA0BBB0B9C01AD012C193D094E098F
:1054D0005F09AFEFBFE00E94AD302091B301309182
:1054E000B401201B310B40E050E02C193D094E095E
:1054F0005F090E948E302A8F3B8F4C8F5D8FC501D4
:10550000BB0CAA0BBB0B9C01AD01CA88DB88EC88E5
:10551000FD882C193D094E095F09AFEFBFE00E94DD
:10552000AD302091BF013091C001201B310B8901AA
:1055300020E030E0A90198012C193D094E095F09CE
:105540000E948E30211500E1300714F02FEF3FE06C
:1055500037FF02C020E030E03093CA012093C90138
:10556000EE89FF89E11510E1F10714F0EFEFFFE09C
:10557000F7FF02C0E0E0F0E0F093C801E093C7015C
:105580008A8D9B8D811540E1940714F08FEF9FE089
:1055900097FF02C080E090E09093C6018093C50120
:1055A0004091AF015091B00160E070E044165506A3
:1055B000660677064CF41092CF011092D00110923B
:1055C000D1011092D2010CC0441A550A660A770A1A
:1055D0004092CF015092D0016092D1017092D201DD
:1055E0004090CF015090D0016090D1017090D201D5
:1055F0004114510451E0650671042CF044244A948E
:10560000542C612C712C77FE03C0412C512C32019B
:105610004092CF015092D0016092D1017092D2019C
:105620008090A7019090A801A090A901B090AA0134
:10563000482D4F70413081F0423081F0443081F08C
:10564000483081F0433081F0463081F0493081F0BC
:105650004C3081F040E00FC041E00DC043E00BC092
:1056600045E009C047E007C042E005C044E003C090
:1056700048E001C046E0A0EF8A22842A8092AB0174
:105680009092AC01A092AD01B092AE014091D301D5
:105690005091D401505849835A834B825C822D83A8
:1056A0002E2F2295207F232B2E836F01A4E0D694EA
:1056B000C794AA95E1F7CF828887882D8295807F4D
:1056C000892B8987D501C40114E0B695A7959795D4
:1056D00087951A95D1F78A87D501C4010CE0B69554
:1056E000A795979587950A95D1F78B8784E1B6940E
:1056F000A794979487948A95D1F78C864CE050E0D4
:10570000BE016F5F7F4F84E00E945E0B8091CA04F0
:105710009091CB04A091CC04B091CD0480319742FC
:10572000A105B10508F42CC48CE894E00E94000F98
:10573000181619060CF014C48CE894E00E94C60EEA
:10574000E82F8FE98E0F8A3108F4E0528E2F90E017
:10575000FC01E154F109EA31F10508F001C4EA5A0B
:10576000FF4F0C94E33360919E0170919F01072ECF
:10577000000C880B990B0E94372180E20E94BF2009
:105780008091DF020E947F2380E20E94BF208091EF
:10579000E7020E947F2380E20E94BF208091E50201
:1057A0000E947F2380E20E94BF208091EE020E942F
:1057B0007F2380E20E94BF208091ED020E947F2320
:1057C00080E20E94BF208091E8020E947F2380E255
:1057D0000E94BF208091E6020E947F2380E20E9407
:1057E000BF20809177040E947F2380E20E94BF2027
:1057F0008091E0020E947F2380E20E94BF2060919E
:105800007D0470917E0480E090E04AE00E94EA20EE
:1058100080E20E94BF208091C4010E947F2380E229
:105820000E94BF20809178040E947F2380E20E9422
:10583000BF2060917F047091800480E090E04AE096
:105840000E94EA2080E20E94BF2060919A0170913C
:105850009B0180919C0190919D010E94372180E2E3
:105860000E94BF206091990170E071C28FE791E0C2
:105870000E94D82063EF70E080E090E00E94372122
:1058800084E891E00E94D82086E891E00E94D82028
:1058900088E891E00E94D8208AE891E00E94D82010
:1058A0008CE891E00E94D8205BC38091D604082E3A
:1058B000000C990B53C30E944F2252C30E948623AF
:1058C000611101C061E06093C40146C33092C2011E
:1058D0002092C1011092C0011092BF013092BE010E
:1058E0002092BD011092BC011092BB013092BA010E
:1058F0002092B9011092B8011092B7013092B6010E
:105900002092B5011092B4011092B30125C30E94F8
:105910008623643071058105910574F0DC01CB01AB
:10592000813C17E2910719E0A107B1054CF080EC2A
:1059300097E2A9E0B0E004C084E090E0A0E0B0E02D
:1059400089839A83AB83BC83F8948090870490907A
:105950008804A0908904B0908A0478944090D2047E
:105960005090D3046090D4047090D50460919E014F
:1059700070919F01072E000C880B990B0E940D322D
:105980006B017C018091E9029091EA02A091EB0207
:10599000B091EC02A5019401281B390B4A0B5B0B5B
:1059A000CA01B901640D751D861D971D0E940D3237
:1059B000A70196010E94C2324B015C0160917904FB
:1059C00070917A0480917B0490917C040E940D3246
:1059D0009B01AC01C501B4010E9463316A8B7B8BD2
:1059E0008C8B9D8B69817A818B819C8160939A01DC
:1059F00070939B0180939C0190939D010E940D32B6
:105A000020E030E044EB53E40E946331A7019601AB
:105A10000E94C2320E94D5316093790470937A0457
:105A200080937B0490937C044B015C01B594A79414
:105A3000979487948092E9029092EA02A092EB02F6
:105A4000B092EC020E940D329B01AC016A897B8905
:105A50008C899D890E94C232A70196010E94633100
:105A60000E94D531860E971EA81EB91E841895086F
:105A7000A608B708DFC08091E9029091EA02A091E0
:105A8000EB02B091EC02F894809387049093880421
:105A9000A0938904B0938A0478945DC10E94862300
:105AA0006E317105810591056CF0DC01CB01893007
:105AB00037E09307A105B1054CF088E097E0A0E03E
:105AC000B0E004C08EE190E0A0E0B0E089839A836A
:105AD000AB83BC83F8948091870490918804A09153
