:100000000C9426040C944E040C94020E0C944A0E8C
:100010000C94260E0C944E040C944E040C944E0436
:100020000C944E040C944E040C9413120C94B60FC2
:100030000C944E040C944E040C944E040C944E04F8
:100040000C944E040C944E040C944E040C944E04E8
:100050000C944E040C944E040C944E040C94E31532
:100060000C944E040C944E040C944E040C944E04C8
:100070000C944E040C944E040C944E040C944E04B8
:100080000C944E040C944E040C944E040C944E04A8
:100090000C942D160C944E040C944E040C944E04A7
:1000A0000C944E040C944E040C944E04831FE41FD5
:1000B0008321812038222B247023C8241125422536
:1000C0007425E225AD25C52D9F2A1B2BE12EF92B8A
:1000D0006E2E2E2B902CE12EE12EE12EE12EE12E24
:1000E000E12EA72A902CE12E3C2A362AE12E9A29CD
:1000F000192A2B2CE12E932C902CAA2CC42CDE2C0C
:10010000F82C122D2C2D462D602DE12EE12EE12E06
:10011000E12EE12EE12EE12EE12EE12E7A2DA82E08
:10012000AD2E8A2E8F2EE12E942E852EE12EA32E1B
:10013000B22EE12EE12E9E2EE12EE12EE12EE12EB9
:10014000E12E992E79087E0883088D08D708D708F4
:10015000D7089708A108AB08B508C208D708CA088D
:10016000ED14F014E314E714111511151115F4141E
:10017000F814FC140215061511150C1505A84CCD24
:10018000B2D44EB93836A9020C50B9918688083CD1
:10019000A6AAAA2ABE000000803F000000000000BE
:1001A00000002A2B280000000000000000000000D2
:1001B000000000000000000000002C9EB4A0A1A2DE
:1001C000A434A6A7A5AE362D3738271E1F2021221E
:1001D00023242526B333B62EB7B89F848586878817
:1001E000898A8B8C8D8E8F90919293949596979807
:1001F000999A9B9C9D2F3130A3AD350405060708C5
:10020000090A0B0C0D0E0F101112131415161718E6
:10021000191A1B1C1DAFB1B0B500080B0002020279
:100220000100090400000102020000052400100181
:100230000524010101042402060524060001070526
:10024000810310004009040100020A0000000705B4
:10025000020240000007058302400000090402007A
:10026000020300000009210101000122E104070549
:10027000840340000107050503400001050109044E
:10028000A10185040901A100093017000000002721
:10029000FFFF0000350047FFFF000075109501814A
:1002A00002093116000027FFFF0000350047FFFF5D
:1002B0000000751095018102093216000027FF0F1A
:1002C0000000350047FF0F0000750C950181020901
:1002D0003316000027FF0F0000350047FF0F000016
:1002E000750C95018102093416000027FF0F0000EC
:1002F000350047FF0F0000750C9501810209391583
:100300000125083500463B0165145500750495012B
:1003100081020509150025015500650019012918FC
:1003200075019518810285F10901150026FF0095D8
:100330003F7508918285F20901953F75088182C059
:10034000050F0992A1028502099F09A009A409A528
:1003500009A61500250135004501750195058102A5
:1003600095038103099415002501350045017501A8
:1003700095018102092215012528350145287507B7
:1003800095018102C00921A10285010922150125DB
:1003900028350145287508950191020925A1020912
:1003A000260927093009310932093309340940097E
:1003B0004109420943250B15013501450B75089587
:1003C000019100C009500954150027FFFF000035B6
:1003D0000047FFFF000066011055FD751095029162
:1003E0000255006600000952150026FF7F350046C1
:1003F000FF7F7510950191020953150125083501FC
:1004000045087508950191020955A10205010930B9
:10041000093115002501750195029102C0050F09EA
:100420005695019102950591030957A1020B010010
:100430000A000B02000A0066140055FE150026FF94
:100440007F3500479F8C0000751095019102550083
:10045000660000C0050F09A766011055FD150027AD
:10046000FFFF0000350047FFFF0000751095019168
:10047000026600005500C0050F095AA10285020955
:100480002215012528350145287508950191020995
:100490005B095D150026FF00350046FF7F75089556
:1004A000029102095C095E66011055FD26FF7F4638
:1004B000FF7F7510950291026600005500C0095F2C
:1004C000A102850309221501252835014528750853
:1004D0009501910209231500250135004501750498
:1004E000950191020958A1020B01000A000B0200BC
:1004F0000A00750295029102C0096016008026FF6D
:100500007F36008046FF7F751095019102096136A4
:10051000008046FF7F95019102150026FF7F350080
:1005200046FF7F0963751095019102096515002644
:10053000FF0046FF7F750895019102C0096EA10278
:1005400085040922150125283501452875089501DE
:1005500091020970150026FF7F350046FF7F751058
:1005600095019102096F16008026FF7F36008046B4
:10057000FF7F950191020971150026FF00350046A5
:1005800067016614005500750895019102097227EC
:10059000FFFF000047FFFF000066011055FD7510CA
:1005A000950191026600005500C00973A1028505FE
:1005B0000922150125283501452875089501910264
:1005C000097016018026FF7F36018046FF7F751077
:1005D00095019102C00974A1028506092215012521
:1005E0002835014528750895019102097509761588
:1005F00081257F36018046FF7F750895029102C0F4
:10060000050F0977A102850A092215012528350160
:1006100045287508950191020978A1020979097A9E
:10062000097B15012503750895019100C0097C150A
:100630000026FF00350046FF009102C00990A1028C
:10064000850B0922150125283501452875089501D6
:100650009102C00996A102850C0997099809990988
:100660009A099B099C15012506750895019100C002
:10067000097DA102850D097E150026FF0035004683
:100680001027750895019102C009ABA102850509E3
:1006900025A1020926092709300931093209330940
:1006A0003409400941094209431501250B3501452B
:1006B0000B75089501B100C00501093B150026FF27
:1006C00001350046FF01750A9501B1027506B101B9
:1006D000C0050F0989A102850609222528150135C3
:1006E00001452875089501B102098BA102098C0901
:1006F0008D098E250315013501450375089501B156
:1007000000C009AC150027FFFF0000350047FFFFC0
:10071000000075109501B100C0097FA1028507098D
:100720008075109501150027FFFF0000350047FF79
:10073000FF0000B102098326FF0046FF00750895FF
:1007400001B10209A909AA75019502150025013513
:10075000004501B10275069501B103C0C0180341FF
:100760000072006400750069006E006F0020004C8C
:10077000004C00430004030904220341007200649A
:1007800000750069006E006F0020004C0065006F6E
:10079000006E006100720064006F00120100020030
:1007A00000004041233680000101020001120100D7
:1007B00002020000404123368000010102000100D6
:1007C000C18081C1C0070605040100080A0B0C0D99
:1007D0000900000000240027002A002D003000003E
:1007E000000000250028002B002E00310004040426
:1007F00004040304050202020204030202020206C8
:1008000006060606060404020202040404080201A5
:100810001040804010204080408008020401804049
:100820002010020110801020404020000000020033
:10083000080E0000030401000B000000000000008F
:1008400000000000000000000000FB2E11241FBE6D
:10085000CFEFDAE0DEBFCDBF11E0A0E0B1E0E0E233
:10086000F6E602C005900D92A63AB107D9F725E049
:10087000A6EAB1E001C01D92A235B207E1F714E08B
:10088000C6E2D4E004C02197FE010E94FC32C532CA
:10089000D107C9F70E9409190C940E330C9400007B
:1008A0000895CF93DF93FC01EB01718182818983ED
:1008B000858196819A8789872285338543815481F2
:1008C0006EE1769FC001112488519E4FDC01509645
:1008D0005C934E931F9756963C932E93559764E0E6
:1008E000769FD0011124A854BE4F1D921D921D92D7
:1008F0001C921397808591859E878D8787818E8333
:1009000081E0DF91CF910895FC012281FB012783D3
:10091000FC018381FB0180870895FC018281938122
:10092000FB01908F878B0895DC01FB0112968D915E
:100930009C911397908F878B14968D919C9115970E
:10094000948F838F16968C911697858F17968D911D
:100950009C911897948783870895DC01FB01129678
:100960008C91129782838281811110C015968D918E
:100970009C911697908F878B13968D919C911497CD
:10098000948F838F17968C91858308958281089523
:10099000DC01FB0112968C911297838313968C9144
:1009A0001397848314968D919C911597948B838BC8
:1009B00016968D919C911797928B818B08959EE14D
:1009C000899FF0011124E851FE4F708B6787568B89
:1009D000458B94E0899FF0011124E854FE4F10826A
:1009E0001182128213820895089508951092340599
:1009F00024E0829FC0011124FC01E854FE4F1082C4
:100A0000118212821382089525E0FC01208384E381
:100A100091E008950895809334050895CF92DF9270
:100A2000EF92FF926091B5017091B601072E000C14
:100A3000880B990B0E9426316B017C016091500359
:100A40007091510380915203909153030E9426317B
:100A50009B01AC01C701B6010E947C30FF90EF9072
:100A6000DF90CF9008958C30F8F4282F30E09EE18D
:100A7000899FF0011124E851FE4F90819923A1F044
:100A800090819D7F9083F901ED55FC4F95819111E7
:100A90000BC0E091A701F091A8010084F185E02D41
:100AA00009951092B303089508958C30F0F49EE1F7
:100AB000899FF0011124E851FE4F80818823A9F01D
:100AC0008081826080838091B30381110EC00E9477
:100AD000D7156093B8017093B9018093BA019093D0
:100AE000BB0181E08093B303089508951F93CF93D2
:100AF000DF93DC0111961C9111979C91953009F4BC
:100B000067C060F5923009F443C0A8F4913009F051
:100B10004DC1E091A701F091A8012EE1129FB00113
:100B2000112468517E4F028CF38DE02DCD01DF91B1
:100B3000CF911F9109949330C9F1943009F036C1D7
:100B4000E091A701F091A8012EE1129FB0011124BC
:100B500068517E4F0488F589E02D35C09B3009F43B
:100B60009DC038F4963009F441C09A3009F44CC065
:100B70001DC19C3009F4CBC0913F09F017C140E47E
:100B800050E0BD0182EFDF91CF911F910C94A31231
:100B9000E091A701F091A8013EE1139FB00111245B
:100BA00068517E4F0088F189E02D0DC0E091A701CA
:100BB000F091A8018EE1189FB001112468517E4F79
:100BC0000288F389E02DCD01DF91CF911F91099427
:100BD000E091A701F091A8013EE1139FB00111241B
:100BE00068517E4F0688F789E02DEDCFE091A7018F
:100BF000F091A8018EE1189FB001112468517E4F39
:100C0000008CF18DE02DDFCF1F3F09F41FE7129616
:100C10009C91913099F4812F0E945505E12FF0E0CD
:100C2000ED55FC4F85818111C1C0E091A701F09184
:100C3000A8010680F781E02D812F47C0923029F569
:100C4000C1E08C2F0E943305CF5FCC30D1F7C12F8C
:100C5000D0E0CD55DC4F8D81811109C0E091A70115
:100C6000F091A8010084F185E02D8FE70995812F8F
:100C70000E9455058D81811199C0E091A701F091E5
:100C8000A8010680F781E02D1FC0933009F08EC0C7
:100C9000812FDF91CF911F910C94330581E01F3F8D
:100CA000C1F480930C0188E691E0E8EEF1E0DF0109
:100CB0009C011D9221503040E1F7E091A701F09195
:100CC000A8010284F385E02D8FE7DF91CF911F917A
:100CD0000994809334051C3008F068C03EE1139FEE
:100CE000F0011124E851FE4F108280910C01181779
:100CF00010F410930C01E091A701F091A801028477
:100D0000F385E02D812F09951092B3034FC082E047
:100D10008093B4039091B50394609093B503909140
:100D2000B50390619093B5031092B6031330B1F000
:100D300040F4113079F01230C9F58091B50382602A
:100D400033C0153071F1B0F0163081F58091B503E4
:100D50008E7F2AC08091B5038D7F26C0E091A701C8
:100D6000F091A8010480F581E02D80E009951092B2
:100D7000B6031CC0E091A701F091A8010480F581A1
:100D8000E02D81E0099581E080930C0188E691E0F7
:100D9000E8EEF1E0DF019C011D9221503040E1F7C7
:100DA00005C08091B50381608093B503DF91CF9139
:100DB0001F910895CF93DF9300D000D01F92CDB73D
:100DC000DEB7FC0181819081913A29F5813009F0EB
:100DD000BCC08281863051F445E050E06EE973E09A
:100DE00080E40E945E0F10929E03AFC0873009F02E
:100DF000ACC089838FEF9FEF9B838A838BE08C83CA
:100E000083E08D8345E050E0BE016F5F7F4F80E45B
:100E10000E945E0F9AC0913209F097C0893009F0A4
:100E200094C08281853009F090C064E070E0CE010A
:100E300001960E94490F86E080939E0380910C01E9
:100E40008B3021F1A0910C0181E08A0F80930C017D
:100E50009EE1E0910C019E9FF0011124E851FE4FAC
:100E60008081882351F080910C018B3030F4809187
:100E70000C018F5F80930C01ECCF8EE1A89FF001F5
:100E80001124E851FE4F81E0808301C0A0E0A093CF
:100E90009F03A11104C082E08093A00350C0109270
:100EA000340581E08093A0038A819EE1A99FD0014F
:100EB0001124A851BE4F11968C9311978FEF9FEF7D
:100EC00050969C938E931F9754961C921E92539704
:100ED00052961C921E92519713968C9313971496C8
:100EE0008C93149756961C921E9255971E961C92A0
:100EF0001E921D9716961C9216978FEF9FE71A96D3
:100F00009C938E93199758961C921E9257975C96B5
:100F10001C921E925B975D961C925D9788EE93E003
:100F20001C969C938E931B97E091A701F091A801CA
:100F30000684F785E02DBD01CE01019609958FEF5E
:100F40009FEF9093A2038093A10381E00F900F90F5
:100F50000F900F900F90DF91CF9108954F925F9275
:100F60006F927F928F929F92AF92BF92CF92DF92B9
:100F7000EF92FF920F931F93CF93DF93CDB7DEB71E
:100F800060970FB6F894DEBF0FBECDBF009709F48F
:100F900060C38C016091B70170E080E090E00E9436
:100FA00026312AE037ED43E25CE30E94DB316983BE
:100FB0007A838B839C83F80180809180A280B380A8
:100FC000B7FE08C0B094A09490948094811C911CAA
:100FD000A11CB11CC501B4010E9426316B017C012A
:100FE0006091B0017091B10180E090E00E942431E5
:100FF0002B013C0126E636E646E65FE30E94DB3144
:1010000029813A814B815C810E94DB316D837E8333
:101010008F8398879B01AC01C701B6010E94D6312E
:1010200087FDCBC0A301920169817A818B819C816C
:101030000E94DB3169877A878B879C8720E030E0CC
:1010400040E85FE30E940A309B01AC01C701B60192
:101050000E94773087FFB1C06D817E818F81988536
:101060000E94EE306B017C01A5019401261B370B19
:10107000480B590BAEE3B0E00E94C62F4B015C0158
:1010800069857A858B859C850E94EE309B01AC0139
:101090002C193D094E095F09C501B4010E94A72F13
:1010A00069017A01FFEFCF1ADF0AEF0AFF0A560142
:1010B00061E083E00E942515C114D10411F460E0C1
:1010C00005C08FEFC816D10429F461E083E00E94C7
:1010D000C6148AC0EEE2F8E0E4918E2F90E0FC01A5
:1010E0003197EE30F10508F062C0EE55FF4F0C94D9
:1010F000FC3284B5806884BDC7BC76C084B580628C
:1011000084BDC8BC71C080918000806880938000DD
:10111000D0928900C092880067C080918000806270
:1011200080938000D0928B00C0928A005DC0809135
:101130009000806880939000D0929900C0929800AF
:1011400053C080919000806280939000D0929B0069
:10115000C0929A0049C0809190008860809390006E
:10116000D0929D00C0929C003FC08091C0008068DA
:101170008093C0008091C0008F7B8093C000C0929C
:10118000CF0032C08091C00080628093C000C092C6
:10119000D0002AC08091C20088608093C2008091F4
:1011A000C2008B7F8093C200C092D2001DC0E0E8D5
:1011B000AE16B1040CF089CF82CFA30192016981F0
:1011C0007A818B819C810E94DB3120E030E040E815
:1011D0005FE30E940A309B01AC01C701B6010E9487
:1011E000D63187FD6CCF71CF6091B20170E060584D
:1011F0007109072E000C880B990B0E94263120E004
:1012000030E04FE753E40E947C306B017C01609337
:10121000BF037093C0038093C1039093C20320E087
:1012200030E0A9010E94D63187FD1DC0A7019601BB
:1012300060E070E080E89FE30E940A306093BB03A7
:101240007093BC038093BD039093BE0380E090E055
:10125000A0E8BFE38093B7039093B803A093B903CA
:10126000B093BA0323C020E030E0A901C701B60162
:101270000E94773087FF1AC080E090E0A0E8BFE3CB
:101280008093BB039093BC03A093BD03B093BE03B4
:101290009C01AD01C701B6010E940B306093B703FA
:1012A0007093B8038093B9039093BA039091AF0100
:1012B000F801C080D180E280F380892F807491FD95
:1012C000E8C0811195C01C141D041E041F040CF0FD
:1012D00044C04090B0015090B1012091B3013091D1
:1012E000B4014901A12CB12C612C712CC301B201B4
:1012F0000E9424312091B7033091B8034091B90383
:101300005091BA030E94DB310E94EE3068197909CE
:101310008A099B09A70196010E94D832A301920174
:101320000E94A72FDA01C901880D991DAA1DBB1DB6
:10133000F80180839183A283B3832D982091A90122
:101340003091AA01808191812817390708F4C901D9
:1013500090938B0080938A0045C0C114D104E104AE
:10136000F10409F441C04090B0015090B101809166
:10137000B3019091B4014C01A12CB12CF094E094F4
:10138000D094C094C11CD11CE11CF11C612C712CA7
:10139000C301B2010E9424312091BB033091BC03F0
:1013A0004091BD035091BE030E94DB310E94EE309C
:1013B000681979098A099B09A70196010E94D83208
:1013C000A30192010E94A72FDA01C901880D991D7E
:1013D000AA1DBB1DF80180839183A283B3830E9461
:1013E0005B172E982F9A35C12D982E982F9831C1C2
:1013F000E091B001F091B1011C141D041E041F0402
:10140000DCF44F01969487948091B3019091B401DC
:10141000880E991EA12CB12C2F01612C712CC301B7
:10142000B201681979098A099B09A70196010E94EE
:10143000D832A301920119C0C114D104E104F1040E
:1014400011F14F01969487948091B3019091B4016A
:10145000881A990AA12CB12CA5019401C701B601E3
:101460000E94D8329F0140E050E00E94A72FDA018D
:10147000C901880D991DAA1DBB1DF80180839183A8
:10148000A283B38303C0CF01969587950E945B1713
:10149000DFC0811133C0F7FC02C02F9A01C02F9822
:1014A0008091B3019091B4016C01E12CF12C8090FA
:1014B000B0019090B101A12CB12CF80120813181B3
:1014C0004281538157FF07C0509540953095219533
:1014D0003F4F4F4F5F4FC501B4016C197D098E0915
:1014E0009F090E94D832A50194010E94A72FDA011A
:1014F000C9018C0D9D1DAE1DBF1D81C01C141D0496
:101500001E041F046CF520E030E040E85FE36091CA
:10151000AB017091AC018091AD019091AE010E9440
:101520000B3020910401309105014091060150914A
:1015300007010E94DB310E94EE304B015C0160919B
:1015400000017091010180910201909103010E94BC
:10155000EE30681979098A099B09A70196013FC0F5
:10156000C114D104E104F10409F44FC02091AB018E
:101570003091AC014091AD015091AE0160E070E05E
:1015800080E89FE30E940A30209104013091050118
:1015900040910601509107010E94DB310E94EE301C
:1015A0004B015C0122273327A9012C193D094E0963
:1015B0005F09609108017091090180910A01909181
:1015C0000B012D873E874F87588B0E94EE3068199C
:1015D00079098A099B092D853E854F8558890E9486
:1015E000D8322091B0013091B10140E050E00E942A
:1015F000A72FDA01C901880D991DAA1DBB1DF8018D
:1016000080839183A283B3830BC0609104017091A6
:10161000050180910601909107010E94F530CB01F0
:101620000E945B1760910401709105018091060191
:10163000909107010E94F5302091A9013091AA01F3
:101640002617370708F4B90170938B0060938A005E
:101650002E9860960FB6F894DEBF0FBECDBFDF9117
:10166000CF911F910F91FF90EF90DF90CF90BF909F
:10167000AF909F908F907F906F905F904F90089564
:101680006091A9017091AA0180E090E00E9424314C
:101690009B01AC0160E07EEF8FEF96E40E947C300E
:1016A00008952F923F924F925F926F927F928F9206
:1016B0009F92AF92BF92CF92DF92EF92FF920F93E1
:1016C0001F93CF93DF93CDB7DEB729970FB6F8946A
:1016D000DEBF0FBECDBF998788874B012B831D834B
:1016E0000C831701DF82CE82042F10E08C819D8154
:1016F0006C01E12CF12CE885F985F7FD2BC0C801C0
:101700009695982F882797958795BF01681B790B29
:10171000072E000C880B990B0E9426312B013C01EF
:10172000C701B6010E9424319B01AC01C301B20183
:101730000E947C302B013C01C8019695982F882788
:10174000979587959A838983EB8190E8E99FB0010B
:1017500011242AC0B8017695762F6627779567956C
:10176000E885F9856E0F7F1F072E000C880B990BFB
:101770000E9426312B013C01C701B6010E94243191
:101780009B01AC01C301B2010E947C302B013C01E2
:1017900060E86003C001619F900D11249A838983E2
:1017A0002B816203B001112488859985681B790B10
:1017B000072E000C880B990B0E9426316B017C01CF
:1017C000B10180E090E00E9424319B01AC01C7018F
:1017D000B6010E947C306B017C018A149B0408F4E2
:1017E0003FC08E819F818A0D9B1D88169906C0F58A
:1017F0000C811D810A0D1B1D8016910690F4B40109
:101800006A197B0980E090E00E9424319B01AC01C1
:10181000C301B2010E94DB310E94EE3089819A81BE
:101820001CC08219930988159905E8F48A189B0849
:10183000EE81FF818E1A9F0AB401620D731D80E054
:1018400090E00E9424319B01AC01C701B6010E94C7
:10185000DB310E94EE3088859985860F971F05C081
:1018600080E090E002C08885998529960FB6F894AB
:10187000DEBF0FBECDBFDF91CF911F910F91FF90C3
:10188000EF90DF90CF90BF90AF909F908F907F9020
:101890006F905F904F903F902F900895CF92DF927E
:1018A000EF92FF920F931F938B019C014091B00127
:1018B0005091B1016A01E12CF12C66277727CB0109
:1018C0006C197D098E099F09061717072807390724
:1018D0004CF0C901B801C016D106E206F30614F4B3
:1018E000C701B6011F910F91FF90EF90DF90CF904D
:1018F00008958F929F92AF92BF92CF92DF92EF9214
:10190000FF92CF93DF934B015C01EA010E940E0529
:101910006B017C01DE01A50194010E94D12F0E9480
:101920002631A70196010E94DB3120E030E040E043
:1019300051E40E94DB3120E030E040E251E40E94BB
:10194000DB3120E030E040E85BE30E94DB310E94C5
:10195000EE300E944E0C90958095709561957F4F6A
:101960008F4F9F4FDF91CF91FF90EF90DF90CF90FF
:10197000BF90AF909F908F9008954F925F926F921B
:101980007F928F929F92AF92BF92CF92DF92EF920F
:10199000FF92CF93DF9300D000D0CDB7DEB74B01DD
:1019A0005C0157FF02C04D5F5F4F6A01D594C79439
:1019B000D594C7940E940E0569837A838B839C8398
:1019C0009B01AC01C501B4010E94DB3120E030E095
:1019D00040E251E40E94DB312B013C0120E030E089
:1019E00040E85FE30E94D6310D2C000CEE08FF08A2
:1019F00018161CF4C701B60128C020E030E040E80A
:101A00005FEBC301B2010E94773087FF06C0C701B8
:101A1000B6010E944E0CCB011EC0C701B6010E9448
:101A200026319B01AC01C501B4010E94DB31298143
:101A30003A814B815C810E94DB3120E030E040E262
:101A400051E40E94DB310E94EE300E944E0C882748
:101A50009927861B970B0F900F900F900F90DF9197
:101A6000CF91FF90EF90DF90CF90BF90AF909F907D
:101A70008F907F906F905F904F9008958F929F927C
:101A8000AF92BF92CF92DF92EF92FF924B015C0137
:101A9000BA01550F880B990B0E9426316B017C010E
:101AA00020E030E0A901C501B4010E94D631A501B2
:101AB000940118160CF05058C701B6010E94DB3192
:101AC0006B017C010E940E059B01AC01C701B601B0
:101AD0000E94DB3120E030E040E851E40E94DB313D
:101AE00020E030E040E251E40E94DB3120E030E0D1
:101AF00040E05DE30E94DB310E94EE300E944E0C1C
:101B00006B017C0120E030E0A901C501B4010E9415
:101B1000D63118162CF4882799278C199D090DC0E9
:101B200020E030E0A901C501B4010E94773087FFB1
:101B300002C0C60102C080E090E0FF90EF90DF900D
:101B4000CF90BF90AF909F908F900895CF92DF92EB
:101B5000EF92FF92CF93DF936B017C01EA0120E0CB
:101B600030E0A9010E94D631181694F020E030E050
:101B7000A901C701B6010E94773087FF3AC020E073
:101B800030E0A901C701B6010E940B306B017C0156
:101B9000BE01DD0F880B990B0E9426319B01AC0121
:101BA000C701B6010E94DB316B017C010E940E056A
:101BB0009B01AC01C701B6010E94DB3120E030E09F
:101BC00040E851E40E94DB3120E030E040E251E4A3
:101BD0000E94DB3120E030E040E05BE30E94DB313B
:101BE0000E94EE300E944E0C88279927861B970B87
:101BF00002C080E090E0DF91CF91FF90EF90DF9006
:101C0000CF9008951F920F920FB60F9211248F93C9
:101C10009F93AF93BF938091540390915503A091EC
:101C20005603B0915703F8948093880490938904E5
:101C3000A0938A04B0938B047894BF91AF919F9145
:101C40008F910F900FBE0F901F9018951F920F92BB
:101C50000FB60F9211242F933F934F935F936F937F
:101C60007F938F939F93AF93BF93EF93FF930E94C4
:101C7000B417FF91EF91BF91AF919F918F917F9199
:101C80006F915F914F913F912F910F900FBE0F90E9
:101C90001F9018951F920F920FB60F9211242F9339
:101CA0003F934F935F936F937F938F939F93AF93E4
:101CB000BF93EF93FF930E94B417FF91EF91BF91F1
:101CC000AF919F918F917F916F915F914F913F91D4
:101CD0002F910F900FBE0F901F901895CF92DF920B
:101CE000EF92FF920F931F93CF93DF931F92CDB785
:101CF000DEB7F82EE42E8B01C82ED92E8C2D8F192D
:101D00008E1588F4F80161918F01C60169830E94E4
:101D1000912F6981681719F0C6010E94992FFFEF72
:101D2000CF1ADF0AEBCF0F90DF91CF911F910F9168
:101D3000FF90EF90DF90CF900895EF92FF921F9366
:101D4000CF93DF93EC01162FE881F9810480F581B0
:101D5000E02D09957C01E881F9810680F781E02D6D
:101D6000612FCE010995C7019927DF91CF911F916E
:101D7000FF90EF900895FC0191818081813A29F4D0
:101D80009D7F81E0913091F414C0813279F49A30D2
:101D900049F09B3019F0993049F40AC08281809350
:101DA0000F0106C0828180930E0102C080E0089579
:101DB00081E00895CF92DF92EF92FF920F931F93ED
:101DC000CF93DF931F92CDB7DEB78B016B017C0100
:101DD000E61AF70A9C2D901B941758F4C7018C0D36
:101DE0009D1D49830E94912FF60181936F014981C6
:101DF000F1CF0F90DF91CF911F910F91FF90EF9056
:101E0000DF90CF9008958F929F92AF92BF92CF9222
:101E1000DF92EF92FF9240E050E020E0682F70E008
:101E2000812C912C54018394FA013296DB0102C07B
:101E3000B595A795EA95E2F775016401042E04C0F3
:101E4000CC0CDD1CEE1CFF1C0A94D2F7A0FF02C0D4
:101E50002C2902C0C0942C214F5F5F4F44305105A4
:101E600019F730E0220F331FF901E75CFE4F80FFC6
:101E700005C0808191819695879502C0808191816E
:101E8000FF90EF90DF90CF90BF90AF909F908F909A
:101E90000895FC01CB012091E80022FFFCCF282F00
:101EA000215028F03091F10030833196F9CF24E6AB
:101EB0002093C3032BEF2093E80008950F931F9303
:101EC000CF93DF93DB01A40FB51FFB016EEFEA1781
:101ED000FB0791F187FF02C0249101C0208100918E
:101EE000C7031091C803C091C503D091C6030C1756
:101EF0001D07B4F49091E8009570E1F39091E8002B
:101F000092FD1CC02093F1002091C7033091C803BB
:101F10002F5F3F4F2F733327232B11F46093E8007B
:101F20002091C7033091C8032F5F3F4F3093C80300
:101F30002093C7033196CBCFCA0102C08FEF9FEF2A
:101F4000DF91CF911F910F91089542E450E06AE133
:101F500072E080E80E945E0F40E250E06CE572E0C3
:101F600080E80E945E0F83E090E008951F920F9238
:101F70000FB60F921124EF92FF921F932F933F936E
:101F80004F935F936F937F938F939F93AF93BF9381
:101F9000EF93FF93CF93DF93CDB7DEB76197DEBFAB
:101FA000CDBF1092E9008091E80083FF59C1FE0186
:101FB0003A96CF0128E02E0F2E1729F03091F1002C
:101FC00030833196F9CF24E62093C30322EF209388
:101FD000E8002A8527FF05C03091E80030FFFCCFDC
:101FE00003C03EEF3093E800322F307609F0C5C0D1
:101FF0008B85811105C01092F1001092F10029C16A
:10200000982F9D7F913009F424C1853049F4809147
:10201000E80080FFFCCF8C8580688093E30019C1C5
:10202000863009F07CC01D85E888F9881092E900A7
:102030001092C8031092C703123091F51092C60394
:102040001092C5030E94A50F99E0BE016F5F7F4FFC
:10205000FB01292F11922A95E9F799831A8391E0C0
:102060009E8390E898879AEF99872091C7033091D3
:10207000C803275F3F4F3C832B838D831092E90079
:102080001092C8031092C703F092C603E092C503F2
:1020900049E050E080E00E945E0F0E94A50FD9C089
:1020A000F092C603E092C503123259F441EE54E0B7
:1020B0006CE772E080E80E945E0F892B09F0C9C0CE
:1020C000CCC0113069F488899989089711F410936C
:1020D000C4038091C403811111C06BE977E016C07D
:1020E000133009F0BAC08C85882359F0823061F032
:1020F000813009F0B2C06DE577E008C06DEA77E0A5
:1021000005C065E777E002C069E777E06115710512
:1021100009F4A3C0FB01449150E080E849C0873036
:1021200009F49BC0883021F481E08093F10091C0D4
:10213000893009F08EC0237009F08FC080E090E0F4
:1021400031E026E341E0480F4093E9003093EB0093
:102150000196FC01E154F84FE491E093EC002093E8
:10216000ED008530910571F78EE78093EA001092BB
:10217000EA008C858093A6016CC028893989109269
:10218000E9001092C8031092C7033093C60320934E
:10219000C5032E85211154C08B859A85913A59F437
:1021A000813209F05AC047E050E060E171E080E020
:1021B0000E945E0F4EC0913209F04FC0803239F458
:1021C00067E070E080E191E00E94490F42C08232F6
:1021D00009F043C08C858093170180911001909184
:1021E0001101A0911201B0911301803B9440A1050F
:1021F000B10579F58091170180FD11C087E797E758
:1022000090930108809300089BE088E10FB6F89452
:10221000A895809360000FBE909360001AC00FB61F
:10222000F894A89580916000886180936000109276
:1022300060000FBEA895109201081092000809C016
:10224000223059F4E0913505F0913605099588233F
:1022500021F08EEF8093E80003C081E28093EB00D1
:1022600061960FB6F894DEBF0FBECDBFDF91CF9160
:10227000FF91EF91BF91AF919F918F917F916F915E
:102280005F914F913F912F911F91FF90EF900F9091
:102290000FBE0F901F9018958F929F92AF92BF9292
:1022A000CF92DF92EF92FF920F931F93CF93DF9322
:1022B00000D01F92CDB7DEB7382F8B018091A601D9
:1022C000882389F04A018AEFF82E832F8770E82E41
:1022D00090E4C92E832F8072B82E2AE3D22E832F4A
:1022E0008074A82E21C08FEF9FEF5FC08FB7F89446
:1022F000E092E9009091E80095FF1AC09091F200F9
:102300002C2D291B8FBF211115C0FA94FF2059F3E2
:1023100061E070E080E090E039834A835B830E9453
:10232000B11539814A815B8181149104F9F634C079
:1023300020E0E8CF822F90E0881699060CF4282D33
:10234000822F90E0881A990A6FB7F894E092E9001A
:10235000BB2029F02150A8F01092F100FBCFF8012A
:1023600037FF07C0215058F074917093F1003196F7
:10237000F9CF215020F071917093F100FACF080F3E
:10238000191F8091E80085FF0DC08114910411F49C
:10239000A11008C06FBFC8CF5D9884E68093C903C1
:1023A000CA0103C0D092E800F5CF0F900F900F90B4
:1023B000DF91CF911F910F91FF90EF90DF90CF9021
:1023C000BF90AF909F908F9008959091A601992310
:1023D00011F057FF03C08FEF9FEF08952FB7F894C8
:1023E00087708093E9008091F20090E08417950750
:1023F0000CF4AC01842FFB0194E6815030F09093F3
:10240000C3033091F1003193F8CF4115510521F00C
:102410008091F200882319F02FBFCA0108958BE63E
:102420008093E800F9CF1F920F920FB60F921124FC
:102430002F933F934F935F936F937F938F939F93CC
:10244000AF93BF93EF93FF93CF93DF93CDB7DEB7F7
:10245000C054D109DEBFCDBF8091E1001092E100F0
:1024600083FF0FC01092E90091E09093EB0010926F
:10247000EC0092E39093ED001092A60198E0909307
:10248000F00082FF46C083E08093E9008091F20073
:10249000882319F08AE38093E8009FB7F89482E0DC
:1024A0008093E9008091F2009FBF882321F08DE89E
:1024B00094E00E948B149FB7F89485E08093E90024
:1024C0008091F2009FBF8823C1F0809137059091E1
:1024D0003805892B91F040E450E0BE016F5F7F4FDB
:1024E00085E00E94E51197FD08C0E0913705F09165
:1024F0003805BC01CE01019609958091C903882356
:1025000041F08091C90381508093C903811101C0BA
:102510005D9AC05CDF4F0FB6F894DEBF0FBECDBF33
:10252000DF91CF91FF91EF91BF91AF919F918F91EB
:102530007F916F915F914F913F912F910F900FBEBF
:102540000F901F901895EF92FF920F931F93CF93C8
:10255000DF931F92CDB7DEB789838B017A0141E00B
:1025600050E0BE016F5F7F4F84E00E944C11A701D5
:10257000B80184E40E944C110F90DF91CF911F911C
:102580000F91FF90EF900895DC01683810F06858C3
:1025900025C0E62FF0E067FF12C0E058F10981E0A6
:1025A00090E001C0880FEA95EAF7809514969C9117
:1025B0001497892314968C93149760E00FC0E65605
:1025C000FE4F6491662311F167FF08C014968C9149
:1025D00014978D7F14968C9314976F77FD01369620
:1025E00086E0662321F09081961301C0108281500D
:1025F00031968111F6CFBD016C5F7F4F48E050E00E
:1026000082E00E94A31281E090E0089580E090E0D3
:102610000895FC0116821782108611861286138691
:102620001482BC016C5F7F4F48E050E082E00C9464
:10263000A312DC01683810F068582DC0E62FF0E0D6
:1026400067FF11C0E058F10981E090E001C0880FF8
:10265000EA95EAF714969C911497892B14968C931B
:10266000149760E018C0E656FE4F6491611109C0EE
:1026700081E090E013969C938E93129780E090E017
:10268000089567FF08C014968C9114978260149681
:102690008C9314976F7716968C911697861751F135
:1026A00017968C911797861729F118968C91189781
:1026B000861701F119968C9119978617D9F01A96F9
:1026C0008C911A978617B1F01B968C911B978617E1
:1026D00089F0FD01369680E090E02191211105C03E
:1026E000FD01E80FF91F668305C00196863091054C
:1026F000A1F7BECFBD016C5F7F4F48E050E082E0A4
:102700000E94A31281E090E00895CF92DF92EF92B1
:10271000FF920F931F93CF93DF936C01EB017B012B
:10272000E40EF51E00E010E0CE15DF0561F06991C2
:10273000D601ED91FC910190F081E02DC601099543
:10274000080F191FF1CFC801DF91CF911F910F9191
:10275000FF90EF90DF90CF90089583E08093E900A1
:102760008091F200882319F08AE38093E8000895AD
:102770002091820430918304809184049091850497
:1027800028173907A9F0E0918404F0918504EE5BE5
:10279000FB4F808120918404309185042F5F3F4F4F
:1027A0002F733327309385042093840490E0089599
:1027B0008FEF9FEF089520918204309183048091E0
:1027C0008404909185042817390749F0E091840426
:1027D000F0918504EE5BFB4F808190E008958FEFD0
:1027E0009FEF089580918204909183042091840446
:1027F00030918504821B930B8F739927089585ED83
:102800008093BC008091BC0084FDFCCF1092130427
:1028100008954091ED03262F30E0240F311D213221
:102820003105DCF4209113042430C9F4FC0180E06C
:1028300090E0861758F43091ED032191DC01A55307
:10284000BC4FA30FB11D2C930196F3CF8091ED03E4
:10285000680F6093ED0380E0089581E0089582E0C1
:10286000089508958FEF9FEF08958FEF9FEF0895DC
:102870008091CA0390E09195819591090895CF9335
:10288000DF9300D0CDB7DEB7CB01642F49835A83E5
:102890000E9409144981842F5A81952F0F900F901F
:1028A000DF91CF910895CF93DF931F92CDB7DEB71D
:1028B000698361E0CE0101960E94091481E090E0F5
:1028C0000F90DF91CF9108950E9409330F931F93CA
:1028D000CF93DF931F92CDB7DEB78C0169838091D0
:1028E0001701882359F041E050E0BE016F5F7F4F30
:1028F00083E00E944C11181619063CF081E090E02C
:10290000F8019383828380E090E00F90DF91CF9174
:102910001F910F9108950F931F93CF93DF931F92F1
:10292000CDB7DEB700918204109183040F5F1F4F73
:102930000F7311278091840490918504081719075B
:10294000F9F041E050E0BE016F5F7F4F82E00E94EE
:10295000E511019719F4898190E002C08FEF9FEF94
:102960008F3F2FEF920761F0E0918204F091830492
:10297000EE5BFB4F80831093830400938204D2CFDD
:102980000F90DF91CF911F910F910895362F90E016
:10299000FC01E55DF74F4491FC01E45FF74F2491A2
:1029A000FC01E351F84F8491882309F44DC044237E
:1029B000C1F150E0FA013197EE30F10590F5E055A4
:1029C000FF4F0C94FC32909180009F7703C0909150
:1029D00080009F7D9093800024C094B59F7702C0B3
:1029E00094B59F7D94BD1DC0909190009F7707C0C6
:1029F000909190009F7D03C090919000977F90935D
:102A000090000FC09091C0009F7703C09091C000CC
:102A10009F7D9093C00005C09091C200977F9093D6
:102A2000C200E82FF0E0EE0FFF1FE152F84FA59132
:102A3000B4918FB7F894EC91311103C020952E23F7
:102A400001C02E2B2C938FBF0895CF93DF9390E07E
:102A5000FC01E45FF74F2491FC01E351F84F8491AE
:102A6000882361F190E0880F991FFC01EF52F84F25
:102A7000C591D491FC01E152F84FA591B491611137
:102A800009C09FB7F8948881209582238883EC91B0
:102A90002E230BC0623061F49FB7F8943881822FE7
:102AA000809583238883EC912E2B2C939FBF06C0A7
:102AB0008FB7F894E8812E2B28838FBFDF91CF91B9
:102AC0000895823108F08251E82FF0E0EB53F84F7F
:102AD000E49180917B00E3FB222720F930E095E030
:102AE000220F331F9A95E1F78F7D282B20937B00CF
:102AF000E770E064E0937C0080917A0080648093CA
:102B00007A0080917A0086FDFCCF80917800209138
:102B1000790090E0922B08953FB7F89480913E049D
:102B200090913F04A0914004B091410426B5A89B28
:102B300005C02F3F19F00196A11DB11D3FBFBA2F4F
:102B4000A92F982F8827820F911DA11DB11DBC01AF
:102B5000CD0142E0660F771F881F991F4A95D1F774
:102B60000895CF92DF92EF92FF92CF93DF936B01A4
:102B70007C010E948C15EB01C114D104E104F10425
:102B800079F00E948C156C1B7D0B683E7340A0F39E
:102B900081E0C81AD108E108F108C851DC4FECCF38
:102BA000DF91CF91FF90EF90DF90CF9008952FB7F6
:102BB000F89460913A0470913B0480913C049091A8
:102BC0003D042FBF08951F920F920FB60F9211244C
:102BD0002F933F938F939F93AF93BF9380913A042A
:102BE00090913B04A0913C04B0913D043091390494
:102BF00023E0230F2D3720F40196A11DB11D05C040
:102C000026E8230F0296A11DB11D2093390480935D
:102C10003A0490933B04A0933C04B0933D0480910C
:102C20003E0490913F04A0914004B091410401966C
:102C3000A11DB11D80933E0490933F04A0934004D6
:102C4000B0934104BF91AF919F918F913F912F918C
:102C50000F900FBE0F901F9018951F920F920FB6F6
:102C60000F9211242F933F934F935F936F937F9312
:102C70008F939F93AF93BF93EF93FF938091B9008E
:102C8000887F803609F49CC068F5883209F45BC0FF
:102C900090F4803109F454C038F4882309F4F6C064
:102CA000883009F44DC0F6C0883109F44CC0803238
:102CB00009F45DC0EFC0803409F468C048F4803383
:102CC00009F455C0883309F0E5C080931204D8C0D8
:102CD000803509F44FC0883509F45DC0883409F0A7
:102CE000D9C0D6C0883909F4C7C0A8F4883709F418
:102CF00067C038F4883609F463C0803709F460C0CF
:102D0000C9C0883809F4B8C0803909F45FC0803878
:102D100009F0C0C05BC0803B09F486C038F4803A3B
:102D200009F466C0883A09F47FC0B4C0803C09F455
:102D3000A7C0883C09F4A4C0883B09F48AC0AAC093
:102D40008091380410C09091370480913604981710
:102D500070F5E091370481E08E0F80933704F0E046
:102D6000EA5EFB4F80818093BB0085EC86C0809338
:102D700012048EC0E091370481E08E0F80933704F7
:102D80008091BB00F0E0EA5EFB4F808390913704B6
:102D9000809136046EC0E091370481E08E0F8093FD
:102DA00037048091BB00F0E0EA5EFB4F80838091A6
:102DB000150481116DC081E08093140484EA61C020
:102DC00083E08093130410921104CFCF80911104FB
:102DD000803208F051C0E091110481E08E0F8093A1
:102DE00011048091BB00F0E0EF50FC4F8083BDCF19
:102DF00085EC8093BC001092130480911104803202
:102E000030F4E0911104F0E0EF50FC4F108260913B
:102E1000110470E0E091EF03F091F00381EF93E093
:102E200009951092110436C084E080931304109227
:102E3000EE031092ED03E091EB03F091EC030995A2
:102E40008091ED03811105C081E08093ED03109224
:102E5000CB03E091EE0381E08E0F8093EE03F0E070
:102E6000E553FC4F80818093BB009091EE038091ED
:102E7000ED03981708F479CF85E88093BC000AC069
:102E800085EC8093BC001092130404C010921204CD
:102E90000E94FF13FF91EF91BF91AF919F918F918E
:102EA0007F916F915F914F913F912F910F900FBE46
:102EB0000F901F9018952091A9013091AA01281711
:102EC000390708F4C9019093890080938800089518
:102ED000009769F0FC0101900020E9F73197AF01FC
:102EE000481B590BBC018DE894E00C94851380E0DD
:102EF00090E008950F931F930E94D7156093950457
:102F0000709396048093970490939804E0918D04B5
:102F1000F0918E040084F185E02D8DE894E0099510
:102F200097FF1FC00E94D715009195041091960439
:102F30002091970430919804DC01CB01801B910B08
:102F4000A20BB30B00919104109192042091930471
:102F50003091940480179107A207B307B8F28FEF5E
:102F60009FEF1F910F91089590918C0489B18C70FF
:102F7000892B90E09C0135952795359527952093D1
:102F80008C04409188045091890460918A04709166
:102F90008B04FC01ED5AFE4F8081082E000C990B2A
:102FA000AA0BBB0B840F951FA61FB71F8093880425
:102FB00090938904A0938A04B0938B048091870432
:102FC0000895E0918D04F0918E040190F081E02D40
:102FD000682F8DE894E00994CF93DF938DE00E94F1
:102FE000E117EC018AE00E94E1178C0F9D1FDF9131
:102FF000CF9108958F929F92AF92BF92EF92FF92DE
:103000000F931F93CF93DF93CDB7DEB7A1970FB682
:10301000F894DEBF0FBECDBF162F042F19A2423089
:1030200008F40AE07E0121E2E20EF11C802E912CD0
:10303000A12CB12C612FA50194010E94D92F029FD0
:103040001019112481E0E81AF1081A3014F4105D07
:1030500001C0195CF7011083122F732FCA01232BB3
:10306000242B252B39F7C7010E946817A1960FB6AC
:10307000F894DEBF0FBECDBFDF91CF911F910F91AE
:10308000FF90EF90BF90AF909F908F900895CF9258
:10309000DF92EF92FF92CF93DF9397FF19C06B01FE
:1030A0007C018DE20E94E117EC0166277727CB01B6
:1030B0006C197D098E099F094AE00E94FA178C0F4E
:1030C0009D1FDF91CF91FF90EF90DF90CF900895FB
:1030D0004AE0DF91CF91FF90EF90DF90CF900C947A
:1030E000FA17CF93DF93BC01990F880B990B0E94BD
:1030F0004718EC010E94EC178C0F9D1FDF91CF91B8
:103100000895BC01990F880B990B0C944718682FF0
:1031100070E080E090E04AE00C94FA170C94681795
:10312000FF920F931F93CF93DF9300D000D0CDB7C2
:10313000DEB70E947A17FC0197FD11C08D32910510
:1031400091F0C0970A9778F0E0918D04F0918E0489
:103150000680F781E02D8DE894E00995EACF60E0E4
:1031600070E0CB014CC020E030E0A901F12CE1304F
:10317000F105F1F0ED32F105C9F0CF01C0970A97E2
:10318000B8F4AAE0B0E00E94C62F8F01FF0F220B17
:10319000330BDC01CB01800F911FA21FB31F9C01D9
:1031A000AD01205331094109510902C0FF24F394B4
:1031B000E0918D04F0918E040680F781E02D8DE87A
:1031C00094E029833A834B835C8309950E947A17A4
:1031D000FC01C09729813A814B815C810A9738F2C2
:1031E000E130F10521F2FF2041F066277727CB017E
:1031F000621B730B840B950B02C0CA01B9010F90BF
:103200000F900F900F90DF91CF911F910F91FF9032
:103210000895CF93DF93CDB7DEB7EE970FB6F8944E
:10322000DEBF0FBECDBF789484B5826084BD84B507
:10323000816084BD85B5826085BD85B5816085BDB1
:1032400080916E00816080936E0010928100809169
:1032500081008260809381008091810081608093F1
:103260008100809180008160809380008091910036
:1032700082608093910080919100816080939100A1
:10328000809190008160809390008091C100846063
:103290008093C1008091C10082608093C1008091C1
:1032A000C10081608093C1008091C30081608093E0
:1032B000C3008091C00082608093C0008091C200F2
:1032C00081608093C20080917A00846080937A004C
:1032D00080917A00826080937A0080917A00816088
:1032E00080937A0080917A00806880937A001092AF
:1032F000A60181E08093D70080EA8093D80082E124
:1033000089BD09B400FEFDCF61E070E080E090E08F
:103310000E94B11580E98093D8001CE01093E20070
:103320001092E0001092800310927F0310928503A8
:1033300010928603109287031092880310927A03EA
:1033400010927903109292031092930310929403B7
:103350001092950310928E0310928F031092900397
:103360001092910342E0BE01615F7F4F80E090E0E8
:103370000E94DA0E8F8598898A3F910509F407C16A
:103380008AEF90E09E878D8742E0BE01635F7F4FAA
:1033900080E090E00E946E0E19821A821B821C82CD
:1033A00044E0BE016F5F7F4F82E090E00E946E0EAE
:1033B00088E394E09E878D8742E0BE01635F7F4F84
:1033C00086E090E00E946E0E84E6898B41E0BE01AB
:1033D0006F5E7F4F88E090E00E946E0E41E0BE017C
:1033E0006F5E7F4F8BE090E00E946E0E41E0BE0169
:1033F0006F5E7F4F8CE090E00E946E0E41E0BE0158
:103400006F5E7F4F80E190E00E946E0E41E0BE0152
:103410006F5E7F4F8DE090E00E946E0E82E3898B9D
:1034200041E0BE016F5E7F4F89E090E00E946E0E2A
:1034300041E0BE016F5E7F4F8AE090E00E946E0E19
:1034400041E0BE016F5E7F4F8EE090E00E946E0E05
:1034500086E4898B41E0BE016F5E7F4F8FE090E094
:103460000E946E0E1E861D8642E0BE01635F7F4F86
:1034700081E190E00E946E0E8FEF97E09E878D872E
:1034800042E0BE01635F7F4F83E190E00E946E0ED9
:103490008FEF9FE09E878D8742E0BE01635F7F4F85
:1034A00085E190E00E946E0E80E8898B41E0BE01CC
:1034B0006F5E7F4F87E190E00E946E0E81E0898B06
:1034C00041E0BE016F5E7F4F88E190E00E946E0E8A
:1034D00080E699E0A0E0B0E089839A83AB83BC8367
:1034E00044E0BE016F5F7F4F89E190E00E946E0E65
:1034F000198B41E0BE016F5E7F4F8DE190E00E942D
:103500006E0E1E861D8642E0BE01635F7F4F8AE21B
:1035100090E00E946E0E42E0BE01635F7F4F8EE23C
:1035200090E00E946E0E42E0BE01635F7F4F82E337
:1035300090E00E946E0E42E0BE01635F7F4F86E323
:1035400090E00E946E0E8FEF93E09E878D8742E0A1
:10355000BE01635F7F4F8CE290E00E946E0E42E0FE
:10356000BE01635F7F4F80E390E00E946E0E42E0F9
:10357000BE01635F7F4F84E390E00E946E0E42E0E5
:10358000BE01635F7F4F88E390E00E946E0E42E0D1
:1035900065EB71E086E090E00E94DA0E44E06DE5B4
:1035A00073E089E190E00E94DA0E41E067EB71E0A0
:1035B00088E090E00E94DA0E41E064E673E089E082
:1035C00090E00E94DA0E41E062E673E08AE090E06B
:1035D0000E94DA0E41E067E673E08BE090E00E9423
:1035E000DA0E41E066E673E08CE090E00E94DA0ECD
:1035F00041E065E673E08DE090E00E94DA0E41E084
:1036000063E673E08EE090E00E94DA0E41E068E647
:1036100073E08FE090E00E94DA0E41E061E673E033
:1036200080E190E00E94DA0E41E062EB71E087E118
:1036300090E00E94DA0E41E06DE873E088E190E0EE
:103640000E94DA0E42E063EB71E081E190E00E94BB
:10365000DA0E42E060EB71E083E190E00E94DA0E66
:1036600042E06BE573E085E190E00E94DA0E41E014
:103670006FEA71E08DE190E00E94DA0E42E061E8CD
:1036800073E08AE290E00E94DA0E42E063E873E0C1
:103690008CE290E00E94DA0E42E069E873E08EE28C
:1036A00090E00E94DA0E42E06BE873E080E390E085
:1036B0000E94DA0E42E06BE773E082E390E00E9442
:1036C000DA0E42E06DE773E084E390E00E94DA0EE8
:1036D00042E065E773E086E390E00E94DA0E42E0A4
:1036E00067E773E088E390E00E94DA0E60915D0383
:1036F00070915E0380915F03909160030E94263178
:1037000020E030E044EB53E40E947C306B017C010C
:103710008091B5019091B601BC01990F880B990B6E
:103720000E9426319B01AC01C701B6010E94DB312A
:103730000E94EE30609350037093510380935203C4
:10374000909353036B017C01F594E794D794C7944D
:10375000C0925403D0925503E0925603F09257035F
:1037600062E080E00E94251562E081E00E9425155C
:1037700062E082E00E942515809169008C60809350
:103780006900E99A10928704C0928804D092890453
:10379000E0928A04F0928B0410928C044A9B05C03C
:1037A00080918C04816080938C044B9B05C0809138
:1037B0008C04826080938C04809169008F7C80618E
:1037C00080936900EA9A809169008F738064809386
:1037D0006900EB9A60E082E10E94251560E083E1D8
:1037E0000E94251560E084E10E94251560E085E1D6
:1037F0000E94251562E084E00E94251562E086E1C2
:103800000E94251562E087E10E94251562E08CE0A8
:103810000E942515579A6E9A249A3E9A88E191E063
:103820009093A8018093A7018AED96E090933605C6
:103830008093350586E795E09093380580933705AA
:10384000279A1091AF01812F0E94030F5C01909382
:10385000AA018093A9019093B1018093B001609176
:10386000B3017091B40180E090E00E9424316B01BB
:103870007C01B50180E090E00E9424319B01AC0105
:10388000C701B6010E947C306093AB017093AC011C
:103890008093AD019093AE01012F017010FD05C022
:1038A00020E030E04AEF54E404C020E030E04AE792
:1038B00054E4609108017091090180910A0190918E
:1038C0000B010E94DB316093080170930901809322
:1038D0000A0190930B01011105C020E030E04AEF8E
:1038E00054E404C020E030E04AE754E4609104016D
:1038F0007091050180910601909107010E94DB31D2
:103900006093040170930501809306019093070171
:10391000011105C020E030E04AEF54E404C020E08B
:1039200030E04AE754E46091000170910101809118
:103930000201909103010E94DB31609300017093BA
:103940000101809302019093030110928000109274
:10395000810010926F0016BA8091A9019091AA017E
:1039600090938700809386001092890010928800BF
:1039700010928B0010928A008091AF018274823481
:1039800021F480918100826003C080918100816078
:10399000809381008091AF0180FF09C080918000F9
:1039A00082608093800080918100806108C0809156
:1039B0008000826080938000809181008861809384
:1039C000810080E090E00E945B1780918000806819
:1039D00080938000259A10928B0010928A0080912B
:1039E0008000806280938000269A61E083E00E94DC
:1039F000251513E061E083E00E94C61464E170E0E5
:103A000080E090E00E94B11560E083E00E94C6145F
:103A100064E170E080E090E00E94B115115051F730
:103A200010926F0310927003109271031092720340
:103A30008FE693E00E94AE07809154039091550366
:103A4000A0915603B0915703F89480938804909303
:103A50008904A0938A04B0938B04789410926E0327
:103A600010926D038FEF97E090935A038093590360
:103A70008091B201809358030E948C156093960345
:103A80007093970380939803909399030E948C15E9
:103A900060939F047093A0048093A1049093A20468
:103AA00000919A0310919B0320919C0330919D03F8
:103AB0006B017C01C01AD10AE20AF30AC0929B048E
:103AC000D0929C04E0929D04F0929E040091960393
:103AD0001091970320919803309199036B017C0119
:103AE000C01AD10AE20AF30A40EDC41647E0D40630
:103AF000E104F10410F40C94F12E6093960370939A
:103B000097038093980390939903F8948091880485
:103B100090918904A0918A04B0918B04789440918B
:103B20005403509155036091560370915703841BC1
:103B3000950BA60BB70B8093920390939303A093DE
:103B40009403B093950380938E0390938F03A09377
:103B50009003B093910310918D0315FB882780F992
:103B600016FD826017FF02C084601DC08130D9F449
:103B70006A017B01C094D094E094F0949A01AB0167
:103B80002C193D094E095F096091850370918603E8
:103B900080918703909188030E94D8322FEF3FEFE6
:103BA00040E050E032C0823059F46A017B01C09499
:103BB000D094E094F094A0917F03B091800319C059
:103BC000833059F46A017B01C094D094E094F0945E
:103BD000A0917903B0917A030CC0843021F56A0179
:103BE0007B01C094D094E094F094A0917303B091C1
:103BF00074039A01AB012C193D094E095F090E941B
:103C0000D12F2FEF3FE040E050E00E94A72FC20EDF
:103C1000D31EE41EF51EC0928E03D0928F03E09255
:103C20009003F092910380908E0390908F03A09068
:103C30009003B09091038091A8049091A904A09161
:103C4000AA04B091AB048092A8049092A904A09217
:103C5000AA04B092AB042091B004222309F449C015
:103C60000091D90454E0059F90011124B9016855D1
:103C70007B4F7B01A5019401281B390B4A0B5B0B81
:103C8000CA01B9010E942631D70119966D937D931F
:103C90008D939C931C97F02EBAE0EB2E60E070E0C1
:103CA000CB01B4E0FB9EF0011124E855FB4F2185C8
:103CB0003285438554850E940B30FF2011F0FA9421
:103CC00002C0A9E0FA2EEA94E110EBCF20E030E048
:103CD00040E251E40E947C300F5F0A3018F40093F8
:103CE000D90402C01092D9046EA37FA388A799A714
:103CF0000FC081E08093B0041092AC041092AD0428
:103D00001092AE041092AF041EA21FA218A619A60C
:103D10002091DA043091DB044091DC045091DD0401
:103D20008EA19FA1A8A5B9A58093DA049093DB0486
:103D3000A093DC04B093DD048091E204882309F4AD
:103D400044C000913305E4E00E9FC0011124BC0182
:103D50006F547B4F7B016EA17FA1CD010E940A3081
:103D6000D701D2966D937D938D939C93D597F02E2A
:103D7000F4E1EF2E60E070E0CB01B4E0FB9EF001D7
:103D80001124EF54FB4F22A933A944A955A90E943D
:103D90000B30FF2011F0FA9402C0E3E1FE2EEA940A
:103DA000E110EBCF20E030E040EA51E40E947C30AB
:103DB0000F5F043118F40093330502C010923305ED
:103DC0006EA77FA788AB99AB0FC081E08093E20418
:103DD0001092DE041092DF041092E0041092E104CD
:103DE0001EA61FA618AA19AA80913405882359F186
:103DF00010FF0BC70E94400B9B01AC0160E070E01C
:103E000080E094E40E947C306B017C016091680347
:103E100070E080E090E00E9426319B01AC01C70178
:103E2000B6010E94DB3120E030E048EC52E40E9411
:103E30007C300E94EE30AB01C501B4010E94790CC8
:103E40002B013C01E5C6ECEBF1E0FDA3ECA31F8ADE
:103E50001E8A412C512C32010E891F890F5F1F4F82
:103E60001F8B0E8B4EE19801429F8001439F100DE6
:103E7000112408511E4FD8018C918370833009F0B2
:103E8000B7C60E94400B6B017C01F8012185328589
:103E9000A789B08D0E9402332FEF3FE740E050E04A
:103EA0000E94A72FCA01B9010E942631A7019601DD
:103EB0000E947C300E94EE309B01AC01D8011B9621
:103EC0008D919C911C97059730F4E4E0F0E01C96EE
:103ED000FC93EE931B976EE1E62ECE88DF88EC9C78
:103EE000F001ED9CF00D1124E851FE4FE1818E2F81
:103EF00090E0FC013197ED30F10508F063C6EA5A15
:103F0000FF4F0C94FC320E94400B6A8B7B8B8C8B96
:103F10009D8B2EE10E891F89209FC001219F900D4E
:103F20001124AC0148515E4F1A01DA0119968D90A7
:103F30009C901A975596AD90BC9056971F96CD9031
:103F4000DC9050975196ED90FC90529753960D91BE
:103F50001C91549714962C91149713964C91139787
:103F600057968D919C915897ECA1FDA1608171812C
:103F70000E94510B9401DC010E9402332FEF3FE7B6
:103F800040E050E00E94A72FCA01B9010E942631EB
:103F90002A893B894C895D890E947C300E94EE30E1
:103FA0000E944E0C9B01AC01A0916703B0E00E94FF
:103FB000C62F24E630E040E050E00E94A72F421ACE
:103FC000530A640A750A6EC10E94400B6A8B7B8B90
:103FD0008C8B9D8BBEE1EB2ECE88DF88EC9CF001B4
:103FE000ED9CF00D1124E851FE4F01851285198FCB
:103FF000088FC588D688DD8ECC8EE784F088F9A23C
:10400000E8A2018912891BA70AA7038914891AAF9C
:1040100009AF84809380ACA1BDA12D903C90078511
:1040200010896085A7800A2C000CBB08062E000CA6
:10403000770B6A197B09CB01770FAA0BBB0B66279D
:10404000782F892F9A2F0E9426316B017C01B801AD
:1040500080E090E00E94243120E030E04AE754E420
:104060000E947C309B01AC01C701B6010E947C30EC
:104070006B017C01C101B8010E94E832BC0180E003
:1040800090E00E94243120E030E04AE754E40E94AE
:104090007C309B01AC01C701B6010E94DB310E945C
:1040A000EE30BA2CAA24C501860F971FAC8CBD8CAC
:1040B000C8A0D9A0EAA4FBA409AD1AAD282D492DAA
:1040C000B1010E94510B288D398DDC010E94023311
:1040D0002FEF3FE740E050E00E94A72FCA01B9014F
:1040E0000E9426312A893B894C895D890E947C3057
:1040F0000E94EE300E944E0C461A570A680A790A4E
:1041000061C50E94400B688F798F8A8F9B8FAEE1CB
:10411000CA2EEE89FF89CE9EC001CF9E900D11243C
:104120008C0108511E4F1801D80119960D90BC91B1
:10413000A02DBD8FAC8FF801038CF48DE02DF9A379
:10414000E8A3D8015D96BC91BAA7F8018384948452
:10415000A588B688C784D088E188F2880389148945
:1041600024814381ACA1BDA10D90BC91A02DBB8B3E
:10417000AA8B8789908DBD010E94510B8C01B401DF
:1041800080E090E00E94243120E030E04AE754E4EF
:104190000E947C309B01AC0160E070E080E89FE30E
:1041A0000E947C306B017C018A899B89B4010E944A
:1041B000E832BC0180E090E00E94243120E030E051
:1041C0004AE754E40E947C309B01AC01C701B60170
:1041D0000E94DB316B017C01BAA56B2F70E080E09F
:1041E00090E00E94243120E030E040E85BE30E9450
:1041F000DB319B01AC01C701B6010E940B302BEDF6
:104200003FE049EC50E40E94DB310E9448329B01C0
:10421000AC01E8A1F9A16F01FF0FEE08FF08B8019A
:10422000110F880B990B2BAF3EAF4CAF5DAF0E94C7
:1042300026312BAD3EAD4CAD5DAD0E94DB310E9411
:10424000EE30CB01770FAA0BBB0BA7019601280F0D
:10425000391F4A1F5B1FAC8DBD8D0E94C62F2FEFEB
:104260003FE740E050E00E94A72FCA01B9010E9439
:104270002631288D398D4A8D5B8D0E947C300E94BD
:10428000EE309B01AC01A0916603B0E00E94C62F06
:1042900024E630E040E050E00E94A72F420E531E7B
:1042A000641E751ED10116968C91169782FF8AC4E2
:1042B0001D966D917C911E9780E090E00E942431C4
:1042C0002BED3FE049EC50E40E94DB3120E030E090
:1042D00040E058E30E94DB310E9448329B01AC0170
:1042E000C301B2012BAF3EAF4CAF5DAF0E94263190
:1042F0002BAD3EAD4CAD5DAD0E94DB310E94EE308A
:104300002B013C015FC40E94400B688F798F8A8F1C
:104310009B8FFEE1EF2ECE88DF88EC9CF001ED9CB8
:10432000F00D1124E851FE4F018512851D8F0C8F71
:10433000238D348DA901330F660B770B48A359A346
:104340006AA37BA3558D5AA723843484A588B68895
:10435000C784D088E188F288038914892481438145
:10436000ACA1BDA10D90BC91A02DBB8BAA8B878960
:10437000908DBD010E94510BBC01990F880B990BC8
:104380000E9426314B015C01B10180E090E00E9467
:10439000243120E030E04AE754E40E947C309B0165
:1043A000AC0160E070E080E89FE30E947C306B012C
:1043B0007C018A899B89B1010E94E832BC0180E0BE
:1043C00090E00E94243120E030E04AE754E40E946B
:1043D0007C309B01AC01C701B6010E94DB316B014F
:1043E0007C01BAA56B2F70E080E090E00E94243140
:1043F00020E030E040E85BE30E94DB319B01AC0150
:10440000C701B6010E940B302BED3FE049EC50E4B0
:104410000E94DB310E9448326B017C0120E030E0D9
:10442000A9010E94D63187FF0CC020E030E0A9012D
:10443000C701B6010E94773087FF05C0EFEFEAABF6
:1044400002C0F1E0FAABCAA86C2DCC0C770B880B3C
:10445000990B0E9426319B01AC01C501B4010E9459
:10446000DB310E94EE30CB01770FAA0BBB0BD8C11A
:104470000E94400B6C8F7D8F8E8F9F8F0EE1EE8898
:10448000FF880E9DF0010F9DF00D1124E851FE4FA5
:104490002185328539A328A3238D348DA901330FBB
:1044A000660B770B4AA75BA76CA77DA7358D638545
:1044B00074857B8B6A8BA588B688C784D088E18891
:1044C000F2880389148924814381ACA1BDA10D9098
:1044D000BC91A02DB98FA88F8789908DBD013EAF6B
:1044E0000E94510B1C01EA89FB89BF0180E090E02A
:1044F0000E9424314B015C013EAD60E4630F70E02B
:1045000080E090E00E94243120E030E040E85BE36E
:104510000E94DB31A50194010E94DB310E94F5303D
:10452000888D998D860F971F6A897B890E94E83252
:104530008C01BC0180E090E00E94243120E030E05A
:104540004AE754E40E947C306B017C0120E030E0BB
:10455000A9010E94D63187FD3CC020E030E04AE747
:1045600054E4C501B4010E947C30688F798F8A8F32
:104570009B8F20E030E040E05FE30E94DB319B0155
:10458000AC01C701B6010E94773087FF22C0B1019C
:10459000032C000C880B990B0E94263120E030E0A0
:1045A00040E850E40E94DB31288D398D4A8D5B8DC7
:1045B0000E947C30A70196010E94DB310E94EE3000
:1045C0003194219431086101C60ED71EDCAACBAA12
:1045D00051C020E030E04AE754E4C501B4010E9434
:1045E0007C304B015C0120E030E040E05FE30E9462
:1045F000DB319B01AC01C701B6010E94D63187FDBA
:1046000039C0A5019401C701B6010E94773087FF28
:1046100031C0B101032C000C880B990B0E9426318C
:1046200020E030E040E850EC0E94DB31A50194012D
:104630000E947C306B017C018A899B8996958795C5
:10464000B801681B790B80E090E00E94243120E0E3
:1046500030E04AE754E40E947C309B01AC01C70182
:10466000B6010E94DB310E94EE307101E60EF71EAA
:10467000FCAAEBAA0BA91CA9C801110FAA0BBB0B22
:104680002AA53BA54CA55DA5280F391F4A1F5B1F16
:10469000A8A1B9A10E94C62F2FEF3FE740E050E04C
:1046A0000E94A72FCA01B9010E9426312C8D3D8D91
:1046B0004E8D5F8D0E947C300E94EE309B01AC01DC
:1046C000A0916603B0E00E94C62F24E630E040E0EF
:1046D00050E00E94A72F420E531E641E751E72C228
:1046E0000E94400B688F798F8A8F9B8F4EE12E89B5
:1046F0003F89429FF001439FF00D1124E851FE4F86
:10470000618572857D8F6C8F238D348DC901330F48
:10471000AA0BBB0B88A399A3AAA3BBA3358D2384A3
:104720003484A588B688C784D088E188F288038954
:10473000148924814381ACA1BDA10D90BC91A02D11
:10474000BB8BAA8B8789908DBD013EAF0E94510B18
:104750008C01B10180E090E00E9424314B015C01AA
:104760003EAD60E8630F70E080E090E00E9424318D
:1047700020E030E040E85BE30E94DB31A5019401DA
:104780000E94DB310E94F5308A899B89860F971F32
:10479000B1010E94E8329B8B8A8B82159305D0F57C
:1047A000B801012E000C880B990B0E9426319B0149
:1047B000AC010E940B306B017C0120E030E04AE745
:1047C00054E4C501B4010E947C309B01AC01C701D7
:1047D000B6010E947C304B015C01CA88DB88B601BF
:1047E00080E090E00E94243120E030E04AE754E489
:1047F0000E947C309B01AC01C501B4010E94DB31F9
:104800000E94EE301195019511097801E60EF71E10
:10481000FEAAEDAA0DA91EA9C801110FAA0BBB0B78
:1048200028A139A14AA15BA1280F391F4A1F5B1F8C
:10483000AC8DBD8D0E94C62F2FEF3FE740E050E0CA
:104840000E94A72FCA01B9010E942631288D398DF7
:104850004A8D5B8D2FCF0E94400B688F798F8A8F96
:104860009B8F4EE12E893F89429FF001439FF00DBF
:104870001124E851FE4F618572857D8F6C8F238DE9
:10488000348DC901330FAA0BBB0B88A399A3AAA32C
:10489000BBA3358D23843484A588B688C784D0888B
:1048A000E188F2880389148924814381ACA1BDA1E8
:1048B0000D90BC91A02DBB8BAA8B8789908DBD01DB
:1048C0003EAF0E94510B8C01B10180E090E00E944C
:1048D00024314B015C013EAD60E8630F70E080E085
:1048E00090E00E94243120E030E040E85BE30E9449
:1048F000DB31A50194010E94DB310E94F5308A89E9
:104900009B89860F971FB1010E94E8329B8B8A8B8F
:1049100082159305D0F566277727601B710B072E4C
:10492000000C880B990B0E9426319B01AC010E9460
:104930000B306B017C0120E030E04AE754E4C50114
:10494000B4010E947C309B01AC01C701B6010E94FA
:104950007C304B015C01CA88DB88B60180E090E0C6
:104960000E94243120E030E04AE754E40E947C3089
:104970009B01AC01C501B4010E94DB310E94EE3005
:104980007801E60EF71EF8AEEFAA0FA918AD44CFD6
:104990008EE16E897F89869FF001879FF00D11243B
:1049A000E851FE4F038D148DA0916503B0E00E9485
:1049B000C62F20E436E040E050E00E94A72F6901B6
:1049C0007A01209154033091550340915603509140
:1049D0005703D8010E94D12FDC01CB017FE0B595B0
:1049E000A795979587957A95D1F7092E000CAA0B74
:1049F000BB0B40918E0350918F0360919003709197
:104A000091038A019B01081B190B2A0B3B0BC9015F
:104A1000B801A6010E94790C460E571E681E791E29
:104A2000D1C08EE16E897F89869FF001879FF00D4E
:104A30001124E851FE4F038D148DA0916403B0E062
:104A40000E94C62F24E630E040E050E00E94A72FED
:104A500069017A01B801110F880B990B0E94263168
:104A60002AE939EC4CEC54E40E947C309B01AC0107
:104A70006EA17FA188A599A50E940A30A6010E9477
:104A8000A60D62C06EE1C62EAE89BF89CA9EF00136
:104A9000CB9EF00D1124E851FE4F038D148DA09193
:104AA0006303B0E00E94C62F24E630E040E050E00F
:104AB0000E94A72F69017A01B801110F880B990B89
:104AC0000E94263120E03EEF4FEF56E40E947C30FA
:104AD0009B01AC016EA57FA588A999A90E940A3007
:104AE000A6010E943E0D30C00EE1EE88FF880E9DAB
:104AF000F0010F9DF00D1124E851FE4F038D148D30
:104B0000A0916203B0E00E94C62F24E630E040E0AE
:104B100050E00E94A72F69017A01B801110F880B9C
:104B2000990B0E9426312AE939EC4CEC54E40E949E
:104B30007C309B01AC016EA17FA188A599A50E9444
:104B40000A30A6010E94BD0C092E000CAA0BBB0B5B
:104B5000480E591E6A1E7B1E35C00E94400B9B01E9
:104B6000AC018EE16E897F89869FF001879FF00DF1
:104B70001124E851FE4F838D948DBC01990F880B51
:104B8000990B2BAF3EAF4CAF5DAF0E9426312BADE2
:104B90003EAD4CAD5DAD0E947C300E94EE300E9477
:104BA0004E0C9B01AC01A0916603B0E00E94C62FA1
:104BB00024E630E040E050E00E94A72F421A530A5A
:104BC000640A750A0E94D7150091B8011091B901C5
:104BD0002091BA013091BB01DC01CB01801B910B0C
:104BE000A20BB30BECA1FDA180839183A283B383BD
:104BF0000CA11DA10C5F1F4F1DA30CA32E893F8983
:104C00002B30310509F028C903C0412C512C320149
:104C100010918D0311FF2EC00E94400B9B01AC012F
:104C2000E091640367E471E0E69FC001E79F900DA7
:104C30001124BC01990F880B990B2BAF3EAF4CAFE1
:104C40005DAF0E9426312BAD3EAD4CAD5DAD0E94F7
:104C50007C300E94EE30AB016EA17FA188A599A5A2
:104C60000E94A60D092E000CAA0BBB0B480E591E64
:104C70006A1E7B1E12FF2EC00E94400B9B01AC01DE
:104C8000E091630367E471E0E69FC001E79F900D48
:104C90001124BC01990F880B990B2BAF3EAF4CAF81
:104CA0005DAF0E9426312BAD3EAD4CAD5DAD0E9497
:104CB0007C300E94EE30AB016EA57FA588A999A932
:104CC0000E943E0D092E000CAA0BBB0B480E591E6C
:104CD0006A1E7B1E13FF2EC00E94400B9B01AC017D
:104CE000E091620367E471E0E69FC001E79F900DE9
:104CF0001124BC01990F880B990B2BAF3EAF4CAF21
:104D00005DAF0E9426312BAD3EAD4CAD5DAD0E9436
:104D10007C300E94EE30AB016EA17FA188A599A5E1
:104D20000E94BD0C092E000CAA0BBB0B480E591E8D
:104D30006A1E7B1E8091540390915503A0915603E7
:104D4000B0915703AC01BD0126E075956795579565
:104D500047952A95D1F7841B950BA60BB70B40916D
:104D60008E0350918F036091900370919103CC2436
:104D7000DD247601C81AD90AEA0AFB0A4C155D053A
:104D80006E057F0534F084179507A607B7070CF06A
:104D900049C077FD09C06A017B01C81AD90AEA0A2D
:104DA000FB0AD701C60104C0840F951FA61FB71FB9
:104DB00080938E0390938F03A0939003B0939103FD
:104DC0000E94400B9B01AC0160E07EEF8FEF96E408
:104DD0000E947C306B017C016091610370E080E097
:104DE00090E00E9426319B01AC01C701B6010E94F0
:104DF000DB3120E030E048EC52E40E947C300E943D
:104E0000EE306B017C0160918E0370918F03809175
:104E1000900390919103A6010E94790C460E571EB3
:104E2000681E791EA091B701B0E0A30192010E9413
:104E3000C62F24E630E040E050E00E94A72FCA01D0
:104E4000B9010E944E0C6B017C0114FF04C00E944A
:104E500047180E94EC17C0926F03D0927003E09243
:104E60007103F092720360919203709193038091A9
:104E70009403909195030E9426316B017C0160910F
:104E800050037091510380915203909153030E94FB
:104E900026319B01AC0160E07FEF8FE797E40E9431
:104EA0007C309B01AC01C701B6010E94DB310E943E
:104EB000EE30462F572FBC01411500E85007610521
:104EC000710524F04FEF5FE760E070E0411510E8F6
:104ED00051071FEF6107710724F440E050E86FEFBE
:104EE0007FEF4093920350939303609394037093E6
:104EF00095038FE693E00E94AE0782E10E94611560
:104F00009093800380937F0384E10E9461159093C6
:104F10007A038093790385E10E946115909374036D
:104F20008093730383E10E9461151C0100916D035E
:104F300010916E038091810390918203800F911FE5
:104F40004C01A12CB12CC0907B03D0907C03C00EEF
:104F5000D11EE12CF12C2091790330917A03C90103
:104F6000330FAA0BBB0B9C01AD012C193D094E0957
:104F70005F09AFEFBFE00E94C62F20917D03309103
:104F80007E03201B310B2901612C712CA30192019E
:104F90002C193D094E095F090E94A72F29013A01EA
:104FA000C0907503D0907603C00ED11EE12CF12C79
:104FB0002091730330917403C901330FAA0BBB0B0B
:104FC0009C01AD012C193D094E095F09AFEFBFE00F
:104FD0000E94C62F2091770330917803201B310B5C
:104FE00040E050E02C193D094E095F090E94A72FAF
:104FF00069017A0120917F0330918003C901330F49
:10500000AA0BBB0B9C01AD01281939094A095B09A0
:10501000AFEFBFE00E94C62F20918303309184033D
:10502000201B310B40E050E0281939094A095B097F
:105030000E94A72F211540E1340714F02FEF3FE025
:1050400037FF02C020E030E03093800320937F03DD
:10505000C201411450E1550614F08FEF9FE02C017E
:1050600097FF02C0412C512C50927A034092790351
:10507000C601C11460E1D60614F08FEF9FE06C0109
:1050800097FF02C0C12CD12CD0927403C09273033D
:10509000C0908903D0908A03C00ED11EE12CF12C60
:1050A000C101330CAA0BBB0B9C01AD012C193D09AE
:1050B0004E095F09AFEFBFEF0E94C62F20918B030F
:1050C00030918C03201B310B890120E030E0A901D5
:1050D00098012C193D094E095F090E94A72F21153F
:1050E000310571E04707510524F02FEF3FEF40E015
:1050F00050E0DA01C90157FF03C080E090E0DC0115
:105100008093850390938603A0938703B0938803CD
:1051100040E050E0C12CD12C760160E071E06111DB
:1051200002C05F9809C0613011F4769805C0623002
:1051300011F42C9801C0469820E030E0211531058B
:1051400021F489B18295817010C0213029F48FB18A
:105150008695822781700AC0223019F48FB1817040
:1051600004C089B186FB882780F98727F901E40FFD
:10517000F51F882381F081E090E0A0E0B0E004C05A
:10518000880F991FAA1FBB1FEA95D2F7C82AD92AF0
:10519000EA2AFB2A13C081E090E0A0E0B0E004C05E
:1051A000880F991FAA1FBB1FEA95D2F7809590958B
:1051B000A095B095C822D922EA22FB222F5F3F4F4B
:1051C0002430310509F0BACF611102C05F9A09C0DD
:1051D000613011F4769A05C0623011F42C9A01C046
:1051E000469A6F5F4C5F5F4F643009F098CF8C2D0B
:1051F0008F70813081F0823081F0843081F088308E
:1052000081F0833081F0863081F0893081F08C30FC
:1052100081F080E00FC081E00DC083E00BC085E02D
:1052200009C087E007C082E005C084E003C088E0D1
:1052300001C086E090EFC922C82AC0926903D092CB
:105240006A03E0926B03F0926C03609173038091A8
:1052500074032091790330917A0370917F039091C8
:105260008003F0918503E091860340919203509171
:105270009303505849835A83FB83EC837D839F704B
:10528000422F4295407F942B9E83A4E0369527952C
:10529000AA95E1F72F8368879C2D9295907F8F7058
:1052A000892B8987D701C60114E0B695A7959795F4
:1052B00087951A95D1F78A870CE0F694E794D794EE
:1052C000C7940A95D1F7CB861C864CE050E0BE010E
:1052D0006F5F7F4F84E00E94A31280919B049091A6
:1052E0009C04A0919D04B0919E0480319742A10539
:1052F000B10508F476C58DE894E00E94F213181603
:1053000019060CF05EC58DE894E00E94B813E82FF2
:105310008FE98E0F8A3108F4E0528E2F90E0FC0165
:10532000E154F109EA31F10508F04BC5ED59FF4FA1
:105330000C94FC328091B5019091B6010E948118C5
:1053400080E20E94E1178091B7010E94871880E2F5
:105350000E94E117809164030E94871880E20E94F6
:10536000E117809162030E94871880E20E94E11792
:10537000809167030E94871880E20E94E117809164
:1053800066030E94871880E20E94E11780916503FE
:105390000E94871880E20E94E117809163030E94B7
:1053A000871880E20E94E117809168030E948718A5
:1053B00080E20E94E117809161030E94871880E2D9
:1053C0000E94E1176091B3017091B40180E090E018
:1053D0004AE00E94FA1780E20E94E1178091B20130
:1053E0000E94871880E20E94E11780918D030E943D
:1053F000871880E20E94E1176091B0017091B101BD
:1054000080E090E04AE00E94FA1780E20E94E117F3
:1054100060915D0370915E0380915F0390916003E2
:105420000E94471880E20E94E1176091AF0170E08E
:1054300073C283E991E00E948E188AEF90E00E9487
:10544000811888E991E00E948E188AE991E00E9413
:105450008E188CE991E00E948E188EE991E00E94EE
:105460008E1880EA91E00E948E18ABC48091A70448
:10547000082E000C990BA3C4F894C0908804D09017
:105480008904E0908A04F0908B0478948091B001B4
:105490009091B1012091B3013091B401821B930B23
:1054A0009695879596958795A0E0B0E089839A8335
:1054B000AB83BC83CE0101960E94AE07D701C60123
:1054C0001EEFF8948090880490908904A0908A043C
:1054D000B0908B04789488159905AA05BB0554F4FF
:1054E0006CE271E080E090E00E94B1151150D501AE
:1054F000C40139F719821A821B821C82CE010196DF
:105500000E94AE078091500390915103A0915203E5
:10551000B0915303F8948093880490938904A093E6
:105520008A04B0938B047894C814D904EA04FB0469
:1055300011F482E001C081E08093A7043EC40E9480
:105540009018611101C061E06093B20136C4F89413
:10555000409088045090890460908A0470908B0475
:1055600078948091540390915503A0915603B09183
:105570005703481A590A6A0A7B0A8091A30490913A
:10558000A404A091A504B091A604480E591E6A1E59
:105590007B1E0E94901864307105810591057CF096
:1055A0006B017C01613C7742894091056CF0E0EC35
:1055B000CE2EE7E2DE2EE9E0EE2EF12C05C074E0FF
:1055C000C72ED12CE12CF12CC982DA82EB82FC822D
:1055D0006091B5017091B601072E000C880B990BF4
:1055E0000E9426314B015C01C301B2010E942631A9
:1055F000A50194010E94DB312B013C016091500315
:105600007091510380915203909153030E9426316F
:105610009B01AC01C301B2010E947C302B013C0113
:10562000C0925D03D0925E03E0925F03F09260034C
:10563000C701B60191C08091540390915503A09188
:105640005603B0915703F89480938804909389048B
:10565000A0938A04B0938B04789462C1F8948090EC
:10566000880490908904A0908A04B0908B04789468
:105670008091540390915503A0915603B091570324
:10568000881A990AAA0ABB0A8091A3049091A404DB
:10569000A091A504B091A604880E991EAA1EBB1E57
:1056A0000E9490186E3171058105910574F06B01AF
:1056B0007C01693077408105910564F068E0C62E71
:1056C00067E0D62EE12CF12C05C05EE1C52ED12C71
:1056D000E12CF12CC982DA82EB82FC82C501B40193
:1056E0000E9426314B015C016091B5017091B601B9
:1056F000072E000C880B990B0E9426319B01AC01F0
:10570000C501B4010E94DB314B015C016091500383
:105710007091510380915203909153030E9426315E
:105720009B01AC01C501B4010E947C302B013C01FE
:10573000D092B601C092B501B601DD0C880B990B71
:105740000E9426314B015C0160915D0370915E0304
:1057500080915F03909160030E94263120E030E049
:1057600044EB53E40E947C30A50194010E94DB319C
:105770000E94EE3060935003709351038093520364
:10578000909353036B017C01F594E794D794C794ED
:10579000C0925403D0925503E0925603F0925703FF
:1057A0000E9426319B01AC01C301B2010E94DB3192
:1057B000A50194010E947C300E94EE30C60ED71ED7
:1057C000E81EF91E8091A3049091A404A091A50461
:1057D000B091A604C81AD90AEA0AFB0AF894C09242
:1057E0008804D0928904E0928A04F0928B04789421
:1057F000E4C20E949018462F60918D0380E090E0F3
:1058000050E0FA01082E02C0F595E7950A94E2F7F8
:10581000C12CD12C7601C394082E04C0CC0CDD1C05
:10582000EE1CFF1C0A94D2F797018601E0FF02C02C
:105830006C2902C00095602301968830910509F714
:1058400060938D0370E080E090E042E00E94FA17E0
:105850000E94EC17B6C20E9490188091AF0120E020
:1058600030E0E62FF0E0AF01022E02C055954795DB
:105870000A94E2F740FF0EC041E050E060E070E0C3
:10588000022E04C0440F551F661F771F0A94D2F7DB
:10589000842B0EC041E050E060E070E0022E04C0B6
:1058A000440F551F661F771F0A94D2F74095842333
:1058B0002F5F3F4F28303105B1F68093AF0141E0B3
:1058C0006FEA71E08DE190E00E946E0E8091AF0171
:1058D0000E94030FBC0180E090E00E9424312091DF
:1058E000AB013091AC014091AD015091AE010E94ED
:1058F000DB310E94EE3069837A838B839C8344E0A2
:10590000BE016F5F7F4F81E190E00E946E0E80913B
:10591000AF010E94030FBC0180E090E04AE096CF07
:1059200080E090E04CC28DE894E00E94B813E82F2C
:105930008FE98E0F8A3108F4E0528E2F90E0FC013F
:10594000E154F109E231F10508F03BC2E358FF4FA1
:105950000C94FC320E949018611500E170078105DB
:10596000910524F06FEF7FE080E090E097FF03C0A7
:1059700060E070E0CB0169837A838B839C837093B2
:105980008A036093890319C20E949018611510E17F
:1059900071078105910524F06FEF7FE080E090E0D2
:1059A00097FF03C060E070E0CB0169837A838B834B
:1059B0009C8370938C0360938B03FFC10E949018AB
:1059C000611520E172078105910524F06FEF7FE0FA
:1059D00080E090E097FF03C060E070E0CB01698356
:1059E0007A838B839C837093820360938103E5C1E8
:1059F0000E949018611530E173078105910524F02C
:105A00006FEF7FE080E090E097FF03C060E070E020
:105A1000CB0169837A838B839C8370938403609327
:105A20008303CBC10E949018611540E17407810582
:105A3000910524F06FEF7FE080E090E097FF03C0D6
:105A400060E070E0CB0169837A838B839C837093E1
:105A50007C0360937B03B1C10E949018611550E1F3
:105A600075078105910524F06FEF7FE080E090E0FD
:105A700097FF03C060E070E0CB0169837A838B837A
:105A80009C8370937E0360937D0397C10E9490185E
:105A90006115A0E17A078105910524F06FEF7FE0A1
:105AA00080E090E097FF03C060E070E0CB01698385
:105AB0007A838B839C8370937603609375037DC197
:105AC0000E9490186115B0E17B078105910524F0D3
:105AD0006FEF7FE080E090E097FF03C060E070E050
