:100000000C9426040C944E040C944E040C94330E61
:100010000C940F0E0C944E040C944E040C944E044D
:100020000C944E040C944E040C94FC110C949F0FF1
:100030000C944E040C944E040C944E040C944E04F8
:100040000C944E040C944E040C944E040C944E04E8
:100050000C944E040C944E040C944E040C946D15A8
:100060000C944E040C944E040C944E040C944E04C8
:100070000C944E040C944E040C944E040C944E04B8
:100080000C944E040C944E040C944E040C944E04A8
:100090000C94B7150C944E040C944E040C944E041E
:1000A0000C944E040C944E040C944E04E21F432016
:1000B000EA21E0209F229A24DB233B258425B525D5
:1000C000E72559262026C52DAE2A2A2BE12E082CFD
:1000D0006E2E3D2B902CE12EE12EE12EE12EE12E15
:1000E000E12EB62A902CE12E4B2A452AE12EA92991
:1000F000282A382CE12E932C902CAA2CC42CDE2CF0
:10010000F82C122D2C2D462D602DE12EE12EE12E06
:10011000E12EE12EE12EE12EE12EE12E7A2DA82E08
:10012000AD2E8A2E8F2EE12E942E852EE12EA32E1B
:10013000B22EE12EE12E9E2EE12EE12EE12EE12EB9
:10014000E12E992E78087D0882088C08D608D608FA
:10015000D6089608A008AA08B408C108D608C90895
:100160006D17701763176717911791179117741709
:1001700078177C178217861791178C1705A84CCD16
:10018000B2D44EB93836A9020C50B9918688083CD1
:10019000A6AAAA2ABE000000803F000000000000BE
:1001A00000002A2B280000000000000000000000D2
:1001B000000000000000000000002C9EB4A0A1A2DE
:1001C000A434A6A7A5AE362D3738271E1F2021221E
:1001D00023242526B333B62EB7B89F848586878817
:1001E000898A8B8C8D8E8F90919293949596979807
:1001F000999A9B9C9D2F3130A3AD350405060708C5
:10020000090A0B0C0D0E0F101112131415161718E6
:10021000191A1B1C1DAFB1B0B500080B0002020279
:100220000100090400000102020000052400100181
:100230000524010101042402060524060001070526
:10024000810310004009040100020A0000000705B4
:10025000020240000007058302400000090402007A
:10026000020300000009210101000122E104070549
:10027000840340000107050503400001050109044E
:10028000A10185040901A100093017000000002721
:10029000FFFF0000350047FFFF000075109501814A
:1002A00002093116000027FFFF0000350047FFFF5D
:1002B0000000751095018102093216000027FF0F1A
:1002C0000000350047FF0F0000750C950181020901
:1002D0003316000027FF0F0000350047FF0F000016
:1002E000750C95018102093416000027FF0F0000EC
:1002F000350047FF0F0000750C9501810209391583
:100300000125083500463B0165145500750495012B
:1003100081020509150025015500650019012918FC
:1003200075019518810285F10901150026FF0095D8
:100330003F7508918285F20901953F75088182C059
:10034000050F0992A1028502099F09A009A409A528
:1003500009A61500250135004501750195058102A5
:1003600095038103099415002501350045017501A8
:1003700095018102092215012528350145287507B7
:1003800095018102C00921A10285010922150125DB
:1003900028350145287508950191020925A1020912
:1003A000260927093009310932093309340940097E
:1003B0004109420943250B15013501450B75089587
:1003C000019100C009500954150027FFFF000035B6
:1003D0000047FFFF000066011055FD751095029162
:1003E0000255006600000952150026FF7F350046C1
:1003F000FF7F7510950191020953150125083501FC
:1004000045087508950191020955A10205010930B9
:10041000093115002501750195029102C0050F09EA
:100420005695019102950591030957A1020B010010
:100430000A000B02000A0066140055FE150026FF94
:100440007F3500479F8C0000751095019102550083
:10045000660000C0050F09A766011055FD150027AD
:10046000FFFF0000350047FFFF0000751095019168
:10047000026600005500C0050F095AA10285020955
:100480002215012528350145287508950191020995
:100490005B095D150026FF00350046FF7F75089556
:1004A000029102095C095E66011055FD26FF7F4638
:1004B000FF7F7510950291026600005500C0095F2C
:1004C000A102850309221501252835014528750853
:1004D0009501910209231500250135004501750498
:1004E000950191020958A1020B01000A000B0200BC
:1004F0000A00750295029102C0096016008026FF6D
:100500007F36008046FF7F751095019102096136A4
:10051000008046FF7F95019102150026FF7F350080
:1005200046FF7F0963751095019102096515002644
:10053000FF0046FF7F750895019102C0096EA10278
:1005400085040922150125283501452875089501DE
:1005500091020970150026FF7F350046FF7F751058
:1005600095019102096F16008026FF7F36008046B4
:10057000FF7F950191020971150026FF00350046A5
:1005800067016614005500750895019102097227EC
:10059000FFFF000047FFFF000066011055FD7510CA
:1005A000950191026600005500C00973A1028505FE
:1005B0000922150125283501452875089501910264
:1005C000097016018026FF7F36018046FF7F751077
:1005D00095019102C00974A1028506092215012521
:1005E0002835014528750895019102097509761588
:1005F00081257F36018046FF7F750895029102C0F4
:10060000050F0977A102850A092215012528350160
:1006100045287508950191020978A1020979097A9E
:10062000097B15012503750895019100C0097C150A
:100630000026FF00350046FF009102C00990A1028C
:10064000850B0922150125283501452875089501D6
:100650009102C00996A102850C0997099809990988
:100660009A099B099C15012506750895019100C002
:10067000097DA102850D097E150026FF0035004683
:100680001027750895019102C009ABA102850509E3
:1006900025A1020926092709300931093209330940
:1006A0003409400941094209431501250B3501452B
:1006B0000B75089501B100C00501093B150026FF27
:1006C00001350046FF01750A9501B1027506B101B9
:1006D000C0050F0989A102850609222528150135C3
:1006E00001452875089501B102098BA102098C0901
:1006F0008D098E250315013501450375089501B156
:1007000000C009AC150027FFFF0000350047FFFFC0
:10071000000075109501B100C0097FA1028507098D
:100720008075109501150027FFFF0000350047FF79
:10073000FF0000B102098326FF0046FF00750895FF
:1007400001B10209A909AA75019502150025013513
:10075000004501B10275069501B103C0C0180341FF
:100760000072006400750069006E006F0020004C8C
:10077000004C00430004030904220341007200649A
:1007800000750069006E006F0020004C0065006F6E
:10079000006E006100720064006F00120100020030
:1007A00000004041233680000101020001120100D7
:1007B00002020000404123368000010102000100D6
:1007C000C18081C1C0070605040100080A0B0C0D99
:1007D0000900000000240027002A002D003000003E
:1007E000000000250028002B002E00310004040426
:1007F00004040304050202020204030202020206C8
:1008000006060606060404020202040404080201A5
:100810001040804010204080408008020401804049
:100820002010020110801020404020000000020033
:10083000080E0000030401000B000000000000008F
:1008400000000000000000000000FB2E11241FBE6D
:10085000CFEFDAE0DEBFCDBF11E0A0E0B1E0E0E233
:10086000F6E602C005900D92A63AB107D9F725E049
:10087000A6EAB1E001C01D92AA35B207E1F714E083
:10088000C6E2D4E004C02197FE010E94FC32C532CA
:10089000D107C9F70E94FA180C940E330C9400008B
:1008A0000895CF93DF93FC01EB01718182818983ED
:1008B000878190859A8789872585368543815481EC
:1008C0006EE1769FC001112488519E4FDC01509645
:1008D0005C934E931F9756963C932E93559764E0E6
:1008E000769FD0011124A854BE4F1D921D921D92D7
:1008F0001C921397838594859E878D8782858E832E
:1009000081E0DF91CF910895FC012281FB012783D3
:10091000FC018381FB0180870895FC018281938122
:10092000FB01908F878B0895DC01FB0112968D915E
:100930009C911397908F878B14968D919C9115970E
:10094000948F838F16968C911697858F17968D911D
:100950009C911897948783870895DC01FB01129678
:100960008C91129782838281811110C015968D918E
:100970009C911697908F878B13968D919C911497CD
:10098000948F838F17968C91858308958281089523
:10099000DC01FB0112968C911297838313968C9144
:1009A0001397848314968D919C911597948B838BC8
:1009B00016968D919C911797928B818B08959EE14D
:1009C000899FF0011124E851FE4F708B6787568B89
:1009D000458B94E0899FF0011124E854FE4F10826A
:1009E00011821282138208950895089510923C0591
:1009F00024E0829FC0011124FC01E854FE4F1082C4
:100A0000118212821382089525E0FC01208384E381
:100A100091E00895089580933C050895CF92DF9268
:100A2000EF92FF926091B5017091B601072E000C14
:100A3000880B990B0E9426316B017C016091500359
:100A40007091510380915203909153030E9426317B
:100A50009B01AC01C701B6010E947C30FF90EF9072
:100A6000DF90CF9008958C30F8F4282F30E09EE18D
:100A7000899FF0011124E851FE4F90819923A1F044
:100A800090819D7F9083F901E555FC4F95819111EF
:100A90000BC0E091A701F091A8010084F185E02D41
:100AA00009951092BB03089508958C30F0F49EE1EF
:100AB000899FF0011124E851FE4F80818823A9F01D
:100AC0008081826080838091BB0381110EC00E946F
:100AD00061156093B8017093B9018093BA01909346
:100AE000BB0181E08093BB03089508951F93CF93CA
:100AF000DF93DC0111961C9111979C91953009F4BC
:100B000067C060F5923009F443C0A8F4913009F051
:100B10004DC1E091A701F091A8012EE1129FB00113
:100B2000112468517E4F028CF38DE02DCD01DF91B1
:100B3000CF911F9109949330C9F1943009F036C1D7
:100B4000E091A701F091A8012EE1129FB0011124BC
:100B500068517E4F0488F589E02D35C09B3009F43B
:100B60009DC038F4963009F441C09A3009F44CC065
:100B70001DC19C3009F4CBC0913F09F017C140E47E
:100B800050E0BD0182EFDF91CF911F910C948C1248
:100B9000E091A701F091A8013EE1139FB00111245B
:100BA00068517E4F0088F189E02D0DC0E091A701CA
:100BB000F091A8018EE1189FB001112468517E4F79
:100BC0000288F389E02DCD01DF91CF911F91099427
:100BD000E091A701F091A8013EE1139FB00111241B
:100BE00068517E4F0688F789E02DEDCFE091A7018F
:100BF000F091A8018EE1189FB001112468517E4F39
:100C0000008CF18DE02DDFCF1F3F09F41FE7129616
:100C10009C91913099F4812F0E945505E12FF0E0CD
:100C2000E555FC4F85818111C1C0E091A701F0918C
:100C3000A8010680F781E02D812F47C0923029F569
:100C4000C1E08C2F0E943305CF5FCC30D1F7C12F8C
:100C5000D0E0C555DC4F8D81811109C0E091A7011D
:100C6000F091A8010084F185E02D8FE70995812F8F
:100C70000E9455058D81811199C0E091A701F091E5
:100C8000A8010680F781E02D1FC0933009F08EC0C7
:100C9000812FDF91CF911F910C94330581E01F3F8D
:100CA000C1F480930C0188E691E0E8EEF1E0DF0109
:100CB0009C011D9221503040E1F7E091A701F09195
:100CC000A8010284F385E02D8FE7DF91CF911F917A
:100CD000099480933C051C3008F068C03EE1139FE6
:100CE000F0011124E851FE4F108280910C01181779
:100CF00010F410930C01E091A701F091A801028477
:100D0000F385E02D812F09951092BB034FC082E03F
:100D10008093BC039091BD0394609093BD03909128
:100D2000BD0390619093BD031092BE031330B1F0E8
:100D300040F4113079F01230C9F58091BD03826022
:100D400033C0153071F1B0F0163081F58091BD03DC
:100D50008E7F2AC08091BD038D7F26C0E091A701C0
:100D6000F091A8010480F581E02D80E009951092B2
:100D7000BE031CC0E091A701F091A8010480F58199
:100D8000E02D81E0099581E080930C0188E691E0F7
:100D9000E8EEF1E0DF019C011D9221503040E1F7C7
:100DA00005C08091BD0381608093BD03DF91CF9129
:100DB0001F910895CF93DF9300D000D01F92CDB73D
:100DC000DEB7FC0181819081913A29F5813009F0EB
:100DD000BCC08281863051F445E050E066EA73E0A1
:100DE00080E40E94470F1092A603AFC0873009F03D
:100DF000ACC089838FEF9FEF9B838A838BE08C83CA
:100E000083E08D8345E050E0BE016F5F7F4F80E45B
:100E10000E94470F9AC0913209F097C0893009F0BB
:100E200094C08281853009F090C064E070E0CE010A
:100E300001960E94320F86E08093A60380910C01F8
:100E40008B3021F1A0910C0181E08A0F80930C017D
:100E50009EE1E0910C019E9FF0011124E851FE4FAC
:100E60008081882351F080910C018B3030F4809187
:100E70000C018F5F80930C01ECCF8EE1A89FF001F5
:100E80001124E851FE4F81E0808301C0A0E0A093CF
:100E9000A703A11104C082E08093A80350C0109260
:100EA0003C0581E08093A8038A819EE1A99FD0013F
:100EB0001124A851BE4F11968C9311978FEF9FEF7D
:100EC00050969C938E931F9754961C921E92539704
:100ED00052961C921E92519713968C9313971496C8
:100EE0008C93149756961C921E9255971E961C92A0
:100EF0001E921D9716961C9216978FEF9FE71A96D3
:100F00009C938E93199758961C921E9257975C96B5
:100F10001C921E925B975D961C925D9788EE93E003
:100F20001C969C938E931B97E091A701F091A801CA
:100F30000684F785E02DBD01CE01019609958FEF5E
:100F40009FEF9093AA038093A90381E00F900F90E5
:100F50000F900F900F90DF91CF9108954F925F9275
:100F60006F927F928F929F92AF92BF92CF92DF92B9
:100F7000EF92FF920F931F93CF93DF93CDB7DEB71E
:100F800060970FB6F894DEBF0FBECDBF009709F48F
:100F90006DC38C016091B70170E080E090E00E9429
:100FA00026312AE037ED43E25CE30E94DB316983BE
:100FB0007A838B839C83F80180809180A280B380A8
:100FC000B7FE08C0B094A09490948094811C911CAA
:100FD000A11CB11CC501B4010E9426316B017C012A
:100FE0006091B0017091B10180E090E00E942431E5
:100FF0002B013C0126E636E646E65FE30E94DB3144
:1010000029813A814B815C810E94DB316D837E8333
:101010008F8398879B01AC01C701B6010E94D6312E
:1010200087FDCAC0A301920169817A818B819C816D
:101030000E94DB3169877A878B879C8720E030E0CC
:1010400040E85FE30E940A309B01AC01C701B60192
:101050000E94773087FFB0C06D817E818F81988537
:101060000E94EE306B017C01A5019401261B370B19
:10107000480B590BAEE3B0E00E94C62F4B015C0158
:1010800069857A858B859C850E94EE309B01AC0139
:101090002C193D094E095F09C501B4010E94A72F13
:1010A00069017A01FFEFCF1ADF0AEF0AFF0A560142
:1010B00061E083E00E94AF14C114D10411F480E018
:1010C00005C08FEFC816D10421F481E00E944B17B0
:1010D0008AC0EEE2F8E0E4918E2F90E0FC013197B7
:1010E000EE30F10508F062C0EE55FF4F0C94FC3273
:1010F00084B5806884BDC7BC76C084B5806284BD79
:10110000C8BC71C080918000806880938000D092BC
:101110008900C092880067C08091800080628093BF
:101120008000D0928B00C0928A005DC080919000B8
:10113000806880939000D0929900C092980053C02C
:1011400080919000806280939000D0929B00C0922A
:101150009A0049C080919000886080939000D0925E
:101160009D00C0929C003FC08091C0008068809329
:10117000C0008091C0008F7B8093C000C092CF00E0
:1011800032C08091C00080628093C000C092D000C5
:101190002AC08091C20088608093C2008091C20002
:1011A0008B7F8093C200C092D2001DC0E0E8AE16D3
:1011B000B1040CF08ACF83CFA301920169817A81B7
:1011C0008B819C810E94DB3120E030E040E85FE3CE
:1011D0000E940A309B01AC01C701B6010E94D631C2
:1011E00087FD6DCF72CF6091B20170E060587109D8
:1011F000072E000C880B990B0E94263120E030E06E
:101200004FE753E40E947C306B017C016093C7037D
:101210007093C8038093C9039093CA0320E030E021
:10122000A9010E94D63187FD1DC0A701960160E08B
:1012300070E080E89FE30E940A306093C3037093DC
:10124000C4038093C5039093C60380E090E0A0E8B8
:10125000BFE38093BF039093C003A093C103B093F7
:10126000C20323C020E030E0A901C701B6010E94FB
:10127000773087FF1AC080E090E0A0E8BFE380935A
:10128000C3039093C403A093C503B093C6039C010A
:10129000AD01C701B6010E940B306093BF0370938C
:1012A000C0038093C1039093C2039091AF01F801F2
:1012B000C080D180E280F380892F807491FDEAC0E4
:1012C000811195C01C141D041E041F04E4F54090F8
:1012D000B0015090B1012091B3013091B4014901A6
:1012E000A12CB12C612C712CC301B2010E942431BC
:1012F0002091BF033091C0034091C1035091C203BC
:101300000E94DB310E94EE30681979098A099B0935
:10131000A70196010E94D832A30192010E94A72F33
:10132000DA01C901880D991DAA1DBB1DF801808332
:101330009183A283B38380E090E00E94F216F801CB
:101340008081918146C0C114D104E104F10409F403
:1013500044C04090B0015090B1018091B301909190
:10136000B4014C01A12CB12CF094E094D094C09421
:10137000C11CD11CE11CF11C612C712CC301B201F8
:101380000E9424312091C3033091C4034091C503CE
:101390005091C6030E94DB310E94EE306819790932
:1013A0008A099B09A70196010E94D832A3019201E4
:1013B0000E94A72FDA01C901880D991DAA1DBB1D26
:1013C000F80180839183A283B3830E94F21680E0A8
:1013D00090E00E94E5162F9A49C180E090E00E94BB
:1013E000F21680E090E00E94E5162F983FC1E09150
:1013F000B001F091B1011C141D041E041F04DCF4A3
:101400004F01969487948091B3019091B401880E16
:10141000991EA12CB12C2F01612C712CC301B2019A
:10142000681979098A099B09A70196010E94D83297
:10143000A301920119C0C114D104E104F10411F116
:101440004F01969487948091B3019091B401881ACA
:10145000990AA12CB12CA5019401C701B6010E94E3
:10146000D8329F0140E050E00E94A72FDA01C90165
:10147000880D991DAA1DBB1DF80180839183A2834D
:10148000B38303C0CF01969587950E94F21680E042
:1014900090E0D4C0811133C0F7FC02C02F9A01C084
:1014A0002F988091B3019091B4016C01E12CF12C43
:1014B0008090B0019090B101A12CB12CF801208155
:1014C00031814281538157FF07C050954095309537
:1014D00021953F4F4F4F5F4FC501B4016C197D09F6
:1014E0008E099F090E94D832A50194010E94A72F5E
:1014F000DA01C9018C0D9D1DAE1DBF1D81C01C14DC
:101500001D041E041F046CF520E030E040E85FE39A
:101510006091AB017091AC018091AD019091AE01F1
:101520000E940B3020910401309105014091060189
:10153000509107010E94DB310E94EE304B015C01AB
:10154000609100017091010180910201909103016D
:101550000E94EE30681979098A099B09A701960152
:101560003FC0C114D104E104F10409F44FC020913B
:10157000AB013091AC014091AD015091AE0160E002
:1015800070E080E89FE30E940A30209104013091CE
:10159000050140910601509107010E94DB310E9434
:1015A000EE304B015C0122273327A9012C193D099C
:1015B0004E095F09609108017091090180910A014B
:1015C00090910B012D873E874F87588B0E94EE30FC
:1015D000681979098A099B092D853E854F855889A7
:1015E0000E94D8322091B0013091B10140E050E02A
:1015F0000E94A72FDA01C901880D991DAA1DBB1DE4
:10160000F80180839183A283B3830BC060910401AE
:101610007091050180910601909107010E94F530BB
:10162000CB010E94F2166091040170910501809136
:101630000601909107010E94F530CB0160960FB62C
:10164000F894DEBF0FBECDBFDF91CF911F910F91F8
:10165000FF90EF90DF90CF90BF90AF909F908F90D2
:101660007F906F905F904F900C94E51660960FB648
:10167000F894DEBF0FBECDBFDF91CF911F910F91C8
:10168000FF90EF90DF90CF90BF90AF909F908F90A2
:101690007F906F905F904F9008956091A901709135
:1016A000AA0180E090E00E9424319B01AC0160E03F
:1016B0007EEF8FEF96E40E947C3008952F923F9248
:1016C0004F925F926F927F928F929F92AF92BF9252
:1016D000CF92DF92EF92FF920F931F93CF93DF93FE
:1016E000CDB7DEB729970FB6F894DEBF0FBECDBFDA
:1016F000998788874B012B831D830C831701DF8219
:10170000CE82042F10E08C819D816C01E12CF12CA4
:10171000E885F985F7FD2BC0C8019695982F882795
:1017200097958795BF01681B790B072E000C880BD6
:10173000990B0E9426312B013C01C701B6010E9482
:1017400024319B01AC01C301B2010E947C302B010A
:101750003C01C8019695982F8827979587959A837D
:101760008983EB8190E8E99FB00111242AC0B80178
:101770007695762F662777956795E885F9856E0FBC
:101780007F1F072E000C880B990B0E9426312B011E
:101790003C01C701B6010E9424319B01AC01C30189
:1017A000B2010E947C302B013C0160E86003C00163
:1017B000619F900D11249A8389832B816203B0016C
:1017C000112488859985681B790B072E000C880BDE
:1017D000990B0E9426316B017C01B10180E090E001
:1017E0000E9424319B01AC01C701B6010E947C30EC
:1017F0006B017C018A149B0408F43FC08E819F8199
:101800008A0D9B1D88169906C0F50C811D810A0D55
:101810001B1D8016910690F4B4016A197B0980E0C3
:1018200090E00E9424319B01AC01C301B2010E94EF
:10183000DB310E94EE3089819A811CC082199309A4
:1018400088159905E8F48A189B08EE81FF818E1AA5
:101850009F0AB401620D731D80E090E00E94243164
:101860009B01AC01C701B6010E94DB310E94EE3042
:1018700088859985860F971F05C080E090E002C09B
:101880008885998529960FB6F894DEBF0FBECDBF27
:10189000DF91CF911F910F91FF90EF90DF90CF904C
:1018A000BF90AF909F908F907F906F905F904F9080
:1018B0003F902F900895CF92DF92EF92FF920F9377
:1018C0001F938B019C014091B0015091B1016A01BD
:1018D000E12CF12C66277727CB016C197D098E0945
:1018E0009F0906171707280739074CF0C901B801E7
:1018F000C016D106E206F30614F4C701B6011F9123
:101900000F91FF90EF90DF90CF9008958F929F926C
:10191000AF92BF92CF92DF92EF92FF92CF93DF937D
:101920004B015C01EA010E940E056B017C01DE01A6
:10193000A50194010E94D12F0E942631A701960192
:101940000E94DB3120E030E040E051E40E94DB31D6
:1019500020E030E040E251E40E94DB3120E030E062
:1019600040E85BE30E94DB310E94EE300E945B0C9A
:1019700090958095709561957F4F8F4F9F4FDF9128
:10198000CF91FF90EF90DF90CF90BF90AF909F905E
:101990008F9008954F925F926F927F928F929F9255
:1019A000AF92BF92CF92DF92EF92FF92CF93DF93ED
:1019B00000D000D0CDB7DEB74B015C0157FF02C0AD
:1019C0004D5F5F4F6A01D594C794D594C7940E9428
:1019D0000E0569837A838B839C839B01AC01C501CF
:1019E000B4010E94DB3120E030E040E251E40E948B
:1019F000DB312B013C0120E030E040E85FE30E9456
:101A0000D6310D2C000CEE08FF0818161CF4C70187
:101A1000B60128C020E030E040E85FEBC301B2012E
:101A20000E94773087FF06C0C701B6010E945B0C99
:101A3000CB011EC0C701B6010E9426319B01AC013B
:101A4000C501B4010E94DB3129813A814B815C815F
:101A50000E94DB3120E030E040E251E40E94DB31C3
:101A60000E94EE300E945B0C88279927861B970BFB
:101A70000F900F900F900F90DF91CF91FF90EF900C
:101A8000DF90CF90BF90AF909F908F907F906F909E
:101A90005F904F9008958F929F92AF92BF92CF9296
:101AA000DF92EF92FF924B015C01BA01550F880B58
:101AB000990B0E9426316B017C0120E030E0A901E6
:101AC000C501B4010E94D631A501940118160CF08D
:101AD0005058C701B6010E94DB316B017C010E94A6
:101AE0000E059B01AC01C701B6010E94DB3120E06D
:101AF00030E040E851E40E94DB3120E030E040E299
:101B000051E40E94DB3120E030E040E05DE30E94E0
:101B1000DB310E94EE300E945B0C6B017C0120E007
:101B200030E0A901C501B4010E94D63118162CF489
:101B3000882799278C199D090DC020E030E0A90164
:101B4000C501B4010E94773087FF02C0C60102C000
:101B500080E090E0FF90EF90DF90CF90BF90AF904B
:101B60009F908F900895CF92DF92EF92FF92CF9344
:101B7000DF936B017C01EA0120E030E0A9010E94C3
:101B8000D631181694F020E030E0A901C701B60163
:101B90000E94773087FF3AC020E030E0A901C701FA
:101BA000B6010E940B306B017C01BE01DD0F880B7A
:101BB000990B0E9426319B01AC01C701B6010E941E
:101BC000DB316B017C010E940E059B01AC01C7015A
:101BD000B6010E94DB3120E030E040E851E40E9491
:101BE000DB3120E030E040E251E40E94DB3120E0D4
:101BF00030E040E05BE30E94DB310E94EE300E9467
:101C00005B0C88279927861B970B02C080E090E029
:101C1000DF91CF91FF90EF90DF90CF9008951F92CA
:101C20000F920FB60F9211242F933F934F935F9310
:101C30006F937F938F939F93AF93BF93EF93FF9394
:101C40000E94A517FF91EF91BF91AF919F918F9146
:101C50007F916F915F914F913F912F910F900FBEA8
:101C60000F901F9018951F920F920FB60F9211248C
:101C70002F933F934F935F936F937F938F939F9394
:101C8000AF93BF93EF93FF930E94A517FF91EF913E
:101C9000BF91AF919F918F917F916F915F914F9184
:101CA0003F912F910F900FBE0F901F901895EF92BC
:101CB000FF921F93CF93DF93EC01162FE881F981F8
:101CC0000480F581E02D09957C01E881F981068089
:101CD000F781E02D612FCE010995C7019927DF918A
:101CE000CF911F91FF90EF900895FC019181808129
:101CF000813A29F49D7F81E0913091F414C08132C2
:101D000079F49A3049F09B3019F0993049F40AC0BF
:101D1000828180930F0106C0828180930E0102C0F0
:101D200080E0089581E00895CF92DF92EF92FF92D4
:101D30000F931F93CF93DF931F92CDB7DEB7F82E8B
:101D4000E42E8B01C82ED92E8C2D8F198E1588F478
:101D5000F80161918F01C60169830E94912F698109
:101D6000681719F0C6010E94992FFFEFCF1ADF0AFA
:101D7000EBCF0F90DF91CF911F910F91FF90EF90DC
:101D8000DF90CF900895CF92DF92EF92FF920F9362
:101D90001F93CF93DF931F92CDB7DEB78B016B01FB
:101DA0007C01E61AF70A9C2D901B941758F4C70182
:101DB0008C0D9D1D49830E94912FF60181936F0127
:101DC0004981F1CF0F90DF91CF911F910F91FF903B
:101DD000EF90DF90CF9008958F929F92AF92BF9235
:101DE000CF92DF92EF92FF9240E050E020E0682F28
:101DF00070E0812C912C54018394FA013296DB011E
:101E000002C0B595A795EA95E2F775016401042E25
:101E100004C0CC0CDD1CEE1CFF1C0A94D2F7A0FF02
:101E200002C02C2902C0C0942C214F5F5F4F443068
:101E3000510519F730E0220F331FF901E75CFE4F1F
:101E400080FF05C0808191819695879502C0808131
:101E50009181FF90EF90DF90CF90BF90AF909F90D7
:101E60008F900895FC01CB012091E80022FFFCCF68
:101E7000282F215028F03091F10030833196F9CF8E
:101E800024E62093CB032BEF2093E80008950F93D3
:101E90001F93CF93DF93DB01A40FB51FFB016EEF00
:101EA000EA17FB0791F187FF02C0249101C020814E
:101EB0000091CF031091D003C091CD03D091CE03F8
:101EC0000C171D07B4F49091E8009570E1F3909120
:101ED000E80092FD1CC02093F1002091CF033091C7
:101EE000D0032F5F3F4F2F733327232B11F46093C1
:101EF000E8002091CF033091D0032F5F3F4F309304
:101F0000D0032093CF033196CBCFCA0102C08FEF0D
:101F10009FEFDF91CF911F910F91089542E450E020
:101F20006AE172E080E80E94470F40E250E06CE511
:101F300072E080E80E94470F83E090E008951F92CE
:101F40000F920FB60F921124EF92FF921F932F93CF
:101F50003F934F935F936F937F938F939F93AF9331
:101F6000BF93EF93FF93CF93DF93CDB7DEB7619726
:101F7000DEBFCDBF1092E9008091E80083FF59C118
:101F8000FE013A96CF0128E02E0F2E1729F030914E
:101F9000F10030833196F9CF24E62093CB0322EF72
:101FA0002093E8002A8527FF05C03091E80030FF24
:101FB000FCCF03C03EEF3093E800322F307609F0BB
:101FC000C5C08B85811105C01092F1001092F100FF
:101FD00029C1982F9D7F913009F424C1853049F49F
:101FE0008091E80080FFFCCF8C8580688093E300BF
:101FF00019C1863009F07CC01D85E888F9881092E7
:10200000E9001092D0031092CF03123091F5109294
:10201000CE031092CD030E948E0F99E0BE016F5F38
:102020007F4FFB01292F11922A95E9F799831A8393
:1020300091E09E8390E898879AEF99872091CF034B
:102040003091D003275F3F4F3C832B838D831092C9
:10205000E9001092D0031092CF03F092CE03E092E9
:10206000CD0349E050E080E00E94470F0E948E0FB0
:10207000D9C0F092CE03E092CD03123259F441EE72
:1020800054E06CE772E080E80E94470F892B09F06A
:10209000C9C0CCC0113069F488899989089711F4B6
:1020A0001093CC038091CC03811111C06BE977E0D0
:1020B00016C0133009F0BAC08C85882359F08230DD
:1020C00061F0813009F0B2C06DE577E008C06DEADB
:1020D00077E005C065E777E002C069E777E0611562
:1020E000710509F4A3C0FB01449150E080E849C0A8
:1020F000873009F49BC0883021F481E08093F1009F
:1021000091C0893009F08EC0237009F08FC080E043
:1021100090E031E026E341E0480F4093E90030933E
:10212000EB000196FC01E154F84FE491E093EC00E0
:102130002093ED008530910571F78EE78093EA00DA
:102140001092EA008C858093A6016CC02889398999
:102150001092E9001092D0031092CF033093CE0377
:102160002093CD032E85211154C08B859A85913AF9
:1021700059F4813209F05AC047E050E060E171E063
:1021800080E00E94470F4EC0913209F04FC080326C
:1021900039F467E070E080E191E00E94320F42C0C4
:1021A000823209F043C08C85809317018091100121
:1021B00090911101A0911201B0911301803B9440C4
:1021C000A105B10579F58091170180FD11C087E760
:1021D00097E790930108809300089BE088E10FB691
:1021E000F894A895809360000FBE909360001AC089
:1021F0000FB6F894A8958091600088618093600084
:10220000109260000FBEA89510920108109200086D
:1022100009C0223059F4E0913D05F0913E05099541
:10222000882321F08EEF8093E80003C081E2809341
:10223000EB0061960FB6F894DEBF0FBECDBFDF9105
:10224000CF91FF91EF91BF91AF919F918F917F912E
:102250006F915F914F913F912F911F91FF90EF9060
:102260000F900FBE0F901F9018958F929F92AF9274
:10227000BF92CF92DF92EF92FF920F931F93CF9373
:10228000DF9300D01F92CDB7DEB7382F8B0180913E
:10229000A601882389F04A018AEFF82E832F8770E0
:1022A000E82E90E4C92E832F8072B82E2AE3D22E16
:1022B000832F8074A82E21C08FEF9FEF5FC08FB750
:1022C000F894E092E9009091E80095FF1AC090918F
:1022D000F2002C2D291B8FBF211115C0FA94FF206D
:1022E00059F361E070E080E090E039834A835B83DA
:1022F0000E943B1539814A815B8181149104F9F672
:1023000034C020E0E8CF822F90E0881699060CF4C4
:10231000282D822F90E0881A990A6FB7F894E092DE
:10232000E900BB2029F02150A8F01092F100FBCF6A
:10233000F80137FF07C0215058F074917093F100F5
:102340003196F9CF215020F071917093F100FACFBE
:10235000080F191F8091E80085FF0DC081149104BA
:1023600011F4A11008C06FBFC8CF5D9884E68093B8
:10237000D103CA0103C0D092E800F5CF0F900F90AF
:102380000F90DF91CF911F910F91FF90EF90DF9011
:10239000CF90BF90AF909F908F9008959091A6019D
:1023A000992311F057FF03C08FEF9FEF08952FB7C8
:1023B000F89487708093E9008091F20090E0841790
:1023C00095070CF4AC01842FFB0194E6815030F0AA
:1023D0009093CB033091F1003193F8CF4115510523
:1023E00021F08091F200882319F02FBFCA010895CF
:1023F0008BE68093E800F9CF1F920F920FB60F92F1
:1024000011242F933F934F935F936F937F938F93F9
:102410009F93AF93BF93EF93FF93CF93DF93CDB78A
:10242000DEB7C054D109DEBFCDBF8091E10010926C
:10243000E10083FF0FC01092E90091E09093EB0060
:102440001092EC0092E39093ED001092A60198E0B8
:102450009093F00082FF46C083E08093E900809172
:10246000F200882319F08AE38093E8009FB7F8947C
:1024700082E08093E9008091F2009FBF882321F0E1
:1024800085E994E00E9474149FB7F89485E08093E6
:10249000E9008091F2009FBF8823C1F080913F0541
:1024A00090914005892B91F040E450E0BE016F5FB0
:1024B0007F4F85E00E94CE1197FD08C0E0913F0557
:1024C000F0914005BC01CE01019609958091D103A0
:1024D000882341F08091D10381508093D1038111F1
:1024E00001C05D9AC05CDF4F0FB6F894DEBF0FBE2F
:1024F000CDBFDF91CF91FF91EF91BF91AF919F91B0
:102500008F917F916F915F914F913F912F910F909C
:102510000FBE0F901F901895EF92FF920F931F938D
:10252000CF93DF931F92CDB7DEB789838B017A01FA
:1025300041E050E0BE016F5F7F4F84E00E943511A3
:10254000A701B80184E40E9435110F90DF91CF916B
:102550001F910F91FF90EF900895DC01683810F003
:10256000685825C0E62FF0E067FF12C0E058F10977
:1025700081E090E001C0880FEA95EAF78095149613
:102580009C911497892314968C93149760E00FC044
:10259000E656FE4F6491662311F167FF08C014965A
:1025A0008C9114978D7F14968C9314976F77FD01FF
:1025B000369686E0662321F09081961301C0108242
:1025C000815031968111F6CFBD016C5F7F4F48E09D
:1025D00050E082E00E948C1281E090E0089580E05B
:1025E00090E00895FC0116821782108611861286EB
:1025F00013861482BC016C5F7F4F48E050E082E09C
:102600000C948C12DC01683810F068582DC0E62F4D
:10261000F0E067FF11C0E058F10981E090E001C0EF
:10262000880FEA95EAF714969C911497892B1496D3
:102630008C93149760E018C0E656FE4F64916111C8
:1026400009C081E090E013969C938E93129780E0EE
:1026500090E0089567FF08C014968C9114978260EB
:1026600014968C9314976F7716968C9116978617FD
:1026700051F117968C911797861729F118968C911E
:102680001897861701F119968C9119978617D9F02A
:102690001A968C911A978617B1F01B968C911B97FE
:1026A000861789F0FD01369680E090E02191211196
:1026B00005C0FD01E80FF91F668305C0019686304D
:1026C0009105A1F7BECFBD016C5F7F4F48E050E0A0
:1026D00082E00E948C1281E090E00895CF92DF9218
:1026E000EF92FF920F931F93CF93DF936C01EB0157
:1026F0007B01E40EF51E00E010E0CE15DF0561F071
:102700006991D601ED91FC910190F081E02DC60117
:102710000995080F191FF1CFC801DF91CF911F91C3
:102720000F91FF90EF90DF90CF90089583E080931A
:10273000E9008091F200882319F08AE38093E80091
:10274000089520918A0430918B0480918C0490919B
:102750008D0428173907A9F0E0918C04F0918D04BD
:10276000E65BFB4F808120918C0430918D042F5FBC
:102770003F4F2F73332730938D0420938C0490E0C8
:1027800008958FEF9FEF089520918A0430918B0474
:1027900080918C0490918D042817390749F0E091BD
:1027A0008C04F0918D04E65BFB4F808190E00895EE
:1027B0008FEF9FEF089580918A0490918B04209170
:1027C0008C0430918D04821B930B8F73992708958D
:1027D00085ED8093BC008091BC0084FDFCCF1092FD
:1027E0001B0408954091F503262F30E0240F311D7E
:1027F00021323105DCF420911B042430C9F4FC01A2
:1028000080E090E0861758F43091F5032191DC01C7
:10281000AD52BC4FA30FB11D2C930196F3CF809105
:10282000F503680F6093F50380E0089581E0089553
:1028300082E0089508958FEF9FEF08958FEF9FEF47
:1028400008958091D20390E0919581959109089522
:10285000CF93DF9300D0CDB7DEB7CB01642F498390
:102860005A830E94F2134981842F5A81952F0F9029
:102870000F90DF91CF910895CF93DF931F92CDB743
:10288000DEB7698361E0CE0101960E94F21381E018
:1028900090E00F90DF91CF9108950E9409330F933C
:1028A0001F93CF93DF931F92CDB7DEB78C0169835F
:1028B00080911701882359F041E050E0BE016F5F1D
:1028C0007F4F83E00E943511181619063CF081E015
:1028D00090E0F8019383828380E090E00F90DF9195
:1028E000CF911F910F9108950F931F93CF93DF9373
:1028F0001F92CDB7DEB700918A0410918B040F5F51
:102900001F4F0F73112780918C0490918D0408172D
:102910001907F9F041E050E0BE016F5F7F4F82E0A0
:102920000E94CE11019719F4898190E002C08FEFC7
:102930009FEF8F3F2FEF920761F0E0918A04F091B3
:102940008B04E65BFB4F808310938B0400938A0417
:10295000D2CF0F90DF91CF911F910F910895CF9318
:10296000DF9390E0FC01E45FF74F2491FC01E35119
:10297000F84F8491882361F190E0880F991FFC0142
:10298000EF52F84FC591D491FC01E152F84FA59157
:10299000B491611109C09FB7F89488812095822372
:1029A0008883EC912E230BC0623061F49FB7F894BA
:1029B0003881822F809583238883EC912E2B2C9352
:1029C0009FBF06C08FB7F894E8812E2B28838FBF56
:1029D000DF91CF910895823108F08251E82FF0E025
:1029E000EB53F84FE49180917B00E3FB222720F921
:1029F00030E095E0220F331F9A95E1F78F7D282B69
:102A000020937B00E770E064E0937C0080917A0083
:102A1000806480937A0080917A0086FDFCCF80915B
:102A200078002091790090E0922B08953FB7F894B8
:102A30008091460490914704A0914804B0914904C4
:102A400026B5A89B05C02F3F19F00196A11DB11D09
:102A50003FBFBA2FA92F982F8827820F911DA11D44
:102A6000B11DBC01CD0142E0660F771F881F991F81
:102A70004A95D1F70895CF92DF92EF92FF92CF93CC
:102A8000DF936B017C010E941615EB01C114D10488
:102A9000E104F10479F00E9416156C1B7D0B683E71
:102AA0007340A0F381E0C81AD108E108F108C851C9
:102AB000DC4FECCFDF91CF91FF90EF90DF90CF9084
:102AC00008952FB7F8946091420470914304809167
:102AD0004404909145042FBF08951F920F920FB6A2
:102AE0000F9211242F933F938F939F93AF93BF9394
:102AF0008091420490914304A0914404B091450414
:102B00003091410423E0230F2D3720F40196A11DBD
:102B1000B11D05C026E8230F0296A11DB11D20930B
:102B200041048093420490934304A0934404B093DF
:102B300045048091460490914704A0914804B091C7
:102B400049040196A11DB11D80934604909347044A
:102B5000A0934804B0934904BF91AF919F918F9186
:102B60003F912F910F900FBE0F901F9018951F92BD
:102B70000F920FB60F9211242F933F934F935F93B1
:102B80006F937F938F939F93AF93BF93EF93FF9335
:102B90008091B900887F803609F49CC068F588323E
:102BA00009F45BC090F4803109F454C038F48823F0
:102BB00009F4F6C0883009F44DC0F6C0883109F434
:102BC0004CC0803209F45DC0EFC0803409F468C0A5
:102BD00048F4803309F455C0883309F0E5C0809388
:102BE0001A04D8C0803509F44FC0883509F45DC097
:102BF000883409F0D9C0D6C0883909F4C7C0A8F410
:102C0000883709F467C038F4883609F463C0803720
:102C100009F460C0C9C0883809F4B8C0803909F423
:102C20005FC0803809F0C0C05BC0803B09F486C03B
:102C300038F4803A09F466C0883A09F47FC0B4C019
:102C4000803C09F4A7C0883C09F4A4C0883B09F47F
:102C50008AC0AAC08091400410C090913F04809126
:102C60003E04981770F5E0913F0481E08E0F809349
:102C70003F04F0E0E25EFB4F80818093BB0085EC77
:102C800086C080931A048EC0E0913F0481E08E0FCD
:102C900080933F048091BB00F0E0E25EFB4F8083B5
:102CA00090913F0480913E046EC0E0913F0481E02A
:102CB0008E0F80933F048091BB00F0E0E25EFB4FFB
:102CC000808380911D0481116DC081E080931C047C
:102CD00084EA61C083E080931B0410921904CFCF73
:102CE00080911904803208F051C0E091190481E00C
:102CF0008E0F809319048091BB00F0E0E750FC4FE9
:102D00008083BDCF85EC8093BC0010921B04809122
:102D10001904803230F4E0911904F0E0E750FC4FE0
:102D200010826091190470E0E091F703F091F803CC
:102D300089EF93E009951092190436C084E08093DE
:102D40001B041092F6031092F503E091F303F09147
:102D5000F40309958091F503811105C081E080930A
:102D6000F5031092D303E091F60381E08E0F809378
:102D7000F603F0E0ED52FC4F80818093BB00909110
:102D8000F6038091F503981708F479CF85E88093CE
:102D9000BC000AC085EC8093BC0010921B0404C0E8
:102DA00010921A040E94E813FF91EF91BF91AF9126
:102DB0009F918F917F916F915F914F913F912F9153
:102DC0000F900FBE0F901F9018952091A901309180
:102DD000AA012817390708F4C90190938B00809342
:102DE0008A0008952091A9013091AA012817390776
:102DF00008F4C90190938900809388000895009792
:102E000069F0FC0101900020E9F73197AF01481B00
:102E1000590BBC0185E994E00C946E1380E090E0BE
:102E200008950F931F930E94611560939D04709302
:102E30009E0480939F049093A004E0919504F091E8
:102E400096040084F185E02D85E994E0099597FFCB
:102E50001FC00E94611500919D0410919E04209155
:102E60009F043091A004DC01CB01801B910BA20BCD
:102E7000B30B0091990410919A0420919B04309116
:102E80009C0480179107A207B307B8F28FEF9FEF5A
:102E90001F910F910895EEE2F8E04491EFE0F8E021
:102EA0009491E0EFF7E02491222309F44DC04423EC
:102EB000C1F150E0FA013197EE30F10590F5E0559F
:102EC000FF4F0C94FC32309180003F7703C030916B
:102ED00080003F7D3093800024C034B53F7702C02E
:102EE00034B53F7D34BD1DC0309190003F7707C0A1
:102EF000309190003F7D03C030919000377F309338
:102F000090000FC03091C0003F7703C03091C000E7
:102F10003F7D3093C00005C03091C200377F3093B1
:102F2000C200E22FF0E0EE0FFF1FE152F84FA59133
:102F3000B4912FB7F894EC91811103C090959E2322
:102F400001C09E2B9C932FBF08959091940489B14A
:102F50008C70892B90E09C013595279535952795A8
:102F600020939404409190045091910460919204B4
:102F700070919304FC01ED5AFE4F8081082E000CE5
:102F8000990BAA0BBB0B840F951FA61FB71F80932D
:102F9000900490939104A0939204B0939304809131
:102FA0008F040895E0919504F09196040190F081CA
:102FB000E02D682F85E994E00994CF93DF938DE0AD
:102FC0000E94D217EC018AE00E94D2178C0F9D1F3D
:102FD000DF91CF9108958F929F92AF92BF92EF921F
:102FE000FF920F931F93CF93DF93CDB7DEB7A197D7
:102FF0000FB6F894DEBF0FBECDBF162F042F19A257
:10300000423008F40AE07E0121E2E20EF11C802E3B
:10301000912CA12CB12C612FA50194010E94D92FD4
:10302000029F1019112481E0E81AF1081A3014F4F3
:10303000105D01C0195CF7011083122F732FCA01B4
:10304000232B242B252B39F7C7010E94FF16A196AD
:103050000FB6F894DEBF0FBECDBFDF91CF911F91A9
:103060000F91FF90EF90BF90AF909F908F90089539
:10307000CF92DF92EF92FF92CF93DF9397FF19C029
:103080006B017C018DE20E94D217EC016627772745
:10309000CB016C197D098E099F094AE00E94EB174C
:1030A0008C0F9D1FDF91CF91FF90EF90DF90CF901D
:1030B00008954AE0DF91CF91FF90EF90DF90CF909D
:1030C0000C94EB17CF93DF93BC01990F880B990BEE
:1030D0000E943818EC010E94DD178C0F9D1FDF91B4
:1030E000CF910895BC01990F880B990B0C94381857
:1030F000682F70E080E090E04AE00C94EB170C94AD
:10310000FF16FF920F931F93CF93DF9300D000D051
:10311000CDB7DEB70E941117FC0197FD11C08D32AB
:10312000910591F0C0970A9778F0E0919504F0919D
:1031300096040680F781E02D85E994E00995EACFB1
:1031400060E070E0CB014CC020E030E0A901F12C40
:10315000E130F105F1F0ED32F105C9F0CF01C09792
:103160000A97B8F4AAE0B0E00E94C62F8F01FF0FC3
:10317000220B330BDC01CB01800F911FA21FB31F69
:103180009C01AD01205331094109510902C0FF24BE
:10319000F394E0919504F09196040680F781E02D78
:1031A00085E994E029833A834B835C8309950E94E7
:1031B0001117FC01C09729813A814B815C810A97E4
:1031C00038F2E130F10521F2FF2041F06627772740
:1031D000CB01621B730B840B950B02C0CA01B901B2
:1031E0000F900F900F900F90DF91CF911F910F9143
:1031F000FF900895CF93DF93CDB7DEB7C054D109C8
:103200000FB6F894DEBF0FBECDBF789484B5826050
:1032100084BD84B5816084BD85B5826085BD85B57A
:10322000816085BD80916E00816080936E001092F8
:103230008100809181008260809381008091810073
:103240008160809381008091800081608093800004
:1032500080919100826080939100809191008160C3
:103260008093910080919000816080939000809184
:10327000C10084608093C1008091C100826080930E
:10328000C1008091C10081608093C1008091C30022
:1032900081608093C3008091C00082608093C000F1
:1032A0008091C20081608093C20080917A00846026
:1032B00080937A0080917A00826080937A00809176
:1032C0007A00816080937A0080917A008068809390
:1032D0007A001092A60181E08093D70080EA809363
:1032E000D80082E189BD09B400FEFDCF61E070E045
:1032F00080E090E00E943B1580E98093D8001CE0BC
:103300001093E2001092E000109284031092830365
:103310001092890310928A0310928B0310928C03EF
:1033200010927E0310927D031092920310929303E9
:1033300010929403109295031092960310929703A3
:10334000109298031092990342E0BE01615F7F4F93
:1033500080E090E00E94C30E8F8598898A3F910596
:1033600009F407C18AEF90E09E878D8742E0BE0195
:10337000635F7F4F80E090E00E94940E19821A8272
:103380001B821C8244E0BE016F5F7F4F82E090E0B1
:103390000E94940E88E394E09E878D8742E0BE01F0
:1033A000635F7F4F86E090E00E94940E84E6898BF5
:1033B00041E0BE016F5E7F4F88E090E00E94940E76
:1033C00041E0BE016F5E7F4F8BE090E00E94940E63
:1033D00041E0BE016F5E7F4F8CE090E00E94940E52
:1033E00041E0BE016F5E7F4F80E190E00E94940E4D
:1033F00041E0BE016F5E7F4F8DE090E00E94940E31
:1034000082E3898B41E0BE016F5E7F4F89E090E0EF
:103410000E94940E41E0BE016F5E7F4F8AE090E013
:103420000E94940E41E0BE016F5E7F4F8EE090E0FF
:103430000E94940E86E4898B41E0BE016F5E7F4F4F
:103440008FE090E00E94940E1E861D8642E0BE0131
:10345000635F7F4F81E190E00E94940E8FEF97E0D1
:103460009E878D8742E0BE01635F7F4F83E190E0DE
:103470000E94940E8FEF9FE09E878D8742E0BE01F1
:10348000635F7F4F85E190E00E94940E80E8898B16
:1034900041E0BE016F5E7F4F87E190E00E94940E95
:1034A00081E0898B41E0BE016F5E7F4F88E190E053
:1034B0000E94940E80E699E0A0E0B0E089839A83B0
:1034C000AB83BC8344E0BE016F5F7F4F89E190E036
:1034D0000E94940E198B41E0BE016F5E7F4F8DE11B
:1034E00090E00E94940E1E861D8642E0BE01635F3E
:1034F0007F4F8AE290E00E94940E42E0BE01635F3B
:103500007F4F8EE290E00E94940E42E0BE01635F26
:103510007F4F82E390E00E94940E42E0BE01635F21
:103520007F4F86E390E00E94940E8FEF93E09E879A
:103530008D8742E0BE01635F7F4F8CE290E00E9486
:10354000940E42E0BE01635F7F4F80E390E00E94F3
:10355000940E42E0BE01635F7F4F84E390E00E94DF
:10356000940E42E0BE01635F7F4F88E390E00E94CB
:10357000940E42E065EB71E086E090E00E94C30E9D
:1035800044E06DE573E089E190E00E94C30E41E004
:1035900067EB71E088E090E00E94C30E41E068E6CE
:1035A00073E089E090E00E94C30E41E066E673E0BC
:1035B0008AE090E00E94C30E41E06BE673E08BE08E
:1035C00090E00E94C30E41E06AE673E08CE090E078
:1035D0000E94C30E41E069E673E08DE090E00E9436
:1035E000C30E41E067E673E08EE090E00E94C30EF8
:1035F00041E06CE673E08FE090E00E94C30E41E092
:1036000065E673E080E190E00E94C30E41E062EB6A
:1036100071E087E190E00E94C30E41E061E973E050
:1036200088E190E00E94C30E42E063EB71E081E12B
:1036300090E00E94C30E42E060EB71E083E190E015
:103640000E94C30E42E06BE573E085E190E00E94CA
:10365000C30E41E06FEA71E08DE190E00E94C30E7D
:1036600042E065E873E08AE290E00E94C30E42E027
:1036700067E873E08CE290E00E94C30E42E06DE8E0
:1036800073E08EE290E00E94C30E42E06FE873E0C8
:1036900080E390E00E94C30E42E06FE773E082E3B4
:1036A00090E00E94C30E42E061E873E084E390E0A2
:1036B0000E94C30E42E069E773E086E390E00E9457
:1036C000C30E42E06BE773E088E390E00E94C30E14
:1036D00060915D0370915E0380915F039091600340
:1036E0000E94263120E030E044EB53E40E947C301D
:1036F0006B017C018091B5019091B601BC01990FDD
:10370000880B990B0E9426319B01AC01C701B601C1
:103710000E94DB310E94EE3060935003709351039E
:1037200080935203909353036B017C01F594E794CB
:10373000D794C794C0929A03D0929B03E0929C03C3
:10374000F0929D0362E080E00E94AF1462E081E0AD
:103750000E94AF1410928F04C0929004D0929104F2
:10376000E0929204F0929304109294044A9B05C054
:10377000809194048160809394044B9B05C0809158
:103780009404826080939404809169008F7C8061AE
:1037900080936900EA9A809169008F7380648093B6
:1037A0006900EB9A60E082E10E94AF1460E083E17F
:1037B0000E94AF1460E084E10E94AF1460E085E1F4
:1037C0000E94AF146E9A5798249A1092590310923F
:1037D00058031092610310926203109263031092D7
:1037E00064031092570310925A0388E191E090937A
:1037F000A8018093A7018AED96E090933E058093FF
:103800003D0586E795E09093400580933F05279A14
:103810001091AF01812F0E94EC0E5C019093AA01E0
:103820008093A9019093B1018093B0016091B3019D
:103830007091B40180E090E00E9424316B017C0122
:10384000B50180E090E00E9424319B01AC01C701EA
:10385000B6010E947C306093AB017093AC01809301
:10386000AD019093AE01012F017010FD05C020E065
:1038700030E04AEF54E404C020E030E04AE754E48A
:10388000609108017091090180910A0190910B01EA
:103890000E94DB31609308017093090180930A0153
:1038A00090930B01011105C020E030E04AEF54E491
:1038B00004C020E030E04AE754E4609104017091D4
:1038C000050180910601909107010E94DB31609310
:1038D0000401709305018093060190930701011183
:1038E00005C020E030E04AEF54E404C020E030E0BE
:1038F0004AE754E460910001709101018091020156
:10390000909103010E94DB316093000170930101EB
:103910008093020190930301109280001092810025
:1039200010926F0016BA8091A9019091AA0190930C
:103930008700809386001092890010928800109270
:103940008B0010928A008091AF018274823421F43E
:1039500080918100826003C08091810081608093AA
:1039600081008091AF0180FF09C08091800082605A
:103970008093800080918100806108C080918000E8
:1039800082608093800080918100886180938100B3
:1039900080E090E00E94F216809180008068809321
:1039A0008000259A80E090E00E94E51680918000DA
:1039B000806280938000269A61E083E00E94AF14C9
:1039C00013E081E00E944B1764E170E080E090E03A
:1039D0000E943B1580E00E944B1764E170E080E09C
:1039E00090E00E943B15115061F710927303109202
:1039F0007403109275031092760383E793E00E949C
:103A0000AE0780919A0390919B03A0919C03B09183
:103A10009D03F8948093900490939104A093920452
:103A2000B0939304789410927203109271038FEF05
:103A300097E090935603809355038091B201809351
:103A400054030E94161560939E0370939F03809306
:103A5000A0039093A1030E9416156093A70470938E
:103A6000A8048093A9049093AA040091A203109142
:103A7000A3032091A4033091A5036B017C01C01A1C
:103A8000D10AE20AF30AC092A304D092A404E092FD
:103A9000A504F092A60400919E0310919F0320912B
:103AA000A0033091A1036B017C01C01AD10AE20A84
:103AB000F30A40EDC41647E0D406E104F10410F423
:103AC0000C94F12E60939E0370939F038093A00348
:103AD0009093A103E2E310925A03809158039091CE
:103AE0005903C29774F01092590310925803109220
:103AF00061031092620310926303109264031092A8
:103B0000570380915803909159038230910574F4C2
:103B1000892B19F42C98769A769880915803909175
:103B20005903019709F044C02C9A42C09C012170AE
:103B3000332780FD39C091E04F9990E090935A036C
:103B400080915703803258F5409161035091620390
:103B5000609163037091640301E010E020E030E0C5
:103B6000082E04C0000F111F221F331F0A94D2F722
:103B7000992329F0402B512B622B732B08C0009501
:103B80001095209530954023512362237323409351
:103B900061035093620360936303709364038F5FC8
:103BA00080935703769A04C02130310509F4769842
:103BB00080915803909159030196909359038093F3
:103BC0005803E15009F087CFF894809190049091C8
:103BD0009104A0919204B0919304789440919A0337
:103BE00050919B0360919C0370919D03841B950BE6
:103BF000A60BB70B8093960390939703A09398031B
:103C0000B09399038093920390939303A0939403AA
:103C1000B09395031091910315FB882780F916FD49
:103C2000826017FF02C084601DC08130D9F46A0130
:103C30007B01C094D094E094F0949A01AB012C19CC
:103C40003D094E095F096091890370918A03809153
:103C50008B0390918C030E94D8322FEF3FEF40E00E
:103C600050E032C0823059F46A017B01C094D09494
:103C7000E094F094A0918303B091840319C0833041
:103C800059F46A017B01C094D094E094F094A0911F
:103C90007D03B0917E030CC0843021F56A017B0165
:103CA000C094D094E094F094A0917703B0917803FD
:103CB0009A01AB012C193D094E095F090E94D12FD1
:103CC0002FEF3FE040E050E00E94A72FC20ED31E2E
:103CD000E41EF51EC0929203D0929303E0929403E7
:103CE000F09295038090920390909303A090940398
:103CF000B09095038091B0049091B104A091B2046A
:103D0000B091B3048092B0049092B104A092B20436
:103D1000B092B3042091B804222309F449C0009161
:103D2000E10454E0059F90011124B90160557B4FD7
:103D30007B01A5019401281B390B4A0B5B0BCA01BF
:103D4000B9010E942631D70119966D937D938D9309
:103D50009C931C97F02EBAE0EB2E60E070E0CB0154
:103D6000B4E0FB9EF0011124E055FB4F2185328524
:103D7000438554850E940B30FF2011F0FA9402C055
:103D8000A9E0FA2EEA94E110EBCF20E030E040E227
:103D900051E40E947C300F5F0A3018F40093E10474
:103DA00002C01092E10468A779A78AA79BA70FC059
:103DB00081E08093B8041092B4041092B50410927C
:103DC000B6041092B70418A619A61AA61BA620912D
:103DD000E2043091E3044091E4045091E50488A5A5
:103DE00099A5AAA5BBA58093E2049093E304A093B0
:103DF000E404B093E5048091EA04882309F444C004
:103E000000913B05E4E00E9FC0011124BC01675402
:103E10007B4F7B0168A579A5CD010E940A30D701AF
:103E2000D2966D937D938D939C93D597F02EF4E16C
:103E3000EF2E60E070E0CB01B4E0FB9EF0011124B6
:103E4000E754FB4F22A933A944A955A90E940B307E
:103E5000FF2011F0FA9402C0E3E1FE2EEA94E11093
:103E6000EBCF20E030E040EA51E40E947C300F5F6D
:103E7000043118F400933B0502C010923B0568AB77
:103E800079AB8AAB9BAB0FC081E08093EA041092C0
:103E9000E6041092E7041092E8041092E90418AACC
:103EA00019AA1AAA1BAA80913C05882359F110FF70
:103EB00023C70E944D0B9B01AC0160E070E080E0E5
:103EC00094E40E947C306B017C0160916C0370E093
:103ED00080E090E00E9426319B01AC01C701B60151
:103EE0000E94DB3120E030E048EC52E40E947C305C
:103EF0000E94EE30AB01C501B4010E94860C2B017B
:103F00003C01FDC6ECEBF1E0FFA3EEA31F8A1E8A85
:103F1000412C512C32010E891F890F5F1F4F1F8BBF
:103F20000E8B4EE19801429F8001439F100D11249A
:103F300008511E4FD8018C918370833009F0CFC691
:103F40000E944D0B6B017C01F80121853285A78908
:103F5000B08D0E9402332FEF3FE740E050E00E9417
:103F6000A72FCA01B9010E942631A70196010E941C
:103F70007C300E94EE309B01AC01D8011B968D91E4
:103F80009C911C97059730F4E4E0F0E01C96FC93BC
:103F9000EE931B976EE1E62ECE88DF88EC9CF00155
:103FA000ED9CF00D1124E851FE4FE1818E2F90E041
:103FB000FC013197ED30F10508F07BC6EA5AFF4F5E
:103FC0000C94FC320E944D0B6A8B7B8B8C8B9D8BEF
:103FD0002EE10E891F89209FC001219F900D112481
:103FE000AC0148515E4F1A01DA0119968D909C90F0
:103FF0001A975596AD90BC9056971F96CD90DC9031
:1040000050975196ED90FC90529753960D911C91BC
:10401000549714962C91149713964C911397579686
:104020008D919C915897EEA1FFA1608171810E94B2
:104030005E0B9401DC010E9402332FEF3FE740E06A
:1040400050E00E94A72FCA01B9010E9426312A8997
:104050003B894C895D890E947C300E94EE300E9431
:104060005B0C9B01AC01A0916B03B0E00E94C62FDA
:1040700024E630E040E050E00E94A72F421A530AA5
:10408000640A750A72C10E944D0B6A8B7B8B8C8B04
:104090009D8BBEE1EB2ECE88DF88EC9CF001ED9C81
:1040A000F00D1124E851FE4F018512851B8F0A8FF8
:1040B000C588D688DF8ECE8EE784F088FBA2EAA280
:1040C000018912891DA70CA7038914891CAF0BAFA6
:1040D00084809380AEA1BFA12D903C90078510896C
:1040E0006085A7800A2C000CBB08062E000C770BFD
:1040F0006A197B09CB01770FAA0BBB0B6627782FB8
:10410000892F9A2F0E9426316B017C01B80180E033
:1041100090E00E94243120E030E04AE754E40E941D
:104120007C309B01AC01C701B6010E947C306B0161
:104130007C01C101B8010E94E832BC0180E090E03E
:104140000E94243120E030E04AE754E40E947C30B1
:104150009B01AC01C701B6010E94DB310E94EE3029
:10416000BA2CAA24C501860F971FAE8CBF8CCAA09B
:10417000DBA0ECA4FDA40BAD1CAD282D492DB10195
:104180000E945E0B2A8D3B8DDC010E9402332FEFD3
:104190003FE740E050E00E94A72FCA01B9010E940A
:1041A00026312A893B894C895D890E947C300E9496
:1041B000EE300E945B0C461A570A680A790A79C5E4
:1041C0000E944D0B6A8F7B8F8C8F9D8FAEE1CA2E24
:1041D000EE89FF89CE9EC001CF9E900D11248C01E7
:1041E00008511E4F1801D80119960D90BC91A02DB1
:1041F000BF8FAE8FF801038CF48DE02DFBA3EAA3F3
:10420000D8015D96BC91BCA7F80183849484A588ED
:10421000B688C784D088E188F2880389148924810C
:104220004381AEA1BFA10D90BC91A02DBB8BAA8BE9
:104230008789908DBD010E945E0B8C01B40180E0E6
:1042400090E00E94243120E030E04AE754E40E94EC
:104250007C309B01AC0160E070E080E89FE30E944D
:104260007C306B017C018A899B89B4010E94E83211
:10427000BC0180E090E00E94243120E030E04AE779
:1042800054E40E947C309B01AC01C701B6010E943E
:10429000DB316B017C01BCA56B2F70E080E090E00E
:1042A0000E94243120E030E040E85BE30E94DB31F3
:1042B0009B01AC01C701B6010E940B302BED3FE022
:1042C00049EC50E40E94DB310E9448329B01AC0172
:1042D000EAA1FBA16F01FF0FEE08FF08B801110F63
:1042E000880B990B2DAF21963FAF21974EAF5FAF53
:1042F0000E9426312DAD21963FAD21974EAD5FAD89
:104300000E94DB310E94EE30CB01770FAA0BBB0B72
:10431000A7019601280F391F4A1F5B1FAE8DBF8D65
:104320000E94C62F2FEF3FE740E050E00E94A72FEA
:10433000CA01B9010E9426312A8D3B8D4C8D5D8DBD
:104340000E947C300E94EE309B01AC01A0916A0378
:10435000B0E00E94C62F24E630E040E050E00E942A
:10436000A72F420E531E641E751ED10116968C9106
:10437000169782FF9EC41D966D917C911E9780E0DA
:1043800090E00E9424312BED3FE049EC50E40E9484
:10439000DB3120E030E040E058E30E94DB310E9456
:1043A00048329B01AC01C301B2012DAF21963FAF52
:1043B00021974EAF5FAF0E9426312DAD21963FADC4
:1043C00021974EAD5FAD0E94DB310E94EE302B0194
:1043D0003C016FC40E944D0B6A8F7B8F8C8F9D8F29
:1043E000FEE1EF2ECE88DF88EC9CF001ED9CF00D15
:1043F0001124E851FE4F018512851F8F0E8F238DEA
:10440000348DA901330F660B770B4AA35BA36CA312
:104410007DA3558D5CA723843484A588B688C78482
:10442000D088E188F2880389148924814381AEA170
:10443000BFA10D90BC91A02DBB8BAA8B8789908DBD
:10444000BD010E945E0BBC01990F880B990B0E9465
:1044500026314B015C01B10180E090E00E942431E3
:1044600020E030E04AE754E40E947C309B01AC013C
:1044700060E070E080E89FE30E947C306B017C018B
:104480008A899B89B1010E94E832BC0180E090E0FA
:104490000E94243120E030E04AE754E40E947C305E
:1044A0009B01AC01C701B6010E94DB316B017C01AD
:1044B000BCA56B2F70E080E090E00E94243120E0EA
:1044C00030E040E85BE30E94DB319B01AC01C701B7
:1044D000B6010E940B302BED3FE049EC50E40E9406
:1044E000DB310E9448326B017C0120E030E0A90101
:1044F0000E94D63187FF0CC020E030E0A901C7013F
:10450000B6010E94773087FF05C0EFEFEEAB02C027
:10451000F1E0FEABCEA86C2DCC0C770B880B990B81
:104520000E9426319B01AC01C501B4010E94DB3120
:104530000E94EE30CB01770FAA0BBB0BE0C10E94AB
:104540004D0B6E8F7F8F88A399A30EE1EE88FF88B5
:104550000E9DF0010F9DF00D1124E851FE4F2185B5
:1045600032853BA32AA3238D348DA901330F660B1B
:10457000770B4CA75DA76EA77FA7358D63857485E4
:104580007B8B6A8BA588B688C784D088E188F2883F
:104590000389148924814381AEA1BFA10D90BC91F0
:1045A000A02DBB8FAA8F8789908DBD0121963FAF2B
:1045B00021970E945E0B1C01EA89FB89BF0180E004
:1045C00090E00E9424314B015C0121963FAD219780
:1045D00060E4630F70E080E090E00E94243120E00E
:1045E00030E040E85BE30E94DB31A50194010E94CA
:1045F000DB310E94F5308A8D9B8D860F971F6A896B
:104600007B890E94E8328C01BC0180E090E00E942E
:10461000243120E030E04AE754E40E947C306B0112
:104620007C0120E030E0A9010E94D63187FD3CC02A
:1046300020E030E04AE754E4C501B4010E947C3038
:104640006A8F7B8F8C8F9D8F20E030E040E05FE3AE
:104650000E94DB319B01AC01C701B6010E9477309B
:1046600087FF22C0B101032C000C880B990B0E941C
:10467000263120E030E040E850E40E94DB312A8D12
:104680003B8D4C8D5D8D0E947C30A70196010E9470
:10469000DB310E94EE303194219431086101C60E65
:1046A000D71EDDAACCAA51C020E030E04AE754E48E
:1046B000C501B4010E947C304B015C0120E030E078
:1046C00040E05FE30E94DB319B01AC01C701B60112
:1046D0000E94D63187FD39C0A5019401C701B601FA
:1046E0000E94773087FF31C0B101032C000C880B8A
:1046F000990B0E94263120E030E040E850EC0E9407
:10470000DB31A50194010E947C306B017C018A8918
:104710009B8996958795B801681B790B80E090E09E
:104720000E94243120E030E04AE754E40E947C30CB
:104730009B01AC01C701B6010E94DB310E94EE3043
:104740007101E60EF71EFDAAECAA0CA91DA9C8016D
:10475000110FAA0BBB0B2CA53DA54EA55FA5280FDD
:10476000391F4A1F5B1FAAA1BBA10E94C62F2FEFB2
:104770003FE740E050E00E94A72FCA01B9010E9424
:1047800026312E8D3F8D48A159A10E947C300E9478
:10479000EE309B01AC01A0916A03B0E00E94C62FED
:1047A00024E630E040E050E00E94A72F420E531E66
:1047B000641E751E7EC20E944D0B6A8F7B8F8C8F8C
:1047C0009D8F4EE12E893F89429FF001439FF00D5E
:1047D0001124E851FE4F618572857F8F6E8F238D86
:1047E000348DC901330FAA0BBB0B8AA39BA3ACA3C7
:1047F000BDA3358D23843484A588B688C784D0882A
:10480000E188F2880389148924814381AEA1BFA184
:104810000D90BC91A02DBB8BAA8B8789908DBD017B
:1048200021963FAF21970E945E0B8C01B10180E081
:1048300090E00E9424314B015C0121963FAD21970D
:1048400060E8630F70E080E090E00E94243120E097
:1048500030E040E85BE30E94DB31A50194010E9457
:10486000DB310E94F5308A899B89860F971FB10141
:104870000E94E8329B8B8A8B82159305D0F5B80194
:10488000012E000C880B990B0E9426319B01AC0174
:104890000E940B306B017C0120E030E04AE754E4D9
:1048A000C501B4010E947C309B01AC01C701B60177
:1048B0000E947C304B015C01CA88DB88B60180E035
:1048C00090E00E94243120E030E04AE754E40E9466
:1048D0007C309B01AC01C501B4010E94DB310E9418
:1048E000EE301195019511097801E60EF71EF8AE2C
:1048F000EFAA0FA918ADC801110FAA0BBB0B2AA173
:104900003BA14CA15DA1280F391F4A1F5B1FAE8D33
:10491000BF8D0E94C62F2FEF3FE740E050E00E947E
:10492000A72FCA01B9010E9426312A8D3B8D4C8DDB
:104930005D8D2BCF0E944D0B6A8F7B8F8C8F9D8F4F
:104940004EE12E893F89429FF001439FF00D1124D3
:10495000E851FE4F618572857F8F6E8F238D348D78
:10496000C901330FAA0BBB0B8AA39BA3ACA3BDA3A6
:10497000358D23843484A588B688C784D088E1889F
:10498000F2880389148924814381AEA1BFA10D90CF
:10499000BC91A02DBB8BAA8B8789908DBD012196E0
:1049A0003FAF21970E945E0B8C01B10180E090E047
:1049B0000E9424314B015C0121963FAD219760E8B4
:1049C000630F70E080E090E00E94243120E030E04E
:1049D00040E85BE30E94DB31A50194010E94DB31DA
:1049E0000E94F5308A899B89860F971FB1010E942A
:1049F000E8329B8B8A8B82159305D0F56627772743
:104A0000601B710B072E000C880B990B0E9426313E
:104A10009B01AC010E940B306B017C0120E030E077
:104A20004AE754E4C501B4010E947C309B01AC010B
:104A3000C701B6010E947C304B015C01CA88DB884B
:104A4000B60180E090E00E94243120E030E04AE7A7
:104A500054E40E947C309B01AC01C501B4010E946A
:104A6000DB310E94EE307801E60EF71EFAAEE9AEB9
:104A700009AD1AAD40CF8EE16E897F89869FF00126
:104A8000879FF00D1124E851FE4F038D148DA091E6
:104A90006903B0E00E94C62F20E436E040E050E019
:104AA0000E94A72F69017A0120919A0330919B03FC
:104AB00040919C0350919D03D8010E94D12FDC01AD
:104AC000CB017FE0B595A795979587957A95D1F716
:104AD000092E000CAA0BBB0B40919203509193033B
:104AE00060919403709195038A019B01081B190B37
:104AF0002A0B3B0BC901B801A6010E94860C460E89
:104B0000571E681E791ED5C08EE16E897F89869FEB
:104B1000F001879FF00D1124E851FE4F038D148D95
:104B2000A0916803B0E00E94C62F24E630E040E088
:104B300050E00E94A72F69017A01B801110F880B7C
:104B4000990B0E9426312AE939EC4CEC54E40E947E
:104B50007C309B01AC0168A579A58AA59BA50E9424
:104B60000A30A6010E94B30D62C06EE1C62EAE8966
:104B7000BF89CA9EF001CB9EF00D1124E851FE4F73
:104B8000038D148DA0916703B0E00E94C62F24E628
:104B900030E040E050E00E94A72F69017A01B8019F
:104BA000110F880B990B0E94263120E03EEF4FEF4A
:104BB00056E40E947C309B01AC0168A979A98AA9BE
:104BC0009BA90E940A30A6010E944B0D30C00EE145
:104BD000EE88FF880E9DF0010F9DF00D1124E85125
:104BE000FE4F038D148DA0916603B0E00E94C62F86
:104BF00024E630E040E050E00E94A72F69017A01EE
:104C0000B801110F880B990B0E9426312AE939EC63
:104C10004CEC54E40E947C309B01AC0168A579A562
:104C20008AA59BA50E940A30A6010E94CA0C092EE3
:104C3000000CAA0BBB0B480E591E6A1E7B1E39C006
:104C40000E944D0B9B01AC018EE16E897F89869F8E
:104C5000F001879FF00D1124E851FE4F838D948D54
:104C6000BC01990F880B990B2DAF21963FAF21976F
:104C70004EAF5FAF0E9426312DAD21963FAD2197FB
:104C80004EAD5FAD0E947C300E94EE300E945B0C06
:104C90009B01AC01A0916A03B0E00E94C62F24E6FC
:104CA00030E040E050E00E94A72F421A530A640A05
:104CB000750A0E9461150091B8011091B901209107
:104CC000BA013091BB01DC01CB01801B910BA20B1F
:104CD000B30BEEA1FFA180839183A283B3830EA1C6
:104CE0001FA10C5F1F4F1FA30EA32E893F892B30DE
:104CF000310509F010C903C0412C512C320110912B
:104D0000910311FF32C00E944D0B9B01AC01E09159
:104D1000680367E471E0E69FC001E79F900D1124EE
:104D2000BC01990F880B990B2DAF21963FAF2197AE
:104D30004EAF5FAF0E9426312DAD21963FAD21973A
:104D40004EAD5FAD0E947C300E94EE30AB0168A595
:104D500079A58AA59BA50E94B30D092E000CAA0B6C
:104D6000BB0B480E591E6A1E7B1E12FF32C00E94EA
:104D70004D0B9B01AC01E091670367E471E0E69F96
:104D8000C001E79F900D1124BC01990F880B990B6E
:104D90002DAF21963FAF21974EAF5FAF0E942631D6
:104DA0002DAD21963FAD21974EAD5FAD0E947C3079
:104DB0000E94EE30AB0168A979A98AA99BA90E943B
:104DC0004B0D092E000CAA0BBB0B480E591E6A1E78
:104DD0007B1E13FF32C00E944D0B9B01AC01E09182
:104DE000660367E471E0E69FC001E79F900D112420
:104DF000BC01990F880B990B2DAF21963FAF2197DE
:104E00004EAF5FAF0E9426312DAD21963FAD219769
:104E10004EAD5FAD0E947C300E94EE30AB0168A5C4
:104E200079A58AA59BA50E94CA0C092E000CAA0B85
:104E3000BB0B480E591E6A1E7B1E40919A0350916F
:104E40009B0360919C0370919D03809192039091CC
:104E50009303A0919403B0919503CC24DD247601B3
:104E6000C41AD50AE60AF70A8C159D05AE05BF05DA
:104E700034F0481759076A077B070CF045C0B7FDA7
:104E800005C0841B950BA60BB70B04C0840F951FA0
:104E9000A61FB71F8093920390939303A09394034C
:104EA000B09395030E944D0B9B01AC0160E07EEF37
:104EB0008FEF96E40E947C306B017C01609165036A
:104EC00070E080E090E00E9426319B01AC01C701B8
:104ED000B6010E94DB3120E030E048EC52E40E9451
:104EE0007C300E94EE306B017C01609192037091E6
:104EF00093038091940390919503A6010E94860CE0
:104F0000460E571E681E791EA091B701B0E0A3019E
:104F100092010E94C62F24E630E040E050E00E945B
:104F2000A72FCA01B9010E945B0C6B017C0114FF21
:104F300004C00E9438180E94DD17C0927303D092FB
:104F40007403E0927503F09276036091960370917A
:104F5000970380919803909199030E9426316B01E9
:104F60007C016091500370915103809152039091A4
:104F700053030E9426319B01AC0160E07FEF8FE775
:104F800097E40E947C309B01AC01C701B6010E94EE
:104F9000DB310E94EE304B015C01611570488105E8
:104FA000910534F088248A942FE7922EA12CB12CFD
:104FB000811440E894064FEFA406B40634F4812C23
:104FC00090E8992EAA24AA94BA2C809296039092E3
:104FD0009703A0929803B092990383E793E00E940D
:104FE000AE0782E10E94EB149093840380938303C5
:104FF00084E10E94EB1490937E0380937D0385E10E
:105000000E94EB14909378038093770383E10E94CE
:10501000EB141C0100917103109172034090850301
:1050200050908603400E511E612C712CC0907F035E
:10503000D0908003C00ED11EE12CF12C20917D0375
:1050400030917E03C901330FAA0BBB0B9C01AD014C
:105050002C193D094E095F09AFEFBFE00E94C62F32
:105060002091810330918203201B310B40E050E0FE
:105070002C193D094E095F090E94A72F2E8B3F8BEB
:10508000488F598FC0907903D0907A03C00ED11EFB
:10509000E12CF12C2091770330917803C901330F73
:1050A000AA0BBB0B9C01AD012C193D094E095F09F0
:1050B000AFEFBFE00E94C62F20917B0330917C03AD
:1050C000201B310B40E050E02C193D094E095F09CF
:1050D0000E94A72F69017A012091830330918403F4
:1050E000C901330FAA0BBB0B9C01AD012419350973
:1050F00046095709AFEFBFE00E94C62F20918703F2
:1051000030918803201B310B40E050E02419350911
:10511000460957090E94A72F2901411450E155065D
:1051200024F044244A948FE0582E57FE02C0412CAC
:10513000512C50928403409283036E887F886114BF
:1051400060E1760624F066246A94BFE07B2E77FE49
:1051500002C0612C712C70927E0360927D03C11499
:1051600070E1D70624F0CC24CA94AFE0DA2ED7FE43
:1051700002C0C12CD12CD0927803C09277038091C9
:105180008D0390918E03800F911F9C0140E050E0B1
:105190002E8B3F8B488F598F9101330C440B550B4D
:1051A0006E897F89888D998D261B370B480B590B8B
:1051B000AFEFBFEF0E94C62F20918F033091900375
:1051C000201B310B40E050E0EE88FF88088D198DE0
:1051D0002E193F09400B510B0E94A72F21153105B5
:1051E00001E04007510524F02FEF3FEF40E050E091
:1051F00057FF03C020E030E0A901209389033093DA
:105200008A0340938B0350938C03E0906103F090EA
:10521000620300916303109164039E2D9F7091308F
:1052200081F0923081F0943081F0983081F09330A9
:1052300081F0963081F0993081F09C3081F060E00F
:105240000FC061E00DC063E00BC065E009C067E01E
:1052500007C062E005C064E003C068E001C066E02A
:10526000D801C701807F8A8B9B8BAC8BBD8B862B33
:1052700080936D0390936E03A0936F03B0937003BC
:10528000E0E89E1A89829A822B833C834D82262DE8
:105290002295207F25292E8324E0769467942A95F1
:1052A000E1F76F82C886282F2295207F2D29298734
:1052B000AC01BD0134E076956795579547953A95D1
:1052C000D1F74A87AC01BD01ECE07695679557951B
:1052D0004795EA95D1F74B87F4E1B695A795979551
:1052E0008795FA95D1F78C874CE050E0BE016F5F4F
:1052F0007F4F84E00E948C128091A3049091A404BB
:10530000A091A504B091A60480319742A105B105F2
:1053100008F467C585E994E00E94DB1318161906A6
:105320000CF04FC585E994E00E94A113E82F8FE9A6
:105330008E0F8A3108F4E0528E2F90E0FC01E15488
:10534000F109EA31F10508F03CC5ED59FF4F0C9425
:10535000FC328091B5019091B6010E94721880E2F2
:105360000E94D2178091B7010E94781880E20E94B3
:10537000D217809168030E94781880E20E94D217A9
:10538000809166030E94781880E20E94D217809173
:105390006B030E94781880E20E94D21780916A0302
:1053A0000E94781880E20E94D217809169030E94BF
:1053B000781880E20E94D217809167030E947818C3
:1053C00080E20E94D21780916C030E94781880E2DC
:1053D0000E94D217809165030E94781880E20E9493
:1053E000D2176091B3017091B40180E090E04AE07F
:1053F0000E94EB1780E20E94D2178091B2010E94B6
:10540000781880E20E94D217809191030E94781848
:1054100080E20E94D2176091B0017091B10180E0EA
:1054200090E04AE00E94EB1780E20E94D217609160
:105430005D0370915E0380915F03909160030E9411
:10544000381880E20E94D2176091AF0170E064C208
:1054500083E991E00E947F188AEF90E00E94721821
:1054600088E991E00E947F188AE991E00E947F1804
:105470008CE991E00E947F188EE991E00E947F18EC
:1054800080EA91E00E947F189CC48091AF04082EAE
:10549000000C990B94C4F894C0909004D09091049F
:1054A000E0909204F090930478948091B0019091F0
:1054B000B1012091B3013091B401821B930B9695F9
:1054C000879596958795A0E0B0E089839A83AB8312
:1054D000BC83CE0101960E94AE07D701C6011EEF24
:1054E000F8948090900490909104A0909204B090D1
:1054F0009304789488159905AA05BB0554F46CE2C9
:1055000071E080E090E00E943B151150D501C4018C
:1055100039F719821A821B821C82CE0101960E94E1
:10552000AE078091500390915103A0915203B09126
:105530005303F8948093900490939104A093920461
:10554000B09393047894C814D904EA04FB0411F4CA
:1055500082E001C081E08093AF042FC40E948118D3
:10556000611101C061E06093B20127C4F8944090DA
:1055700090045090910460909204709093047894F9
:1055800080919A0390919B03A0919C03B0919D03FD
:10559000481A590A6A0A7B0A8091AB049091AC04BC
:1055A000A091AD04B091AE04480E591E6A1E7B1E38
:1055B0000E94811864307105810591057CF06B01B2
:1055C0007C01613C7742894091056CF010ECC12E62
:1055D00017E2D12E19E0E12EF12C05C0B4E0CB2E5C
:1055E000D12CE12CF12CC982DA82EB82FC82609111
:1055F000B5017091B601072E000C880B990B0E9423
:1056000026314B015C01C301B2010E942631A50184
:1056100094010E94DB312B013C0160915003709199
:10562000510380915203909153030E9426319B01B4
:10563000AC01C301B2010E947C302B013C01C0923D
:105640005D03D0925E03E0925F03F0926003C701B6
:10565000B60191C080919A0390919B03A0919C0305
:10566000B0919D03F8948093900490939104A0933B
:105670009204B0939304789453C1F894809090046A
:1056800090909104A0909204B090930478948091AB
:105690009A0390919B03A0919C03B0919D03881A5B
:1056A000990AAA0ABB0A8091AB049091AC04A0911C
:1056B000AD04B091AE04880E991EAA1EBB1E0E94B6
:1056C00081186E3171058105910574F06B017C01C3
:1056D000693077408105910564F0A8E0CA2EA7E003
:1056E000DA2EE12CF12C05C0FEE1CF2ED12CE12CDD
:1056F000F12CC982DA82EB82FC82C501B4010E94DE
:1057000026314B015C016091B5017091B601072E05
:10571000000C880B990B0E9426319B01AC01C5013E
:10572000B4010E94DB314B015C0160915003709128
:10573000510380915203909153030E9426319B01A3
:10574000AC01C501B4010E947C302B013C01D09218
:10575000B601C092B501B601DD0C880B990B0E9411
:1057600026314B015C0160915D0370915E03809175
:105770005F03909160030E94263120E030E044EB0B
:1057800053E40E947C30A50194010E94DB310E9409
:10579000EE306093500370935103809352039093C3
:1057A00053036B017C01F594E794D794C794C0929E
:1057B0009A03D0929B03E0929C03F0929D030E9477
:1057C00026319B01AC01C301B2010E94DB31A5016E
:1057D00094010E947C300E94EE30C60ED71EE81E57
:1057E000F91E8091AB049091AC04A091AD04B091EE
:1057F000AE04C81AD90AEA0AFB0AF894C0929004C7
:10580000D0929104E0929204F09293047894D5C2DD
:105810000E948118262F6091910380E090E030E093
:10582000F901082E02C0F595E7950A94E2F7C12C1C
:10583000D12C7601C394082E04C0CC0CDD1CEE1CC8
:10584000FF1C0A94D2F7E0FF02C06C2902C0C0948A
:105850006C2101968830910519F76093910370E0EF
:1058600080E090E042E00E94EB170E94DD17A9C2A1
:105870000E9481188091AF0120E030E070E0AB0120
:10588000022E02C0559547950A94E2F7C12CD12CFF
:105890007601C394022E04C0CC0CDD1CEE1CFF1C50
:1058A0000A94D2F740FF02C08C2902C0C0948C2118
:1058B0002F5F3F4F2830310511F78093AF0141E052
:1058C0006FEA71E08DE190E00E94940E8091AF014B
:1058D0000E94EC0EBC0180E090E00E9424312091F7
:1058E000AB013091AC014091AD015091AE010E94ED
:1058F000DB310E94EE3069837A838B839C8344E0A2
:10590000BE016F5F7F4F81E190E00E94940E809115
:10591000AF010E94EC0EBC0180E090E04AE0A3CF12
:1059200080E090E04CC285E994E00E94A113E82F4A
:105930008FE98E0F8A3108F4E0528E2F90E0FC013F
:10594000E154F109E231F10508F03BC2E358FF4FA1
:105950000C94FC320E948118611520E172078105C8
:10596000910524F06FEF7FE080E090E097FF03C0A7
:1059700060E070E0CB0169837A838B839C837093B2
:105980008E0360938D0319C20E948118611530E166
:1059900073078105910524F06FEF7FE080E090E0D0
:1059A00097FF03C060E070E0CB0169837A838B834B
:1059B0009C837093900360938F03FFC10E948118B2
:1059C000611540E174078105910524F06FEF7FE0D8
:1059D00080E090E097FF03C060E070E0CB01698356
:1059E0007A838B839C837093860360938503E5C1E0
:1059F0000E948118611550E175078105910524F019
:105A00006FEF7FE080E090E097FF03C060E070E020
:105A1000CB0169837A838B839C8370938803609323
:105A20008703CBC10E9481186115A0E17A07810527
:105A3000910524F06FEF7FE080E090E097FF03C0D6
:105A400060E070E0CB0169837A838B839C837093E1
:105A5000800360937F03B1C10E9481186115B0E19A
:105A60007B078105910524F06FEF7FE080E090E0F7
:105A700097FF03C060E070E0CB0169837A838B837A
:105A80009C83709382036093810397C10E94811865
:105A90006115E0E17E078105910524F06FEF7FE05D
:105AA00080E090E097FF03C060E070E0CB01698385
:105AB0007A838B839C8370937A03609379037DC18F
:105AC0000E9481186115F0E17F078105910524F09E
:105AD0006FEF7FE080E090E097FF03C060E070E050
