:100000000C9414040C943C040C9494070C94DC079A
:100010000C94B8070C943C040C943C040C943C04E1
:100020000C943C040C943C040C94FB0A0C949E0825
:100030000C943C040C943C040C943C040C943C0440
:100040000C943C040C943C040C943C040C943C0430
:100050000C943C040C943C040C943C040C948E10C2
:100060000C943C040C943C040C943C040C943C0410
:100070000C943C040C943C040C943C040C943C0400
:100080000C943C040C943C040C943C040C943C04F0
:100090000C94D8100C943C040C943C040C943C0438
:1000A0000C943C040C943C040C943C04301F921FB0
:1000B000552133200A2200244023A224EC241E25AB
:1000C0005025D0258A25A12C992A382B852D162C30
:1000D000122D4B2B9E2C852D852D852D852D852D27
:1000E000852DC42AA12A852D362A302A852D9229CC
:1000F000152A462C852D9E2C9E2C4C2D512D2E2DB7
:10010000332D852D382D292D852D472D562D852DC7
:10011000852D422D852D852D852D852D852D3D2DDA
:10012000EA12EF12F412FE12481348134813081390
:1001300012131C132613331348133B136D17701738
:1001400063176717911791179117741778177C1712
:100150008217861791178C1705A84CCDB2D44EB9CB
:100160003836A9020C50B9918688083CA6AAAA2A5A
:10017000BE000000803F00000000000000002A2BAD
:100180002800000000000000000000000000000047
:100190000000000000002C9EB4A0A1A2A434A6A7D9
:1001A000A5AE362D3738271E1F20212223242526D1
:1001B000B333B62EB7B89F8485868788898A8B8C9F
:1001C0008D8E8F909192939495969798999A9B9CE7
:1001D0009D2F3130A3AD350405060708090A0B0C25
:1001E0000D0E0F101112131415161718191A1B1CC7
:1001F0001DAFB1B0B500080B0002020201000904F6
:100200000000010202000005240010010524010184
:1002100001042402060524060001070581031000DD
:100220004009040100020A00000007050202400024
:1002300000070583024000000904020002030000D9
:100240000009210101000122E104070584034000A7
:10025000010705050340000105010904A10185040A
:100260000901A1000930170000000027FFFF00006E
:10027000350047FFFF000075109501810209311616
:10028000000027FFFF0000350047FFFF000075104A
:1002900095018102093216000027FF0F000035008A
:1002A00047FF0F0000750C9501810209331600000D
:1002B00027FF0F0000350047FF0F0000750C950168
:1002C0008102093416000027FF0F0000350047FFA8
:1002D0000F0000750C9501810209391501250835BB
:1002E00000463B016514550075049501810205091E
:1002F000150025015500650019012918750195188B
:10030000810285F10901150026FF00953F750891CE
:100310008285F20901953F75088182C0050F099217
:10032000A1028502099F09A009A409A509A6150033
:10033000250135004501750195058102950381036D
:1003400009941500250135004501750195018102CB
:1003500009221501252835014528750795018102D7
:10036000C00921A102850109221501252835014571
:10037000287508950191020925A102092609270976
:100380003009310932093309340940094109420968
:1003900043250B15013501450B750895019100C0EA
:1003A00009500954150027FFFF0000350047FFFFE3
:1003B000000066011055FD7510950291025500660A
:1003C00000000952150026FF7F350046FF7F75109B
:1003D0009501910209531501250835014508750855
:1003E000950191020955A102050109300931150055
:1003F0002501750195029102C0050F0956950191DD
:1004000002950591030957A1020B01000A000B0296
:10041000000A0066140055FE150026FF7F350047D0
:100420009F8C00007510950191025500660000C078
:10043000050F09A766011055FD150027FFFF0000F5
:10044000350047FFFF00007510950191026600001E
:100450005500C0050F095AA1028502092215012580
:100460002835014528750895019102095B095D153C
:100470000026FF00350046FF7F75089502910209AE
:100480005C095E66011055FD26FF7F46FF7F7510F3
:10049000950291026600005500C0095FA102850324
:1004A0000922150125283501452875089501910275
:1004B00009231500250135004501750495019102B8
:1004C0000958A1020B01000A000B02000A00750284
:1004D00095029102C0096016008026FF7F360080D9
:1004E00046FF7F751095019102096136008046FF35
:1004F0007F95019102150026FF7F350046FF7F0999
:10050000637510950191020965150026FF0046FFED
:100510007F750895019102C0096EA1028504092228
:1005200015012528350145287508950191020970A6
:10053000150026FF7F350046FF7F7510950191025B
:10054000096F16008026FF7F36008046FF7F9501E9
:1005500091020971150026FF0035004667016614F7
:10056000005500750895019102097227FFFF0000F0
:1005700047FFFF000066011055FD751095019102BF
:100580006600005500C00973A10285050922150106
:100590002528350145287508950191020970160135
:1005A0008026FF7F36018046FF7F751095019102FE
:1005B000C00974A1028506092215012528350145C7
:1005C00028750895019102097509761581257F36F0
:1005D000018046FF7F750895029102C0050F0977DB
:1005E000A102850A0922150125283501452875082B
:1005F000950191020978A1020979097A097B15010F
:100600002503750895019100C0097C150026FF009F
:10061000350046FF009102C00990A102850B092216
:100620001501252835014528750895019102C00955
:1006300096A102850C099709980999099A099B09BD
:100640009C15012506750895019100C0097DA10240
:10065000850D097E150026FF003500461027750818
:1006600095019102C009ABA10285050925A10209E6
:1006700026092709300931093209330934094009AB
:1006800041094209431501250B3501450B750895B4
:1006900001B100C00501093B150026FF01350046E8
:1006A000FF01750A9501B1027506B101C0050F0978
:1006B00089A10285060922252815013501452875DD
:1006C000089501B102098BA102098C098D098E25BB
:1006D0000315013501450375089501B100C009AC4A
:1006E000150027FFFF0000350047FFFF00007510D1
:1006F0009501B100C0097FA1028507098075109599
:1007000001150027FFFF0000350047FFFF0000B183
:1007100002098326FF0046FF0075089501B1020912
:10072000A909AA750195021500250135004501B1F9
:100730000275069501B103C0C01803410072006440
:1007400000750069006E006F0020004C004C0043F3
:10075000000403090422034100720064007500696B
:10076000006E006F0020004C0065006F006E00619D
:1007700000720064006F001201000200000040419E
:100780002336800001010200011201000202000074
:10079000404123368000010102000100C18081C177
:1007A000C0070605040100080A0B0C0D0900000033
:1007B00000240027002A002D003000000000002542
:1007C0000028002B002E003100040404040403045C
:1007D00005020202020403020202020606060606DF
:1007E00006040402020204040408020110408040CE
:1007F0001020408040800802040180402010020147
:10080000108010204040200000000200080E000070
:10081000030401000B0000000000000000000000C5
:100820000000000000009F2D11241FBECFEFDAE072
:10083000DEBFCDBF11E0A0E0B1E0E8E6F3E602C024
:1008400005900D92A23AB107D9F725E0A2EAB1E0EE
:1008500001C01D92AE34B207E1F714E0C4E1D4E068
:1008600004C02197FE010E94A031C331D107C9F70E
:100870000E9404190C94B2310C9400008C30F8F4EE
:10088000282F30E09EE1899FF0011124EC51FE4FAA
:1008900090819923A1F090819D7F9083F901EA5581
:1008A000FC4F958191110BC0E091A301F091A4013F
:1008B0000084F185E02D09951092B60308950895FE
:1008C000FC01CB012091E80022FFFCCF282F215012
:1008D00028F03091F10030833196F9CF24E620934F
:1008E0009A032BEF2093E80008950F931F93CF9363
:1008F000DF93DB01A40FB51FFB016EEFEA17FB07C7
:1009000091F187FF02C0249101C0208100919E03D4
:1009100010919F03C0919C03D0919D030C171D075C
:10092000B4F49091E8009570E1F39091E80092FDA5
:100930001CC02093F10020919E0330919F032F5FF4
:100940003F4F2F733327232B11F46093E80020913E
:100950009E0330919F032F5F3F4F30939F0320935F
:100960009E033196CBCFCA0102C08FEF9FEFDF917C
:10097000CF911F910F910895CF93DF9300D000D0B6
:100980001F92CDB7DEB7FC0181819081913A29F5A4
:10099000813009F0BCC08281863051F445E050E0DE
:1009A00061EA73E080E40E9475041092A103AFC075
:1009B000873009F0ACC089838FEF9FEF9B838A83D8
:1009C0008BE08C8383E08D8345E050E0BE016F5F58
:1009D0007F4F80E40E9475049AC0913209F097C05D
:1009E000893009F094C08281853009F090C064E0BC
:1009F00070E0CE0101960E94600486E08093A1031E
:100A000080910F018B3021F1A0910F0181E08A0FBD
:100A100080930F019EE1E0910F019E9FF001112450
:100A2000EC51FE4F8081882351F080910F018B3073
:100A300030F480910F018F5F80930F01ECCF8EE136
:100A4000A89FF0011124EC51FE4F81E0808301C08A
:100A5000A0E0A093A203A11104C082E08093A303AD
:100A600050C01092300581E08093A3038A819EE1FB
:100A7000A99FD0011124AC51BE4F11968C931197B0
:100A80008FEF9FEF50969C938E931F9754961C92D6
:100A90001E92539752961C921E92519713968C93C6
:100AA000139714968C93149756961C921E925597F2
:100AB0001E961C921E921D9716961C9216978FEFEB
:100AC0009FE71A969C938E93199758961C921E92A4
:100AD00057975C961C921E925B975D961C925D9751
:100AE00088EE93E01C969C938E931B97E091A30154
:100AF000F091A4010684F785E02DBD01CE01019699
:100B000009958FEF9FEF9093A5038093A40381E055
:100B10000F900F900F900F900F90DF91CF9108954D
:100B200042E450E066EF71E080E80E94750440E224
:100B300050E068E372E080E80E94750483E090E092
:100B40000895EF92FF921F93CF93DF93EC01162F3E
:100B5000E881F9810480F581E02D09957C01E88127
:100B6000F9810680F781E02D612FCE010995C7013B
:100B70009927DF91CF911F91FF90EF900895FC018D
:100B800091818081813A29F49D7F81E0913091F4B7
:100B900014C0813279F49A3049F09B3019F09930C1
:100BA00049F40AC0828180930E0106C0828180933D
:100BB0000D0102C080E0089581E008958C30F0F4CA
:100BC0009EE1899FF0011124EC51FE4F8081882322
:100BD000A9F08081826080838091B60381110EC06C
:100BE0000E9482106093B4017093B5018093B601A6
:100BF0009093B70181E08093B60308950895CF9252
:100C0000DF92EF92FF926091B1017091B201072ED5
:100C1000000C880B990B0E94CA2F6B017C0160911C
:100C20004C0370914D0380914E0390914F030E94AD
:100C3000CA2F9B01AC01C701B6010E94202FFF9073
:100C4000EF90DF90CF900895CF92DF92EF92FF92D6
:100C50000F931F938B019C014091AC015091AD010A
:100C60006A01E12CF12C66277727CB016C197D09ED
:100C70008E099F0906171707280739074CF0C90185
:100C8000B801C016D106E206F30614F4C701B60196
:100C90001F910F91FF90EF90DF90CF9008954F92AA
:100CA0005F926F927F928F929F92AF92BF92CF92FC
:100CB000DF92EF92FF92CF93DF9300D000D0CDB7B9
:100CC000DEB74B015C0157FF02C04D5F5F4F6A0109
:100CD000D594C794D594C7940E94FF0569837A83FD
:100CE0008B839C839B01AC01C501B4010E947F30C2
:100CF00020E030E040E251E40E947F302B013C01D3
:100D000020E030E040E85FE30E947A300D2C000CD8
:100D1000EE08FF0818161CF4C701B60128C020E031
:100D200030E040E85FEBC301B2010E941B2F87FF58
:100D300006C0C701B6010E942406CB011EC0C70130
:100D4000B6010E94CA2F9B01AC01C501B4010E94EB
:100D50007F3029813A814B815C810E947F3020E085
:100D600030E040E251E40E947F300E94922F0E94C6
:100D7000240688279927861B970B0F900F900F90BA
:100D80000F90DF91CF91FF90EF90DF90CF90BF90C9
:100D9000AF909F908F907F906F905F904F9008954D
:100DA0008F929F92AF92BF92CF92DF92EF92FF927B
:100DB0004B015C01BA01550F880B990B0E94CA2F99
:100DC0006B017C0120E030E0A901C501B4010E9463
:100DD0007A30A501940118160CF05058C701B601DD
:100DE0000E947F306B017C010E94FF059B01AC01DA
:100DF000C701B6010E947F3020E030E040E851E4B6
:100E00000E947F3020E030E040E251E40E947F30D9
:100E100020E030E040E05DE30E947F300E94922FAE
:100E20000E9424066B017C0120E030E0A901C5018D
:100E3000B4010E947A3018162CF4882799278C194F
:100E40009D090DC020E030E0A901C501B4010E9458
:100E50001B2F87FF02C0C60102C080E090E0FF9018
:100E6000EF90DF90CF90BF90AF909F908F900895BC
:100E7000CF92DF92EF92FF92CF93DF936B017C01D1
:100E8000EA0120E030E0A9010E947A30181694F0BF
:100E900020E030E0A901C701B6010E941B2F87FFA7
:100EA0003AC020E030E0A901C701B6010E94AF2E90
:100EB0006B017C01BE01DD0F880B990B0E94CA2FCC
:100EC0009B01AC01C701B6010E947F306B017C0120
:100ED0000E94FF059B01AC01C701B6010E947F3053
:100EE00020E030E040E851E40E947F3020E030E034
:100EF00040E251E40E947F3020E030E040E05BE3DC
:100F00000E947F300E94922F0E94240688279927F2
:100F1000861B970B02C080E090E0DF91CF91FF909D
:100F2000EF90DF90CF9008951F920F920FB60F921F
:100F300011248F939F93AF93BF938091500390910F
:100F40005103A0915203B0915303F8948093840409
:100F500090938504A0938604B09387047894BF91FE
:100F6000AF919F918F910F900FBE0F901F9018958A
:100F70001F920F920FB60F9211242F933F934F930E
:100F80005F936F937F938F939F93AF93BF93EF93F1
:100F9000FF930E94A517FF91EF91BF91AF919F9191
:100FA0008F917F916F915F914F913F912F910F9012
:100FB0000FBE0F901F9018951F920F920FB60F92B1
:100FC00011242F933F934F935F936F937F938F934E
:100FD0009F93AF93BF93EF93FF930E94A517FF9149
:100FE000EF91BF91AF919F918F917F916F915F91A1
:100FF0004F913F912F910F900FBE0F901F9018951A
:10100000CF92DF92EF92FF920F931F93CF93DF93D4
:101010001F92CDB7DEB7F82EE42E8B01C82ED92E45
:101020008C2D8F198E1588F4F80161918F01C601FE
:1010300069830E94352E6981681719F0C6010E94E4
:101040003D2EFFEFCF1ADF0AEBCF0F90DF91CF914C
:101050001F910F91FF90EF90DF90CF900895CF9266
:10106000DF92EF92FF920F931F93CF93DF931F9224
:10107000CDB7DEB78B016B017C01E61AF70A9C2D18
:10108000901B941758F4C7018C0D9D1D49830E9435
:10109000352EF60181936F014981F1CF0F90DF91D9
:1010A000CF911F910F91FF90EF90DF90CF90089517
:1010B0008F929F92AF92BF92CF92DF92EF92FF9268
:1010C00040E050E020E0682F70E0812C912C54012A
:1010D0008394FA013296DB0102C0B595A795EA9593
:1010E000E2F775016401042E04C0CC0CDD1CEE1C7B
:1010F000FF1C0A94D2F7A0FF02C02C2902C0C094A2
:101100002C214F5F5F4F4430510519F730E0220F1B
:10111000331FF901EC5CFE4F80FF05C08081918197
:101120009695879502C080819181FF90EF90DF9026
:10113000CF90BF90AF909F908F9008951F920F9285
:101140000FB60F921124EF92FF921F932F933F93AC
:101150004F935F936F937F938F939F93AF93BF93BF
:10116000EF93FF93CF93DF93CDB7DEB76197DEBFE9
:10117000CDBF1092E9008091E80083FF59C1FE01C4
:101180003A96CF0128E02E0F2E1729F03091F1006A
:1011900030833196F9CF24E620939A0322EF2093EF
:1011A000E8002A8527FF05C03091E80030FFFCCF1A
:1011B00003C03EEF3093E800322F307609F0C5C00F
:1011C0008B85811105C01092F1001092F10029C1A8
:1011D000982F9D7F913009F424C1853049F4809186
:1011E000E80080FFFCCF8C8580688093E30019C104
:1011F000863009F07CC01D85E888F9881092E900E6
:1012000010929F0310929E03123091F510929D034D
:1012100010929C030E94900599E0BE016F5F7F4F82
:10122000FB01292F11922A95E9F799831A8391E0FE
:101230009E8390E898879AEF998720919E0330913A
:101240009F03275F3F4F3C832B838D831092E900E0
:1012500010929F0310929E03F0929D03E0929C03D4
:1012600049E050E080E00E9475040E949005D9C0DA
:10127000F0929D03E0929C03123259F441EE54E047
:1012800068E572E080E80E947504892B09F0C9C006
:10129000CCC0113069F488899989089711F41093AA
:1012A0009B0380919B03811111C067E777E016C013
:1012B000133009F0BAC08C85882359F0823061F070
:1012C000813009F0B2C069E377E008C069E877E0EF
:1012D00005C061E577E002C065E577E0611571055D
:1012E00009F4A3C0FB01449150E080E849C0873075
:1012F00009F49BC0883021F481E08093F10091C013
:10130000893009F08EC0237009F08FC080E090E032
:1013100031E026E341E0480F4093E9003093EB00D1
:101320000196FC01E556F84FE491E093EC00209320
:10133000ED008530910571F78EE78093EA001092F9
:10134000EA008C858093A2016CC0288939891092AB
:10135000E90010929F0310929E0330939D03209307
:101360009C032E85211154C08B859A85913A59F49E
:10137000813209F05AC047E050E060E171E080E05E
:101380000E9475044EC0913209F04FC0803239F48A
:1013900067E070E080E191E00E94600442C0823228
:1013A00009F043C08C8580931701809110019091C2
:1013B0001101A0911201B0911301803B9440A1054D
:1013C000B10579F58091170180FD11C087E797E796
:1013D00090930108809300089BE088E10FB6F89491
:1013E000A895809360000FBE909360001AC00FB65E
:1013F000F894A895809160008861809360001092B5
:1014000060000FBEA895109201081092000809C054
:10141000223059F4E0913105F09132050995882385
:1014200021F08EEF8093E80003C081E28093EB000F
:1014300061960FB6F894DEBF0FBECDBFDF91CF919E
:10144000FF91EF91BF91AF919F918F917F916F919C
:101450005F914F913F912F911F91FF90EF900F90CF
:101460000FBE0F901F9018958F929F92AF92BF92D0
:10147000CF92DF92EF92FF920F931F93CF93DF9360
:1014800000D01F92CDB7DEB7382F8B018091A2011B
:10149000882389F04A018AEFF82E832F8770E82E7F
:1014A00090E4C92E832F8072B82E2AE3D22E832F88
:1014B0008074A82E21C08FEF9FEF5FC08FB7F89484
:1014C000E092E9009091E80095FF1AC09091F20037
:1014D0002C2D291B8FBF211115C0FA94FF2059F321
:1014E00061E070E080E090E039834A835B830E9492
:1014F0005C1039814A815B8181149104F9F634C012
:1015000020E0E8CF822F90E0881699060CF4282D71
:10151000822F90E0881A990A6FB7F894E092E90058
:10152000BB2029F02150A8F01092F100FBCFF80168
:1015300037FF07C0215058F074917093F100319635
:10154000F9CF215020F071917093F100FACF080F7C
:10155000191F8091E80085FF0DC08114910411F4DA
:10156000A11008C06FBFC8CF5D9884E68093A00328
:10157000CA0103C0D092E800F5CF0F900F900F90F2
:10158000DF91CF911F910F91FF90EF90DF90CF905F
:10159000BF90AF909F908F9008959091A201992352
:1015A00011F057FF03C08FEF9FEF08952FB7F89406
:1015B00087708093E9008091F20090E0841795078E
:1015C0000CF4AC01842FFB0194E6815030F0909331
:1015D0009A033091F1003193F8CF4115510521F074
:1015E0008091F200882319F02FBFCA0108958BE67D
:1015F0008093E800F9CF1F920F920FB60F9211243B
:101600002F933F934F935F936F937F938F939F930A
:10161000AF93BF93EF93FF93CF93DF93CDB7DEB735
:10162000C054D109DEBFCDBF8091E1001092E1002E
:1016300083FF0FC01092E90091E09093EB001092AD
:10164000EC0092E39093ED001092A20198E0909349
:10165000F00082FF46C083E08093E9008091F200B1
:10166000882319F08AE38093E8009FB7F89482E01A
:101670008093E9008091F2009FBF882321F089E8E0
:1016800094E00E94950F9FB7F89485E08093E9005D
:101690008091F2009FBF8823C1F080913305909123
:1016A0003405892B91F040E450E0BE016F5F7F4F1D
:1016B00085E00E94CD0A97FD08C0E0913305F091C6
:1016C0003405BC01CE01019609958091A0038823C1
:1016D00041F08091A00381508093A003811101C04B
:1016E0005D9AC05CDF4F0FB6F894DEBF0FBECDBF72
:1016F000DF91CF91FF91EF91BF91AF919F918F912A
:101700007F916F915F914F913F912F910F900FBEFD
:101710000F901F901895EF92FF920F931F93CF9306
:10172000DF931F92CDB7DEB789838B017A0141E049
:1017300050E0BE016F5F7F4F84E00E94340AA70132
:10174000B80184E40E94340A0F90DF91CF911F9179
:101750000F91FF90EF9008951F93CF93DF93DC01DB
:1017600011961C9111979C91953009F467C060F512
:10177000923009F443C0A8F4913009F04DC1E091D2
:10178000A301F091A4012EE1129FB00111246C512C
:101790007E4F028CF38DE02DCD01DF91CF911F9113
:1017A00009949330C9F1943009F036C1E091A30156
:1017B000F091A4012EE1129FB00111246C517E4FD3
:1017C0000488F589E02D35C09B3009F49DC038F4BC
:1017D000963009F441C09A3009F44CC01DC19C30C8
:1017E00009F4CBC0913F09F017C140E450E0BD01BE
:1017F00082EFDF91CF911F910C948B0BE091A301AD
:10180000F091A4013EE1139FB00111246C517E4F71
:101810000088F189E02D0DC0E091A301F091A401B1
:101820008EE1189FB00111246C517E4F0288F3891C
:10183000E02DCD01DF91CF911F910994E091A3019B
:10184000F091A4013EE1139FB00111246C517E4F31
:101850000688F789E02DEDCFE091A301F091A40176
:101860008EE1189FB00111246C517E4F008CF18DD8
:10187000E02DDFCF1F3F09F41FE712969C919130B6
:1018800099F4812F0E94DE05E12FF0E0EA55FC4F2C
:1018900085818111C1C0E091A301F091A40106806E
:1018A000F781E02D812F47C0923029F5C1E08C2FC0
:1018B0000E943E04CF5FCC30D1F7C12FD0E0CA5593
:1018C000DC4F8D81811109C0E091A301F091A40149
:1018D0000084F185E02D8FE70995812F0E94DE05B8
:1018E0008D81811199C0E091A301F091A40106803E
:1018F000F781E02D1FC0933009F08EC0812FDF915A
:10190000CF911F910C943E0481E01F3FC1F480935E
:101910000F0188E691E0E4EEF1E0DF019C011D9209
:1019200021503040E1F7E091A301F091A40102843D
:10193000F385E02D8FE7DF91CF911F91099480937C
:1019400030051C3008F068C03EE1139FF0011124FF
:10195000EC51FE4F108280910F01181710F4109374
:101960000F01E091A301F091A4010284F385E02D21
:10197000812F09951092B6034FC082E08093B70380
:101980009091B80394609093B8039091B8039061DC
:101990009093B8031092B9031330B1F040F41130B2
:1019A00079F01230C9F58091B803826033C01530E8
:1019B00071F1B0F0163081F58091B8038E7F2AC0A6
:1019C0008091B8038D7F26C0E091A301F091A4011E
:1019D0000480F581E02D80E009951092B9031CC0C8
:1019E000E091A301F091A4010480F581E02D81E054
:1019F000099581E080930F0188E691E0E4EEF1E043
:101A0000DF019C011D9221503040E1F705C080911B
:101A1000B80381608093B803DF91CF911F9108953F
:101A2000DC01683810F0685825C0E62FF0E067FF49
:101A300012C0E058F10981E090E001C0880FEA95FA
:101A4000EAF7809514969C911497892314968C93A9
:101A5000149760E00FC0EA58FE4F6491662311F1BD
:101A600067FF08C014968C9114978D7F14968C9301
:101A700014976F77FD01369686E0662321F09081FA
:101A8000961301C01082815031968111F6CFBD01AD
:101A90006C5F7F4F48E050E082E00E948B0B81E05A
:101AA00090E0089580E090E00895FC01168217828E
:101AB00010861186128613861482BC016C5F7F4FDC
:101AC00048E050E082E00C948B0BDC01683810F0A9
:101AD00068582DC0E62FF0E067FF11C0E058F1090B
:101AE00081E090E001C0880FEA95EAF714969C9196
:101AF0001497892B14968C93149760E018C0EA58B9
:101B0000FE4F6491611109C081E090E013969C93AF
:101B10008E93129780E090E0089567FF08C01496B6
:101B20008C911497826014968C9314976F77169605
:101B30008C911697861751F117968C9117978617E7
:101B400029F118968C911897861701F119968C91A6
:101B500019978617D9F01A968C911A978617B1F0B3
:101B60001B968C911B97861789F0FD01369680E0B5
:101B700090E02191211105C0FD01E80FF91F668356
:101B800005C0019686309105A1F7BECFBD016C5FFF
:101B90007F4F48E050E082E00E948B0B81E090E0B4
:101BA0000895CF92DF92EF92FF920F931F93CF93FE
:101BB000DF936C01EB017B01E40EF51E00E010E009
:101BC000CE15DF0561F06991D601ED91FC91019090
:101BD000F081E02DC6010995080F191FF1CFC8014A
:101BE000DF91CF911F910F91FF90EF90DF90CF90F9
:101BF000089583E08093E9008091F200882319F032
:101C00008AE38093E800089520917E0430917F0458
:101C1000809180049091810428173907A9F0E09100
:101C20008004F0918104E25CFB4F8081209180046C
:101C3000309181042F5F3F4F2F73332730938104FE
:101C40002093800490E008958FEF9FEF08952091F6
:101C50007E0430917F048091800490918104281744
:101C6000390749F0E0918004F0918104E25CFB4F78
:101C7000808190E008958FEF9FEF089580917E041A
:101C800090917F042091800430918104821B930BFA
:101C90008F739927089585ED8093BC008091BC00D7
:101CA00084FDFCCF10920F0408954091E903262F84
:101CB00030E0240F311D21323105DCF420910F0476
:101CC0002430C9F4FC0180E090E0861758F430918C
:101CD000E9032191DC01A953BC4FA30FB11D2C9343
:101CE0000196F3CF8091E903680F6093E90380E0E8
:101CF000089581E0089582E0089508958FEF9FEFA1
:101D000008958FEF9FEF08958091C60390E091951D
:101D1000819591090895CF93DF9300D0CDB7DEB7B9
:101D2000CB01642F49835A830E94550E4981842F29
:101D30005A81952F0F900F90DF91CF910895CF93F7
:101D4000DF931F92CDB7DEB7698361E0CE010196C4
:101D50000E94550E81E090E00F90DF91CF910895A1
:101D60000895CF93DF93FC01EB0171818281898318
:101D7000878190859A878987258536854381548117
:101D80006EE1769FC00111248C519E4FDC0150966C
:101D90005C934E931F9756963C932E93559764E011
:101DA000769FD0011124AC54BE4F1D921D921D92FE
:101DB0001C921397838594859E878D8782858E8359
:101DC00081E0DF91CF910895FC012281FB012783FF
:101DD000FC018381FB0180870895FC01828193814E
:101DE000FB01908F878B0895DC01FB0112968D918A
:101DF0009C911397908F878B14968D919C9115973A
:101E0000948F838F16968C911697858F17968D9148
:101E10009C911897948783870895DC01FB011296A3
:101E20008C91129782838281811110C015968D91B9
:101E30009C911697908F878B13968D919C911497F8
:101E4000948F838F17968C9185830895828108954E
:101E5000DC01FB0112968C911297838313968C916F
:101E60001397848314968D919C911597948B838BF3
:101E700016968D919C911797928B818B08959EE178
:101E8000899FF0011124EC51FE4F708B6787568BB0
:101E9000458B94E0899FF0011124EC54FE4F108291
:101EA00011821282138208950895089510923005C8
:101EB00024E0829FC0011124FC01EC54FE4F1082EB
:101EC000118212821382089525E0FC0120838EE4A2
:101ED00091E0089508958093300508950E94AD31F2
:101EE0000F931F93CF93DF931F92CDB7DEB78C0173
:101EF000698380911701882359F041E050E0BE01C9
:101F00006F5F7F4F83E00E94340A181619063CF079
:101F100081E090E0F8019383828380E090E00F906D
:101F2000DF91CF911F910F9108950F931F93CF933E
:101F3000DF931F92CDB7DEB700917E0410917F042E
:101F40000F5F1F4F0F7311278091800490918104C0
:101F500008171907F9F041E050E0BE016F5F7F4FAD
:101F600082E00E94CD0A019719F4898190E002C0B5
:101F70008FEF9FEF8F3F2FEF920761F0E0917E048C
:101F8000F0917F04E25CFB4F808310937F04009309
:101F90007E04D2CF0F90DF91CF911F910F910895C2
:101FA000CF93DF9390E0FC01E851F84F2491FC01BE
:101FB000E753F84F8491882361F190E0880F991FCF
:101FC000FC01E355F84FC591D491FC01E554F84F5D
:101FD000A591B491611109C09FB7F89488812095AB
:101FE00082238883EC912E230BC0623061F49FB76B
:101FF000F8943881822F809583238883EC912E2B4F
:102000002C939FBF06C08FB7F894E8812E2B2883AE
:102010008FBFDF91CF910895823108F08251E82F70
:10202000F0E0EF55F84FE49180917B00E3FB22272D
:1020300020F930E095E0220F331F9A95E1F78F7D6C
:10204000282B20937B00E770E064E0937C00809174
:102050007A00806480937A0080917A0086FDFCCFBC
:10206000809178002091790090E0922B08953FB7FD
:10207000F89480913A0490913B04A0913C04B09173
:102080003D0426B5A89B05C02F3F19F00196A11D60
:10209000B11D3FBFBA2FA92F982F8827820F911DFE
:1020A000A11DB11DBC01CD0142E0660F771F881F45
:1020B000991F4A95D1F70895CF92DF92EF92FF9240
:1020C000CF93DF936B017C010E943710EB01C114A9
:1020D000D104E104F10479F00E9437106C1B7D0BF0
:1020E000683E7340A0F381E0C81AD108E108F10806
:1020F000C851DC4FECCFDF91CF91FF90EF90DF9094
:10210000CF9008952FB7F8946091360470913704FA
:1021100080913804909139042FBF08951F920F9237
:102120000FB60F9211242F933F938F939F93AF93EA
:10213000BF938091360490913704A0913804B091F8
:1021400039043091350423E0230F2D3720F4019614
:10215000A11DB11D05C026E8230F0296A11DB11DCA
:10216000209335048093360490933704A093380469
:10217000B093390480913A0490913B04A0913C04BF
:10218000B0913D040196A11DB11D80933A04909336
:102190003B04A0933C04B0933D04BF91AF919F9149
:1021A0008F913F912F910F900FBE0F901F90189518
:1021B0001F920F920FB60F9211242F933F934F93BC
:1021C0005F936F937F938F939F93AF93BF93EF939F
:1021D000FF938091B900887F803609F49CC068F530
:1021E000883209F45BC090F4803109F454C038F4AB
:1021F000882309F4F6C0883009F44DC0F6C0883150
:1022000009F44CC0803209F45DC0EFC0803409F499
:1022100068C048F4803309F455C0883309F0E5C03C
:1022200080930E04D8C0803509F44FC0883509F476
:102230005DC0883409F0D9C0D6C0883909F4C7C058
:10224000A8F4883709F467C038F4883609F463C005
:10225000803709F460C0C9C0883809F4B8C0803933
:1022600009F45FC0803809F0C0C05BC0803B09F44E
:1022700086C038F4803A09F466C0883A09F47FC011
:10228000B4C0803C09F4A7C0883C09F4A4C0883BD2
:1022900009F48AC0AAC08091340410C0909133041C
:1022A00080913204981770F5E091330481E08E0F2D
:1022B00080933304F0E0EE5EFB4F80818093BB009F
:1022C00085EC86C080930E048EC0E091330481E0DB
:1022D0008E0F809333048091BB00F0E0EE5EFB4FE5
:1022E000808390913304809132046EC0E091330476
:1022F00081E08E0F809333048091BB00F0E0EE5EAE
:10230000FB4F80838091110481116DC081E0809327
:10231000100484EA61C083E080930F0410920D04DE
:10232000CFCF80910D04803208F051C0E0910D04B0
:1023300081E08E0F80930D048091BB00F0E0E351AB
:10234000FC4F8083BDCF85EC8093BC0010920F04BE
:1023500080910D04803230F4E0910D04F0E0E351FF
:10236000FC4F108260910D0470E0E091EB03F0915E
:10237000EC038DEE93E0099510920D0436C084E0D5
:1023800080930F041092EA031092E903E091E703AF
:10239000F091E80309958091E903811105C081E07E
:1023A0008093E9031092C703E091EA0381E08E0F66
:1023B0008093EA03F0E0E953FC4F80818093BB00F7
:1023C0009091EA038091E903981708F479CF85E8A2
:1023D0008093BC000AC085EC8093BC0010920F046F
:1023E00004C010920E040E944B0EFF91EF91BF911A
:1023F000AF919F918F917F916F915F914F913F919D
:102400002F910F900FBE0F901F9018952091A5014E
:102410003091A6012817390708F4C90190938B0061
:1024200080938A0008952091A5013091A601281774
:10243000390708F4C90190938900809388000895B2
:102440004F925F926F927F928F929F92AF92BF92C4
:10245000CF92DF92EF92FF920F931F93CF93DF9370
:10246000CDB7DEB760970FB6F894DEBF0FBECDBF15
:10247000009709F46DC38C016091B30170E080E0B6
:1024800090E00E94CA2F2AE037ED43E25CE30E940D
:102490007F3069837A838B839C83F801808091806D
:1024A000A280B380B7FE08C0B094A09490948094AA
:1024B000811C911CA11CB11CC501B4010E94CA2F32
:1024C0006B017C016091AC017091AD0180E090E006
:1024D0000E94C82F2B013C0126E636E646E65FE364
:1024E0000E947F3029813A814B815C810E947F303C
:1024F0006D837E838F8398879B01AC01C701B601F2
:102500000E947A3087FDCAC0A301920169817A8155
:102510008B819C810E947F3069877A878B879C871B
:1025200020E030E040E85FE30E94AE2E9B01AC016A
:10253000C701B6010E941B2F87FFB0C06D817E814D
:102540008F8198850E94922F6B017C01A5019401D7
:10255000261B370B480B590BAEE3B0E00E946A2EE6
:102560004B015C0169857A858B859C850E94922F41
:102570009B01AC012C193D094E095F09C501B4014D
:102580000E944B2E69017A01FFEFCF1ADF0AEF0A92
:10259000FF0A560161E083E00E94D00FC114D1040C
:1025A00011F480E005C08FEFC816D10421F481E05A
:1025B0000E944B178AC0EAE0F8E0E4918E2F90E089
:1025C000FC013197EE30F10508F062C0E057FF4F93
:1025D0000C94A03184B5806884BDC7BC76C084B536
:1025E000806284BDC8BC71C0809180008068809387
:1025F0008000D0928900C092880067C080918000DE
:10260000806280938000D0928B00C0928A005DC06F
:1026100080919000806880939000D0929900C09241
:10262000980053C080919000806280939000D09277
:102630009B00C0929A0049C080919000886080936E
:102640009000D0929D00C0929C003FC08091C0003D
:1026500080688093C0008091C0008F7B8093C00011
:10266000C092CF0032C08091C00080628093C000D1
:10267000C092D0002AC08091C20088608093C200BE
:102680008091C2008B7F8093C200C092D2001DC097
:10269000E0E8AE16B1040CF08ACF83CFA30192011B
:1026A00069817A818B819C810E947F3020E030E0BB
:1026B00040E85FE30E94AE2E9B01AC01C701B6016A
:1026C0000E947A3087FD6DCF72CF6091AE0170E0CD
:1026D00060587109072E000C880B990B0E94CA2FB5
:1026E00020E030E04FE753E40E94202F6B017C0193
:1026F0006093C2037093C3038093C4039093C50394
:1027000020E030E0A9010E947A3087FD1DC0A701BA
:10271000960160E070E080E89FE30E94AE2E609337
:10272000BE037093BF038093C0039093C10380E006
:1027300090E0A0E8BFE38093BA039093BB03A0931B
:10274000BC03B093BD0323C020E030E0A901C70162
:10275000B6010E941B2F87FF1AC080E090E0A0E81E
:10276000BFE38093BE039093BF03A093C003B093D5
:10277000C1039C01AD01C701B6010E94AF2E609359
:10278000BA037093BB038093BC039093BD039091F5
:10279000AB01F801C080D180E280F380892F807482
:1027A00091FDEAC0811195C01C141D041E041F0474
:1027B000E4F54090AC015090AD012091AF01309113
:1027C000B0014901A12CB12C612C712CC301B201C3
:1027D0000E94C82F2091BA033091BB034091BC03E3
:1027E0005091BD030E947F300E94922F6819790991
:1027F0008A099B09A70196010E947C31A3019201DD
:102800000E944B2EDA01C901880D991DAA1DBB1D1E
:10281000F80180839183A283B38380E090E00E94DB
:102820001312F8018081918146C0C114D104E104E2
:10283000F10409F444C04090AC015090AD01809186
:10284000AF019091B0014C01A12CB12CF094E09417
:10285000D094C094C11CD11CE11CF11C612C712CC2
:10286000C301B2010E94C82F2091BE033091BF0363
:102870004091C0035091C1030E947F300E94922F6B
:10288000681979098A099B09A70196010E947C3180
:10289000A30192010E944B2EDA01C901880D991DF6
:1028A000AA1DBB1DF80180839183A283B3830E947C
:1028B000131280E090E00E9406122F9A49C180E036
:1028C00090E00E94131280E090E00E9406122F9880
:1028D0003FC1E091AC01F091AD011C141D041E0438
:1028E0001F04DCF44F01969487948091AF0190917E
:1028F000B001880E991EA12CB12C2F01612C712CD6
:10290000C301B201681979098A099B09A7019601D7
:102910000E947C31A301920119C0C114D104E104C9
:10292000F10411F14F01969487948091AF01909139
:10293000B001881A990AA12CB12CA5019401C701F4
:10294000B6010E947C319F0140E050E00E944B2E76
:10295000DA01C901880D991DAA1DBB1DF8018083EC
:102960009183A283B38303C0CF01969587950E947C
:10297000131280E090E0D4C0811133C0F7FC02C094
:102980002F9A01C02F988091AF019091B0016C01F6
:10299000E12CF12C8090AC019090AD01A12CB12CD8
:1029A000F801208131814281538157FF07C0509542
:1029B0004095309521953F4F4F4F5F4FC501B40172
:1029C0006C197D098E099F090E947C31A501940133
:1029D0000E944B2EDA01C9018C0D9D1DAE1DBF1D3D
:1029E00081C01C141D041E041F046CF520E030E09F
:1029F00040E85FE36091A7017091A8018091A9016F
:102A00009091AA010E94AF2E2091040130910501FE
:102A100040910601509107010E947F300E94922F41
:102A20004B015C01609100017091010180910201F4
:102A3000909103010E94922F681979098A099B09D4
:102A4000A70196013FC0C114D104E104F10409F4C7
:102A50004FC02091A7013091A8014091A901509148
:102A6000AA0160E070E080E89FE30E94AE2E209112
:102A700004013091050140910601509107010E9427
:102A80007F300E94922F4B015C0122273327A9013E
:102A90002C193D094E095F096091080170910901E7
:102AA00080910A0190910B012D873E874F87588BAB
:102AB0000E94922F681979098A099B092D853E8504
:102AC0004F8558890E947C312091AC013091AD0135
:102AD00040E050E00E944B2EDA01C901880D991D9B
:102AE000AA1DBB1DF80180839183A283B3830BC011
:102AF0006091040170910501809106019091070198
:102B00000E94992FCB010E941312609104017091D1
:102B1000050180910601909107010E94992FCB0138
:102B200060960FB6F894DEBF0FBECDBFDF91CF9198
:102B30001F910F91FF90EF90DF90CF90BF90AF90DB
:102B40009F908F907F906F905F904F900C940612A3
:102B500060960FB6F894DEBF0FBECDBFDF91CF9168
:102B60001F910F91FF90EF90DF90CF90BF90AF90AB
:102B70009F908F907F906F905F904F90089560919D
:102B8000A5017091A60180E090E00E94C82F9B01F2
:102B9000AC0160E07EEF8FEF96E40E94202F089555
:102BA0002F923F924F925F926F927F928F929F925D
:102BB000AF92BF92CF92DF92EF92FF920F931F934B
:102BC000CF93DF93CDB7DEB729970FB6F894DEBF6A
:102BD0000FBECDBF998788874B012B831D830C8344
:102BE0001701DF82CE82042F10E08C819D816C0161
:102BF000E12CF12CE885F985F7FD2BC0C8019695ED
:102C0000982F882797958795BF01681B790B072E0A
:102C1000000C880B990B0E94CA2F2B013C01C701A5
:102C2000B6010E94C82F9B01AC01C301B2010E94F2
:102C3000202F2B013C01C8019695982F8827979546
:102C400087959A838983EB8190E8E99FB0011124ED
:102C50002AC0B8017695762F662777956795E8851F
:102C6000F9856E0F7F1F072E000C880B990B0E94B1
:102C7000CA2F2B013C01C701B6010E94C82F9B013E
:102C8000AC01C301B2010E94202F2B013C0160E87E
:102C90006003C001619F900D11249A8389832B8169
:102CA0006203B001112488859985681B790B072E72
:102CB000000C880B990B0E94CA2F6B017C01B1019B
:102CC00080E090E00E94C82F9B01AC01C701B601D3
:102CD0000E94202F6B017C018A149B0408F43FC0E2
:102CE0008E819F818A0D9B1D88169906C0F50C81E7
:102CF0001D810A0D1B1D8016910690F4B4016A19FE
:102D00007B0980E090E00E94C82F9B01AC01C301C9
:102D1000B2010E947F300E94922F89819A811CC04B
:102D20008219930988159905E8F48A189B08EE81A1
:102D3000FF818E1A9F0AB401620D731D80E090E03E
:102D40000E94C82F9B01AC01C701B6010E947F30D1
:102D50000E94922F88859985860F971F05C080E075
:102D600090E002C08885998529960FB6F894DEBF59
:102D70000FBECDBFDF91CF911F910F91FF90EF90CC
:102D8000DF90CF90BF90AF909F908F907F906F908B
:102D90005F904F903F902F9008958F929F92AF92A7
:102DA000BF92CF92DF92EF92FF92CF93DF934B01CE
:102DB0005C01EA010E94FF056B017C01DE01A501B7
:102DC00094010E94752E0E94CA2FA70196010E94AD
:102DD0007F3020E030E040E051E40E947F3020E08E
:102DE00030E040E251E40E947F3020E030E040E8F3
:102DF0005BE30E947F300E94922F0E9424069095F0
:102E00008095709561957F4F8F4F9F4FDF91CF9148
:102E1000FF90EF90DF90CF90BF90AF909F908F90FA
:102E200008950F931F930E948210609391047093F2
:102E300092048093930490939404E0918904F09118
:102E40008A040084F185E02D89E894E0099597FFD4
:102E50001FC00E9482100091910410919204209151
:102E6000930430919404DC01CB01801B910BA20BE5
:102E7000B30B00918D0410918E0420918F0430913A
:102E8000900480179107A207B307B8F28FEF9FEF66
:102E90001F910F910895EAE0F8E04491EBEEF7E01E
:102EA0009491ECECF7E02491222309F44DC04423E3
:102EB000C1F150E0FA013197EE30F10590F5E2569C
:102EC000FF4F0C94A031309180003F7703C03091C8
:102ED00080003F7D3093800024C034B53F7702C02E
:102EE00034B53F7D34BD1DC0309190003F7707C0A1
:102EF000309190003F7D03C030919000377F309338
:102F000090000FC03091C0003F7703C03091C000E7
:102F10003F7D3093C00005C03091C200377F3093B1
:102F2000C200E22FF0E0EE0FFF1FE554F84FA5912D
:102F3000B4912FB7F894EC91811103C090959E2322
:102F400001C09E2B9C932FBF08959091880489B156
:102F50008C70892B90E09C013595279535952795A8
:102F600020938804409184045091850460918604E4
:102F700070918704FC01ED5AFE4F8081082E000CF1
:102F8000990BAA0BBB0B840F951FA61FB71F80932D
:102F9000840490938504A0938604B0938704809161
:102FA00083040895E0918904F0918A040190F081EE
:102FB000E02D682F89E894E00994CF93DF938DE0AA
:102FC0000E94D217EC018AE00E94D2178C0F9D1F3D
:102FD000DF91CF910895009769F0FC0101900020E6
:102FE000E9F73197AF01481B590BBC0189E894E020
:102FF0000C94D10D80E090E008958F929F92AF9253
:10300000BF92EF92FF920F931F93CF93DF93CDB7B1
:10301000DEB7A1970FB6F894DEBF0FBECDBF162F57
:10302000042F19A2423008F40AE07E0121E2E20EE8
:10303000F11C802E912CA12CB12C612FA5019401A3
:103040000E947D2E029F1019112481E0E81AF108D8
:103050001A3014F4105D01C0195CF7011083122FAF
:10306000732FCA01232B242B252B39F7C7010E946C
:10307000EB17A1960FB6F894DEBF0FBECDBFDF9160
:10308000CF911F910F91FF90EF90BF90AF909F90C5
:103090008F900895CF92DF92EF92FF92CF93DF93BC
:1030A00097FF19C06B017C018DE20E94D217EC01E1
:1030B00066277727CB016C197D098E099F094AE0A5
:1030C0000E94FD178C0F9D1FDF91CF91FF90EF9015
:1030D000DF90CF9008954AE0DF91CF91FF90EF907D
:1030E000DF90CF900C94FD17CF93DF93BC01990F25
:1030F000880B990B0E944A18EC010E94DD178C0F77
:103100009D1FDF91CF910895682F70E080E090E0DF
:103110004AE00C94FD17FF920F931F93CF93DF9318
:1031200000D000D0CDB7DEB70E941117FC0197FD8B
:1031300011C08D32910591F0C0970A9778F0E09117
:103140008904F0918A040680F781E02D89E894E0F3
:103150000995EACF60E070E0CB014CC020E030E0A0
:10316000A901F12CE130F105F1F0ED32F105C9F0E2
:10317000CF01C0970A97B8F4AAE0B0E00E946A2E87
:103180008F01FF0F220B330BDC01CB01800F911F4E
:10319000A21FB31F9C01AD01205331094109510900
:1031A00002C0FF24F394E0918904F0918A04068020
:1031B000F781E02D89E894E029833A834B835C838F
:1031C00009950E941117FC01C09729813A814B8112
:1031D0005C810A9738F2E130F10521F2FF2041F0DD
:1031E00066277727CB01621B730B840B950B02C0FC
:1031F000CA01B9010F900F900F900F90DF91CF91FE
:103200001F910F91FF900895CF93DF93CDB7DEB755
:10321000C554D1090FB6F894DEBF0FBECDBF789468
:1032200084B5826084BD84B5816084BD85B58260CB
:1032300085BD85B5816085BD80916E00816080937C
:103240006E001092810080918100826080938100E5
:1032500080918100816080938100809180008160F5
:103260008093800080919100826080939100809192
:1032700091008160809391008091900081608093A3
:1032800090008091C10084608093C1008091C10052
:1032900082608093C1008091C10081608093C100F1
:1032A0008091C30081608093C3008091C0008260E0
:1032B0008093C0008091C20081608093C2008091A1
:1032C0007A00846080937A0080917A008260809393
:1032D0007A0080917A00816080937A0080917A00F0
:1032E000806880937A001092A20181E08093D700D9
:1032F00080EA8093D80082E189BD09B400FEFDCF49
:1033000061E070E080E090E00E945C1080E98093D2
:10331000D8001CE01093E2001092E00010927C03B1
:1033200010927B0310928103109282031092830308
:1033300010928403109276031092750310928A0300
:1033400010928B0310928C0310928D0310928E03B7
:1033500010928F03109290031092910342E0BE01ED
:10336000615F7F4F80E090E00E942F088F859889F1
:103370008A3F910509F4C1C08AEF90E09E878D874E
:1033800042E0BE01635F7F4F80E090E00E94000852
:1033900019821A821B821C8244E0BE016F5F7F4F3C
:1033A00082E090E00E94000888E394E09E878D8789
:1033B00042E0BE01635F7F4F86E090E00E9400081C
:1033C00084E6898B41E0BE016F5E7F4F88E090E02C
:1033D0000E94000841E0BE016F5E7F4F8BE090E0ED
:1033E0000E94000841E0BE016F5E7F4F8CE090E0DC
:1033F0000E94000841E0BE016F5E7F4F80E190E0D7
:103400000E94000841E0BE016F5E7F4F8DE090E0BA
:103410000E94000882E3898B41E0BE016F5E7F4F0E
:1034200089E090E00E94000841E0BE016F5E7F4F9E
:103430008AE090E00E94000841E0BE016F5E7F4F8D
:103440008EE090E00E94000886E4898B41E0BE0196
:103450006F5E7F4F8FE090E00E9400081E861D8601
:1034600042E0BE01635F7F4F81E190E00E9400086F
:103470008FEF97E09E878D8742E0BE01635F7F4FAD
:1034800083E190E00E9400088FEF9FE09E878D8788
:1034900042E0BE01635F7F4F85E190E00E9400083B
:1034A00080E8898B41E0BE016F5E7F4F87E190E04D
:1034B0000E94000881E0898B41E0BE016F5E7F4F72
:1034C00088E190E00E94000880E699E0A0E0B0E08A
:1034D00089839A83AB83BC8344E0BE016F5F7F4FD7
:1034E00089E190E00E940008198B41E0BE016F5E07
:1034F0007F4F8DE190E00E94000842E061EB71E0B7
:1035000086E090E00E942F0844E069E573E089E1DD
:1035100090E00E942F0841E063EB71E088E090E0CA
:103520000E942F0841E060E673E089E090E00E948D
:103530002F0841E06EE573E08AE090E00E942F08DA
:1035400041E063E673E08BE090E00E942F0841E0E9
:1035500062E673E08CE090E00E942F0841E061E6B3
:1035600073E08DE090E00E942F0841E06FE573E08A
:103570008EE090E00E942F0841E064E673E08FE067
:1035800090E00E942F0841E06DE573E080E190E05B
:103590000E942F0841E06EEA71E087E190E00E940E
:1035A0002F0841E069E873E088E190E00E942F086D
:1035B00042E06FEA71E081E190E00E942F0842E072
:1035C0006CEA71E083E190E00E942F0842E067E539
:1035D00073E085E190E00E942F0841E06BEA71E022
:1035E0008DE190E00E942F088FEF9FE090937E0383
:1035F00080937D031092800310927F039093860343
:103600008093850310928803109287039093780328
:103610008093770310927A03109279039093720348
:103620008093710310927403109273036091590395
:1036300070915A0380915B0390915C030E94CA2FA2
:1036400020E030E044EB53E40E94202F6B017C012A
:103650008091B1019091B201BC01990F880B990B37
:103660000E94CA2F9B01AC01C701B6010E947F30A6
:103670000E94922F60934C0370934D0380934E03EE
:1036800090934F036B017C01F594E794D794C79412
:10369000C0925003D0925103E0925203F092530330
:1036A00062E080E00E94D00F62E081E00E94D00FD3
:1036B00062E082E00E94D00F809169008C6080936C
:1036C0006900E99A10928304C0928404D092850420
:1036D000E0928604F0928704109288044A9B05C009
:1036E000809188048160809388044B9B05C0809101
:1036F0008804826080938804809169008F7C806157
:1037000080936900EA9A809169008F738064809346
:103710006900EB9A60E082E10E94D00F60E083E1F3
:103720000E94D00F60E084E10E94D00F60E085E14C
:103730000E94D00F62E084E00E94D00F62E086E138
:103740000E94D00F62E087E10E94D00F62E08CE01F
:103750000E94D00F62E086E00E94D00F62E087E016
:103760000E94D00F62E088E00E94D00F62E085E006
:103770000E94D00F88E191E09093A4018093A3016F
:103780008CEB94E090933205809331058CEA9BE0BA
:103790009093340580933305279A1091AB01812FC4
:1037A0000E9458085C019093A6018093A501909314
:1037B000AD018093AC016091AF017091B00180E0E8
:1037C00090E00E94C82F6B017C01B50180E090E081
:1037D0000E94C82F9B01AC01C701B6010E94202F97
:1037E0006093A7017093A8018093A9019093AA0107
:1037F000012F017010FD05C020E030E04AEF54E4D5
:1038000004C020E030E04AE754E460910801709180
:10381000090180910A0190910B010E947F30609311
:1038200008017093090180930A0190930B01011123
:1038300005C020E030E04AEF54E404C020E030E06E
:103840004AE754E4609104017091050180910601FA
:10385000909107010E947F306093040170930501ED
:103860008093060190930701011105C020E030E02C
:103870004AEF54E404C020E030E04AE754E46091A9
:1038800000017091010180910201909103010E9459
:103890007F30609300017093010180930201909347
:1038A0000301109280001092810010926F0016BAEE
:1038B0008091A5019091A601909387008093860046
:1038C000109289001092880010928B0010928A004A
:1038D0008091AB018274823421F4809181008260F6
:1038E00003C0809181008160809381008091AB0151
:1038F00080FF09C080918000826080938000809169
:103900008100806108C08091800082608093800087
:103910008091810088618093810080E090E00E9426
:10392000131280918000806880938000259A80E047
:1039300090E00E9406128091800080628093800057
:10394000269A61E083E00E94D00F13E081E00E949C
:103950004B1764E170E080E090E00E945C1080E032
:103960000E944B1764E170E080E090E00E945C10E0
:10397000115061F710926B0310926C0310926D035B
:1039800010926E038BE693E00E9420128091500308
:1039900090915103A0915203B0915303F8948093F6
:1039A000840490938504A0938604B093870478944C
:1039B00082E090E090936A03809369038FEF97E031
:1039C00090935603809355038091AE0180935403E6
:1039D0000E94371060939203709393038093940333
:1039E000909395030E94371060939B0470939C04FE
:1039F00080939D0490939E040091960310919703E9
:103A000020919803309199033B014C01601A710A8F
:103A1000820A930A609297047092980480929904A3
:103A200090929A0400919203109193032091940331
:103A3000309195034B015C01801A910AA20AB30AE6
:103A400040ED841647E09406A104B10410F40C94F0
:103A5000952D6093920370939303809394039093B6
:103A60009503F8948091840490918504A091860434
:103A7000B091870478944091500350915103609124
:103A8000520370915303841B950BA60BB70B8093C5
:103A90008E0390938F03A0939003B0939103809330
:103AA0008A0390938B03A0938C03B0938D031091A2
:103AB000890315FB882780F916FD826017FF02C075
:103AC00084601DC08130D9F46A017B01C094D09418
:103AD000E094F0949A01AB012C193D094E095F095D
:103AE000609181037091820380918303909184039C
:103AF0000E947C312FEF3FEF40E050E032C0823037
:103B000059F46A017B01C094D094E094F094A091A0
:103B10007B03B0917C0319C0833059F46A017B01A7
:103B2000C094D094E094F094A0917503B091760382
:103B30000CC0843021F56A017B01C094D094E094DC
:103B4000F094A0916F03B09170039A01AB012C190E
:103B50003D094E095F090E94752E2FEF3FE040E0BE
:103B600050E00E944B2EC20ED31EE41EF51EC092E2
:103B70008A03D0928B03E0928C03F0928D038090A5
:103B80008A0390908B03A0908C03B0908D0380915A
:103B9000A4049091A504A091A604B091A7048092DA
:103BA000A4049092A504A092A604B092A704209128
:103BB000AC04222309F449C00091D50454E0059FC8
:103BC00090011124B9016C557B4F7B01A501940133
:103BD000281B390B4A0B5B0BCA01B9010E94CA2F83
:103BE000D70119966D937D938D939C931C97F02E1E
:103BF000BAE0EB2E60E070E0CB01B4E0FB9EF00198
:103C00001124EC55FB4F21853285438554850E9454
:103C1000AF2EFF2011F0FA9402C0A9E0FA2EEA9428
:103C2000E110EBCF20E030E040E251E40E94202F91
:103C30000F5F0A3018F40093D50402C01092D50427
:103C40006AA77EA78FA798AB0FC081E08093AC04D2
:103C50001092A8041092A9041092AA041092AB0426
:103C60001AA61EA61FA618AA2091D6043091D70422
:103C70004091D8045091D9048AA59EA5AFA5B8A9B2
:103C80008093D6049093D704A093D804B093D9041A
:103C90008091DE04882309F444C000912F05E4E0FC
:103CA0000E9FC0011124BC0163557B4F7B016AA5A7
:103CB0007EA5CD010E94AE2ED701D2966D937D9345
:103CC0008D939C93D597F02EF4E1EF2E60E070E099
:103CD000CB01B4E0FB9EF0011124E355FB4F22A978
:103CE00033A944A955A90E94AF2EFF2011F0FA94E0
:103CF00002C0E3E1FE2EEA94E110EBCF20E030E0D9
:103D000040EA51E40E94202F0F5F043118F4009321
:103D10002F0502C010922F056DAB7EAB8FAB98AF15
:103D20000FC081E08093DE041092DA041092DB046D
:103D30001092DC041092DD041DAA1EAA1FAA18AE60
:103D400080913005882359F110FF4DC70E94BF159F
:103D50009B01AC0160E070E080E094E40E94202FC1
:103D60006B017C016091640370E080E090E00E9450
:103D7000CA2F9B01AC01C701B6010E947F3020E031
:103D800030E048EC52E40E94202F0E94922FAB01B9
:103D9000C501B4010E94CD162B013C0127C7E8EBF9
:103DA000F1E0FF8FEE8F1F8A1E8A412C512C3201C9
:103DB0000E891F890F5F1F4F1F8B0E8B7EE1A72E71
:103DC0004801A89C8001A99C100D11240C511E4F84
:103DD000D8018C918370833009F0F8C60E94BF151A
:103DE0006B017C01F80121853285A789B08D0E9485
:103DF000A6312FEF3FE740E050E00E944B2ECA0172
:103E0000B9010E94CA2FA70196010E94202F0E948B
:103E1000922F9B01AC01D8011B968D919C911C9710
:103E2000059730F4E4E0F0E01C96FC93EE931B97CA
:103E30006EE1A62E8E889F88A89CF001A99CF00DAB
:103E40001124EC51FE4FE1818E2F90E0FC0131975F
:103E5000ED30F10508F0A4C6EA5AFF4F0C94A031EA
:103E60000E94BF156A8B7B8B8C8B9D8B4EE1A42EA1
:103E70008E889F88A89CC001A99C900D11248C015C
:103E80000C511E4F1801D80119968D909C901A97CD
:103E90005596AD90BC9056971F96CD90DC9050975C
:103EA0005196ED90FC90529753960D911C9154971A
:103EB00014962C91149713964C91139757968D91B5
:103EC0009C915897EE8DFF8D608171810E94D01575
:103ED0009401DC010E94A6312FEF3FE740E050E063
:103EE0000E944B2ECA01B9010E94CA2F2A893B8920
:103EF0004C895D890E94202F0E94922F0E942406E7
:103F00009B01AC01A0916303B0E00E946A2E24E6FD
:103F100030E040E050E00E944B2E421A530A640AFF
:103F2000750A82C10E94BF156A8B7B8B8C8B9D8B1F
:103F3000FEE1AF2E8E889F88A89CF001A99CF00D11
:103F40001124EC51FE4F818492849B8E8A8EA58829
:103F5000B688BBA2AAA2C784D088DFA2CEA2E1887D
:103F6000F288FAAAE9AA0389148922961FAF0EAF34
:103F7000229784809380AE8DBF8D2D903C900785D5
:103F800010896085A7800A2C000CBB08062E000C47
:103F9000770B6A197B09CB01770FAA0BBB0B66273E
:103FA000782F892F9A2F0E94CA2F6B017C01B801AC
:103FB00080E090E00E94C82F20E030E04AE754E41F
:103FC0000E94202F9B01AC01C701B6010E94202F47
:103FD0006B017C01C101B8010E948C31BC0180E001
:103FE00090E00E94C82F20E030E04AE754E40E94AD
:103FF000202F9B01AC01C701B6010E947F300E94B7
:10400000922FBA2CAA24C501860F971FAAA0BBA085
:10401000CEA0DFA0E9A8FAA822960EAD1FAD229788
:10402000282D492DB1010E94D0152A8D3B8DDC0130
:104030000E94A6312FEF3FE740E050E00E944B2E58
:10404000CA01B9010E94CA2F2A893B894C895D891E
:104050000E94202F0E94922F0E942406461A570A7F
:10406000680A790A9DC50E94BF156A8F7B8F8C8F65
:104070009D8FEEE1AE2E8E889F88A89CC001A99CE2
:10408000900D11248C010C511E4F1801D801199666
:104090000D90BC91A02DBBA3AAA3F801038CF48DB5
:1040A000E02DFFA3EEA3D8015D96BC91B9ABF8015A
:1040B00083849484A588B688C784D088E188F288F0
:1040C0000389148924814381AE8DBF8D0D90BC91ED
:1040D000A02DBB8BAA8B8789908DBD010E94D01526
:1040E0008C01B40180E090E00E94C82F20E030E015
:1040F0004AE754E40E94202F9B01AC0160E070E08D
:1041000080E89FE30E94202F6B017C018A899B89B4
:10411000B4010E948C31BC0180E090E00E94C82F65
:1041200020E030E04AE754E40E94202F9B01AC01DC
:10413000C701B6010E947F306B017C0189A8682D00
:1041400070E080E090E00E94C82F20E030E040E87E
:104150005BE30E947F309B01AC01C701B6010E9466
:10416000AF2E2BED3FE049EC50E40E947F300E94DF
:10417000EC309B01AC018EA09FA06401990CEE086D
:10418000FF08B801110F880B990B25962FAF2597C3
:1041900026963FAF269723964FAF239724965FAF7F
:1041A00024970E94CA2F25962FAD259726963FADBE
:1041B000269723964FAD239724965FAD24970E94B0
:1041C0007F300E94922FCB01770FAA0BBB0BA70168
:1041D0009601280F391F4A1F5B1FAAA1BBA10E948D
:1041E0006A2E2FEF3FE740E050E00E944B2ECA01BD
:1041F000B9010E94CA2F2A8D3B8D4C8D5D8D0E9486
:10420000202F0E94922F9B01AC01A0916203B0E08D
:104210000E946A2E24E630E040E050E00E944B2EDF
:10422000420E531E641E751ED10116968C91169770
:1042300082FFB6C41D966D917C911E9780E090E040
:104240000E94C82F2BED3FE049EC50E40E947F30E4
:1042500020E030E040E058E30E947F300E94EC30E4
:104260009B01AC01C301B20125962FAF259726967D
:104270003FAF269723964FAF239724965FAF24979F
:104280000E94CA2F25962FAD259726963FAD2697DB
:1042900023964FAD239724965FAD24970E947F30DD
:1042A0000E94922F2B013C017BC40E94BF156A8F94
:1042B0007B8F8C8F9D8F7EE1A72E8E889F88A89CF8
:1042C000F001A99CF00D1124EC51FE4F81849284E1
:1042D0009BA28AA2238D348D4901330FAA08BB0803
:1042E0008EA29FA2A8A6B9A6958C99AA23843484ED
:1042F000A588B688C784D088E188F28803891489A4
:1043000024814381AE8DBF8D0D90BC91A02DBB8BC0
:10431000AA8B8789908DBD010E94D015BC01990F91
:10432000880B990B0E94CA2F4B015C01B10180E000
:1043300090E00E94C82F20E030E04AE754E40E9459
:10434000202F9B01AC0160E070E080E89FE30E94B9
:10435000202F6B017C018A899B89B1010E948C31DD
:10436000BC0180E090E00E94C82F20E030E04AE7E6
:1043700054E40E94202F9B01AC01C701B6010E94AA
:104380007F306B017C01B9A96B2F70E080E090E079
:104390000E94C82F20E030E040E85BE30E947F30BD
:1043A0009B01AC01C701B6010E94AF2E2BED3FE08F
:1043B00049EC50E40E947F300E94EC306B017C019C
:1043C00020E030E0A9010E947A3087FF0CC020E095
:1043D00030E0A901C701B6010E941B2F87FF05C06D
:1043E000EFEFE9AF02C0F1E0F9AFC9AC6C2DCC0C36
:1043F000770B880B990B0E94CA2F9B01AC01C5015A
:10440000B4010E947F300E94922FCB01770FAA0B3C
:10441000BB0BDBC10E94BF156AA37BA38CA39DA32A
:104420006EE1A62E8E889F88A89CF001A99CF00DB5
:104430001124EC51FE4F818492849FA28EA2238D81
:10444000348D4901330FAA08BB0889AA9AAAABAADE
:10445000BCAA358D838494849B8A8A8AA588B68871
:10446000C784D088E188F288038914892481438134
:10447000AE8DBF8D0D90BC91A02DBB8FAA8F87896B
:10448000908DBD0126963FAF26970E94D0151C0146
:10449000B40180E090E00E94C82F4B015C01269699
:1044A0003FAD269760E4630F70E080E090E00E94EB
:1044B000C82F20E030E040E85BE30E947F30A50198
:1044C00094010E947F300E94992F8A8D9B8D860FC8
:1044D000971F6A897B890E948C318C01BC0180E026
:1044E00090E00E94C82F20E030E04AE754E40E94A8
:1044F000202F6B017C0120E030E0A9010E947A307E
:1045000087FD37C020E030E04AE754E4C501B4013C
:104510000E94202F6A8F7B8F8C8F9D8F20E030E050
:1045200040E05FE30E947F309B01AC01C701B60110
:104530000E941B2F87FF1DC0B101032C000C880BAC
:10454000990B0E94CA2F20E030E040E850E40E941E
:104550007F302A8D3B8D4C8D5D8D0E94202FA701D1
:1045600096010E947F300E94922F3194219431084D
:104570004CC020E030E04AE754E4C501B4010E9499
:10458000202F4B015C0120E030E040E05FE30E941F
:104590007F309B01AC01C701B6010E947A3087FDD4
:1045A00039C0A5019401C701B6010E941B2F87FFE6
:1045B00031C0B101032C000C880B990B0E94CA2F4B
:1045C00020E030E040E850EC0E947F30A5019401EB
:1045D0000E94202F6B017C018A899B899695879583
:1045E000B801681B790B80E090E00E94C82F20E0A2
:1045F00030E04AE754E40E94202F9B01AC01C70140
:10460000B6010E947F300E94922F4101860E971EB4
:104610009BAE8AAE8AAC9BACC401990CAA0BBB0BB7
:1046200029A93AA94BA95CA9280F391F4A1F5B1F6A
:10463000AEA1BFA10E946A2E2FEF3FE740E050E0FD
:104640000E944B2ECA01B9010E94CA2F2AA13BA188
:104650004CA15DA10E94202F0E94922F9B01AC01D2
:10466000A0916203B0E00E946A2E24E630E040E0B0
:1046700050E00E944B2E420E531E641E751E90C2C7
:104680000E94BF156A8F7B8F8C8F9D8F4EE1A42E69
:104690008E889F88A89CF001A99CF00D1124EC51F4
:1046A000FE4F818492849BA28AA2238D348D49017E
:1046B000330FAA08BB088EA29FA2A8A6B9A6358D63
:1046C00023843484A588B688C784D088E188F2889A
:1046D0000389148924814381AE8DBF8D0D90BC91D7
:1046E000A02DBB8BAA8B8789908DBD0126963FAFED
:1046F00026970E94D0158C01B10180E090E00E94C5
:10470000C82F4B015C0126963FAD269760E8630FEA
:1047100070E080E090E00E94C82F20E030E040E8A8
:104720005BE30E947F30A50194010E947F300E94CC
:10473000992F8A899B89860F971FB1010E948C311E
:104740009B8B8A8B82159305D0F5B801012E000C46
:10475000880B990B0E94CA2F9B01AC010E94AF2EBF
:104760006B017C0120E030E04AE754E4C501B4016C
:104770000E94202F9B01AC01C701B6010E94202F8F
:104780004B015C01CA88DB88B60180E090E00E94A2
:10479000C82F20E030E04AE754E40E94202F9B011C
:1047A000AC01C501B4010E947F300E94922F119587
:1047B000019511094801860E971E9DAE8CAE8CACFA
:1047C0009DACC401990CAA0BBB0B2EA13FA148A51F
:1047D00059A5280F391F4A1F5B1FAAA1BBA10E9420
:1047E0006A2E2FEF3FE740E050E00E944B2ECA01B7
:1047F000B9010E94CA2F2A8D3B8D4C8D5D8D2ACF29
:104800000E94BF156A8F7B8F8C8F9D8F3EE1A32EF8
:104810008E889F88A89CF001A99CF00D1124EC5172
:10482000FE4F818492849BA28AA2238D348D4901FC
:10483000330FAA08BB088EA29FA2A8A6B9A6358DE1
:1048400023843484A588B688C784D088E188F28818
:104850000389148924814381AE8DBF8D0D90BC9155
:10486000A02DBB8BAA8B8789908DBD0126963FAF6B
:1048700026970E94D0158C01B10180E090E00E9443
:10488000C82F4B015C0126963FAD269760E8630F69
:1048900070E080E090E00E94C82F20E030E040E827
:1048A0005BE30E947F30A50194010E947F300E944B
:1048B000992F8A899B89860F971FB1010E948C319D
:1048C0009B8B8A8B82159305D0F566277727601B13
:1048D000710B072E000C880B990B0E94CA2F9B01AD
:1048E000AC010E94AF2E6B017C0120E030E04AE772
:1048F00054E4C501B4010E94202F9B01AC01C70103
:10490000B6010E94202F4B015C01CA88DB88B601EA
:1049100080E090E00E94C82F20E030E04AE754E4B5
:104920000E94202F9B01AC01C501B4010E947F3081
:104930000E94922F4801860E971E9FAE8EAE8EACBF
:104940009FAC3FCF9EE1A92E8E889F88A89CF00146
:10495000A99CF00D1124EC51FE4F038D148DA091F4
:104960006103B0E00E946A2E20E436E040E050E0AF
:104970000E944B2E69017A0120915003309151031E
:104980004091520350915303D8010E94752EDC01CF
:10499000CB012FE0B595A795979587952A95D1F7E7
:1049A000092E000CAA0BBB0B40918A0350918B037C
:1049B00060918C0370918D038A019B01081B190B78
:1049C0002A0B3B0BC901B801A6010E94CD16460E69
:1049D000571E681E791EE4C08EE1A82E8E889F881F
:1049E000A89CF001A99CF00D1124EC51FE4F038D01
:1049F000148DA0916003B0E00E946A2E24E630E09E
:104A000040E050E00E944B2E69017A01B801110F7D
:104A1000880B990B0E94CA2F2AE939EC4CEC54E41C
:104A20000E94202F9B01AC016AA57EA58FA598A9A5
:104A30000E94AE2EA6010E94380763C00EE1A02E90
:104A40008E889F88A89CF001A99CF00D1124EC5140
:104A5000FE4F038D148DA0915F03B0E00E946A2E7B
:104A600024E630E040E050E00E944B2E69017A01DC
:104A7000B801110F880B990B0E94CA2F20E03EEF5E
:104A80004FEF56E40E94202F9B01AC016DA97EA937
:104A90008FA998AD0E94AE2EA6010E94D00631C00B
:104AA0001EE1A12E8E889F88A89CF001A99CF00D84
:104AB0001124EC51FE4F038D148DA0915E03B0E0E4
:104AC0000E946A2E24E630E040E050E00E944B2E27
:104AD00069017A01B801110F880B990B0E94CA2F46
:104AE0002AE939EC4CEC54E40E94202F9B01AC01E4
:104AF0006AA57EA58FA598A90E94AE2EA6010E9448
:104B00004F06092E000CAA0BBB0B480E591E6A1E3D
:104B10007B1E46C00E94BF159B01AC01BEE1AB2EBF
:104B20008E889F88A89CF001A99CF00D1124EC515F
:104B3000FE4F838D948DBC01990F880B990B2596A0
:104B40002FAF259726963FAF269723964FAF2397F3
:104B500024965FAF24970E94CA2F25962FAD2597E4
:104B600026963FAD269723964FAD239724965FADAB
:104B700024970E94202F0E94922F0E9424069B01BE
:104B8000AC01A0916203B0E00E946A2E24E630E0FE
:104B900040E050E00E944B2E421A530A640A750A04
:104BA0000E9482100091B4011091B5012091B601CC
:104BB0003091B701DC01CB01801B910BA20BB30B31
:104BC000EE8DFF8D80839183A283B3830E8D1F8D25
:104BD0000C5F1F4F1F8F0E8F2E893F892B303105A1
:104BE00009F0E6C803C0412C512C32011091890311
:104BF00011FF3EC00E94BF159B01AC01E091600314
:104C000067E471E0E69FC001E79F900D1124BC01AD
:104C1000990F880B990B25962FAF259726963FAFB6
:104C2000269723964FAF239724965FAF24970E9431
:104C3000CA2F25962FAD259726963FAD269723960A
:104C40004FAD239724965FAD24970E94202F0E949A
:104C5000922FAB016AA57EA58FA598A90E9438075F
:104C6000092E000CAA0BBB0B480E591E6A1E7B1E98
:104C700012FF3EC00E94BF159B01AC01E0915F0393
:104C800067E471E0E69FC001E79F900D1124BC012D
:104C9000990F880B990B25962FAF259726963FAF36
:104CA000269723964FAF239724965FAF24970E94B1
:104CB000CA2F25962FAD259726963FAD269723968A
:104CC0004FAD239724965FAD24970E94202F0E941A
:104CD000922FAB016DA97EA98FA998AD0E94D00635
:104CE000092E000CAA0BBB0B480E591E6A1E7B1E18
:104CF00013FF3EC00E94BF159B01AC01E0915E0313
:104D000067E471E0E69FC001E79F900D1124BC01AC
:104D1000990F880B990B25962FAF259726963FAFB5
:104D2000269723964FAF239724965FAF24970E9430
:104D3000CA2F25962FAD259726963FAD2697239609
:104D40004FAD239724965FAD24970E94202F0E9499
:104D5000922FAB016AA57EA58FA598A90E944F0648
:104D6000092E000CAA0BBB0B480E591E6A1E7B1E97
:104D7000409150035091510360915203709153033D
:104D800080918A0390918B03A0918C03B0918D0345
:104D9000CC24DD247601C41AD50AE60AF70A8C155C
:104DA0009D05AE05BF0534F0481759076A077B0714
:104DB0000CF045C0B7FD05C0841B950BA60BB70BC7
:104DC00004C0840F951FA61FB71F80938A0390937A
:104DD0008B03A0938C03B0938D030E94BF159B019E
:104DE000AC0160E07EEF8FEF96E40E94202F6B0114
:104DF0007C0160915D0370E080E090E00E94CA2F2A
:104E00009B01AC01C701B6010E947F3020E030E079
:104E100048EC52E40E94202F0E94922F6B017C01EB
:104E200060918A0370918B0380918C0390918D0324
:104E3000A6010E94CD16460E571E681E791EA0912F
:104E4000B301B0E0A30192010E946A2E24E630E093
:104E500040E050E00E944B2ECA01B9010E94240696
:104E60006B017C0114FF04C00E944A180E94DD17E8
:104E7000C0926B03D0926C03E0926D03F0926E03CC
:104E800060918E0370918F038091900390919103B4
:104E90000E94CA2F6B017C0160914C0370914D03FD
:104EA00080914E0390914F030E94CA2F9B01AC0149
:104EB00060E07FEF8FE797E40E94202F9B01AC0119
:104EC000C701B6010E947F300E94922F6B017C01C6
:104ED000611570488105910534F0CC24CA94AFE780
:104EE000DA2EE12CF12CC11440E8D4064FEFE40691
:104EF000F40634F4C12CF0E8DF2EEE24EA94FE2C04
:104F0000C0928E03D0928F03E0929003F0929103AF
:104F10008BE693E00E94201282E10E940C105C015B
:104F200090937C0380937B0384E10E940C109C018E
:104F3000909376038093750385E125962FAF25978F
:104F400026963FAF26970E940C108C019093700319
:104F500080936F0383E10E940C103C01092E000C2A
:104F6000880899086E8A7F8A888E998E40917D0381
:104F700050917E0325962FAD259726963FAD269717
:104F8000A416B50624F4B0927E03A0927D0340914E
:104F90007F03509180034A155B0524F4B09280038F
:104FA000A0927F034091850350918603052E000C4B
:104FB000660B770B6E887F88888C998C64167506D3
:104FC0008606970624F49093860380938503409188
:104FD000870350918803052E000C660B770B6E88B3
:104FE0007F88888C998C461557056805790524F4C7
:104FF000909388038093870380917703909178033F
:105000002817390724F4309378032093770380918D
:10501000790390917A038217930724F430937A03EB
:1050200020937903809171039091720308171907F7
:1050300024F4109372030093710380917303909191
:1050400074038017910724F410937403009373037F
:105050002090690330906A0380907D0390907E03D6
:10506000820C931CA40160E070E04E8F5F8F68A3F8
:1050700079A34090770350907803420C531C612C25
:10508000712CC901330FAA0BBB0B9C01AD01241974
:10509000350946095709AFEFBFE00E946A2E2091FB
:1050A000790330917A032219330940E050E0241942
:1050B0003509460957090E944B2E2AA73BA74CA742
:1050C0005DA74090710350907203420C531C612CF9
:1050D000712CC801110FAA0BBB0B9C01AD01241947
:1050E000350946095709AFEFBFE00E946A2E2091AB
:1050F00073033091740322193309890120E030E0F1
:10510000A901980124193509460957090E944B2E17
:1051100029013A01C501BB0CAA0BBB0B9C01AD01D7
:105120008E8C9F8CA8A0B9A0281939094A095B095F
:10513000AFEFBFE00E946A2E20917F033091800381
:1051400022193309890120E030E0A90198012819CA
:1051500039094A095B090E944B2E5901211530413A
:1051600024F0AA24AA94EFE0BE2EB7FE02C0A12C20
:10517000B12CB0927C03A0927B030AA51BA501155C
:1051800020E1120714F00FEF1FE017FF02C000E04C
:1051900010E01093760300937503411430E1530639
:1051A00024F044244A947FE0572E57FE02C0412C3D
:1051B000512C5092700340926F0360908503709061
:1051C0008603620C731C812C912C2E893F89488D9B
:1051D000598D2619370948095909AFEFBFEF0E94C9
:1051E0006A2E20918703309188032219330940E009
:1051F00050E026193709480959090E944B2E2115FC
:10520000310561E04607510524F02FEF3FEF40E004
:1052100050E057FF03C020E030E0A9012093810354
:1052200030938203409383035093840389B1829522
:105230008F7091E0892790E0A0E0B0E0817099271D
:10524000AA27BB27799B8260789B84604E9B8860ED
:105250004F9B8061669B80621C9B8064369B80684C
:1052600044E0880F991FAA1FBB1F4A95D1F780936E
:10527000650390936603A0936703B093680370E897
:10528000D71AC982DA822B833C83AD82202F2295E4
:10529000207F2B292E8354E0169507955A95E1F728
:1052A0000F834886598664E0B695A79597958795AC
:1052B0006A95D1F78A871B861C864CE050E0BE01B8
:1052C0006F5F7F4F84E00E948B0B809197049091D9
:1052D0009804A0919904B0919A0480319742A10555
:1052E000B10508F422C489E894E00E943E0E181625
:1052F00019060CF00AC489E894E00E94040EE82F15
:105300008FE98E0F8A3108F4E0528E2F90E0FC0175
:10531000E154F109EA31F10508F0F7C3ED59FF4F07
:105320000C94A0316091B1017091B201072E000C74
:10533000880B990B0E944A1880E20E94D217809134
:10534000B3010E94841880E20E94D217809160030A
:105350000E94841880E20E94D21780915E030E940E
:10536000841880E20E94D217809163030E948418FF
:1053700080E20E94D217809162030E94841880E22A
:105380000E94D217809161030E94841880E20E94DB
:10539000D21780915F030E94841880E20E94D21786
:1053A000809164030E94841880E20E94D217809149
:1053B0005D030E94841880E20E94D2176091AF01C1
:1053C0007091B00180E090E04AE00E94FD1780E219
:1053D0000E94D2178091AE010E94841880E20E9440
:1053E000D217809189030E94841880E20E94D2170C
:1053F0006091AC017091AD0180E090E04AE00E94C4
:10540000FD1780E20E94D2176091590370915A03F0
:1054100080915B0390915C030E944A1880E20E9495
:10542000D2176091AB0170E085C283E991E00E94E0
:10543000EB176AEF70E080E090E00E944A1888E97C
:1054400091E00E94EB178AE991E00E94EB178CE94A
:1054500091E00E94EB178EE991E00E94EB1755C393
:105460008091A304082E000C990B4DC3F894C090B2
:105470008404D0908504E0908604F09087047894AA
:105480008091AC019091AD012091AF013091B001BC
:10549000821B930B9695879596958795A0E0B0E033
:1054A00089839A83AB83BC83CE0101960E9420122C
:1054B000D701C6011EEFF894809084049090850473
:1054C000A0908604B0908704789488159905AA0561
:1054D000BB0554F46CE271E080E090E00E945C1047
:1054E0001150D501C40139F719821A821B821C821E
:1054F000CE0101960E94201280914C0390914D03A1
:10550000A0914E03B0914F03F8948093840490933C
:105510008504A0938604B09387047894C814D904B2
:10552000EA04FB0411F482E001C081E08093A3044B
:10553000E8C20E948B18611101C061E06093AE0166
:10554000E0C28FEF9FE090937E0380937D031092E3
:10555000800310927F0390938603809385031092BB
:1055600088031092870390937803809377031092B7
:105570007A031092790390937203809371031092CF
:10558000740310927303BDC2F89440908404509049
:10559000850460908604709087047894809150030D
:1055A00090915103A0915203B0915303481A590AA4
:1055B0006A0A7B0A80919F049091A004A091A104A3
:1055C000B091A204480E591E6A1E7B1E0E948B18C1
:1055D00064307105810591057CF06B017C01613CB3
:1055E0007742894091056CF010ECC12E17E2D12E64
:1055F00019E0E12EF12C05C0B4E0CB2ED12CE12C2A
:10560000F12CC982DA82EB82FC826091B101709147
:10561000B201072E000C880B990B0E94CA2F4B0178
:105620005C01C301B2010E94CA2FA50194010E942E
:105630007F302B013C0160914C0370914D038091B0
:105640004E0390914F030E94CA2F9B01AC01C301EE
:10565000B2010E94202F2B013C01C0925903D0922D
:105660005A03E0925B03F0925C03C701B60191C05C
:105670008091500390915103A0915203B091530334
:10568000F8948093840490938504A0938604B09347
:105690008704789453C1F894809084049090850492
:1056A000A0908604B09087047894809150039091E4
:1056B0005103A0915203B0915303881A990AAA0A80
:1056C000BB0A80919F049091A004A091A104B09185
:1056D000A204880E991EAA1EBB1E0E948B186E3152
:1056E00071058105910574F06B017C01693077408B
:1056F0008105910564F0A8E0CA2EA7E0DA2EE12C1E
:10570000F12C05C0FEE1CF2ED12CE12CF12CC98269
:10571000DA82EB82FC82C501B4010E94CA2F4B01E0
:105720005C016091B1017091B201072E000C880BF1
:10573000990B0E94CA2F9B01AC01C501B4010E94C4
:105740007F304B015C0160914C0370914D0380915F
:105750004E0390914F030E94CA2F9B01AC01C501DB
:10576000B4010E94202F2B013C01D092B201C092C3
:10577000B101B601DD0C880B990B0E94CA2F4B01B9
:105780005C016091590370915A0380915B03909181
:105790005C030E94CA2F20E030E044EB53E40E94F7
:1057A000202FA50194010E947F300E94922F6093C8
:1057B0004C0370934D0380934E0390934F036B0102
:1057C0007C01F594E794D794C794C0925003D0928B
:1057D0005103E0925203F09253030E94CA2F9B019F
:1057E000AC01C301B2010E947F30A50194010E9467
:1057F000202F0E94922FC60ED71EE81EF91E809100
:105800009F049091A004A091A104B091A204C81A91
:10581000D90AEA0AFB0AF894C0928404D09285045B
:10582000E0928604F092870478946BC10E948B18F2
:10583000262F6091890380E090E030E0F901082E86
:1058400002C0F595E7950A94E2F7C12CD12C7601B8
:10585000C394082E04C0CC0CDD1CEE1CFF1C0A9463
:10586000D2F7E0FF02C06C2902C0C0946C210196FF
:105870008830910519F76093890370E080E090E02B
:1058800042E00E94FD170E94DD173FC10E948B1865
:105890008091AB0120E030E070E0AB01022E02C04D
:1058A000559547950A94E2F7C12CD12C7601C39403
:1058B000022E04C0CC0CDD1CEE1CFF1C0A94D2F797
:1058C00040FF02C08C2902C0C0948C212F5F3F4F43
:1058D0002830310511F78093AB0141E06BEA71E0AC
:1058E0008DE190E00E9400088091AB010E94580871
:1058F000BC0180E090E00E94C82F2091A701309168
:10590000A8014091A9015091AA010E947F300E94F4
:10591000922F69837A838B839C8344E0BE016F5FFF
:105920007F4F81E190E00E9400088091AB010E94CE
:105930005808BC0180E090E04AE0A3CF80E090E00E
:10594000E2C042E061EB71E086E090E00E94000876
:1059500044E069E573E089E190E00E94000841E0DD
:1059600063EB71E088E090E00E94000841E060E6AF
:1059700073E089E090E00E94000841E06EE573E08A
:105980008AE090E00E94000841E063E673E08BE06B
:1059900090E00E94000841E062E673E08CE090E055
:1059A0000E94000841E061E673E08DE090E00E9413
:1059B000000841E06FE573E08EE090E00E9400088F
:1059C00041E064E673E08FE090E00E94000841E06F
:1059D0006DE573E080E190E00E94000841E06EEA2E
:1059E00071E087E190E00E94000841E069E873E01F
:1059F00088E190E00E94000842E06FEA71E081E1F6
:105A000090E00E94000842E06CEA71E083E190E0DF
:105A10000E94000842E067E573E085E190E00E94A3
:105A200000086FC089E894E00E94040EE82F8FE917
:105A30008E0F8A3108F4E0528E2F90E0FC01E15481
:105A4000F109E331F10508F060C0E358FF4F0C9411
:105A5000A0310E948B186093B30153C00E948B1831
:105A6000609363034EC00E948B186093600349C02B
:105A70000E948B1860935E0344C00E948B18609351
:105A800062033FC00E948B18609361033AC00E947A
:105A90008B1860935F0335C00E948B18609364037A
:105AA00030C00E948B1860935D032BC00E948B183E
:105AB00070E080E090E00E94C82F2FE632E143E8DA
:105AC0005AE30E947F306B017C016093A7017093C1
:105AD000A8018093A9019093AA016091AC017091F3
