:100000000C942D040C9455040C9455040C94E8069F
:100010000C94C4060C9455040C9455040C9455048B
:100020000C9455040C9455040C94070A0C94AA07DC
:100030000C9455040C9455040C9455040C945504DC
:100040000C9455040C9455040C9455040C945504CC
:100050000C9455040C9455040C9455040C94C81934
:100060000C9455040C9455040C9455040C945504AC
:100070000C9455040C9455040C9455040C9455049C
:100080000C9455040C9455040C9455040C9455048C
:100090000C94DC0E0C9455040C9455040C945504EB
:1000A0000C9455040C9455040C945504D820392113
:1000B000F022D621A5239D25E1243E268726B826B9
:1000C000EA2664272327602F492CC52C7C30A32DDA
:1000D0000930D82C2B2E7C307C307C307C307C302E
:1000E0007C30512C2B2E7C30E62BE02B7C30482BA7
:1000F000C72BD32D7C302E2E2B2E452E5F2E792E06
:10010000932EAD2EC72EE12EFB2E7C307C307C3022
:100110007C307C307C307C307C307C30152F433020
:10012000483025302A307C302F3020307C303E3033
:100130004D307C307C3039307C307C307C307C30D1
:100140007C303430EF10F410F91003114D114D11C3
:100150004D110D11171121112B1138114D11401195
:100160009C159F1592159615C015C015C015A315A1
:10017000A715AB15B115B515C015BB1505A84CCD08
:10018000B2D44EB93836A9020C50B9918688083CD1
:10019000A6AAAA2ABE000000803F000000000000BE
:1001A00000002A2B280000000000000000000000D2
:1001B000000000000000000000002C9EB4A0A1A2DE
:1001C000A434A6A7A5AE362D3738271E1F2021221E
:1001D00023242526B333B62EB7B89F848586878817
:1001E000898A8B8C8D8E8F90919293949596979807
:1001F000999A9B9C9D2F3130A3AD350405060708C5
:10020000090A0B0C0D0E0F101112131415161718E6
:10021000191A1B1C1DAFB1B0B500080B0002020279
:100220000100090400000102020000052400100181
:100230000524010101042402060524060001070526
:10024000810310004009040100020A0000000705B4
:10025000020240000007058302400000090402007A
:10026000020300000009210101000122E104070549
:10027000840340000107050503400001050109044E
:10028000A10185040901A100093017000000002721
:10029000FFFF0000350047FFFF000075109501814A
:1002A00002093116000027FFFF0000350047FFFF5D
:1002B0000000751095018102093216000027FF0F1A
:1002C0000000350047FF0F0000750C950181020901
:1002D0003316000027FF0F0000350047FF0F000016
:1002E000750C95018102093416000027FF0F0000EC
:1002F000350047FF0F0000750C9501810209391583
:100300000125083500463B0165145500750495012B
:1003100081020509150025015500650019012918FC
:1003200075019518810285F10901150026FF0095D8
:100330003F7508918285F20901953F75088182C059
:10034000050F0992A1028502099F09A009A409A528
:1003500009A61500250135004501750195058102A5
:1003600095038103099415002501350045017501A8
:1003700095018102092215012528350145287507B7
:1003800095018102C00921A10285010922150125DB
:1003900028350145287508950191020925A1020912
:1003A000260927093009310932093309340940097E
:1003B0004109420943250B15013501450B75089587
:1003C000019100C009500954150027FFFF000035B6
:1003D0000047FFFF000066011055FD751095029162
:1003E0000255006600000952150026FF7F350046C1
:1003F000FF7F7510950191020953150125083501FC
:1004000045087508950191020955A10205010930B9
:10041000093115002501750195029102C0050F09EA
:100420005695019102950591030957A1020B010010
:100430000A000B02000A0066140055FE150026FF94
:100440007F3500479F8C0000751095019102550083
:10045000660000C0050F09A766011055FD150027AD
:10046000FFFF0000350047FFFF0000751095019168
:10047000026600005500C0050F095AA10285020955
:100480002215012528350145287508950191020995
:100490005B095D150026FF00350046FF7F75089556
:1004A000029102095C095E66011055FD26FF7F4638
:1004B000FF7F7510950291026600005500C0095F2C
:1004C000A102850309221501252835014528750853
:1004D0009501910209231500250135004501750498
:1004E000950191020958A1020B01000A000B0200BC
:1004F0000A00750295029102C0096016008026FF6D
:100500007F36008046FF7F751095019102096136A4
:10051000008046FF7F95019102150026FF7F350080
:1005200046FF7F0963751095019102096515002644
:10053000FF0046FF7F750895019102C0096EA10278
:1005400085040922150125283501452875089501DE
:1005500091020970150026FF7F350046FF7F751058
:1005600095019102096F16008026FF7F36008046B4
:10057000FF7F950191020971150026FF00350046A5
:1005800067016614005500750895019102097227EC
:10059000FFFF000047FFFF000066011055FD7510CA
:1005A000950191026600005500C00973A1028505FE
:1005B0000922150125283501452875089501910264
:1005C000097016018026FF7F36018046FF7F751077
:1005D00095019102C00974A1028506092215012521
:1005E0002835014528750895019102097509761588
:1005F00081257F36018046FF7F750895029102C0F4
:10060000050F0977A102850A092215012528350160
:1006100045287508950191020978A1020979097A9E
:10062000097B15012503750895019100C0097C150A
:100630000026FF00350046FF009102C00990A1028C
:10064000850B0922150125283501452875089501D6
:100650009102C00996A102850C0997099809990988
:100660009A099B099C15012506750895019100C002
:10067000097DA102850D097E150026FF0035004683
:100680001027750895019102C009ABA102850509E3
:1006900025A1020926092709300931093209330940
:1006A0003409400941094209431501250B3501452B
:1006B0000B75089501B100C00501093B150026FF27
:1006C00001350046FF01750A9501B1027506B101B9
:1006D000C0050F0989A102850609222528150135C3
:1006E00001452875089501B102098BA102098C0901
:1006F0008D098E250315013501450375089501B156
:1007000000C009AC150027FFFF0000350047FFFFC0
:10071000000075109501B100C0097FA1028507098D
:100720008075109501150027FFFF0000350047FF79
:10073000FF0000B102098326FF0046FF00750895FF
:1007400001B10209A909AA75019502150025013513
:10075000004501B10275069501B103C0C0180341FF
:100760000072006400750069006E006F0020004C8C
:10077000004C00430004030904220341007200649A
:1007800000750069006E006F0020004C0065006F6E
:10079000006E006100720064006F00120100020030
:1007A00000004041233680000101020001120100D7
:1007B00002020000404123368000010102000100D6
:1007C000C18081C1C0070605040100080A0B0C0D99
:1007D0000900000000240027002A002D003000003E
:1007E000000000250028002B002E00310000000032
:1007F000002300260029002C002F00040404040418
:1008000003040502020202040302020202060606B3
:100810000606060404020202040404080201104051
:100820008040102040804080080204018040201059
:100830000201108010204040200000000200080E3D
:100840000000030401000B00000000000000000095
:100850000000000000000000963011241FBECFEF02
:10086000DAE0DEBFCDBF11E0A0E0B1E0E6E5FAE6F8
:1008700002C005900D92A43AB107D9F725E0A4EA89
:10088000B1E001C01D92AF38B207E1F714E0CDE24C
:10089000D4E004C02197FE010E941735CC32D10765
:1008A000C9F70E94121A0C9429350C9400008C3060
:1008B000F8F4282F30E09EE1899FF0011124EB51DC
:1008C000FE4F90819923A1F090819D7F9083F90143
:1008D000E855FC4F958191110BC0E091A501F09175
:1008E000A6010084F185E02D09951092B8030895C2
:1008F0000895FC01CB012091E80022FFFCCF282FB6
:10090000215028F03091F10030833196F9CF24E660
:1009100020939C032BEF2093E80008950F931F93DF
:10092000CF93DF93DB01A40FB51FFB016EEFEA1736
:10093000FB0791F187FF02C0249101C02081009143
:10094000A0031091A103C0919E03D0919F030C17A7
:100950001D07B4F49091E8009570E1F39091E800E0
:1009600092FD1CC02093F1002091A0033091A103BF
:100970002F5F3F4F2F733327232B11F46093E80031
:100980002091A0033091A1032F5F3F4F3093A1032B
:100990002093A0033196CBCFCA0102C08FEF9FEF07
:1009A000DF91CF911F910F910895CF93DF9300D0E6
:1009B00000D01F92CDB7DEB7FC0181819081913AC2
:1009C00029F5813009F0BCC08281863051F445E0C0
:1009D00050E063EA73E080E40E948E041092A30367
:1009E000AFC0873009F0ACC089838FEF9FEF9B8346
:1009F0008A838BE08C8383E08D8345E050E0BE01E9
:100A00006F5F7F4F80E40E948E049AC0913209F09C
:100A100097C0893009F094C08281853009F090C078
:100A200064E070E0CE0101960E94790486E0809334
:100A3000A30380910F018B3021F1A0910F0181E080
:100A40008A0F80930F019EE1E0910F019E9FF001BC
:100A50001124EB51FE4F8081882351F080910F01CA
:100A60008B3030F480910F018F5F80930F01ECCFBA
:100A70008EE1A89FF0011124EB51FE4F81E08083AD
:100A800001C0A0E0A093A403A11104C082E0809360
:100A9000A50350C01092680581E08093A5038A8168
:100AA0009EE1A99FD0011124AB51BE4F11968C93AA
:100AB00011978FEF9FEF50969C938E931F975496AC
:100AC0001C921E92539752961C921E925197139607
:100AD0008C93139714968C93149756961C921E928F
:100AE00055971E961C921E921D9716961C9216974D
:100AF0008FEF9FE71A969C938E93199758961C92A6
:100B00001E9257975C961C921E925B975D961C9264
:100B10005D9788EE93E01C969C938E931B97E091D3
:100B2000A501F091A6010684F785E02DBD01CE0157
:100B3000019609958FEF9FEF9093A7038093A603EB
:100B400081E00F900F900F900F900F90DF91CF9159
:100B5000089542E450E06AE172E080E80E948E0469
:100B600040E250E06CE572E080E80E948E0483E091
:100B700090E00895EF92FF921F93CF93DF93EC01E3
:100B8000162FE881F9810480F581E02D09957C011B
:100B9000E881F9810680F781E02D612FCE0109956A
:100BA000C7019927DF91CF911F91FF90EF90089592
:100BB000FC0191818081813A29F49D7F81E091300F
:100BC00091F414C0813279F49A3049F09B3019F0D5
:100BD000993049F40AC0828180930E0106C0828157
:100BE00080930D0102C080E0089581E008958C306B
:100BF000F0F49EE1899FF0011124EB51FE4F8081BA
:100C00008823A9F08081826080838091B80381115C
:100C10000EC00E94BC196093B5017093B601809319
:100C2000B7019093B80181E08093B80308950895C7
:100C3000CF92DF92EF92FF926091B2017091B30177
:100C4000072E000C880B990B0E9441336B017C012D
:100C500060914D0370914E0380914F03909150032A
:100C60000E9441339B01AC01C701B6010E9497323B
:100C7000FF90EF90DF90CF900895CF92DF92EF92A8
:100C8000FF920F931F938B019C014091AE015091F5
:100C9000AF016A01E12CF12C66277727CB016C1993
:100CA0007D098E099F0906171707280739074CF099
:100CB000C901B801C016D106E206F30614F4C70153
:100CC000B6011F910F91FF90EF90DF90CF900895A4
:100CD000CF92DF92EF92FF92CF93DF936B017C0173
:100CE000EA0120E030E0A9010E94F133181694F0E7
:100CF00020E030E0A901C701B6010E94923287FFCF
:100D00003AC020E030E0A901C701B6010E942632B6
:100D10006B017C01BE01DD0F880B990B0E944133F2
:100D20009B01AC01C701B6010E94F6336B017C0147
:100D30000E9418069B01AC01C701B6010E94F63360
:100D400020E030E040E851E40E94F63320E030E05B
:100D500040E251E40E94F63320E030E040E05BE303
:100D60000E94F6330E9409330E943D068827992786
:100D7000861B970B02C080E090E0DF91CF91FF903F
:100D8000EF90DF90CF9008951F920F920FB60F92C1
:100D900011242F933F934F935F936F937F938F9380
:100DA0009F93AF93BF93EF93FF930E943616FF91EB
:100DB000EF91BF91AF919F918F917F916F915F91D3
:100DC0004F913F912F910F900FBE0F901F9018954C
:100DD0001F920F920FB60F9211242F933F934F93B0
:100DE0005F936F937F938F939F93AF93BF93EF9393
:100DF000FF930E943616FF91EF91BF91AF919F91A3
:100E00008F917F916F915F914F913F912F910F90B3
:100E10000FBE0F901F901895CF92DF92EF92FF9226
:100E20000F931F93CF93DF931F92CDB7DEB7F82EAA
:100E3000E42E8B01C82ED92E8C2D8F198E1588F497
:100E4000F80161918F01C60169830E94AC3169810B
:100E5000681719F0C6010E94B431FFEFCF1ADF0AFC
:100E6000EBCF0F90DF91CF911F910F91FF90EF90FB
:100E7000DF90CF900895CF92DF92EF92FF920F9381
:100E80001F93CF93DF931F92CDB7DEB78B016B011A
:100E90007C01E61AF70A9C2D901B941758F4C701A1
:100EA0008C0D9D1D49830E94AC31F60181936F0129
:100EB0004981F1CF0F90DF91CF911F910F91FF905A
:100EC000EF90DF90CF9008958F929F92AF92BF9254
:100ED000CF92DF92EF92FF9240E050E020E0682F47
:100EE00070E0812C912C54018394FA013296DB013D
:100EF00002C0B595A795EA95E2F775016401042E45
:100F000004C0CC0CDD1CEE1CFF1C0A94D2F7A0FF21
:100F100002C02C2902C0C0942C214F5F5F4F443087
:100F2000510519F730E0220F331FF901EC5CFE4F39
:100F300080FF05C0808191819695879502C0808150
:100F40009181FF90EF90DF90CF90BF90AF909F90F6
:100F50008F9008951F920F920FB60F921124EF9267
:100F6000FF921F932F933F934F935F936F937F93C2
:100F70008F939F93AF93BF93EF93FF93CF93DF93A1
:100F8000CDB7DEB76197DEBFCDBF1092E90080918B
:100F9000E80083FF59C1FE013A96CF0128E02E0FE9
:100FA0002E1729F03091F10030833196F9CF24E6E5
:100FB00020939C0322EF2093E8002A8527FF05C099
:100FC0003091E80030FFFCCF03C03EEF3093E800E3
:100FD000322F307609F0C5C08B85811105C0109283
:100FE000F1001092F10029C1982F9D7F913009F4F2
:100FF00024C1853049F48091E80080FFFCCF8C85C6
:1010000080688093E30019C1863009F07CC01D859B
:10101000E888F9881092E9001092A1031092A003C9
:10102000123091F510929F0310929E030E94A90521
:1010300099E0BE016F5F7F4FFB01292F11922A9526
:10104000E9F799831A8391E09E8390E898879AEF55
:1010500099872091A0033091A103275F3F4F3C83E4
:101060002B838D831092E9001092A1031092A003AC
:10107000F0929F03E0929E0349E050E080E00E94DE
:101080008E040E94A905D9C0F0929F03E0929E03AE
:10109000123259F441EE54E06CE772E080E80E94AD
:1010A0008E04892B09F0C9C0CCC0113069F488893D
:1010B0009989089711F410939D0380919D038111E4
:1010C00011C06BE977E016C0133009F0BAC08C8507
:1010D000882359F0823061F0813009F0B2C06DE5AB
:1010E00077E008C06DEA77E005C065E777E002C009
:1010F00069E777E06115710509F4A3C0FB0144912C
:1011000050E080E849C0873009F49BC0883021F462
:1011100081E08093F10091C0893009F08EC0237086
:1011200009F08FC080E090E031E026E341E0480F15
:101130004093E9003093EB000196FC01E154F84F35
:10114000E491E093EC002093ED008530910571F778
:101150008EE78093EA001092EA008C858093A401C8
:101160006CC0288939891092E9001092A10310926D
:10117000A00330939F0320939E032E85211154C01A
:101180008B859A85913A59F4813209F05AC047E02B
:1011900050E060E171E080E00E948E044EC0913228
:1011A00009F04FC0803239F467E070E080E191E0EF
:1011B0000E94790442C0823209F043C08C8580933A
:1011C00017018091100190911101A0911201B0912D
:1011D0001301803B9440A105B10579F58091170179
:1011E00080FD11C087E797E790930108809300087E
:1011F0009BE088E10FB6F894A895809360000FBE3D
:10120000909360001AC00FB6F894A8958091600082
:10121000886180936000109260000FBEA8951092C4
:1012200001081092000809C0223059F4E0916905C4
:10123000F0916A050995882321F08EEF8093E800EC
:1012400003C081E28093EB0061960FB6F894DEBF95
:101250000FBECDBFDF91CF91FF91EF91BF91AF91C5
:101260009F918F917F916F915F914F913F912F91BE
:101270001F91FF90EF900F900FBE0F901F90189549
:101280008F929F92AF92BF92CF92DF92EF92FF9296
:101290000F931F93CF93DF9300D01F92CDB7DEB78C
:1012A000382F8B018091A401882389F04A018AEFAD
:1012B000F82E832F8770E82E90E4C92E832F80723A
:1012C000B82E2AE3D22E832F8074A82E21C08FEF50
:1012D0009FEF5FC08FB7F894E092E9009091E8002B
:1012E00095FF1AC09091F2002C2D291B8FBF211160
:1012F00015C0FA94FF2059F361E070E080E090E0BF
:1013000039834A835B830E94961939814A815B81C4
:1013100081149104F9F634C020E0E8CF822F90E0E8
:10132000881699060CF4282D822F90E0881A990AC5
:101330006FB7F894E092E900BB2029F02150A8F0A3
:101340001092F100FBCFF80137FF07C0215058F091
:1013500074917093F1003196F9CF215020F0719182
:101360007093F100FACF080F191F8091E80085FFF4
:101370000DC08114910411F4A11008C06FBFC8CF33
:101380005D9884E68093A203CA0103C0D092E8006E
:10139000F5CF0F900F900F90DF91CF911F910F918C
:1013A000FF90EF90DF90CF90BF90AF909F908F9085
:1013B00008959091A401992311F057FF03C08FEF76
:1013C0009FEF08952FB7F89487708093E90080917C
:1013D000F20090E0841795070CF4AC01842FFB0118
:1013E00094E6815030F090939C033091F10031935A
:1013F000F8CF4115510521F08091F200882319F0B2
:101400002FBFCA0108958BE68093E800F9CF1F92A1
:101410000F920FB60F9211242F933F934F935F9328
:101420006F937F938F939F93AF93BF93EF93FF93AC
:10143000CF93DF93CDB7DEB7C054D109DEBFCDBFA8
:101440008091E1001092E10083FF0FC01092E9004B
:1014500091E09093EB001092EC0092E39093ED00FA
:101460001092A40198E09093F00082FF46C083E0C0
:101470008093E9008091F200882319F08AE3809339
:10148000E8009FB7F89482E08093E9008091F20031
:101490009FBF882321F08EE794E00E94A10E9FB7A2
:1014A000F89485E08093E9008091F2009FBF882343
:1014B000C1F080916B0590916C05892B91F040E40F
:1014C00050E0BE016F5F7F4F85E00E94D90997FD14
:1014D00008C0E0916B05F0916C05BC01CE0101964E
:1014E00009958091A203882341F08091A203815045
:1014F0008093A203811101C05D9AC05CDF4F0FB6DB
:10150000F894DEBF0FBECDBFDF91CF91FF91EF9179
:10151000BF91AF919F918F917F916F915F914F910B
:101520003F912F910F900FBE0F901F901895EF9243
:10153000FF920F931F93CF93DF931F92CDB7DEB728
:1015400089838B017A0141E050E0BE016F5F7F4FDC
:1015500084E00E944009A701B80184E40E94400988
:101560000F90DF91CF911F910F91FF90EF90089511
:101570001F93CF93DF93DC0111961C9111979C91DF
:10158000953009F467C060F5923009F443C0A8F4BF
:10159000913009F04DC1E091A501F091A6012EE135
:1015A000129FB00111246B517E4F028CF38DE02D00
:1015B000CD01DF91CF911F9109949330C9F19430FF
:1015C00009F036C1E091A501F091A6012EE1129F2C
:1015D000B00111246B517E4F0488F589E02D35C090
:1015E0009B3009F49DC038F4963009F441C09A301C
:1015F00009F44CC01DC19C3009F4CBC0913F09F0E7
:1016000017C140E450E0BD0182EFDF91CF911F91FF
:101610000C94970AE091A501F091A6013EE1139F79
:10162000B00111246B517E4F0088F189E02D0DC06F
:10163000E091A501F091A6018EE1189FB00111245F
:101640006B517E4F0288F389E02DCD01DF91CF9160
:101650001F910994E091A501F091A6013EE1139F2D
:10166000B00111246B517E4F0688F789E02DEDCF34
:10167000E091A501F091A6018EE1189FB00111241F
:101680006B517E4F008CF18DE02DDFCF1F3F09F4B1
:101690001FE712969C91913099F4812F0E94F705D3
:1016A000E12FF0E0E855FC4F85818111C1C0E09148
:1016B000A501F091A6010680F781E02D812F47C09A
:1016C000923029F5C1E08C2F0E945704CF5FCC30B7
:1016D000D1F7C12FD0E0C855DC4F8D81811109C0F1
:1016E000E091A501F091A6010084F185E02D8FE73E
:1016F0000995812F0E94F7058D81811199C0E09194
:10170000A501F091A6010680F781E02D1FC093305E
:1017100009F08EC0812FDF91CF911F910C94570457
:1017200081E01F3FC1F480930F0188E691E0E5EE70
:10173000F1E0DF019C011D9221503040E1F7E09182
:10174000A501F091A6010284F385E02D8FE7DF91DA
:10175000CF911F910994809368051C3008F068C0F0
:101760003EE1139FF0011124EB51FE4F1082809156
:101770000F01181710F410930F01E091A501F091DB
:10178000A6010284F385E02D812F09951092B803FC
:101790004FC082E08093B9039091BA039460909314
:1017A000BA039091BA0390619093BA031092BB036D
:1017B0001330B1F040F4113079F01230C9F5809156
:1017C000BA03826033C0153071F1B0F0163081F584
:1017D0008091BA038E7F2AC08091BA038D7F26C084
:1017E000E091A501F091A6010480F581E02D80E053
:1017F00009951092BB031CC0E091A501F091A601D0
:101800000480F581E02D81E0099581E080930F014E
:1018100088E691E0E5EEF1E0DF019C011D922150A8
:101820003040E1F705C08091BA0381608093BA032C
:10183000DF91CF911F910895DC01683810F068584E
:1018400025C0E62FF0E067FF12C0E058F10981E003
:1018500090E001C0880FEA95EAF7809514969C9174
:101860001497892314968C93149760E00FC0E65662
:10187000FE4F6491662311F167FF08C014968C91A6
:1018800014978D7F14968C9314976F77FD0136967D
:1018900086E0662321F09081961301C0108281506A
:1018A00031968111F6CFBD016C5F7F4F48E050E06B
:1018B00082E00E94970A81E090E0089580E090E045
:1018C0000895FC01168217821086118612861386EF
:1018D0001482BC016C5F7F4F48E050E082E00C94C2
:1018E000970ADC01683810F068582DC0E62FF0E048
:1018F00067FF11C0E058F10981E090E001C0880F56
:10190000EA95EAF714969C911497892B14968C9378
:10191000149760E018C0E656FE4F6491611109C04B
:1019200081E090E013969C938E93129780E090E074
:10193000089567FF08C014968C91149782601496DE
:101940008C9314976F7716968C911697861751F192
:1019500017968C911797861729F118968C911897DE
:10196000861701F119968C9119978617D9F01A9656
:101970008C911A978617B1F01B968C911B9786173E
:1019800089F0FD01369680E090E02191211105C09B
:10199000FD01E80FF91F668305C0019686309105A9
:1019A000A1F7BECFBD016C5F7F4F48E050E082E001
:1019B0000E94970A81E090E00895CF92DF92EF9223
:1019C000FF920F931F93CF93DF936C01EB017B0189
:1019D000E40EF51E00E010E0CE15DF0561F0699120
:1019E000D601ED91FC910190F081E02DC6010995A1
:1019F000080F191FF1CFC801DF91CF911F910F91EF
:101A0000FF90EF90DF90CF90089583E08093E900FE
:101A10008091F200882319F08AE38093E80008950A
:101A20002091730430917404809175049091760430
:101A300028173907A9F0E0917504F0917604ED5C60
:101A4000FB4F808120917504309176042F5F3F4FCA
:101A50002F733327309376042093750490E0089514
:101A60008FEF9FEF0895209173043091740480915B
:101A70007504909176042817390749F0E0917504B0
:101A8000F0917604ED5CFB4F808190E008958FEF3C
:101A90009FEF0895809173049091740420917504D0
:101AA00030917604821B930B8F739927089585EDEF
:101AB0008093BC008091BC0084FDFCCF10920D048B
:101AC00008954091E703262F30E0240F311D213285
:101AD0003105DCF420910D042430C9F4FC0180E0D0
:101AE00090E0861758F43091E7032191DC01AB5365
:101AF000BC4FA30FB11D2C930196F3CF8091E70348
:101B0000680F6093E70380E0089581E0089582E024
:101B1000089508958FEF9FEF08958FEF9FEF089539
:101B20008091C40390E09195819591090895CF9398
:101B3000DF9300D0CDB7DEB7CB01642F49835A8342
:101B40000E94610D4981842F5A81952F0F900F902B
:101B5000DF91CF910895CF93DF931F92CDB7DEB77A
:101B6000698361E0CE0101960E94610D81E090E001
:101B70000F90DF91CF9108950895CF93DF93FC01EB
:101B8000EB01718182818983878190859A8789871A
:101B900025853685438154816EE1769FC0011124ED
:101BA0008B519E4FDC0150965C934E931F97569637
:101BB0003C932E93559764E0769FD0011124AB544B
:101BC000BE4F1D921D921D921C9213978385948582
:101BD0009E878D8782858E8381E0DF91CF910895E6
:101BE000FC012281FB012783FC018381FB018087AB
:101BF0000895FC0182819381FB01908F878B08956A
:101C0000DC01FB0112968D919C911397908F878B2D
:101C100014968D919C911597948F838F16968C9125
:101C20001697858F17968D919C9118979487838727
:101C30000895DC01FB0112968C91129782838281B8
:101C4000811110C015968D919C911697908F878B5E
:101C500013968D919C911497948F838F17968C91E6
:101C60008583089582810895DC01FB0112968C9191
:101C70001297838313968C911397848314968D9176
:101C80009C911597948B838B16968D919C911797A9
:101C9000928B818B08959EE1899FF0011124EB5175
:101CA000FE4F708B6787568B458B94E0899FF001C0
:101CB0001124EB54FE4F1082118212821382089578
:101CC000089508951092680524E0829FC0011124B0
:101CD000FC01EB54FE4F1082118212821382089590
:101CE00025E0FC0120838EE491E00895089580931F
:101CF000680508950E9424350F931F93CF93DF93B7
:101D00001F92CDB7DEB78C016983809117018823BC
:101D100059F041E050E0BE016F5F7F4F83E00E94C9
:101D20004009181619063CF081E090E0F801938311
:101D3000828380E090E00F90DF91CF911F910F910F
:101D400008950F931F93CF93DF931F92CDB7DEB704
:101D500000917304109174040F5F1F4F0F731127CC
:101D6000809175049091760408171907F9F041E005
:101D700050E0BE016F5F7F4F82E00E94D90901975A
:101D800019F4898190E002C08FEF9FEF8F3F2FEF12
:101D9000920761F0E0917304F0917404ED5CFB4FE5
:101DA00080831093740400937304D2CF0F90DF915B
:101DB000CF911F910F9108951F920F920FB60F921E
:101DC00011242F933F934F935F936F937F938F9340
:101DD0009F93AF93BF93EF93FF938091B900887F58
:101DE000803609F49CC068F5883209F45BC090F431
:101DF000803109F454C038F4882309F4F6C08830DF
:101E000009F44DC0F6C0883109F44CC0803209F4A1
:101E10005DC0EFC0803409F468C048F4803309F431
:101E200055C0883309F0E5C080930C04D8C08035D4
:101E300009F44FC0883509F45DC0883409F0D9C071
:101E4000D6C0883909F4C7C0A8F4883709F467C038
:101E500038F4883609F463C0803709F460C0C9C01B
:101E6000883809F4B8C0803909F45FC0803809F0B7
:101E7000C0C05BC0803B09F486C038F4803A09F4E6
:101E800066C0883A09F47FC0B4C0803C09F4A7C09A
:101E9000883C09F4A4C0883B09F48AC0AAC0809198
:101EA000320410C09091310480913004981770F57D
:101EB000E091310481E08E0F80933104F0E0E05F27
:101EC000FB4F80818093BB0085EC86C080930C041F
:101ED0008EC0E091310481E08E0F809331048091B7
:101EE000BB00F0E0E05FFB4F808390913104809174
:101EF00030046EC0E091310481E08E0F8093310494
:101F00008091BB00F0E0E05FFB4F808380910F0485
:101F100081116DC081E080930E0484EA61C083E08A
:101F200080930D0410920B04CFCF80910B0480326C
:101F300008F051C0E0910B0481E08E0F80930B04F8
:101F40008091BB00F0E0E551FC4F8083BDCF85EC74
:101F50008093BC0010920D0480910B04803230F409
:101F6000E0910B04F0E0E551FC4F108260910B040E
:101F700070E0E091E903F091EA038BEE93E00995BC
:101F800010920B0436C084E080930D041092E80395
:101F90001092E703E091E503F091E6030995809143
:101FA000E703811105C081E08093E7031092C50328
:101FB000E091E80381E08E0F8093E803F0E0EB53BB
:101FC000FC4F80818093BB009091E8038091E703F0
:101FD000981708F479CF85E88093BC000AC085EC97
:101FE0008093BC0010920D0404C010920C040E9457
:101FF000570DFF91EF91BF91AF919F918F917F917D
:102000006F915F914F913F912F910F900FBE0F9065
:102010001F9018952091A7013091A8012817390722
:1020200008F4C90190938B0080938A000895209151
:10203000A7013091A8012817390708F4C901909326
:1020400089008093880008954F925F926F927F92EB
:102050008F929F92AF92BF92CF92DF92EF92FF92B8
:102060000F931F93CF93DF93CDB7DEB760970FB673
:10207000F894DEBF0FBECDBF009709F4F7C28C0104
:102080006091B40170E080E090E00E9441332AE06A
:1020900037ED43E25CE30E94F63369837A838B83F6
:1020A0009C83F80180809180A280B380B7FE08C035
:1020B000B094A09490948094811C911CA11CB11C9C
:1020C000C501B4010E9441336B017C016091AE01F6
:1020D0007091AF0180E090E00E943F332B013C0102
:1020E00026E636E646E65FE30E94F63329813A812A
:1020F0004B815C810E94F6336D837E838F8398874A
:102100009B01AC01C701B6010E94F13387FDCBC032
:10211000A301920169817A818B819C810E94F633AF
:1021200069877A878B879C8720E030E040E85FE30F
:102130000E9425329B01AC01C701B6010E94923278
:1021400087FFB1C06D817E818F8198850E940933A0
:102150006B017C01A5019401261B370B480B590B21
:10216000AEE3B0E00E94E1314B015C0169857A8504
:102170008B859C850E9409339B01AC012C193D097C
:102180004E095F09C501B4010E94C23169017A019B
:10219000FFEFCF1ADF0AEF0AFF0A560161E08DE078
:1021A0000E940A19C114D10411F460E005C08FEF38
:1021B000C816D10429F461E08DE00E948B178AC013
:1021C000E6E4F8E0E4918E2F90E0FC013197EE30E8
:1021D000F10508F062C0EE55FF4F0C94173584B539
:1021E000806884BDC7BC76C084B5806284BDC8BC2D
:1021F00071C080918000806880938000D0928900B7
:10220000C092880067C080918000806280938000C7
:10221000D0928B00C0928A005DC08091900080684F
:1022200080939000D0929900C092980053C0809102
:102230009000806280939000D0929B00C0929A00A0
:1022400049C080919000886080939000D0929D005A
:10225000C0929C003FC08091C00080688093C00005
:102260008091C0008F7B8093C000C092CF0032C0AD
:102270008091C00080628093C000C092D0002AC0CC
:102280008091C20088608093C2008091C2008B7FE1
:102290008093C200C092D2001DC0E0E8AE16B10427
:1022A0000CF089CF82CFA301920169817A818B8161
:1022B0009C810E94F63320E030E040E85FE30E941A
:1022C00025329B01AC01C701B6010E94F13387FDA5
:1022D0006CCF71CF80E090E0A0E8BFE38093C003B3
:1022E0009093C103A093C203B093C3038093BC0334
:1022F0009093BD03A093BE03B093BF039091AD0133
:10230000F801C080D180E280F380892F807491FD34
:10231000C1C081116CC01C141D041E041F045CF597
:102320004090AE015090AF018090B0019090B1010B
:10233000A12CB12C612C712CC301B201681979094F
:102340008A099B09A70196010E94F334A301920117
:102350000E94C231820E931EA41EB51EF801808217
:102360009182A282B38280E090E00E941710F8016F
:10237000808191812EC0C114D104E104F10469F17E
:102380004090AE015090AF018090B0019090B101AB
:10239000A12CB12C612C712CA501940124193509B3
:1023A00046095709C701B6010E94F334A3019201FF
:1023B0000E94C231DA01C901880D991DAA1DBB1DF9
:1023C000F80180839183A283B3830E94171080E079
:1023D00090E00E940A102F9A49C180E090E00E948C
:1023E000171080E090E00E940A102F983FC1E09102
:1023F000AE01F091AF011C141D041E041F04DCF497
:102400004F01969487948091B0019091B101880E0C
:10241000991EA12CB12C2F01612C712CC301B2018A
:10242000681979098A099B09A70196010E94F3346A
:10243000A301920119C0C114D104E104F10411F106
:102440004F01969487948091B0019091B101881AC0
:10245000990AA12CB12CA5019401C701B6010E94D3
:10246000F3349F0140E050E00E94C231DA01C9011B
:10247000880D991DAA1DBB1DF80180839183A2833D
:10248000B38303C0CF01969587950E94171080E013
:1024900090E0D4C0811133C0F7FC02C02F9A01C074
:1024A0002F988091B0019091B1016C01E12CF12C39
:1024B0008090AE019090AF01A12CB12CF801208149
:1024C00031814281538157FF07C050954095309527
:1024D00021953F4F4F4F5F4FC501B4016C197D09E6
:1024E0008E099F090E94F334A50194010E94C23114
:1024F000DA01C9018C0D9D1DAE1DBF1D81C01C14CC
:102500001D041E041F046CF520E030E040E85FE38A
:102510006091A9017091AA018091AB019091AC01E9
:102520000E9426322091040130910501409106015C
:10253000509107010E94F6330E9409334B015C0160
:10254000609100017091010180910201909103015D
:102550000E940933681979098A099B09A701960124
:102560003FC0C114D104E104F10409F44FC020912B
:10257000A9013091AA014091AB015091AC0160E0FA
:1025800070E080E89FE30E942532209104013091A1
:10259000050140910601509107010E94F6330E9407
:1025A00009334B015C0122273327A9012C193D096E
:1025B0004E095F09609108017091090180910A013B
:1025C00090910B012D873E874F87588B0E940933CE
:1025D000681979098A099B092D853E854F85588997
:1025E0000E94F3342091AE013091AF0140E050E001
:1025F0000E94C231DA01C901880D991DAA1DBB1DB7
:10260000F80180839183A283B3830BC0609104019E
:102610007091050180910601909107010E9410338D
:10262000CB010E9417106091040170910501809107
:102630000601909107010E941033CB0160960FB6FE
:10264000F894DEBF0FBECDBFDF91CF911F910F91E8
:10265000FF90EF90DF90CF90BF90AF909F908F90C2
:102660007F906F905F904F900C940A1060960FB619
:10267000F894DEBF0FBECDBFDF91CF911F910F91B8
:10268000FF90EF90DF90CF90BF90AF909F908F9092
:102690007F906F905F904F9008956091A701709127
:1026A000A80180E090E00E943F339B01AC0160E014
:1026B0007EEF8FEF96E40E94973208952F923F921B
:1026C0004F925F926F927F928F929F92AF92BF9242
:1026D000CF92DF92EF92FF920F931F93CF93DF93EE
:1026E000CDB7DEB729970FB6F894DEBF0FBECDBFCA
:1026F000998788874B012B831D830C831701DF8209
:10270000CE82042F10E08C819D816C01E12CF12C94
:10271000E885F985F7FD2BC0C8019695982F882785
:1027200097958795BF01681B790B072E000C880BC6
:10273000990B0E9441332B013C01C701B6010E9455
:102740003F339B01AC01C301B2010E9497322B01C0
:102750003C01C8019695982F8827979587959A836D
:102760008983EB8190E8E99FB00111242AC0B80168
:102770007695762F662777956795E885F9856E0FAC
:102780007F1F072E000C880B990B0E9441332B01F1
:102790003C01C701B6010E943F339B01AC01C3015C
:1027A000B2010E9497322B013C0160E86003C00136
:1027B000619F900D11249A8389832B816203B0015C
:1027C000112488859985681B790B072E000C880BCE
:1027D000990B0E9441336B017C01B10180E090E0D4
:1027E0000E943F339B01AC01C701B6010E949732A2
:1027F0006B017C018A149B0408F43FC08E819F8189
:102800008A0D9B1D88169906C0F50C811D810A0D45
:102810001B1D8016910690F4B4016A197B0980E0B3
:1028200090E00E943F339B01AC01C301B2010E94C2
:10283000F6330E94093389819A811CC08219930959
:1028400088159905E8F48A189B08EE81FF818E1A95
:102850009F0AB401620D731D80E090E00E943F3337
:102860009B01AC01C701B6010E94F6330E940933F7
:1028700088859985860F971F05C080E090E002C08B
:102880008885998529960FB6F894DEBF0FBECDBF17
:10289000DF91CF911F910F91FF90EF90DF90CF903C
:1028A000BF90AF909F908F907F906F905F904F9070
:1028B0003F902F9008958F929F92AF92BF92CF92A8
:1028C000DF92EF92FF92CF93DF934B015C01EA011D
:1028D0000E9418066B017C01DE01A50194010E9493
:1028E000EC310E944133A70196010E94F63320E0AB
:1028F00030E040E051E40E94F63320E030E040E276
:1029000051E40E94F63320E030E040E85BE30E94AF
:10291000F6330E9409330E943D069095809570958C
:1029200061957F4F8F4F9F4FDF91CF91FF90EF9039
:10293000DF90CF90BF90AF909F908F9008954F926F
:102940005F926F927F928F929F92AF92BF92CF923F
:10295000DF92EF92FF92CF93DF9300D000D0CDB7FC
:10296000DEB74B015C0157FF02C04D5F5F4F6A014C
:10297000D594C794D594C7940E94180669837A8326
:102980008B839C839B01AC01C501B4010E94F6338B
:1029900020E030E040E251E40E94F6332B013C019C
:1029A00020E030E040E85FE30E94F1330D2C000CA2
:1029B000EE08FF0818161CF4C701B60128C020E075
:1029C00030E040E85FEBC301B2010E94923287FF22
:1029D00006C0C701B6010E943D06CB011EC0C7015B
:1029E000B6010E9441339B01AC01C501B4010E94B4
:1029F000F63329813A814B815C810E94F63320E0D5
:102A000030E040E251E40E94F6330E9409330E9414
:102A10003D0688279927861B970B0F900F900F90E4
:102A20000F90DF91CF91FF90EF90DF90CF90BF900C
:102A3000AF909F908F907F906F905F904F90089590
:102A40008F929F92AF92BF92CF92DF92EF92FF92BE
:102A50004B015C01BA01550F880B990B0E94413361
:102A60006B017C0120E030E0A901C501B4010E94A6
:102A7000F133A501940118160CF05058C701B601A6
:102A80000E94F6336B017C010E9418069B01AC0189
:102A9000C701B6010E94F63320E030E040E851E47F
:102AA0000E94F63320E030E040E251E40E94F63329
:102AB00020E030E040E05DE30E94F6330E940933FD
:102AC0000E943D066B017C0120E030E0A901C501B8
:102AD000B4010E94F13318162CF4882799278C1919
:102AE0009D090DC020E030E0A901C501B4010E949C
:102AF000923287FF02C0C60102C080E090E0FF90E2
:102B0000EF90DF90CF90BF90AF909F908F900895FF
:102B100090E0FC013197EE30F10590F5E055FF4F64
:102B20000C941735809180008F7703C080918000CE
:102B30008F7D80938000089584B58F7702C084B51F
:102B40008F7D84BD0895809190008F7707C080911C
:102B500090008F7D03C080919000877F80939000CC
:102B600008958091C0008F7703C08091C0008F7D51
:102B70008093C00008958091C200877F8093C20037
:102B80000895CF93DF93282F30E0F901E75CF74FEA
:102B90008491F901E65EF74FD491F901E550F84FC1
:102BA000C491CC2391F081110E948815EC2FF0E0A4
:102BB000EE0FFF1FE351F84FA591B491EC91ED2377
:102BC00081E090E021F480E002C080E090E0DF91BD
:102BD000CF9108950F931F930E94BC1960938604B0
:102BE000709387048093880490938904E0917E0415
:102BF000F0917F040084F185E02D8EE794E0099543
:102C000097FF1FC00E94BC19009186041091870491
:102C10002091880430918904DC01CB01801B910B49
:102C2000A20BB30B009182041091830420918404C1
:102C30003091850480179107A207B307B8F28FEF90
:102C40009FEF1F910F910895009769F0FC0101908B
:102C50000020E9F73197AF01481B590BBC018EE703
:102C600094E00C94DD0C80E090E0089590917D0458
:102C700089B18C70892B90E09C013595279535950D
:102C8000279520937D044091790450917A046091B6
:102C90007B0470917C04FC01ED5AFE4F8081082E6C
:102CA000000C990BAA0BBB0B840F951FA61FB71F17
:102CB0008093790490937A04A0937B04B0937C046E
:102CC000809178040895E0917E04F0917F04019052
:102CD000F081E02D682F8EE794E00994CF93DF9385
:102CE0008DE00E946316EC018AE00E9463168C0F4F
:102CF0009D1FDF91CF9108958F929F92AF92BF92C7
:102D0000EF92FF920F931F93CF93DF93CDB7DEB770
:102D1000A1970FB6F894DEBF0FBECDBF162F042FBC
:102D200019A2423008F40AE07E0121E2E20EF11C11
:102D3000802E912CA12CB12C612FA50194010E9411
:102D4000F431029F1019112481E0E81AF1081A30B9
:102D500014F4105D01C0195CF7011083122F732F5A
:102D6000CA01232B242B252B39F7C7010E942416D7
:102D7000A1960FB6F894DEBF0FBECDBFDF91CF9105
:102D80001F910F91FF90EF90BF90AF909F908F9009
:102D90000895CF92DF92EF92FF92CF93DF9397FF48
:102DA00019C06B017C018DE20E946316EC0166275D
:102DB0007727CB016C197D098E099F094AE00E9493
:102DC0007C168C0F9D1FDF91CF91FF90EF90DF90CD
:102DD000CF9008954AE0DF91CF91FF90EF90DF9080
:102DE000CF900C947C16CF93DF93BC01990F880B86
:102DF000990B0E94C916EC010E946E168C0F9D1F44
:102E0000DF91CF910895BC01990F880B990B0C9419
:102E1000C916682F70E080E090E04AE00C947C16C0
:102E20000C942416FF920F931F93CF93DF9300D03F
:102E300000D0CDB7DEB70E94EA15FC0197FD11C0A6
:102E40008D32910591F0C0970A9778F0E0917E0459
:102E5000F0917F040680F781E02D8EE794E00995DC
:102E6000EACF60E070E0CB014CC020E030E0A90187
:102E7000F12CE130F105F1F0ED32F105C9F0CF01AF
:102E8000C0970A97B8F4AAE0B0E00E94E1318F0140
:102E9000FF0F220B330BDC01CB01800F911FA21F10
:102EA000B31F9C01AD01205331094109510902C0F2
:102EB000FF24F394E0917E04F0917F040680F78173
:102EC000E02D8EE794E029833A834B835C83099558
:102ED0000E94EA15FC01C09729813A814B815C81EF
:102EE0000A9738F2E130F10521F2FF2041F0662720
:102EF0007727CB01621B730B840B950B02C0CA01B1
:102F0000B9010F900F900F900F90DF91CF911F910B
:102F10000F91FF9008951F93CF93DF93282F30E0F8
:102F2000F901E75CF74F8491F901E65EF74FD49120
:102F3000F901E550F84FC491CC23C9F0162F811147
:102F40000E948815EC2FF0E0EE0FFF1FE152F84FC2
:102F5000A591B4918FB7F894111105C09C91ED2FF4
:102F6000E095E92302C0EC91ED2BEC938FBFDF914C
:102F7000CF911F9108958F929F92AF92BF92CF925F
:102F8000DF92EF92FF920F931F93CF9380918D0466
:102F90000E94C1158111E4C00E947119C090A5045E
:102FA000D090A604E090A704F090A804DC01CB0127
:102FB0008C199D09AE09BF098093A9049093AA04B6
:102FC000A093AB04B093AC040E9471196093A50464
:102FD0007093A6048093A7049093A8041092BB0456
:102FE000C0E0C12CD12C760180918E0490E04796F0
:102FF0002C2F30E082179307BCF061E080918C04A5
:103000000E948B1760E080918C040E948B17C8315E
:1030100048F480918D040E94C115CC0CDD1CEE1C7F
:10302000FF1CC82ACF5FE0CFD701C601A058009788
:10303000A10511E0B10718F021E02093C704209109
:10304000CD04222361F04FEF5FEF6FEF70E08A0154
:103050009B01081B190B2A0B3B0BD901C80140919E
:10306000A3045091A4042091C1043091C204B90179
:10307000615071094617570729F41092A404109261
:10308000A30406C04F5F5F4F5093A4044093A30472
:103090000097A105B10509F456C0F090BB0441E0CA
:1030A0004F0D4093BB04E091A304F091A404EE0FF4
:1030B000FF1FEE0FFF1FE457FB4F83879487A58701
:1030C000B6878091B1048823F1F18091AE0481111B
:1030D00004C081E08093AE0436C0A0E040E050E040
:1030E000BA018A2F90E0821793078CF4880F991FFA
:1030F000880F991FFC01E457FB4F83849484A584B7
:10310000B684480D591D6A1D7B1DAF5FEACF009044
:10311000AF0404C075956795579547950A94D2F703
:1031200040939F045093A0046093A1047093A20461
:103130001092AE041092B10481E08093BC04F39429
:10314000F394F092BB040E94BC196093C80470937E
:10315000C9048093CA049093CB041092CC041AC083
:103160000E94BC19C090C804D090C904E090CA0461
:10317000F090CB04DC01CB018C199D09AE09BF098D
:1031800085369105A105B10518F081E08093CC0446
:103190001092BB048091BB04CF911F910F91FF90BF
:1031A000EF90DF90CF90BF90AF909F908F90089559
:1031B000CF92DF92EF92FF92CF9381E08093B104A0
:1031C0001092AE041092BF040E94BC192091BD045D
:1031D0003091BE046B017C01C20ED31EE11CF11CB8
:1031E0000E94BB17C82F8091C00481110BC00E94A0
:1031F000BC19C616D706E806F90620F481E08093CC
:10320000BF0402C0C23061F7CF91FF90EF90DF9012
:10321000CF900895CF93DF9390E0FC01E65EF74FE7
:103220002491FC01E550F84F8491882361F190E0EE
:10323000880F991FFC01EF52F84FC591D491FC0102
:10324000E152F84FA591B491611109C09FB7F8946C
:103250008881209582238883EC912E230BC06230D5
:1032600061F49FB7F8943881822F809583238883F7
:10327000EC912E2B2C939FBF06C08FB7F894E8815A
:103280002E2B28838FBFDF91CF910895823108F0D4
:103290008251E82FF0E0EB53F84FE49180917B00EE
:1032A000E3FB222720F930E095E0220F331F9A95A7
:1032B000E1F78F7D282B20937B00E770E064E0939B
:1032C0007C0080917A00806480937A0080917A00FB
:1032D00086FDFCCF809178002091790090E0922BC0
:1032E00008953FB7F89480918B0590918C05A0913B
:1032F0008D05B0918E0526B5A89B05C02F3F19F00E
:103300000196A11DB11D3FBFBA2FA92F982F882765
:10331000820F911DA11DB11DBC01CD0142E0660FC0
:10332000771F881F991F4A95D1F70895CF92DF9292
:10333000EF92FF92CF93DF936B017C010E94711992
:10334000EB01C114D104E104F10479F00E94711978
:103350006C1B7D0B683E7340A0F381E0C81AD10856
:10336000E108F108C851DC4FECCFDF91CF91FF901D
:10337000EF90DF90CF9008952FB7F8946091870574
:10338000709188058091890590918A052FBF0895D5
:103390001F920F920FB60F9211242F933F938F938A
:1033A0009F93AF93BF938091870590918805A091DB
:1033B0008905B0918A053091860523E0230F2D37CA
:1033C00020F40196A11DB11D05C026E8230F029629
:1033D000A11DB11D209386058093870590938805D4
:1033E000A0938905B0938A0580918B0590918C05F7
:1033F000A0918D05B0918E050196A11DB11D809300
:103400008B0590938C05A0938D05B0938E05BF918D
:10341000AF919F918F913F912F910F900FBE0F9081
:103420001F901895CF93DF93CDB7DEB7C254D10963
:103430000FB6F894DEBF0FBECDBF789484B582601E
:1034400084BD84B5816084BD85B5826085BD85B548
:10345000816085BD80916E00816080936E001092C6
:103460008100809181008260809381008091810041
:1034700081608093810080918000816080938000D2
:103480008091910082608093910080919100816091
:103490008093910080919000816080939000809152
:1034A000C10084608093C1008091C10082608093DC
:1034B000C1008091C10081608093C1008091C300F0
:1034C00081608093C3008091C00082608093C000BF
:1034D0008091C20081608093C20080917A008460F4
:1034E00080937A0080917A00826080937A00809144
:1034F0007A00816080937A0080917A00806880935E
:103500007A001092A40181E08093D70080EA809332
:10351000D80082E189BD09B400FEFDCF61E070E012
:1035200080E090E00E94961980E98093D8001CE02A
:103530001093E2001092E00010927A031092790347
:1035400010927F03109280031092810310928203E5
:1035500010927403109273031092880310928903DF
:1035600010928A0310928B0310928C0310928D0399
:1035700010928E0310928F0342E0BE01615F7F4F75
:1035800080E090E00E943B078F8598898A3F9105F3
:1035900009F407C18AEF90E09E878D8742E0BE0163
:1035A000635F7F4F80E090E00E940C0719821A82CF
:1035B0001B821C8244E0BE016F5F7F4F82E090E07F
:1035C0000E940C0788E394E09E878D8742E0BE014D
:1035D000635F7F4F86E090E00E940C0784E6898B52
:1035E00041E0BE016F5E7F4F88E090E00E940C07D3
:1035F00041E0BE016F5E7F4F8BE090E00E940C07C0
:1036000041E0BE016F5E7F4F8CE090E00E940C07AE
:1036100041E0BE016F5E7F4F80E190E00E940C07A9
:1036200041E0BE016F5E7F4F8DE090E00E940C078D
:1036300082E3898B41E0BE016F5E7F4F89E090E0BD
:103640000E940C0741E0BE016F5E7F4F8AE090E070
:103650000E940C0741E0BE016F5E7F4F8EE090E05C
:103660000E940C0786E4898B41E0BE016F5E7F4FAC
:103670008FE090E00E940C071E861D8642E0BE018E
:10368000635F7F4F81E190E00E940C078FEF97E02E
:103690009E878D8742E0BE01635F7F4F83E190E0AC
:1036A0000E940C078FEF9FE09E878D8742E0BE014E
:1036B000635F7F4F85E190E00E940C078DE2898B6C
:1036C00041E0BE016F5E7F4F87E190E00E940C07F2
:1036D00081E0898B41E0BE016F5E7F4F88E190E021
:1036E0000E940C0780E699E0A0E0B0E089839A830D
:1036F000AB83BC8344E0BE016F5F7F4F89E190E004
:103700000E940C07198B41E0BE016F5E7F4F8DE177
:1037100090E00E940C071E861D8642E0BE01635F9A
:103720007F4F8AE290E00E940C0742E0BE01635F97
:103730007F4F8EE290E00E940C0742E0BE01635F83
:103740007F4F82E390E00E940C0742E0BE01635F7E
:103750007F4F86E390E00E940C078FEF93E09E87F7
:103760008D8742E0BE01635F7F4F8CE290E00E9454
:103770000C0742E0BE01635F7F4F80E390E00E9450
:103780000C0742E0BE01635F7F4F84E390E00E943C
:103790000C0742E0BE01635F7F4F88E390E00E9428
:1037A0000C0742E062EB71E086E090E00E943B078C
:1037B00044E063E573E089E190E00E943B0741E06B
:1037C00064EB71E088E090E00E943B0741E06AE52D
:1037D00073E089E090E00E943B0741E068E573E018
:1037E0008AE090E00E943B0741E06DE573E08BE0EA
:1037F00090E00E943B0741E06CE573E08CE090E0D4
:103800000E943B0741E06BE573E08DE090E00E9491
:103810003B0741E069E573E08EE090E00E943B07E2
:1038200041E06EE573E08FE090E00E943B0741E0ED
:1038300067E573E080E190E00E943B0741E068E6C5
:1038400073E087E190E00E943B0741E067E873E0A6
:1038500088E190E00E943B0742E060EB71E081E18B
:1038600090E00E943B0742E06EEA71E083E190E065
:103870000E943B0742E061E573E085E190E00E9431
:103880003B0741E06DEA71E08DE190E00E943B076B
:1038900042E06BE773E08AE290E00E943B0742E07F
:1038A0006DE773E08CE290E00E943B0742E063E842
:1038B00073E08EE290E00E943B0742E065E873E02F
:1038C00080E390E00E943B0742E065E773E082E31B
:1038D00090E00E943B0742E067E773E084E390E0FA
:1038E0000E943B0742E06FE673E086E390E00E94AF
:1038F0003B0742E061E773E088E390E00E943B070A
:103900006091530370915403809155039091560335
:103910000E94413320E030E044EB53E40E949732B0
:103920006B017C018091B2019091B301BC01990FB0
:10393000880B990B0E9441339B01AC01C701B60172
:103940000E94F6330E94093360934D0370934E0337
:1039500080934F03909350036B017C01F594E7949F
:10396000D794C794C0929003D0929103E0929203AF
:10397000F092930362E080E00E940A1962E081E025
:103980000E940A1910927804C0927904D0927A04A5
:10399000E0927B04F0927C0410927D044A9B05C067
:1039A00080917D04816080937D044B9B05C0809154
:1039B0007D04826080937D04809169008F7C8061AA
:1039C00080936900EA9A809169008F738064809384
:1039D0006900EB9A60E082E10E940A1960E083E1ED
:1039E0000E940A1960E084E10E940A1962E085E100
:1039F0000E940A1962E086E10E940A1962E087E1EA
:103A00000E940A1962E08CE00E940A1962E086E0D6
:103A10000E940A1962E087E00E940A1962E088E0C9
:103A20000E940A1961E080918C040E940A1960E0EA
:103A300080918D040E940A1911E010938E0460E0B9
:103A400080918C040E948B1710938E040E94BC19E5
:103A50006093C8047093C9048093CA049093CB0404
:103A60000E94BC19603679408105910518F40E94C6
:103A7000BB17F6CF0E94D8181092BC04609168035F
:103A800070E080E090E00E943F3320E030E040E8CA
:103A90005EE30E94F6339B01AC0160938F04709348
:103AA0009004809391049093920460E070E080E829
:103AB0009FE30E94973260939304709394048093E1
:103AC00095049093960488E191E09093A6018093E9
:103AD000A50185ED94E090936A058093690588EBD4
:103AE0009AE090936C0580936B05279A1091AD0135
:103AF000812F0E9464075C019093A8018093A70125
:103B00009093AF018093AE016091B0017091B101CB
:103B100080E090E00E943F336B017C01B50180E0C2
:103B200090E00E943F339B01AC01C701B6010E94A7
:103B300097326093A9017093AA018093AB0190938F
:103B4000AC01012F017010FD05C020E030E04AEF0C
:103B500054E404C020E030E04AE754E460910801F6
:103B60007091090180910A0190910B010E94F63336
:103B7000609308017093090180930A0190930B01EF
:103B8000011105C020E030E04AEF54E404C020E019
:103B900030E04AE754E4609104017091050180919E
:103BA0000601909107010E94F6336093040170931F
:103BB00005018093060190930701011105C020E0E3
:103BC00030E04AEF54E404C020E030E04AE754E437
:103BD00060910001709101018091020190910301B7
:103BE0000E94F633609300017093010180930201FB
:103BF00090930301109280001092810010926F0048
:103C000016BA8091A7019091A801909387008093A4
:103C10008600109289001092880010928B001092FA
:103C20008A008091AD018274823421F480918100F8
:103C3000826003C0809181008160809381008091C7
:103C4000AD0180FF09C08091800082608093800078
:103C500080918100806108C08091800082608093A3
:103C600080008091810088618093810080E090E0F5
:103C70000E94171080918000806880938000259AB0
:103C800080E090E00E940A10809180008062809322
:103C90008000269A61E08DE00E940A1913E061E03D
:103CA0008DE00E948B1764E170E080E090E00E945C
:103CB000961960E08DE00E948B1764E170E080E06F
:103CC00090E00E949619115051F7109269031092DA
:103CD0006A0310926B0310926C0389E693E00E94D2
:103CE00024108091900390919103A0919203B09140
:103CF0009303F8948093790490937A04A0937B04BF
:103D0000B0937C04789410926603109265038FEF51
:103D100097E090936403809363038091680380939A
:103D200067030E94711960939403709395038093C5
:103D30009603909397030E9471196093D304709334
:103D4000D4048093D5049093D604009198031091E5
:103D5000990320919A0330919B036B017C01C01A57
:103D6000D10AE20AF30AC092CF04D092D004E092C2
:103D7000D104F092D2040091940310919503209104
:103D80009603309197036B017C01C01AD10AE20AB5
:103D9000F30A40EDC41647E0D406E104F10410F440
:103DA0000C948C30609394037093950380939603E6
:103DB00090939703F8948091790490917A04A0915C
:103DC0007B04B0917C0478944091900350919103CE
:103DD0006091920370919303841B950BA60BB70B14
:103DE00080938C0390938D03A0938E03B0938F03E5
:103DF0008093880390938903A0938A03B0938B03E5
:103E00001091870315FB882780F916FD826017FF44
:103E100002C084601DC08130D9F46A017B01C09466
:103E2000D094E094F0949A01AB012C193D094E090D
:103E30005F0960917F03709180038091810390916D
:103E400082030E94F3342FEF3FEF40E050E032C096
:103E5000823059F46A017B01C094D094E094F094CC
:103E6000A0917903B0917A0319C0833059F46A01A3
:103E70007B01C094D094E094F094A0917303B0912E
:103E800074030CC0843021F56A017B01C094D09486
:103E9000E094F094A0916D03B0916E039A01AB0190
:103EA0002C193D094E095F090E94EC312FEF3FE0CC
:103EB00040E050E00E94C231C20ED31EE41EF51E47
:103EC000C0928803D0928903E0928A03F0928B0318
:103ED0008090880390908903A0908A03B0908B0310
:103EE0008091DC049091DD04A091DE04B091DF04A8
:103EF0008092DC049092DD04A092DE04B092DF0494
:103F00002091E404222309F449C000910D0554E0F6
:103F1000059F90011124B90164527B4F7B01A501DB
:103F20009401281B390B4A0B5B0BCA01B9010E9493
:103F30004133D70119966D937D938D939C931C9774
:103F4000F02E3AE0E32E60E070E0CB01B4E0FB9E9F
:103F5000F0011124E452FB4F2185328543855485BD
:103F60000E942632FF2011F0FA9402C029E0F22EBE
:103F7000EA94E110EBCF20E030E040E251E40E940F
:103F800097320F5F0A3018F400930D0502C01092AB
:103F90000D056AA77BA78CA79DA70FC081E0809322
:103FA000E4041092E0041092E1041092E2041092F2
:103FB000E3041AA61BA61CA61DA620910E0530918F
:103FC0000F0540911005509111058AA59BA5ACA540
:103FD000BDA580930E0590930F05A0931005B09397
:103FE000110580911605882309F444C000916705E6
:103FF000E4E00E9FC0011124BC016B517B4F7B019B
:104000006AA57BA5CD010E942532D701D2966D937A
:104010007D938D939C93D597F02EB4E1EB2E60E0C9
:1040200070E0CB01B4E0FB9EF0011124EB51FB4F9B
:1040300022A933A944A955A90E942632FF2011F0D4
:10404000FA9402C0A3E1FA2EEA94E110EBCF20E04B
:1040500030E040EA51E40E9497320F5F043118F4D7
:104060000093670502C0109267056AAB7BAB8CAB0F
:104070009DAB0FC081E0809316051092120510923F
:10408000130510921405109215051AAA1BAA1CAA52
:104090001DAA80916805882359F110FF38C70E9436
:1040A0004D139B01AC0160E070E080E094E40E945D
:1040B00097326B017C0160915E0370E080E090E0DC
:1040C0000E9441339B01AC01C701B6010E94F63347
:1040D00020E030E048EC52E40E9497320E9409331D
:1040E000AB01C501B4010E945B142B013C0112C756
:1040F000E9EBF1E0FF8FEE8F1B8A1A8A412C512CDD
:1041000032010A891B890F5F1F4F1B8B0A8B4EE1FF
:104110009801429F8001439F100D11240B511E4FA7
:10412000D8018C918370833009F0E4C60E944D134E
:104130006B017C01F80121853285A789B08D0E9431
:104140001D352FEF3FE740E050E00E94C231CA0129
:10415000B9010E944133A70196010E9497320E9443
:1041600009339B01AC01D8011B968D919C911C9742
:10417000059730F4E4E0F0E01C96FC93EE931B9777
:10418000FEE1EF2ECA88DB88EC9CF001ED9CF00D7F
:104190001124EB51FE4FE1818E2F90E0FC0131970D
:1041A000ED30F10508F090C6EA5AFF4F0C94173530
:1041B0000E944D136E8B7F8B888F998F2EE10A8919
:1041C0001B89209FC001219F900D1124AC014B51F0
:1041D0005E4F1A01DA0119968D909C901A975596A8
:1041E000AD90BC9056971F96CD90DC90509751960D
:1041F000ED90FC90529753960D911C915497149604
:104200002C91149713964C91139757968D919C91DE
:104210005897EE8DFF8D608171810E945E1394012D
:10422000DC010E941D352FEF3FE740E050E00E9487
:10423000C231CA01B9010E9441332E893F89488D9C
:10424000598D0E9497320E9409330E943D069B01BE
:10425000AC01A0915D03B0E00E94E13124E630E0C2
:1042600040E050E00E94C231421A530A640A750AC3
:104270007AC10E944D136E8B7F8B888F998F5EE180
:10428000E52ECA88DB88EC9CF001ED9CF00D112432
:10429000EB51FE4F018512851B8F0A8FC588D6888A
:1042A000DBA2CAA2E784F088FFA2EEA201891289EC
:1042B0001FA70EA7038914891AAF09AF84809380C2
:1042C000AE8DBF8D2D903C90078510896085A780AD
:1042D0000A2C000CBB08062E000C770B6A197B0910
:1042E000CB01770FAA0BBB0B6627782F892F9A2F4C
:1042F0000E9441336B017C01B80180E090E00E9494
:104300003F3320E030E04AE754E40E9497329B01BB
:10431000AC01C701B6010E9497326B017C01C1015B
:10432000B8010E940335BC0180E090E00E943F3359
:1043300020E030E04AE754E40E9497329B01AC0150
:10434000C701B6010E94F6330E940933BA2CAA2491
:10435000C501860F971FAAA0BBA0CEA0DFA0EEA428
:10436000FFA409AD1AAD282D492DB1010E945E139D
:104370002A8D3B8DDC010E941D352FEF3FE740E089
:1043800050E00E94C231CA01B9010E9441332E8916
:104390003F89488D598D0E9497320E9409330E94AF
:1043A0003D06461A570A680A790A8EC50E944D13BF
:1043B0006A8F7B8F8C8F9D8F4EE1C42EEA89FB899B
:1043C000CE9EC001CF9E900D11248C010B511E4F2B
:1043D0001801D80119960D90BC91A02DBBA3AAA3DA
:1043E000F801038CF48DE02DFFA3EEA3D8015D96B8
:1043F000BC91BEA7F80183849484A588B688C7843D
:10440000D088E188F2880389148924814381AE8DA4
:10441000BF8D0D90BC91A02DBF8BAE8B8789908DE9
:10442000BD010E945E138C01B40180E090E00E9407
:104430003F3320E030E04AE754E40E9497329B018A
:10444000AC0160E070E080E89FE30E9497326B016E
:104450007C018E899F89B4010E940335BC0180E0F4
:1044600090E00E943F3320E030E04AE754E40E94AD
:1044700097329B01AC01C701B6010E94F6336B0174
:104480007C01BEA56B2F70E080E090E00E943F337E
:1044900020E030E040E85BE30E94F6339B01AC0192
:1044A000C701B6010E9426322BED3FE049EC50E4F3
:1044B0000E94F6330E9463349B01AC01EEA1FFA180
:1044C0006F01FF0FEE08FF08B801110F880B990B61
:1044D0002FAF23963FAF239721964FAF2197229678
:1044E0005FAF22970E9441332FAD23963FAD2397B4
:1044F00021964FAD219722965FAD22970E94F63309
:104500000E940933CB01770FAA0BBB0BA7019601C1
:10451000280F391F4A1F5B1FAAA1BBA10E94E131CE
:104520002FEF3FE740E050E00E94C231CA01B901DD
:104530000E9441332A8D3B8D4C8D5D8D0E949732B8
:104540000E9409339B01AC01A0915C03B0E00E9482
:10455000E13124E630E040E050E00E94C231420EFA
:10456000531E641E751ED10116968C91169782FFFC
:10457000ABC41D966D917C911E9780E090E00E94E7
:104580003F332BED3FE049EC50E40E94F63320E04E
:1045900030E040E058E30E94F6330E9463349B0110
:1045A000AC01C301B2012FAF23963FAF23972196F1
:1045B0004FAF219722965FAF22970E9441332FADD4
:1045C00023963FAD239721964FAD219722965FAD5D
:1045D00022970E94F6330E9409332B013C0174C4D8
:1045E0000E944D136A8F7B8F8C8F9D8F3EE1E32E4F
:1045F000CA88DB88EC9CF001ED9CF00D1124EB5196
:10460000FE4F018512851BA30AA3238D348DA901BA
:10461000330F660B770B4EA35FA368A779A7558D61
:104620005EA723843484A588B688C784D088E188AF
:10463000F2880389148924814381AE8DBF8D0D904A
:10464000BC91A02DBF8BAE8B8789908DBD010E9440
:104650005E13BC01990F880B990B0E9441334B01EB
:104660005C01B10180E090E00E943F3320E030E047
:104670004AE754E40E9497329B01AC0160E070E08D
:1046800080E89FE30E9497326B017C018E899F89AD
:10469000B1010E940335BC0180E090E00E943F33ED
:1046A00020E030E04AE754E40E9497329B01AC01DD
:1046B000C701B6010E94F6336B017C01BEA56B2FCA
:1046C00070E080E090E00E943F3320E030E040E87E
:1046D0005BE30E94F6339B01AC01C701B6010E9467
:1046E00026322BED3FE049EC50E40E94F6330E9465
:1046F00063346B017C0120E030E0A9010E94F133BA
:1047000087FF0CC020E030E0A901C701B6010E947C
:10471000923287FF05C0EFEFEEAB02C0F1E0FEABD7
:10472000CEA86C2DCC0C770B880B990B0E944133D3
:104730009B01AC01C501B4010E94F6330E9409330C
:10474000CB01770FAA0BBB0BDDC10E944D136AA3EF
:104750007BA38CA39DA30EE1EA88FB880E9DF0014C
:104760000F9DF00D1124EB51FE4F218532853FA3A3
:104770002EA3238D348DA901330F660B770B4EA723
:104780005FA768AB79AB358D638574857F8B6E8B46
:10479000A588B688C784D088E188F28803891489FF
:1047A00024814381AE8DBF8D0D90BC91A02DBB8F18
:1047B000AA8F8789908DBD0123963FAF23970E94D2
:1047C0005E131C01EE89FF89BF0180E090E00E942A
:1047D0003F334B015C0123963FAD239760E4630FA9
:1047E00070E080E090E00E943F3320E030E040E85D
:1047F0005BE30E94F633A50194010E94F6330E9408
:1048000010338A8D9B8D860F971F6E897F890E943A
:1048100003358C01BC0180E090E00E943F3320E032
:1048200030E04AE754E40E9497326B017C0120E0BB
:1048300030E0A9010E94F13387FD3CC020E030E068
:104840004AE754E4C501B4010E9497326A8F7B8F16
:104850008C8F9D8F20E030E040E05FE30E94F633D4
:104860009B01AC01C701B6010E94923287FF22C0B2
:10487000B101032C000C880B990B0E94413320E0FE
:1048800030E040E850E40E94F6332A8D3B8D4C8D99
:104890005D8D0E949732A70196010E94F6330E9417
:1048A00009333194219431086101C60ED71ED8AE68
:1048B000CFAA51C020E030E04AE754E4C501B4017A
:1048C0000E9497324B015C0120E030E040E05FE362
:1048D0000E94F6339B01AC01C701B6010E94F1337F
:1048E00087FD39C0A5019401C701B6010E9492322B
:1048F00087FF31C0B101032C000C880B990B0E947B
:10490000413320E030E040E850EC0E94F633A5014E
:1049100094010E9497326B017C018E899F89969544
:104920008795B801681B790B80E090E00E943F33C7
:1049300020E030E04AE754E40E9497329B01AC014A
:10494000C701B6010E94F6330E9409337101E60ED9
:10495000F71EF8AEEFAA0FA918ADC801110FAA0BE8
:10496000BB0B2EA53FA548A959A9280F391F4A1FDF
:104970005B1FAEA1BFA10E94E1312FEF3FE740E0F6
:1049800050E00E94C231CA01B9010E9441332AA1FC
:104990003BA14CA15DA10E9497320E9409339B016B
:1049A000AC01A0915C03B0E00E94E13124E630E06C
:1049B00040E050E00E94C231420E531E641E751E3C
:1049C00083C20E944D136A8F7B8F8C8F9D8F4EE127
:1049D0002A893B89429FF001439FF00D1124EB513E
:1049E000FE4F618572857BA36AA3238D348DC90137
:1049F000330FAA0BBB0B8EA39FA3A8A7B9A7358D16
:104A000023843484A588B688C784D088E188F28856
:104A10000389148924814381AE8DBF8D8D909C9034
:104A20008789908DB40123963FAF23970E945E1330
:104A30009F8B8E8BB10180E090E00E943F336B0131
:104A40007C0123963FAD239760E8630F70E080E020
:104A500090E00E943F3320E030E040E85BE30E94BA
:104A6000F633A70196010E94F6330E941033C40169
:104A7000860F971FB1010E9403358C0182159305A3
:104A8000D8F5EE89FF89BF01FF0F880B990B0E94B3
:104A900041339B01AC010E9426324B015C0120E0B6
:104AA00030E04AE754E4C701B6010E9497329B0107
:104AB000AC01C501B4010E9497326B017C01B801C1
:104AC00080E090E00E943F3320E030E04AE754E489
:104AD0000E9497329B01AC01C701B6010E94F633D8
:104AE0000E9409332E893F89319521953109690149
:104AF000C60ED71EDCAECBAEEBACFCACC701FF0CD8
:104B0000AA0BBB0B2EA13FA148A559A5280F391F01
:104B10004A1F5B1FAAA1BBA10E94E1312FEF3FE713
:104B200040E050E00E94C231CA01B9010E94413305
:104B30002A8D3B8D4C8D5D8D2ECF0E944D136A8F3B
:104B40007B8F8C8F9D8F2EE10A891B89209FF0011E
:104B5000219FF00D1124EB51FE4F418552855BA33F
:104B60004AA3238D348DB901330F880B990B6EA3A3
:104B70007FA388A799A7358D23843484A588B68818
:104B8000C784D088E188F28803891489248143810D
:104B9000AE8DBF8D8D909C908789908DB4012396AA
:104BA0003FAF23970E945E139F8B8E8BB10180E0F5
:104BB00090E00E943F336B017C0123963FAD239729
:104BC00060E8630F70E080E090E00E943F3320E0F7
:104BD00030E040E85BE30E94F633A70196010E94B3
:104BE000F6330E941033C401860F971FB1010E9453
:104BF00003358C0182159305D0F56E897F897195F7
:104C000061957109072E000C880B990B0E944133A6
:104C10009B01AC010E9426324B015C0120E030E098
:104C20004AE754E4C701B6010E9497329B01AC01E8
:104C3000C501B4010E9497326B017C01B80180E08C
:104C400090E00E943F3320E030E04AE754E40E94C5
:104C500097329B01AC01C701B6010E94F6330E9456
:104C60000933EE89FF89E60FF71FFEAFEDAFCDAC3C
:104C7000DEACC601DD0CAA0BBB0B44CF0EE1EA880B
:104C8000FB880E9DF0010F9DF00D1124EB51FE4F9E
:104C9000038D148DA0915B03B0E00E94E13120E40C
:104CA00036E040E050E00E94C23169017A01209173
:104CB0009003309191034091920350919303D80156
:104CC0000E94EC31DC01CB011FE0B595A7959795CB
:104CD00087951A95D1F7092E000CAA0BBB0B4091B2
:104CE00088035091890360918A0370918B038A0134
:104CF0009B01081B190B2A0B3B0BC901B801A6012C
:104D00000E945B14460E571E681E791EDDC08EE1A0
:104D10006A897B89869FF001879FF00D1124EB51F2
:104D2000FE4F038D148DA0915A03B0E00E94E13133
:104D300024E630E040E050E00E94C23169017A018F
:104D4000B801110F880B990B0E9441332AE939EC05
:104D50004CEC54E40E9497329B01AC016AA57BA500
:104D60008CA59DA50E942532A6010E94680662C0FE
:104D7000FEE1CF2EAA89BB89CA9EF001CB9EF00D21
:104D80001124EB51FE4F038D148DA0915903B0E017
:104D90000E94E13124E630E040E050E00E94C23160
:104DA00069017A01B801110F880B990B0E944133F8
:104DB00020E03EEF4FEF56E40E9497329B01AC019A
:104DC0006AA97BA98CA99DA90E942532A6010E94EF
:104DD000201530C00EE1EA88FB880E9DF0010F9D82
:104DE000F00D1124EB51FE4F038D148DA09158034B
:104DF000B0E00E94E13124E630E040E050E00E9463
:104E0000C23169017A01B801110F880B990B0E9418
:104E100041332AE939EC4CEC54E40E9497329B016F
:104E2000AC016AA57BA58CA59DA50E942532A60193
:104E30000E949F14092E000CAA0BBB0B480E591E92
:104E40006A1E7B1E41C00E944D139B01AC018EE186
:104E50006A897B89869FF001879FF00D1124EB51B1
:104E6000FE4F838D948DBC01990F880B990B2FAF4A
:104E700023963FAF239721964FAF219722965FAF9E
:104E800022970E9441332FAD23963FAD2397219661
:104E90004FAD219722965FAD22970E9497320E94D4
:104EA00009330E943D069B01AC01A0915C03B0E078
:104EB0000E94E13124E630E040E050E00E94C2313F
:104EC000421A530A640A750A0E94BC190091B5017E
:104ED0001091B6012091B7013091B801DC01CB01EE
:104EE000801B910BA20BB30BEE8DFF8D8083918302
:104EF000A283B3830E8D1F8D0C5F1F4F1F8F0E8FEC
:104F00002A893B892B30310509F0FBC803C0412CAD
:104F1000512C32011091870311FF39C00E944D13AB
:104F20009B01AC01E0915A0367E471E0E69FC00188
:104F3000E79F900D1124BC0180E090E02FAF2396F5
:104F40003FAF239721964FAF219722965FAF2297CD
:104F50000E9441332FAD23963FAD239721964FAD4D
:104F6000219722965FAD22970E9497320E940933C3
:104F7000AB016AA57BA58CA59DA50E946806092E9C
:104F8000000CAA0BBB0B480E591E6A1E7B1E12FF9B
:104F900039C00E944D139B01AC01E091590367E4B5
:104FA00071E0E69FC001E79F900D1124BC0180E0F5
:104FB00090E02FAF23963FAF239721964FAF2197D5
:104FC00022965FAF22970E9441332FAD23963FADCB
:104FD000239721964FAD219722965FAD22970E948D
:104FE00097320E940933AB016AA97BA98CA99DA9BC
:104FF0000E942015092E000CAA0BBB0B480E591E4F
:105000006A1E7B1E13FF39C00E944D139B01AC0129
:10501000E091580367E471E0E69FC001E79F900DBF
:105020001124BC0180E090E02FAF23963FAF23977F
:1050300021964FAF219722965FAF22970E9441336E
:105040002FAD23963FAD239721964FAD2197229602
:105050005FAD22970E9497320E940933AB016AA587
:105060007BA58CA59DA50E949F14092E000CAA0B60
:10507000BB0B480E591E6A1E7B1E40919003509137
:1050800091036091920370919303809188039091B2
:105090008903A0918A03B0918B03CC24DD2476018F
:1050A000C41AD50AE60AF70A8C159D05AE05BF0598
:1050B00034F0481759076A077B070CF045C0B7FD65
:1050C00005C0841B950BA60BB70B04C0840F951F5E
:1050D000A61FB71F8093880390938903A0938A0328
:1050E000B0938B030E944D139B01AC0160E07EEFF7
:1050F0008FEF96E40E9497326B017C016091570319
:1051000070E080E090E00E9441339B01AC01C70158
:10511000B6010E94F63320E030E048EC52E40E94F1
:1051200097320E9409336B017C0160918803709172
:10513000890380918A0390918B03A6010E945B14DE
:10514000460E571E681E791EA091B401B0E0A3015F
:1051500092010E94E13124E630E040E050E00E94FC
:10516000C231CA01B9010E943D066B017C0114FFE6
:1051700004C00E94C9160E946E16C0926903D092A4
:105180006A03E0926B03F0926C0360918C03709160
:105190008D0380918E0390918F030E9441336B01A8
:1051A0007C0160914D0370914E0380914F0390916B
:1051B00050030E9441339B01AC0160E07FEF8FE719
:1051C00097E40E9497329B01AC01C701B6010E948F
:1051D000F6330E9409332B013C01611570488105AB
:1051E000910534F044244A94EFE75E2E612C712C33
:1051F000411440E854064FEF6406740634F4412C21
:1052000070E8572E66246A94762C40928C03509254
:105210008D0360928E0370928F0389E693E00E9463
:10522000241082E10E94461990937A0380937903B7
:1052300083E10E944619909374038093730384E181
:105240000E94461990936E0380936D03109168033A
:1052500080916703181741F1612F70E080E090E0C2
:105260000E943F3320E030E040E85EE30E94F633E6
:105270009B01AC0160938F04709390048093910420
:105280009093920460E070E080E89FE30E94973280
:105290006093930470939404809395049093960480
:1052A000109367030E94D8180E94BB174091C10455
:1052B0005091C204A0E0C12CD12C76012A2F30E0FD
:1052C000241735078CF4220F331F220F331FF901E7
:1052D000E457FB4F0385148525853685C00ED11E06
:1052E000E21EF31EAF5FEACFD701C6010090AF0404
:1052F00004C0B595A795979587950A94D2F78093A2
:10530000C3049093C404A093C504B093C604009151
:105310009F041091A0042091A1043091A204BC012B
:10532000CD01601B710B820B930B0E9441332091C6
:1053300093043091940440919504509196040E94F6
:10534000F6330E9409336A8B7B8B8C8B9D8B00918B
:1053500065031091660380917B0390917C03800F1D
:10536000911F6C01E12CF12CCE8EDF8EE8A2F9A208
:10537000C0907503D0907603C00ED11EE12CF12CA5
:105380002091730330917403C901330FAA0BBB0B37
:105390009C01AD012C193D094E095F09AFEFBFE03B
:1053A0000E94E1312091770330917803201B310B6B
:1053B0004901A12CB12CA50194012C193D094E09DC
:1053C0005F090E94C2312E8B3F8B488F598F80908E
:1053D0006F0390907003800E911EA12CB12C209130
:1053E0006D0330916E03C901330FAA0BBB0B9C01F7
:1053F000AD01281939094A095B09AFEFBFE00E94E6
:10540000E1312091710330917203201B310B40E098
:1054100050E0281939094A095B090E94C231490143
:105420005A012091790330917A03032E000C440B2A
:10543000550BCE8CDF8CE8A0F9A02C193D094E0944
:105440005F09AFEFBFE00E94E13120917D03309111
:105450007E03201B310B890120E030E0A901980177
:105460002C193D094E095F090E94C231211500E146
:10547000300714F02FEF3FE037FF02C020E030E0AC
:1054800030937A0320937903CE88DF88C11410E12A
:10549000D10624F0CC24CA944FE0D42ED7FE02C00B
:1054A000C12CD12CD0927403C09273038401811457
:1054B00040E1940614F00FEF1FE017FF02C000E078
:1054C00010E010936E0300936D038091630390913D
:1054D0006403A0E0B0E04A895B896C897D89481744
:1054E00059076A077B074CF410927F0310928003E0
:1054F000109281031092820310C04A895B896C89E3
:105500007D89481B590B6A0B7B0B40937F0350939B
:105510008003609381037093820340917F035091D5
:10552000800360918103709182034115510581E0F0
:105530006807710524F04FEF5FEF60E070E077FFE0
:1055400003C040E050E0BA0140937F0350938003D2
:1055500060938103709382038FB182958F7091E085
:10556000892790E0A0E0B0E081709927AA27BB27A7
:10557000799B8260789B84604E9B88604F9B8061A2
:10558000669B80621C9B8064E82FEF70E13081F0A5
:10559000E23081F0E43081F0E83081F0E33081F0F6
:1055A000E63081F0E93081F0EC3081F0E0E00FC0CE
:1055B000E1E00DC0E3E00BC0E5E009C0E7E007C0B3
:1055C000E2E005C0E4E003C0E8E001C0E6E0807787
:1055D0008E2B80935F0390936003A0936103B0933D
:1055E0006203F201F058E983FA834B835C832D83D5
:1055F0002C2D2295207F232B2E8324E0D694C79434
:105600002A95E1F7CF820887282F2295207F212B2A
:10561000298734E0B695A795979587953A95D1F760
:105620008A871B861C864CE050E0BE016F5F7F4F6F
:1056300084E00E94970A8091CF049091D004A091B9
:10564000D104B091D20480319742A105B10508F48C
:1056500063C58EE794E00E944A0D181619060CF0F7
:105660004BC58EE794E00E94100DE82F8FE98E0F56
:105670008A3108F4E0528E2F90E0FC01E154F109E8
:10568000EA31F10508F038C5ED59FF4F0C94173594
:105690008091B2019091B3010E94031780E20E94B1
:1056A00063168091B4010E94091780E20E9463167C
:1056B00080915A030E94091780E20E94631680912C
:1056C00058030E94091780E20E94631680915D03CF
:1056D0000E94091780E20E94631680915C030E9479
:1056E000091780E20E94631680915B030E940917EC
:1056F00080E20E946316809159030E94091780E29C
:105700000E94631680915E030E94091780E20E9446
:105710006316809157030E94091780E20E94631666
:105720006091B0017091B10180E090E04AE00E9488
:105730007C1680E20E946316809168030E9409171C
:1057400080E20E946316809187030E94091780E21D
:105750000E9463166091AE017091AF0180E090E00D
:105760004AE00E947C1680E20E9463166091530317
:105770007091540380915503909156030E94C9166D
:1057800080E20E9463166091AD0170E060C283E91F
:1057900091E00E9410178AEF90E00E94031788E9B9
:1057A00091E00E9410178AE991E00E9410178CE99D
:1057B00091E00E9410178EE991E00E9410179CC49E
:1057C0008091DB04082E000C990B94C4F894C090CF
:1057D0007904D0907A04E0907B04F0907C04789473
:1057E0008091AE019091AF012091B0013091B10153
:1057F000821B930B9695879596958795A0E0B0E0D0
:1058000089839A83AB83BC83CE0101960E942410C6
:10581000D701C6011EEFF8948090790490907A0425
:10582000A0907B04B0907C04789488159905AA0513
:10583000BB0554F46CE271E080E090E00E949619A0
:105840001150D501C40139F719821A821B821C82BA
:10585000CE0101960E94241080914D0390914E0339
:10586000A0914F03B0915003F894809379049093E2
:105870007A04A0937B04B0937C047894C814D90470
:10588000EA04FB0411F482E001C081E08093DB04B0
:105890002FC40E941217611101C061E06093680378
:1058A00027C4F8944090790450907A0460907B0467
:1058B00070907C0478948091900390919103A091D2
:1058C0009203B0919303481A590A6A0A7B0A80919D
:1058D000D7049091D804A091D904B091DA04480E6D
:1058E000591E6A1E7B1E0E941217643071058105C5
:1058F00091057CF06B017C01613C77428940910508
:105900006CF010ECC12E17E2D12E19E0E12EF12C33
:1059100005C0B4E0CB2ED12CE12CF12CC982DA8267
:10592000EB82FC826091B2017091B301072E000CF2
:10593000880B990B0E9441334B015C01C301B201FA
:105940000E944133A50194010E94F6332B013C01D2
:1059500060914D0370914E0380914F0390915003DD
:105960000E9441339B01AC01C301B2010E949732F6
:105970002B013C01C0925303D0925403E092550393
:10598000F0925603C701B60191C0809190039091A7
:105990009103A0919203B0919303F89480937904BA
:1059A00090937A04A0937B04B0937C04789453C1C1
:1059B000F8948090790490907A04A0907B04B09041
:1059C0007C0478948091900390919103A09192032C
:1059D000B0919303881A990AAA0ABB0A8091D70446
:1059E0009091D804A091D904B091DA04880E991E40
:1059F000AA1EBB1E0E9412176E317105810591050A
:105A000074F06B017C01693077408105910564F089
:105A1000A8E0CA2EA7E0DA2EE12CF12C05C0FEE1A9
:105A2000CF2ED12CE12CF12CC982DA82EB82FC82C0
:105A3000C501B4010E9441334B015C016091B20188
:105A40007091B301072E000C880B990B0E94413313
:105A50009B01AC01C501B4010E94F6334B015C010E
:105A600060914D0370914E0380914F0390915003CC
:105A70000E9441339B01AC01C501B4010E949732E1
:105A80002B013C01D092B301C092B201B601DD0CF2
:105A9000880B990B0E9441334B015C0160915303C9
:105AA0007091540380915503909156030E944133A5
:105AB00020E030E044EB53E40E949732A5019401CA
:105AC0000E94F6330E94093360934D0370934E0396
:105AD00080934F03909350036B017C01F594E794FE
