:100000000C9438040C9460040C9460040C94200844
:100010000C94FC070C9460040C9460040C94600431
:100020000C9460040C9460040C943F0B0C94E20854
:100030000C9460040C9460040C9460040C946004B0
:100040000C9460040C9460040C9460040C946004A0
:100050000C9460040C9460040C9460040C9496213D
:100060000C9460040C9460040C9460040C94600480
:100070000C9460040C9460040C9460040C94600470
:100080000C9460040C9460040C9460040C94600460
:100090000C94E0210C9460040C9460040C946004B3
:1000A0000C9460040C9460040C946004FF309F2C4A
:1000B0005B2D6332472ED231702DCC2E63326332EA
:1000C0006332633263326332A72C6D2D63329C2C12
:1000D000962C6332032C7F2C772E6332C22F6D2D2A
:1000E000E32EFD2E172F312F4B2F652F7D2F6332DF
:1000F0006332633263326332633263326332633258
:100100006332B32FD92FF32F0D30273041305B30BE
:1001100075308F30633263326332633263326332FD
:10012000633263326332A93021322932F131F9313D
:1001300063320132E9316332193231326332633270
:100140001132633263326332633263320932260F13
:10015000290F1C0F200F4A0F4A0F4A0F2D0F310F86
:10016000350F3B0F3F0F4A0F450F6F12FF123C1424
:100170009C131F15D7163E1674176F18A218D518A2
:1001800045191019121C171C1C1C261C701C701CF5
:10019000701C301C3A1C441C4E1C5B1C701C631CE5
:1001A00005A84CCDB2D44EB93836A9020C50B9913D
:1001B0008688083CA6AAAA2ABE000000803F00004C
:1001C0000000000000002A2B2800000000000000B2
:1001D00000000000000000000000000000002C9E55
:1001E000B4A0A1A2A434A6A7A5AE362D3738271EE9
:1001F0001F20212223242526B333B62EB7B89F848F
:1002000085868788898A8B8C8D8E8F909192939426
:1002100095969798999A9B9C9D2F3130A3AD350464
:1002200005060708090A0B0C0D0E0F101112131406
:1002300015161718191A1B1C1DAFB1B0B500080B05
:100240000002020201000904000001020200000590
:1002500024001001052401010104240206052406DE
:1002600000010705810310004009040100020A0093
:10027000000007050202400000070583024000005D
:10028000090402000203000000092101010001220B
:10029000E104070584034000010705050340000150
:1002A00005010904A10185040901A1000930170015
:1002B00000000027FFFF0000350047FFFF0000752A
:1002C0001095018102093116000027FFFF0000355B
:1002D0000047FFFF000075109501810209321600EA
:1002E0000027FF0F0000350047FF0F0000750C9539
:1002F000018102093316000027FF0F000035004777
:10030000FF0F0000750C95018102093416000027CB
:10031000FF0F0000350047FF0F0000750C950181AD
:10032000020939150125083500463B0165145500C1
:100330007504950181020509150025015500650028
:100340001901291875019518810285F10901150017
:1003500026FF00953F7508918285F20901953F754A
:10036000088182C0050F0992A1028502099F09A098
:1003700009A409A509A61500250135004501750147
:100380009505810295038103099415002501350027
:1003900045017501950181020922150125283501C4
:1003A0004528750795018102C00921A1028501092F
:1003B0002215012528350145287508950191020966
:1003C00025A1020926092709300931093209330913
:1003D000340940094109420943250B1501350145FE
:1003E0000B750895019100C009500954150027FFAD
:1003F000FF0000350047FFFF000066011055FD7546
:10040000109502910255006600000952150026FF62
:100410007F350046FF7F7510950191020953150144
:100420002508350145087508950191020955A10275
:100430000501093009311500250175019502910268
:10044000C0050F095695019102950591030957A121
:10045000020B01000A000B02000A0066140055FEA0
:10046000150026FF7F3500479F8C00007510950111
:1004700091025500660000C0050F09A766011055DE
:10048000FD150027FFFF0000350047FFFF00007546
:1004900010950191026600005500C0050F095AA190
:1004A0000285020922150125283501452875089580
:1004B000019102095B095D150026FF00350046FF2A
:1004C0007F750895029102095C095E66011055FD71
:1004D00026FF7F46FF7F751095029102660000554A
:1004E00000C0095FA10285030922150125283501F5
:1004F000452875089501910209231500250135004D
:1005000045017504950191020958A1020B01000AE9
:10051000000B02000A00750295029102C0096016E4
:10052000008026FF7F36008046FF7F751095019181
:1005300002096136008046FF7F9501910215002671
:10054000FF7F350046FF7F09637510950191020911
:1005500065150026FF0046FF7F750895019102C0D2
:10056000096EA102850409221501252835014528B7
:100570007508950191020970150026FF7F35004628
:10058000FF7F751095019102096F16008026FF7F8D
:1005900036008046FF7F950191020971150026FF04
:1005A00000350046670166140055007508950191F5
:1005B00002097227FFFF000047FFFF0000660110DD
:1005C00055FD7510950191026600005500C0097334
:1005D000A102850509221501252835014528750840
:1005E00095019102097016018026FF7F3601804631
:1005F000FF7F751095019102C00974A1028506095B
:100600002215012528350145287508950191020913
:100610007509761581257F36018046FF7F7508951F
:10062000029102C0050F0977A102850A092215016E
:100630002528350145287508950191020978A10200
:100640000979097A097B150125037508950191003F
:10065000C0097C150026FF00350046FF009102C04E
:100660000990A102850B092215012528350145288D
:10067000750895019102C00996A102850C09970998
:10068000980999099A099B099C15012506750895F1
:10069000019100C0097DA102850D097E150026FF8C
:1006A000003500461027750895019102C009ABA1DD
:1006B0000285050925A10209260927093009310902
:1006C000320933093409400941094209431501251A
:1006D0000B3501450B75089501B100C00501093BBB
:1006E000150026FF01350046FF01750A9501B1028C
:1006F0007506B101C0050F0989A1028506092225E9
:100700002815013501452875089501B102098BA10D
:1007100002098C098D098E250315013501450375E4
:10072000089501B100C009AC150027FFFF00003596
:100730000047FFFF000075109501B100C0097FA1BF
:10074000028507098075109501150027FFFF00003D
:10075000350047FFFF0000B102098326FF0046FF76
:100760000075089501B10209A909AA75019502153C
:1007700000250135004501B10275069501B103C0A0
:10078000C01803410072006400750069006E006FBC
:100790000020004C004C00430004030904220341E4
:1007A0000072006400750069006E006F0020004C4C
:1007B0000065006F006E006100720064006F00123F
:1007C00001000200000040412336800001010200C8
:1007D00001120100020200004041233680000101A5
:1007E00002000100C18081C1C00000000025002876
:1007F000002B002E0031000404040404030405024D
:1008000002020204030202020206060606060604AB
:100810000402020204040408020110408040102077
:1008200040804080080204018040201002011080B6
:1008300010204040200000000200080E00000304C9
:1008400001000B000000000000000000000000009C
:1008500000000000070605040100080A0B0C0D0942
:1008600000000000240027002A002D0030007D3207
:1008700011241FBECFEFDAE0DEBFCDBF11E0A0E054
:10088000B1E0E4E2FDE602C005900D92A23AB107A4
:10089000D9F725E0A2EAB1E001C01D92AE34B2075B
:1008A000E1F714E0C8E3D4E004C02197FE010E9400
:1008B0007E36C733D107C9F70E94EA230C949036DD
:1008C0000C940000CF92DF92EF92FF926091B10101
:1008D0007091B201072E000C880B990B0E94A8346E
:1008E0006B017C016091B2037091B3038091B403FA
:1008F0009091B5030E94A8349B01AC01C701B601D9
:100900000E94FE33FF90EF90DF90CF9008958C30DF
:10091000F8F4282F30E09DE1899FF0011124EC5A72
:10092000FD4F90819923A1F090819D7F9083F901E3
:10093000EC5FFD4F958191110BC0E091A301F09107
:10094000A4010084F185E02D099510921402089508
:100950000895FC01CB012091E80022FFFCCF282F55
:10096000215028F03091F10030833196F9CF24E600
:100970002093F8012BEF2093E80008950F931F9325
:10098000CF93DF93DB01A40FB51FFB016EEFEA17D6
:10099000FB0791F187FF02C0249101C020810091E3
:1009A000FC011091FD01C091FA01D091FB010C17DF
:1009B0001D07B4F49091E8009570E1F39091E80080
:1009C00092FD1CC02093F1002091FC013091FD01AB
:1009D0002F5F3F4F2F733327232B11F46093E800D1
:1009E0002091FC013091FD012F5F3F4F3093FD01BD
:1009F0002093FC013196CBCFCA0102C08FEF9FEF4D
:100A0000DF91CF911F910F910895CF93DF9300D085
:100A100000D01F92CDB7DEB7FC0181819081913A61
:100A200029F5813009F0BCC08281863051F445E05F
:100A300050E06FEF71E080E40E94BE041092FF016D
:100A4000AFC0873009F0ACC089838FEF9FEF9B83E5
:100A50008A838BE08C8383E08D8345E050E0BE0188
:100A60006F5F7F4F80E40E94BE049AC0913209F00C
:100A700097C0893009F094C08281853009F090C018
:100A800064E070E0CE0101960E94A90486E08093A4
:100A9000FF0180910F018B3021F1A0910F0181E0C6
:100AA0008A0F80930F019DE1E0910F019E9FF0015D
:100AB0001124EC5AFD4F8081882351F080910F0161
:100AC0008B3030F480910F018F5F80930F01ECCF5A
:100AD0008DE1A89FF0011124EC5AFD4F81E0808345
:100AE00001C0A0E0A0930002A11104C082E08093A5
:100AF000010250C01092680481E0809301028A8153
:100B00009DE1A99FD0011124AC5ABD4F11968C9341
:100B100011978FEF9FEF1F969C938E931E9753967E
:100B20001C921E92529751961C921E9250971296AA
:100B30008C93129713968C93139755961C921E9232
:100B400054971D961C921E921C9715961C921597F1
:100B50008FEF9FE719969C938E93189757961C9248
:100B60001E9256975B961C921E925A975C961C9208
:100B70005C9788EE93E01B969C938E931A97E09176
:100B8000A301F091A4010684F785E02DBD01CE01FB
:100B9000019609958FEF9FEF9093030280930202D5
:100BA00081E00F900F900F900F900F90DF91CF91F9
:100BB000089542E450E06EE372E080E80E94BE04D3
:100BC00040E250E060E872E080E80E94BE0483E00A
:100BD00090E00895EF92FF921F93CF93DF93EC0183
:100BE000162FE881F9810480F581E02D09957C01BB
:100BF000E881F9810680F781E02D612FCE0109950A
:100C0000C7019927DF91CF911F91FF90EF90089531
:100C1000FC0191818081813A29F49D7F81E09130AE
:100C200091F414C0813279F49A3049F09B3019F074
:100C3000993049F40AC0828180930E0106C08281F6
:100C400080930D0102C080E0089581E008958C300A
:100C5000F0F49DE1899FF0011124EC5AFD4F808151
:100C60008823A9F0808182608083809114028111A1
:100C70000EC00E948A2160931A0270931B02809317
:100C80001C0290931D0281E0809314020895089540
:100C9000CF92DF92EF92FF920F931F938B019C01F3
:100CA0004091B8035091B9036A01E12CF12C6627F9
:100CB0007727CB016C197D098E099F090617170745
:100CC000280739074CF0C901B801C016D106E20661
:100CD000F30614F4C701B6011F910F91FF90EF9036
:100CE000DF90CF9008958F929F92AF92BF92CF9254
:100CF000DF92EF92FF92CF93DF934B015C01EA0109
:100D00000E9462046B017C01DE01A50194010E9436
:100D100053330E94A834A70196010E945D3520E05C
:100D200030E040E051E40E945D3520E030E040E2F8
:100D300051E40E945D3520E030E040E85BE30E9432
:100D40005D350E9470340E9448069095809570959C
:100D500061957F4F8F4F9F4FDF91CF91FF90EF9025
:100D6000DF90CF90BF90AF909F908F9008954F925B
:100D70005F926F927F928F929F92AF92BF92CF922B
:100D8000DF92EF92FF92CF93DF9300D000D0CDB7E8
:100D9000DEB74B015C0157FF02C04D5F5F4F6A0138
:100DA000D594C794D594C7940E94620469837A83CA
:100DB0008B839C839B01AC01C501B4010E945D350E
:100DC00020E030E040E251E40E945D352B013C011F
:100DD00020E030E040E85FE30E9458350D2C000C25
:100DE000EE08FF0818161CF4C701B60128C020E061
:100DF00030E040E85FEBC301B2010E94F93387FFA6
:100E000006C0C701B6010E944806CB011EC0C7013B
:100E1000B6010E94A8349B01AC01C501B4010E9437
:100E20005D3529813A814B815C810E945D3520E0EE
:100E300030E040E251E40E945D350E9470340E942F
:100E4000480688279927861B970B0F900F900F90C5
:100E50000F90DF91CF91FF90EF90DF90CF90BF90F8
:100E6000AF909F908F907F906F905F904F9008957C
:100E70008F929F92AF92BF92CF92DF92EF92FF92AA
:100E80004B015C01BA01550F880B990B0E94A834E5
:100E90006B017C0120E030E0A901C501B4010E9492
:100EA0005835A501940118160CF05058C701B60129
:100EB0000E945D356B017C010E9462049B01AC01C4
:100EC000C701B6010E945D3520E030E040E851E402
:100ED0000E945D3520E030E040E251E40E945D3543
:100EE00020E030E040E05DE30E945D350E94703418
:100EF0000E9448066B017C0120E030E0A901C50199
:100F0000B4010E94583518162CF4882799278C199B
:100F10009D090DC020E030E0A901C501B4010E9487
:100F2000F93387FF02C0C60102C080E090E0FF9065
:100F3000EF90DF90CF90BF90AF909F908F900895EB
:100F4000CF92DF92EF92FF92CF93DF936B017C0100
:100F5000EA0120E030E0A9010E945835181694F00B
:100F600020E030E0A901C701B6010E94F93387FFF4
:100F70003AC020E030E0A901C701B6010E948D33DC
:100F80006B017C01BE01DD0F880B990B0E94A83418
:100F90009B01AC01C701B6010E945D356B017C016C
:100FA0000E9462049B01AC01C701B6010E945D353D
:100FB00020E030E040E851E40E945D3520E030E080
:100FC00040E251E40E945D3520E030E040E05BE328
:100FD0000E945D350E9470340E9448068827992738
:100FE000861B970B02C080E090E0DF91CF91FF90CD
:100FF000EF90DF90CF9008951F920F920FB60F924F
:1010000011242F933F934F935F936F937F938F930D
:101010009F93AF93BF93EF93FF930E945E0FFF9157
:10102000EF91BF91AF919F918F917F916F915F9160
:101030004F913F912F910F900FBE0F901F901895D9
:101040001F920F920FB60F9211242F933F934F933D
:101050005F936F937F938F939F93AF93BF93EF9320
:10106000FF930E945E0FFF91EF91BF91AF919F910F
:101070008F917F916F915F914F913F912F910F9041
:101080000FBE0F901F901895CF92DF92EF92FF92B4
:101090000F931F93CF93DF931F92CDB7DEB7F82E38
:1010A000E42E8B01C82ED92E8C2D8F198E1588F425
:1010B000F80161918F01C60169830E941333698130
:1010C000681719F0C6010E941B33FFEFCF1ADF0A21
:1010D000EBCF0F90DF91CF911F910F91FF90EF9089
:1010E000DF90CF900895CF92DF92EF92FF920F930F
:1010F0001F93CF93DF931F92CDB7DEB78B016B01A8
:101100007C01E61AF70A9C2D901B941758F4C7012E
:101110008C0D9D1D49830E941333F60181936F014D
:101120004981F1CF0F90DF91CF911F910F91FF90E7
:10113000EF90DF90CF9008958F929F92AF92BF92E1
:10114000CF92DF92EF92FF9240E050E020E0682FD4
:1011500070E0812C912C54018394FA013296DB01CA
:1011600002C0B595A795EA95E2F775016401042ED2
:1011700004C0CC0CDD1CEE1CFF1C0A94D2F7A0FFAF
:1011800002C02C2902C0C0942C214F5F5F4F443015
:10119000510519F730E0220F331FF901EC5CFE4FC7
:1011A00080FF05C0808191819695879502C08081DE
:1011B0009181FF90EF90DF90CF90BF90AF909F9084
:1011C0008F9008951F920F920FB60F921124EF92F5
:1011D000FF921F932F933F934F935F936F937F9350
:1011E0008F939F93AF93BF93EF93FF93CF93DF932F
:1011F000CDB7DEB76197DEBFCDBF1092E900809119
:10120000E80083FF59C1FE013A96CF0128E02E0F76
:101210002E1729F03091F10030833196F9CF24E672
:101220002093F80122EF2093E8002A8527FF05C0CC
:101230003091E80030FFFCCF03C03EEF3093E80070
:10124000322F307609F0C5C08B85811105C0109210
:10125000F1001092F10029C1982F9D7F913009F47F
:1012600024C1853049F48091E80080FFFCCF8C8553
:1012700080688093E30019C1863009F07CC01D8529
:10128000E888F9881092E9001092FD011092FC01A3
:10129000123091F51092FB011092FA010E94D905CB
:1012A00099E0BE016F5F7F4FFB01292F11922A95B4
:1012B000E9F799831A8391E09E8390E898879AEFE3
:1012C00099872091FC013091FD01275F3F4F3C83BE
:1012D0002B838D831092E9001092FD011092FC0186
:1012E000F092FB01E092FA0149E050E080E00E94B8
:1012F000BE040E94D905D9C0F092FB01E092FA0128
:10130000123259F441EE54E060EA72E080E80E9443
:10131000BE04892B09F0C9C0CCC0113069F488899A
:101320009989089711F41093F9018091F9018111BD
:1013300011C06FEB77E016C0133009F0BAC08C858E
:10134000882359F0823061F0813009F0B2C061E841
:1013500077E008C061ED77E005C069E977E002C099
:101360006DE977E06115710509F4A3C0FB014491B3
:1013700050E080E849C0873009F49BC0883021F4F0
:1013800081E08093F10091C0893009F08EC0237014
:1013900009F08FC080E090E031E026E341E0480FA3
:1013A0004093E9003093EB000196FC01ED51F84FBA
:1013B000E491E093EC002093ED008530910571F706
:1013C0008EE78093EA001092EA008C858093A20158
:1013D0006CC0288939891092E9001092FD011092A1
:1013E000FC013093FB012093FA012E85211154C09A
:1013F0008B859A85913A59F4813209F05AC047E0B9
:1014000050E060E171E080E00E94BE044EC0913285
:1014100009F04FC0803239F467E070E080E191E07C
:101420000E94A90442C0823209F043C08C85809397
:1014300017018091100190911101A0911201B091BA
:101440001301803B9440A105B10579F58091170106
:1014500080FD11C087E797E790930108809300080B
:101460009BE088E10FB6F894A895809360000FBECA
:10147000909360001AC00FB6F894A8958091600010
:10148000886180936000109260000FBEA895109252
:1014900001081092000809C0223059F4E091690453
:1014A000F0916A040995882321F08EEF8093E8007B
:1014B00003C081E28093EB0061960FB6F894DEBF23
:1014C0000FBECDBFDF91CF91FF91EF91BF91AF9153
:1014D0009F918F917F916F915F914F913F912F914C
:1014E0001F91FF90EF900F900FBE0F901F901895D7
:1014F0008F929F92AF92BF92CF92DF92EF92FF9224
:101500000F931F93CF93DF9300D01F92CDB7DEB719
:10151000382F8B018091A201882389F04A018AEF3C
:10152000F82E832F8770E82E90E4C92E832F8072C7
:10153000B82E2AE3D22E832F8074A82E21C08FEFDD
:101540009FEF5FC08FB7F894E092E9009091E800B8
:1015500095FF1AC09091F2002C2D291B8FBF2111ED
:1015600015C0FA94FF2059F361E070E080E090E04C
:1015700039834A835B830E94642139814A815B817C
:1015800081149104F9F634C020E0E8CF822F90E076
:10159000881699060CF4282D822F90E0881A990A53
:1015A0006FB7F894E092E900BB2029F02150A8F031
:1015B0001092F100FBCFF80137FF07C0215058F01F
:1015C00074917093F1003196F9CF215020F0719110
:1015D0007093F100FACF080F191F8091E80085FF82
:1015E0000DC08114910411F4A11008C06FBFC8CFC1
:1015F0005D9884E68093FE01CA0103C0D092E800A2
:10160000F5CF0F900F900F90DF91CF911F910F9119
:10161000FF90EF90DF90CF90BF90AF909F908F9012
:1016200008959091A201992311F057FF03C08FEF05
:101630009FEF08952FB7F89487708093E900809109
:10164000F20090E0841795070CF4AC01842FFB01A5
:1016500094E6815030F09093F8013091F10031938D
:10166000F8CF4115510521F08091F200882319F03F
:101670002FBFCA0108958BE68093E800F9CF1F922F
:101680000F920FB60F9211242F933F934F935F93B6
:101690006F937F938F939F93AF93BF93EF93FF933A
:1016A000CF93DF93CDB7DEB7C054D109DEBFCDBF36
:1016B0008091E1001092E10083FF0FC01092E900D9
:1016C00091E09093EB001092EC0092E39093ED0088
:1016D0001092A20198E09093F00082FF46C083E050
:1016E0008093E9008091F200882319F08AE38093C7
:1016F000E8009FB7F89482E08093E9008091F200BF
:101700009FBF882321F081EC93E00E949D209FB72A
:10171000F89485E08093E9008091F2009FBF8823D0
:10172000C1F080916B0490916C04892B91F040E49E
:1017300050E0BE016F5F7F4F85E00E94110B97FD67
:1017400008C0E0916B04F0916C04BC01CE010196DD
:1017500009958091FE01882341F08091FE0181501E
:101760008093FE01811101C05D9AC05CDF4F0FB60E
:10177000F894DEBF0FBECDBFDF91CF91FF91EF9107
:10178000BF91AF919F918F917F916F915F914F9199
:101790003F912F910F900FBE0F901F901895EF92D1
:1017A000FF920F931F93CF93DF931F92CDB7DEB7B6
:1017B00089838B017A0141E050E0BE016F5F7F4F6A
:1017C00084E00E94780AA701B80184E40E94780AA4
:1017D0000F90DF91CF911F910F91FF90EF9008959F
:1017E0001F93CF93DF93EC0119819881953009F411
:1017F0005DC058F59230D1F1A8F4913009F03FC2A4
:10180000E091A301F091A4012DE1129FB0011124F8
:101810006C5A7D4F028CF38DE02DCE01DF91CF917C
:101820001F910994933081F1943009F028C2E0911E
:10183000A301F091A401ADE11A9FB00111246C5AEB
:101840007D4F0488F589E02D2CC09B3009F493C0AE
:1018500030F49630C9F19A3009F444C010C29C307B
:1018600009F4C2C0913F09F411C109C2E091A3017A
:10187000F091A4013DE1139FB00111246C5A7D4FFA
:101880000088F189E02D0DC0E091A301F091A40141
:101890008DE1189FB00111246C5A7D4F0288F389A5
:1018A000E02DCE01DF91CF911F910994E091A3012A
:1018B000F091A401BDE11B9FB00111246C5A7D4F32
:1018C0000688F789E02DEDCFE091A301F091A40106
:1018D0002DE1129FB00111246C5A7D4F008CF18DC7
:1018E000E02DDFCF1F3F09F41FE79A81913099F473
:1018F000812F0E942706E12FF0E0EC5FFD4F8581EC
:101900008111BDC1E091A301F091A4010680F7818E
:10191000E02D812F47C0923029F5C1E08C2F0E9425
:101920008704CF5FCC30D1F7C12FD0E0CC5FDD4F43
:101930008D81811109C0E091A301F091A40100847F
:10194000F185E02D8FE70995812F0E9427068D8173
:10195000811195C1E091A301F091A4010680F78166
:10196000E02D1FC0933009F08AC1812FDF91CF9104
:101970001F910C94870481E01F3FC1F480930F01F5
:101980008CE591E0E4E5F2E0DF019C011D9221503D
:101990003040E1F7E091A301F091A4010284F385C6
:1019A000E02D8FE7DF91CF911F9109948093680418
:1019B0001C3008F064C13DE1139FF0011124EC5A82
:1019C000FD4F108280910F01181710F410930F0132
:1019D000E091A301F091A4010284F385E02D812F11
:1019E0000995109214024BC182E0809315029091E8
:1019F0001602946090931602909116029061909353
:101A00001602109217021330C1F048F4113089F019
:101A1000123009F034C180911602826034C0153052
:101A200079F1B8F0163009F02AC1809116028E7F44
:101A30002AC0809116028D7F26C0E091A301F0910B
:101A4000A4010480F581E02D80E009951092170231
:101A500016C1E091A301F091A4010480F581E02D6D
:101A600081E0099581E080930F018CE591E0E4E548
:101A7000F2E0DF019C011D9221503040E1F7FFC0F0
:101A800080911602816080931602F9C08E898130A0
:101A900009F0ADC0A981BA81AE31B1053CF0A930E1
:101AA00037E0B3072CF0A8E0B7E002C0AEE1B0E049
:101AB0002091AC013091AD014091AE015091AF0148
:101AC0000E94533328E631E040E050E00E94293381
:101AD0002093B2033093B3034093B4035093B50300
:101AE000CA01B90122E030E040E050E00E94293311
:101AF0002093220230932302409324025093250224
:101B00008D89813011F40E943D108F81893C08F04D
:101B100088EC809318028885893C08F088EC8093D3
:101B200027028985893C08F088EC809320028A8509
:101B3000893C08F088EC80931E028B85893C08F074
:101B400088EC809326028C85893C08F088EC809391
:101B500021028D85893C08F088EC80931F028E85D8
:101B6000893C08F088EC8093B0038F85893C08F0AD
:101B700088EC809319022A893B898091B80390915F
:101B8000B90328173907A0F437FD0AC08091A501D1
:101B90009091A60101972817390720F4C90102C0C6
:101BA00080E090E09093B7038093B60383E68E8B3A
:101BB000288939898091B6039091B70382179307DA
:101BC00008F050C083E68E8B121613064CF48091F9
:101BD000A5019091A6012817390720F4C90102C078
:101BE00081E090E09093B9038093B8033BC08F3FAE
:101BF000C9F58091B1019091B2019A838983809156
:101C0000D7039091D803A091D903B091DA038B83C5
:101C10009C83AD83BE83809118028F8380912702BD
:101C2000888780912002898780911E028A8780910F
:101C300026028B87809121028C8780911F028D87DD
:101C40008091B0038E87809119028F878091B803AD
:101C50009091B903998B888B8091B6039091B703CB
:101C60009B8B8A8B86EE90E0988F8F8B40E450E0C0
:101C7000BE0182EFDF91CF911F910C94CF0BDF91CA
:101C8000CF911F910895DC01683810F0685825C085
:101C9000E62FF0E067FF12C0E058F10981E090E024
:101CA00001C0880FEA95EAF7809514969C911497E5
:101CB000892314968C93149760E00FC0E254FE4F72
:101CC0006491662311F167FF08C014968C911497F4
:101CD0008D7F14968C9314976F77FD01369686E06E
:101CE000662321F09081961301C0108281503196B5
:101CF0008111F6CFBD016C5F7F4F48E050E082E07C
:101D00000E94CF0B81E090E0089580E090E008957C
:101D1000FC011682178210861186128613861482A1
:101D2000BC016C5F7F4F48E050E082E00C94CF0B29
:101D3000DC01683810F068582DC0E62FF0E067FF2E
:101D400011C0E058F10981E090E001C0880FEA95E8
:101D5000EAF714969C911497892B14968C931497F8
:101D600060E018C0E254FE4F6491611109C081E047
:101D700090E013969C938E93129780E090E00895E4
:101D800067FF08C014968C911497826014968C9308
:101D900014976F7716968C911697861751F11796B0
:101DA0008C911797861729F118968C91189786179A
:101DB00001F119968C9119978617D9F01A968C9182
:101DC0001A978617B1F01B968C911B97861789F08E
:101DD000FD01369680E090E02191211105C0FD01C2
:101DE000E80FF91F668305C0019686309105A1F7BB
:101DF000BECFBD016C5F7F4F48E050E082E00E94A3
:101E0000CF0B81E090E00895E2E4F8E04491E3E252
:101E1000F8E09491E4E0F8E02491222309F44DC025
:101E20004423C1F150E0FA013197EE30F10590F50D
:101E3000E955FF4F0C947E36309180003F7703C008
:101E4000309180003F7D3093800024C034B53F77CF
:101E500002C034B53F7D34BD1DC0309190003F7746
:101E600007C0309190003F7D03C030919000377FD4
:101E7000309390000FC03091C0003F7703C0309185
:101E8000C0003F7D3093C00005C03091C200377F55
:101E90003093C200E22FF0E0EE0FFF1FE751F84F42
:101EA000A591B4912FB7F894EC91811103C090954E
:101EB0009E2301C09E2B9C932FBF08959091C00339
:101EC00089B18C70892B90E09C01359527953595CB
:101ED00027952093C0034091BC035091BD036091AE
:101EE000BE037091BF03FC01E25BFE4F8081082EB0
:101EF000000C990BAA0BBB0B840F951FA61FB71FD5
:101F00008093BC039093BD03A093BE03B093BF0323
:101F10008091BB030895E091C103F091C203019049
:101F2000F081E02D682F81EC93E00994CF93DF934B
:101F30008DE00E948B0FEC018AE00E948B0F8C0FCA
:101F40009D1FDF91CF910895009769F0FC010190EA
:101F50000020E9F73197AF01481B590BBC0181EC18
:101F600093E00C94971F80E090E008958F929F92E9
:101F7000AF92BF92EF92FF920F931F93CF93DF9395
:101F8000CDB7DEB7A1970FB6F894DEBF0FBECDBFB9
:101F9000162F042F19A2423008F40AE07E0121E234
:101FA000E20EF11C802E912CA12CB12C612FA501E9
:101FB00094010E945B33029F1019112481E0E81AFA
:101FC000F1081A3014F4105D01C0195CF701108398
:101FD000122F732FCA01232B242B252B39F7C7016E
:101FE0000E94A40FA1960FB6F894DEBF0FBECDBF1E
:101FF000DF91CF911F910F91FF90EF90BF90AF9025
:102000009F908F900895CF92DF92EF92FF92CF939F
:10201000DF9397FF19C06B017C018DE20E948B0F4B
:10202000EC0166277727CB016C197D098E099F0982
:102030004AE00E94B60F8C0F9D1FDF91CF91FF9059
:10204000EF90DF90CF9008954AE0DF91CF91FF901D
:10205000EF90DF90CF900C94B60FCF93DF93BC013D
:10206000990F880B990B0E940310EC010E94960FA8
:102070008C0F9D1FDF91CF9108954F925F926F92C9
:102080007F928F929F92AF92BF92CF92DF92EF9208
:10209000FF92CF93DF93F894C090BC03D090BD0320
:1020A000E090BE03F090BF0378946091B803709104
:1020B000B9038091B6039091B703681B790B7695AD
:1020C00067957695679580E090E00E944A1B68ECE2
:1020D00070E080E090E00E94642146015701C8EE64
:1020E000D3E06091B8037091B9038091B6039091E9
:1020F000B703681B790B769567957695679580E0B1
:1021000090E00E944A1B68EC70E080E090E00E9442
:102110006421F8944090BC035090BD036090BE03CE
:102120007090BF03789484149504A604B70421F03A
:10213000219753014201A9F68091B2039091B30314
:10214000A091B403B091B503F8948093BC0390932D
:10215000BD03A093BE03B093BF03789460E070E02A
:10216000CB010E944A1BC414D504E604F70411F401
:1021700082E001C081E08093DB0381E090E0DF91A9
:10218000CF91FF90EF90DF90CF90BF90AF909F9056
:102190008F907F906F905F904F900C942D102F92A6
:1021A0003F924F925F926F927F928F929F92AF92E7
:1021B000BF92CF92DF92EF92FF920F931F93CF9334
:1021C000DF93CDB7DEB7AF970FB6F894DEBF0FBE83
:1021D000CDBF6B837C838D839E838091DC03909144
:1021E000DD03A091DE03B091DF032B813C814D81A3
:1021F0005E812093DC033093DD034093DE03509334
:10220000DF032091E403222309F44AC010910D0456
:1022100034E0139FA0011124BA0164527C4F7B016A
:102220002B813C814D815E81281B390B4A0B5B0B56
:10223000CA01B9010E94A834D70119966D937D9304
:102240008D939C931C97012FBAE0FB2E60E070E009
:10225000CB01B4E00B9FF0011124E452FC4F218527
:102260003285438554850E948D33002311F001503F
:1022700001C009E0FA94F110ECCF20E030E040E238
:1022800051E40E94FE331F5F1A3018F410930D04BE
:1022900002C010920D046D8B7E8B8F8B988F0FC0B8
:1022A00081E08093E4031092E0031092E103109226
:1022B000E2031092E3031D8A1E8A1F8A188E209162
:1022C0000E0430910F0440911004509111048D8937
:1022D0009E89AF89B88D80930E0490930F04A093CC
:1022E0001004B093110480911604882309F443C0AC
:1022F00010916704E4E01E9FB0011124CB018B51C3
:102300009C4F7C016D897E89CD010E948C33D70161
:10231000D2966D937D938D939C93D597012FA4E1D5
:10232000FA2E60E070E0CB01B4E00B9FF0011124C5
:10233000EB51FC4F22A933A944A955A90E948D3322
:10234000002311F0015001C003E1FA94F110ECCF29
:1023500020E030E040EA51E40E94FE331F5F143178
:1023600018F41093670402C0109267046D8F7E8F7B
:102370008F8F98A30FC081E08093160410921204EF
:102380001092130410921404109215041D8E1E8EC8
:102390001F8E18A280916804882309F441C08B81A4
:1023A0009C81AD81BE81B7FF07C0B095A095909587
:1023B00081959F4FAF4FBF4F0297A105B1050CF418
:1023C00087C78091B10380FF83C70E94891E9B014C
:1023D000AC0160E070E080E094E40E94FE336B01A9
:1023E0007C016091B00370E080E090E00E94A8342E
:1023F0009B01AC01C701B6010E945D3520E030E0D1
:1024000048EC52E40E94FE330E947034AB016B81B1
:102410007C818D819E810E9473062B013C015BC7EC
:10242000E8E2F2E0FC8BEB8B1A821982412C512CF2
:10243000320129813A812F5F3F4F3A8329836DE131
:10244000629FA001639F500D11248A010C5A1D4FF9
:10245000D8018C918370833009F02DC70E94891EAA
:102460006B017C01F80120853185A689B7890E941E
:1024700084362FEF3FE740E050E00E942933CA0145
:10248000B9010E94A834A70196010E94FE330E9460
:1024900070346B017C01D8011A968D919C911B9729
:1024A000059730F4E4E0F0E01B96FC93EE931A9766
:1024B0004DE129813A81429FF001439FF00D1124A3
:1024C000EC5AFD4FE1818E2F90E0FC013197ED3009
:1024D000F10508F0DAC6EB54FF4F0C947E360E94EB
:1024E000891E6F83788789879A878DE169817A81D0
:1024F000869FA001879F500D1124DA01AC5ABD4F71
:102500001D0118968D909C9019975496AD90BC9093
:1025100055971E96CD90DC901F975096ED90FC90AD
:10252000519752960D911C91539713962C91139796
:1025300012964C91129756968D919C915797EB89D4
:10254000FC89608171810E949A1E9401DC010E94C5
:1025500084362FEF3FE740E050E00E942933CA0164
:10256000B9010E94A8342F81388549855A850E9477
:10257000FE330E9470340E9448069B01AC01A0917A
:102580002702B0E00E94483324E630E040E050E00B
:102590000E942933421A530A640A750AD10115961A
:1025A0008C91159782FF71C61C966D917C911D9739
:1025B00080E090E00E94A6342BED3FE049EC50E42F
:1025C0000E945D3520E030E040E058E30E945D3538
:1025D0000E94CA359B01AC01C301B2012AA73DA7E5
:1025E0004BA75CA70E94A8342AA53DA54BA55CA5D6
:1025F0000E945D350E9470342B013C0146C60E944A
:10260000891E6F83788789879A874DE129813A816E
:10261000429FF001439FF00D1124EC5AFD4F60855D
:1026200071857C876B87A488B58886859785988B0C
:102630008F87A089B189BA8FA98F228933893DA359
:102640002CA383809280AB89BC892D903C902685F9
:1026500037853FA72EA767810681002E000C110B3E
:10266000062E000C770B601B710BCB01770FAA0BAA
:10267000BB0B6627782F892F9A2F0E94A8346B01F5
:102680007C014EA55FA5BA0180E090E00E94A634CF
:1026900020E030E04AE754E40E94FE339B01AC01A5
:1026A000C701B6010E94FE336B017C01C1016EA51A
:1026B0007FA50E946A36BC0180E090E00E94A634AB
:1026C00020E030E04AE754E40E94FE339B01AC0175
:1026D000C701B6010E945D350E947034102F00279B
:1026E000C801860F971FCF84D888E98CFA8C0CA17B
:1026F0001DA1282D492DB1010E949A1E2B853C85D4
:10270000DC010E9484362FEF3FE740E050E00E945A
:102710002933CA01B9010E94A8342F81388549851F
:102720005A850E94FE330E9470340E944806461A61
:10273000570A680A790AA9C50E94891E6F8378879B
:1027400089879A878DE169817A81869FF001879FC9
:10275000F00D1124EC5AFD4F20843184A28DB38DED
:10276000BC87AB87B48DBF87228533853A8F298F8D
:10277000A488B588C684D784E088F1880289138943
:1027800023814281AB89BC898D909C9086899789F1
:10279000B4010E949A1E8C01E98DFA8DBF0180E080
:1027A00090E00E94A63420E030E04AE754E40E9422
:1027B000FE339B01AC0160E070E080E89FE30E9483
:1027C000FE336B017C01C401698D7A8D0E946A36EB
:1027D000BC0180E090E00E94A63420E030E04AE7AF
:1027E00054E40E94FE339B01AC01C701B6010E9474
:1027F0005D356B017C01FF856F2F70E080E090E01C
:102800000E94A63420E030E040E85BE30E945D35A2
:102810009B01AC01C701B6010E948D332BED3FE057
:1028200049EC50E40E945D350E94CA359B01AC0121
:102830006B857C856B01770FEE08FF08B801110FDF
:10284000880B990B2AA73DA74BA75CA70E94A83429
:102850002AA53DA54BA55CA50E945D350E9470345C
:10286000CB01770FAA0BBB0BA7019601280F391FCD
:102870004A1F5B1FD101BDC00E94891E6F837887EC
:1028800089879A87ADE189819A81A89FF001A99FE4
:10289000F00D1124EC5AFD4F208531853C872B87A4
:1028A000228D338DA901330F660B770B4F87588B21
:1028B000698B7A8B548D598F22843384A488B58890
:1028C000C684D784E088F1880289138923814281F4
:1028D000AB89BC890D90BC91A02DBDA3ACA386890A
:1028E0009789BD010E949A1EBC01990F880B990B14
:1028F0000E94A8346B017C01B10180E090E00E944D
:10290000A63420E030E04AE754E40E94FE339B0105
:10291000AC0160E070E080E89FE30E94FE334B0171
:102920005C018CA19DA1B1010E946A36BC0180E0CE
:1029300090E00E94A63420E030E04AE754E40E9490
:10294000FE339B01AC01C501B4010E945D354B0112
:102950005C01B98D6B2F70E080E090E00E94A6349E
:1029600020E030E040E85BE30E945D359B01AC0174
:10297000C501B4010E948D332BED3FE049EC50E4DA
:102980000E945D350E94CA354B015C0120E030E0B9
:10299000A9010E94583587FF0CC020E030E0A90152
:1029A000C501B4010E94F93387FF05C0EFEFEBA327
:1029B00002C0F1E0FBA32BA1622F220F770B880B43
:1029C000990B0E94A8349B01AC01C701B6010E947B
:1029D0005D350E947034CB01770FAA0BBB0B2F859E
:1029E000388949895A89280F391F4A1F5B1FAB85CF
:1029F000BC850E9448332FEF3FE740E050E00E9443
:102A00002933CA01B9010E94A8342F81388549852C
:102A10005A850E94FE330E9470349B01AC01A09144
:102A20002602B0E00E94483324E630E040E050E067
:102A30000E942933420E531E641E751E26C40E9436
:102A4000891E6B877C878D879E876DE149815A81BE
:102A5000649FF001659FF00D1124EC5AFD4F8085B5
:102A60009185988B8F87228D338DA901330F660B4B
:102A7000770B498F5A8F6B8F7C8F348D22843384F0
:102A8000A488B588C684D784E088F1880289138930
:102A900023814281AB89BC890D90BC91A02DB88760
:102AA000AF8386899789BD013DA70E949A1E8C013C
:102AB000B10180E090E00E94A6344B015C013DA58D
:102AC00080E4830F682F70E080E090E00E94A634DD
:102AD00020E030E040E85BE30E945D35A501940111
:102AE0000E945D350E9477348F819885860F971FED
:102AF000B1010E946A369DA38CA3BC0180E090E0E6
:102B00000E94A63420E030E04AE754E40E94FE33FD
:102B10006B017C0120E030E0A9010E94583587FD5F
:102B20003CC020E030E04AE754E4C501B4010E9413
:102B3000FE336F83788789879A8720E030E040E012
:102B40005FE30E945D359B01AC01C701B6010E94A5
:102B5000F93387FF22C0B801012E000C880B990BB6
:102B60000E94A83420E030E040E850E40E945D3547
:102B70002F81388549855A850E94FE33A701960129
:102B80000E945D350E947034119501951109F8017C
:102B9000E60FF71FFAA3E9A350C020E030E04AE7B0
:102BA00054E4C501B4010E94FE334B015C0120E0F6
:102BB00030E040E05FE30E945D359B01AC01C7015E
:102BC000B6010E94583587FD38C0A5019401C701A0
:102BD000B6010E94F93387FF30C0B801012E000C06
:102BE000880B990B0E94A83420E030E040E850ECBC
:102BF0000E945D35A50194010E94FE336B017C01AA
:102C0000369427946CA17DA16219730980E090E04D
:102C10000E94A63420E030E04AE754E40E94FE33EC
:102C20009B01AC01C701B6010E945D350E94703462
:102C30009801260F371F3AA329A349A15AA1CA0117
:102C4000550FAA0BBB0B298D3A8D4B8D5C8D280F30
:102C5000391F4A1F5B1FAF85B8890E9448332FEF89
:102C60003FE740E050E00E942933CA01B9010E94C9
:102C7000A8342B853C854D855E85CBCE0E94891E70
:102C80006F83788789879A878DE169817A81869FAA
:102C9000F001879FF00D1124EC5AFD4FA085B185FE
:102CA000BC87AB87228D338DA901330F660B770B61
:102CB0004F87588B698B7A8B348D22843384A48818
:102CC000B588C684D784E088F18802891389238176
:102CD0004281AB89BC898D909C9086899789B4018B
:102CE0003DA70E949A1E8C01B10180E090E00E94F5
:102CF000A6346B017C013DA53058632F70E080E065
:102D000090E00E94A63420E030E040E85BE30E94BF
:102D10005D35A70196010E945D350E947734C4019C
:102D2000860F971FB1010E946A369A8F898F82158C
:102D30009305D0F5B801012E000C880B990B0E9469
:102D4000A8349B01AC010E948D334B015C0120E053
:102D500030E04AE754E4C701B6010E94FE339B010C
:102D6000AC01C501B4010E94FE336B017C01E98D09
:102D7000FA8DBF0180E090E00E94A63420E030E0B0
:102D80004AE754E40E94FE339B01AC01C701B6013F
:102D90000E945D350E9470341195019511099801CA
:102DA000260F371F3FA32EA34EA15FA198C00E94FC
:102DB000891E6F83788789879A878DE169817A81F7
:102DC000869FF001879FF00D1124EC5AFD4FA085DE
:102DD000B185BC87AB87228D338DA901330F660B7C
:102DE000770B4F87588B698B7A8B348D2284338491
:102DF000A488B588C684D784E088F18802891389BD
:102E000023814281AB89BC898D909C90868997896A
:102E1000B4013DA70E949A1E8C01B10180E090E0B0
:102E20000E94A6346B017C013DA53058632F70E0F1
:102E300080E090E00E94A63420E030E040E85BE3D0
:102E40000E945D35A70196010E945D350E9477348E
:102E5000C401860F971FB1010E946A369A8F898F2D
:102E600082159305D0F566277727601B710B072E17
:102E7000000C880B990B0E94A8349B01AC010E94A6
:102E80008D334B015C0120E030E04AE754E4C70198
:102E9000B6010E94FE339B01AC01C501B4010E9442
:102EA000FE336B017C01E98DFA8DBF0180E090E07B
:102EB0000E94A63420E030E04AE754E40E94FE334A
:102EC0009B01AC01C701B6010E945D350E947034C0
:102ED0009801260F371F39A728A748A559A5CA0169
:102EE000550FAA0BBB0B7BCD8DE169817A81869F43
:102EF000F001879FF00D1124EC5AFD4FA28DB38D88
:102F00008090220290902302A0902402B09025028B
:102F1000A50194010E945333DC01CB016FE0B5950C
:102F2000A795979587956A95D1F7092E000CAA0B5E
:102F3000BB0B2B813C814D815E81281B390B4A0BD9
:102F40005B0B1216130614061506F4F4A28DB38D4E
:102F5000A50194010E945333DC01CB015FE0B595DC
:102F6000A795979587955A95D1F7092E000CAA0B2E
:102F7000BB0B4B815C816D817E81481B590B6A0BB9
:102F80007B0BDB01CA011BC0A28DB38DA50194018F
:102F90000E945333DC01CB014FE0B595A79597957F
:102FA00087954A95D1F7092E000CAA0BBB0B2B81F4
:102FB0003C814D815E81821B930BA40BB50B6DE1AF
:102FC00049815A81649FF001659FF00D1124EC5AEC
:102FD000FD4F448178E0479FA0011124052E000C8D
:102FE000660B770B481759076A077B070CF04DC132
:102FF000A28DB38DA50194010E945333DC01CB0156
:103000003FE0B595A795979587953A95D1F7092E05
:10301000000CAA0BBB0B2B813C814D815E81281BD0
:10302000390B4A0B5B0B57FD03C008EF1FEF02C0C3
:1030300008E010E06DE149815A81649FF001659FCD
:10304000F00D1124EC5AFD4F3480828D938D9C87B6
:103050008B87A0912102B0E0A70196010E9448331E
:1030600020E436E040E050E00E9429332F83388787
:1030700049875A87309E6001319ED00C11240D2C57
:10308000000CEE08FF082B813C814D815E81C20E51
:10309000D31EE41EF51EAB85BC85A50194010E94DC
:1030A0005333DC01CB012FE0B595A7959795879514
:1030B0002A95D1F7092E000CAA0BBB0BA70196018C
:1030C000281B390B4A0B5B0BCA01B9014F8158858C
:1030D0000E947306460E571E681E791ED6C06DE10B
:1030E00049815A81649FF001659FF00D1124EC5ACB
:1030F000FD4F028D138DA0912002B0E0A701960133
:103100000E94483324E630E040E050E00E9429333A
:1031100069017A01B801110F880B990B0E94A8343C
:103120002AE939EC4CEC54E40E94FE339B01AC01DB
:103130006D897E898F89988D0E948C33A6010E94AB
:10314000A00765C0ADE189819A81A89FF001A99F80
:10315000F00D1124EC5AFD4F028D138DA0911F022A
:10316000B0E0A70196010E94483324E630E040E039
:1031700050E00E94293369017A01B801110F880BD0
:10318000990B0E94A83420E03EEF4FEF56E40E94D6
:10319000FE339B01AC016D8D7E8D8F8D98A10E94B9
:1031A0008C33A6010E94380732C04DE129813A8153
:1031B000429FF001439FF00D1124EC5AFD4F028D08
:1031C000138DA0911E02B0E0A70196010E94483322
:1031D00024E630E040E050E00E94293369017A01A2
:1031E000B801110F880B990B0E94A8342AE939EC19
:1031F0004CEC54E40E94FE339B01AC016D897E8946
:103200008F89988D0E948C33A6010E94B706092EE3
:10321000000CAA0BBB0B480E591E6A1E7B1E35C044
:103220000E94891E9B01AC018DE169817A81869F94
:10323000F001879FF00D1124EC5AFD4F628D738DC4
:10324000072E000C880B990B2AA73DA74BA75CA75C
:103250000E94A8342AA53DA54BA55CA50E94FE337B
:103260000E9470340E9448069B01AC01A091260286
:10327000B0E00E94483324E630E040E050E00E9495
:103280002933421A530A640A750A0E948A2100915E
:103290001A0210911B0220911C0230911D02DC01C8
:1032A000CB01801B910BA20BB30BEB89FC898083B4
:1032B0009183A283B3832B893C892C5F3F4F3C8B46
:1032C0002B8B49815A814B30510509F0B2C803C09C
:1032D000412C512C32013090B10331FE2EC00E949E
:1032E000891E9B01AC01E091200287E491E0E89FF8
:1032F000B001E99F700D1124072E000C880B990B6B
:103300002AA73DA74BA75CA70E94A8342AA53DA5E4
:103310004BA55CA50E94FE330E947034AB016D8901
:103320007E898F89988D0E94A007092E000CAA0B18
:10333000BB0B480E591E6A1E7B1E32FE2EC00E9419
:10334000891E9B01AC01E0911F0287E491E0E89F98
:10335000B001E99F700D1124072E000C880B990B0A
:103360002AA73DA74BA75CA70E94A8342AA53DA584
:103370004BA55CA50E94FE330E947034AB016D8D9D
:103380007E8D8F8D98A10E943807092E000CAA0B04
:10339000BB0B480E591E6A1E7B1E33FE2EC00E94B8
:1033A000891E9B01AC01E0911E0287E491E0E89F39
:1033B000B001E99F700D1124072E000C880B990BAA
:1033C0002AA73DA74BA75CA70E94A8342AA53DA524
:1033D0004BA55CA50E94FE330E947034AB016D8941
:1033E0007E898F89988D0E94B706092E000CAA0B42
:1033F000BB0B480E591E6A1E7B1E809122029091C3
:103400002302A0912402B0912502002711279801E0
:10341000081B190B2A0B3B0B4B815C816D817E8154
:10342000401751076207730734F084179507A60702
:10343000B7070CF03FC02B813C814D815E8157FD69
:1034400007C069017A01C81AD90AEA0AFB0A08C04A
:10345000CB80DC80ED80FE80C80ED91EEA1EFB1EEC
:103460000E94891E9B01AC0160E07EEF8FEF96E425
:103470000E94FE334B015C016091190270E080E014
:1034800090E00E94A8349B01AC01C501B4010E94E8
:103490005D3520E030E048EC52E40E94FE330E94AB
:1034A0007034AB01C701B6010E947306460E571E69
:1034B000681E791EA0911802B0E0A30192010E943B
:1034C000483324E630E040E050E00E942933CA014E
:1034D000B9010E9448066B017C0134FE04C00E94C1
:1034E00003100E94960FC701B601AF960FB6F8946D
:1034F000DEBF0FBECDBFDF91CF911F910F91FF9027
:10350000EF90DF90CF90BF90AF909F908F907F9083
:103510006F905F904F903F902F9008950895CF93B4
:10352000DF93FC01EB017181828189838781908522
:103530009987888725853685438154816DE1769FFB
:10354000C00111248C5A9D4FDC011F965C934E9351
:103550001E9755963C932E93549764E0769FD00126
:103560001124AC5DBD4F1D921D921D921C921397AC
:10357000838594859D878C8782858D8381E0DF910B
:10358000CF910895FC012281FB012683FC018381F8
:10359000FB0187830895FC0182819381FB01978B56
:1035A000868B0895DC01FB0112968D919C911397F7
:1035B000978B868B14968D919C911597938F828F04
:1035C00016968C911697848F17968D919C911897CB
:1035D000938782870895DC01FB0115968D919C915C
:1035E0001697978B868B13968D919C911497938F3A
:1035F000828F19968C911997848317968D919C913F
:103600001897918F808F0895DC01FB0112968C91A1
:103610001297828313968C911397838314968D91BE
:103620009C911597938B828B16968D919C911797F1
:10363000918B808B08959DE1899FF0011124EC5AB4
:10364000FD4F77876687558B448B94E0899FF00107
:103650001124EC5DFD4F10821182128213820895B5
:10366000089508951092680424E0829FC0011124F7
:10367000FC01EC5DFD4F10821182128213820895CD
:1036800025E0FC0120838EE891E008950895809361
:10369000680408952F923F924F925F926F927F92AB
:1036A0008F929F92AF92BF92CF92DF92EF92FF9252
:1036B000CF93DF93CDB7DEB764970FB6F894DEBF34
:1036C0000FBECDBF6B017C016091180270E080E0FD
:1036D00090E00E94A8342AE037ED43E25CE30E94C8
:1036E0005D3569837A838B839C8316012701F7FEFE
:1036F00007C02224332421012C183D084E085F08FE
:10370000C201B1010E94A8344B015C016091B80371
:103710007091B90380E090E00E94A6346D837E83AF
:103720008F83988726E636E646E65FE30E945D359E
:1037300029813A814B815C810E945D3569877A8756
:103740008B879C879B01AC01C501B4010E94583551
:1037500087FDCBC02D813E814F81588569817A815B
:103760008B819C810E945D356D877E878F87988BCA
:1037700020E030E040E85FE30E948C339B01AC0125
:10378000C501B4010E94F93387FFAFC069857A850E
:103790008B859C850E9470344B015C01A2019101D4
:1037A000261B370B480B590BAEE3B0E00E944833A1
:1037B00069837A838B839C836D857E858F859889C9
:1037C0000E9470349B01AC01281939094A095B0930
:1037D00069817A818B819C810E94293349015A0138
:1037E0008FEF881A980AA80AB80A340161E08DE0C0
:1037F0000E94D8208114910409F498C08FEF881694
:10380000910409F48EC0E2E4F8E0E4918E2F90E098
:10381000FC013197EE30F10508F062C0EE53FF4F26
:103820000C947E3684B5806884BD87BC82C084B524
:10383000806284BD88BC7DC0809180008068809358
:103840008000909289008092880073C080918000EF
:1038500080628093800090928B0080928A0069C081
:10386000809190008068809390009092990080925F
:1038700098005FC080919000806280939000909249
:103880009B0080929A0055C0809190008860809340
:10389000900090929D0080929C004BC08091C0004F
:1038A00080688093C0008091C0008F7B8093C000AF
:1038B0008092CF003EC08091C00080628093C000A3
:1038C0008092D00036C08091C20088608093C20090
:1038D0008091C2008B7F8093C2008092D20029C069
:1038E00080E868167104ECF421C02D813E814F817F
:1038F000588569817A818B819C810E945D3520E0A9
:1039000030E040E85FE30E948C339B01AC01C501CD
:10391000B4010E94583561E087FD05C08DE00E942A
:10392000D82081E004C08DE00E94D82080E00E9471
:10393000040F6091B00170E060587109072E000C0F
:10394000880B990B0E94A83420E030E04FE753E445
:103950000E94FE334B015C0160938E0470938F04D0
:10396000809390049093910420E030E0A9010E949C
:1039700058351816ACF4A501940160E070E080E8B9
:103980009FE30E948C3360938A0470938B0480932E
:103990008C0490938D0480E090E0A0E8BFE330C0F9
:1039A00020E030E0A901C501B4010E94F93387FF8E
:1039B0001BC080E090E0A0E8BFE380938A0490936E
:1039C0008B04A0938C04B0938D049C01AD01C501C0
:1039D000B4010E948D3360938604709387048093B2
:1039E00088049093890414C080E090E0A0E8BFE3CD
:1039F00080938A0490938B04A0938C04B0938D04DD
:103A00008093860490938704A0938804B0938904DC
:103A10009091AB01892F807491FDA9C0811167C07D
:103A20001C141D041E041F04A4F54090B8035090FC
:103A3000B9038090B6039090B703A12CB12C612CF0
:103A4000712CC301B2010E94A634209186043091EA
:103A5000870440918804509189040E945D350E943A
:103A60007034681979098A099B09A70196010E9497
:103A70005A36A30192010E94293369017A01C80CC8
:103A8000D91CEA1CFB1C80E090E00E941B23C601AD
:103A900028C1C114D104E104F10431F14090B8030C
:103AA0005090B9038091B6039091B7034C01A12CBB
:103AB000B12CF094E094D094C094C11CD11CE11CB2
:103AC000F11C612C712CC301B2010E94A63420911B
:103AD0008A0430918B0440918C0450918D040E9493
:103AE0005D350E9470341CC080E090E0F6C0E0912B
:103AF000B803F091B9031C141D041E041F04DCF468
:103B00004F01969487948091B6039091B703880EE5
:103B1000991EA12CB12C2F01612C712CC301B20173
:103B2000681979098A099B09A70196010E945A36EA
:103B3000A3019201BEC0C114D104E104F10499F0C3
:103B40004F01969487948091B6039091B703881A99
:103B5000990AA12CB12CA5019401C701B6010E94BC
:103B60005A369F01A4C0CF0196958795B6C08111A2
:103B700027C0F7FC02C02F9A01C02F988091B6038E
:103B80009091B7036C01E12CF12C8090B8039090D8
:103B9000B903A12CB12CC501B4016C197D098E09A2
:103BA0009F09A20191010E945A36A50194010E9429
:103BB0002933DA01C9018C0D9D1DAE1DBF1D8DC0BD
:103BC0001C141D041E041F046CF520E030E040E8C6
:103BD0005FE36091A7017091A8018091A901909184
:103BE000AA010E948D33209104013091050140917A
:103BF0000601509107010E945D350E9470344B010F
:103C00005C0160910001709101018091020190912D
:103C100003010E947034681979098A099B09A70178
:103C200096013FC0C114D104E104F10409F44AC073
:103C30002091A7013091A8014091A9015091AA01BA
:103C400060E070E080E89FE30E948C3320910401E3
:103C50003091050140910601509107010E945D35A8
:103C60000E9470344B015C0122273327A9012C19D3
:103C70003D094E095F096091080170910901809129
:103C80000A0190910B01298B3A8B4B8B5C8B0E9424
:103C90007034681979098A099B0929893A894B89FD
:103CA0005C890E945A362091B8033091B90340E0F4
:103CB00050E00E942933DA01C901880D991DAA1D1F
:103CC000BB1D0BC06091040170910501809106013C
:103CD000909107010E947734CB010E941B2380E062
:103CE00090E064960FB6F894DEBF0FBECDBFDF91B3
:103CF000CF91FF90EF90DF90CF90BF90AF909F90CB
:103D00008F907F906F905F904F903F902F900C948A
:103D10000E236091A5017091A60180E090E00E94C1
:103D2000A6349B01AC0160E07EEF8FEF96E40E9429
:103D3000FE3308952F923F924F925F926F927F923F
:103D40008F929F92AF92BF92CF92DF92EF92FF92AB
:103D50000F931F93CF93DF93CDB7DEB729970FB69D
:103D6000F894DEBF0FBECDBF998788874B012B83A8
:103D70001D830C831701DF82CE82042F10E08C811B
:103D80009D816C01E12CF12CE885F985F7FD2BC0B4
:103D9000C8019695982F882797958795BF01681B2E
:103DA000790B072E000C880B990B0E94A8342B016D
:103DB0003C01C701B6010E94A6349B01AC01C301BE
:103DC000B2010E94FE332B013C01C8019695982F49
:103DD0008827979587959A838983EB8190E8E99F57
:103DE000B00111242AC0B8017695762F6627779501
:103DF0006795E885F9856E0F7F1F072E000C880BED
:103E0000990B0E94A8342B013C01C701B6010E9406
:103E1000A6349B01AC01C301B2010E94FE332B0109
:103E20003C0160E86003C001619F900D11249A83FA
:103E300089832B816203B001112488859985681BD1
:103E4000790B072E000C880B990B0E94A8346B018C
:103E50007C01B10180E090E00E94A6349B01AC019E
:103E6000C701B6010E94FE336B017C018A149B04DA
:103E700008F43FC08E819F818A0D9B1D881699068C
:103E8000C0F50C811D810A0D1B1D8016910690F452
:103E9000B4016A197B0980E090E00E94A6349B017E
:103EA000AC01C301B2010E945D350E94703489816A
:103EB0009A811CC08219930988159905E8F48A181B
:103EC0009B08EE81FF818E1A9F0AB401620D731D5B
:103ED00080E090E00E94A6349B01AC01C701B601CE
:103EE0000E945D350E94703488859985860F971FE2
:103EF00005C080E090E002C08885998529960FB6BC
:103F0000F894DEBF0FBECDBFDF91CF911F910F910F
:103F1000FF90EF90DF90CF90BF90AF909F908F90E9
:103F20007F906F905F904F903F902F900895CF9229
:103F3000DF92EF92FF920F931F93CF93DF936C0169
:103F4000EB017B01E40EF51E00E010E0CE15DF056D
:103F500061F06991D601ED91FC910190F081E02D25
:103F6000C6010995080F191FF1CFC801DF91CF9144
:103F70001F910F91FF90EF90DF90CF90089583E015
:103F80008093E9008091F200882319F08AE38093FE
:103F9000E800089520914A0530914B0580914C0529
:103FA00090914D0528173907A9F0E0914C05F09143
:103FB0004D05E65FFA4F808120914C0530914D050B
:103FC0002F5F3F4F2F73332730934D0520934C05C0
:103FD00090E008958FEF9FEF089520914A0530916A
:103FE0004B0580914C0590914D052817390749F0F4
:103FF000E0914C05F0914D05E65FFA4F808190E02D
:1040000008958FEF9FEF089580914A0590914B0599
:1040100020914C0530914D05821B930B8F7399278E
:10402000089585ED8093BC008091BC0084FDFCCF99
:104030001092DB0408954091B504262F30E0240F40
:10404000311D21323105DCF42091DB042430C9F428
:10405000FC0180E090E0861758F43091B50421917E
:10406000DC01AD56BB4FA30FB11D2C930196F3CFCE
:104070008091B504680F6093B50480E0089581E0F5
:10408000089582E0089508958FEF9FEF08958FEFD0
:104090009FEF08958091920490E091958195910908
:1040A0000895CF93DF9300D0CDB7DEB7CB01642F57
:1040B00049835A830E941B204981842F5A81952F5E
:1040C0000F900F90DF91CF910895CF93DF931F92C0
:1040D000CDB7DEB7698361E0CE0101960E941B2057
:1040E00081E090E00F90DF91CF9108950E948B3690
:1040F0000F931F93CF93DF931F92CDB7DEB78C0141
:10410000698380911701882359F041E050E0BE0196
:104110006F5F7F4F83E00E94780A181619063CF003
:1041200081E090E0F8019383828380E090E00F903B
:10413000DF91CF911F910F9108950F931F93CF930C
:10414000DF931F92CDB7DEB700914A0510914B0562
:104150000F5F1F4F0F73112780914C0590914D05F4
:1041600008171907F9F041E050E0BE016F5F7F4F7B
:1041700082E00E94110B019719F4898190E002C03E
:104180008FEF9FEF8F3F2FEF920761F0E0914A058D
:10419000F0914B05E65FFA4F808310934B05009337
:1041A0004A05D2CF0F90DF91CF911F910F910895C3
:1041B000CF93DF9390E0FC01EA5EF74F2491FC017E
:1041C000E950F84F8491882361F190E0880F991F9E
:1041D000FC01E05AF74FC591D491FC01E751F84F2B
:1041E000A591B491611109C09FB7F8948881209579
:1041F00082238883EC912E230BC0623061F49FB739
:10420000F8943881822F809583238883EC912E2B1C
:104210002C939FBF06C08FB7F894E8812E2B28837C
:104220008FBFDF91CF910895823108F08251E82F3E
:10423000F0E0EC5AF74FE49180917B00E3FB2227FA
:1042400020F930E095E0220F331F9A95E1F78F7D3A
:10425000282B20937B00E770E064E0937C00809142
:104260007A00806480937A0080917A0086FDFCCF8A
:10427000809178002091790090E0922B08953FB7CB
:10428000F8948091060590910705A0910805B091DA
:10429000090526B5A89B05C02F3F19F00196A11D61
:1042A000B11D3FBFBA2FA92F982F8827820F911DCC
:1042B000A11DB11DBC01CD0142E0660F771F881F13
:1042C000991F4A95D1F70895CF92DF92EF92FF920E
:1042D000CF93DF936B017C010E943F21EB01C1145E
:1042E000D104E104F10479F00E943F216C1B7D0BA5
:1042F000683E7340A0F381E0C81AD108E108F108D4
:10430000C851DC4FECCFDF91CF91FF90EF90DF9061
:10431000CF9008952FB7F89460910205709103052E
:1043200080910405909105052FBF08951F920F926B
:104330000FB60F9211242F933F938F939F93AF93B8
:10434000BF938091020590910305A0910405B0915F
:1043500005053091010523E0230F2D3720F4019648
:10436000A11DB11D05C026E8230F0296A11DB11D98
:10437000209301058093020590930305A093040503
:10438000B09305058091060590910705A091080559
:10439000B09109050196A11DB11D8093060590936A
:1043A0000705A0930805B0930905BF91AF919F91B0
:1043B0008F913F912F910F900FBE0F901F901895E6
:1043C0001F920F920FB60F9211242F933F934F938A
:1043D0005F936F937F938F939F93AF93BF93EF936D
:1043E000FF938091B900887F803609F49CC068F5FE
:1043F000883209F45BC090F4803109F454C038F479
:10440000882309F4F6C0883009F44DC0F6C088311D
:1044100009F44CC0803209F45DC0EFC0803409F467
:1044200068C048F4803309F455C0883309F0E5C00A
:104430008093DA04D8C0803509F44FC0883509F478
:104440005DC0883409F0D9C0D6C0883909F4C7C026
:10445000A8F4883709F467C038F4883609F463C0D3
:10446000803709F460C0C9C0883809F4B8C0803901
:1044700009F45FC0803809F0C0C05BC0803B09F41C
:1044800086C038F4803A09F466C0883A09F47FC0DF
:10449000B4C0803C09F4A7C0883C09F4A4C0883BA0
:1044A00009F48AC0AAC08091000510C09091FF0451
:1044B0008091FE04981770F5E091FF0481E08E0F63
:1044C0008093FF04F0E0E252FB4F80818093BB00B9
:1044D00085EC86C08093DA048EC0E091FF0481E011
:1044E0008E0F8093FF048091BB00F0E0E252FB4FFF
:1044F00080839091FF048091FE046EC0E091FF04E0
:1045000081E08E0F8093FF048091BB00F0E0E252C7
:10451000FB4F80838091DD0481116DC081E0809329
:10452000DC0484EA61C083E08093DB041092D90448
:10453000CFCF8091D904803208F051C0E091D904E6
:1045400081E08E0F8093D9048091BB00F0E0E754A6
:10455000FB4F8083BDCF85EC8093BC001092DB04C1
:104560008091D904803230F4E091D904F0E0E7542E
:10457000FB4F10826091D90470E0E091B704F09194
:10458000B80489EB94E009951092D90436C084E010
:104590008093DB041092B6041092B504E091B3044A
:1045A000F091B40409958091B504811105C081E0B2
:1045B0008093B50410929304E091B60481E08E0FCD
:1045C0008093B604F0E0ED56FB4F80818093BB00F2
:1045D0009091B6048091B504981708F479CF85E8D6
:1045E0008093BC000AC085EC8093BC001092DB0471
:1045F00004C01092DA040E941120FF91EF91BF9144
:10460000AF919F918F917F916F915F914F913F916A
:104610002F910F900FBE0F901F9018952091A5011C
:104620003091A6012817390708F4C90190938B002F
:1046300080938A0008952091A5013091A601281742
:10464000390708F4C9019093890080938800089580
:104650000F931F930E948A216093C9037093CA032A
:104660008093CB039093CC03E091C103F091C203FC
:104670000084F185E02D81EC93E0099597FF1FC040
:104680000E948A210091C9031091CA032091CB0393
:104690003091CC03DC01CB01801B910BA20BB30B3F
:1046A0000091C5031091C6032091C7033091C80340
:1046B00080179107A207B307B8F28FEF9FEF1F9102
:1046C0000F910895682F70E080E090E04AE00C942C
:1046D000B60FBC0180E090E04AE00C94B60F0C9459
:1046E000A40FFF920F931F93CF93DF9300D000D0BE
:1046F000CDB7DEB70E942823FC0197FD11C08D3293
:10470000910591F0C0970A9778F0E091C103F0917C
:10471000C2030680F781E02D81EC93E00995EACF92
:1047200060E070E0CB014CC020E030E0A901F12C4A
:10473000E130F105F1F0ED32F105C9F0CF01C0979C
:104740000A97B8F4AAE0B0E00E9448338F01FF0F47
:10475000220B330BDC01CB01800F911FA21FB31F73
:104760009C01AD01205331094109510902C0FF24C8
:10477000F394E091C103F091C2030680F781E02D2C
:1047800081EC93E029833A834B835C8309950E94F3
:104790002823FC01C09729813A814B815C810A97CB
:1047A00038F2E130F10521F2FF2041F0662777274A
:1047B000CB01621B730B840B950B02C0CA01B901BC
:1047C0000F900F900F900F90DF91CF911F910F914D
:1047D000FF900895CF93DF93CDB7DEB7A3970FB6C1
:1047E000F894DEBF0FBECDBF789484B5826084BDDF
:1047F00084B5816084BD85B5826085BD85B58160E5
:1048000085BD80916E00816080936E001092810062
:10481000809181008260809381008091810081601D
:1048200080938100809180008160809380008091DE
:1048300091008260809391008091910081608093CB
:104840009100809190008160809390008091C100E0
:1048500084608093C1008091C10082608093C10018
:104860008091C10081608093C1008091C30081600C
:104870008093C3008091C00082608093C0008091CB
:10488000C20081608093C20080917A00846080932E
:104890007A0080917A00826080937A0080917A0019
:1048A000816080937A0080917A00806880937A009A
:1048B0001092A20181E08093D70080EA8093D80013
:1048C00082E189BD09B400FEFDCF61E070E080E0C7
:1048D00090E00E94642180E98093D8008CE080936E
:1048E000E2001092E0000E943F216093F00170937B
:1048F000F1018093F2019093F3011092B6011092AE
:10490000E3011092E2011092E8011092E901109285
:10491000EA011092EB011092E1011092E001109275
:10492000EC011092ED011092EE011092EF0142E0C5
:10493000BE01615F7F4F80E090E00E9473088F8529
:104940009889863E910509F44DC186EE90E09E87D8
:104950008D8742E0BE01635F7F4F80E090E00E9460
:10496000440819821A821B821C8244E0BE016F5FD8
:104970007F4F82E090E00E94440888E394E09E87A5
:104980008D8742E0BE01635F7F4F86E090E00E942A
:10499000440884E6898B41E0BE016F5E7F4F88E06A
:1049A00090E00E94440841E0BE016F5E7F4F8BE0C3
:1049B00090E00E94440841E0BE016F5E7F4F8CE0B2
:1049C00090E00E94440841E0BE016F5E7F4F80E1AD
:1049D00090E00E94440841E0BE016F5E7F4F8DE091
:1049E00090E00E94440882E3898B41E0BE016F5E43
:1049F0007F4F89E090E00E94440841E0BE016F5E75
:104A00007F4F8AE090E00E94440841E0BE016F5E63
:104A10007F4F8EE090E00E94440886E4898B41E05D
:104A2000BE016F5E7F4F8FE090E00E9444081E86BB
:104A30001D8642E0BE01635F7F4F81E190E00E94EE
:104A4000440884EF91E09E878D8742E0BE01635F5A
:104A50007F4F83E190E00E9444088FEF9FE09E87A4
:104A60008D8742E0BE01635F7F4F85E190E00E9449
:104A7000440880E890E09E878D8742E0BE01635F36
:104A80007F4F87E190E00E94440881E0898B41E0FC
:104A9000BE016F5E7F4F88E190E00E94440880E68F
:104AA00099E0A0E0B0E089839A83AB83BC8344E0C3
:104AB000BE016F5F7F4F89E190E00E94440889E06A
:104AC000898B41E0BE016F5E7F4F8DE190E00E94D7
:104AD0004408EE24EA94F12CFE86ED8642E0BE0105
:104AE000635F7F4F8EE190E00E9444080FEF11E07A
:104AF0001E870D8742E0BE01635F7F4F80E290E03A
:104B00000E9444088FEF92E09E878D8742E0BE01AD
:104B1000635F7F4F82E290E00E944408FE86ED864C
:104B200042E0BE01635F7F4F84E290E00E94440850
:104B30001E870D8742E0BE01635F7F4F86E290E0F3
:104B40000E9444081E861D8642E0BE01635F7F4FBF
:104B500088E290E00E9444081E861D8642E0BE0165
:104B6000635F7F4F8AE290E00E94440842E0BE010A
:104B7000635F7F4F8EE290E00E94440842E0BE01F6
:104B8000635F7F4F82E390E00E94440842E0BE01F1
:104B9000635F7F4F86E390E00E9444088FEF93E0CD
:104BA0009E878D8742E0BE01635F7F4F8CE290E07D
:104BB0000E94440842E0BE01635F7F4F80E390E0C3
:104BC0000E94440842E0BE01635F7F4F84E390E0AF
:104BD0000E94440842E0BE01635F7F4F88E390E09B
:104BE0000E94440842E061EB71E086E090E00E94A0
:104BF000730844E06CEA71E089E190E00E94730878
:104C000041E068E172E088E090E00E94730841E0D2
:104C100060E272E089E090E00E94730841E06EE19A
:104C200072E08AE090E00E94730841E067E272E07F
:104C30008BE090E00E94730841E066E272E08CE055
:104C400090E00E94730841E061E272E08DE090E044
:104C50000E94730841E06FE172E08EE090E00E94F4
:104C6000730841E060EB73E08FE090E00E9473080E
:104C700041E069E172E080E190E00E94730841E068
:104C800060EB71E087E190E00E94730841E061EB26
:104C900073E088E190E00E94730842E066EB73E005
:104CA00081E190E00E94730842E068EB73E083E1E9
:104CB00090E00E94730842E067EB71E085E190E0CC
:104CC0000E94730841E06BEA71E08DE190E00E9480
:104CD000730842E069EB71E08EE190E00E94730896
:104CE00042E06BEB71E080E290E00E94730842E0EA
:104CF0006DEB71E082E290E00E94730842E06FEB9E
:104D000071E084E290E00E94730842E061EC71E09F
:104D100086E290E00E94730841E063EC71E088E273
:104D200090E00E94730842E064ED71E08AE290E056
:104D30000E94730842E068ED71E08CE290E00E940E
:104D4000730842E068EC71E08EE290E00E94730824
:104D500042E06AEC71E080E390E00E94730842E078
:104D600060ED71E082E390E00E94730842E062ED42
:104D700071E084E390E00E94730842E06CEC71E023
:104D800086E390E00E94730842E06EEC71E088E3F5
:104D900090E00E9473086091AC017091AD01809128
:104DA000AE019091AF010E94A83420E030E044EBC6
:104DB00053E40E94FE336B017C018091B10190911C
:104DC000B201BC01990F880B990B0E94A8349B017A
:104DD000AC01C701B6010E945D350E94703460933A
:104DE000B2037093B3038093B4039093B5036B0144
:104DF0007C01F594E794D794C794C0922202D09294
:104E00002302E0922402F092250262E080E00E94F8
:104E1000D82062E081E00E94D8201092BB03C092AB
:104E2000BC03D092BD03E092BE03F092BF03109288
:104E3000C0034A9B05C08091C00381608093C0037A
:104E40004B9B05C08091C00382608093C00380911A
:104E500069008F7C806180936900EA9A8091690083
:104E60008F73806480936900EB9A60E082E10E9416
:104E7000D82060E083E10E94D82060E084E10E94B5
:104E8000D82060E085E10E94D82060E086E10E94A1
:104E9000D82060E087E10E94D82062E084E00E9490
:104EA000D82062E08CE00E94D82062E086E00E9478
:104EB000D82062E087E00E94D82062E088E00E946B
:104EC000D82062E085E00E94D82088E191E09093AC
:104ED000A4018093A30185E095E090936A048093F8
:104EE000690480EF9BE090936C0480936B04279A95
:104EF0003F9AF090AB018F2D0E949C088C019093FB
:104F0000A6018093A5019093B9038093B8036091A3
:104F1000B6037091B70380E090E00E94A6344B0185
:104F20005C01B80180E090E00E94A6349B01AC01D6
:104F3000C501B4010E94FE336093A7017093A801DC
:104F40008093A9019093AA011F2D1170F0FC05C058
:104F500020E030E04AEF54E404C020E030E04AE7CB
:104F600054E4609108017091090180910A019091C7
:104F70000B010E945D3560930801709309018093D5
:104F80000A0190930B01111105C020E030E04AEFB7
:104F900054E404C020E030E04AE754E460910401A6
:104FA0007091050180910601909107010E945D3585
:104FB00060930401709305018093060190930701AB
:104FC000111105C020E030E04AEF54E404C020E0B5
:104FD00030E04AE754E46091000170910101809152
:104FE0000201909103010E945D356093000170936E
:104FF00001018093020190930301109280001092AE
:10500000810010926F0016BA8091A5019091A601BF
:1050100090938700809386001092890010928800F8
:1050200010928B0010928A008091AB0182748234BE
:1050300021F480918100826003C0809181008160B1
:10504000809381008091AB0180FF04C0809181003A
:10505000806108C080918000826080938000809190
:10506000810088618093810080E090E00E941B2392
:1050700080918000806880938000259A80E090E095
:105080000E940E2380918000806280938000269A87
:1050900013E0479A64E170E080E090E00E946421B0
:1050A000479864E170E080E090E00E946421115034
:1050B00081F760E070E0CB010E944A1B80912202E0
:1050C00090912302A0912402B0912502F89480933C
:1050D000BC039093BD03A093BE03B093BF03789429
:1050E0001092D7011092D6018FEF97E09093B501FF
:1050F0008093B4018091B0018093B3010E943F215D
:105100006093D3037093D4038093D5039093D60315
:105110000091F4011091F5012091F6013091F70111
:105120004B015C01801A910AA20AB30A8092CF0354
:105130009092D003A092D103B092D2030091F001DB
:105140001091F1012091F2013091F3015B016C01AA
:10515000A01AB10AC20AD30A40EDA41647E0B40669
:10516000C104D10410F40C9473326093F001709375
:10517000F1018093F2019093F301F8944091BC0304
:105180005091BD036091BE037091BF0378948091EC
:10519000220290912302A0912402B09125024A019B
:1051A0005B01881A990AAA0ABB0AC501B401809258
:1051B000EC019092ED01A092EE01B092EF013091DE
:1051C000B10335FB222720F936FD226037FF02C0EC
:1051D000246013C0213089F42091E8013091E90165
:1051E0004091EA015091EB01AFEFB3E00E944833E8
:1051F0002FEF3FEF40E050E01CC0223029F4A09197
:10520000E201B091E3010DC0233029F4A091E00147
:10521000B091E10106C0243099F4A091DE01B09173
:10522000DF012FEF33E00E9484362FEF3FE040E0B4
:1052300050E00E942933CA01B901725081099109D5
:105240000E94CF106093E4017093E5018093E60122
:105250009093E7016091EC017091ED018091EE0176
:105260009091EF010E94A8346B017C016091B20320
:105270007091B3038091B4039091B5030E94A83458
:105280009B01AC0160E07FEF8FE797E40E94FE3363
:105290009B01AC01C701B6010E945D350E947034CC
:1052A0006B017C01611570488105910534F0CC24B7
:1052B000CA940FE7D02EE12CF12CC11410E8D106CE
:1052C0001FEFE106F10634F4C12C10E8D12EEE24D4
:1052D000EA94FE2CC092EC01D092ED01E092EE0136
:1052E000F092EF016091E4017091E5018091E60197
:1052F0009091E7010E944A1B82E10E9414218C01D7
:1053000084E10E9414211C0185E10E9414214C01BA
:1053100086E10E9414219B8B8A8B9093DD01809300
:10532000DC0187E10E9414219F8B8E8B9093DB011F
:105330008093DA0183E10E9414219D8F8C8FA090CD
:10534000D601B090D701BBA2AAA28091D4019091BE
:10535000D5018A0D9B1D9C0140E050E0288F398FBC
:105360004A8F5B8F4090D0015090D1014A0C5B1C5A
:10537000612C712CC101330CAA0BBB0B9C01AD013C
:105380002419350946095709AFEFBFE00E94483399
:105390002091D2013091D3012A193B0940E050E01D
:1053A00024193509460957090E9429332E8F3F8F4A
:1053B00048A359A34090CC015090CD014A0C5B1CEE
:1053C000612C712CC401990CAA0BBB0B9C01AD0183
:1053D0002419350946095709AFEFBFE00E94483349
:1053E0002091CE013091CF012A193B0940E050E0D5
:1053F00024193509460957090E94293329013A0120
:10540000012E000C220B330BA9019801888C998C7A
:10541000AA8CBB8C281939094A095B09AFEFBFE098
:105420000E9448332091D8013091D901AAA0BBA095
:105430002A193B09890120E030E0A9019801888CF4
:10544000998CAA8CBB8C281939094A095B090E94DE
:10545000293319012115304124F022242A94BFE078
:105460003B2E37FE02C0212C312C3092E3012092DA
:10547000E2010E8D1F8D011520E1120714F00FEFD0
:105480001FE017FF02C000E010E01093E10100935D
:10549000E001411430E1530624F044244A94AFE083
:1054A0005A2E57FE02C0412C512C5092DF014092DF
:1054B000DE016090C8017090C9018AA09BA0680CB1
:1054C000791C812C912CAC8CBD8CC501BB0CAA0B1A
:1054D000BB0B9C01AD012619370948095909AFEFEB
:1054E000BFEF0E9448332091CA013091CB01AAA09E
:1054F000BBA02A193B0940E050E0261937094809AA
:1055000059090E9429332115310561E046075105EB
:1055100024F02FEF3FEF40E050E057FF03C020E0C2
:1055200030E0A9012093E8013093E9014093EA01BA
:105530005093EB0189B08294FFE08F2281E08826AE
:10554000912CA12CB12C81E088229924AA24BB247F
:10555000369902C0689487F84E9903C0689483F81E
:1055600002C0E89483F84F9903C0689484F802C09D
:10557000E89484F8669903C0689485F802C0E894BA
:1055800085F81C9903C0689486F802C0E89486F8F0
:10559000E4E0880C991CAA1CBB1CEA95D1F7609129
:1055A000C30162FF0AC08FEF93E0AA89BB898A1BFF
:1055B0009B0B9093DD018093DC0163FF0AC08FEFAA
:1055C00093E0EE89FF898E1B9F0B9093DB01809304
:1055D000DA018091DA019091DB016090DC0170903A
:1055E000DD0160FF07C084FE03C0E89484F802C0B8
:1055F000689484F8E091B901F091BA016E167F06C3
:1056000080F4E091C101F091C2018E179F0708F06C
:105610005AC0E091BF01F091C0018E179F07C0F4FE
:1056200057C0E091BB01F091BC016E167F0680F47B
:10563000E091C101F091C2018E179F0708F04DC0A3
:10564000E091BF01F091C0018E179F0708F44AC096
:10565000A091BB01B091BC01E091BD01F091BE01F0
:105660006A167B06B0F06E167F0698F4A091C10111
:10567000B091C2018A179B07D0F5A091BF01B091EC
:10568000C0018A179B0728F461FD36C084FE34C030
:1056900015C06E167F06D0F1E091C101F091C201F4
:1056A0008E179F0770F5E091BF01F091C0018E1732
:1056B0009F0760F561FF2EC084FE2CC081E090E062
:1056C000A0E0B0E02BC080E090E0A1E0B0E026C018
:1056D00080E090E0A2E0B0E021C080E090E0A4E0B3
:1056E000B0E01CC080E090E0A8E0B0E017C080E02F
:1056F00090E0A0E1B0E012C080E090E0A0E2B0E075
:105700000DC080E090E0A0E4B0E008C080E090E050
:10571000DC0104C080E090E0A0E8B0E044E0880F45
:10572000991FAA1FBB1F4A95D1F7E89484F8FFE0A0
:10573000AF22F0EFBF22882A992AAA2ABB2A809298
:10574000C4019092C501A092C601B092C70160E861
:10575000D61AC982DA822B833C832D82802F8295D0
:10576000807F83298E8354E0169507955A95E1F73B
:105770000F8348865986D501C40164E0B695A79584
:10578000979587956A95D1F78A871B8674E1B694B9
:10579000A794979487947A95D1F78C864CE050E043
:1057A000BE016F5F7F4F84E00E94CF0B8091CF03DB
:1057B0009091D003A091D103B091D2038031974250
:1057C000A105B10508F48FC681EC93E00E94042086
:1057D000181619060CF077C681EC93E00E94CA1FD8
:1057E000E82F8FE98E0F8A3108F4E0528E2F90E077
:1057F000FC01E154F109EA31F10508F064C6EA5A06
:10580000FF4F0C947E366091B1017091B201072E6A
:10581000000C880B990B0E94031080E20E948B0FF2
:10582000809118020E94622380E20E948B0F809177
:1058300020020E94622380E20E948B0F80911E0250
:105840000E94622380E20E948B0F809127020E94B7
:10585000622380E20E948B0F809126020E946223C5
:1058600080E20E948B0F809121020E94622380E2DD
:105870000E948B0F80911F020E94622380E20E948F
:105880008B0F8091B0030E94622380E20E948B0FF5
:10589000809119020E94622380E20E948B0F809106
:1058A000B6039091B7030E94692380E20E948B0F98
:1058B0008091B0010E94622380E20E948B0F809150
:1058C000B1030E94622380E20E948B0F8091B80393
:1058D0009091B9030E94692380E20E948B0F60912E
:1058E000AC017091AD018091AE019091AF010E9429
:1058F000031080E20E948B0F6091AB0132C383E9F9
:1059000091E00E946F2366EE70E080E090E00E94DC
:10591000031088E991E00E946F238AE991E00E94D8
:105920006F238CE991E00E946F23CDC58091DB034A
:10593000082E000C990BC5C50E943D10C4C50E94DD
:105940007123611101C061E06093B001B8C50E948C
:105950007123643071058105910574F0DC01CB0180
:10596000813CF7E29F07F9E0AF07B1054CF080EC0E
:1059700097E2A9E0B0E004C084E090E0A0E0B0E0ED
:1059800089839A83AB83BC83F8948090BC03909006
:10599000BD03A090BE03B090BF0378944090D7039E
:1059A0005090D8036090D9037090DA036091B101F0
:1059B0007091B201072E000C880B990B0E94A8343D
:1059C0006B017C018091220290912302A09124021C
:1059D000B091250295018401081B190B2A0B3B0B82
:1059E000C901B801640D751D861D971D0E94A8345C
:1059F000A70196010E945D354B015C016091B203E5
:105A00007091B3038091B4039091B5030E94A834C0
:105A10009B01AC01C501B4010E94FE336A8B7B8BF4
:105A20008C8B9D8B69817A818B819C816093AC0189
:105A30007093AD018093AE019093AF010E94A834A2
:105A400020E030E044EB53E40E94FE33A7019601CE
:105A50000E945D350E9470346093B2037093B3036B
:105A60008093B4039093B5034B015C01B594A79464
:105A7000979487948092220290922302A09224020B
:105A8000B09225020E94A8349B01AC016A897B89EF
:105A90008C899D890E945D35A70196010E94FE3385
:105AA0000E947034860E971EA81EB91E8418950891
:105AB000A608B708E1C08091220290912302A0912C
:105AC0002402B0912502F8948093BC039093BD0307
:105AD000A093BE03B093BF03789480E090E0F1C43C
