:100000000C9411040C9439040C9439040C94530F7F
:100010000C942F0F0C9439040C9439040C9439046B
:100020000C9439040C9439040C9472120C9415102D
:100030000C9439040C9439040C9439040C9439044C
:100040000C9439040C9439040C9439040C9439043C
:100050000C9439040C9439040C9439040C94E31571
:100060000C9439040C9439040C9439040C9439041C
:100070000C9439040C9439040C9439040C9439040C
:100080000C9439040C9439040C9439040C943904FC
:100090000C942D160C9439040C9439040C943904E6
:1000A0000C9439040C9439040C9439044A1FEA1F47
:1000B000462187202A22F323512398248F25C22505
:1000C000F52575263026FB2CA52A702BFF2D632CD9
:1000D0006C2D822BFF2DFF2DFF2DFF2DFF2DFF2DD2
:1000E000FF2DB02AAD2AFF2DA22A9C2AFF2D042A1B
:1000F000892A962CBB2DC32D8B2D932DFF2D9B2D47
:10010000832DFF2DB32DCB2DFF2DFF2DAB2DFF2DDF
:10011000FF2DFF2DFF2DFF2DA32D700875087A08E8
:100120008408CE08CE08CE088E089808A208AC082D
:10013000B908CE08C108B018B318A618AA18D41860
:10014000D418D418B718BB18BF18C518C918D418B4
:10015000CF1805A84CCDB2D44EB93836A9020C50F0
:10016000B9918688083CA6AAAA2ABE000000803F52
:1001700000000000000000002A2B28000000000002
:10018000000000000000000000000000000000006F
:100190002C9EB4A0A1A2A434A6A7A5AE362D3738B4
:1001A000271E1F20212223242526B333B62EB7B8BD
:1001B0009F8485868788898A8B8C8D8E8F9091927B
:1001C000939495969798999A9B9C9D2F3130A3ADC7
:1001D000350405060708090A0B0C0D0E0F10111245
:1001E000131415161718191A1B1C1DAFB1B0B50042
:1001F000080B0002020201000904000001020200D3
:100200000005240010010524010101042402060553
:1002100024060001070581031000400904010002C3
:100220000A000000070502024000000705830240A3
:10023000000009040200020300000009210101007E
:100240000122E1040705840340000107050503407E
:10025000000105010904A10185040901A10009307B
:10026000170180FFFF27FF7F0000350047FFFF00D9
:1002700000751095018102093116000027FFFF006B
:1002800000350047FFFF000075109501810209321B
:1002900016000027FF0F0000350047FF0F00007514
:1002A0000C95018102093316000027FF0F0000356D
:1002B0000047FF0F0000750C9501810209341600FC
:1002C0000027FF0F0000350047FF0F0000750C9559
:1002D0000181020939150125083500463B016514E5
:1002E0005500750495018102050915002501550089
:1002F00065001901291875019518810285F1090118
:10030000150026FF00953F7508918285F209019539
:100310003F75088182C0050F0992A1028502099FDD
:1003200009A009A409A509A6150025013500450164
:100330007501950581029503810309941500250136
:100340003500450175019501810209221501252815
:1003500035014528750795018102C00921A1028553
:1003600001092215012528350145287508950191B7
:10037000020925A102092609270930093109320994
:100380003309340940094109420943250B15013558
:1003900001450B750895019100C0095009541500DD
:1003A00027FFFF0000350047FFFF000066011055E2
:1003B000FD75109502910255006600000952150066
:1003C00026FF7F350046FF7F751095019102095386
:1003D0001501250835014508750895019102095553
:1003E000A1020501093009311500250175019502A9
:1003F0009102C0050F0956950191029505910309D7
:1004000057A1020B01000A000B02000A006614004B
:1004100055FE150026FF7F3500479F8C00007510A4
:10042000950191025500660000C0050F09A76601FD
:100430001055FD150027FFFF0000350047FFFF00A6
:10044000007510950191026600005500C0050F0966
:100450005AA1028502092215012528350145287572
:100460000895019102095B095D150026FF00350022
:1004700046FF7F750895029102095C095E660110CE
:1004800055FD26FF7F46FF7F75109502910266009D
:10049000005500C0095FA102850309221501252826
:1004A000350145287508950191020923150025019C
:1004B000350045017504950191020958A1020B010F
:1004C000000A000B02000A00750295029102C009A1
:1004D0006016008026FF7F36008046FF7F751095EE
:1004E000019102096136008046FF7F950191021556
:1004F0000026FF7F350046FF7F0963751095019147
:10050000020965150026FF0046FF7F7508950191D9
:1005100002C0096EA10285040922150125283501B2
:1005200045287508950191020970150026FF7F3551
:100530000046FF7F751095019102096F1600802615
:10054000FF7F36008046FF7F9501910209711500FB
:1005500026FF0035004667016614005500750895B2
:10056000019102097227FFFF000047FFFF000066AC
:10057000011055FD7510950191026600005500C0EF
:100580000973A10285050922150125283501452891
:10059000750895019102097016018026FF7F3601CA
:1005A0008046FF7F751095019102C00974A10285F4
:1005B0000609221501252835014528750895019160
:1005C00002097509761581257F36018046FF7F7502
:1005D0000895029102C0050F0977A102850A092238
:1005E00015012528350145287508950191020978DE
:1005F000A1020979097A097B15012503750895017E
:100600009100C0097C150026FF00350046FF0091CF
:1006100002C00990A102850B092215012528350188
:100620004528750895019102C00996A102850C091B
:100630009709980999099A099B099C15012506753E
:100640000895019100C0097DA102850D097E150064
:1006500026FF003500461027750895019102C00954
:10066000ABA10285050925A1020926092709300940
:100670003109320933093409400941094209431556
:1006800001250B3501450B75089501B100C0050129
:10069000093B150026FF01350046FF01750A95014B
:1006A000B1027506B101C0050F0989A102850609CD
:1006B00022252815013501452875089501B1020943
:1006C0008BA102098C098D098E2503150135014581
:1006D0000375089501B100C009AC150027FFFF00A4
:1006E00000350047FFFF000075109501B100C009FB
:1006F0007FA1028507098075109501150027FFFF6E
:100700000000350047FFFF0000B102098326FF000B
:1007100046FF0075089501B10209A909AA7501955E
:10072000021500250135004501B10275069501B19C
:1007300003C0C01803410072006400750069006EB8
:10074000006F0020004C004C004300040309042209
:1007500003410072006400750069006E006F0020A4
:10076000004D006900630072006F0020002000202F
:100770000012010002000000404123378000010107
:1007800002000112010002020000404123378000F4
:10079000010102000100C18081C1C00706050401FA
:1007A00000080A0B0C0D0900000000240027002A95
:1007B000002D00300000000000250028002B002E36
:1007C00000310004040404040304050202020204CC
:1007D00003020202020606060606060404020202DC
:1007E0000404040802011040804010204080408032
:1007F00008020401804020100201108010204040B7
:10080000200000000200080E0000030401000B009D
:1008100000000000000000000000000000000000D8
:10082000192E11241FBECFEFDAE0DEBFCDBF11E0DD
:10083000A0E0B1E0ECE5F4E602C005900D92A43929
:10084000B107D9F725E0A4E9B1E001C01D92A932B2
:10085000B207E1F714E0C1E1D4E004C02197FE0142
:100860000E941A32C031D107C9F70E94F9190C94BD
:100870002C320C9400000895CF93DF93FC01EB0120
:100880007181828189838781908599878887258571
:100890003685438154816DE1769FC00111248752D2
:1008A0009E4FDC011F965C934E931E9755963C938A
:1008B0002E93549764E0769FD0011124A755BE4F24
:1008C0001D921D921D921C921397838594859D877E
:1008D0008C8782858D8381E0DF91CF910895FC0123
:1008E0002281FB012683FC018381FB01878308951C
:1008F000FC0182819381FB01978B868B0895DC013B
:10090000FB0112968D919C911397978B868B149671
:100910008D919C911597938F828F16968C91169737
:10092000848F17968D919C9118979387828708954D
:10093000DC01FB0115968D919C911697978B868B08
:1009400013968D919C911497938F828F19968C9109
:100950001997848317968D919C911897918F808F0A
:100960000895DC01FB0112968C91129782831396F5
:100970008C911397838314968D919C911597938BEB
:10098000828B16968D919C911797918B808B0895F1
:100990009DE1899FF0011124E752FE4F778766871A
:1009A000558B448B94E0899FF0011124E755FE4F4D
:1009B0001082118212821382089508950895109270
:1009C0000B0524E0829FC0011124FC01E755FE4F76
:1009D0001082118212821382089525E0FC01208387
:1009E00080E391E00895089580930B050895CF92D8
:1009F000DF92EF92FF9260919F017091A001072E0C
:100A0000000C880B990B0E9444306B017C016091B3
:100A100055047091560480915704909158040E9497
:100A200044309B01AC01C701B6010E949A2FFF9090
:100A3000EF90DF90CF9008958C30F8F4282F30E0BD
:100A40009DE1899FF0011124E752FE4F9081992387
:100A5000A1F090819D7F9083F901E359FC4F95812E
:100A600091110BC0E0919501F09196010084F18500
:100A7000E02D099510927D03089508958C30F0F4CF
:100A80009DE1899FF0011124E752FE4F8081882368
:100A9000A9F080818260808380917D0381110EC0E6
:100AA0000E94D7156093A3017093A4018093A501C0
:100AB0009093A60181E080937D03089508951F938C
:100AC000CF93DF93EC0119819881953009F45DC0D3
:100AD00058F59230D1F1A8F4913009F03CC2E09180
:100AE0009501F09196012DE1129FB00111246752FA
:100AF0007E4F028CF38DE02DCE01DF91CF911F91BF
:100B00000994933081F1943009F025C2E091950168
:100B1000F0919601ADE11A9FB001112467527E4F0A
:100B20000488F589E02D2CC09B3009F493C030F483
:100B30009630C9F19A3009F444C00DC29C3009F4D2
:100B4000C2C0913F09F411C106C2E0919501F09134
:100B500096013DE1139FB001112467527E4F00883A
:100B6000F189E02D0DC0E0919501F09196018DE1A4
:100B7000189FB001112467527E4F0288F389E02D3F
:100B8000CE01DF91CF911F910994E0919501F091F1
:100B90009601BDE11B9FB001112467527E4F06886C
:100BA000F789E02DEDCFE0919501F09196012DE1CF
:100BB000129FB001112467527E4F008CF18DE02D01
:100BC000DFCF1F3F09F41FE79A81913099F4812FFD
:100BD0000E943E05E12FF0E0E359FC4F8581811131
:100BE000BAC1E0919501F09196010680F781E02D60
:100BF000812F47C0923029F5C1E08C2F0E941C053F
:100C0000CF5FCC30D1F7C12FD0E0C359DC4F8D81FD
:100C1000811109C0E0919501F09196010084F18560
:100C2000E02D8FE70995812F0E943E058D8181116E
:100C300092C1E0919501F09196010680F781E02D37
:100C40001FC0933009F087C1812FDF91CF911F9191
:100C50000C941C0581E01F3FC1F4809308018CE5D2
:100C600091E0E9EDF1E0DF019C011D92215030405F
:100C7000E1F7E0919501F09196010284F385E02D72
:100C80008FE7DF91CF911F91099480930B051C3062
:100C900008F061C13DE1139FF0011124E752FE4FBE
:100CA000108280910801181710F410930801E09148
:100CB0009501F09196010284F385E02D812F09952D
:100CC00010927D0348C182E080937E0390917F0360
:100CD000946090937F0390917F03906190937F0342
:100CE000109280031330C1F048F4113089F01230B3
:100CF00009F031C180917F03826034C0153079F1F1
:100D0000B8F0163009F027C180917F038E7F2AC08A
:100D100080917F038D7F26C0E0919501F09196012F
:100D20000480F581E02D80E009951092800313C1C5
:100D3000E0919501F09196010480F581E02D81E02C
:100D4000099581E0809308018CE591E0E9EDF1E0FF
:100D5000DF019C011D9221503040E1F7FCC08091E1
:100D60007F03816080937F03F6C08C89813009F016
:100D7000B0C0A981BA81AE31B1053CF0A93037E0ED
:100D8000B3072CF0A8E0B7E002C0AEE1B0E02091DC
:100D90009A0130919B0140919C0150919D010E94CC
:100DA000EF2E28E631E040E050E00E94C52E20936F
:100DB0005504309356044093570450935804CA0185
:100DC000B90122E030E040E050E00E94C52E2093BF
:100DD00036033093370340933803509339038B899C
:100DE000813011F40E94E8188D81893C08F088EC6C
:100DF0008093A1018E81893C08F088EC8093AC013E
:100E00008F81893C08F088EC8093A9018885893C12
:100E100008F088EC8093A7018985893C08F088EC6C
:100E20008093AB018A85893C08F088EC8093AA0105
:100E30008B85893C08F088EC8093A8018C85893CDF
:100E400008F088EC809335038D85893C08F088ECA8
:100E50008093A2012889398980915B0490915C0478
:100E600028173907A4F437FD0AC0809197019091A3
:100E7000980101972817390720F4C90102C080E0C2
:100E800090E090935A048093590483E68C8B8E856E
:100E90009F852091590430915A04281739070CF086
:100EA0004DC023E62C8B181619064CF4209197019F
:100EB000309198012817390728F4832F05C021E0C5
:100EC00080E002C0282F892F20935B0480935C046C
:100ED00035C08F3F99F580919F019091A0019A8331
:100EE000898380917A0490917B049C838B83809189
:100EF000A1018D838091AC018E838091A9018F83A4
:100F00008091A70188878091AB0189878091AA0190
:100F10008A878091A8018B87809135038C87809187
:100F2000A2018D8780915B0490915C049F878E87DE
:100F30008091590490915A04998B888B8EEB90E0A4
:100F40009E8B8D8B40E450E0BE0182EFDF91CF910C
:100F50001F910C940213DF91CF911F9108954F922E
:100F60005F926F927F928F929F92AF92BF92CF9239
:100F7000DF92EF92FF920F931F93CF93DF93CDB742
:100F8000DEB72C970FB6F894DEBF0FBECDBF8C0135
:100F90006091A10170E080E090E00E94423020E08A
:100FA00030E048EC52E40E949A2F69837A838B8365
:100FB0009C83C80117FF04C088279927801B910BC9
:100FC0002C01990F66087708C301B2010E944430D2
:100FD0006B017C0160915B0470915C04072E000C36
:100FE000880B990B0E9444304B015C0126E636E6E3
:100FF00046E65FE30E94F93029813A814B815C81AA
:101000000E94F9306D837E838F8398879B01AC01AA
:10101000C701B6010E94F43087FDC5C029813A811D
:101020004B815C81C501B4010E94F93069877A87E0
:101030008B879C8720E030E040E85FE30E94282F08
:101040009B01AC01C701B6010E94952F87FFABC081
:101050006D817E818F8198850E940C306B017C01AF
:10106000A3019201261B370B480B590BAEE3B0E0EE
:101070000E94E42E4B015C0169857A858B859C85F5
:101080000E940C309B01AC012C193D094E095F09EF
:10109000C501B4010E94C52E69017A018FEFC81AFB
:1010A000D80AE80AF80A560161E083E00E94251593
:1010B000C114D10409F496C0EFEFCE16D10409F49F
:1010C0008CC0E4E0F8E0E4918E2F90E0FC013197D1
:1010D000EE30F10508F062C0E357FF4F0C941A326E
:1010E00084B5806884BDC7BC80C084B5806284BD7F
:1010F000C8BC7BC080918000806880938000D092C3
:101100008900C092880071C08091800080628093C5
:101110008000D0928B00C0928A0067C080919000BE
:10112000806880939000D0929900C09298005DC032
:1011300080919000806280939000D0929B00C0923A
:101140009A0053C080919000886080939000D09264
:101150009D00C0929C0049C08091C000806880932F
:10116000C0008091C0008F7B8093C000C092CF00F0
:101170003CC08091C00080628093C000C092D000CB
:1011800034C08091C20088608093C2008091C20008
:101190008B7F8093C200C092D20027C0F0E8AF16C8
:1011A000B104DCF41FC029813A814B815C81C50107
:1011B000B4010E94F93020E030E040E85FE30E9493
:1011C000282F9B01AC01C701B6010E94F43061E0F9
:1011D00087FD05C083E00E94251581E004C083E0FF
:1011E0000E94251580E00E948E1860919E0170E09B
:1011F00060587109072E000C880B990B0E9444302F
:1012000020E030E04FE753E40E949A2F6B017C010D
:101210006093890370938A0380938B0390938C036C
:1012200020E030E0A9010E94F4301816ACF4A701C8
:10123000960160E070E080E89FE30E94282F6093B1
:10124000850370938603809387039093880380E0DF
:1012500090E0A0E8BFE330C020E030E0A901C70182
:10126000B6010E94952F87FF1BC080E090E0A0E8A8
:10127000BFE38093850390938603A0938703B09385
:1012800088039C01AD01C701B6010E94292F60931C
:10129000810370938203809383039093840314C02B
:1012A00080E090E0A0E8BFE38093850390938603FD
:1012B000A0938703B0938803809381039093820364
:1012C000A0938303B093840390919901892F827036
:1012D00090FFAEC081117CC0101611060CF042C008
:1012E00080905B0490905C04C0905904D0905A04A4
:1012F0000D2C000CEE08FF082801110F6608770876
:10130000092C000CAA08BB08C501B4010E94443096
:101310002091810330918203409183035091840393
:101320000E94F9300E941330CB01A0E0B0E0BC0174
:10133000CD016C197D098E099F09A30192010E94BC
:10134000F631A50194010E94C52EC20ED31EE41EE3
:10135000F51E1092890010928800D0928B00C092E6
:101360008A0024C10115110571F180905B049090F1
:101370005C04C0905904D0905A040D2C000CEE0867
:10138000FF0844245524401A510A052C000C660815
:101390007708092C000CAA08BB08C501B4010E94FB
:1013A000443020918503309186034091870350910A
:1013B00088030E94F9300E941330CB01A0E0B0E016
:1013C000BC01CD011CC010928900109288002BC076
:1013D00017FD02C02A9A01C02A98C0905904D090E3
:1013E0005A040D2C000CEE08FF0880905B049090CE
:1013F0005C04092C000CAA08BB08C501B4016C19D7
:101400007D098E099F09A30192010E94F631A50171
:1014100094010E94C52EC20ED31EE41EF51ED0926A
:101420008900C092880010928B0010928A00BEC082
:10143000811177C0101611060CF03FC080905B043C
:1014400090905C04C0905904D0905A040D2C000C6C
:10145000EE08FF082801110F66087708092C000C18
:10146000AA08BB08C501B4010E9444302091810341
:101470003091820340918303509184030E94F9309C
:101480000E941330CB01A0E0B0E0BC01CD016C198B
:101490007D098E099F09A30192010E94F631A501E1
:1014A00094010E94C52EC20ED31EE41EF51E80E0DC
:1014B00090E00E946817C60161C00115110571F125
:1014C00080905B0490905C04C0905904D0905A04C2
:1014D0000D2C000CEE08FF0844245524401A510A34
:1014E000052C000C66087708092C000CAA08BB081C
:1014F000C501B4010E9444302091850330918603D8
:1015000040918703509188030E94F9300E94133064
:10151000CB01A0E0B0E0BC01CD011AC080E090E0BA
:1015200029C017FD02C02A9A01C02A98C090590408
:10153000D0905A040D2C000CEE08FF0880905B043C
:1015400090905C04092C000CAA08BB08C501B401EA
:101550006C197D098E099F09A30192010E94F63141
:10156000A50194010E94C52EDA01C9018C0D9D1DB3
:10157000AE1DBF1D0E94681780E090E02C960FB64C
:10158000F894DEBF0FBECDBFDF91CF911F910F91B9
:10159000FF90EF90DF90CF90BF90AF909F908F9093
:1015A0007F906F905F904F900C945B172C960FB6C6
:1015B000F894DEBF0FBECDBFDF91CF911F910F9189
:1015C000FF90EF90DF90CF90BF90AF909F908F9063
:1015D0007F906F905F904F90089560919701709108
:1015E000980180E090E00E9442309B01AC0160E0F5
:1015F0007EEF8FEF96E40E949A2F08952F923F92EC
:101600004F925F926F927F928F929F92AF92BF9212
:10161000CF92DF92EF92FF920F931F93CF93DF93BE
:10162000CDB7DEB729970FB6F894DEBF0FBECDBF9A
:10163000998788874B012B831D830C831701DF82D9
:10164000CE82042F10E08C819D816C01E12CF12C65
:10165000E885F985F7FD2BC0C8019695982F882756
:1016600097958795BF01681B790B072E000C880B97
:10167000990B0E9444302B013C01C701B6010E9426
:1016800042309B01AC01C301B2010E949A2F2B0191
:101690003C01C8019695982F8827979587959A833E
:1016A0008983EB8190E8E99FB00111242AC0B80139
:1016B0007695762F662777956795E885F9856E0F7D
:1016C0007F1F072E000C880B990B0E9444302B01C2
:1016D0003C01C701B6010E9442309B01AC01C3012D
:1016E000B2010E949A2F2B013C0160E86003C00107
:1016F000619F900D11249A8389832B816203B0012D
:10170000112488859985681B790B072E000C880B9E
:10171000990B0E9444306B017C01B10180E090E0A4
:101720000E9442309B01AC01C701B6010E949A2F72
:101730006B017C018A149B0408F43FC08E819F8159
:101740008A0D9B1D88169906C0F50C811D810A0D16
:101750001B1D8016910690F4B4016A197B0980E084
:1017600090E00E9442309B01AC01C301B2010E9493
:10177000F9300E940C3089819A811CC0821993092A
:1017800088159905E8F48A189B08EE81FF818E1A66
:101790009F0AB401620D731D80E090E00E94423008
:1017A0009B01AC01C701B6010E94F9300E940C30C8
:1017B00088859985860F971F05C080E090E002C05C
:1017C0008885998529960FB6F894DEBF0FBECDBFE8
:1017D000DF91CF911F910F91FF90EF90DF90CF900D
:1017E000BF90AF909F908F907F906F905F904F9041
:1017F0003F902F900895CF92DF92EF92FF920F9338
:101800001F938B019C0140915B0450915C048827DD
:101810009927841B950BBC01990F880B990B061710
:101820001707280739076CF06A01550FEE08FF0803
:10183000C901B801C016D106E206F30614F4C701C7
:10184000B6011F910F91FF90EF90DF90CF90089518
:101850008F929F92AF92BF92CF92DF92EF92FF92C0
:10186000CF93DF934B015C01EA010E94F7046B0107
:101870007C01DE01A50194010E94EF2E0E944430FC
:10188000A70196010E94F93020E030E040E051E4E9
:101890000E94F93020E030E040E251E40E94F9304B
:1018A00020E030E040E85BE30E94F9300E940C3019
:1018B0000E94FB0B90958095709561957F4F8F4F9F
:1018C0009F4FDF91CF91FF90EF90DF90CF90BF902F
:1018D000AF909F908F9008954F925F926F927F92FA
:1018E0008F929F92AF92BF92CF92DF92EF92FF9230
:1018F000CF93DF9300D000D0CDB7DEB74B015C01B2
:1019000057FF02C04D5F5F4F6A01D594C794D594CD
:10191000C7940E94F70469837A838B839C839B011D
:10192000AC01C501B4010E94F93020E030E040E292
:1019300051E40E94F9302B013C0120E030E040E806
:101940005FE30E94F4300D2C000CEE08FF0818161F
:101950001CF4C701B60128C020E030E040E85FEB8E
:10196000C301B2010E94952F87FF06C0C701B601CF
:101970000E94FB0BCB011EC0C701B6010E94443080
:101980009B01AC01C501B4010E94F93029813A8163
:101990004B815C810E94F93020E030E040E251E46C
:1019A0000E94F9300E940C300E94FB0B8827992777
:1019B000861B970B0F900F900F900F90DF91CF9198
:1019C000FF90EF90DF90CF90BF90AF909F908F905F
:1019D0007F906F905F904F9008958F929F92AF92FB
:1019E000BF92CF92DF92EF92FF924B015C01BA015E
:1019F000550F880B990B0E9444306B017C0120E04D
:101A000030E0A901C501B4010E94F430A5019401A0
:101A100018160CF05058C701B6010E94F9306B013E
:101A20007C010E94F7049B01AC01C701B6010E9432
:101A3000F93020E030E040E851E40E94F93020E045
:101A400030E040E251E40E94F93020E030E040E034
:101A50005DE30E94F9300E940C300E94FB0B6B0189
:101A60007C0120E030E0A901C501B4010E94F430FE
:101A700018162CF4882799278C199D090DC020E091
:101A800030E0A901C501B4010E94952F87FF02C073
:101A9000C60102C080E090E0FF90EF90DF90CF9011
:101AA000BF90AF909F908F900895CF92DF92EF926A
:101AB000FF92CF93DF936B017C01EA0120E030E0DD
:101AC000A9010E94F430181694F020E030E0A9013A
:101AD000C701B6010E94952F87FF3AC020E030E091
:101AE000A901C701B6010E94292F6B017C01BE012B
:101AF000DD0F880B990B0E9444309B01AC01C7019C
:101B0000B6010E94F9306B017C010E94F7049B0131
:101B1000AC01C701B6010E94F93020E030E040E896
:101B200051E40E94F93020E030E040E251E40E94AC
:101B3000F93020E030E040E05BE30E94F9300E94A1
:101B40000C300E94FB0B88279927861B970B02C03D
:101B500080E090E0DF91CF91FF90EF90DF90CF9009
:101B60000895FC01CB012091E80022FFFCCF282F33
:101B7000215028F03091F10030833196F9CF24E6DE
:101B800020938D032BEF2093E80008950F931F936C
:101B9000CF93DF93DB01A40FB51FFB016EEFEA17B4
:101BA000FB0791F187FF02C0249101C020810091C1
:101BB000910310919203C0918F03D09190030C1761
:101BC0001D07B4F49091E8009570E1F39091E8005E
:101BD00092FD1CC02093F10020919103309192035B
:101BE0002F5F3F4F2F733327232B11F46093E800AF
:101BF00020919103309192032F5F3F4F30939203D6
:101C0000209391033196CBCFCA0102C08FEF9FEF93
:101C1000DF91CF911F910F910895CF93DF9300D063
:101C200000D01F92CDB7DEB7FC0181819081913A3F
:101C300029F5813009F0BCC08281863051F445E03D
:101C400050E064E973E080E40E94C60D10929403B2
:101C5000AFC0873009F0ACC089838FEF9FEF9B83C3
:101C60008A838BE08C8383E08D8345E050E0BE0166
:101C70006F5F7F4F80E40E94C60D9AC0913209F0D9
:101C800097C0893009F094C08281853009F090C0F6
:101C900064E070E0CE0101960E94B10D86E0809371
:101CA0009403809108018B3021F1A091080181E01B
:101CB0008A0F809308019DE1E09108019E9FF00149
:101CC0001124E752FE4F8081882351F08091080152
:101CD0008B3030F4809108018F5F80930801ECCF46
:101CE0008DE1A89FF0011124E752FE4F81E080832F
:101CF00001C0A0E0A0939503A11104C082E08093ED
:101D0000960350C010920B0581E0809396038A8160
:101D10009DE1A99FD0011124A752BE4F11968C932B
:101D200011978FEF9FEF1F969C938E931E9753965C
:101D30001C921E92529751961C921E925097129688
:101D40008C93129713968C93139755961C921E9210
:101D500054971D961C921E921C9715961C921597CF
:101D60008FEF9FE719969C938E93189757961C9226
:101D70001E9256975B961C921E925A975C961C92E6
:101D80005C9788EE93E01B969C938E931A97E09154
:101D90009501F09196010684F785E02DBD01CE01F5
:101DA000019609958FEF9FEF909398038093970387
:101DB00081E00F900F900F900F900F90DF91CF91D7
:101DC000089542E450E060EF71E080E80E94C60DA3
:101DD00040E250E062E372E080E80E94C60D83E0DA
:101DE00090E00895EF92FF921F93CF93DF93EC0161
:101DF000162FE881F9810480F581E02D09957C0199
:101E0000E881F9810680F781E02D612FCE010995E7
:101E1000C7019927DF91CF911F91FF90EF9008950F
:101E2000FC0191818081813A29F49D7F81E091308C
:101E300091F414C0813279F49A3049F09B3019F052
:101E4000993049F40AC0828180930B0106C08281D7
:101E500080930A0102C080E0089581E008951F92F6
:101E60000F920FB60F9211242F933F934F935F93CE
:101E70006F937F938F939F93AF93BF93EF93FF9352
:101E80000E94AF17FF91EF91BF91AF919F918F91FA
:101E90007F916F915F914F913F912F910F900FBE66
:101EA0000F901F9018951F920F920FB60F9211244A
:101EB0002F933F934F935F936F937F938F939F9352
:101EC000AF93BF93EF93FF930E94AF17FF91EF91F2
:101ED000BF91AF919F918F917F916F915F914F9142
:101EE0003F912F910F900FBE0F901F901895CF929A
:101EF000DF92EF92FF920F931F93CF93DF931F9286
:101F0000CDB7DEB7F82EE42E8B01C82ED92E8C2D3E
:101F10008F198E1588F4F80161918F01C6016983CC
:101F20000E94AF2E6981681719F0C6010E94B72E72
:101F3000FFEFCF1ADF0AEBCF0F90DF91CF911F9108
:101F40000F91FF90EF90DF90CF900895CF92DF92A6
:101F5000EF92FF920F931F93CF93DF931F92CDB712
:101F6000DEB78B016B017C01E61AF70A9C2D901BF2
:101F7000941758F4C7018C0D9D1D49830E94AF2E04
:101F8000F60181936F014981F1CF0F90DF91CF91DD
:101F90001F910F91FF90EF90DF90CF9008958F9257
:101FA0009F92AF92BF92CF92DF92EF92FF9240E06A
:101FB00050E020E0682F70E0812C912C5401839434
:101FC000FA013296DB0102C0B595A795EA95E2F7D2
:101FD00075016401042E04C0CC0CDD1CEE1CFF1C3A
:101FE0000A94D2F7A0FF02C02C2902C0C0942C2171
:101FF0004F5F5F4F4430510519F730E0220F331F18
:10200000F901EB5CFE4F80FF05C0808191819695C0
:10201000879502C080819181FF90EF90DF90CF90F3
:10202000BF90AF909F908F9008951F920F920FB620
:102030000F921124EF92FF921F932F933F934F9390
:102040005F936F937F938F939F93AF93BF93EF9320
:10205000FF93CF93DF93CDB7DEB76197DEBFCDBFE0
:102060001092E9008091E80083FF59C1FE013A9681
:10207000CF0128E02E0F2E1729F03091F100308388
:102080003196F9CF24E620938D0322EF2093E800C8
:102090002A8527FF05C03091E80030FFFCCF03C040
:1020A0003EEF3093E800322F307609F0C5C08B85C3
:1020B000811105C01092F1001092F10029C1982FF2
:1020C0009D7F913009F424C1853049F48091E80066
:1020D00080FFFCCF8C8580688093E30019C1863037
:1020E00009F07CC01D85E888F9881092E9001092FB
:1020F000920310929103123091F510929003109276
:102100008F030E94E10E99E0BE016F5F7F4FFB01DC
:10211000292F11922A95E9F799831A8391E09E83DA
:1021200090E898879AEF99872091910330919203D4
:10213000275F3F4F3C832B838D831092E9001092E1
:10214000920310929103F0929003E0928F0349E082
:1021500050E080E00E94C60D0E94E10ED9C0F092CE
:102160009003E0928F03123259F441EE54E062E59D
:1021700072E080E80E94C60D892B09F0C9C0CCC06E
:10218000113069F488899989089711F410938E03A6
:1021900080918E03811111C061E777E016C0133082
:1021A00009F0BAC08C85882359F0823061F0813003
:1021B00009F0B2C063E377E008C063E877E005C0E8
:1021C0006BE477E002C06FE477E06115710509F414
:1021D000A3C0FB01449150E080E849C0873009F476
:1021E0009BC0883021F481E08093F10091C0893058
:1021F00009F08EC0237009F08FC080E090E031E0DC
:1022000026E341E0480F4093E9003093EB0001964C
:10221000FC01EB56F84FE491E093EC002093ED00C5
:102220008530910571F78EE78093EA001092EA00FD
:102230008C85809394016CC0288939891092E900BB
:1022400010929203109291033093900320938F0386
:102250002E85211154C08B859A85913A59F481328B
:1022600009F05AC047E050E06CE071E080E00E9465
:10227000C60D4EC0913209F04FC0803239F467E08C
:1022800070E08CE091E00E94B10D42C0823209F012
:1022900043C08C858093130180910C0190910D01B6
:1022A000A0910E01B0910F01803B9440A105B105B2
:1022B00079F58091130180FD11C087E797E790932E
:1022C0000108809300089BE088E10FB6F894A89578
:1022D000809360000FBE909360001AC00FB6F89410
:1022E000A8958091600088618093600010926000E2
:1022F0000FBEA895109201081092000809C0223064
:1023000059F4E0910C05F0910D050995882321F011
:102310008EEF8093E80003C081E28093EB0061962A
:102320000FB6F894DEBF0FBECDBFDF91CF91FF9106
:10233000EF91BF91AF919F918F917F916F915F913D
:102340004F913F912F911F91FF90EF900F900FBEF3
:102350000F901F9018958F929F92AF92BF92CF923D
:10236000DF92EF92FF920F931F93CF93DF9300D0F2
:102370001F92CDB7DEB7382F8B018091940188234F
:1023800089F04A018AEFF82E832F8770E82E90E4B7
:10239000C92E832F8072B82E2AE3D22E832F807409
:1023A000A82E21C08FEF9FEF5FC08FB7F894E09207
:1023B000E9009091E80095FF1AC09091F2002C2D51
:1023C000291B8FBF211115C0FA94FF2059F361E03A
:1023D00070E080E090E039834A835B830E94B1150E
:1023E00039814A815B8181149104F9F634C020E07F
:1023F000E8CF822F90E0881699060CF4282D822FC2
:1024000090E0881A990A6FB7F894E092E900BB202F
:1024100029F02150A8F01092F100FBCFF80137FF0E
:1024200007C0215058F074917093F1003196F9CFA4
:10243000215020F071917093F100FACF080F191F0D
:102440008091E80085FF0DC08114910411F4A11062
:1024500008C06FBFC8CF5D9A84E680939303CA011A
:1024600003C0D092E800F5CF0F900F900F90DF914E
:10247000CF911F910F91FF90EF90DF90CF90BF9081
:10248000AF909F908F90089590919401992311F0AF
:1024900057FF03C08FEF9FEF08952FB7F894877011
:1024A0008093E9008091F20090E0841795070CF486
:1024B000AC01842FFB0194E6815030F090938D03A2
:1024C0003091F1003193F8CF4115510521F0809101
:1024D000F200882319F02FBFCA0108958BE680937C
:1024E000E800F9CF1F920F920FB60F9211242F938D
:1024F0003F934F935F936F937F938F939F93AF938C
:10250000BF93EF93FF93CF93DF93CDB7DEB7C05464
:10251000D109DEBFCDBF8091E1001092E10083FFC1
:102520000FC01092E90091E09093EB001092EC0044
:1025300092E39093ED001092940198E09093F00054
:1025400082FF46C083E08093E9008091F2008823F7
:1025500019F08AE38093E8009FB7F89482E08093B3
:10256000E9008091F2009FBF882321F084E694E087
:102570000E94EA149FB7F89485E08093E900809167
:10258000F2009FBF8823C1F080910E0590910F0546
:10259000892B91F040E450E0BE016F5F7F4F85E0F2
:1025A0000E94441297FD08C0E0910E05F0910F05BE
:1025B000BC01CE010196099580919303882341F0D7
:1025C00080919303815080939303811101C05D98A2
:1025D000C05CDF4F0FB6F894DEBF0FBECDBFDF91FA
:1025E000CF91FF91EF91BF91AF919F918F917F918B
:1025F0006F915F914F913F912F910F900FBE0F9070
:102600001F901895EF92FF920F931F93CF93DF9334
:102610001F92CDB7DEB789838B017A0141E050E08C
:10262000BE016F5F7F4F84E00E94AB11A701B8012C
:1026300084E40E94AB110F90DF91CF911F910F9115
:10264000FF90EF900895DC01683810F0685825C0BD
:10265000E62FF0E067FF12C0E058F10981E090E05A
:1026600001C0880FEA95EAF7809514969C9114971B
:10267000892314968C93149760E00FC0E059FE4FA5
:102680006491662311F167FF08C014968C9114972A
:102690008D7F14968C9314976F77FD01369686E0A4
:1026A000662321F09081961301C0108281503196EB
:1026B0008111F6CFBD016C5F7F4F48E050E082E0B2
:1026C0000E94021381E090E0089580E090E0089578
:1026D000FC011682178210861186128613861482D8
:1026E000BC016C5F7F4F48E050E082E00C94021325
:1026F000DC01683810F068582DC0E62FF0E067FF65
:1027000011C0E058F10981E090E001C0880FEA951E
:10271000EAF714969C911497892B14968C9314972E
:1027200060E018C0E059FE4F6491611109C081E07A
:1027300090E013969C938E93129780E090E008951A
:1027400067FF08C014968C911497826014968C933E
:1027500014976F7716968C911697861751F11796E6
:102760008C911797861729F118968C9118978617D0
:1027700001F119968C9119978617D9F01A968C91B8
:102780001A978617B1F01B968C911B97861789F0C4
:10279000FD01369680E090E02191211105C0FD01F8
:1027A000E80FF91F668305C0019686309105A1F7F1
:1027B000BECFBD016C5F7F4F48E050E082E00E94D9
:1027C000021381E090E00895CF92DF92EF92FF92A2
:1027D0000F931F93CF93DF936C01EB017B01E40E0A
:1027E000F51E00E010E0CE15DF0561F06991D6011D
:1027F000ED91FC910190F081E02DC6010995080F43
:10280000191FF1CFC801DF91CF911F910F91FF9058
:10281000EF90DF90CF90089583E08093E90080915E
:10282000F200882319F08AE38093E800089520914C
:10283000510430915204809153049091540428170C
:102840003907A9F0E0915304F0915404EF5EFB4F77
:10285000808120915304309154042F5F3F4F2F7398
:102860003327309354042093530490E008958FEF5E
:102870009FEF0895209151043091520480915304A8
:10288000909154042817390749F0E0915304F091CE
:102890005404EF5EFB4F808190E008958FEF9FEF2F
:1028A00008958091510490915204209153043091E5
:1028B0005404821B930B8F739927089585ED8093A1
:1028C000BC008091BC0084FDFCCF1092E20308950F
:1028D0004091BC03262F30E0240F311D21323105F9
:1028E000DCF42091E2032430C9F4FC0180E090E0A4
:1028F000861758F43091BC032191DC01A656BC4FD9
:10290000A30FB11D2C930196F3CF8091BC03680FE8
:102910006093BC0380E0089581E0089582E008950B
:1029200008958FEF9FEF08958FEF9FEF08958091A7
:10293000990390E09195819591090895CF93DF9344
:1029400000D0CDB7DEB7CB01642F49835A830E94F4
:1029500068144981842F5A81952F0F900F90DF9131
:10296000CF910895CF93DF931F92CDB7DEB76983E0
:1029700061E0CE0101960E94681481E090E00F9022
:10298000DF91CF9108950E9427320F931F93CF9329
:10299000DF931F92CDB7DEB78C016983809113015D
:1029A000882359F041E050E0BE016F5F7F4F83E024
:1029B0000E94AB11181619063CF081E090E0F80176
:1029C0009383828380E090E00F90DF91CF911F91FD
:1029D0000F9108950F931F93CF93DF931F92CDB75D
:1029E000DEB700915104109152040F5F1F4F0F7317
:1029F0001127809153049091540408171907F9F096
:102A000041E050E0BE016F5F7F4F82E00E944412C0
:102A1000019719F4898190E002C08FEF9FEF8F3FFB
:102A20002FEF920761F0E0915104F0915204EF5EB4
:102A3000FB4F80831093520400935104D2CF0F9028
:102A4000DF91CF911F910F910895CF93DF9390E085
:102A5000FC01EE51F84F2491FC01ED53F84F8491A5
:102A6000882361F190E0880F991FFC01E955F84F28
:102A7000C591D491FC01EB54F84FA591B49161112B
:102A800009C09FB7F8948881209582238883EC91B0
:102A90002E230BC0623061F49FB7F8943881822FE7
:102AA000809583238883EC912E2B2C939FBF06C0A7
:102AB0008FB7F894E8812E2B28838FBFDF91CF91B9
:102AC0000895823108F08251E82FF0E0E556F84F82
:102AD000E49180917B00E3FB222720F930E095E030
:102AE000220F331F9A95E1F78F7D282B20937B00CF
:102AF000E770E064E0937C0080917A0080648093CA
:102B00007A0080917A0086FDFCCF80917800209138
:102B1000790090E0922B08953FB7F89480910D04CE
:102B200090910E04A0910F04B091100426B5A89BBB
:102B300005C02F3F19F00196A11DB11D3FBFBA2F4F
:102B4000A92F982F8827820F911DA11DB11DBC01AF
:102B5000CD0142E0660F771F881F991F4A95D1F774
:102B60000895CF92DF92EF92FF92CF93DF936B01A4
:102B70007C010E948C15EB01C114D104E104F10425
:102B800079F00E948C156C1B7D0B683E7340A0F39E
:102B900081E0C81AD108E108F108C851DC4FECCF38
:102BA000DF91CF91FF90EF90DF90CF9008952FB7F6
:102BB000F8946091090470910A0480910B0490913B
:102BC0000C042FBF08951F920F920FB60F9211247D
:102BD0002F933F938F939F93AF93BF93809109045B
:102BE00090910A04A0910B04B0910C043091080458
:102BF00023E0230F2D3720F40196A11DB11D05C040
:102C000026E8230F0296A11DB11D2093080480938E
:102C1000090490930A04A0930B04B0930C048091D0
:102C20000D0490910E04A0910F04B0911004019630
:102C3000A11DB11D80930D0490930E04A0930F0469
:102C4000B0931004BF91AF919F918F913F912F91BD
:102C50000F900FBE0F901F9018951F920F920FB6F6
:102C60000F9211242F933F934F935F936F937F9312
:102C70008F939F93AF93BF93EF93FF938091B9008E
:102C8000887F803609F49CC068F5883209F45BC0FF
:102C900090F4803109F454C038F4882309F4F6C064
:102CA000883009F44DC0F6C0883109F44CC0803238
:102CB00009F45DC0EFC0803409F468C048F4803383
:102CC00009F455C0883309F0E5C08093E103D8C00A
:102CD000803509F44FC0883509F45DC0883409F0A7
:102CE000D9C0D6C0883909F4C7C0A8F4883709F418
:102CF00067C038F4883609F463C0803709F460C0CF
:102D0000C9C0883809F4B8C0803909F45FC0803878
:102D100009F0C0C05BC0803B09F486C038F4803A3B
:102D200009F466C0883A09F47FC0B4C0803C09F455
:102D3000A7C0883C09F4A4C0883B09F48AC0AAC093
:102D40008091070410C090910604809105049817A3
:102D500070F5E091060481E08E0F80930604F0E0A8
:102D6000EB51FC4F80818093BB0085EC86C0809343
:102D7000E1038EC0E091060481E08E0F809306048B
:102D80008091BB00F0E0EB51FC4F808390910604F2
:102D9000809105046EC0E091060481E08E0F80935F
:102DA00006048091BB00F0E0EB51FC4F80838091E2
:102DB000E40381116DC081E08093E30384EA61C084
:102DC00083E08093E2031092E003CFCF8091E00391
:102DD000803208F051C0E091E00381E08E0F8093D3
:102DE000E0038091BB00F0E0E054FC4F8083BDCF56
:102DF00085EC8093BC001092E2038091E003803266
:102E000030F4E091E003F0E0E054FC4F1082609178
:102E1000E00370E0E091BE03F091BF0380EC93E02B
:102E200009951092E00336C084E08093E20310928B
:102E3000BD031092BC03E091BA03F091BB03099566
:102E40008091BC03811105C081E08093BC03109286
:102E50009A03E091BD0381E08E0F8093BD03F0E003
:102E6000E656FC4F80818093BB009091BD0380911A
:102E7000BC03981708F479CF85E88093BC000AC09A
:102E800085EC8093BC001092E20304C01092E10331
:102E90000E945E14FF91EF91BF91AF919F918F912E
:102EA0007F916F915F914F913F912F910F900FBE46
:102EB0000F901F9018952091970130919801281735
:102EC000390708F4C90190938B0080938A00089514
:102ED00020919701309198012817390708F4C9010A
:102EE000909389008093880008950F931F930E9408
:102EF000D71560936C0470936D0480936E04909367
:102F00006F04E0916404F09165040084F185E02D84
:102F100084E694E0099597FF1FC00E94D7150091A1
:102F20006C0410916D0420916E0430916F04DC01EB
:102F3000CB01801B910BA20BB30B00916804109185
:102F4000690420916A0430916B0480179107A207ED
:102F5000B307B8F28FEF9FEF1F910F9108959091F3
:102F6000630489B18C70892B90E09C01359527957D
:102F7000359527952093630440915F045091600438
:102F80006091610470916204FC01E75BFE4F8081F7
:102F9000082E000C990BAA0BBB0B840F951FA61FC4
:102FA000B71F80935F0490936004A0936104B09373
:102FB000620480915E040895E0916404F0916504D8
:102FC0000190F081E02D682F84E694E00994CF937E
:102FD000DF938DE00E94DC17EC018AE00E94DC1791
:102FE0008C0F9D1FDF91CF910895009769F0FC0130
:102FF00001900020E9F73197AF01481B590BBC0144
:1030000084E694E00C94E41380E090E008958F92BD
:103010009F92AF92BF92EF92FF920F931F93CF9325
:10302000DF93CDB7DEB7A1970FB6F894DEBF0FBE22
:10303000CDBF162F042F19A2423008F40AE07E01FA
:1030400021E2E20EF11C802E912CA12CB12C612FDB
:10305000A50194010E94F72E029F1019112481E00E
:10306000E81AF1081A3014F4105D01C0195CF70178
:103070001083122F732FCA01232B242B252B39F7F2
:10308000C7010E94F517A1960FB6F894DEBF0FBED8
:10309000CDBFDF91CF911F910F91FF90EF90BF9027
:1030A000AF909F908F900895CF92DF92EF92FF9212
:1030B000CF93DF9397FF19C06B017C018DE20E94D3
:1030C000DC17EC0166277727CB016C197D098E0987
:1030D0009F094AE00E9407188C0F9D1FDF91CF9136
:1030E000FF90EF90DF90CF9008954AE0DF91CF916D
:1030F000FF90EF90DF90CF900C940718CF93DF9361
:10310000BC01990F880B990B0E945418EC010E9486
:10311000E7178C0F9D1FDF91CF910895E4E0F8E051
:103120004491E5EEF7E09491E6ECF7E02491222358
:1031300009F44DC04423C1F150E0FA013197EE305B
:10314000F10590F5E556FF4F0C941A32309180004E
:103150003F7703C0309180003F7D3093800024C0D2
:1031600034B53F7702C034B53F7D34BD1DC03091CA
:1031700090003F7707C0309190003F7D03C03091B1
:103180009000377F309390000FC03091C0003F77A0
:1031900003C03091C0003F7D3093C00005C0309126
:1031A000C200377F3093C200E22FF0E0EE0FFF1F26
:1031B000EB54F84FA591B4912FB7F894EC9181118D
:1031C00003C090959E2301C09E2B9C932FBF089512
:1031D0004F925F926F927F928F929F92AF92BF9227
:1031E000CF92DF92EF92FF92CF93DF93F894C0904B
:1031F0005F04D0906004E0906104F09062047894E1
:1032000080915B0490915C042091590430915A04A0
:10321000821B930B97FD03969595879595958795BA
:103220000E94AF0768EC70E080E090E00E94B1156A
:1032300026013701C8EED3E080915B0490915C04D5
:103240002091590430915A04821B930B97FD0396E9
:1032500095958795959587950E94AF0768EC70E0E6
:1032600080E090E00E94B115F89480905F04909007
:103270006004A0906104B0906204789448145904EA
:103280006A047B0421F0219724013501A9F680917D
:10329000550490915604A0915704B0915804F894A5
:1032A00080935F0490936004A0936104B0936204E0
:1032B000789480E090E00E94AF07C814D904EA0433
:1032C000FB0411F482E001C081E080937E0481E080
:1032D00090E0DF91CF91FF90EF90DF90CF90BF9083
:1032E000AF909F908F907F906F905F904F900C94D5
:1032F0007E18682F70E080E090E04AE00C94071898
:10330000FF920F931F93CF93DF9300D000D0CDB7E0
:10331000DEB70E947517FC0197FD11C08D32910533
:1033200091F0C0970A9778F0E0916404F0916504F9
:103330000680F781E02D84E694E00995EACF60E00D
:1033400070E0CB014CC020E030E0A901F12CE1306D
:10335000F105F1F0ED32F105C9F0CF01C0970A9700
:10336000B8F4AAE0B0E00E94E42E8F01FF0F220B18
:10337000330BDC01CB01800F911FA21FB31F9C01F7
:10338000AD01205331094109510902C0FF24F394D2
:10339000E0916404F09165040680F781E02D84E6F5
:1033A00094E029833A834B835C8309950E947517C7
:1033B000FC01C09729813A814B815C810A9738F2E0
:1033C000E130F10521F2FF2041F066277727CB019C
:1033D000621B730B840B950B02C0CA01B9010F90DD
:1033E0000F900F900F90DF91CF911F910F91FF9051
:1033F0000895CF93DF93CDB7DEB7C454D1090FB68C
:10340000F894DEBF0FBECDBF789484B5826084BDD2
:1034100084B5816084BD85B5826085BD85B58160D8
:1034200085BD80916E00816080936E001092810056
:103430008091810082608093810080918100816011
:1034400080938100809180008160809380008091D2
:1034500091008260809391008091910081608093BF
:103460009100809190008160809390008091C100D4
:1034700084608093C1008091C10082608093C1000C
:103480008091C10081608093C1008091C300816000
:103490008093C3008091C00082608093C0008091BF
:1034A000C20081608093C20080917A008460809322
:1034B0007A0080917A00826080937A0080917A000D
:1034C000816080937A0080917A00806880937A008E
:1034D0001092940181E08093D70080EA8093D80015
:1034E00082E189BD09B400FEFDCF61E070E080E0BB
:1034F00090E00E94B11580E98093D8008CE0809321
:10350000E2001092E0000E948C15609365037093B6
:103510006603809367039093680310923D031092B3
:103520005C0310925B0310925303109254031092A9
:1035300055031092560310925A0310925903109299
:10354000610310926203109263031092640342E0DD
:10355000BE01615F7F4F80E090E00E94A60F8F85E3
:1035600098898E3B910509F4C4C08EEB90E09E874C
:103570008D8742E0BE01635F7F4F80E090E00E9454
:10358000770F19821A821B821C8244E0BE016F5F92
:103590007F4F82E090E00E94770F88E394E09E875F
:1035A0008D8742E0BE01635F7F4F86E090E00E941E
:1035B000770F84E6898B41E0BE016F5E7F4F88E024
:1035C00090E00E94770F41E0BE016F5E7F4F8BE07D
:1035D00090E00E94770F41E0BE016F5E7F4F8CE06C
:1035E00090E00E94770F41E0BE016F5E7F4F80E167
:1035F00090E00E94770F41E0BE016F5E7F4F8DE04B
:1036000090E00E94770F82E3898B41E0BE016F5EFC
:103610007F4F89E090E00E94770F41E0BE016F5E2E
:103620007F4F8AE090E00E94770F41E0BE016F5E1D
:103630007F4F8EE090E00E94770F86E4898B41E017
:10364000BE016F5E7F4F8FE090E00E94770F1E8675
:103650001D8642E0BE01635F7F4F81E190E00E94E2
:10366000770F84EF91E09E878D8742E0BE01635F14
:103670007F4F83E190E00E94770F8FEF9FE09E875E
:103680008D8742E0BE01635F7F4F85E190E00E943D
:10369000770F80E890E09E878D8742E0BE01635FF0
:1036A0007F4F87E190E00E94770F81E0898B41E0B6
:1036B000BE016F5E7F4F88E190E00E94770F80E649
:1036C00099E0A0E0B0E089839A83AB83BC8344E0B7
:1036D000BE016F5F7F4F89E190E00E94770F89E024
:1036E000898B41E0BE016F5E7F4F8DE190E00E94CB
:1036F000770F42E06FE971E086E090E00E94A60F4C
:1037000044E06AE971E089E190E00E94A60F41E09F
:1037100061EA71E088E090E00E94A60F41E069EA6A
:1037200071E089E090E00E94A60F41E067EA71E055
:103730008AE090E00E94A60F41E06CEA71E08BE025
:1037400090E00E94A60F41E06BEA71E08CE090E00F
:103750000E94A60F41E06AEA71E08DE090E00E94CD
:10376000A60F41E068EA71E08EE090E00E94A60FAB
:1037700041E065E373E08FE090E00E94A60F41E036
:1037800062EA71E080E190E00E94A60F41E06EE9FC
:1037900071E087E190E00E94A60F41E064E473E0ED
:1037A00088E190E00E94A60F42E069E574E081E1C3
:1037B00090E00E94A60F42E06BE574E083E190E0A8
:1037C0000E94A60F42E06EE373E085E190E00E9464
:1037D000A60F6091590470915A04072E000C880BB3
:1037E000990B0E9444306B017C0180915B049091A5
:1037F0005C04BC01990F880B990B0E9444309B011B
:10380000AC01C701B6010E949A2F609340037093E8
:103810004103809342039093430341E069E971E0DF
:103820008DE190E00E94A60F60919A0170919B013A
:1038300080919C0190919D010E94443020E030E0F5
:1038400044EB53E40E949A2F6B017C0180919F010D
:103850009091A001BC01990F880B990B0E944430F4
:103860009B01AC01C701B6010E94F9300E940C30E7
:1038700060935504709356048093570490935804B2
:1038800022E030E040E050E00E94C52E2093360355
:1038900030933703409338035093390362E080E05C
:1038A00022962FAF229725963FAF259723964FAFAD
:1038B000239724965FAF24970E94251562E081E04C
:1038C0000E94251510925E0422962FAD2297259610
:1038D0003FAD259723964FAD239724965FAD249750
:1038E00020935F043093600440936104509362041A
:1038F000109263044A9B05C08091630481608093A9
:1039000063044B9B05C080916304826080936304D1
:10391000809169008F7C806180936900EA9A809130
:1039200069008F73806480936900EB9A60E082E1A4
:103930000E94251560E083E10E94251560E084E186
:103940000E94251560E085E10E94251562E084E073
:103950000E94251562E08EE00E94251562E08FE04E
:103960000E94251562E082E00E94251562E086E053
:103970000E94251562E087E00E94251562E088E03C
:103980000E94251562E085E00E94251584E191E002
:1039900090939601809395018DE09EE090930D05A4
:1039A00080930C058FE595E090930F0580930E05AD
:1039B000229A509A809199010E94CF0F909398017A
:1039C0008093970190935C0480935B04259A269AD8
:1039D0008091990180FF10C080EA8093800081E18E
:1039E0008093810080919701909198019093870036
:1039F0008093860013E03BC01092800010928100FB
:103A000010926F0016BA809197019091980190934F
:103A1000870080938600109289001092880010928F
:103A20008B0010928A0080918100816080938100D8
:103A30008091800082608093800080918100886105
:103A40008093810080E090E00E9468178091800060
:103A5000806880938000259A80E090E00E945B1748
:103A600080918000806280938000269AC3CF589A0C
:103A700064E170E080E090E00E94B115589864E144
:103A800070E080E090E00E94B115115081F780E075
:103A900090E00E94AF078091360390913703A09188
:103AA0003803B0913903F89480935F0490936004D5
:103AB000A0936104B0936204789488E090E09093BE
:103AC0004A03809349038FEF97E090933C038093E0
:103AD0003B0380919E0180933A030E948C15609372
:103AE000760470937704809378049093790400911E
:103AF000690310916A0320916B0330916C032B01D1
:103B00003C01401A510A620A730A409272045092B0
:103B100073046092740470927504009165031091AF
:103B2000660320916703309168036B017C01C01A22
:103B3000D10AE20AF30A40EDC41647E0D406E104D4
:103B4000F10410F40C940F2E6093650370936603D8
:103B50008093670390936803F89440915F045091B9
:103B600060046091610470916204789480913603DE
:103B700090913703A0913803B09139032A013B019A
:103B8000481A590A6A0A7B0A4E8A5F8A688E798EB9
:103B900040926103509262036092630370926403E7
:103BA00080917F0490918004A0918104B09182045F
:103BB00040927F045092800460928104709282044B
:103BC00020918704222309F446C01091B00404E038
:103BD000109F90011124A90141585B4F7A01481AA6
:103BE000590A6A0A7B0AC301B2010E944430D70114
:103BF00019966D937D938D939C931C97012FAAE04A
:103C0000FA2E60E070E0CB01B4E00B9FF0011124CC
:103C1000E158FB4F21853285438554850E94292F29
:103C2000002311F0015001C009E0FA94F110ECCF2B
:103C300020E030E040E251E40E949A2F1F5F1A30EA
:103C400018F41093B00402C01092B0046CA77DA7C2
:103C50008EA79FA70FC081E08093870410928304F2
:103C60001092840410928504109286041CA61DA64E
:103C70001EA61FA62091B1043091B2044091B30456
:103C80005091B4048CA59DA5AEA5BFA58093B104A9
:103C90009093B204A093B304B093B4048091B90498
:103CA000882309F443C010910A05E4E01E9FC00177
:103CB0001124BC0168577B4F7B016CA57DA5CD010C
:103CC0000E94282FD701D2966D937D938D939C935C
:103CD000D597012FF4E1FF2E60E070E0CB01B4E056
:103CE0000B9FF0011124E857FB4F22A933A944A9E7
:103CF00055A90E94292F002311F0015001C003E1B2
:103D0000FA94F110ECCF20E030E040EA51E40E9458
:103D10009A2F1F5F143118F410930A0502C01092F5
:103D20000A056CAB7DAB8EAB9FAB0FC081E080937F
:103D3000B9041092B5041092B6041092B704109210
:103D4000B8041CAA1DAA1EAA1FAA80910B058823CD
:103D500009F441C08E899F89A88DB98DB7FF07C02E
:103D6000B095A095909581959F4FAF4FBF4F02970B
:103D7000A105B1050CF4DCC78091440380FFD8C7CE
:103D80000E94ED0A9B01AC0160E070E080E094E4E9
:103D90000E949A2F6B017C016091350370E080E0F6
:103DA00090E00E9444309B01AC01C701B6010E9423
:103DB000F93020E030E048EC52E40E949A2F0E9453
:103DC0000C30AB016E897F89888D998D0E94280CFB
:103DD0002B013C01B0C7EDEAF1E0FBA7EAA71B8A83
:103DE0001A8A412C512C32010A891B890F5F1F4FFF
:103DF0001B8B0A8B4DE19801429F8001439F100D60
:103E0000112407521E4FD8018C918370833009F022
:103E100082C70E94ED0A6B017C01F8012085318583
:103E2000A689B7890E9420322FEF3FE740E050E09B
:103E30000E94C52ECA01B9010E944430A701960113
:103E40000E949A2F0E940C306B017C01D8011A96B7
:103E50008D919C911B97059730F4E4E0F0E01B9660
:103E6000FC93EE931A972DE10A891B89209FF0019C
:103E7000219FF00D1124E752FE4FE1818E2F90E03B
:103E8000FC013197ED30F10508F02FC7EA5AFF4FDA
:103E90000C941A320E94ED0A6A8F7B8F8C8F9D8F53
:103EA0006DE14A895B89649FC001659F900D112473
:103EB000DC01A752BE4F1D0118968D909C9019975A
:103EC0005496AD90BC9055971E96CD90DC901F9760
:103ED0005096ED90FC90519752960D911C915397EE
:103EE00013962C91139712964C91129756968D918A
:103EF0009C915797EAA5FBA5608171810E94FE0AFB
:103F00009401DC010E9420322FEF3FE740E050E0B7
:103F10000E94C52ECA01B9010E9444302A8D3B8DF2
:103F20004C8D5D8D0E949A2F0E940C300E94FB0BDD
:103F30009B01AC01A091AC01B0E00E94E42E24E60C
:103F400030E040E050E00E94C52E421A530A640A55
:103F5000750AD10115968C91159782FFC6C61C96DD
:103F60006D917C911D9780E090E00E9442302BED96
:103F70003FE049EC50E40E94F93020E030E040E0BE
:103F800058E30E94F9300E9466319B01AC01C301E5
:103F9000B20122962FAF229725963FAF2597239601
:103FA0004FAF239724965FAF24970E944430229608
:103FB0002FAD229725963FAD259723964FAD23979A
:103FC00024965FAD24970E94F9300E940C302B019B
:103FD0003C018BC60E94ED0A6A8F7B8F8C8F9D8F70
:103FE0005DE1E52ECA88DB88EC9CF001ED9CF00DCC
:103FF0001124E752FE4F008511851F8F0E8FC48854
:10400000D588DBA2CAA2E684F784FFA2EEA20089CB
:10401000118919AB08AB028913891EAF0DAF8380DC
:104020009280AAA5BBA52D903C9006851785678137
:10403000A6800A2C000CBB08062E000C770B6A1910
:104040007B09CB01770FAA0BBB0B6627782F892F33
:104050009A2F0E9444306B017C01B80180E090E00F
:104060000E94423020E030E04AE754E40E949A2F58
:104070009B01AC01C701B6010E949A2F6B017C0124
:10408000C101B8010E940632BC0180E090E00E94AC
:10409000423020E030E04AE754E40E949A2F9B012E
:1040A000AC01C701B6010E94F9300E940C30BA2C55
:1040B000AA24C501860F971FAAA0BBA0CEA0DFA08F
:1040C000E8A8F9A80DAD1EAD282D492DB1010E941B
:1040D000FE0A2E8D3F8DDC010E9420322FEF3FE73C
:1040E00040E050E00E94C52ECA01B9010E94443050
:1040F0002A8D3B8D4C8D5D8D0E949A2F0E940C3035
:104100000E94FB0B461A570A680A790AEEC50E94FC
:10411000ED0A6A8F7B8F8C8F9D8F4DE1E42ECA88CC
:10412000DB88EC9CF001ED9CF00D1124E752FE4F72
:10413000008511851F8F0E8F228D338D3BA32AA3FF
:10414000348D3EA382849384A488B588C684D784A2
:10415000E088F1880289138923814281AAA5BBA541
:104160002D903C9086899789B1010E94FE0A8C01AE
:10417000B40180E090E00E94423020E030E04AE765
:1041800054E40E949A2F9B01AC0160E070E080E84B
:104190009FE30E949A2F6B017C01C101B4010E9430
:1041A0000632BC0180E090E00E94423020E030E026
:1041B0004AE754E40E949A2F9B01AC01C701B60163
:1041C0000E94F9306B017C01BEA16B2F70E080E092
:1041D00090E00E94423020E030E040E85BE30E9443
:1041E000F9309B01AC01C701B6010E94292F2BEDCC
:1041F0003FE049EC50E40E94F9300E9466319B0197
:10420000AC01EAA1FBA16F01FF0FEE08FF08B801A6
:10421000110F880B990B22962FAF229725963FAF4F
:10422000259723964FAF239724965FAF24970E943C
:10423000443022962FAD229725963FAD25972396A1
:104240004FAD239724965FAD24970E94F9300E94CA
:104250000C30CB01770FAA0BBB0BA7019601280FDF
:10426000391F4A1F5B1FAE8DBF8D0E94E42E2FEFBA
:104270003FE740E050E00E94C52ECA01B9010E940C
:1042800044302A8D3B8D4C8D5D8DCEC00E94ED0A51
:104290006E8F7F8F88A399A33DE1E32ECA88DB88C8
:1042A000EC9CF001ED9CF00D1124E752FE4F0085CF
:1042B00011851BA30AA3228D338DA901330F660B31
:1042C000770B4EA35FA368A779A7548D58AB2284C0
:1042D0003384A488B588C684D784E088F1880289AD
:1042E000138923814281AAA5BBA50D90BC91A02D65
:1042F000BB8FAA8F86899789BD010E94FE0ABC01E7
:10430000990F880B990B0E9444306B017C01B1011D
:1043100080E090E00E94423020E030E04AE754E440
:104320000E949A2F9B01AC0160E070E080E89FE35F
:104330000E949A2F4B015C018A8D9B8DB1010E94D6
:104340000632BC0180E090E00E94423020E030E084
:104350004AE754E40E949A2F9B01AC01C501B401C5
:104360000E94F9304B015C01B8A96B2F70E080E02E
:1043700090E00E94423020E030E040E85BE30E94A1
:10438000F9309B01AC01C501B4010E94292F2BED2E
:104390003FE049EC50E40E94F9300E9466314B0145
:1043A0005C0120E030E0A9010E94F43087FF0CC0DE
:1043B00020E030E0A901C501B4010E94952F87FFDC
:1043C00005C0EFEFEAAF02C0F1E0FAAF0AAD602F2F
:1043D000000F770B880B990B0E9444309B01AC01B6
:1043E000C701B6010E94F9300E940C30CB01770F53
:1043F000AA0BBB0B2EA13FA148A559A5280F391F19
:104400004A1F5B1FAAA1BBA10E94E42E2FEF3FE72A
:1044100040E050E00E94C52ECA01B9010E9444301C
:104420002E8D3F8D48A159A10E949A2F0E940C30D9
:104430009B01AC01A091AB01B0E00E94E42E24E608
:1044400030E040E050E00E94C52E420E531E641E34
:10445000751E4BC40E94ED0A6AA37BA38CA39DA387
:104460004DE12A893B89429FF001439FF00D1124C1
:10447000E752FE4F608571857FA36EA3228D338D39
:10448000C901330FAA0BBB0B88AB99ABAAABBBAB73
:10449000348DA285B385BB8FAA8FA488B588C684C6
:1044A000D784E088F1880289138923814281AAA5F3
:1044B000BBA50D90BC91A02DBF8FAE8F868997892B
:1044C000BD0125963FAF25970E94FE0A1C01EA8D8B
:1044D000FB8DBF0180E090E00E9442304B015C0107
:1044E00025963FAD259760E4630F70E080E090E093
:1044F0000E94423020E030E040E85BE30E94F93067
:10450000A50194010E94F9300E9413308E8D9F8D79
:10451000860F971F6A8D7B8D0E9406328C01BC012D
:1045200080E090E00E94423020E030E04AE754E42E
:104530000E949A2F6B017C0120E030E0A9010E94CB
:10454000F43087FD3CC020E030E04AE754E4C50188
:10455000B4010E949A2F6E8F7F8F88A399A320E0C9
:1045600030E040E05FE30E94F9309B01AC01C701FD
:10457000B6010E94952F87FF22C0B101032C000CC9
:10458000880B990B0E94443020E030E040E850E472
:104590000E94F9302E8D3F8D48A159A10E949A2F7B
:1045A000A70196010E94F9300E940C3031942194A9
:1045B00031086101C60ED71ED9AEC8AE51C020E089
:1045C00030E04AE754E4C501B4010E949A2F4B0140
:1045D0005C0120E030E040E05FE30E94F9309B01A5
:1045E000AC01C701B6010E94F43087FD39C0A501B6
:1045F0009401C701B6010E94952F87FF31C0B10118
:10460000032C000C880B990B0E94443020E030E012
:1046100040E850EC0E94F930A50194010E949A2FC5
:104620006B017C018A8D9B8D96958795B801681BDF
:10463000790B80E090E00E94423020E030E04AE7D1
:1046400054E40E949A2F9B01AC01C701B6010E945D
:10465000F9300E940C307101E60EF71EF9AEE8AE9B
:1046600008AD19ADC801110FAA0BBB0B28A939A9B8
:104670004AA95BA9280F391F4A1F5B1FAEA1BFA122
:104680000E94E42E2FEF3FE740E050E00E94C52E4D
:10469000CA01B9010E9444302AA13BA14CA15DA1ED
:1046A000C3CE0E94ED0A6E8F7F8F88A399A34DE140
:1046B0002A893B89429FF001439FF00D1124E75264
:1046C000FE4F608571857BA36AA3228D338DC9015E
:1046D000330FAA0BBB0B8EA39FA3A8A7B9A7348D3A
:1046E00022843384A488B588C684D784E088F1887E
:1046F0000289138923814281AAA5BBA58D909C9034
:1047000086899789B40125963FAF25970E94FE0AB6
:104710009B8F8A8FB10180E090E00E9442306B0154
:104720007C0125963FAD259760E8630F70E080E03F
:1047300090E00E94423020E030E040E85BE30E94DD
:10474000F930A70196010E94F9300E941330C4018C
:10475000860F971FB1010E9406328C0182159305C6
:10476000D8F5EA8DFB8DBF01FF0F880B990B0E94D6
:1047700044309B01AC010E94292F4B015C0120E0D9
:1047800030E04AE754E4C701B6010E949A2F9B012A
:10479000AC01C501B4010E949A2F6B017C01B801E4
:1047A00080E090E00E94423020E030E04AE754E4AC
:1047B0000E949A2F9B01AC01C701B6010E94F930FB
:1047C0000E940C302A8D3B8D31952195310969016C
:1047D000C60ED71EDCAECBAEEBACFCACC701FF0CFB
:1047E000AA0BBB0B07CE0E94ED0A6E8F7F8F88A3AA
:1047F00099A32DE10A891B89209FF001219FF00DCB
:104800001124E752FE4F408551855BA34AA3228DB8
:10481000338DB901330F880B990B6EA37FA388A743
:1048200099A7348D22843384A488B588C684D7841C
:10483000E088F1880289138923814281AAA5BBA55A
:104840008D909C9086899789B40125963FAF2597D6
:104850000E94FE0A9B8F8A8FB10180E090E00E9447
:1048600042306B017C0125963FAD259760E8630FD0
:1048700070E080E090E00E94423020E030E040E8CC
:104880005BE30E94F930A70196010E94F9300E9473
:104890001330C401860F971FB1010E9406328C01AC
:1048A00082159305E0F56A8D7B8D7195619571098F
:1048B000072E000C880B990B0E9444309B01AC0121
:1048C0000E94292F4B015C0120E030E04AE754E4CC
:1048D000C701B6010E949A2F9B01AC01C501B4012A
:1048E0000E949A2F6B017C01B80180E090E00E9449
:1048F000423020E030E04AE754E40E949A2F9B01C6
:10490000AC01C701B6010E94F9300E940C30EA8D5B
:10491000FB8DE60FF71F2196FFAFEEAF2197219693
:10492000CEACDFAC2197C601DD0CAA0BBB0B62CD70
:104930002DE10A891B89209FF001219FF00D112490
:10494000E752FE4FA28DB38D8090360390903703CF
:10495000A0903803B0903903A50194010E94EF2E76
:10496000DC01CB010FE0B595A795979587950A9542
:10497000D1F7092E000CAA0BBB0B4E895F89688DFD
:10498000798D481B590B6A0B7B0B141615061606FE
:104990001706C4F4A28DB38DA50194010E94EF2ED9
:1049A000DC01CB011FE0B595A795979587951A95E2
:1049B000D1F7092E000CAA0BBB0B4E895F89688DBD
:1049C000798D17C0A28DB38DA50194010E94EF2EA1
:1049D000AB01BC01FFE07595679557954795FA9532
:1049E000D1F7052E000C660B770B8E899F89A88D59
:1049F000B98D481B590B6A0B7B0B0DE1AA89BB894A
:104A00000A9FF0010B9FF00D1124E752FE4F8481A5
:104A100018E0819FC0011124092E000CAA0BBB0BCA
:104A200084179507A607B7070CF05FC1A28DB38D59
:104A3000A50194010E94EF2EDC01CB01EFE0B595BA
:104A4000A79597958795EA95D1F7092E000CAA0BA3
:104A5000BB0B2E893F89488D598D281B390B4A0B7A
:104A60005B0B57FD05C078EF272E33243A9403C023
:104A700068E0262E312C6DE14A895B89649FF00144
:104A8000659FF00D1124E752FE4F04810A8F028DBD
:104A9000138DA091AA01B0E0A70196010E94E42E17
:104AA00020E436E040E050E00E94C52E2E8F3F8F7C
:104AB00048A359A3CA8CC29CB001C39C700D112499
:104AC0006B01770FEE08FF082E893F89488D598DBD
:104AD000C20ED31EE41EF51ED801A50194010E944A
:104AE000EF2EDC01CB015FE0B595A79597958795F3
:104AF0005A95D1F7092E000CAA0BBB0B9701860122
:104B0000081B190B2A0B3B0BC901B8014E8D5F8D99
:104B10000E94280C460E571E681E791EE6C04DE105
:104B20002A893B89429FF001439FF00D1124E752EF
:104B3000FE4F028D138DA091A901B0E0A70196014F
:104B40000E94E42E24E630E040E050E00E94C52EB2
:104B500069017A01B801110F880B990B0E9444304A
:104B60002AE939EC4CEC54E40E949A2F9B01AC01E9
:104B70006CA57DA58EA59FA50E94282FA6010E9449
:104B8000550D65C08DE16A897B89869FF001879FFD
:104B9000F00D1124E752FE4F028D138DA091A80154
:104BA000B0E0A70196010E94E42E24E630E040E048
:104BB00050E00E94C52E69017A01B801110F880BDF
:104BC000990B0E94443020E03EEF4FEF56E40E94E4
:104BD0009A2F9B01AC016CA97DA98EA99FA90E9467
:104BE000282FA6010E94ED0C32C00DE1AA89BB89D5
:104BF0000A9FF0010B9FF00D1124E752FE4F028D2A
:104C0000138DA091A701B0E0A70196010E94E42EA8
:104C100024E630E040E050E00E94C52E69017A01B0
:104C2000B801110F880B990B0E9444302AE939EC26
:104C30004CEC54E40E949A2F9B01AC016CA57DA51D
:104C40008EA59FA50E94282FA6010E946C0C092EFC
:104C5000000CAA0BBB0B480E591E6A1E7B1E45C0DA
:104C60000E94ED0A9B01AC018DE16A897B89869FD8
:104C7000F001879FF00D1124E752FE4F828D938D36
:104C8000BC01990F880B990B22962FAF229725967E
:104C90003FAF259723964FAF239724965FAF249776
:104CA0000E94443022962FAD229725963FAD25973E
:104CB00023964FAD239724965FAD24970E949A2F99
:104CC0000E940C300E94FB0B9B01AC01A091AB0138
:104CD000B0E00E94E42E24E630E040E050E00E9484
:104CE000C52E421A530A640A750A0E94D71500910C
:104CF000A3011091A4012091A5013091A601DC012E
:104D0000CB01801B910BA20BB30BEAA5FBA5808303
:104D10009183A283B3830AA51BA50C5F1F4F1BA71A
:104D20000AA72A893B892B30310509F05DC803C0E9
:104D3000412C512C32011091440311FF3EC00E94BE
:104D4000ED0A9B01AC01E091A90167E471E0E69FE7
:104D5000C001E79F900D1124BC01990F880B990B9E
:104D600022962FAF229725963FAF259723964FAFD8
:104D7000239724965FAF24970E94443022962FAD4C
:104D8000229725963FAD259723964FAD23972496DE
:104D90005FAD24970E949A2F0E940C30AB016CA546
:104DA0007DA58EA59FA50E94550D092E000CAA0B6E
:104DB000BB0B480E591E6A1E7B1E12FF3EC00E948E
:104DC000ED0A9B01AC01E091A80167E471E0E69F68
:104DD000C001E79F900D1124BC01990F880B990B1E
:104DE00022962FAF229725963FAF259723964FAF58
:104DF000239724965FAF24970E94443022962FADCC
:104E0000229725963FAD259723964FAD239724965D
:104E10005FAD24970E949A2F0E940C30AB016CA9C1
:104E20007DA98EA99FA90E94ED0C092E000CAA0B4A
:104E3000BB0B480E591E6A1E7B1E13FF3EC00E940C
:104E4000ED0A9B01AC01E091A70167E471E0E69FE8
:104E5000C001E79F900D1124BC01990F880B990B9D
:104E600022962FAF229725963FAF259723964FAFD7
:104E7000239724965FAF24970E94443022962FAD4B
:104E8000229725963FAD259723964FAD23972496DD
:104E90005FAD24970E949A2F0E940C30AB016CA545
:104EA0007DA58EA59FA50E946C0C092E000CAA0B57
:104EB000BB0B480E591E6A1E7B1EC0903603D09055
:104EC0003703E0903803F090390388279927DC01F5
:104ED0008C199D09AE09BF094E895F89688D798D4E
:104EE000481759076A077B0734F0C416D506E6064B
:104EF000F7060CF03FC06E897F89888D998D97FDEC
:104F000007C06C197D098E099F096B017C0108C0DF
:104F10008E899F89A88DB98DC80ED91EEA1EFB1EE9
:104F20000E94ED0A9B01AC0160E07EEF8FEF96E4FA
:104F30000E949A2F4B015C016091A20170E080E019
:104F400090E00E9444309B01AC01C501B4010E9475
:104F5000F93020E030E048EC52E40E949A2F0E94A1
:104F60000C30AB01C701B6010E94280C460E571E3B
:104F7000681E791EA091A101B0E0A30192010E94D8
:104F8000E42E24E630E040E050E00E94C52ECA0145
:104F9000B9010E94FB0B6B017C0114FF04C00E944D
:104FA00054180E94E717C0925D03D0925E03E0920E
:104FB0005F03F092600360916103709162038091DE
:104FC0006303909164030E9444304B015C01609143
:104FD00055047091560480915704909158040E9492
:104FE00044309B01AC0160E07FEF8FE797E40E94C3
:104FF0009A2F9B01AC01C501B4010E94F9300E94B7
:105000000C304B015C01811490E89906A104B104B5
:1050100034F088248A944FE7942EA12CB12CA1E07F
:105020008A16A0E89A06AFEFAA06BA063CF48824CE
:10503000839430E8932EAA24AA94BA2C8092610318
:1050400090926203A0926303B0926403C6010E942F
:10505000AF0782E10E9461156C01CC0CDD1CCC0C09
:10506000DD1CD0925C03C0925B0384E10E94611559
:105070007C01EE0CFF1CEE0CFF1CF0925A03E09238
:10508000590385E10E9461158C01000F111F000F6B
:10509000111F109358030093570383E10E94611579
:1050A000880F991F880F991F2C01092E000C660884
:1050B00077084A8A5B8A6C8A7D8A40910601509102
:1050C0000701C416D50620F4D0920701C09206014C
:1050D00040915103509152034C155D0520F4D0923C
:1050E0005203C09251034091040150910501052ED5
:1050F000000C660B770B4A885B886C887D884416A9
:1051000055066606770624F4909305018093040102
:1051100040914F0350915003052E000C660B770B06
:105120004A885B886C887D88441555056605770537
:1051300024F49093500380934F0380910201909147
:105140000301E816F90620F4F0920301E09202014F
:1051500080914D0390914E038E159F0520F4F0929F
:105160004E03E0924D0380910001909101010817D8
:10517000190720F4109301010093000180914B0363
:1051800090914C038017910720F410934C030093E7
:105190004B032090490330904A032101612C712C6C
:1051A0008FEF9FE0A0E0B0E084199509A609B70948
:1051B0009C01AD0124193509460957092E8B3F8BF7
:1051C000488F598FC601DD0CAA0BBB0B9C01AD01AA
:1051D0002419350946095709AFEFBFE00E94E42EB4
:1051E0002E893F89488D598D0E94C52E6901C114B1
:1051F00030E1D30624F0CC24CA94AFE0DA2ED7FEF7
:1052000002C0C12CD12CD0925C03C0925B03C701B9
:10521000FF0CAA0BBB0B9C01AD01241935094609F3
:105220005709AFEFBFE00E94E42E2E893F89488DD9
:10523000598D0E94C52E7901E11440E1F40624F055
:10524000EE24EA94FFE0FF2EF7FE02C0E12CF12CE1
:10525000F0925A03E0925903C801110FAA0BBB0B3D
:105260009C01AD012419350946095709AFEFBFE08C
:105270000E94E42E2E893F89488D598D0E94C52EAB
:105280008901011550E1150714F00FEF1FE017FF1A
:1052900002C000E010E010935803009357032A89DE
:1052A0003B894C895D892419350946095709AFEFB7
:1052B000BFEF0E94E42E2FEF3FE02219330940E0B8
:1052C00050E024193509460957090E94C52E2115B9
:1052D000310561E04607510524F02FEF3FEF40E034
:1052E00050E057FF03C020E030E0A90120935303B2
:1052F00030935403409355035093560389B18295DC
:105300008F7091E0892790E0A0E0B0E0817099274C
:10531000AA27BB271B9B8260199B8460369B8068F1
:10532000499902C0886001C0877F4F9902C080619F
:1053300001C08F7E669902C0806201C08F7D1C997A
:1053400002C0806401C08F7B64E0880F991FAA1F90
:10535000BB1F6A95D1F78093450390934603A093B2
:105360004703B093480389829A822B833C83CD8282
:105370002E2D2295207F2D292E8374E0F694E7941C
:105380007A95E1F7EF8208871987E4E0B695A7954B
:1053900097958795EA95D1F78A871B861C864CE0FE
:1053A00050E0BE016F5F7F4F84E00E940213809146
:1053B000720490917304A0917404B09175048031CB
:1053C0009742A105B10508F42AC484E694E00E943E
:1053D0005114181619060CF012C484E694E00E94C9
:1053E0001714E82F8FE98E0F8A3108F4E0528E2FC0
:1053F00090E0FC01E154F109E731F10508F0FFC349
:10540000ED59FF4F0C941A3260919F017091A001E9
:10541000072E000C880B990B0E94541880E20E9402
:10542000DC178091A1010E94791980E20E94DC17AB
:105430008091A9010E94791980E20E94DC17809175
:10544000A7010E94791980E20E94DC178091AC01CB
:105450000E94791980E20E94DC178091AB010E94C2
:10546000791980E20E94DC178091AA010E947919C3
:1054700080E20E94DC178091A8010E94791980E2E5
:105480000E94DC17809135030E94791980E20E9406
:10549000DC178091A2010E94791980E20E94DC173A
:1054A0006091590470915A04072E000C880B990BD7
:1054B0000E94541880E20E94DC1780919E010E9495
:1054C000791980E20E94DC17809144030E947919C7
:1054D00080E20E94DC1760915B0470915C04072EEF
:1054E000000C880B990B0E94541880E20E94DC1774
:1054F00060919A0170919B0180919C0190919D0116
:105500000E94541880E20E94DC176091990170E0BB
:105510006EC289E891E00E94F5176EEB70E080E0C2
:1055200090E00E9454188EE891E00E94F51780E9FF
:1055300091E00E94F51763C380917E04082E000C51
:10554000990B5BC30E94E8185AC30E94801961112D
:1055500001C061E060939E014EC380E090E04DC3C6
:105560000E948019643071058105910574F0DC0199
:10557000CB01813CE7E29E07E9E0AE07B1054CF0C4
:1055800080EC97E2A9E0B0E004C084E090E0A0E005
:10559000B0E089839A83AB83BC83F89480905F04E6
:1055A00090906004A0906104B09062047894409060
:1055B0007A0450907B0460907C0470907D0460912C
:1055C0009F017091A001072E000C880B990B0E947F
:1055D00044306B017C018091360390913703A09198
:1055E0003803B091390395018401081B190B2A0B6C
:1055F0003B0BC901B801640D751D861D971D0E94E6
:105600004430A70196010E94F9304B015C01609182
:1056100055047091560480915704909158040E944B
:1056200044309B01AC01C501B4010E949A2F6E8BDE
:105630007F8B888F998F69817A818B819C81609320
:105640009A0170939B0180939C0190939D010E940D
:10565000443020E030E044EB53E40E949A2FA7014D
:1056600096010E94F9300E940C304B015C0160935E
:10567000550470935604809357049093580422E085
:1056800030E040E050E00E94C52E2A8B3B8B4C8BD3
:105690005D8B209336033093370340933803509348
:1056A0003903C501B4010E9444309B01AC016E89ED
:1056B0007F89888D998D0E94F930A70196010E94FB
:1056C0009A2F0E940C308A889B88AC88BD88860EF1
:1056D000971EA81EB91E84189508A608B708E8C02A
:1056E0008091360390913703A0913803B09139032C
:1056F000F89480935F0490936004A0936104B09346
:105700006204DFC00E9480196E3171058105910528
:105710006CF0DC01CB01893017E09107A105B105E0
:105720004CF088E097E0A0E0B0E004C08EE190E0AB
:10573000A0E0B0E089839A83AB83BC83F894809126
:105740005F0490916004A0916104B0916204789428
:1057500040907A0450907B0460907C0470907D04AB
:105760004A8A5B8A6C8A7D8A0091360310913703DE
:105770002091380330913903801B910BA20BB30B9E
:10578000480E591E6A1E7B1EC301B2010E9444309E
:105790006B017C0160919F017091A001072E000CAC
:1057A000880B990B0E9444309B01AC01C701B601E4
:1057B0000E94F9306B017C01609155047091560490
:1057C00080915704909158040E9444309B01AC0191
:1057D000C701B6010E949A2F6E8B7F8B888F998F9D
:1057E000C980DA80EB80FC80D092A001C0929F013A
:1057F00060919A0170919B0180919C0190919D0113
:105800000E94443020E030E044EB53E40E949A2FA1
:105810004B015C01C701B6010E9444309B01AC0101
:10582000C501B4010E94F9300E940C302B013C01EB
:1058300060935504709356048093570490935804D2
:1058400022E030E040E050E00E94C52E49015A01BC
:105850002093360330933703409338035093390332
:10586000C301B2010E9444309B01AC016E897F8963
:10587000888D998D0E94F9302B013C01B601DD0C19
:10588000880B990B0E9444309B01AC01C301B2010B
:105890000E949A2F0E940C30860E971EA81EB91ED9
:1058A000CA88DB88EC88FD888C189D08AE08BF0884
:1058B000F89480925F0490926004A0926104B09288
:1058C0006204789498C10E948019262F603208F0F3
:1058D0002FE16091440380E090E030E0F901082E70
:1058E00002C0F595E7950A94E2F7C12CD12C760118
:1058F000C394082E04C0CC0CDD1CEE1CFF1C0A94C3
:10590000D2F7E0FF02C06C2902C0C0946C2101965E
:105910008530910519F76093440370E080E090E0D2
:1059200042E00E9407180E94E71769C10E9480198F
:105930008091990120E030E0E62FF0E0AF01022EE7
:1059400002C0559547950A94E2F740FF0EC041E02A
:1059500050E060E070E0022E04C0440F551F661F47
:10596000771F0A94D2F7842B0EC041E050E060E02C
:1059700070E0022E04C0440F551F661F771F0A9463
:10598000D2F7409584232F5F3F4F28303105B1F681
:105990008093990141E069E971E08DE190E00E9416
:1059A000770F809199010E94CF0FBC0180E090E0B9
:1059B0000E944230209140033091410340914203C4
:1059C000509143030E94F9300E940C3069837A831E
:1059D0008B839C8344E0BE016F5F7F4F81E190E049
:1059E0000E94770F809199010E94CF0FBC0180E047
:1059F00090E04AE096CF42E06FE971E086E090E007
:105A00000E94770F44E06AE971E089E190E00E942A
:105A1000770F41E061EA71E088E090E00E94770F43
:105A200041E069EA71E089E090E00E94770F41E08F
:105A300067EA71E08AE090E00E94770F41E06CEA4B
:105A400071E08BE090E00E94770F41E06BEA71E03B
:105A50008CE090E00E94770F41E06AEA71E08DE00F
:105A600090E00E94770F41E068EA71E08EE090E0FC
:105A70000E94770F41E065E373E08FE090E00E94C1
:105A8000770F41E062EA71E080E190E00E94770FD9
:105A900041E06EE971E087E190E00E94770F41E01C
:105AA00064E473E088E190E00E94770F42E069E5EA
:105AB00074E081E190E00E94770F42E06BE574E0D2
:105AC00083E190E00E94770F42E06EE373E085E1AE
:105AD00090E00E94770F8FC084E694E00E94171434
