:100000000C9418040C9440040C9440040C94CD08F7
:100010000C94A9080C9440040C9440040C944004E3
:100020000C9440040C9440040C94A60B0C944909C5
:100030000C9440040C9440040C9440040C94400430
:100040000C9440040C9440040C9440040C94400420
:100050000C9440040C9440040C9440040C948012C2
:100060000C9440040C9440040C9440040C94400400
:100070000C9440040C9440040C9440040C944004F0
:100080000C9440040C9440040C9440040C944004E0
:100090000C94CA120C9440040C9440040C94400438
:1000A0000C9440040C9440040C9440041820AA20A2
:1000B00009224921EE22B22411245A254E267F26F8
:1000C000B0262C27E926442E3D2CF82C482FAF2DA6
:1000D000B52E092D482F482F482F482F482F482F3D
:1000E000482F682C452C482F3A2C342C482F962B1F
:1000F000192CDF2D042F0C2FD42EDC2E482FE42EAC
:10010000CC2E482FFC2E142F482F482FF42E482F8A
:10011000482F482F482F482FEC2EE70FEA0FDD0F0E
:10012000E10F0B100B100B10EE0FF20FF60FFC0F80
:1001300000100B100610D714DC14E114EB14351565
:1001400035153515F514FF1409151315201535153A
:10015000281505A84CCDB2D44EB93836A9020C509A
:10016000B9918688083CA6AAAA2ABE000000803F52
:1001700000000000000000002A2B28000000000002
:10018000000000000000000000000000000000006F
:100190002C9EB4A0A1A2A434A6A7A5AE362D3738B4
:1001A000271E1F20212223242526B333B62EB7B8BD
:1001B0009F8485868788898A8B8C8D8E8F9091927B
:1001C000939495969798999A9B9C9D2F3130A3ADC7
:1001D000350405060708090A0B0C0D0E0F10111245
:1001E000131415161718191A1B1C1DAFB1B0B50042
:1001F000080B0002020201000904000001020200D3
:100200000005240010010524010101042402060553
:1002100024060001070581031000400904010002C3
:100220000A000000070502024000000705830240A3
:10023000000009040200020300000009210101007E
:100240000122E1040705840340000107050503407E
:10025000000105010904A10185040901A10009307B
:10026000170180FFFF27FF7F0000350047FFFF00D9
:1002700000751095018102093116000027FFFF006B
:1002800000350047FFFF000075109501810209321B
:1002900016000027FF0F0000350047FF0F00007514
:1002A0000C95018102093316000027FF0F0000356D
:1002B0000047FF0F0000750C9501810209341600FC
:1002C0000027FF0F0000350047FF0F0000750C9559
:1002D0000181020939150125083500463B016514E5
:1002E0005500750495018102050915002501550089
:1002F00065001901291875019518810285F1090118
:10030000150026FF00953F7508918285F209019539
:100310003F75088182C0050F0992A1028502099FDD
:1003200009A009A409A509A6150025013500450164
:100330007501950581029503810309941500250136
:100340003500450175019501810209221501252815
:1003500035014528750795018102C00921A1028553
:1003600001092215012528350145287508950191B7
:10037000020925A102092609270930093109320994
:100380003309340940094109420943250B15013558
:1003900001450B750895019100C0095009541500DD
:1003A00027FFFF0000350047FFFF000066011055E2
:1003B000FD75109502910255006600000952150066
:1003C00026FF7F350046FF7F751095019102095386
:1003D0001501250835014508750895019102095553
:1003E000A1020501093009311500250175019502A9
:1003F0009102C0050F0956950191029505910309D7
:1004000057A1020B01000A000B02000A006614004B
:1004100055FE150026FF7F3500479F8C00007510A4
:10042000950191025500660000C0050F09A76601FD
:100430001055FD150027FFFF0000350047FFFF00A6
:10044000007510950191026600005500C0050F0966
:100450005AA1028502092215012528350145287572
:100460000895019102095B095D150026FF00350022
:1004700046FF7F750895029102095C095E660110CE
:1004800055FD26FF7F46FF7F75109502910266009D
:10049000005500C0095FA102850309221501252826
:1004A000350145287508950191020923150025019C
:1004B000350045017504950191020958A1020B010F
:1004C000000A000B02000A00750295029102C009A1
:1004D0006016008026FF7F36008046FF7F751095EE
:1004E000019102096136008046FF7F950191021556
:1004F0000026FF7F350046FF7F0963751095019147
:10050000020965150026FF0046FF7F7508950191D9
:1005100002C0096EA10285040922150125283501B2
:1005200045287508950191020970150026FF7F3551
:100530000046FF7F751095019102096F1600802615
:10054000FF7F36008046FF7F9501910209711500FB
:1005500026FF0035004667016614005500750895B2
:10056000019102097227FFFF000047FFFF000066AC
:10057000011055FD7510950191026600005500C0EF
:100580000973A10285050922150125283501452891
:10059000750895019102097016018026FF7F3601CA
:1005A0008046FF7F751095019102C00974A10285F4
:1005B0000609221501252835014528750895019160
:1005C00002097509761581257F36018046FF7F7502
:1005D0000895029102C0050F0977A102850A092238
:1005E00015012528350145287508950191020978DE
:1005F000A1020979097A097B15012503750895017E
:100600009100C0097C150026FF00350046FF0091CF
:1006100002C00990A102850B092215012528350188
:100620004528750895019102C00996A102850C091B
:100630009709980999099A099B099C15012506753E
:100640000895019100C0097DA102850D097E150064
:1006500026FF003500461027750895019102C00954
:10066000ABA10285050925A1020926092709300940
:100670003109320933093409400941094209431556
:1006800001250B3501450B75089501B100C0050129
:10069000093B150026FF01350046FF01750A95014B
:1006A000B1027506B101C0050F0989A102850609CD
:1006B00022252815013501452875089501B1020943
:1006C0008BA102098C098D098E2503150135014581
:1006D0000375089501B100C009AC150027FFFF00A4
:1006E00000350047FFFF000075109501B100C009FB
:1006F0007FA1028507098075109501150027FFFF6E
:100700000000350047FFFF0000B102098326FF000B
:1007100046FF0075089501B10209A909AA7501955E
:10072000021500250135004501B10275069501B19C
:1007300003C0C01803410072006400750069006EB8
:10074000006F0020004C004C004300040309042209
:1007500003410072006400750069006E006F0020A4
:10076000004D006900630072006F0020002000202F
:100770000012010002000000404123378000010107
:1007800002000112010002020000404123378000F4
:10079000010102000100C18081C1C00706050401FA
:1007A00000080A0B0C0D0900000000240027002A95
:1007B000002D00300000000000250028002B002E36
:1007C000003100000000002300260029002C002F2B
:1007D00000040404040403040502020202040302E8
:1007E00002020206060606060604040202020404C9
:1007F0000408020110408040102040804080080220
:100800000401804020100201108010204040200090
:1008100000000200080E0000030401000B000000AD
:100820000000000000000000000000000000652F34
:1008300011241FBECFEFDAE0DEBFCDBF11E0A0E094
:10084000B1E0E0E7FCE602C005900D92AA38B107DE
:10085000D9F725E0AAE8B1E001C01D92AB38B20794
:10086000E1F714E0C8E1D4E004C02197FE010E9442
:10087000E633C731D107C9F70E94581A0C943636AF
:100880000C940000DC01FB0112968D919C91139752
:10089000978B868B14968D919C911597938F828F51
:1008A00016968C911697848F17968D919C91189718
:1008B000938782870895DC01FB0115968D919C91A9
:1008C0001697978B868B13968D919C911497938F87
:1008D000828F19968C911997848317968D919C918C
:1008E0001897918F808F0895DC01FB0112968C91EF
:1008F0001297828313968C911397838314968D910C
:100900009C911597938B828B16968D919C9117973E
:10091000918B808B08959DE1899FF0011124EE5207
:10092000FE4F77876687558B448B94E0899FF00153
:100930001124EE55FE4F1082118212821382089507
:10094000089508951092720524E0829FC001112439
:10095000FC01EE55FE4F108211821282138208951F
:1009600025E0FC01208386E391E0089508958093BB
:10097000720508958C30F8F4282F30E09DE1899FAE
:10098000F0011124EE52FE4F90819923A1F0908145
:100990009D7F9083F901EB58FC4F958191110BC01D
:1009A000E0918B01F0918C010084F185E02D099597
:1009B0001092850308950895FC01CB012091E80071
:1009C00022FFFCCF282F215028F03091F1003083F6
:1009D0003196F9CF24E6209369032BEF2093E800AA
:1009E00008950F931F93CF93DF93DB01A40FB51FDF
:1009F000FB016EEFEA17FB0791F187FF02C024911C
:100A000001C0208100916D0310916E03C0916B03B2
:100A1000D0916C030C171D07B4F49091E800957009
:100A2000E1F39091E80092FD1CC02093F100209129
:100A30006D0330916E032F5F3F4F2F733327232BAE
:100A400011F46093E80020916D0330916E032F5FE5
:100A50003F4F30936E0320936D033196CBCFCA0185
:100A600002C08FEF9FEFDF91CF911F910F910895FB
:100A7000CF93DF9300D000D01F92CDB7DEB7FC013B
:100A800081819081913A29F5813009F0BCC0828141
:100A9000863051F445E050E060E773E080E40E9466
:100AA000F10410927003AFC0873009F0ACC08983A5
:100AB0008FEF9FEF9B838A838BE08C8383E08D8312
:100AC00045E050E0BE016F5F7F4F80E40E94F1047B
:100AD0009AC0913209F097C0893009F094C08281A0
:100AE000853009F090C064E070E0CE0101960E946C
:100AF000DC0486E08093700380910B018B3021F140
:100B0000A0910B0181E08A0F80930B019DE1E091A0
:100B10000B019E9FF0011124EE52FE4F808188232D
:100B200051F080910B018B3030F480910B018F5F7D
:100B300080930B01ECCF8DE1A89FF0011124EE52C0
:100B4000FE4F81E0808301C0A0E0A0937103A1115A
:100B500004C082E08093720350C01092720581E05D
:100B6000809372038A819DE1A99FD0011124AE5226
:100B7000BE4F11968C9311978FEF9FEF1F969C930A
:100B80008E931E9753961C921E92529751961C92CA
:100B90001E92509712968C93129713968C931397DC
:100BA00055961C921E9254971D961C921E921C974D
:100BB00015961C9215978FEF9FE719969C938E932D
:100BC000189757961C921E9256975B961C921E92EF
:100BD0005A975C961C925C9788EE93E01B969C93C8
:100BE0008E931A97E0918B01F0918C010684F78522
:100BF000E02DBD01CE01019609958FEF9FEF9093F7
:100C000074038093730381E00F900F900F900F9007
:100C10000F90DF91CF91089542E450E060EF71E0D2
:100C200080E80E94F10440E250E062E372E080E874
:100C30000E94F10483E090E00895EF92FF921F93E9
:100C4000CF93DF93EC01162FE881F9810480F581C1
:100C5000E02D09957C01E881F9810680F781E02D7E
:100C6000612FCE010995C7019927DF91CF911F917F
:100C7000FF90EF900895FC0191818081813A29F4E1
:100C80009D7F81E0913091F414C0813279F49A30E3
:100C900049F09B3019F0993049F40AC08281809361
:100CA0000A0106C082818093090102C080E0089594
:100CB00081E008958C30F0F49DE1899FF0011124CA
:100CC000EE52FE4F80818823A9F08081826080836C
:100CD0008091850381110EC00E94741260939C0163
:100CE00070939D0180939E0190939F0181E080937A
:100CF00085030895089560918F017091900180E0BF
:100D000090E00E940E329B01AC0160E07EEF8FEF1D
:100D100096E40E94663108952F923F924F925F921F
:100D20006F927F928F929F92AF92BF92CF92DF92FB
:100D3000EF92FF920F931F93CF93DF93CDB7DEB760
:100D400029970FB6F894DEBF0FBECDBF998788876D
:100D50004B012B831D830C831701DF82CE82042F6E
:100D600010E08C819D816C01E12CF12CE885F985E6
:100D7000F7FD2BC0C8019695982F882797958795E2
:100D8000BF01681B790B072E000C880B990B0E9482
:100D900010322B013C01C701B6010E940E329B01AB
:100DA000AC01C301B2010E9466312B013C01C801B4
:100DB0009695982F8827979587959A838983EB81B5
:100DC00090E8E99FB00111242AC0B8017695762FEA
:100DD000662777956795E885F9856E0F7F1F072E43
:100DE000000C880B990B0E9410322B013C01C701AB
:100DF000B6010E940E329B01AC01C301B2010E94F8
:100E000066312B013C0160E86003C001619F900DD9
:100E100011249A8389832B816203B0011124888570
:100E20009985681B790B072E000C880B990B0E9483
:100E300010326B017C01B10180E090E00E940E3223
:100E40009B01AC01C701B6010E9466316B017C01B8
:100E50008A149B0408F43FC08E819F818A0D9B1DDC
:100E600088169906C0F50C811D810A0D1B1D801680
:100E7000910690F4B4016A197B0980E090E00E9429
:100E80000E329B01AC01C301B2010E94C5320E9427
:100E9000D83189819A811CC08219930988159905D6
:100EA000E8F48A189B08EE81FF818E1A9F0AB4012C
:100EB000620D731D80E090E00E940E329B01AC0138
:100EC000C701B6010E94C5320E94D8318885998534
:100ED000860F971F05C080E090E002C08885998545
:100EE00029960FB6F894DEBF0FBECDBFDF91CF912C
:100EF0001F910F91FF90EF90DF90CF90BF90AF9038
:100F00009F908F907F906F905F904F903F902F9029
:100F10000895CF92DF92EF92FF920F931F938B0170
:100F20009C014091290450912A0488279927841B09
:100F3000950BBC01990F880B990B0617170728070B
:100F400039076CF06A01550FEE08FF08C901B801B6
:100F5000C016D106E206F30614F4C701B6011F91CC
:100F60000F91FF90EF90DF90CF9008958F929F9216
:100F7000AF92BF92CF92DF92EF92FF924B015C0152
:100F800057FF02C04D5F5F4F6A01D594C794D59457
:100F9000C79420E030E040E85FE3C501B4010E945F
:100FA000C0320D2C000CEE08FF0818161CF4C70107
:100FB000B6011CC020E030E040E85FEBC501B401A1
:100FC0000E94613187FF06C0C701B6010E948907F0
:100FD000CB0112C0C701B6010E9410329B01AC01C7
:100FE000C501B4010E94C5320E94D8310E94890710
:100FF00088279927861B970BFF90EF90DF90CF9063
:10100000BF90AF909F908F9008958F929F92AF92D4
:10101000BF92CF92DF92EF92FF924B015C01BA0137
:10102000550F880B990B0E9410326B017C0120E058
:1010300030E0A901C501B4010E94C032A5019401AC
:1010400018160CF05058C701B6010E94C53220E0B6
:1010500030E040E851E40E94C53220E030E040E05A
:101060005DE30E94C5320E94D8310E9489076B015E
:101070007C0120E030E0A901C501B4010E94C0322A
:1010800018162CF4882799278C199D090DC020E08B
:1010900030E0A901C501B4010E94613187FF02C09F
:1010A000C60102C080E090E0FF90EF90DF90CF900B
:1010B000BF90AF909F908F900895CF92DF92EF9264
:1010C000FF92CF93DF936B017C01EA0120E030E0D7
:1010D000A9010E94C032181694F020E030E0A90166
:1010E000C701B6010E94613187FF2AC020E030E0CD
:1010F000A901C701B6010E94F5306B017C01BE0158
:10110000DD0F880B990B0E9410329B01AC01C701C7
:10111000B6010E94C53220E030E040E851E40E9470
:10112000C53220E030E040E05BE30E94C5320E941F
:10113000D8310E94890788279927861B970B02C000
:1011400080E090E0DF91CF91FF90EF90DF90CF9023
:1011500008951F920F920FB60F9211242F933F9371
:101160004F935F936F937F938F939F93AF93BF93AF
:10117000EF93FF930E94A617FF91EF91BF91AF915C
:101180009F918F917F916F915F914F913F912F919F
:101190000F900FBE0F901F9018951F920F920FB6D1
:1011A0000F9211242F933F934F935F936F937F93ED
:1011B0008F939F93AF93BF93EF93FF930E94A617D4
:1011C000FF91EF91BF91AF919F918F917F916F911F
:1011D0005F914F913F912F910F900FBE0F901F90F5
:1011E0001895CF92DF92EF92FF920F931F93CF93B8
:1011F000DF931F92CDB7DEB7F82EE42E8B01C82EF9
:10120000D92E8C2D8F198E1588F4F80161918F01DC
:10121000C60169830E947B306981681719F0C60195
:101220000E948330FFEFCF1ADF0AEBCF0F90DF91E0
:10123000CF911F910F91FF90EF90DF90CF90089585
:10124000CF92DF92EF92FF920F931F93CF93DF9392
:101250001F92CDB7DEB78B016B017C01E61AF70A4E
:101260009C2D901B941758F4C7018C0D9D1D49832C
:101270000E947B30F60181936F014981F1CF0F907D
:10128000DF91CF911F910F91FF90EF90DF90CF9062
:1012900008951F920F920FB60F921124EF92FF92B2
:1012A0001F932F933F934F935F936F937F938F93EE
:1012B0009F93AF93BF93EF93FF93CF93DF93CDB7FC
:1012C000DEB76197DEBFCDBF1092E9008091E800E4
:1012D00083FF59C1FE013A96CF0128E02E0F2E1749
:1012E00029F03091F10030833196F9CF24E6209334
:1012F000690322EF2093E8002A8527FF05C030917B
:10130000E80030FFFCCF03C03EEF3093E800322FFF
:10131000307609F0C5C08B85811105C01092F100AF
:101320001092F10029C1982F9D7F913009F424C1BA
:10133000853049F48091E80080FFFCCF8C8580687F
:101340008093E30019C1863009F07CC01D85E888D0
:10135000F9881092E90010926E0310926D0312301A
:1013600091F510926C0310926B030E940C0699E0A9
:10137000BE016F5F7F4FFB01292F11922A95E9F77C
:1013800099831A8391E09E8390E898879AEF9987D2
:1013900020916D0330916E03275F3F4F3C832B8379
:1013A0008D831092E90010926E0310926D03F092FB
:1013B0006C03E0926B0349E050E080E00E94F1048E
:1013C0000E940C06D9C0F0926C03E0926B031232BB
:1013D00059F441EE54E062E572E080E80E94F104C5
:1013E000892B09F0C9C0CCC0113069F4888999896A
:1013F000089711F410936A0380916A03811111C058
:1014000061E777E016C0133009F0BAC08C858823F5
:1014100059F0823061F0813009F0B2C063E377E0C7
:1014200008C063E877E005C06BE477E002C06FE4D2
:1014300077E06115710509F4A3C0FB01449150E008
:1014400080E849C0873009F49BC0883021F481E0EE
:101450008093F10091C0893009F08EC0237009F0AB
:101460008FC080E090E031E026E341E0480F4093F8
:10147000E9003093EB000196FC01EB56F84FE49144
:10148000E093EC002093ED008530910571F78EE735
:101490008093EA001092EA008C8580938A016CC0E8
:1014A000288939891092E90010926E0310926D0319
:1014B00030936C0320936B032E85211154C08B85D0
:1014C0009A85913A59F4813209F05AC047E050E0C8
:1014D0006CE071E080E00E94F1044EC0913209F0AE
:1014E0004FC0803239F467E070E08CE091E00E94F8
:1014F000DC0442C0823209F043C08C858093130122
:1015000080910C0190910D01A0910E01B0910F01FD
:10151000803B9440A105B10579F58091130180FDD0
:1015200011C087E797E790930108809300089BE03C
:1015300088E10FB6F894A895809360000FBE909351
:1015400060001AC00FB6F894A89580916000886179
:1015500080936000109260000FBEA8951092010861
:101560001092000809C0223059F4E0917505F091FD
:1015700076050995882321F08EEF8093E80003C05B
:1015800081E28093EB0061960FB6F894DEBF0FBE48
:10159000CDBFDF91CF91FF91EF91BF91AF919F911F
:1015A0008F917F916F915F914F913F912F911F91FB
:1015B000FF90EF900F900FBE0F901F9018958F9295
:1015C0009F92AF92BF92CF92DF92EF92FF920F93D2
:1015D0001F93CF93DF9300D01F92CDB7DEB7382F84
:1015E0008B0180918A01882389F04A018AEFF82EC5
:1015F000832F8770E82E90E4C92E832F8072B82E37
:101600002AE3D22E832F8074A82E21C08FEF9FEF64
:101610005FC08FB7F894E092E9009091E80095FFE1
:101620001AC09091F2002C2D291B8FBF211115C0DB
:10163000FA94FF2059F361E070E080E090E0398394
:101640004A835B830E944E1239814A815B818114F7
:101650009104F9F634C020E0E8CF822F90E088169C
:1016600099060CF4282D822F90E0881A990A6FB7FA
:10167000F894E092E900BB2029F02150A8F01092E4
:10168000F100FBCFF80137FF07C0215058F07491EB
:101690007093F1003196F9CF215020F07191709341
:1016A000F100FACF080F191F8091E80085FF0DC0E7
:1016B0008114910411F4A11008C06FBFC8CF5D9AC6
:1016C00084E680936F03CA0103C0D092E800F5CF8F
:1016D0000F900F900F90DF91CF911F910F91FF907E
:1016E000EF90DF90CF90BF90AF909F908F90089534
:1016F00090918A01992311F057FF03C08FEF9FEF5C
:1017000008952FB7F89487708093E9008091F200D4
:1017100090E0841795070CF4AC01842FFB0194E64C
:10172000815030F0909369033091F1003193F8CFFC
:101730004115510521F08091F200882319F02FBF47
:10174000CA0108958BE68093E800F9CF1F920F92AB
:101750000FB60F9211242F933F934F935F936F9384
:101760007F938F939F93AF93BF93EF93FF93CF9309
:10177000DF93CDB7DEB7C054D109DEBFCDBF8091B6
:10178000E1001092E10083FF0FC01092E90091E0A8
:101790009093EB001092EC0092E39093ED00109286
:1017A0008A0198E09093F00082FF46C083E0809326
:1017B000E9008091F200882319F08AE38093E80021
:1017C0009FB7F89482E08093E9008091F2009FBF78
:1017D000882321F08CE794E00E942E119FB7F894A3
:1017E00085E08093E9008091F2009FBF8823C1F0DB
:1017F0008091770590917805892B91F040E450E035
:10180000BE016F5F7F4F85E00E94780B97FD08C097
:10181000E0917705F0917805BC01CE01019609951C
:1018200080916F03882341F080916F0381508093F2
:101830006F03811101C05D98C05CDF4F0FB6F89453
:10184000DEBF0FBECDBFDF91CF91FF91EF91BF9172
:10185000AF919F918F917F916F915F914F913F9148
:101860002F910F900FBE0F901F901895EF92FF923F
:101870000F931F93CF93DF931F92CDB7DEB789836A
:101880008B017A0141E050E0BE016F5F7F4F84E041
:101890000E94DF0AA701B80184E40E94DF0A0F90CA
:1018A000DF91CF911F910F91FF90EF9008951F93BB
:1018B000CF93DF93EC0119819881953009F45DC0D5
:1018C00058F59230D1F1A8F4913009F02DC2E09191
:1018D0008B01F0918C012DE1129FB00111246E5209
:1018E0007E4F028CF38DE02DCE01DF91CF911F91C1
:1018F0000994933081F1943009F016C2E0918B0184
:10190000F0918C01ADE11A9FB00111246E527E4F0F
:101910000488F589E02D2CC09B3009F493C030F485
:101920009630C9F19A3009F444C0FEC19C3009F4E4
:10193000C2C0913F09F411C1F7C1E0918B01F09150
:101940008C013DE1139FB00111246E527E4F00883F
:10195000F189E02D0DC0E0918B01F0918C018DE1BA
:10196000189FB00111246E527E4F0288F389E02D3A
:10197000CE01DF91CF911F910994E0918B01F091FD
:101980008C01BDE11B9FB00111246E527E4F068871
:10199000F789E02DEDCFE0918B01F0918C012DE1E5
:1019A000129FB00111246E527E4F008CF18DE02DFC
:1019B000DFCF1F3F09F41FE79A81913099F4812FFF
:1019C0000E945A06E12FF0E0EB58FC4F858181110F
:1019D000ABC1E0918B01F0918C010680F781E02D85
:1019E000812F47C0923029F5C1E08C2F0E94BA04A4
:1019F000CF5FCC30D1F7C12FD0E0CB58DC4F8D81F9
:101A0000811109C0E0918B01F0918C010084F18576
:101A1000E02D8FE70995812F0E945A068D81811153
:101A200083C1E0918B01F0918C010680F781E02D5C
:101A30001FC0933009F078C1812FDF91CF911F91A2
:101A40000C94BA0481E01F3FC1F480930B018CE534
:101A500091E0E2EDF1E0DF019C011D922150304068
:101A6000E1F7E0918B01F0918C010284F385E02D88
:101A70008FE7DF91CF911F910994809372051C30FD
:101A800008F052C13DE1139FF0011124EE52FE4FC8
:101A9000108280910B01181710F410930B01E09144
:101AA0008B01F0918C010284F385E02D812F099543
:101AB0001092850339C182E0809386039091870359
:101AC000946090938703909187039061909387032C
:101AD000109288031330C1F048F4113089F01230AD
:101AE00009F022C180918703826034C0153079F1FA
:101AF000B8F0163009F018C1809187038E7F2AC094
:101B0000809187038D7F26C0E0918B01F0918C013D
:101B10000480F581E02D80E009951092880304C1CE
:101B2000E0918B01F0918C010480F581E02D81E042
:101B3000099581E080930B018CE591E0E2EDF1E005
:101B4000DF019C011D9221503040E1F7EDC08091F2
:101B50008703816080938703E7C08C89813009F017
:101B6000A1C029813A812E3131053CF0293087E02E
:101B700038072CF028E037E002C02EE130E0409139
:101B8000960150919701249FC001259F900D349F8D
:101B9000900D112468E671E00E94D2337093260400
:101BA00060932504769567957093300360932F03B7
:101BB0008B89813011F40E940F198D81893C08F0C6
:101BC00088EC80939A018E81893C08F088EC8093A0
:101BD000A5018F81893C08F088EC8093A20188855B
:101BE000893C08F088EC8093A0018985893C08F045
:101BF00088EC8093A4018A85893C08F088EC809366
:101C0000A3018B85893C08F088EC8093A1018C8529
:101C1000893C08F088EC80932E038D85893C08F080
:101C200088EC80939B0128893989809129049091BF
:101C30002A0428173907A4F437FD0AC080918F01C0
:101C40009091900101972817390720F4C90102C02B
:101C500080E090E0909328048093270483E68C8BA7
:101C60008E859F85209127043091280428173907F5
:101C70000CF04DC023E62C8B181619064CF420915D
:101C80008F01309190012817390728F4832F05C060
:101C900021E080E002C0282F892F2093290480931F
:101CA0002A0435C08F3F99F5809198019091990150
:101CB0009A8389838091E1049091E2049C838B83D1
:101CC00080919A018D838091A5018E838091A201DC
:101CD0008F838091A00188878091A401898780915A
:101CE000A3018A878091A1018B8780912E038C8725
:101CF00080919B018D878091290490912A049F8770
:101D00008E878091270490912804998B888B86EB8D
:101D100090E09E8B8D8B40E450E0BE0182EFDF911E
:101D2000CF911F910C94360CDF91CF911F910895A4
:101D3000DC01683810F0685825C0E62FF0E067FF36
:101D400012C0E058F10981E090E001C0880FEA95E7
:101D5000EAF7809514969C911497892314968C9396
:101D6000149760E00FC0E059FE4F6491662311F1B3
:101D700067FF08C014968C9114978D7F14968C93EE
:101D800014976F77FD01369686E0662321F09081E7
:101D9000961301C01082815031968111F6CFBD019A
:101DA0006C5F7F4F48E050E082E00E94360C81E09B
:101DB00090E0089580E090E00895FC01168217827B
:101DC00010861186128613861482BC016C5F7F4FC9
:101DD00048E050E082E00C94360CDC01683810F0EA
:101DE00068582DC0E62FF0E067FF11C0E058F109F8
:101DF00081E090E001C0880FEA95EAF714969C9183
:101E00001497892B14968C93149760E018C0E059AE
:101E1000FE4F6491611109C081E090E013969C939C
:101E20008E93129780E090E0089567FF08C01496A3
:101E30008C911497826014968C9314976F771696F2
:101E40008C911697861751F117968C9117978617D4
:101E500029F118968C911897861701F119968C9193
:101E600019978617D9F01A968C911A978617B1F0A0
:101E70001B968C911B97861789F0FD01369680E0A2
:101E800090E02191211105C0FD01E80FF91F668343
:101E900005C0019686309105A1F7BECFBD016C5FEC
:101EA0007F4F48E050E082E00E94360C81E090E0F5
:101EB0000895CF92DF92EF92FF920F931F93CF93EB
:101EC000DF936C01EB017B01E40EF51E00E010E0F6
:101ED000CE15DF0561F06991D601ED91FC9101907D
:101EE000F081E02DC6010995080F191FF1CFC80137
:101EF000DF91CF911F910F91FF90EF90DF90CF90E6
:101F0000089583E08093E9008091F200882319F01E
:101F10008AE38093E80008952091210430912204FF
:101F2000809123049091240428173907A9F0E091A7
:101F30002304F0912404EF51FC4F8081209123046D
:101F4000309124042F5F3F4F2F73332730932404A5
:101F50002093230490E008958FEF9FEF0895209140
:101F600021043091220480912304909124042817A5
:101F7000390749F0E0912304F0912404EF51FC4F1C
:101F8000808190E008958FEF9FEF08958091210464
:101F9000909122042091230430912404821B930BFE
:101FA0008F739927089590E0FC013197EE30F10589
:101FB00090F5E357FF4F0C94E633809180008F77C4
:101FC00003C0809180008F7D80938000089584B548
:101FD0008F7702C084B58F7D84BD08958091900075
:101FE0008F7707C0809190008F7D03C08091900013
:101FF000877F8093900008958091C0008F7703C001
:102000008091C0008F7D8093C00008958091C200B0
:10201000877F8093C200089585ED8093BC008091F6
:10202000BC0084FDFCCF1092510408954091B3038D
:10203000262F30E0240F311D21323105DCF42091B0
:1020400051042430C9F4FC0180E090E0861758F474
:102050003091B3032191DC01AF56BC4FA30FB11DEA
:102060002C930196F3CF8091B303680F6093B30371
:1020700080E0089581E0089582E00895089581E068
:1020800090E030918E0120918D01321710F480E0A4
:1020900090E0919581959109089580918E0190919C
:1020A0008D01891730F48F5F80938E0180E090E07E
:1020B00008958FEF9FEF089580918D0190E020911A
:1020C0008E01821B91090895CF92DF92EF92FF92C9
:1020D0000F931F93CF93DF937C01262F972F8A01B5
:1020E00080917404882391F0C62FD72F6E01C40EFF
:1020F000D51ECC15DD0571F06991D701ED91FC91EC
:102100000190F081E02DC7010995F3CF642F822F54
:102110000E941610C801DF91CF911F910F91FF907F
:10212000EF90DF90CF900895CF93DF931F92CDB7BC
:10213000DEB76983209174042223D1F020917204C8
:10214000203240F021E030E0FC013383228380E044
:1021500090E015C080917304E82FF0E0EE5AFB4F39
:10216000998190838F5F809373048093720405C07C
:1021700061E0CE0101960E94161081E090E00F9080
:10218000DF91CF9108950895CF93DF93FC01EB0188
:102190007181828189838781908599878887258548
:1021A0003685438154816DE1769FC00111248E52A2
:1021B0009E4FDC011F965C934E931E9755963C9361
:1021C0002E93549764E0769FD0011124AE55BE4FF4
:1021D0001D921D921D921C921397838594859D8755
:1021E0008C8782858D8381E0DF91CF910895FC01FA
:1021F0002281FB012683FC018381FB0187830895F3
:10220000FC0182819381FB01978B868B08950E944C
:10221000EA350F931F93CF93DF931F92CDB7DEB7AD
:102220008C01698380911301882359F041E050E0CB
:10223000BE016F5F7F4F83E00E94DF0A1816190608
:102240003CF081E090E0F8019383828380E090E0AD
:102250000F90DF91CF911F910F9108950F931F93CE
:10226000CF93DF931F92CDB7DEB700912104109179
:1022700022040F5F1F4F0F73112780912304909149
:10228000240408171907F9F041E050E0BE016F5F20
:102290007F4F82E00E94780B019719F4898190E0CA
:1022A00002C08FEF9FEF8F3F2FEF920761F0E09119
:1022B0002104F0912204EF51FC4F808310932204FB
:1022C00000932104D2CF0F90DF91CF911F910F91F6
:1022D0000895CF93DF93282F30E0F901E15FF74FA6
:1022E0008491F901E051F84FD491F901EF52F84F80
:1022F000C491CC2391F081110E94D30FEC2FF0E018
:10230000EE0FFF1FED53F84FA591B491EC91ED2323
:1023100081E090E021F480E002C080E090E0DF9175
:10232000CF9108951F93CF93DF93282F30E0F901C9
:10233000E15FF74F8491F901E051F84FD491F90131
:10234000EF52F84FC491CC23C9F0162F81110E948F
:10235000D30FEC2FF0E0EE0FFF1FEB54F84FA591D9
:10236000B4918FB7F894111105C09C91ED2FE095B1
:10237000E92302C0EC91ED2BEC938FBFDF91CF915D
:102380001F910895CF93DF9390E0FC01E051F84F47
:102390002491FC01EF52F84F8491882361F190E081
:1023A000880F991FFC01E955F84FC591D491FC01A4
:1023B000EB54F84FA591B491611109C09FB7F894FF
:1023C0008881209582238883EC912E230BC0623074
:1023D00061F49FB7F8943881822F80958323888396
:1023E000EC912E2B2C939FBF06C08FB7F894E881F9
:1023F0002E2B28838FBFDF91CF910895823108F073
:102400008251E82FF0E0E556F84FE49180917B008F
:10241000E3FB222720F930E095E0220F331F9A9545
:10242000E1F78F7D282B20937B00E770E064E09339
:102430007C0080917A00806480937A0080917A0099
:1024400086FDFCCF809178002091790090E0922B5E
:1024500008953FB7F8948091DD039091DE03A09139
:10246000DF03B091E00326B5A89B05C02F3F19F00C
:102470000196A11DB11D3FBFBA2FA92F982F882704
:10248000820F911DA11DB11DBC01CD0142E0660F5F
:10249000771F881F991F4A95D1F70895CF92DF9231
:1024A000EF92FF92CF93DF936B017C010E94291280
:1024B000EB01C114D104E104F10479F00E94291266
:1024C0006C1B7D0B683E7340A0F381E0C81AD108F5
:1024D000E108F108C851DC4FECCFDF91CF91FF90BC
:1024E000EF90DF90CF9008952FB7F8946091D903C3
:1024F0007091DA038091DB039091DC032FBF089584
:102500001F920F920FB60F9211242F933F938F9328
:102510009F93AF93BF938091D9039091DA03A091D9
:10252000DB03B091DC033091D80323E0230F2D3778
:1025300020F40196A11DB11D05C026E8230F0296C7
:10254000A11DB11D2093D8038093D9039093DA0382
:10255000A093DB03B093DC038091DD039091DE0355
:10256000A091DF03B091E0030196A11DB11D8093FE
:10257000DD039093DE03A093DF03B093E003BF91EC
:10258000AF919F918F913F912F910F900FBE0F9020
:102590001F9018951F920F920FB60F9211242F9330
:1025A0003F934F935F936F937F938F939F93AF93DB
:1025B000BF93EF93FF938091B900887F803609F431
:1025C0009CC068F5883209F45BC090F4803109F44E
:1025D00054C038F4882309F4F6C0883009F44DC09B
:1025E000F6C0883109F44CC0803209F45DC0EFC0F8
:1025F000803409F468C048F4803309F455C0883346
:1026000009F0E5C080934F04D8C0803509F44FC06D
:10261000883509F45DC0883409F0D9C0D6C088393E
:1026200009F4C7C0A8F4883709F467C038F48836BD
:1026300009F463C0803709F460C0C9C0883809F460
:10264000B8C0803909F45FC0803809F0C0C05BC0F1
:10265000803B09F486C038F4803A09F466C0883AB1
:1026600009F47FC0B4C0803C09F4A7C0883C09F4D9
:10267000A4C0883B09F48AC0AAC080912C0410C071
:1026800090914E0480914D04981770F5E0914E049E
:1026900081E08E0F80934E04F0E0E35DFB4F80817C
:1026A0008093BB0085EC86C080934F048EC0E09180
:1026B0004E0481E08E0F80934E048091BB00F0E0C9
:1026C000E35DFB4F808390914E0480914D046EC07A
:1026D000E0914E0481E08E0F80934E048091BB0008
:1026E000F0E0E35DFB4F80838091500481116DC069
:1026F00081E080932B0484EA61C083E080935104DD
:102700001092D703CFCF8091D703803208F051C009
:10271000E091D70381E08E0F8093D7038091BB00B7
:10272000F0E0E954FC4F8083BDCF85EC8093BC0082
:10273000109251048091D703803230F4E091D70396
:10274000F0E0E954FC4F10826091D70370E0E09113
:10275000B503F091B60387EB93E009951092D70388
:1027600036C084E0809351041092B4031092B303F6
:10277000E091B103F091B20309958091B303811107
:1027800005C081E08093B30310929103E091B403FC
:1027900081E08E0F8093B403F0E0EF56FC4F808110
:1027A0008093BB009091B4038091B303981708F411
:1027B00079CF85E88093BC000AC085EC8093BC008B
:1027C0001092510404C010924F040E940C10FF910B
:1027D000EF91BF91AF919F918F917F916F915F9199
:1027E0004F913F912F910F900FBE0F901F90189512
:1027F0001092510481E08093500410922B0461E008
:1028000082E00E94921161E083E00E949211E9EB64
:10281000F0E080818E7F808380818D7F80838CE05B
:102820008093B80085E48093BC0008954F925F9236
:102830006F927F928F929F92AF92BF92CF92DF92D0
:10284000EF92FF920F931F93CF93DF93CDB7DEB735
:102850002C970FB6F894DEBF0FBECDBF8C016091F0
:102860009A0170E080E090E00E940E3220E030E0BB
:1028700048EC52E40E94663169837A838B839C839F
:10288000C80117FF04C088279927801B910B2C01D2
:10289000990F66087708C301B2010E9410326B01DC
:1028A0007C016091290470912A04072E000C880B8A
:1028B000990B0E9410324B015C0126E636E646E693
:1028C0005FE30E94C53229813A814B815C810E947D
:1028D000C5326D837E838F8398879B01AC01C701CE
:1028E000B6010E94C03287FDC5C029813A814B8163
:1028F0005C81C501B4010E94C53269877A878B87E4
:102900009C8720E030E040E85FE30E94F4309B01C8
:10291000AC01C701B6010E94613187FFABC06D8178
:102920007E818F8198850E94D8316B017C01A30143
:102930009201261B370B480B590BAEE3B0E00E9407
:10294000B0304B015C0169857A858B859C850E943E
:10295000D8319B01AC012C193D094E095F09C50115
:10296000B4010E94913069017A018FEFC81AD80A28
:10297000E80AF80A560161E08FE00E94C211C11412
:10298000D10409F496C0EFEFCE16D10409F48CC03F
:10299000EEE1F8E0E4918E2F90E0FC013197EE300B
:1029A000F10508F062C0E556FF4F0C94E63384B59C
:1029B000806884BDC7BC81C084B5806284BDC8BC4A
:1029C0007CC080918000806880938000D0928900D4
:1029D000C092880072C080918000806280938000E5
:1029E000D0928B00C0928A0068C08091900080686D
:1029F00080939000D0929900C09298005EC0809120
:102A00009000806280939000D0929B00C0929A00C8
:102A100054C080919000886080939000D0929D0077
:102A2000C0929C004AC08091C00080688093C00022
:102A30008091C0008F7B8093C000C092CF003DC0CA
:102A40008091C00080628093C000C092D00035C0E9
:102A50008091C20088608093C2008091C2008B7F09
:102A60008093C200C092D20028C0F0E8AF16B10433
:102A7000DCF41FC029813A814B815C81C501B4011E
:102A80000E94C53220E030E040E85FE30E94F4306D
:102A90009B01AC01C701B6010E94C03261E087FD15
:102AA00005C08FE00E94C21161E004C08FE00E9467
:102AB000C21160E08FE00E94921180E090E0A0E8F7
:102AC000BFE380938D0390938E03A0938F03B09305
:102AD00090038093890390938A03A0938B03B09310
:102AE0008C038091950187FFCBC086FD73C01016C3
:102AF0001106DCF540E060E070E084E795E00E94BC
:102B00008518A0902904B0902A0425010B2C000CF4
:102B100066087708C301B2010E941032209191012A
:102B20003091920140919301509194010E94C532DD
:102B30000E94DF316B01E12CF12CC501A0E0B0E077
:102B40009C01AD012C193D094E095F09D8010E9475
:102B5000BB30A30192010E949130CA01B9016C0DF2
:102B60007D1D8E1D9F1D40E071C00115110571F185
:102B7000A0902904B0902A0425010B2C000C6608B3
:102B80007708C301B2010E94103220919101309167
:102B9000920140919301509194010E94C5320E948C
:102BA000DF316B01E12CF12CAA27BB27A01BB10B55
:102BB000A50160E070E09A01AB012C193D094E09B6
:102BC0005F090E94BB30A301920130C040E060E089
:102BD00070E035C017FD02C02A9A01C02A98809083
:102BE000290490902A04092C000CAA08BB08C501EE
:102BF000B4010E94103220919101309192014091D4
:102C00009301509194010E94C5320E94DF316B0103
:102C1000E12CF12CC501B4016C197D098E099F09C5
:102C2000A30192010E94C233A50194010E94913038
:102C3000CA01B9016C0D7D1D8E1D9F1D40E084E70A
:102C400095E00E94851840E060E070E083E795E041
:102C50002C960FB6F894DEBF0FBECDBFDF91CF919B
:102C60001F910F91FF90EF90DF90CF90BF90AF90AA
:102C70009F908F907F906F905F904F900C948518ED
:102C80002C960FB6F894DEBF0FBECDBFDF91CF916B
:102C90001F910F91FF90EF90DF90CF90BF90AF907A
:102CA0009F908F907F906F905F904F9008958F923C
:102CB0009F92AF92BF92CF92DF92EF92FF920F93CB
:102CC0001F93CF93809197040E9469118111E4C0F2
:102CD0000E942912C090AF04D090B004E090B104DB
:102CE000F090B204DC01CB018C199D09AE09BF093B
:102CF0008093B3049093B404A093B504B093B60446
:102D00000E9429126093AF047093B0048093B104C1
:102D10009093B2041092C504C0E0C12CD12C76016E
:102D20008091980490E047962C2F30E0821793070B
:102D3000BCF061E0809196040E94921160E0809165
:102D400096040E949211C83148F4809197040E9421
:102D50006911CC0CDD1CEE1CFF1CC82ACF5FE0CF34
:102D6000D701C601A0580097A10511E0B10718F0DE
:102D700021E02093D1042091D704222361F04FEF6A
:102D80005FEF6FEF70E08A019B01081B190B2A0BA4
:102D90003B0BD901C8014091AD045091AE04209184
:102DA000CB043091CC04B901615071094617570723
:102DB00029F41092AE041092AD0406C04F5F5F4F2D
:102DC0005093AE044093AD040097A105B10509F4FA
:102DD00056C0F090C50441E04F0D4093C504E0910A
:102DE000AD04F091AE04EE0FFF1FEE0FFF1FEA5689
:102DF000FB4F83879487A587B6878091BB04882380
:102E0000F1F18091B804811104C081E08093B8048D
:102E100036C0A0E040E050E0BA018A2F90E082176F
:102E200093078CF4880F991F880F991FFC01EA56AD
:102E3000FB4F83849484A584B684480D591D6A1D74
:102E40007B1DAF5FEACF0090B90404C0759567950C
:102E5000579547950A94D2F74093A9045093AA0432
:102E60006093AB047093AC041092B8041092BB044E
:102E700081E08093C604F394F394F092C5040E9419
:102E800074126093D2047093D3048093D40490930B
:102E9000D5041092D6041AC00E947412C090D204B5
:102EA000D090D304E090D404F090D504DC01CB01A1
:102EB0008C199D09AE09BF0985369105A105B1059B
:102EC00018F081E08093D6041092C5048091C50467
:102ED000CF911F910F91FF90EF90DF90CF90BF9017
:102EE000AF909F908F900895CF92DF92EF92FF92D4
:102EF000CF9381E08093BB041092B8041092C90470
:102F00000E9474122091C7043091C8046B017C01A7
:102F1000C20ED31EE11CF11C0E945716C82F8091CF
:102F2000CA0481110BC00E947412C616D706E806A7
:102F3000F90620F481E08093C90402C0C23061F731
:102F4000CF91FF90EF90DF90CF90089590917B0408
:102F500089B18C70892B90E09C013595279535952A
:102F6000279520937B0440917704509178046091D9
:102F7000790470917A04FC01E55CFE4F8081082E93
:102F8000000C990BAA0BBB0B840F951FA61FB71F34
:102F90008093770490937804A0937904B0937A0493
:102FA000809176040895E0917C04F0917D04019075
:102FB000F081E02D682F8CE794E00994CF93DF93A4
:102FC0008DE00E94D317EC018AE00E94D3178C0F8A
:102FD0009D1FDF91CF910895009769F0FC0101904A
:102FE0000020E9F73197AF01481B590BBC018CE772
:102FF00094E00C94590F80E090E008958F929F9296
:10300000AF92BF92EF92FF920F931F93CF93DF93F4
:10301000CDB7DEB7A1970FB6F894DEBF0FBECDBF18
:10302000162F042F19A2423008F40AE07E0121E293
:10303000E20EF11C802E912CA12CB12C612FA50148
:1030400094010E94C330029F1019112481E0E81AF4
:10305000F1081A3014F4105D01C0195CF7011083F7
:10306000122F732FCA01232B242B252B39F7C701CD
:103070000E94EC17A1960FB6F894DEBF0FBECDBF2D
:10308000DF91CF911F910F91FF90EF90BF90AF9084
:103090009F908F900895CF92DF92EF92FF92CF93FF
:1030A000DF9397FF19C06B017C018DE20E94D3175B
:1030B000EC0166277727CB016C197D098E099F09E2
:1030C0004AE00E94FE178C0F9D1FDF91CF91FF9069
:1030D000EF90DF90CF9008954AE0DF91CF91FF907D
:1030E000EF90DF90CF900C94FE17CF93DF93BC014D
:1030F000990F880B990B0E944B18EC010E94DE1768
:103100008C0F9D1FDF91CF9108950F931F93CF9345
:10311000DF938B01D091B8002CE02093B800FC0124
:10312000C08181E080937404C09379051092730488
:1031300010927204442311F060E601C060E48AE852
:1031400094E00E949410B80184E0769567958A9582
:10315000E1F78AE894E00E949410B80194E0660FC9
:10316000771F9A95E1F78AE894E00E949410809185
:103170007204813208F046C0909151049111FCCF45
:1031800092E09093510491E0909350049FEF9093BC
:103190004F0410924E0480934D04A2E5B4E02DE25A
:1031A00034E0F9019E2F921B981718F49D9191938A
:1031B000F9CF10922C0480912C04CC0FC82BC09313
:1031C0002C0480912B04813061F410922B048091A7
:1031D0002C048093BB008091BC0083FDF8CF85EC6C
:1031E00001C085EE8093BC00809151048230E1F3F0
:1031F00080914F048F3F31F080914F04803211F065
:1032000080914F041092730410927204109274040F
:10321000D093B800DF91CF911F910F9108954F92F5
:103220005F926F927F928F929F92AF92BF92CF9256
:10323000DF92EF92FF92CF93DF93F894C0907704E0
:10324000D0907804E0907904F0907A04789480919A
:10325000290490912A042091270430912804821B8C
:10326000930B97FD039695958795959587950E9465
:10327000161468EC70E080E090E00E944E12260187
:103280003701C8EED3E08091290490912A0420915F
:10329000270430912804821B930B97FD0396959584
:1032A0008795959587950E94161468EC70E080E0EC
:1032B00090E00E944E12F8948090770490907804E9
:1032C000A0907904B0907A047894481459046A0460
:1032D0007B0421F0219724013501A9F68091250472
:1032E00090912604A0E0B0E0F89480937704909346
:1032F0007804A0937904B0937A04789480E090E005
:103300000E941614C814D904EA04FB0411F482E0E4
:1033100001C081E08093E50481E090E0DF91CF91EE
:10332000FF90EF90DF90CF90BF90AF909F908F90E5
:103330007F906F905F904F900C947518682F70E09D
:1033400080E090E04AE00C94FE170F931F930E94D8
:103350007412609384047093850480938604909320
:103360008704E0917C04F0917D040084F185E02DD8
:103370008CE794E0099597FF1FC00E94741200919A
:103380008404109185042091860430918704DC0127
:10339000CB01801B910BA20BB30B00918004109109
:1033A0008104209182043091830480179107A20741
:1033B000B307B8F28FEF9FEF1F910F910895FF921F
:1033C0000F931F93CF93DF9300D000D0CDB7DEB71C
:1033D0000E94A519FC0197FD11C08D32910591F055
:1033E000C0970A9778F0E0917C04F0917D04068004
:1033F000F781E02D8CE794E00995EACF60E070E07A
:10340000CB014CC020E030E0A901F12CE130F10506
:10341000F1F0ED32F105C9F0CF01C0970A97B8F489
:10342000AAE0B0E00E94B0308F01FF0F220B330BF7
:10343000DC01CB01800F911FA21FB31F9C01AD01C6
:10344000205331094109510902C0FF24F394E0914E
:103450007C04F0917D040680F781E02D8CE794E0F8
:1034600029833A834B835C8309950E94A519FC014B
:10347000C09729813A814B815C810A9738F2E1300B
:10348000F10521F2FF2041F066277727CB01621B6F
:10349000730B840B950B02C0CA01B9010F900F90FA
:1034A0000F900F90DF91CF911F910F91FF90089592
:1034B000CF93DF93CDB7DEB7C754D1090FB6F894D9
:1034C000DEBF0FBECDBF789484B5826084BD84B565
:1034D000816084BD85B5826085BD85B5816085BD0F
:1034E00080916E00816080936E00109281008091C7
:1034F000810082608093810080918100816080934F
:103500008100809180008160809380008091910093
:1035100082608093910080919100816080939100FE
:10352000809190008160809390008091C1008460C0
:103530008093C1008091C10082608093C10080911E
:10354000C10081608093C1008091C300816080933D
:10355000C3008091C00082608093C0008091C2004F
:1035600081608093C20080917A00846080937A00A9
:1035700080917A00826080937A0080917A008160E5
:1035800080937A0080917A00806880937A0010920C
:103590008A0181E08093D70080EA8093D80082E19D
:1035A00089BD09B400FEFDCF61E070E080E090E0ED
:1035B0000E944E1280E98093D8008CE08093E20054
:1035C0001092E0000E9429126093610370936203DD
:1035D0008093630390936403109231031092580315
:1035E0001092570310924D0310924E0310924F0306
:1035F00010925003109256031092550310925D03DF
:1036000010925E0310925F031092600342E0BE01CD
:10361000615F7F4F80E090E00E9420098F8598894C
:10362000863B910509F4C0C086EB90E09E878D87AC
:1036300042E0BE01635F7F4F80E090E00E94F108AE
:1036400019821A821B821C8244E0BE016F5F7F4F89
:1036500082E090E00E94F10888E394E09E878D87E5
:1036600042E0BE01635F7F4F86E090E00E94F10878
:1036700084E6898B41E0BE016F5E7F4F88E090E079
:103680000E94F10841E0BE016F5E7F4F8BE090E049
:103690000E94F10841E0BE016F5E7F4F8CE090E038
:1036A0000E94F10841E0BE016F5E7F4F80E190E033
:1036B0000E94F10841E0BE016F5E7F4F8DE090E017
:1036C0000E94F10882E3898B41E0BE016F5E7F4F6B
:1036D00089E090E00E94F10841E0BE016F5E7F4FFB
:1036E0008AE090E00E94F10841E0BE016F5E7F4FEA
:1036F0008EE090E00E94F10886E4898B41E0BE01F3
:103700006F5E7F4F8FE090E00E94F1081E861D865D
:1037100042E0BE01635F7F4F81E190E00E94F108CB
:1037200084EF91E09E878D8742E0BE01635F7F4F0B
:1037300083E190E00E94F1088FEF9FE09E878D87E4
:1037400042E0BE01635F7F4F85E190E00E94F10897
:103750008DE290E09E878D8742E0BE01635F7F4FE0
:1037600087E190E00E94F10881E0898B41E0BE0191
:103770006F5E7F4F88E190E00E94F10880E699E05B
:103780009E878D8742E0BE01635F7F4F89E190E0B5
:103790000E94F10880E8898B41E0BE016F5E7F4F97
:1037A0008DE190E00E94F10842E068E971E086E076
:1037B00090E00E94200942E066E971E089E190E032
:1037C0000E94200941E06AE971E088E090E00E94EF
:1037D000200941E062EA71E089E090E00E9420095E
:1037E00041E060EA71E08AE090E00E94200941E057
:1037F00065EA71E08BE090E00E94200941E064EA14
:1038000071E08CE090E00E94200941E063EA71E001
:103810008DE090E00E94200941E061EA71E08EE0D5
:1038200090E00E94200941E06EE273E08FE090E0BA
:103830000E94200941E06BE971E080E190E00E9484
:10384000200941E062E573E087E190E00E942009F1
:1038500041E06CE373E088E190E00E94200942E0DF
:1038600067E274E081E190E00E94200942E069E2B1
:1038700074E083E190E00E94200942E066E373E097
:1038800085E190E00E9420090091360310913703F2
:1038900010932A040093290460912704709128044E
:1038A000072E000C880B990B0E9410326B017C01D3
:1038B000B801110F880B990B0E9410329B01AC01CB
:1038C000C701B6010E946631609391017093920125
:1038D000809393019093940141E065E971E08DE15B
:1038E00090E00E942009609196017091970180E01C
:1038F00090E00E940E3220E030E044EB53E40E945E
:1039000066316B017C018091980190919901BC0115
:1039100080E090E00E940E329B01AC01C701B6012D
:103920000E94C5320E94DF31709326046093250403
:10393000769567957093300360932F036B01E12CAC
:10394000F12C62E080E00E94C21162E081E00E94FE
:10395000C21110927604C0927704D0927804E0925B
:103960007904F0927A0410927B044A9B05C08091FE
:103970007B04816080937B044B9B05C080917B041A
:10398000826080937B04809169008F7C806180934A
:103990006900EA9A809169008F738064809369005E
:1039A000EB9A60E082E10E94C21160E083E10E9434
:1039B000C21160E084E10E94C2116E9A60E086E06C
:1039C0000E94C211249A1092340310923303109271
:1039D00038031092390310923A0310923B0310926D
:1039E00032031092350361E0809196040E94C21167
:1039F00060E0809197040E94C21111E01093980436
:103A000060E0809196040E949211109398040E94A5
:103A100074126093D2047093D3048093D40490936F
:103A2000D5040E947412603679408105910518F41E
:103A30000E945716F6CF0E9474171092C604609128
:103A4000520370E080E090E00E940E3220E030E00F
:103A500040E85EE30E94C5329B01AC01609399048B
:103A600070939A0480939B0490939C0460E070E0B0
:103A700080E89FE30E94663160939D0470939E04EA
:103A800080939F049093A0048AE191E090938C012D
:103A900080938B0188E395E090937605809375057C
:103AA00087E59CE09093780580937705229A219A88
:103AB00080913603909137039093900180938F010A
:103AC00090932A048093290480E6809374051092D1
:103AD0008E0110928D0110927304109272040E9454
:103AE000F81381E6809373051092730410927204A8
:103AF0000E94F81341E060E070E084E795E00E94E6
:103B0000851841E060E070E083E795E00E94851849
:103B100013E0299A64E170E080E090E00E944E1288
:103B2000299864E170E080E090E00E944E1211500C
:103B300081F780E090E00E94161480912F0390910D
:103B40003003A0E0B0E0F894809377049093780479
:103B5000A0937904B0937A04789488E090E09093ED
:103B60004403809343038FEF97E090934203809345
:103B7000410380915203809351030E942912609364
:103B8000DD047093DE048093DF049093E0040091E1
:103B900065031091660320916703309168034B0120
:103BA0005C01801A910AA20AB30A8092D904909209
:103BB000DA04A092DB04B092DC040091610310915E
:103BC000620320916303309164035B016C01A01ACE
:103BD000B10AC20AD30A40EDA41647E0B406C104F4
:103BE000D10410F40C945B2F609361037093620313
:103BF0008093630390936403E2E210923503809113
:103C0000330390913403829774F01092340310922E
:103C10003303109238031092390310923A03109232
:103C20003B0310923203809133039091340382302E
:103C3000910564F4892B09F42C9A809133039091B7
:103C40003403019709F045C02C9843C09C012170B2
:103C5000332780FD3AC099B1991F9927991F9093F6
:103C6000350380913203803258F5409138035091EA
:103C7000390360913A0370913B0301E010E020E0CA
:103C800030E0082E04C0000F111F221F331F0A94BA
:103C9000D2F7992329F0402B512B622B732B08C0AC
:103CA000009510952095309540235123622373236E
:103CB000409338035093390360933A0370933B0366
:103CC0008F5F80933203769A04C02130310509F466
:103CD0007698809133039091340301969093340346
:103CE00080933303E15009F088CFF8944091770432
:103CF000509178046091790470917A04789480915D
:103D00002F03909130034A015B01881A990AA10898
:103D1000B1088A8A9B8AAC8ABD8A80925D039092A0
:103D20005E03A0925F03B09260038091E6049091DD
:103D3000E704A091E804B091E904881A990AAA0A54
:103D4000BB0AC501B4010E9410328A889B88AC88E6
:103D5000BD888092E6049092E704A092E804B092B5
:103D6000E9042091EE042223D1F11091170504E01B
:103D7000109FF0011124EA51FB4F618772878387FE
:103D80009487012F7AE0F72E60E070E0CB0124E009
:103D9000029FF0011124EA51FB4F218532854385B2
:103DA00054850E94F530002311F0015001C009E054
:103DB000FA94F110ECCF20E030E040E251E40E94B0
:103DC000663121E0210F2A3018F42093170502C034
:103DD000109217056CA378AB89AB9AAB0FC081E04A
:103DE0008093EE041092EA041092EB041092EC041B
:103DF0001092ED041CA218AA19AA1AAA209118055B
:103E00003091190540911A0550911B058CA198A974
:103E1000A9A9BAA98093180590931905A0931A052A
:103E2000B0931B0580912005882309F443C01091AD
:103E3000710564E0169FC0011124DC01A151BB4F44
:103E40007D016CA178A989A99AA90E94F430F70193
:103E500062AB73AB84AB95AB012F64E1F62E60E0EF
:103E600070E0CB0124E0029FF0011124E151FB4FEF
:103E700022A933A944A955A90E94F530002311F0C5
:103E8000015001C003E1FA94F110ECCF20E030E0E2
:103E900040EA51E40E94663121E0210F243118F4F8
:103EA0002093710502C0109271056FAB78AF89AF96
:103EB0009AAF0FC081E08093200510921C051092EC
:103EC0001D0510921E0510921F051FAA18AE19AEEF
:103ED0001AAE80917205882309F450C08A899B89A3
:103EE000AC89BD89B7FF07C0B095A0959095819525
:103EF0009F4FAF4FBF4F0297A105B1050CF4CEC73E
:103F000080913C0380FFCAC70E947B069B01AC01E5
:103F100060E070E080E094E40E9466316B017C0117
:103F200060912E0370E080E090E00E9410329B01CF
:103F3000AC01C701B6010E94C53220E030E048EC78
:103F400052E40E9466310E94D831DB012A893B8904
:103F50004C895D890E94BB3020E230E040E050E0B7
:103F60000E949130CA01B9010E9489074424552456
:103F70003201461A570A680A790A93C746EA51E09D
:103F80005F8F4E8F212C312C412C512C32015FEF51
:103F9000251A350A6DE1629D8001639D100D112483
:103FA0000E521E4FD8018C918370833009F06AC77E
:103FB0000E947B066B017C01F80120853185A68972
:103FC000B7890E94EC332FEF3FE740E050E00E94BA
:103FD0009130CA01B9010E941032A70196010E94D6
:103FE00066310E94D8316B017C01D8011A968D91FF
:103FF0009C911B97059730F4E4E0F0E01B96FC934E
:10400000EE931A975DE1852E829CF001839CF00D62
:104010001124EE52FE4FE1818E2F90E0FC0131978A
:10402000ED30F10508F018C7EA5AFF4F0C94E6335B
:104030000E947B066E8B7F8B888F998F4DE1942E2B
:10404000929CC001939C900D11248C010E521E4F26
:104050004801D80118960D90BC91A02DBB8FAA8F56
:10406000F801A488B588C684D784E088F1880289DD
:1040700013892381428186899789AE8DBF8D6D9189
:104080007C910E948C062A8D3B8DDC010E94EC33D2
:104090002FEF3FE740E050E00E949130CA01B901A4
:1040A0000E9410322E893F89488D598D0E946631B9
:1040B0000E94D8310E9489079B01AC01A091A50103
:1040C000B0E00E94B03024E630E040E050E00E94D2
:1040D0009130421A530A640A750AF401858182FFFD
:1040E000BBC66485758580E090E00E940E322BEDA2
:1040F0003FE049EC50E40E94C53220E030E040E06F
:1041000058E30E94C5320E9432339B01AC01C301C7
:10411000B20125962FAF259728963FAF2897269670
:104120004FAF269727965FAF27970E9410322596AC
:104130002FAD259728963FAD289726964FAD269709
:1041400027965FAD27970E94C5320E94D8312B0178
:104150003C0182C60E947B066E8B7F8B888F998F75
:10416000ADE18A2E829CF001839CF00D1124EE5269
:10417000FE4F808491849B8E8A8EA488B588B9A2D4
:10418000A8A2C684D784D9A6C8A6E088F188FDA6CF
:10419000ECA6028913891CAB0BAB838023968FAEF0
:1041A0002397928024969FAE2497AE8DBF8D8D90DD
:1041B0009C90068517856781A6800A2C000CBB0899
:1041C000062E000C770B6A197B09CB01770FAA0B1F
:1041D000BB0B6627782F892F9A2F0E9410326B0114
:1041E0007C01B80180E090E00E940E3220E030E0D7
:1041F0004AE754E40E9466319B01AC01C701B60155
:104200000E9466316B017C01C401B8010E94D23367
:10421000BC0180E090E00E940E3220E030E04AE7EE
:1042200054E40E9466319B01AC01C701B6010E94B3
:10423000C5320E94D831BA2CAA24C501860F971F17
:10424000A8A0B9A0C8A4D9A4ECA4FDA40BA91CA93A
:1042500023962FAD239724964FAD2497B4010E9447
:104260008C062A8D3B8DDC010E94EC332FEF3FE75B
:1042700040E050E00E949130CA01B9010E94103222
:104280002E893F89488D598D0E9466310E94D83110
:10429000FEC40E947B066A8F7B8F8C8F9D8FBDE151
:1042A000B29DF001B39DF00D1124EE52FE4F8084BB
:1042B000918499A288A2828C938C99A688A6948CCA
:1042C0009CA682849384A488B588C684D784E08819
:1042D000F1880289138923814281AE8DBF8D0D90B3
:1042E000BC91A02DBF8BAE8B86899789BD010E94A2
:1042F0008C068C01B40180E090E00E940E3220E038
:1043000030E04AE754E40E9466319B01AC0160E072
:1043100070E080E89FE30E9466316B017C018E892A
:104320009F89B4010E94D233BC0180E090E00E94DA
:104330000E3220E030E04AE754E40E9466319B01EF
:10434000AC01C701B6010E94C5326B017C018CA48F
:10435000682D70E080E090E00E940E3220E030E0B6
:1043600040E85BE30E94C5329B01AC01C701B60186
:104370000E94F5302BED3FE049EC50E40E94C5323D
:104380000E9432339B01AC0188A499A46401990C6A
:10439000EE08FF08B801110F880B990B25962FAF77
:1043A000259728963FAF289726964FAF26972796B2
:1043B0005FAF27970E94103225962FAD259728963C
:1043C0003FAD289726964FAD269727965FAD279746
:1043D0000E94C5320E94D831CB01770FAA0BBB0BCC
:1043E000A7019601280F391F4A1F5B1FA8A1B9A179
:1043F0000E94B0302FEF3FE740E050E00E94913044
:10440000CA01B9010E9410322A8D3B8D4C8D5D8D01
:10441000CFC00E947B0668A379A38AA39BA3FDE17A
:104420009F2E929CF001939CF00D1124EE52FE4FB2
:104430008084918499A688A6228D338D4901330FFB
:10444000AA08BB088CA69DA6AEA6BFA6948C9BAA64
:10445000828493849F8A8E8AA488B588C684D784F0
:10446000E088F1880289138923814281AE8DBF8D56
:104470000D90BC91A02DBB8FAA8F86899789BD0115
:104480000E948C06BC01990F880B990B0E94103278
:104490006B017C01B40180E090E00E940E3220E0CC
:1044A00030E04AE754E40E9466319B01AC0160E0D1
:1044B00070E080E89FE30E9466314B015C018A8DC9
:1044C0009B8D6E897F890E94D233BC0180E090E091
:1044D0000E940E3220E030E04AE754E40E94663148
:1044E0009B01AC01C501B4010E94C5324B015C01C6
:1044F000BBA96B2F70E080E090E00E940E3220E0BC
:1045000030E040E85BE30E94C5329B01AC01C5018D
:10451000B4010E94F5302BED3FE049EC50E40E94DD
:10452000C5320E9432334B015C0120E030E0A9012A
:104530000E94C03287FF0CC020E030E0A901C50115
:10454000B4010E94613187FF05C0EFEFEBAF02C0FD
:10455000F1E0FBAF8BAC682D880C770B880B990BC7
:104560000E9410329B01AC01C701B6010E94C53206
:104570000E94D831CB01770FAA0BBB0B2CA53DA510
:104580004EA55FA5280F391F4A1F5B1FA8A5B9A517
:104590000E94B0302FEF3FE740E050E00E949130A2
:1045A000CA01B9010E94103228A139A14AA15BA118
:1045B0000E9466310E94D8319B01AC01A091A401F8
:1045C000B0E00E94B03024E630E040E050E00E94CD
:1045D0009130420E531E641E751E3EC40E947B061F
:1045E00068A779A78AA79BA7EDE19E2E929CF00170
:1045F000939CF00D1124EE52FE4F808491849DA671
:104600008CA6228D338D4901330FAA08BB088BAAD3
:104610009CAAADAABEAA348D828493849F8A8E8A76
:10462000A488B588C684D784E088F1880289138974
:1046300023814281AE8DBF8D0D90BC91A02DBB8F8B
:10464000AA8F86899789BD0128963FAF28970E9437
:104650008C068C01B40180E090E00E940E324B0188
:104660005C0128963FAD289760E4630F70E080E01E
:1046700090E00E940E3220E030E040E85BE30E94D0
:10468000C532A50194010E94C5320E94DF318A8D96
:104690009B8D860F971F6E897F890E94D2339B8FD7
:1046A0008A8FBC0180E090E00E940E3220E030E072
:1046B0004AE754E40E9466316B017C0120E030E05F
:1046C000A9010E94C03287FD39C020E030E04AE7EE
:1046D00054E4C501B4010E94663168A379A38AA39A
:1046E0009BA320E030E040E05FE30E94C5329B01E5
:1046F000AC01C701B6010E94613187FF1FC0B8013C
:10470000012E000C880B990B0E94103220E030E043
:1047100040E850E40E94C53228A139A14AA15BA11A
:104720000E946631A70196010E94C5320E94D831CD
:1047300022273327201B310B49014EC020E030E0F7
:104740004AE754E4C501B4010E9466314B015C01A3
:1047500020E030E040E05FE30E94C5329B01AC0105
:10476000C701B6010E94C03287FD3AC0A50194017D
:10477000C701B6010E94613187FF32C0B801012E26
:10478000000C880B990B0E94103220E030E040E8CA
:1047900050EC0E94C532A50194010E9466316B0164
:1047A0007C018E899F89969587956A8D7B8D681B84
:1047B000790B80E090E00E940E3220E030E04AE782
:1047C00054E40E9466319B01AC01C701B6010E940E
:1047D000C5320E94D8314801860E971E9DAE8CAE20
:1047E0008CAC9DACC401990CAA0BBB0B2BA93CA9AA
:1047F0004DA95EA9280F391F4A1F5B1FACA5BDA597
:104800000E94B0302FEF3FE740E050E00E9491302F
:10481000CA01B9010E94103228A539A54AA55BA595
:10482000C7CE0E947B0668A379A38AA39BA36DE1F0
:10483000962E929CF001939CF00D1124EE52FE4FA7
:104840008084918499A688A6228D338D4901330FE7
:10485000AA08BB088CA69DA6AEA6BFA6348D8284EE
:104860009384A488B588C684D784E088F1880289B7
:10487000138923814281AE8DBF8D0D90BC91A02DF7
:10488000BF8BAE8B86899789BD0128963FAF28974D
:104890000E948C069B8F8A8FB40180E090E00E947A
:1048A0000E326B017C0128963FAD289760E8630FBC
:1048B00070E080E090E00E940E3220E030E040E8BE
:1048C0005BE30E94C532A70196010E94C5320E9497
:1048D000DF318E899F89860F971FB4010E94D233E2
:1048E0008C0188159905D8F58A8C9B8CB401990C9C
:1048F000880B990B0E9410329B01AC010E94F5308D
:104900004B015C0120E030E04AE754E4C701B60106
:104910000E9466319B01AC01C501B4010E94663161
:104920006B017C01B80180E090E00E940E3220E033
:1049300030E04AE754E40E9466319B01AC01C701B4
:10494000B6010E94C5320E94D8312A8D3B8D319527
:10495000219531094901860E971E9FAE8EAE8EAC11
:104960009FACA3C00E947B0668A379A38AA39BA3E4
:104970005DE1952E929CF001939CF00D1124EE5276
:10498000FE4F8084918499A688A6228D338D49019B
:10499000330FAA08BB088CA69DA6AEA6BFA6348D71
:1049A00082849384A488B588C684D784E088F188FB
:1049B0000289138923814281AE8DBF8D0D90BC91F8
:1049C000A02DBF8BAE8B86899789BD0128963FAFFE
:1049D00028970E948C069B8F8A8FB40180E090E01C
:1049E0000E940E326B017C0128963FAD289760E84B
:1049F000630F70E080E090E00E940E3220E030E033
:104A000040E85BE30E94C532A70196010E94C532CF
:104A10000E94DF318E899F89860F971FB4010E9403
:104A2000D2338C0188159905E0F56A8D7B8D7195DF
:104A300061957109072E000C880B990B0E941032AA
:104A40009B01AC010E94F5304B015C0120E030E09D
:104A50004AE754E4C701B6010E9466319B01AC01EC
:104A6000C501B4010E9466316B017C01B80180E090
:104A700090E00E940E3220E030E04AE754E40E94C9
:104A800066319B01AC01C701B6010E94C5320E948C
:104A9000D8318A8C9B8C860E971E22969FAE8EAE46
:104AA000229722968EAC9FAC2297C401990CAA0B38
:104AB000BB0B64CD3DE1932E929CF001939CF00DD5
:104AC0001124EE52FE4FA28DB38D00912F03109151
:104AD000300398010E94EC33DC01CB014FE0B59527
:104AE000A795979587954A95D1F7092E000CAA0BA3
:104AF000BB0B8A889B88AC88BD88881A990AAA0A49
:104B0000BB0A181419041A041B04D4F4A28DB38D23
:104B10000E94EC33DC01CB012FE0B595A79597956A
:104B200087952A95D1F7092E000CAA0BBB0B4A8951
:104B30005B896C897D89481B590B6A0B7B0B1AC0FA
:104B4000A28DB38D98010E94EC33AB01BC01FFE054
:104B50007595679557954795FA95D1F7052E000CF1
:104B6000660B770B8A889B88AC88BD8848195909E1
:104B70006A097B09EDE19E2E929CF001939CF00D59
:104B80001124EE52FE4F848128E0829FC00111243F
:104B9000092E000CAA0BBB0B84179507A607B707B5
:104BA0000CF05AC1A28DB38D98010E94EC33DC0148
:104BB000CB015FE0B595A795979587955A95D1F765
:104BC000092E000CAA0BBB0B8A889B88AC88BD8879
:104BD000881A990AAA0ABB0AB7FC05C048EFA42E96
:104BE000BB24BA9403C038E0A32EB12C8DE1982EDB
:104BF000929CF001939CF00D1124EE52FE4F948094
:104C0000228D338D3F8B2E8BA091A301B0E0A701A5
:104C100096010E94B03020E436E040E050E00E946F
:104C2000913069017A019A9CC0019B9C900D1124DE
:104C3000092E000CAA0BBB0B8A889B88AC88BD8808
:104C4000880E991EAA1EBB1E9801AE89BF890E94BC
:104C5000EC33DC01CB012FE0B595A79597958795AF
:104C60002A95D1F7092E000CAA0BBB0BA5019401C4
:104C7000281B390B4A0B5B0BD6010E94BB3020E28C
:104C800030E040E050E00E949130CA01B9010E943A
:104C90008907461A570A680A790ADEC03DE1329D43
:104CA000F001339DF00D1124EE52FE4F028D138D55
:104CB000A091A201B0E0A70196010E94B03024E6C5
:104CC00030E040E050E00E94913069017A01B80183
:104CD000110F880B990B0E9410322AE939EC4CEC29
:104CE00054E40E9466319B01AC016CA178A989A9AA
:104CF0009AA90E94F430A6010E945D0861C04DE1AE
:104D0000429DF001439DF00D1124EE52FE4F028DA5
:104D1000138DA091A101B0E0A70196010E94B030CF
:104D200024E630E040E050E00E94913069017A01D1
:104D3000B801110F880B990B0E94103220E03EEF52
:104D40004FEF56E40E9466319B01AC016FA978AD2C
:104D500089AD9AAD0E94F430A6010E94050830C0CA
:104D60005DE1529DF001539DF00D1124EE52FE4F76
:104D7000028D138DA091A001B0E0A70196010E94C1
:104D8000B03024E630E040E050E00E94913069010C
:104D90007A01B801110F880B990B0E9410322AE991
:104DA00039EC4CEC54E40E9466319B01AC016CA1DF
:104DB00078A989A99AA90E94F430A6010E94B60791
:104DC000092E000CAA0BBB0B480E591E6A1E7B1E37
:104DD00043C00E947B069B01AC016DE1629DF00126
:104DE000639DF00D1124EE52FE4F828D938DBC0118
:104DF000990F880B990B25962FAF259728963FAFD3
:104E0000289726964FAF269727965FAF27970E9441
:104E1000103225962FAD259728963FAD28972696D8
:104E20004FAD269727965FAD27970E9466310E9467
:104E3000D8310E9489079B01AC01A091A401B0E088
:104E40000E94B03024E630E040E050E00E94913013
:104E5000421A530A640A750A0E94741200919C0156
:104E600010919D0120919E0130919F01DC01CB01A9
:104E7000801B910BA20BB30BEE8DFF8D8083918372
:104E8000A283B3830E8D1F8D0C5F1F4F1F8F0E8F5C
:104E90001BE02116310409F07AC803C0412C512CC3
:104EA000320110913C0311FF3EC00E947B069B0122
:104EB000AC01E091A20167E471E0E69FC001E79FC9
:104EC000900D1124BC01990F880B990B25962FAFDB
:104ED000259728963FAF289726964FAF2697279677
:104EE0005FAF27970E94103225962FAD2597289601
:104EF0003FAD289726964FAD269727965FAD27970B
:104F00000E9466310E94D831AB016CA178A989A9B1
:104F10009AA90E945D08092E000CAA0BBB0B480E33
:104F2000591E6A1E7B1E12FF3EC00E947B069B011B
:104F3000AC01E091A10167E471E0E69FC001E79F49
:104F4000900D1124BC01990F880B990B25962FAF5A
:104F5000259728963FAF289726964FAF26972796F6
:104F60005FAF27970E94103225962FAD2597289680
:104F70003FAD289726964FAD269727965FAD27978A
:104F80000E9466310E94D831AB016FA978AD89AD1E
:104F90009AAD0E940508092E000CAA0BBB0B480E07
:104FA000591E6A1E7B1E13FF3EC00E947B069B019A
:104FB000AC01E091A00167E471E0E69FC001E79FCA
:104FC000900D1124BC01990F880B990B25962FAFDA
:104FD000259728963FAF289726964FAF2697279676
:104FE0005FAF27970E94103225962FAD2597289600
:104FF0003FAD289726964FAD269727965FAD27970A
:105000000E9466310E94D831AB016CA178A989A9B0
:105010009AA90E94B607092E000CAA0BBB0B480EDA
:10502000591E6A1E7B1EC0902F03D0903003E12CC6
:10503000F12C88279927DC018C199D09AE09BF093D
:105040008A889B88AC88BD8888169906AA06BB0604
:105050006CF0C814D904EA04FB040CF043C08C18AB
:105060009D08AE08BF087501640108C08A889B8846
:10507000AC88BD88C80CD91CEA1CFB1C0E947B06AE
:105080009B01AC0160E07EEF8FEF96E40E946631F9
:105090004B015C0160919B0170E080E090E00E9418
:1050A00010329B01AC01C501B4010E94C53220E061
:1050B00030E048EC52E40E9466310E94D831DB01B6
:1050C000A70196010E94BB3020E230E040E050E0B2
:1050D0000E949130CA01B9010E948907461A570AF5
:1050E000680A790AA0919A01B0E0A30192010E9496
:1050F000B03024E630E040E050E00E949130CA0138
:10510000B9010E9489076B017C0114FF04C00E9451
:105110004B180E94DE17C0925903D0925A03E092B6
:105120005B03F0925C0360915D0370915E0380917C
:105130005F03909160030E9410324B015C0160910B
:1051400025047091260480E090E00E940E329B01BD
:10515000AC0160E07FEF8FE797E40E9466319B012E
:10516000AC01C501B4010E94C5320E94D8316A8BDE
:105170007B8B8C8B9D8B611570488105910554F05C
:1051800088248A940FE7902EA12CB12C8A8A9B8ABE
:10519000AC8ABD8A8A889B88AC88BD8801E080166D
:1051A00000E890060FEFA006B0065CF48824839414
:1051B00010E8912EAA24AA94BA2C8A8A9B8AAC8AD7
:1051C000BD8A8A889B88AC88BD8880925D03909256
:1051D0005E03A0925F03B0926003C6010E941614A2
:1051E00082E10E94FE11880F991F880F991F9F8FDF
:1051F0008E8F909358038093570383E10E94FE1192
:105200003C01660C771C660C771C7092560360920A
:10521000550384E10E94FE111C01220C331C220C58
:10522000331C309254032092530310915203809107
:105230005103181741F1612F70E080E090E00E9467
:105240000E3220E030E040E85EE30E94C5329B0170
:10525000AC016093990470939A0480939B0490939B
:105260009C0460E070E080E89FE30E9466316093F8
:105270009D0470939E0480939F049093A0041093C8
:1052800051030E9474170E9457162091CB0430914D
:10529000CC04A0E040E050E0BA018A2F90E08217F1
:1052A00093078CF4880F991F880F991FFC01EA5609
:1052B000FB4FC384D484E584F6844C0D5D1D6E1DC4
:1052C0007F1DAF5FEACF0090B90404C07595679564
:1052D000579547950A94D2F74093CD045093CE0446
:1052E0006093CF047093D0048091A9049091AA0494
:1052F000A091AB04B091AC045A016B01A81AB90A91
:10530000CA0ADB0AC601B5010E94103220919D0431
:1053100030919E0440919F045091A0040E94C53298
:105320000E94D8316B017C018091060190910701A8
:105330000E8D1F8D0817190720F410930701009395
:10534000060180914B0390914C038E8C9F8C8815A5
:10535000990520F490924C0380924B0380910401B4
:1053600090910501092E000CAA0BBB0BC816D9069B
:10537000EA06FB0624F4D0920501C0920401809154
:10538000490390914A03092E000CAA0BBB0B8C1504
:105390009D05AE05BF0524F4D0924A03C09249038F
:1053A00080910201909103016816790620F47092B1
:1053B0000301609202018091470390914803861592
:1053C000970520F470924803609247038091000192
:1053D000909101012816390620F4309201012092A3
:1053E000000180914503909146038215930520F4B6
:1053F00030924603209245030091430310914403E9
:105400008091060190910701800F911F4C01A12C02
:10541000B12C8CA29DA2AEA2BFA28090020190905E
:105420000301800E911EA12CB12CC301770CAA0B95
:10543000BB0B9C01AD01281939094A095B09AFEF83
:10544000BFE00E94B0302091470330914803201BF9
:10545000310B2901612C712CA30192012819390902
:105460004A095B090E9491302E8B3F8B488F598FE0
:105470004090000150900101400E511E612C712C92
:10548000C101330CAA0BBB0B9C01AD0124193509DA
:1054900046095709AFEFBFE00E94B03020914503A5
:1054A00030914603201B310B40E050E024193509B0
:1054B000460957090E94913029013A01AE8CBF8CF0
:1054C000A501BB0C660B770B9A01AB018CA09DA0CC
:1054D000AEA0BFA0281939094A095B09AFEFBFE0A8
:1054E0000E94B03020914B0330914C03201B310BB4
:1054F000890120E030E0A9019801281939094A09F9
:105500005B090E949130211500E1300714F02FEF64
:105510003FE037FF02C020E030E030935803209393
:1055200057030E891F89011540E1140714F00FEF8E
:105530001FE017FF02C000E010E010935603009335
:105540005503F201411450E1550614F0EFEFFFE06E
:10555000F7FF02C0E0E0F0E0F0935403E093530360
:105560008091410390914203A0E0B0E0C816D906B3
:10557000EA06FB064CF410924D0310924E03109273
:105580004F03109250031CC0C81AD90AEA0AFB0A3A
:10559000C114D10461E0E606F1042CF0CC24CA94D5
:1055A000DC2CE12CF12CF7FE03C0C12CD12C7601B0
:1055B000C0924D03D0924E03E0924F03F0925003FD
:1055C000409138035091390360913A0370913B0345
:1055D000942F9F70913081F0923081F0943081F05F
:1055E000983081F0933081F0963081F0993081F0DD
:1055F0009C3081F090E00FC091E00DC093E00BC0B3
:1056000095E009C097E007C092E005C094E003C0B0
:1056100098E001C096E0407F4A015B01892AD501EC
:10562000C40180933D0390933E03A0933F03B09346
:10563000400350914D0340914E039A889982AB8864
:10564000AA825B834C832D83202F2295207F232BDE
:105650002E83480114E0969487941A95E1F78F827F
:10566000E887282F2295207F2F2B2987AC01BD01A9
:1056700004E076956795579547950A95D1F74A873F
:10568000AC01BD012CE076956795579547952A9515
:10569000D1F74B8734E1B695A795979587953A95BD
:1056A000D1F78C874CE050E0BE016F5F7F4F84E004
:1056B0000E94360C8091D9049091DA04A091DB0409
:1056C000B091DC0480319742A105B10508F4F3C321
:1056D0008CE794E00E94C60F181619060CF0DBC385
:1056E0008CE794E00E948C0F182F8FE9810F8A318C
:1056F00008F4105261E070E080E090E00E942035F4
:105700001C01009731F0DC011C9268E871E00E94F6
:10571000F835812F90E0FC01E154F109E731F10502
:1057200008F0B6C3ED59FF4F0C94E6336091980131
:105730007091990180E090E04AE00E94FE1780E2BB
:105740000E94D31780919A010E949E1980E20E94C4
:10575000D3178091A2010E949E1980E20E94D31764
:105760008091A0010E949E1980E20E94D31780912F
:10577000A5010E949E1980E20E94D3178091A40186
:105780000E949E1980E20E94D3178091A3010E947B
:105790009E1980E20E94D3178091A1010E949E1958
:1057A00080E20E94D31780912E030E949E1980E20E
:1057B0000E94D31780919B010E949E1980E20E9453
:1057C000D3176091270470912804072E000C880BD2
:1057D000990B0E944B1880E20E94D31780915203CC
:1057E0000E949E1980E20E94D31780913C030E9480
:1057F0009E1980E20E94D3176091290470912A04B7
:10580000072E000C880B990B0E944B1880E20E9417
:10581000D317609196017091970180E090E04AE083
:105820000E94FE1780E20E94D3176091950170E0FC
:1058300023C28BE791E00E94EC1766EB70E080E0FA
:1058400090E00E944B1880E891E00E94EC1782E8FB
:1058500091E00E94EC1784E891E00E94EC1786E842
:1058600091E00E94EC1714C38091E504082E000C0F
:10587000990B0CC30E940F190BC30E94DF19611111
:1058800001C061E060935203FFC28FEF9FE09093ED
:1058900007018093060110924C0310924B039093E2
:1058A00005018093040110924A03109249039093DA
:1058B00003018093020110924803109247039093D2
:1058C0000101809300011092460310924503DCC24F
:1058D0000E94DF196430710514F464E070E07A838B
:1058E0006983F8944090770450907804609079042C
:1058F00070907A0478948090E1049090E204A090F3
:10590000E304B090E404609198017091990180E003
:1059100090E00E940E326B017C0180912F039091E8
:105920003003481A590AB201680D791D072E000C80
:10593000880B990B0E941032A70196010E94C53274
:105940002B013C01609125047091260480E090E0D9
:105950000E940E329B01AC01C301B2010E9466316C
:105960002B013C0169817A817093970160939601C4
:10597000072E000C880B990B0E94103220E030E0BB
:1059800044EB53E40E946631A70196010E94C532A0
:105990000E94D83170932604609325048B011695DC
:1059A00007951093300300932F0380E090E00E944E
:1059B0000E329B01AC01C301B2010E94C532A701A6
:1059C00096010E9466310E94D831600F711F8B01D1
:1059D00020E030E0081919092A093B09F8940093DE
:1059E0007704109378042093790430937A040FC0DD
:1059F00080912F0390913003A0E0B0E0F894809361
:105A0000770490937804A0937904B0937A047894FF
:105A10003BC20E94DF196E3171053CF06930B7E07E
:105A20007B072CF068E077E002C06EE170E07A83DB
:105A30006983F8948091770490917804A091790417
:105A4000B0917A047894C090E104D090E204E090A0
:105A5000E304F090E40420912F0330913003821B83
:105A6000930BBC016C0D7D1D072E000C880B990B50
:105A70000E9410324B015C01609198017091990174
:105A800080E090E00E940E329B01AC01C501B401A0
:105A90000E94C5324B015C0160912504709126047F
:105AA00080E090E00E940E329B01AC01C501B40180
:105AB0000E9466312B013C0109811A8110939901E2
:105AC00000939801609196017091970180E090E0B9
:105AD0000E940E3220E030E044EB53E40E94663135
